:100000000C94D4020C941B030C941B030C941B0340
:100010000C941B030C941B030C941B030C941B03E8
:100020000C941B030C941B030C949F270C947128B5
:100030000C94011E0C941B030C941B030C941B03C7
:100040000C941B030C941B030C941B030C941B03B8
:100050000C941B030C94691E0C941B030C941B033F
:100060000C941B030C941B030C941B030C941B0398
:100070000C941B030C941B030C941B030C941B0388
:100080000C941B030C941B030C941B030C941B0378
:100090000C941B030C941B030C941B030C941B0368
:1000A0000C941B030C941B030C941B035404560464
:1000B000610458045A045C045E046004630465042B
:1000C0006704720469046B046D046F0471047404A2
:1000D000FB13FB132D142D146B148B1420162016F8
:1000E000CD1420167A157A15EC15F515201619166B
:1000F0008715871587158715871587158715871520
:10010000871587158715871587158715871587150F
:100110009815A615AD15B415BE15AF16AF16C116B8
:10012000C116B816C116C116C116AF16AF16BD1648
:10013000C116C116BD16DE280529F7290529F7299C
:1001400051297429F729CA29D92907634236B79B4F
:10015000D8A71A39685618AEBAAB558C1D3CB7CC27
:100160005763BD6DEDFD753EF6177231BF0000009F
:10017000803F05A84CCDB2D44EB93836A9020C50F8
:10018000B9918688083CA6AAAA2ABE000000803F32
:1001900029001E001F00200021002200230024004F
:1001A0002500260027002D002E002A002A002B0003
:1001B000000014001A000800150017001C001800A9
:1001C0000C00120013002F00300031003900000035
:1001D00004001600070009000A000B000D000E00C5
:1001E0000F003300340028002800E100E1001D006A
:1001F0001B00060019000500110010003600370032
:1002000038000000E500E500E000E3000000E20047
:10021000000000002C00000000000000E600E700E5
:1002200000000151E4000100010001000100010093
:1002300001000100010001000100010001000100B6
:1002400001000100010000000100010001000100A7
:100250000100010001000100010001000100010096
:100260000100010000000100010001000100010087
:100270000100010001000100010001000100010076
:100280000100010001000100010001000100010066
:100290000100010001000100000001000100010057
:1002A000010000000100000000000100000000004B
:1002B00000000100010000000100010000046801CD
:1002C000F000B40078005A007F3F1F64321464329B
:1002D00014783C1E1E140A050000000000010101F4
:1002E00001010101010102020202020202020203F3
:1002F00003030303030303040404040404050505C2
:100300000505060606060607070707080808080980
:1003100009090A0A0A0A0B0B0B0C0C0C0D0D0D0E29
:100320000E0F0F0F101011111112121313141415B8
:100330001516161717181819191A1A1B1C1C1D1D2B
:100340001E1F1F202021222223242525262727287F
:10035000292A2B2B2C2D2E2F2F30313233343536AA
:10036000363738393A3B3C3D3E3F404142434446B4
:100370004748494A4B4C4D4F505152535556575888
:100380005A5B5C5E5F606263646667696A6C6D6E2F
:10039000707173747678797B7C7E808183848688A3
:1003A0008A8B8D8F91929496989A9B9D9FA1A3A5DD
:1003B000A7A9ABADAFB1B3B5B7B9BBBDBFC1C4C6DB
:1003C000C8CACCCFD1D3D6D8DADCDFE1E4E6E8EB9B
:1003D000EDF0F2F5F7FAFCFF0403300000002C0307
:1003E000310055005000200052004700420020001C
:1003F00055006E0064006500720067006C006F00BD
:100400007700200050004300420000001A03310032
:10041000750070006B006500790062006F0061007C
:1004200072006400730000000403090409026D00F7
:10043000040100A0FA0904000001030101000921E0
:10044000110100012240000705810308000A090488
:1004500001000103010200092111010001224D00E8
:100460000705820308000A090402000103000000D6
:100470000921110100012236000705830308000A43
:1004800009040300010300000009211101000122F9
:10049000390007058403200001120110010000004B
:1004A00008EDFE606001000102030105010906A1DB
:1004B00001050719E029E715002501950875018157
:1004C0000205081901290595057501910295017527
:1004D0000391010507190029F71500250195F87505
:1004E000018102C005010980A101850216010026D3
:1004F00003001A81002A8300751095018100C00550
:100500000C0901A1018503160100269C021A0100B5
:100510002A9C02751095018100C005010902A10104
:100520000901A100050919012905150025019505F5
:1005300075018102950175038101050109300931B9
:100540001581257F95027508810609381581257F5B
:10055000950175088106050C0A38021581257F95DD
:100560000175088106C0C005010906A1010507192A
:10057000E029E715002501950875018102950175AF
:100580000881010508190129059505750191029554
:1005900001750391010507190029FF150026FF00C9
:1005A000950675088100C00011241FBECFEFDAE068
:1005B000DEBFCDBF04B603FE27C08091AA02909192
:1005C000AB02A091AC02B091AD028730904BA74036
:1005D000B04BD1F41092AA021092AB021092AC026E
:1005E0001092AD0214BE84B7877F84BF0FB6F89413
:1005F000A8958091600088618093600010926000EF
:100600000FBEE0E0F8E3099511E0A0E0B1E0E0E71B
:10061000FCE502C005900D92AE33B107D9F722E098
:10062000AEE3B1E001C01D92AA3AB207E1F70E9421
:10063000C4240C94362E0C94000080E090E00895C1
:100640000895089581E0089581FF02C0229A01C0B3
:1006500022982A98089581E008950C9422030C941E
:100660003D09CF92DF92EF92FF92863030F48111F4
:1006700005C0909180009F7D04C085E0909180002E
:10068000906290938000282F30E0AFEFBFEF0E9480
:10069000D42D25E030E040E050E00E94AC2D2C3716
:1006A00084E138074105510530F4C90169E070E083
:1006B0000E94842D29C0DA01C9018A50974DAF4F9D
:1006C000BF4F6627782F892F9A2F25EF38E241E018
:1006D00050E00E94AC2D69017A01CA01B9010E9463
:1006E000742D9B01AC01C701B6010E94742DBB277C
:1006F000A92F982F872F009721E0A207B10511F0AD
:10070000BC0102C06FEF7FEF70938B0060938A0093
:10071000FF90EF90DF90CF900895269A2E9882E276
:100720008093800089E1809381008FEF9FEF909309
:100730008700809386000C9449220E948D030C94BC
:100740003B090C9424030C94A10308950E949D1668
:100750000E94A5032FEF84E39CE02150804090404D
:10076000E1F700C000000C948F1EFF920F931F93BF
:10077000CF93DF938C01FC01C081D18180919901DD
:10078000811113C08281882349F0CE010E94CD1BC4
:10079000F82E682FCE010E94721B04C0CE010E9469
:1007A000A11BF82EBE018F2D04C0CE010E94CD1BCF
:1007B000BE010E945606EC01B8010E942D03882359
:1007C00009F46CC2B801CE010E94EC08882309F438
:1007D00065C2C93CFCE5DF0741F4F801828188234A
:1007E00009F45CC20E94E10A59C2CA3C8CE5D807F0
:1007F00008F013C1C13C9CE5D90761F4F80182817E
:10080000882309F44BC20E949E1C8272F1F00E9460
:100810000E0D44C2C23CECE5DE07D0F0F801828147
:10082000C53CFCE5DF0709F4CDC008F0DDC0C33CE2
:10083000ECE5DE0709F4CCC008F0D0C0882309F449
:100840002DC20E949E1C827211F30E94040D26C2CA
:10085000C531FCE5DF0708F07EC0C2308CE5D80763
:1008600008F452C0F8018281882309F459C00E941B
:10087000001D811102C00E94DA1C0E941D1D90E023
:1008800090939B0280939A02FE01E350FC45E23173
:10089000F10530F4EA5AFF4F80919A020C94CE2D64
:1008A00080919A02816027C0826025C0846023C045
:1008B000806121C080621FC080641DC080681BC031
:1008C0008460886018C08E7F16C08D7F14C08B7FB7
:1008D00012C08F7E10C08F7D0EC08F7B0CC08F77B3
:1008E0000AC08B7F877F07C087FB222720F991E012
:1008F000922790FB87F980939A0280919A020E9436
:10090000211D0E949D16CAC1C1159CE5D90781F021
:10091000C130DC45A9F081E080934301809344011C
:10092000C801DF91CF911F910F91FF900C942B0381
:10093000F8018281882309F4B1C10E94A603AEC1E7
:10094000F8018281882309F4A9C180913102816074
:1009500080933102A3C1C531FCE5DF0739F50E9460
:100960009E1C282FF80182814091020150910301C1
:10097000882379F02A7A91E009F490E090933E017F
:10098000911102C069E201C065E3CA010E948B1D9A
:100990000AC080913E01811102C069E201C065E395
:1009A000CA010E94961D0E946B1C78C1C03CDC45A8
:1009B00009F0B1CFF8018281882309F46FC10E9448
:1009C0009F0D6CC1882309F469C10E94470C66C160
:1009D000882309F463C10E94100C60C1882309F4C4
:1009E0005DC10E94280C5AC1C73C9CE5D90731F46F
:1009F000882309F453C10E947C0C50C1C83CDC45DB
:100A000030F4882309F44AC10E94620C47C188234C
:100A100009F444C10E94970C41C1C13DFCE5DF07C8
:100A200049F4F8018281882309F438C188E10E94E1
:100A3000010D34C1C23D8CE5D80708F087C0F8012C
:100A40008281CD3CFCE5DF07A1F4882309F426C1AF
:100A50000E94D30A663071058105910540F00E941D
:100A6000D30A683071058105910508F4EECE86E061
:100A7000DECFCE3C9CE5D90730F5CB3CECE5DE077C
:100A800029F4882309F40AC181E0D1CFCC3CDC45AC
:100A900030F4882309F402C10E94F60AFFC08823BB
:100AA00009F4FCC00E94D30A6230710581059105EA
:100AB00040F00E94D30A653071058105910508F464
:100AC000C4CE82E0B4CFCF3C9CE5D907A1F4882303
:100AD00009F4E4C00E94D30A6F30710581059105C5
:100AE00040F00E94D30A643171058105910508F434
:100AF000ACCE8FE09CCFC03DDC45A0F4882309F448
:100B0000CDC00E94D30A693071058105910540F07E
:100B10000E94D30A6E3071058105910508F495CEC7
:100B200089E085CF882309F4B9C00E94D30A6531D2
:100B300071058105910540F00E94D30A6731710566
:100B40008105910508F481CE85E171CFC53DFCE5B5
:100B5000DF0739F5F8018281882361F010924401A2
:100B60000E94331E909342018093410180E20E94D3
:100B7000B71394C08091440181110FC0809141014D
:100B8000909142010E943F1E883C910530F487E21B
:100B90000E94611287E20E94581380E20E94BE13F5
:100BA0007DC0C63D8CE5D80708F043C0F8018281BE
:100BB000C33DFCE5DF0729F4882309F46FC083E215
:100BC00036CFC43DDC45A0F4882309F467C00E94F9
:100BD000D30A693171058105910540F00E94D30A5D
:100BE000623271058105910508F42FCE89E11FCF8E
:100BF000882351F0109243010E94331E90934001CC
:100C000080933F0182E0B3CF8091430181110FC0F7
:100C100080913F01909140010E943F1E883C9105C8
:100C200030F486E20E94611286E20E94581382E04C
:100C3000B5CFC93DECE5DE0731F4F80182818823A8
:100C400069F180E009C0CA3DFCE5DF0741F4F80125
:100C50008281882319F182E00E9462251FC0C63D6F
:100C6000DC4509F058CEF8018281811177CF80915F
:100C70004401811192CF80914101909142010E94E3
:100C80003F1E883C910508F088CF80E20E94BE1389
:100C900088E20E94611288E20E94581380E0DF918E
:100CA000CF911F910F91FF90089508959FE0799F34
:100CB000F00111249BE4899FE00DF11D1124E60F42
:100CC000F11DEE0FFF1FE057FE4F8591949108959F
:100CD000880F991FFC01E454FD4F8591949108956C
:100CE000CF93DF930E9456060E944B08EC018115BA
:100CF00021E5920708F042C0811530E5930708F01E
:100D00001EC1883E910500F5803E910508F0BFC1E7
:100D1000883A910570F4853A910508F09DC08130BC
:100D2000910509F4B4C108F46BC1049708F0AFC190
:100D300067C18D3B910508F49AC0803C910508F489
:100D40005FC1805C9109EBC0811540E3940780F49A
:100D5000811550E2950708F0E1C0803F910508F445
:100D60004FC18F3F910511F008F091C1D0658FC13F
:100D7000811560E4960708F0DFC0D5C0C11589E58C
:100D8000D80740F5C11528E5D20708F025C1C115DF
:100D900034E5D30778F4C11543E5D40708F001C161
:100DA000C11552E5D50708F0E6C0DC2FCC27C16F8E
:100DB000D06A6DC1C11565E5D60708F408C1C11533
:100DC00086E5D80708F01CC1CF71DD27DC2FCC27C2
:100DD000D0625DC1CB3B2CE5D20709F408C1D8F441
:100DE000C93B4CE5D40709F4FCC008F0FDC0C115AF
:100DF0006AE5D60708F004C18C2F8F70806E90E0F2
:100E0000906A24E0D695C7952A95E1F7CF709C01AA
:100E10003C2BE9013CC1CE3B8CE5D80709F4EDC081
:100E200060F4CC3B3CE5D30709F4E4C0CD3BDC45A2
:100E300009F0E6C0C0E0D2ED2AC1CE01905681157E
:100E4000904208F0DDC08D2F8F710E94C808DD2709
:100E5000D0628F71D82B1BC1853A910509F4D3C09C
:100E6000863A910509F0D2C0C2E8D0E410C1883AB0
:100E7000910509F4CEC0893A910509F4CDC08A3AAA
:100E8000910509F4CCC08B3A910509F4CBC08C3A9A
:100E9000910509F4CAC08B3B910509F4C9C08C3B8C
:100EA000910509F4C8C08D3A910509F4C7C0803B8B
:100EB000910509F4C6C08E3A910509F4C5C08F3A70
:100EC000910509F4C4C0813B910509F4C3C0823B7C
:100ED000910509F4C2C0833B910509F4C1C0843B6C
:100EE000910509F4C0C0853B910509F4BFC0863B5C
:100EF000910509F4BEC0873B910509F4BDC0883B4C
:100F0000910509F4BCC0893B910509F4BBC08A3B3B
:100F1000910509F4BAC0C0E0D4E4B9C09F700E9442
:100F20006806EC01B4C09927D3FF03C0EC01D86C6C
:100F3000AEC0EC01D06CABC0DF70D06AA8C0282F67
:100F4000237081E090E002C0880F991F2A95E2F794
:100F50009C689E0174E0369527957A95E1F7237099
:100F6000922BCF70C695C69560E2C69FE001112412
:100F7000C82BD92B8CC02C2F2695269580E2289F34
:100F800090011124C370DD2781E090E0AC0102C024
:100F9000440F551FCA95E2F7EA01C22BD32BDC6838
:100FA00076C02C2F2695269580E2289F900111244B
:100FB000C370DD2781E090E0AC0102C0440F551FF3
:100FC000CA95E2F7EA01C22BD32BDA6860C0DC2FA6
:100FD000CC27C46FD06A5BC0DC2FCC27C06FD06A2F
:100FE00056C0C0E0D4ED53C0C0E0D5ED50C0C0E065
:100FF000D1ED4DC0C0E0D0ED4AC0C0E0D3ED47C058
:10100000C0E0D0E044C0C1E8D0E441C0C3E8D0E4CF
:101010003EC0C2EED4E43BC0C9EED4E438C0CAEE50
:10102000D4E435C0C5EBD4E432C0C6EBD4E42FC061
:10103000C3EBD4E42CC0C4EBD4E429C0C7EBD4E4A4
:1010400026C0CCECD4E423C0CDECD4E420C0C3E86B
:10105000D5E41DC0CAE8D5E41AC0C2E9D5E417C07A
:10106000C4E9D5E414C0C1E2D6E411C0C3E2D6E4B9
:101070000EC0C4E2D6E40BC0C5E2D6E408C0C6E2A6
:10108000D6E405C0C7E2D6E402C0CAE2D6E4CE0187
:10109000DF91CF9108958238910549F1B0F4813301
:1010A000910509F458C048F48932910509F44EC0FD
:1010B0008A32910509F454C008958533910509F4E5
:1010C00040C08933910599F00895833E910529F137
:1010D00038F4803E910591F0823E9105A1F008958B
:1010E000863E9105F9F0873E910531F108952091F2
:1010F0009A0220FD3AC021FD38C0089580919A02DD
:1011000080FD35C032C080919A0282FF32C080914A
:101110009A0284FD30C083EE39C080919A0282FD2C
:1011200028C0F5CF80919A0283FF27C080919A0250
:1011300084FD21C087EE2AC080919A0283FD1DC0E4
:10114000F5CF80919A0285FD1AC01BC080919A024A
:1011500085FD17C014C080919A0286FD14C015C089
:1011600080919A0286FD11C00EC080EE0FC089E307
:101170000DC082EE0BC080E009C086EE07C089E298
:1011800005C085E303C08AE201C081E390E00895D1
:1011900090919A0292FF0DC0282F2871283019F4DF
:1011A000877F846006C0282F2471243011F48B7F40
:1011B000886093FF0DC0282F2871283119F4877E8D
:1011C000846106C0282F2471243111F48B7E88613C
:1011D00094FD877E089508950F931F93CF93FB018D
:1011E0002281211102C0C1E041C08C01C091520195
:1011F000C11125C086319C45B1F70E94EB0881E002
:10120000809352010E94331E9093510180935001AC
:101210001092450110924701109246011092490127
:101220001092480110924B0110924A0110924D0108
:1012300010924C0110924F0110924E0117C08091F4
:101240005001909151010E943F1E8C32914058F6FE
:1012500090914501E92FF0E0EE0FFF1FEA5BFE4F92
:10126000118300839F5F90934501C0E08C2FCF9145
:101270001F910F9108950C9420030C942103A4E274
:10128000B1E041E050E025E02A0F8D91E82FE29592
:10129000EF70F0E031A18F70BA0102C0660F771FC6
:1012A0008A95E2F7CB01962F9095932391A392A173
:1012B000892B82A32A13E9CFA5E1B1E041E050E0F8
:1012C0002FE02A0F8D91E82FE295EF70F0E031A129
:1012D0008F70BA0102C0660F771F8A95E2F7CB01C3
:1012E000962F9095932391A392A1892B82A32A13E1
:1012F000E9CFEDE5F1E0A3E5B1E0119211921D9285
:101300001D9271E0E736F707C1F70C949D032F9209
:101310003F925F926F927F928F929F92AF92BF9215
:10132000CF92DF92EF92FF920F931F93CF93DF93B1
:1013300024E2C22E21E0D22E03E511E0E801EE24E2
:10134000E394F12C662463945E018880998019826D
:101350001882D6018D916D01E82FE295EF70F0E0D3
:1013600021A18F70A70102C0440F551F8A95E2F793
:10137000CA01242B21A322A1742E7094272122A319
:1013800050EA5A95F1F795E1292E91E0392E20E0A7
:1013900030E0D1017D911D01472F42954F7050E003
:1013A000DA0190965C90488159817F70D70102C024
:1013B000AA0FBB1F7A95E2F7BD01652141F4B70181
:1013C000022E02C0660F771F0A94E2F702C060E0A7
:1013D00070E0462B572B598348832F5F3F4F2F30A8
:1013E0003105B9F691A1792271A292A1892B82A32C
:1013F0002296F501808191818816990641F06092CC
:1014000067010E94331E9093690180936801F1E0A7
:10141000CD35DF0709F098CF809167018823B1F0BF
:1014200080916801909169010E943F1E069770F0BB
:10143000EDE5F1E0D8018D919D918D01819391931E
:10144000B1E00D351B07B1F7109267010E942F0321
:1014500081E0DF91CF911F910F91FF90EF90DF908E
:10146000CF90BF90AF909F908F907F906F905F9044
:101470003F902F900895E82FF0E0EE0FFF1FE35A02
:10148000FE4F8081918108950895EF92FF920F930E
:101490001F93CF93DF93E901662309F44BC0242FF8
:1014A00030E0EFEFF0E0E61BF109B901E69F9001B3
:1014B000E79F300DF69F300D1124232F8B01031B66
:1014C00011095CE3E52EF12CB7010E94842DFB018C
:1014D000BC01069FC001079F900D169F900D11241F
:1014E000B7010E94842DE230F105B1F040F430974D
:1014F00079F0319711F5832F242F461B21C0E4305A
:10150000F105A1F068F03597C1F4842F861B18C04F
:10151000832F262F230F14C0862F830FE42F03C0A1
:10152000E42FE61B842F432F2E2F0AC0842F462F33
:10153000430F06C0842F242F03C080E020E040E04A
:10154000E42FF0E0E852FD4F4491E22FF0E0E85242
:10155000FD4F9491E82FF0E0E852FD4FE49149836C
:101560009883EA83DF91CF911F910F91FF90EF90C5
:10157000089588E090E00C94F62DAB01BC0188E062
:1015800090E00C94142EEFE5F2E083E0808310925B
:1015900060028FEF828383831482608171818281F4
:1015A00093810C94BD0A60915F0260FF06C066954E
:1015B0006F7370E080E090E0089560E070E0CB0130
:1015C00008958091630290E001968430910514F0B3
:1015D00083E090E08093630260915F02709160020B
:1015E00080916102909162020C94BD0A8091630225
:1015F00090E0019797FF02C080E090E08430910571
:1016000014F083E090E08093630260915F02709138
:10161000600280916102909162020C94BD0A8091F7
:101620005F0280FF06C060E170E084E692E00C9407
:10163000041180E090E0FC01EC59FD4F1182108212
:101640001282039680339105B1F7EDCF90915F023E
:1016500090FF0FC020E030E0F901EC59FD4F81838D
:10166000608342832D5F3F4F20333105A9F70C94EF
:101670000F0B0895CF93DF9300D01F92CDB7DEB745
:1016800020915F0220FF0AC09E012F5F3F4F0E9402
:10169000450A4B8169818A810E94260B0F900F9029
:1016A0000F90DF91CF9108955F926F927F928F920A
:1016B0009F92AF92BF92CF92DF92EF92FF920F93E1
:1016C0001F93CF93DF9300D01F92CDB7DEB78C016D
:1016D000E62EF42E522E80915F0280FF8BC0982F51
:1016E0009E77923061F49E012F5F3F4FC8010E94A8
:1016F000450A4B8169818A810E94260B5BC0E82FD5
:10170000E695EF739EE39E0F9F73943018F4F0906C
:10171000620250C09AE39E0F9F73993068F4881F4D
:101720008827881F90916002292F220F022F082BF3
:1017300097FB112710F93EC087E28E0F8F738A3016
:10174000C8F5F0E07997E0FD02C021E001C02FEF7D
:10175000EE7FE254FD4F85919491AC0184E0569563
:1017600047958A95E1F724034001259F900C1124A9
:10177000580188E9A81A8EEFB80A94E6C92E92E0BB
:10178000D92E28E6622E77247394C501B3010E94F6
:10179000842D96014F2D6E2D0E94450AA80CB91C70
:1017A00083E0C80ED11C84E9C81682E0D80669F728
:1017B0000E940F0B80915F0200FB87F980935F020C
:1017C000902F9695809160028078892B10FB87F985
:1017D00080936002E0926102F0926202552051F023
:1017E00060915F027091600280916102909162024B
:1017F0000E94BD0A0F900F900F90DF91CF911F9123
:101800000F91FF90EF90DF90CF90BF90AF909F909F
:101810008F907F906F905F90089521E00C94540B0F
:10182000EFE5F2E02081221F2227221F3091600283
:10183000432F440F842F822B37FB992790F908966A
:1018400068E671E00E94982D438162810C940D0C32
:1018500020915F02221F2227221F30916002432F16
:10186000440F842F822B37FB992790F988309105FC
:101870001CF4805A9E4F01C0089768E671E00E94F0
:10188000982D40916202609161020C940D0C609160
:101890006102862F90E0883F910514F4685F01C0D3
:1018A0006FEF80915F02881F8827881F90916002E8
:1018B000292F220F97FB992790F940916202822BE2
:1018C0000C940D0C60916102862F90E0089714F043
:1018D000685001C060E080915F02881F8827881FE0
:1018E00090916002292F220F97FB992790F9409140
:1018F0006202822B0C940D0C40916202842F90E0C6
:10190000883F910514F4485F01C04FEF80915F025A
:10191000881F8827881F90916002292F220F97FB2C
:10192000992790F960916102822B0C940D0C4091E3
:101930006202842F90E0089714F0485001C040E004
:1019400080915F02881F8827881F90916002292F4D
:10195000220F97FB992790F960916102822B0C94DA
:101960000D0C20E00C94540B90915F0290FF48C046
:101970009178811102C0926007C0853210F098649E
:1019800003C08F73880F982B90935F02662351F0EA
:1019900060915F0270916002809161029091620299
:1019A0000E94BD0A80915F02282F2E77223019F401
:1019B0001092870114C0982F96959F733EE3390FBC
:1019C0003F73373120F0263411F0283421F491E0B0
:1019D0009093870104C0995D9F739A3048F3881FE4
:1019E0008827881F90916002292F220F97FB992743
:1019F00090F94091620260916102822B0C94B10CCB
:101A0000089561E00C94B40C80915F0286958F7309
:101A10008F5F853208F081E00C94010D80915F02A8
:101A200086958F73815009F484E20C94010DEFE5E3
:101A3000F2E080818160808386958F730C94010D24
:101A400060E00C94B40C809131028160809331028B
:101A50000E94001D811104C00E94DA1C0E94C30A6A
:101A60000E94B90A60935F027093600280936102E2
:101A7000909362026E7761F40E94C30A0E94B90AD1
:101A800060935F02709360028093610290936202A0
:101A900081E08093870180915F0280FF04C086957A
:101AA0008F730C94200D089590915F0290FF10C0E9
:101AB000203170F430E0F901EE0FFF1F2E0F3F1FB1
:101AC000F901EC59FD4F8183608342830C940F0B25
:101AD00008951F93CF93DF9300D01F92CDB7DEB749
:101AE00030915F0230FF0CC0122F9E012F5F3F4FDD
:101AF0000E94450A212F4B8169818A810E94540DE1
:101B00000F900F900F90DF91CF911F910895EFE507
:101B1000F2E080818E7F80836081718182819381F8
:101B20000E94BD0A109287012FEF80E792E02150BA
:101B300080409040E1F700C000000C940F0B8091B2
:101B40005F0280FD0C94870D0C94170DCF93C82F66
:101B500080918501909186010E943F1EEC2FF0E05C
:101B6000EC52FD4FE491F0E08E179F0708F443C05C
:101B70000E94331E909386018093850160918401B9
:101B800070E080E090E00E94752B20E030E04FE7AD
:101B900053E40E94982A2BED3FE049E450E40E9470
:101BA0009E2C0E940B2D0E94122B2BE43AE34EE256
:101BB0005FE30E942B2A20EF3BEF48ED52E40E94A6
:101BC0009E2C0E94442B462F80915F02881F8827FD
:101BD000881F90916002292F220F97FB992790F977
:101BE00060916102822B0E943A0B8091840190E007
:101BF000019680938401CF910895CF93C82F80914F
:101C00008201909183010E943F1EEC2FF0E0EF5281
:101C1000FD4FE491F0E08E179F07E8F00E94331E1D
:101C200090938301809382014091620260916102EE
:101C300080918001909181010E943A0B80918001F6
:101C400090918101019668E671E00E94842D909345
:101C5000810180938001CF910895CF92DF92FF920E
:101C60000F931F93CF93DF93F82E80917E01909175
:101C70007F010E943F1EEF2DE695F0E0E253FD4FFD
:101C8000E491F0E08E179F07F0F10E94331E9093CD
:101C90007F0180937E0104E612E0C0E0D0E088E698
:101CA000C82EDD24D39480917C0190917D018C0F0E
:101CB0009D1FB6010E94842D98014091620260919F
:101CC00061020E94450A66960D5F1F4FC03681E093
:101CD000D80749F70E940F0B20917C0130917D01BC
:101CE000F0FE0BC0C901019668E671E00E94842DE8
:101CF00090937D0180937C0106C02150310930937F
:101D00007D0120937C01DF91CF911F910F91FF9076
:101D1000DF90CF900895AF92BF92CF92DF92EF9273
:101D2000FF920F931F93CF93DF93C82F80FF02C0C2
:101D30001FEF01C011E080917A0190917B010E9418
:101D40003F1EC695EC2FF0E0E553FD4FE491F0E027
:101D50008E179F0708F465C00E94331E90937B0185
:101D600080937A0124E6C22E22E0D22E36E6E32EBC
:101D700032E0F32EC0E0D0E0F70131971082F60197
:101D80001082F701108294E0A92EB12C00E080911E
:101D90007901800F87FD805F082E000C990BC81712
:101DA000D907E9F4809162028A9DA0018B9D500DB4
:101DB0001124559547955595479580915F02881F49
:101DC0008827881F90916002592F550F97FB9927FC
:101DD00090F9960160916102852B0E94450A010FDE
:101DE000F1E0AF1AB10899F6219683E0C80ED11C34
:101DF000E3E0EE0EF11CC031D10509F0BDCF0E9429
:101E00000F0B80917901113031F4811102C08FE004
:101E100006C0815004C090E001968F70992780938E
:101E20007901DF91CF911F910F91FF90EF90DF909B
:101E3000CF90BF90AF900895EF92FF920F931F93B2
:101E4000CF93DF93C82F80917701909178010E9402
:101E50003F1EEC2FF0E0E853FD4FE491F0E08E17C9
:101E60009F0708F464C00E94331E9093780180930A
:101E7000770180E090E0FC01EC59FD4F1182108267
:101E80001282039680339105B1F784E6E82E82E052
:101E9000F82E06E612E0C0E0D0E080917601082E30
:101EA000000C990BC817D907ECF080910101082E9E
:101EB000000C990B8C179D07ACF080915F02881F76
:101EC0008827881F90916002592F550F97FB9927FB
:101ED00090F997014091620260916102852B0E9406
:101EE000450A07C0F80131971082F7011082F80106
:101EF00010822196F3E0EF0EF11C0D5F1F4FC031F1
:101F0000D10559F60E940F0B809100019091760146
:101F1000980F9093760120910101280F20930101E1
:101F2000121614F49F301CF0819580930001DF910C
:101F3000CF911F910F91FF90EF900895EF92FF9234
:101F40000F931F93CF93DF9380917401909175014C
:101F50000E943F1E883E9340D0F10E94331E909312
:101F6000750180937401C0917201D0917301219623
:101F7000C170DD27D0937301C093720184E6E82E0F
:101F800082E0F82E10E008E7812F8695FE01E80F29
:101F9000F11DCF01817099279701409162026091F4
:101FA0006102FC010E9FC0010F9F900D11240E9441
:101FB000450A1F5FF3E0EF0EF11C103129F7DF91A6
:101FC000CF911F910F91FF90EF900C940F0BDF9129
:101FD000CF911F910F91FF90EF900895CF93DF93D2
:101FE00000D01F92CDB7DEB7809170019091710142
:101FF0000E943F1EECEBF2E025913491821793078B
:10200000C0F180916F0181110CC09E012F5F3F4F85
:102010004FEF6FEF80E090E00E94450A8A81809345
:102020006F010E94331E9093710180937001809123
:102030006E01813051F028F0823061F440916F01DF
:102040000AC080916F0140E007C060916F0140E0DD
:1020500080E003C040E080E060E00E94260B8091B9
:102060006E0190E0019663E070E00E94982D8093ED
:102070006E010F900F900F90DF91CF910895CF9345
:10208000DF9380916C0190916D010E943F1E843F0F
:10209000914008F444C00E94331E90936D018093D8
:1020A0006C01C0E0D0E020916A0130916B01809119
:1020B0005F0290916002C830D1051CF4232B79F0A7
:1020C00002C0232B61F4881F8827881F392F330F04
:1020D00097FB992790F92C2F409162020AC0881F24
:1020E0008827881F392F330F97FB992790F92C2FBA
:1020F00040E060916102832B0E94690D2196C031FE
:10210000D10589F60E940F0B80916A0190916B01B5
:1021100001968170992790936B0180936A01DF91FA
:10212000CF910895809187018823D9F190915F0222
:10213000892F86958F732EE3280F2F73243018F480
:1021400082500C94A60D2AE3280F2F73233018F425
:1021500086500C94FD0D27E3280F2F73263018F4BA
:1021600089500C942D0E21E3280F2F73263018F47C
:102170008F500C948B0E2BE2280F2F73233018F402
:1021800085510C941C0F892F8E77803311F40C9499
:102190009E0F863411F40C94EE0F883411F40C94D5
:1021A0003F1008952EB1342F309523233EB1432B99
:1021B0003FB7F894FC01680F791FE617F70789F01D
:1021C000819198E04EB9000000C087FF2EB9880FBA
:1021D000000000C000C000C02EB900C09A9591F761
:1021E000ECCF3FBF08952DB1242B2DB99B01220FB9
:1021F000331F620F731F0E94D21087EC90E001978B
:10220000F1F700C00000089544E00C94F31090939F
:102210008D0180938C010895E0918C01F0918D01E6
:10222000309721F00190F081E02D099480E008952D
:10223000E0918C01F0918D01309721F00280F381C3
:10224000E02D09940895E0918C01F0918D01309773
:1022500021F00480F581E02D0994089520918A01F0
:1022600030918B018217930771F090938B018093CB
:102270008A01E0918C01F0918D01309721F0068068
:10228000F781E02D0994089520918801309189010A
:102290008217930771F09093890180938801E091F0
:1022A0008C01F0918D01309721F00084F185E02DB3
:1022B0000994089508950C945A1181E008950E949C
:1022C0002A1E85B7806885BF85B7806885BF0E9454
:1022D0003F090E94FF1E0E9449220C94230D4F9239
:1022E0005F927F928F929F92AF92BF92CF92DF9236
:1022F000EF92FF920F931F93CF93DF93CDB7DEB78B
:102300002A970FB6F894DEBF0FBECDBF0E94870993
:102310000E945D11811111C08FEF89838A831B8216
:102320000E94331E8160782F9D838C8349815A815E
:102330006B818D810E942D1257C09FE8C92E91E0BC
:10234000D92E00E010E0AA24A394B12C702E802F87
:102350000E943B0A4C01F601419051906F014826C2
:1023600059264114510431F40F5F1F4F05301105F8
:1023700069F7D2CF8091310281FD0E94440A20E0AA
:1023800030E07501022E02C0EE0CFF1C0A94E2F749
:10239000C70184219521892B09F12E837F828E200C
:1023A0009F2091E0892809F490E098870E94331ECD
:1023B0008160782F9A8789874E815F8168858A85B9
:1023C0000E942D12000F111FF801E157FE4F80816E
:1023D0009181E826F926F182E08206C02F5F3F4F07
:1023E0002F30310571F6C0CF0E94A22110918E01CD
:1023F0000E940C111817D9F00E940C1180938E01C5
:102400002A960FB6F894DEBF0FBECDBFDF91CF91F5
:102410001F910F91FF90EF90DF90CF90BF90AF9002
:102420009F908F907F905F904F900C94A3032A967B
:102430000FB6F894DEBF0FBECDBFDF91CF911F91D5
:102440000F91FF90EF90DF90CF90BF90AF909F9053
:102450008F907F905F904F900895CF93DF93CDB78B
:10246000DEB72B970FB6F894DEBF0FBECDBF4F83FC
:10247000588769877A878B87DE01119686E0FD0190
:1024800011928A95E9F785E0FE01379601900D9249
:102490008A95E1F749815A816B817C818D819E818A
:1024A0000E9444192B960FB6F894DEBF0FBECDBF25
:1024B000DF91CF910895FC01808191810E940C1CD5
:1024C0000895882309F4F3C0682F8238C1F40E946C
:1024D0000C1181FDECC069E3809102019091030130
:1024E0000E948B1D0E946B1C2FEF81EE94E0215007
:1024F00080409040E1F700C0000069E319C08338D4
:10250000F9F40E940C1180FDD2C063E580910201B4
:10251000909103010E948B1D0E946B1C2FEF81EE96
:1025200094E0215080409040E1F700C0000063E556
:1025300080910201909103010E94961D0C946B1CE6
:102540008438C1F40E940C1182FDB1C067E480910F
:102550000201909103010E948B1D0E946B1C2FEFC2
:1025600081EE94E0215080409040E1F700C00000EF
:1025700067E4DECF8CEF860F813A38F48091020158
:10258000909103010E948B1DD9CF80E2860F883085
:1025900048F4677081E001C0880F6A95EAF70E94ED
:1025A000A11CCCCF8BE5860F833070F4653A29F0FF
:1025B000663A31F083E890E005C081E890E002C01F
:1025C00082E890E00C942E1188E5860F853108F0A2
:1025D0006EC0683A61F1693A69F16A3A71F16B3A31
:1025E00079F16C3A81F16B3B89F16C3B91F16D3A79
:1025F00099F1603BA1F16E3AA9F16F3AB1F1613BFB
:10260000B9F1623BC1F1633BC9F1643BD1F1653B78
:10261000D9F1663BE1F1673BE9F1683BF1F1693BD8
:10262000F9F16A3B09F43FC080E090E03EC082EEE1
:1026300090E03BC089EE90E038C08AEE90E035C073
:1026400085EB90E032C086EB90E02FC083EB90E00A
:102650002CC084EB90E029C087EB90E026C08CEC86
:1026600090E023C08DEC90E020C083E891E01DC095
:102670008AE891E01AC082E991E017C084E991E00C
:1026800014C081E292E011C083E292E00EC084E2C5
:1026900092E00BC085E292E008C086E292E005C0BD
:1026A00087E292E002C08AE292E00C94441108951D
:1026B000882309F45BC0682F823879F40E940C11DA
:1026C00081FF54C069E380910201909103010E944F
:1026D0008B1D0E946B1C69E310C08338B1F40E940B
:1026E0000C1180FF43C063E58091020190910301CA
:1026F0000E948B1D0E946B1C63E5809102019091EA
:1027000003010E94961D0C946B1C843879F40E947E
:102710000C1182FF2BC067E48091020190910301AC
:102720000E948B1D0E946B1C67E4E7CF8CEF860F25
:10273000813A18F380E2860F883048F4677081E0B0
:1027400001C0880F6A95EAF70E94A71CDCCF8BE5D1
:10275000860F833020F480E090E00C942E11685AAC
:10276000653120F480E090E00C94441108958823B2
:1027700021F00E94A11C0C946B1C0895882321F069
:102780000E94A71C0C946B1C08954F925F926F924D
:102790007F92BF92CF92DF92EF92FF920F931F939F
:1027A000CF93DF937C01D62FC72FFC0105810295C3
:1027B0000F70128111110E94BE1C0E94641C88239C
:1027C00079F0112369F080E28D0F883048F082E0C3
:1027D0000E944D1C0E94641C91E0B82EB92601C0D5
:1027E000B12CCC2EC2948FE0C822D12CF601E8592E
:1027F000FF4F0C94CE2D8C2F807FCF70882311F04B
:10280000C295C07F112399F0CC2309F4D0C180E296
:102810008D0F883010F0D11104C08C2F0E94A11CA4
:1028200003C08C2F0E94B11C0E946B1CC0C18D2F55
:102830000E945813CC2309F403C280E28D0F883024
:1028400010F0D11104C08C2F0E94A71C03C08C2F44
:102850000E94B71C0E946B1CF3C18C2F807FCF702D
:10286000803211F0C295C07FDD2319F0D130C9F05C
:1028700022C0112371F0002341F0013031F40E9495
:10288000D71C8C2B0E94D11CDBC10E94D71C8C2B27
:1028900046C1002319F0013009F4D2C10E94D41CB2
:1028A00018C0112321F0063008F0CAC10EC005304F
:1028B00008F0C6C10EC0112351F0002331F0F7011A
:1028C000858180FF74C18F7085838C2F28C1011191
:1028D0007FC18C2F2AC18C2F86958695837090E0BE
:1028E000009719F0019761F0ABC1112321F08D2FF2
:1028F0009C2F937002C080E090E00E942E11B0C126
:10290000112321F08D2F9C2F937002C080E090E066
:102910000E944411A5C11123F9F0D53F51F0D63FD3
:1029200071F0D43FA9F48091940290919502816056
:102930000BC08091940290919502826005C08091B5
:1029400094029091950284609093950280939402F2
:102950008D2F0E94AA201EC0D53F51F0D63F71F0A6
:10296000D43FA9F480919402909195028E7F0BC080
:1029700080919402909195028D7F05C08091940280
:10298000909195028B7F90939502809394028D2F66
:102990000E9412210E94972163C18C2F837009F03D
:1029A00050C0111159C18D2F829586958770880F5F
:1029B000880F9D2F9F70492E512C612C712C082E51
:1029C00004C0440C551C661C771C0A94D2F7D4FF33
:1029D00014C00FE010E020E030E0B901A80104C00D
:1029E000440F551F661F771F8A95D2F7CB01BA0196
:1029F000609570958095909503C060E070E0CB0184
:102A0000C695C695C370D0E0C230D10561F0C33021
:102A1000D10581F06429752986299729219771F0BC
:102A20000E94871A19C164297529862997290E944D
:102A3000991A12C10E94871AC301B2010E94751A25
:102A40000BC1112319F08C2F817001C0869588234A
:102A500009F402C18D2F829586958770880F880FA3
:102A60009D2F9F70492E512C612C712C082E04C073
:102A7000440C551C661C771C0A94D2F7D4FF14C072
:102A80000FE010E020E030E0B901A80104C0440FDD
:102A9000551F661F771F8A95D2F7CB01BA01609543
:102AA00070958095909503C060E070E0CB01C6956D
:102AB000C695C3704C2F50E04230510569F0433049
:102AC000510589F0642975298629972941305105D6
:102AD00071F00E944D1BC0C0642975298629972971
:102AE0000E945F1BB9C00E944D1BC301B2010E942E
:102AF0003B1BB2C08D2F90E0FC01E05EF109E53197
:102B0000F10508F050C0E858FF4F0C94CE2DDF704F
:102B10008C2F8F71112331F00E94D41A8D2F0E94B7
:102B2000B7138EC00E94F51A8D2F0E94BE1388C065
:102B3000112341F0053008F083C08C2F8F710E9463
:102B40001A1B7EC0063008F07BC0F7CF112339F086
:102B50008C2F8F710E94D41A73C01123C9F38C2F4C
:102B60008F710E94F51A6CC0112329F08C2F8F7180
:102B70000E94BF1A65C00E94BA1A62C0112349F0B0
:102B8000CF718C2F0E94D41A63E08C2F0E94441CBA
:102B900057C081E00E944D1C023008F451C082E011
:102BA0000E944D1C4DC0112331F0002389F28D2F5E
:102BB0000E94611245C0002391F2D93349F45FEFBE
:102BC00067EE73E0515060407040E1F700C00000D4
:102BD0008D2F0E94581334C04C2F4F706D2FC7019A
:102BE0000E941D030E94E8193BC0111139C0CF702B
:102BF000D0E0C230D10599F03CF4209769F02197DC
:102C0000F9F40E9483222CC0C430D10571F054F035
:102C10002597B1F480E00AC00E94662221C00E947C
:102C20009F221EC00E94B9221BC085E00E94DC22A8
:102C300017C04C2F4F706D2FC7010E94550610C052
:102C400088E0C816D10441F05CF0EAE0CE1AD10861
:102C5000F2E0CF16D10420F40E940C110E94A303CD
:102C6000BB20F1F00E94401C80FD1AC0F7011282C7
:102C70000E943A1C0E94D41AC7010E945E160E944C
:102C80003A1CDF91CF911F910F91FF90EF90DF9051
:102C9000CF90BF907F906F905F904F900C94F51AFB
:102CA000DF91CF911F910F91FF90EF90DF90CF9028
:102CB000BF907F906F905F904F9008950F931F93F8
:102CC000CF93DF93EC01888199812B813C81232B69
:102CD000B9F09F3F11F48F3F99F0CE010E94B503E8
:102CE000882371F0688179818A810E94171C8C0188
:102CF0000E94711B0E94721AB801CE010E94C51376
:102D0000DF91CF911F910F9108950E94BE1C0E94E8
:102D1000CE1C80910201909103010E94A11D0E948E
:102D20006B1C0E943D220E94972180E090E00E944F
:102D30002E1180E090E00C9444110E94AE1C0C9483
:102D400085160E940C1CE92FE295EF70F0E0329797
:102D5000EE30F105B0F4E357FF4F0C94CE2D803FD9
:102D600091F018F4803E68F40EC0843F51F40BC01B
:102D7000803E48F0813F29F406C093FB882780F904
:102D8000089580E0089581E00895CF93DF9300D007
:102D900000D01F92CDB7DEB70F900F900F900F901D
:102DA0000F90DF91CF910895CF93DF9300D000D0A3
:102DB00000D0CDB7DEB726960FB6F894DEBF0FBEB3
:102DC000CDBFDF91CF9108951F93CF93DF93C09133
:102DD0009A0116E080919B01C81799F0D0E01C9FE2
:102DE000F0011D9FF00D1124E456FE4F40815181EA
:102DF00062817381848195810E94D4162196C77067
:102E0000E9CFDF91CF911F9108954091CC0150916E
:102E1000CD016091CE017091CF018091D001909150
:102E2000D1010C94D4168091D10182958F7009F054
:102E300054C08091CE01882309F44FC080919A013B
:102E4000A0919B016091CC017091CD014091CF0187
:102E50005091D001B6E08A1709F43FC090E04115C7
:102E60005105C1F17F3F11F46F3FA1F1B89FF0010F
:102E7000B99FF00D1124E456FE4F218172132AC030
:102E80002081621327C02281211124C02381348133
:102E90002417350710F421503109241B350B283C29
:102EA0003105C0F42091D1012F7020612093D10110
:102EB00026E0289FF001299FF00D1124EF55FE4FC9
:102EC00080818F70806180838CEC91E00E945E161F
:102ED0000C94E41601968770BECF0895CF92DF92CE
:102EE000EF92FF920F931F93CF93DF93CDB7DEB78F
:102EF00062970FB6F894DEBF0FBECDBF8C0185E0A0
:102F0000F801DE011D9601900D928A95E1F7D80136
:102F10004C9111965C91119712966C9112971396A1
:102F2000CD90DC9014973091CC017091CD018091BF
:102F3000CF019091D001009709F46BC17F3F19F444
:102F40003F3F09F466C1E090CE01EE2009F4C0C015
:102F50002091D101C816D90628F0F601E81BF90B1B
:102F6000CF0104C0809590958C0D9D1DFF24F39496
:102F7000883C910578F0F12C207F09F0C6C07C2DAB
:102F8000D98AC88A89890E94C5168CEC91E00E9472
:102F90005E16B1C0822F807F09F046C0751314C041
:102FA000341312C0611110C02F7020612093D10121
:102FB0000E9405178CEC91E00E945E168091D10171
:102FC000D80115968C932EC0CD2819F15F3F11F4CE
:102FD0004F3FF9F0F62E61111CC080919A012091AB
:102FE0009B0136E0821709F45AC090E0389FF00147
:102FF000399FF00D1124E456FE4F7181571306C01E
:103000007081471303C07281711103C001968770EC
:10301000E9CFF62E662309F427C18091D1018160A2
:103020008093D101F12C20C1751308C0341306C060
:10303000611104C08091D101D801C3C04D875E8762
:103040008D859E856A8B0E94A1166A898823E1F18D
:103050006623D1F12091D101822F82958F7090E06B
:10306000029774F08091CC019091CD0198878F8365
:103070001986DB86CA862C87CE0107960E945E16CB
:1030800086E0F801ACECB1E001900D928A95E1F791
:103090000E9413170E940517FF24F394E5C04D8783
:1030A0005E878D859E850E940C1C292F22952F708E
:1030B00030E0223031050CF0CBC09F7009F0C5C064
:1030C000805E883008F4D0C0C8010E945E16E4CF4C
:1030D000C816D90608F453C0F601E81BF90BCF0156
:1030E000883C910508F450C0F12C7C2DD98AC88AFF
:1030F00089890E94C516ECECF1E086E0DF011D92A3
:103100008A95E9F70E940517AFC0751314C03413F0
:1031100012C0611110C08091D101F8018583C801EE
:103120000E945E1686E0ECECF1E0DF011D928A95CC
:10313000E9F7FE2C99C04D875E878D859E856A8B49
:103140000E94A1166A89882309F4BECF662309F478
:10315000BBCF2091D101822F82958F7090E0029792
:103160000CF48ECF8091CC019091CD019A8389830C
:103170001B82DD82CC822E83CE0101967FCF80958B
:1031800090958C0D9D1DACCFF62E662309F49CCF37
:1031900075132EC034132CC02091D10120FD1FC007
:1031A000822F82958F70D9F0D80115962C931597A0
:1031B0008F3049F08F5F982F9295907F822F8F707C
:1031C000892B15968C93C8010E945E1686E0F80143
:1031D000ACECB1E001900D928A95E1F793CF86E0D7
:1031E000F801ACECB1E001900D928A95E1F73CC09A
:1031F0004D875E878D859E850E94A116811140CFE7
:103200008091D10181608093D101C8010E945E1636
:103210002BC0662309F458CF4D875E878D859E8528
:103220000E94A116F82E882309F44ECF86E0F801FB
:10323000ACECB1E001900D928A95E1F78CEC91E055
:103240000E945B120E9413175DCF811139CF0CC011
:10325000243031050CF038CF9F7009F431CFF801DC
:103260009581907F09F02CCF8F2D62960FB6F89440
:10327000DEBF0FBECDBFDF91CF911F910F91FF90A9
:10328000EF90DF90CF9008951F93CF93DF93CDB74A
:10329000DEB72C970FB6F894DEBF0FBECDBF4F83BD
:1032A000588769877A878B879C87CE0107960E940B
:1032B0006E17882369F08F8198852A853B85232B9B
:1032C000F1F19F3F09F063C08F3F09F060C037C044
:1032D00086E0FE013796DE01119601900D928A95E7
:1032E000E1F76F817885EA85FB85309741F17F3F73
:1032F00011F46F3F21F120919B0130E0C90101964B
:103300008770992740919A0150E08417950709F436
:1033100047C069837A83FD83EC8396E0929FD00156
:10332000939FB00D1124A456BE4FFE01319601901B
:103330000D929A95E1F780939B010E94E41616E0A6
:1033400080919A0190919B018917C1F1189FC0014A
:10335000112484569E4F0E946E17882379F1E091C4
:103360009A011E9FF0011124E456FE4F40815181C5
:1033700062817381848195810E94D41680919A0123
:1033800090E001968770992780939A01D9CF4F8159
:10339000588569857A858B859C850E94D416CFCF08
:1033A0000E949D1610929B0110929A01ECECF1E0A4
:1033B00086E0DF011D928A95E9F7C1CF2C960FB602
:1033C000F894DEBF0FBECDBFDF91CF911F9108955E
:1033D000EF92FF920F931F93CF93DF938C01892B72
:1033E00009F46CC0F12CEE24E394E8012196F80175
:1033F0008491843740F4843008F051C0813081F0EA
:10340000823019F15BC0853709F444C0A8F19CE70C
:10341000980F903708F052C08F770E94581341C020
:103420000E5F1F4FFE01C49180E28C0F883048F47C
:10343000C7708E2D01C0880FCA95EAF70E94C11C83
:1034400014C08C2F0E9461122DC00E5F1F4FFE0111
:10345000C49180E28C0F883058F4C7708E2D01C063
:10346000880FCA95EAF70E94C71C0E946B1C1AC0FD
:103470008C2F0E94581316C00E5F1F4FFE01C4917F
:10348000CC2381F08FE99FE00197F1F700C00000A5
:10349000C150F6CF0E5F1F4FFE01F49003C00E9493
:1034A00061128E018F2D882309F49FCFEFE9FFE091
:1034B0003197F1F700C000008150F5CFDF91CF9137
:1034C0001F910F91FF90EF90089508950E94651A43
:1034D000609308027093090280930A0290930B0292
:1034E0000C94851608950C94661A0F931F930091FF
:1034F00008021091090220910A0230910B02602B00
:10350000712B822B932B1F910F910C94661A0F93A2
:103510001F93009108021091090220910A02309134
:103520000B0260237123822393231F910F910C942C
:10353000661A0F931F9300910802109109022091BF
:103540000A0230910B0260277127822793271F916F
:103550000F910C94661A08950C94AB1A0E94AC1A41
:103560006093040270930502809306029093070211
:103570000C94851660E070E0CB010C94AE1A0F93AA
:103580001F9341E050E060E070E08A019B0104C0BD
:10359000000F111F221F331F8A95D2F7C901B801EE
:1035A0001F910F910C94AE1A0F931F9341E050E0BE
:1035B00060E070E004C0440F551F661F771F8A95B6
:1035C000D2F78091040290910502A0910602B09179
:1035D00007028A019B01082B192B2A2B3B2BC901BF
:1035E000B8011F910F910C94AE1A0F931F9341E0F5
:1035F00050E060E070E004C0440F551F661F771F65
:103600008A95D2F740955095609570958091040207
:1036100090910502A0910602B09107028A019B01D8
:10362000082319232A233B23C901B8011F910F91B5
:103630000C94AE1A0F931F9341E050E060E070E0ED
:1036400004C0440F551F661F771F8A95D2F78091DB
:10365000040290910502A0910602B09107028A012E
:103660009B01082719272A273B27C901B8011F9169
:103670000F910C94AE1A0F931F93009104021091B6
:1036800005022091060230910702602B712B822BDC
:10369000932B1F910F910C94AE1A0F931F930091CF
:1036A0000402109105022091060230910702602366
:1036B0007123822393231F910F910C94AE1A0F93C1
:1036C0001F9300910402109105022091060230918F
:1036D000070260277127822793271F910F910C946F
:1036E000AE1A08952FE0929F800D1124A82FA69561
:1036F000A695A695877051E001C0550F8A95EAF707
:1037000085E0A89FD001112420E030E070E0F901AD
:10371000EA0FFB1FEE52FE4F4081CB01022E02C08A
:10372000969587950A94E2F7817099278195842769
:103730008523842780832F5F3F4F2530310539F75C
:1037400008952FE0929F800D1124682F669566954D
:103750006695982F977085E0689FB001112440E02E
:1037600050E080E0FA01E60FF71FEE52FE4F208195
:1037700030E0092E02C0369527950A94E2F72170B1
:103780003327042E01C0220F0A94EAF7822B4F5FE1
:103790005F4F4530510531F70895CF92DF92EF9298
:1037A000FF920F931F93CF93DF938C01C090080279
:1037B000D0900902E0900A02F0900B02809104027E
:1037C00090910502A0910602B0910702C82AD92A59
:1037D000EA2AFB2ACFE1D0E0D701C6010C2E04C0B3
:1037E000B695A795979587950A94D2F780FF06C05E
:1037F000B8018C2F0E947006019721F4219760F781
:1038000080E001C08C2FDF91CF911F910F91FF902D
:10381000EF90DF90CF900895CF93DF93EC010E945B
:10382000CD1BBE010E947006DF91CF9108951F93BA
:10383000CF93DF93EB0190919901992321F0CB0174
:103840000E940C1C13C0882349F0CB010E94CD1BA1
:10385000182F682FCE010E94721B04C0CB010E945A
:10386000A11B182FBE01812F0E947006DF91CF91FE
:103870001F91089580910C028595859585950895F1
:1038800080910C028770089598E0899F900111241F
:10389000262B20930C020C94D41A20910C028095B4
:1038A000822380930C02982F977069F430E0482FA0
:1038B000082E000C550B2417350729F085958595A2
:1038C00085950C94F51A089590910C02977081E0FB
:1038D00009F480E00895E0910201F09103018091E4
:1038E00030028083E0910201F09103019081809188
:1038F0002F02892B8083E0910201F09103019081D6
:1039000080912E02892B808380910D02882381F083
:10391000E0910201F09103019081892B80838091D5
:103920000201909103010E942F1D811110920D023E
:1039300080910201909103010C9418118091300242
:10394000089590913002892B8093300208958095DC
:1039500090913002892380933002089510923002B2
:10396000089590912F02892B80932F0208958095BE
:1039700090912F02892380932F02089510922F0295
:10398000089590912E02892B80932E0208958095A0
:1039900090912E02892380932E02089510922E0278
:1039A000089580930D02089510920D02089580915C
:1039B0000D0208956DEE7EEF80E090E00E94202ED3
:1039C00060E082E090E00E94022E60E083E090E000
:1039D0000E94022E60E084E090E00E94022E60E0EF
:1039E00085E090E00E94022E60E086E090E00E9478
:1039F000022E40E050E0BA0188E090E00C94142ED2
:103A000080E090E00E94FC2D21E08D3E9E4F09F069
:103A100020E0822F089582E090E00C94EE2D682F34
:103A200082E090E00C94022E83E090E00C94EE2D66
:103A3000682F83E090E00C94022E84E090E00C94D8
:103A4000EE2D682F84E090E00C94022E86E090E04A
:103A50000C94EE2D682F86E090E00C94022EFC0171
:103A600031969C01205E3F4F80E0919191118F5FD4
:103A7000E217F307D1F708959C01FC0132969FEFFE
:103A800080E04191461789F09F3F19F4411101C030
:103A9000982F8F5F8E31A9F79F3F39F0F901E90F19
:103AA000F11D97FDFA95628308950895FC01329601
:103AB00080962081261301C010823196E817F907FD
:103AC000C1F70895262F2695269526952F3168F45F
:103AD000FC01E20FF11D677021E030E001C0220F10
:103AE0006A95EAF78181282B21830895262F269550
:103AF000269526952F3170F4FC01E20FF11D6770B9
:103B000021E030E001C0220F6A95EAF7209581811B
:103B100028232183089520911401222329F0209144
:103B20009A0227FD0C94621D0C943C1D20911401F7
:103B3000222329F020919A0227FD0C94761D0C94E3
:103B4000561DFC01319680961192E817F907E1F7AE
:103B5000089508950C94A91D8091A102843061F10B
:103B60001092320220E488E190E00FB6F894A89514
:103B7000809360000FBE2093600080E00E943103BC
:103B800080E00E94A3030E94AA1D83B7817F846006
:103B900083BF83B7816083BF7894889583B78E7F16
:103BA00083BF0FB6F894A8958091600088618093D8
:103BB0006000109260000FBE089508950895CF939D
:103BC0000E94DD1D0E9487090E94DE1DC0E08C2F2F
:103BD0000E943B0A892B29F4CF5FC530C1F780E0F2
:103BE00001C081E0CF91089508950C94F41D0E94C6
:103BF0009D160E9449220E940C110E94A3030C945E
:103C0000F51D1F920F920FB60F9211248F939F9361
:103C1000AF93BF9380913202811113C080919602BD
:103C200090919702A0919802B09199024196A11D9E
:103C3000B11D8093960290939702A0939802B0933F
:103C40009902BF91AF919F918F910F900FBE0F90EE
:103C50001F90189582E084BD93E095BD9AEF97BDC3
:103C600080936E0008952FB7F894809196029091FA
:103C70009702A0919802B09199022FBF0895CF9218
:103C8000DF92EF92FF920F931F932FB7F89440911A
:103C900096025091970260919802709199022FBFFD
:103CA0006A017B01EE24FF248C0120E030E0C01685
:103CB000D106E206F30610F4415051099A01281B7F
:103CC000390BC9011F910F91FF90EF90DF90CF90BA
:103CD000089578941F920F920FB60F9211248F932C
:103CE0009F93AF93BF938091960290919702A0917A
:103CF0009802B09199020196A11DB11D8093960280
:103D000090939702A0939802B0939902BF91AF91BC
:103D10009F918F910F900FBE0F901F90189581E08B
:103D20008093E00080E28093D8001092C9008FE178
:103D30009EE40197F1F700C0000087E090EBDC0102
:103D40008093AA029093AB02A093AC02B093AD0211
:103D50009CE088E10FB6F894A895809360000FBEB0
:103D600090936000FFCFAF92BF92CF92DF92EF921D
:103D7000FF920F931F93CF93C0E0CC24C394D12C18
:103D8000E82EF12C8C2F0E943B0A5C0100E010E031
:103D90009601002E02C0220F331F0A94E2F72A2157
:103DA0003B21232B31F40F5F1F4F0F30110581F79B
:103DB0000AC0602F7C2F80E00E945606E816F906A4
:103DC00091F781E004C0CF5FC530E1F680E0CF918C
:103DD0001F910F91FF90EF90DF90CF90BF90AF9029
:103DE0000895CF93C82F8CE20E94B31E882321F040
:103DF0008C2FCF910C94B31E80E0CF910895CF9378
:103E00000E94001D811102C00E94DA1CC5E6C1504B
:103E100049F00E9487098FE39CE90197F1F700C000
:103E20000000F5CF89E20E94F11E81110FC18AE2E4
:103E30000E94F11E81110E94DA1C85E00E94F11E91
:103E400081110E948F1E0E940B1D8093310287E01A
:103E50000E94F11E8823A9F18BE10E94F11E8823A4
:103E600051F08091310281FB222720F991E09227C5
:103E700090FB81F90EC08EE00E94F11E882361F054
:103E80008091310282FB222720F991E0922790FB5A
:103E900082F98093310215C080E10E94F11E909159
:103EA0003102882341F093FB222720F981E0822709
:103EB00080FB93F904C0892F809580FB90F9909343
:103EC0003102809131020E940F1D0E941D1D90E061
:103ED00090939B0280939A0280EE0E94F11E8823A9
:103EE00041F080919A02982F909590FB80F98093F1
:103EF0009A0289E30E94F11E882359F080919A0268
:103F000081FB222720F991E0922790FB81F9809391
:103F10009A0282EE0E94F11E882359F080919A0243
:103F200082FB222720F991E0922790FB82F980936F
:103F30009A0286EE0E94F11E882359F080919A021F
:103F400083FB222720F991E0922790FB83F980934D
:103F50009A0283EE0E94F11E882359F080919A0202
:103F600084FB222720F991E0922790FB84F980932B
:103F70009A0285E30E94F11E882359F080919A02EB
:103F800085FB222720F991E0922790FB85F9809309
:103F90009A0281E30E94F11E882359F080919A02CF
:103FA00086FB222720F991E0922790FB86F98093E7
:103FB0009A0281E10E94F11E882359F080919A02B1
:103FC00087FB222720F991E0922790FB87F98093C5
:103FD0009A0280919A020E94211D87E20E94F11E9E
:103FE000C82F8EE10E94F11E8111C2608FE10E94F4
:103FF000F11E8111C46080E20E94F11E8111C8602F
:1040000081E20E94F11E8111C06182E20E94F11ED4
:104010008111C06283E20E94F11E8111C06484E2BA
:104020000E94F11E882311F0C06802C0CC2329F041
:104030008C2F0E94181D6C2F03C00E94141D682F26
:1040400070E080E090E0CF910C94731ACF910895C6
:104050008091350280FF0BC06091070185E0689F69
:10406000B001112475956795759567952BC081FFF3
:1040700009C06091070185E0689FB0011124759522
:10408000679520C082FF07C06091070185E0689FA7
:10409000B001112417C0909136029923D1F060919C
:1040A0000601961788F72091070185E0289F900167
:1040B0001124929FA001939F500D112470E0CA011A
:1040C0000E94982D6038710540F46115710539F032
:1040D00002C065E070E0862F08958FE7089581E0C3
:1040E00008958091350280FF08C06091050170E05D
:1040F000759567957595679521C081FF06C060919C
:10410000050170E07595679519C082FF04C0609144
:10411000050170E010C0909136029923C1F06091C2
:1041200004019617A0F780910501899FC001112411
:1041300070E00E94982D6038710528F461157105B2
:1041400021F0862F08958FE7089581E0089561E0BA
:1041500070E0F4CF803F21F40E942820819504C0B4
:10416000813F29F40E942820809339020895823FDC
:1041700021F40E942820819504C0833F29F40E94E5
:104180002820809338020895893F19F40E947120F5
:1041900005C08A3F31F40E947120819580933A02D4
:1041A00008958B3F21F40E947120819504C08C3FBB
:1041B00029F40E94712080933B020895843F21F4EA
:1041C00080913702816017C0853F21F480913702CA
:1041D000826011C0863F21F48091370284600BC059
:1041E000873F21F480913702886005C0883F31F411
:1041F0008091370280618093370208958D3F21F4CA
:104200008091350281600BC08E3F21F48091350290
:10421000826005C08F3F29F48091350284608093CD
:1042200035020895803F39F48091390287FF6CC0D0
:104230001092390269C0813F29F480913902181621
:10424000BCF362C090913802823F29F497FF5CC0B2
:104250001092380259C0833F19F41916CCF354C098
:10426000893F41F480913A0218160CF04DC010922B
:104270003A024AC08A3F29F480913A0287FF44C03B
:10428000F6CF8B3F39F480913B0287FF3DC01092FF
:104290003B023AC08C3F29F480913B021816BCF3D4
:1042A00033C0843F21F4809137028E7F17C0853F51
:1042B00021F4809137028D7F11C0863F21F48091D7
:1042C00037028B7F0BC0873F21F480913702877FB5
:1042D00005C0883F31F4809137028F7E809337028A
:1042E00013C08D3F21F4809135028E7F0BC08E3F2D
:1042F00021F4809135028D7F05C08F3F29F4809194
:1043000035028B7F809335028091380281110EC077
:104310008091390281110AC080913A02811106C050
:1043200080913B02811102C010923602089587E30A
:1043300092E00E9423110E94331E909334028093D6
:10434000330208951F93CF93DF93809133029091AE
:1043500034020E943F1EAC0190913602992321F055
:104360002091080130E006C0209109018AE0289FD1
:10437000900111244217530708F47BC08091380242
:10438000C0913902D0913A0210913B02811107C0CD
:10439000C1116BC0D11169C0111167C06AC09F3FC4
:1043A00019F09F5F90933602181624F40E9428207B
:1043B000809338028091380287FF05C00E94282030
:1043C0008195809338021C1624F40E942820809343
:1043D00039028091390287FF05C00E94282081950B
:1043E00080933902309138023323E1F02091390271
:1043F0002223C1F045EB3403C0011124892F990F0A
:10440000990B009709F481E08093380235EB230380
:10441000C0011124892F990F990B009709F481E0AD
:10442000809339021D1624F40E94712080933A0271
:1044300080913A0287FF05C00E9471208195809388
:104440003A02111624F40E94712080933B0280915D
:104450003B0287FF05C00E947120819580933B023B
:10446000DF91CF911F910C9497219F3F09F099CF35
:10447000A1CFDF91CF911F910895E7E3F2E085E0AE
:10448000DF011D928A95E9F71092360210923502EB
:1044900008950E94001D811102C00E94DA1C0E9432
:1044A000261D80939C02282F269530E0263031056A
:1044B00024F081708A6080939C0280919C0280FF2E
:1044C00002C0869501C080E00C94310320919C02CB
:1044D000822F8695482F50E04530510544F48F5F78
:1044E000982F990F822F8170892B80939C02809145
:1044F0009C02816080939C020E942A1D80919C02F4
:1045000086950C94310380919C02982F969591F09A
:104510009158990F8170892B80939C028E7F91E036
:1045200009F490E080919C0290FB80F980939C02BA
:104530000E942A1D80919C0286950C9431038091E3
:104540009C02982F909590FB80F980939C0281307B
:1045500019F483E080939C0280919C020E942A1DA2
:1045600080919C0280FF02C0869501C080E00C947F
:10457000310390919C02892F86958F5F8F77917080
:10458000863028F4880F892B80939C0202C0909378
:104590009C0280919C028E7F91E009F490E08091D2
:1045A0009C0290FB80F980939C020E942A1D8091BE
:1045B0009C0286950C943103863008F085E0880FC4
:1045C00090919C029170892B80939C028E7F91E048
:1045D00009F490E080919C0290FB80F980939C020A
:1045E0000E942A1D80919C0286950C943103809133
:1045F0005C0208950F931F93CF93DF9300D01F9217
:10460000CDB7DEB78C010E947225823011F0843064
:1046100019F593E099831B830A839093E9008FEF48
:104620009091E800815095FD06C095ED9A95F1F7BF
:1046300000008111F5CF8091E80085FF0DC040E0BA
:1046400050E063E070E0CE0101960E948F258091DA
:10465000E8008E778093E8000F900F900F90DF9125
:10466000CF911F910F910895CF93DF9300D01F92A8
:10467000CDB7DEB72091A102243031F522E02983A5
:10468000805891099B838A8383E08093E9008FEFB0
:104690009091E800815095FD06C095ED9A95F1F74F
:1046A00000008111F5CF8091E80085FF0DC040E04A
:1046B00050E063E070E0CE0101960E948F2580916A
:1046C000E8008E778093E8000F900F900F90DF91B5
:1046D000CF910895CF93DF93EC010E947225823031
:1046E00011F08430F9F482E08093E9009FEF80912B
:1046F000E800915085FD06C085ED8A95F1F7000030
:104700009111F5CF8091E80085FF0CC040E050E0AA
:1047100065E070E0CE010E948F258091E8008E77E1
:104720008093E800DF91CF910895CF93DF93EC0160
:104730000E947225823019F0843009F047C08091C0
:1047400014018823E1F080919A0287FF18C084E069
:104750008093E9008FEF9091E800815095FD06C0AD
:1047600095E19A95F1F700008111F5CF8091E8006D
:1047700085FF2CC040E050E060E270E017C081E0AF
:104780008093E9008FEF9091E800815095FD06C07D
:1047900095ED9A95F1F700008111F5CF8091E80031
:1047A00085FF14C040E050E068E070E0CE010E9458
:1047B0008F258091E8008E778093E80080E2FE01EB
:1047C000ACE3B2E001900D928A95E1F7DF91CF91D1
:1047D00008958091A002811109C00E9424270E949F
:1047E00081278091E20084608093E2000895109216
:1047F000A0020895089508950C94F71D42E061EC1D
:1048000081E00E949E2642E061EC82E00E949E26AA
:1048100042E061EC83E00E949E2642E261EC84E08B
:104820000C949E268091A302833009F455C030F485
:10483000813071F0823009F48EC008958A3009F415
:104840007AC08B3009F460C0893009F09CC020C068
:104850008091A202813A09F096C08091E800877F9A
:104860008093E8008091A6029091A702892B21F401
:1048700060E28CE392E003C060E080E090E070E0F2
:104880000E94DA258091E8008B778093E8000895F4
:104890008091A202813209F076C08091A6029091A7
:1048A000A702009719F0039709F06DC08091E80006
:1048B000877F8093E8008091E80082FD05C08091A9
:1048C000A1028111F8CF5FC08091F10080935C025A
:1048D0008091E8008B7753C08091A202813A09F061
:1048E00052C08091A6029091A702892B09F04BC07B
:1048F0008091E800877F8093E8008091E80080FF46
:10490000FCCF8091140136C08091A2028132D9F58A
:104910008091A6029091A702892BA9F58091E800C9
:10492000877F8093E8000E94D3268091A402809321
:1049300014010C949D168091A202813221F5809180
:10494000E800877F8093E8000E94D3268091A5022B
:1049500080935D0208958091A202813AA1F4809132
:10496000E800877F8093E8008091E80080FFFCCF1B
:1049700080915D028093F1008091E8008E778093B2
:10498000E8000C94D326089584B7877F84BF0FB6C0
:10499000F894A895809160008861809360001092DF
:1049A00060000FBE80E880936100109261000E9459
:1049B0005B110E9424270E9481278091E20084607D
:1049C0008093E20078940E94102A0E945F118AE08E
:1049D00091E00E9407118091A102853069F40E9444
:1049E000AC1D80919F028823B1F30E94DF1D8823B4
:1049F00091F30E947925EFCF0E946F110E949210CF
:104A0000EACF0C940325292F332723303105C9F031
:104A100064F42130310581F02230310509F049C0BC
:104A20008DE690E02CE234E048C02132310521F1DE
:104A30002232310571F13DC082E190E029E934E094
:104A40003CC099278130910571F02CF4892B89F5B0
:104A5000E8E2F4E00DC08230910541F0039749F59A
:104A6000E8EDF3E005C0ECE0F4E002C0EEEDF3E0C9
:104A7000849190E09F0121C064307105D0F4660FED
:104A8000771FFB01EB5CFE4F2081318189E090E0D4
:104A900014C06430710568F4FB01EE0FFF1FE35D85
:104AA000FE4F20813181FB01E75DFE4F808190E068
:104AB00004C080E090E020E030E0FA013183208300
:104AC00008950895CF93C82F0E946125C0935E0278
:104AD000CF9108958091A102843011F081E0089572
:104AE00082E0089580915E02811102C00C946A25D3
:104AF000089580E189BD82E189BD09B400FEFDCF42
:104B00008091D8008F7D8093D8008091E0008260F2
:104B10008093E0008091E00081FDFCCF0895CF926A
:104B2000DF92EF92FF920F931F93CF93DF93EC01ED
:104B30008B016A010E94F226811133C0C114D10495
:104B400039F0F60180819181081B190BC80FD91F1C
:104B5000E12CF12C0115110519F18091E80085FD7A
:104B600016C08091E8008E778093E800C114D104CC
:104B700049F0F60180819181E80EF91EF182E08210
:104B800085E00FC00E94F226882321F30AC0899194
:104B90008093F10001501109FFEFEF1AFF0ADACFFD
:104BA00080E0DF91CF911F910F91FF90EF90DF9008
:104BB000CF9008952091A8023091A90226173707B7
:104BC00048F06115710539F42091E8002E772093A3
:104BD000E80001C0B90140E061157105A9F120911B
:104BE000A102222309F443C0253009F442C02091D8
:104BF000E80023FD40C02091E80022FD32C0209152
:104C0000E80020FFE9CF4091F3002091F20030E06E
:104C1000342BFC01CF016115710559F028303105A5
:104C200040F481918093F100615071092F5F3F4FF3
:104C3000F1CF41E02830310509F040E02091E80053
:104C40002E772093E800C8CF4111C9CF0AC08091C8
:104C5000A102882361F0853061F08091E80083FD36
:104C60000AC08091E80082FFF2CF80E0089582E0E0
:104C7000089583E0089581E008952091A80230917D
:104C8000A9022617370748F06115710539F42091FC
:104C9000E8002E772093E80001C0B901FC0120E074
:104CA0006115710591F18091A102882309F440C03A
:104CB000853009F43FC08091E80083FD3DC08091BC
:104CC000E80082FD2FC08091E80080FFE9CF2091AD
:104CD000F3008091F20090E0922B6115710559F07C
:104CE0008830910540F424912093F1003196615071
:104CF00071090196F2CF21E0089709F020E0809138
:104D0000E8008E778093E800CBCF2111CCCF0AC08A
:104D10008091A102882361F0853061F08091E800E4
:104D200083FD0AC08091E80082FFF2CF80E0089501
:104D300082E0089583E0089581E00895982F9730E8
:104D400058F59093E900981739F07091EC00209194
:104D5000ED005091F00003C0242F762F50E021FF8A
:104D600019C03091EB003E7F3093EB003091ED00A5
:104D70003D7F3093ED003091EB0031603093EB00DC
:104D80007093EC002093ED005093F0002091EE0022
:104D900027FF07C09F5FD3CF8F708093E90081E02A
:104DA000089580E008958091A20287FF11C080914C
:104DB000E80082FD05C08091A1028111F8CF11C0E9
:104DC0008091E8008B770BC08091A102882349F085
:104DD0008091E80080FFF8CF8091E8008E77809383
:104DE000E80008952091E4003091E50095E64091B7
:104DF000EC00842F817040FF22C08091E80080FD8C
:104E00001CC08091A102882391F0853091F080919F
:104E1000EB0085FD10C04091E4005091E500421781
:104E2000530729F39A01915011F784E0089582E025
:104E3000089583E0089581E0089580E00895409109
:104E4000E80042FFDECF08950E9492270E949A2731
:104E5000E0EEF0E0808181608083E8EDF0E0808129
:104E60008F77808319BCA7EDB0E08C918E7F8C93F7
:104E700080818F7E80831092A00208950F931F93EC
:104E8000CF93DF930E9492270E949A27C8EDD0E02B
:104E900088818F77888388818068888388818F7DE7
:104EA000888319BC1092A10210929D0210929F0259
:104EB00010929E0200EE10E0F80180818B7F8083CB
:104EC00088818160888342E060E080E00E949E26C5
:104ED000E1EEF0E080818E7F8083E2EEF0E0808181
:104EE00081608083808188608083F80180818E7FEB
:104EF0008083888180618883DF91CF911F910F919A
:104F00000895E8EDF0E080818F7E8083E7EDF0E0AA
:104F100080818160808384E082BF81E08093A002F1
:104F20000C943E27E8EDF0E080818E7F8083109224
:104F3000E20008951092DA001092E10008951F92A5
:104F40000F920FB60F9211242F933F934F935F93BD
:104F50006F937F938F939F93AF93BF93EF93FF9341
:104F60008091E10082FF0BC08091E20082FF07C0C8
:104F70008091E1008B7F8093E1000E940F2A809155
:104F8000DA0080FF1FC08091D80080FF1BC0809195
:104F9000DA008E7F8093DA008091D90080FF0DC007
:104FA00080E189BD82E189BD09B400FEFDCF81E0C9
:104FB0008093A1020E94E92305C019BC1092A102AE
:104FC0000E94F7238091E10080FF19C08091E200E8
:104FD00080FF15C08091E2008E7F8093E200809177
:104FE000E20080618093E2008091D800806280932B
:104FF000D80019BC85E08093A1020E94FB23809118
:10500000E10084FF30C08091E20084FF2CC080E189
:1050100089BD82E189BD09B400FEFDCF8091D80031
:105020008F7D8093D8008091E1008F7E8093E10096
:105030008091E2008F7E8093E2008091E2008160A7
:105040008093E20080919D02882311F084E007C0E4
:105050008091E30087FD02C081E001C083E080937E
:10506000A1020E94FC238091E10083FF29C080916E
:10507000E20083FF25C08091E100877F8093E100FB
:1050800082E08093A10210929D028091E1008E7FC8
:105090008093E1008091E2008E7F8093E200809116
:1050A000E20080618093E20042E060E080E00E94E4
:1050B0009E268091F00088608093F0000E94FA2381
:1050C000FF91EF91BF91AF919F918F917F916F91E0
:1050D0005F914F913F912F910F900FBE0F901F90B6
:1050E00018951F920F920FB60F9211242F933F9392
:1050F0004F935F936F937F938F939F93AF93BF93E0
:10510000CF93DF93EF93FF93C091E900CF7080912D
:10511000EC00D82FD17080FDD0E81092E90080918A
:10512000F000877F8093F00078940E94B528109259
:10513000E9008091F00088608093F000CD2BCF7063
:10514000C093E900FF91EF91DF91CF91BF91AF91B3
:105150009F918F917F916F915F914F913F912F918F
:105160000F900FBE0F901F9018951F93CF93DF9352
:10517000CDB7DEB7AA970FB6F894DEBF0FBECDBF8E
:10518000E2EAF2E088E08E0F9091F10091938E13A5
:10519000FBCF0E9412248091E80083FF28C18091F8
:1051A000A2029091A302492F50E04A30510508F025
:1051B0001EC1FA01E556FF4F0C94CE2D803821F028
:1051C000823809F014C108C080919E0290919F021C
:1051D000992389F082600FC08091A6028F7087307A
:1051E00008F005C18093E9008091EB0085FB8827DA
:1051F00080F91092E9009091E800977F9093E80081
:105200008093F1001092F100D0C0282F2D7F09F07B
:10521000EEC0882319F0823061F0E9C08091A402C9
:10522000813009F0E4C0933009F080E080939F0260
:105230002EC08091A40281112AC08091A6028F7095
:105240002FEF280F263008F0D2C08093E90020917C
:10525000EB0020FF1CC0933021F48091EB008062B2
:1052600014C09091EB0090619093EB0021E030E04E
:10527000A90102C0440F551F8A95E2F74093EA0046
:105280001092EA008091EB0088608093EB0010920E
:10529000E9008091E800877F8093E8000E94D32690
:1052A000A6C08111A4C01091A4021F778091E300D1
:1052B0008078812B8093E3008091E800877F809342
:1052C000E8000E94D3268091E80080FFFCCF809107
:1052D000E30080688093E300111102C082E001C006
:1052E00083E08093A10283C08058823008F07FC0A1
:1052F0008091A4029091A5028C3D53E0950779F529
:1053000083E08A838AE289834FB7F894DE0113969B
:1053100020E03EE051E2E32FF0E050935700E491AB
:1053200020FF03C0E295EF703F5FEF708E2F90E09B
:10533000EA3010F0C79601C0C0968D939D932F5F01
:10534000243149F74FBF8091E800877F8093E800C0
:105350006AE270E0CE0101960E94DA2515C06091E4
:10536000A6027091A702AE014F5F5F4F0E94012518
:10537000BC01892BE1F19091E800977F9093E800C0
:1053800089819A810E943D268091E8008B778093E5
:10539000E8002DC0803859F58091E800877F809320
:1053A000E80080919D028093F1008091E8008E7763
:1053B00073CF81111CC09091A4029230C0F48091EF
:1053C000E800877F8093E80090939D020E94D32697
:1053D00080919D02811106C08091E30087FD02C08B
:1053E00081E001C084E08093A1020E94FE238091AD
:1053F000E80083FF0AC08091E800877F8093E8007F
:105400008091EB0080628093EB00AA960FB6F8942F
:10541000DEBF0FBECDBFDF91CF911F9108950895DC
:10542000CF938091A1028823A1F0C091E900CF70B1
:105430009091EC00892F817090FD80E8C82B10922C
:10544000E9008091E80083FD0E94B528CF70C093E9
:10545000E900CF9108955058BB27AA270E94432AFC
:105460000C94EE2B0E94E02B38F00E94E72B20F0EA
:1054700039F49F3F19F426F40C94B62B0EF4E09502
:10548000E7FB0C94B02BE92F0E94FF2B58F3BA17BF
:10549000620773078407950720F079F4A6F50C944A
:1054A000212C0EF4E0950B2EBA2FA02D0B01B90183
:1054B00090010C01CA01A0011124FF27591B99F08A
:1054C000593F50F4503E68F11A16F040A22F232F96
:1054D000342F4427585FF3CF469537952795A795E6
:1054E000F0405395C9F77EF41F16BA0B620B730B8D
:1054F000840BBAF09150A1F0FF0FBB1F661F771FFE
:10550000881FC2F70EC0BA0F621F731F841F48F4B2
:10551000879577956795B795F7959E3F08F0B0CF3B
:105520009395880F08F09927EE0F97958795089522
:105530000E94AC2A0C94EE2B0E94E72B58F00E949C
:10554000E02B40F029F45F3F29F00C94B02B51116F
:105550000C94222C0C94B62B0E94FF2B68F39923F9
:10556000B1F3552391F3951B550BBB27AA2762175F
:105570007307840738F09F5F5F4F220F331F441F6C
:10558000AA1FA9F335D00E2E3AF0E0E832D09150A0
:105590005040E695001CCAF72BD0FE2F29D0660F8D
:1055A000771F881FBB1F261737074807AB07B0E8D0
:1055B00009F0BB0B802DBF01FF2793585F4F3AF0D6
:1055C0009E3F510578F00C94B02B0C94222C5F3F39
:1055D000E4F3983ED4F3869577956795B795F7955C
:1055E0009F5FC9F7880F911D9695879597F9089544
:1055F000E1E0660F771F881FBB1F621773078407E0
:10560000BA0720F0621B730B840BBA0BEE1F88F7EE
:10561000E095089529F416F00C94B02B0C94212CED
:105620000C94B62B0E94072CA8F39638A0F707F825
:105630000F92E8942BE33AEA48EB5FE70E94B42C20
:105640000F920F920F924DB75EB70F920E946A2C85
:10565000EAE4F1E00E94B92B4F915F91EF91FF9145
:10566000E595EE1FFF1F49F0FE57E0684427EE0F57
:10567000441FFA95E1F74195550B0E94342C0F9089
:1056800007FE0C94282C08950E94072C88F09F5741
:1056900098F0B92F9927B751B0F0E1F0660F771F56
:1056A000881F991F1AF0BA95C9F714C0B13091F04C
:1056B0000E94212CB1E008950C94212C672F782FA3
:1056C0008827B85F39F0B93FCCF386957795679511
:1056D000B395D9F73EF490958095709561957F4F7D
:1056E0008F4F9F4F0895E89409C097FB3EF4909523
:1056F0008095709561957F4F8F4F9F4F9923A9F0AB
:10570000F92F96E9BB279395F69587957795679539
:10571000B795F111F8CFFAF4BB0F11F460FF1BC07D
:105720006F5F7F4F8F4F9F4F16C0882311F096E910
:1057300011C0772321F09EE8872F762F05C06623BE
:1057400071F096E8862F70E060E02AF09A95660F77
:10575000771F881FDAF7880F9695879597F9089530
:1057600097F99F6780E870E060E008959FEF80EC14
:105770000895DF93CF931F930F93FF92EF92DF92E1
:105780007B018C01689406C0DA2EEF010E94B12CD7
:10579000FE01E894A5912591359145915591A6F387
:1057A000EF010E94432AFE019701A801DA9469F7EC
:1057B000DF90EF90FF900F911F91CF91DF910895AF
:1057C00000240A94161617061806090608950024E0
:1057D0000A9412161306140605060895092E03945A
:1057E000000C11F4882352F0BB0F40F4BF2B11F4CE
:1057F00060FF04C06F5F7F4F8F4F9F4F089557FD2D
:105800009058440F551F59F05F3F71F04795880F2E
:1058100097FB991F61F09F3F79F0879508951216C5
:1058200013061406551FF2CF4695F1DF08C0161671
:1058300017061806991FF1CF869571056105089422
:105840000895E894BB2766277727CB0197F9089539
:105850009B01AC0160E070E080E89FE30C94982A23
:105860000C94B02B0C94132D0E94072CD8F3992381
:10587000C9F3940F511DA3F39150504094F059F087
:10588000882332F0660F771F881F91505040C1F770
:105890009E3F51052CF7880F911D9695879597F996
:1058A00008955F3FACF0983E9CF0BB2786957795B6
:1058B0006795B79508F4B1609395C1F7BB0F58F79A
:1058C00011F460FFE8CF6F5F7F4F8F4F9F4FE3CFA3
:1058D0000C94222CFA01DC01AA0FBB1F9B01AC0126
:1058E000BF5728F4222733274427507820C0B751C8
:1058F00090F4AB2F0024469537952795011CA3956E
:10590000D2F3002071F0220F331F441FB395DAF356
:105910000ED00C942B2A61307105A0E88A07B94695
:1059200030F49B01AC016627772788279078309662
:1059300021F0208331834283538308950E94B12C48
:105940000C94EE2B0E94E02B38F00E94E72B20F005
:10595000952311F00C94B02B0C94B62B11240C94BD
:10596000222C0E94FF2B70F3959FC1F3950F50E0FE
:10597000551F629FF001729FBB27F00DB11D639F01
:10598000AA27F00DB11DAA1F649F6627B00DA11DA7
:10599000661F829F2227B00DA11D621F739FB00D4D
:1059A000A11D621F839FA00D611D221F749F3327BD
:1059B000A00D611D231F849F600D211D822F762F56
:1059C0006A2F11249F5750409AF0F1F088234AF033
:1059D000EE0FFF1FBB1F661F771F881F915050409F
:1059E000A9F79E3F510580F00C94B02B0C94222C0B
:1059F0005F3FE4F3983ED4F3869577956795B79526
:105A0000F795E7959F5FC1F7FE2B880F911D96953F
:105A1000879597F908959F930E94232D0F9007FC77
:105A2000EE5F0C944C2D9F3F31F0915020F4879500
:105A300077956795B795880F911D9695879597F9F6
:105A400008950C94B62B0E94072CD8F3E894E0E05C
:105A5000BB279F57F0F02AED3FE049EC06C0EE0F60
:105A6000BB0F661F771F881F28F0B23A62077307C3
:105A7000840728F0B25A620B730B840BE3959A9556
:105A800072F7803830F49A95BB0F661F771F881F16
:105A9000D2F790480C94152DEF93E0FF07C0A2EACF
:105AA0002AED3FE049EC5FEB0E94432A0E94EE2B77
:105AB0000F90039401FC9058E2E7F1E00C94602D04
:105AC0009F938F937F936F93FF93EF939B01AC0111
:105AD0000E949E2CEF91FF910E94B92B2F913F9134
