:100000000C94BA070C9401080C9401080C94010894
:100010000C9401080C9401080C9401080C9401083C
:100020000C9401080C9401080C94522F0C94243069
:100030000C9413210C9401080C9401080C940108F1
:100040000C9401080C9401080C9401080C9401080C
:100050000C9455110C9487210C9401080C94010800
:100060000C9401080C9401080C9401080C940108EC
:100070000C9401080C9401080C9401080C940108DC
:100080000C9401080C9401080C9401080C940108CC
:100090000C9401080C9401080C9401080C940108BC
:1000A0000C9401080C9401080C9401086F166F164B
:1000B000A116A116EE160E17931893185017ED17E8
:1000C000FE17FE175F18681893188C181519151964
:1000D000271927191E19271927192719151915194D
:1000E00023192719271923199130B830AA31B830AC
:1000F000AA3104312731AA317D318C312530325873
:100100003A20253033326C620A000A722F632030A5
:100110003132333435363738394142434445460A63
:10012000002575001E001F00200021002200230072
:1001300024002500260027002D002E002A0049005B
:1001400053005400000000000000000014001A00DA
:100150000800150017001C0018000C001200130006
:100160002F00300031004C005F00600000000000F4
:100170000000000004001600070009000A000B0040
:100180000D000E000F003300340028005C005D00FD
:100190005E00610000000000000000001D001B0068
:1001A0000600190005001100100036003700380065
:1001B000E5000151520059005A005B0000000000A8
:1001C00000000000E000E300E2002C000151E70025
:1001D000E400500051004F006200630058005700D7
:1001E00056005500000000000000000029002B0010
:1001F0003900E100000000000000000000000000E5
:1002000000000000000000000000000000000000EE
:1002100000000000000000000000000000000000DE
:1002200000000000000000000000000000000000CE
:100230000000000000000000000000003A003B0049
:100240003C003D003E003F004000410042004300B2
:10025000440045002A0049005300540000000000FB
:100260000000000014001A000800005C17001C00C9
:1002700018000C00120013002F00300031004C0059
:100280005F00600000000000000000000400160095
:10029000070009000A000B000D000E000F003300DC
:1002A000340028005C005D005E006100000000007A
:1002B000000000001D001B000600190005001100D1
:1002C0001000360037003800E500010052005900E8
:1002D0005A005B000000000000000000E000E300A6
:1002E000E2002C000100E700E400BF5CBD5CBE5CE6
:1002F00062006300580057005600550000000000DF
:100300000000000029002B003900E100000000007F
:1003100000000000000000000000000000000000DD
:1003200000000000000000000000000000000000CD
:1003300000000000000000000000000000000000BD
:1003400000000000000000000000000000000000AD
:100350000000000044454255473A206469736162D9
:100360006C65642E0A0044454255473A20656E612B
:10037000626C65642E0A006261636B6C6967687405
:1003800020627265617468696E6720646973616276
:100390006C650A006261636B6C69676874206272E5
:1003A00065617468696E6720656E61626C650A00DC
:1003B0006261636B6C6967687420627265617468FE
:1003C000696E6720746F67676C653A2025750A004F
:1003D0006261636B6C6967687420737465703A203E
:1003E00025750A006261636B6C69676874206469D3
:1003F0007361626C650A006261636B6C6967687443
:1004000020656E61626C650A006261636B6C69678E
:10041000687420746F67676C653A2025750A0062FE
:1004200061636B6C6967687420646563726561738E
:10043000653A2025750A006261636B6C69676874B0
:1004400020696E6372656173653A2025750A000044
:10045000000000000000000000000101020304058C
:1004600006080A0C0F1114181C2024292E33393FBA
:10047000464C535B626A7179818A929AA2AAB2B998
:10048000C1C8CFD5DCE1E7EBF0F4F7FAFCFDFEFFE5
:10049000FEFDFCFAF7F4F0EBE7E1DCD5CFC8C1B91B
:1004A000B2AAA29A928A8179716A625B534C463FE2
:1004B00039332E2924201C1814110F0C0A080605A4
:1004C0000403020101000000000000000000000A17
:1004D000002530325820006B6579626F6172645F6D
:1004E0007265706F72743A20000A0025303258002D
:1004F0006B6579626F6172645F7365745F6C65646C
:100500003A2000290A002575002F002575005D2876
:1005100000256400200025640020002564002000E0
:100520002564007C0025303258006D6F7573656B53
:100530006579205B62746E7C782079207620685D16
:10054000287265702F61636C293A205B006D6B5FC8
:10055000776865656C5F74696D655F746F5F6D6109
:1005600078203D2025640A006D6B5F776865656CB7
:100570005F6D61785F7370656564203D2025640A56
:10058000006D6B5F74696D655F746F5F6D6178207E
:100590003D2025640A006D6B5F6D61785F73706547
:1005A0006564203D2025640A006D6B5F696E74658B
:1005B0007276616C203D2025640A006D6B5F646576
:1005C0006C6179203D2025640A006D6B5F7768655A
:1005D000656C5F74696D655F746F5F6D6178203DF8
:1005E0002025640A006D6B5F776865656C5F6D61DF
:1005F000785F7370656564203D2025640A006D6B2B
:100600005F74696D655F746F5F6D6178203D202553
:10061000640A006D6B5F6D61785F7370656564205F
:100620003D2025640A006D6B5F696E7465727661AA
:100630006C203D2025640A006D6B5F64656C6179F8
:10064000203D2025640A000A00257500363A2077EF
:100650006865656C5F74696D655F746F5F6D617807
:100660003A20000A00257500353A20776865656CE8
:100670005F6D61785F73706565643A20000A0025DC
:100680007500343A2074696D655F746F5F6D6178D1
:100690003A20000A00257500333A206D61785F73B7
:1006A000706565643A20000A00257500323A2069B9
:1006B0006E74657276616C286D73293A20000A00A9
:1006C000257500313A2064656C6179282A31306DD6
:1006D00073293A20000A092D2056616C7565732034
:1006E0002D0A004D3E004D25643E20003F007365FD
:1006F000742064656661756C740A00433E2000775F
:10070000686572652064656C74613A206375727304
:100710006F723D25642C20776865656C3D25640A01
:1007200053656520687474703A2F2F656E2E776953
:100730006B6970656469612E6F72672F77696B6989
:100740002F4D6F7573655F6B6579730A000A092D0C
:10075000204D6F7573656B6579202D0A4553432FC6
:10076000713A09717569740A313A0964656C617985
:10077000282A31306D73290A323A09696E7465721C
:1007800076616C286D73290A333A096D61785F735D
:10079000706565640A343A0974696D655F746F5FEA
:1007A0006D61780A353A09776865656C5F6D6178C7
:1007B0005F73706565640A363A09776865656C5FD2
:1007C00074696D655F746F5F6D61780A0A703A09CC
:1007D0007072696E742076616C7565730A643A098B
:1007E0007365742064656661756C74730A75703A1C
:1007F000092B310A646F776E3A092D310A706775DB
:10080000703A092B31300A7067646F776E3A092DA0
:1008100031300A0A7370656564203D2064656C742C
:1008200061202A206D61785F7370656564202A20DD
:1008300028726570656174202F2074696D655F741E
:100840006F5F6D6178290A003F004D3E2000433EF6
:1008500020004C25640A0074696D65725F726561E1
:1008600064333228293A202530346C580A006B65ED
:1008700079626F6172645F69646C653A2025580A19
:10088000006B6579626F6172645F70726F746F6321
:100890006F6C3A2025580A00686F73745F6B657936
:1008A000626F6172645F6C65647328293A20255811
:1008B0000A000A092D20537461747573202D0A00F3
:1008C0004743433A20342E392E32204156522D4C84
:1008D0004942433A20312E382E3073766E204156ED
:1008E000525F415243483A20617672350A004F50B8
:1008F00054494F4E533A204C554641204D4F555385
:10090000454B45592045585452414B455920434F7A
:100910004E534F4C4520434F4D4D414E44203430B3
:1009200039360A004255494C443A2022302E372E9F
:1009300034352D312D6733643533656122202831FC
:10094000383A31313A3539204F6374203230203211
:10095000303139290A005649443A20307846454515
:100960004428416C736F72616E29205049443A20CB
:1009700030783630353028414C3129205645523AAE
:10098000203078303130340A00444553433A204116
:1009900020637573746F6D206B6579626F6172642B
:1009A0000A000A092D2056657273696F6E202D0AA0
:1009B000000A092D20436F6E736F6C65202D0A4568
:1009C00053432F713A09717569740A6D3A096D6F55
:1009D0007573656B65790A000A092D204D61676999
:1009E00063202D0A443A094465627567204D65739A
:1009F0007361676520546F67676C650A583A094DE3
:100A00006174726978204465627567204D6F646512
:100A100020546F67676C65202D2053686F77206BBB
:100A200065797072657373657320696E206D61748A
:100A300072697820677269640A4B3A094B6579627A
:100A40006F61726420446562756720546F67676CDC
:100A500065202D2053686F77206B65797072657300
:100A600073207265706F72740A4D3A09446562753D
:100A700067204D6F75736520546F67676C650A5604
:100A80003A0956657273696F6E0A533A0953746175
:100A90007475730A433A0941637469766174652019
:100AA000436F6E736F6C65204D6F64650A46312D20
:100AB0004631303A0953776974636820746F204C6B
:100AC0006179657220302D392028463130203D2053
:100AD0004C30290A302D393A0953776974636820FC
:100AE000746F204C6179657220302D390A4752416C
:100AF00056453A0953776974636820746F204C61D6
:100B000079657220302028616C7465726E6174653D
:100B1000290A423A094A756D7020746F20426F6F3E
:100B2000746C6F616465720A4553433A094A756D86
:100B30007020746F20426F6F746C6F6164657220F7
:100B400028616C7465726E617465290A453A0950B2
:100B500072696E7420454550524F4D205365747430
:100B6000696E67730A4253504143453A09436C65C5
:100B7000617220454550524F4D0A000A002575000C
:100B80002E6C6576656C3A20000A002575002E658E
:100B90006E61626C653A20000A00253032580062AE
:100BA00061636B6C696768745F636F6E6669672EFB
:100BB0007261773A20000A002575002E6E6B726F05
:100BC0003A20000A002575002E737761705F62611C
:100BD000636B736C6173685F6261636B7370616395
:100BE000653A20000A002575002E737761705F67F3
:100BF000726176655F6573633A20000A00257500AF
:100C00002E6E6F5F6775693A20000A002575002E09
:100C1000737761705F72616C745F726775693A2097
:100C2000000A002575002E737761705F6C616C742B
:100C30005F6C6775693A20000A002575002E73778E
:100C400061705F7263746C5F726775693A20000A45
:100C5000002575002E737761705F6C63746C5F6C38
:100C60006775693A20000A002575002E636170736C
:100C70006C6F636B5F746F5F636F6E74726F6C3AEF
:100C800020000A002575002E737761705F636F6E18
:100C900074726F6C5F636170736C6F636B3A20008A
:100CA0000A0025303258006B65796D61705F636FA3
:100CB0006E6669672E7261773A20000A002575001A
:100CC0002E6D6F7573653A20000A002575002E6B36
:100CD0006579626F6172643A20000A002575002E02
:100CE0006D61747269783A20000A002575002E65DE
:100CF0006E61626C653A20000A002530325800644B
:100D0000656275675F636F6E6669672E7261773AB9
:100D100020000A0025750064656661756C745F6C5F
:100D2000617965723A20003F000A6D6F7573653A0C
:100D3000206F66660A000A6D6F7573653A206F6EE4
:100D40000A000A6B6579626F6172643A206F6666A9
:100D50000A000A6B6579626F6172643A206F6E0AED
:100D6000000A6D61747269783A206F66660A000A3B
:100D70006D61747269783A206F6E0A000A64656268
:100D800075673A206F66660A000A64656275673A9D
:100D9000206F6E0A000A0A4A756D70696E672074CA
:100DA0006F20626F6F746C6F616465722E2E2E20DF
:100DB00000433E2000436C656172696E67204545C3
:100DC00050524F4D0A006565636F6E6669673A0A57
:100DD000005B735D004B6579626F617264207374B0
:100DE0006172742E0A005B575D005B535D005B52BD
:100DF0005D005B445D005B435D0004033000000068
:100E0000080341004C0031000000100341006C0059
:100E100073006F00720061006E000000040309049B
:100E200009025B00030100A0FA09040000010301AC
:100E3000010009211101000122400007058103087A
:100E4000000A09040100010300000009211101004A
:100E5000012285000705820320000A09040200021E
:100E6000030000000921110100012222000705836F
:100E700003200001070503032000011201100100F7
:100E8000000008EDFE50600401010203010631FF7D
:100E90000974A1010975150026FF009520750881C8
:100EA000020976150026FF00952075089102C005FD
:100EB000010902A10185020901A100050919012901
:100EC00005150025019505750181029501750381C0
:100ED000010501093009311581257F9502750881C9
:100EE0000609381581257F950175088106050C0ACC
:100EF00038021581257F950175088106C0C005015E
:100F00000980A10185031A81002A830016010026A9
:100F10000300950175108100C0050C0901A1018530
:100F2000041A01002A9C02160100269C02950175F4
:100F3000108100C005010906A101050719E029E794
:100F4000150025019508750181029501750881013B
:100F50000507190029FF150026FF00950675088171
:100F6000000508190129059505750191029501757E
:100F7000039101C011241FBECFEFDAE0DEBFCDBF69
:100F800004B603FE27C080916C0290916D02A0917F
:100F90006E02B0916F028730904BA740B04BD1F4F6
:100FA00010926C0210926D0210926E0210926F02FB
:100FB00014BE84B7877F84BF0FB6F894A89580913C
:100FC0006000886180936000109260000FBEE0E0D6
:100FD000F8E3099511E0A0E0B1E0EEE4F5E602C027
:100FE00005900D92AE32B107D9F722E0AEE2B1E042
:100FF00001C01D92AC36B207E1F70E946D2C0C9433
:10100000A5320C940000FF93EF93E0912E01F09134
:101010002F01309709F00995EF91FF910895FC0198
:101020008591803011F0EFDFFBCF0895FF27E0E2DC
:1010300030E247FF0CC0419597FF09C0EDE2609593
:10104000709580959095611D711D811D911D27FFE3
:1010500002C0219530E350E2AA27660F771F881F50
:10106000991FAA1FA41710F0A41B63955A95A9F7FE
:10107000AA3008F0A95FA05DAF93F39561157105E3
:101080008105910541F7ED3211F4EF93F395F217D5
:1010900018F43F93F395FBCF8F91B5DFFA95E1F705
:1010A0000895E991F9918591803021F0853219F008
:1010B000AADFF9CF089520E0E89455915532C1F3A5
:1010C000503311F4689455915A3348F4505390F3C7
:1010D000220F022E220F220F200D250FF4CF0EF427
:1010E000219589919991533619F3533729F1533545
:1010F00059F1BC0188279927E8945C3621F489913D
:10110000999168945591543639F446EF7EF077FF03
:101110000DC08FEF9FEF0AC055374AE039F05835C0
:1011200040E121F0523642E009F00895FF93EF9339
:101130007DDFEF91FF91B7CFFF93EF93FC0181919A
:101140008030B9F360DFFBCFFF93EF9368DFF1CF1F
:10115000DF93CF93CDB7DEB72596A3DFCF91DF9195
:101160000895239A2B9A08950C94250A0C94260A24
:101170000E94B10887B18F7387B984B1897C84B923
:1011800088B1806C88B985B1866385B9ECE4F1E0FB
:10119000A0E3B1E011921192119211921D921D9251
:1011A0001D921D9281E0E836F807A1F70C94640ABD
:1011B0002F923F924F925F926F927F928F929F9267
:1011C000AF92BF92CF92DF92EF92FF920F931F9355
:1011D000CF93DF93C0E0D0E0C12CD12C7601C39433
:1011E00022242394312C8C2F9AB1986F9AB95B9852
:1011F000C0FF02C05C9A01C05C9881FF02C05D9A8A
:1012000001C05D9882FF02C05E9A01C05E9883FFB4
:1012100002C05F9A01C05F9880E18A95F1F786B1BC
:101220008095881F8827881F199902C092E001C005
:1012300090E0892B1A9902C034E001C030E0832B82
:10124000369902C038E001C030E0832B1C9902C0FF
:1012500020E101C020E0822B1D9902C090E201C074
:1012600090E0892B260137010C2E04C0440C551C3C
:10127000661C771C0A94D2F7B091000100E311E0DC
:10128000F80120E030E0082E000C990B808091805E
:10129000A280B380B501A4014421552166217721A4
:1012A000A1E0452B462B472B09F4A0E0A101022E1B
:1012B00002C0440F551F0A94E2F74823592361E006
:1012C000452B09F460E0A61749F084249524A62450
:1012D000B72480829182A282B382B5E02F5F3F4F14
:1012E00034962730310591F6B09300010E94B10881
:1012F0002196C431D10509F076CF80910001882371
:10130000E1F0815080930001882339F0CFE9DFE0DC
:101310002197F1F700C0000010C0ECE4F1E0E80113
:1013200089919991A991B9918E0181939193A193FA
:10133000B193D1E00C341D0791F70E946E0A81E051
:10134000DF91CF911F910F91FF90EF90DF90CF90A1
:10135000BF90AF909F908F907F906F905F904F90D5
:101360003F902F90089524E0829FC0011124FC013A
:10137000E45BFE4F60817181828193810895EF92D9
:10138000FF920F931F93CF93DF938AE091E00E9427
:101390000F088CE4E82E81E0F82EC0E0D0E00CEFDE
:1013A00010E0F70161917191819191917F010E940B
:1013B0009F1F9F938F937F936F93DF93CF931F9381
:1013C0000F930E94A8082196EDB7FEB738960FB686
:1013D000F894FEBF0FBEEDBFC730D10511F7DF9106
:1013E000CF911F910F91FF90EF9008950C94270AD1
:1013F000CF93DF931F92CDB7DEB794B1906C94B9C1
:101400009AB193609AB91F928F9321E231E03F9392
:101410002F9389830E94A8080F900F900F900F9030
:10142000898181FF02C02F9801C02F9A80FF02C0DE
:10143000589801C0589A82FF02C0599801C0599A21
:101440000F90DF91CF910C94290A0895089581E0BF
:101450000895089581E008951F93CF93DF9300D0FE
:1014600000D01F92CDB7DEB749835A8320919201F5
:1014700089819A81211112C0662349F00E943A1E87
:10148000182F682F89819A810E94DF1D03C00E9456
:101490000E1E182F69817A81812F04C00E943A1E86
:1014A00069817A810F900F900F900F900F90DF91CC
:1014B000CF911F910C94500CFC01408151816281AD
:1014C000738184810C942C0A0E94CA1F811102C06E
:1014D0000E9473200E94C2110C94B4080E943F1114
:1014E0000C94B6080C94F80908950E9405190E94FE
:1014F000740A2FEF84E39CE0215080409040E1F794
:1015000000C000000C94AD210F931F93CF93DF9385
:101510008C010E945C0AEC01B8010E94F609882344
:1015200001F1B801CE010E9447128823D1F0C13CDD
:10153000FCE5DF07C1F0F8F4C631ECE5DE0708F0A2
:101540005EC1C230FCE5DF0718F5C1158CE5D80790
:1015500009F031C1F801C281CC2309F497C10E947E
:10156000750AC0E093C1F801C281CC2309F48EC191
:101570000E94AE10F6CFCE3D8CE5D80709F469C1C4
:1015800008F46EC1CE018A5F9C45099708F016C128
:10159000F8018281882309F411C10E94CA1F8111B8
:1015A00002C00E9473200E94DD1F90935E02809310
:1015B0005D02C031FCE5DF0709F4BFC008F03FC0A1
:1015C000C830ECE5DE0709F496C0F0F4C4308CE5D1
:1015D000D80709F483C068F4C230FCE5DF0709F4DA
:1015E00073C0C330DC4509F0DDC080915D028260CC
:1015F00072C0C630ECE5DE0709F46AC008F077C0B7
:1016000080915D02886067C0CC308CE5D80709F412
:1016100081C058F4CA30FCE5DF0709F470C008F057
:1016200075C080915D02806856C0CE30ECE5DE0763
:1016300009F474C008F07DC080915D0289C0CB3F81
:101640008CE5D80709F44DC008F5C331FCE5DF0788
:1016500009F47BC068F4C131ECE5DE0709F471C020
:10166000C231DC4509F09EC080915D028F7733C0A6
:10167000C5318CE5D80709F472C008F486C0CA3FAA
:10168000DC4509F08FC080915E023EC0CF3F8CE503
:10169000D80709F45FC058F4CD3FFCE5DF0709F433
:1016A00044C008F43FC080915E0282602DC0C1300A
:1016B000EDE5DE0709F473C008F45DC0C230DD4516
:1016C00009F070C080E06CC080915D02816003C051
:1016D00080915D02806180935D0264C080915D02B3
:1016E00011C080915E02826080935E025BC0809137
:1016F0005D028062F0CF80915D028064ECCF8091CA
:101700005D0288608460E7CF8160EECF80915D02EA
:101710008E7FE1CF80915D028D7FDDCF80915D0274
:10172000877FD9CF80915E0218C080915E028D7F45
:10173000DBCF80915D028F7ECECF80915D028F7D69
:10174000CACF80915D028F7BC6CF80915D02877F7B
:101750008B7FC1CF80915E028D7F8E7FC5CF8091C0
:101760005D0282FB222720F991E0922790FB82F90B
:1017700090FB83F9B0CF80915E02982F9095917085
:101780008E7F892B90FB81F9AFCF80915D0287FB23
:10179000222720F991E0922790FB87F99CCF81E0E6
:1017A0000E94752080915D0290915E020E94EE1F62
:1017B0000E940519D6CEC130DC4539F0C801DF9151
:1017C000CF911F910F910C942A0AF801C281CC236A
:1017D00009F45CC080913A02C82FC095C170C0FB6B
:1017E00080F980933A02CC2329F086E693E00E94A8
:1017F0000F08B7CE84E593E00E940F0847C0C631BA
:10180000DC45E1F60E94BA1E282FF8018281409142
:10181000020150910301882379F02A7A91E009F4BA
:1018200090E090936801911102C069E201C065E304
:10183000CA010E94AC200AC080916801811102C0D7
:1018400069E201C065E3CA010E94AE200E94061F42
:1018500088CEF801C281CC23C9F00E94732081CECA
:10186000CC3DFCE5DF0731F4F801C281CC2371F0F7
:1018700080E009C0CD3DDC4509F0A0CFF801C28170
:10188000CC2321F082E00E94152D6BCE8C2FDF91AE
:10189000CF911F910F91089580E090E008950895F1
:1018A00094E1799FF00111249CE8899FE00DF11DDE
:1018B0001124E60FF11DEE0FFF1FEC5DFE4F859129
:1018C00094910895880F991FFC01E958FC4F859168
:1018D00094910895CF93DF930E94500C0E945B0E69
:1018E000EC01811521E5920708F042C0811560E501
:1018F000960708F02FC1883E910500F5803E9105BE
:1019000008F0D5C1883A910570F4853A910508F040
:10191000A4C08130910509F4CAC108F47BC10497C1
:1019200008F0C5C177C18F3B910508F4A1C0803C88
:10193000910508F46FC1805C9109FBC0C11580E37B
:10194000D80780F4C11590E2D90708F0F0C0C03F75
:10195000D10508F45FC1CF3FD10511F008F0A7C150
:10196000D065A5C1C11520E4D20708F0F0C0E5C0DC
:10197000811569E5960760F5C11588E5D80708F077
:1019800035C1C11594E5D90778F4C11523E5D2070F
:1019900008F011C1C11562E5D60708F0F6C0DC2FCA
:1019A000CC27C16FD06A83C1C11585E5D80708F47B
:1019B00018C1C11596E5D90708F02CC18C2F0E94DB
:1019C000EF0E8F71C82FD0E0DC2FCC27D0626FC113
:1019D0008D3B2CE5920709F414C1E0F4CB3B8CE578
:1019E000D80709F408C108F009C1C1152AE5D207D2
:1019F00008F010C18C2F8F700E94EF0E94E0D695E6
:101A0000C7959A95E1F7CF70D0E0DC2FCC27D0694D
:101A1000C82B4DC1803C9C4509F4F9C0C13C8CE504
:101A2000D80760F4CE3B9CE5D90709F4EDC0CF3B65
:101A3000DC4509F0EFC0C0E0D2ED39C1CE019056CF
:101A40008115904208F0E6C08D2F8F710E94EF0E35
:101A5000DD27D0628F71D82B2AC1853A910509F410
:101A6000DCC0863A910509F0DBC0C2E8D0E41FC1B2
:101A7000883A910509F4D7C0893A910509F4D6C08E
:101A80008A3A910509F4D5C08B3A910509F4D4C07E
:101A90008C3A910509F4D3C08B3B910509F4D2C06F
:101AA0008C3B910509F4D1C08D3A910509F4D0C061
:101AB000803B910509F4CFC08E3A910509F4CEC060
:101AC0008F3A910509F4CDC0813B910509F4CCC052
:101AD000823B910509F4CBC0833B910509F4CAC050
:101AE000843B910509F4C9C0853B910509F4C8C040
:101AF000863B910509F4C7C0873B910509F4C6C030
:101B0000883B910509F4C5C0893B910509F4C4C01F
:101B10008D3B910509F4C3C08E3B910509F4C2C009
:101B20008A3B910509F4C1C0C0E0D4E4C0C0CE0135
:101B30009F700E94620CEC01BAC0CE019927D3FFBE
:101B400003C0EC01D86CB3C0EC01D06CB0C0DF7046
:101B5000D06AADC0837021E030E002C0220F331F95
:101B60008A95E2F73C68CE0174E0969587957A9560
:101B7000E1F78370382BCF70C695C69580E2C89F79
:101B8000E0011124C22BD32B92C04C2F46954695D1
:101B900090E2499FA0011124C370DD2721E030E0CD
:101BA000C90102C0880F991FCA95E2F7EC01C42B46
:101BB000D52BDC687CC04C2F4695469580E2489F2B
:101BC000A0011124C370DD2721E030E0C90102C06B
:101BD000880F991FCA95E2F7EC01C42BD52BDA6860
:101BE00066C0DC2FCC27C46FD06A61C0DC2FCC2745
:101BF000C06FD06A5CC0C0E0D4ED59C0C0E0D5ED84
:101C000056C0C0E0D1ED53C0C0E0D0ED50C0C0E040
:101C1000D3ED4DC0C0E0D0E04AC0C1E8D0E447C039
:101C2000C3E8D0E444C0C2EED4E441C0C9EED4E479
:101C30003EC0CAEED4E43BC0C5EBD4E438C0C6EB2A
:101C4000D4E435C0C3EBD4E432C0C4EBD4E42FC039
:101C5000C7EBD4E42CC0CCECD4E429C0CDECD4E464
:101C600026C0C3E8D5E423C0CAE8D5E420C0C2E951
:101C7000D5E41DC0C4E9D5E41AC0C1E2D6E417C05A
:101C8000C3E2D6E414C0C4E2D6E411C0C5E2D6E48F
:101C90000EC0C6E2D6E40BC0C7E2D6E408C0CFE669
:101CA000D4E405C0C0E7D4E402C0CAE2D6E4CE0161
:101CB000DF91CF9108958238910569F1B0F48133B5
:101CC000910509F46DC048F48932910509F463C0A7
:101CD0008A32910509F469C008958533910509F4A4
:101CE00055C089339105B9F00895833E910569F196
:101CF00038F4803E9105B1F0823E910509F10895D6
:101D0000863E9105A9F1873E9105B9F1843E910582
:101D100009F064C023C020915D0220FD4FC021FD69
:101D20004DC0089580915D0280FD44C080915E02A7
:101D300080FF44C080915D0284FD42C083EE4DC0AF
:101D400080915D0282FF38C0F5CF80915D0282FDF7
:101D500033C080915E0280FD31C0ECCF80915E0285
:101D600081FF32C080915D0284FD2AC087EE35C0BC
:101D700080915D0283FF26C0F5CF80915D0283FDD7
:101D800021C080915E0281FD1FC0ECCF80915D0279
:101D900085FD1CC01DC080915D0285FD19C016C067
:101DA00080915D0286FD16C017C080915D0286FDA0
:101DB00013C010C089E311C082EE0FC080EE0DC0C9
:101DC00080E00BC086EE09C084EE07C089E205C042
:101DD00085E303C08AE201C081E390E00895909119
:101DE0005D0292FF0DC0282F2871283019F4877FDB
:101DF000846006C0282F2471243011F48B7F886002
:101E000093FF0DC0282F2871283119F4877E846133
:101E100006C0282F2471243111F48B7E8861209113
:101E20005E0220FF0DC0382F3871383019F4877FDB
:101E3000816006C0382F3171313011F48E7F886097
:101E400021FF0DC0282F2871283119F4877E816168
:101E500006C0282F2171213111F48E7E886194FDF6
:101E6000877E08950E94CA1F811102C00E947320BC
:101E70000E94FB1F80935602282F269526952695B3
:101E800030E02430310524F0877088618093560259
:101E90008091560280FF04C086958695869501C084
:101EA00080E00C941D1120915602822F8695869514
:101EB0008695482F50E04330510554F48F5F982F9A
:101EC000990F990F990F822F8770892B8093560253
:101ED000809156028160809356020E94FF1F80917C
:101EE0003A0280FF11C080915602869586958695AC
:101EF0001F928F9387E394E09F938F930E94A8088B
:101F00000F900F900F900F908091560286958695B6
:101F100086950C941D1180915602982F9695969552
:101F20009695A1F0915E990F990F990F8770892B63
:101F300080935602887F91E009F490E080915602E8
:101F400090FB80F9809356020E94FF1F80913A0215
:101F500080FF11C0809156028695869586951F92C6
:101F60008F938FE194E09F938F930E94A8080F9026
:101F70000F900F900F9080915602869586958695CA
:101F80000C941D118091560280FD1FC081608093CA
:101F90005602813019F489E08093560280915602EE
:101FA0000E94FF1F80913A0280FF08C087EF93E0F4
:101FB0009F938F930E94A8080F900F9080915602D4
:101FC0008695869586950C941D11089580915602EC
:101FD00080FF14C08E7F809356020E94FF1F809165
:101FE0003A0280FF08C084EE93E09F938F930E9493
:101FF000A8080F900F9080E00C941D110895CF93C6
:10200000C0915602C17080913A0280FF0CC01F92AD
:10201000CF9389E094E09F938F930E94A8080F903C
:102020000F900F900F90CC2319F0CF910C94E60FE6
:10203000CF910C94C20F90915602892F8695869568
:1020400086958F5F8F719770843038F4880F880F72
:10205000880F892B8093560202C09093560280917C
:102060005602887F91E009F490E08091560290FB3F
:1020700080F9809356020E94FF1F80913A0280FFF0
:1020800011C0809156028695869586951F928F93F2
:1020900080ED93E09F938F930E94A8080F900F907C
:1020A0000F900F90809156028695869586950C9498
:1020B0001D11843008F083E0880F880F880F9091FD
:1020C00056029770892B80935602887F91E009F41D
:1020D00090E08091560290FB80F9809356020E9416
:1020E000FF1F809156028695869586950C941D114A
:1020F0008091560286958695869508958091560220
:1021000081FD13C08260809356020E94FF1F809160
:102110003A0280FF08C084E993E09F938F930E9466
:10212000A8080F900F900C944011089580915602CA
:1021300081FF13C08D7F809356020E94FF1F809104
:102140003A0280FF08C087E793E09F938F930E9435
:10215000A8080F900F900C944C110895CF93C09144
:102160005602C695C17080913A0280FF0CC01F9242
:10217000CF9380EB93E09F938F930E94A8080F90DA
:102180000F900F900F90CC2319F0CF910C949610D4
:10219000CF910C947E10809156028695817008959F
:1021A000CF92DF92EF92FF928C3724E1920728F4CE
:1021B00069E070E00E94F93129C0A0E0B0E08A50E7
:1021C000974DAF4FBF4F6627782F892F9A2F25EF56
:1021D00038E241E050E00E94213269017A01CA01EF
:1021E000B9010E94DD319B01AC01C701B6010E941B
:1021F000DD31BB27A92F982F872F009721E0A20759
:10220000B10511F0BC0102C06FEF7FEFCB01FF9071
:10221000EF90DF90CF900895E82FE295EF70F0E017
:1022200032A1282F2F7081E090E001C0880F2A95FD
:10223000EAF78095832382A30895843030F48111D6
:1022400005C0909180009F7D04C083E09091800044
:10225000906290938000282F30E0AFEFBFEF0E9494
:10226000493223E030E040E050E00E942132C901D1
:102270000E94D01090938B0080938A000895089557
:1022800010926A011092690110926B01EFE6F0E082
:102290008081816080830895EFE6F0E080818E7F09
:1022A00080830E9478100C941D111F920F920FB61C
:1022B0000F9211242F933F934F935F936F937F93CC
:1022C0008F939F93AF93BF93CF93EF93FF932091FF
:1022D00001018091690190916A01019644EF249F68
:1022E00090011124B9010E94F93190936A01809301
:1022F0006901B901660F672F661F770B71950E9400
:10230000F9316F7780916B01823019F4603451F4A8
:1023100004C0813039F46F3729F480916F008E7FCB
:1023200080936F00E62FF0E0E15BFB4FC4910E94C9
:102330007810282F41E051E0C49FC001C59F900D47
:10234000112463E070E00E94F931269FC001279FAD
:10235000900D11240E94D01090938B0080938A00DE
:10236000FF91EF91CF91BF91AF919F918F917F910D
:102370006F915F914F913F912F910F900FBE0F90F2
:102380001F901895269A86E30E940C1182E2809392
:10239000800089E1809381008FEF9FEF9093870009
:1023A000809386000E94320F0E94CB1081110C9402
:1023B000401108950F931F93CF93DF93C62FD42F0F
:1023C000022FFC0182818823C9F060936E010E9474
:1023D000452190936D0180936C0180E28C0F8830D1
:1023E00008F050C0C77081E001C0880FCA95EAF7B5
:1023F000DF91CF911F910F910C942F1610916E01C8
:10240000161330C080916C0190916D010E945D2186
:10241000883C910538F5C0E2CD0F1D17B9F080E278
:10242000810F883040F4177081E001C0880F1A9541
:10243000EAF70E943616C83048F481E09D2F977065
:1024400001C0880F9A95EAF70E942F16802F0E94EC
:102450001C16C830B8F4D77081E001C0880FDA9537
:10246000EAF70AC080E28C0F883060F4C77081E020
:1024700001C0880FCA95EAF7DF91CF911F910F91A4
:102480000C943616DF91CF911F910F9108959C0106
:10249000CB01233F4CE53407F9F078F4283DFCE507
:1024A0003F07B9F0293D4CE5340711F1273D3C4584
:1024B00031F526E241EE61EE1EC0253FFCE53F0707
:1024C00099F070F0263F3C45D1F427E245EE66EEE8
:1024D00012C027E245EE0EC026E241EE60EE0BC0D0
:1024E00027E245EE64EE07C026E241EE62EE03C04D
:1024F00028E241E065EE0E94DA1180E00895FC01D7
:102500008281882319F010926E01089581E0089568
:1025100090937401809373010895E0917301F09199
:102520007401309721F00190F081E02D099480E052
:102530000895EF92FF920F931F93CF93DF93E09153
:102540007301F09174013097B1F18C010280F38135
:10255000E02D099580913A0282FF2DC080FF04C0D2
:1025600087ED94E00E940F08E80118E081EDE82E65
:1025700084E0F82E80913A0280FF0BC088811F9280
:102580008F93FF92EF920E94A8080F900F900F90E8
:102590000F90115021961111EDCF80913A0280FFDA
:1025A0000AC08FEC94E0DF91CF911F910F91FF90C3
:1025B000EF900C940F08DF91CF911F910F91FF9036
:1025C000EF900895E0917301F0917401309739F024
:1025D00022E0DC012C930480F581E02D099408951C
:1025E00020917101309172018217930771F09093DD
:1025F000720180937101E0917301F0917401309741
:1026000021F00680F781E02D0994089520916F0153
:10261000309170018217930771F09093700180934D
:102620006F01E0917301F0917401309721F0008403
:10263000F185E02D0994089585B7806885BF85B739
:10264000806885BF0895089508950C942413089513
:102650000C9427130E941C130E9423130C9425131F
:1026600081E008950E943C210E94B8080E94D12177
:102670000E94320F0C942813CF93C82F80913A02F6
:1026800082FF1EC080FF04C080EF94E00E940F080C
:1026900080913A0280FF0CC01F92CF938BEE94E0A2
:1026A0009F938F930E94A8080F900F900F900F9008
:1026B00080913A0280FF04C089EE94E00E940F08E6
:1026C0008C2FCF910C94720A4F925F926F927F92EF
:1026D0009F92AF92BF92CF92DF92EF92FF920F93B1
:1026E0001F93CF93DF93CDB7DEB72E970FB6F89435
:1026F000DEBF0FBECDBF0E94D8080E9430138111EB
:1027000011C08FEF89838A831B820E9445218160DB
:10271000782F9D838C8349815A816B818D810E94A2
:1027200047147CC046E7A42E41E0B42E00E010E040
:10273000902E802F0E94B309F501C190D190E190B5
:10274000F1905F01C626D726E826F926C114D104E8
:10275000E104F10431F40F5F1F4F0730110541F719
:10276000D0CF20913A0221FF0AC06B877C878D87EA
:102770009E870E94BF099E858D857C856B8540E084
:1027800050E026013701042E04C0769467945794D4
:1027900047940A94D2F740FE3AC04E839F82C12CE0
:1027A000D12C7601C39404C0CC0CDD1CEE1CFF1CA4
:1027B0004A95D2F72601370146225722682279220C
:1027C00081E045284628472809F480E088870E9450
:1027D00045218160782F9A8789874E815F8168853E
:1027E0008A850E944714000F111F000F111FF80166
:1027F000EA58FE4F80819181A281B381C826D926F3
:10280000EA26FB26C082D182E282F38207C04F5FB4
:102810005F4F4431510509F0B4CF9DCF0E94E523AD
:10282000109175010E948D121817D9F00E948D1217
:10283000809375012E960FB6F894DEBF0FBECDBF04
:10284000DF91CF911F910F91FF90EF90DF90CF908C
:10285000BF90AF909F907F906F905F904F900C943F
:102860003C132E960FB6F894DEBF0FBECDBFDF919E
:10287000CF911F910F91FF90EF90DF90CF90BF907D
:10288000AF909F907F906F905F904F900895CF93FF
:10289000DF93CDB7DEB72B970FB6F894DEBF0FBE30
:1028A000CDBF4F83588769877A878B87DE01119662
:1028B00086E0FD0111928A95E9F785E0FE013796E1
:1028C00001900D928A95E1F749815A816B817C8153
:1028D0008D819E810E94AF1B2B960FB6F894DEBFB0
:1028E0000FBECDBFDF91CF910895FC018081918112
:1028F0000E947B1E0895CF93DF931F92CDB7DEB762
:10290000882309F42DC1682F8238C1F40E948D12EA
:1029100081FD26C169E380910201909103010E942B
:10292000AC200E94061F2FEF81EE94E021508040E2
:102930009040E1F700C0000069E319C0833811F549
:102940000E948D1280FD0CC163E58091020190917F
:1029500003010E94AC200E94061F2FEF81EE94E03D
:10296000215080409040E1F700C0000063E5809175
:102970000201909103010E94AE200F90DF91CF9150
:102980000C94061F8438C1F40E948D1282FDE8C0A9
:1029900067E480910201909103010E94AC200E94A3
:1029A000061F2FEF81EE94E0215080409040E1F728
:1029B00000C0000067E4DBCF8CEF860F813A70F433
:1029C000862F69830E94B82869818111C9C08091CE
:1029D0000201909103010E94AC20CFCF80E2860FCC
:1029E000883048F4677081E001C0880F6A95EAF783
:1029F0000E94BD1EC2CF8BE5860F833088F4653AF6
:102A000029F0663A31F083E890E005C081E890E073
:102A100002C082E890E00F90DF91CF910C94F01209
:102A200088E5860F873108F091C0683A09F445C0FF
:102A3000693A09F445C06A3A09F445C06B3A09F4A9
:102A400045C06C3A09F445C06B3B09F445C06C3B8A
:102A500009F445C06D3A09F445C0603B09F445C02E
:102A60006E3A09F445C06F3A09F445C0613B09F478
:102A700045C0623B09F445C0633B09F445C0643B73
:102A800009F445C0653B09F445C0663B09F445C0FF
:102A9000673B09F445C0683B09F445C0693B09F44C
:102AA00045C06D3B09F445C06E3B09F445C06A3B27
:102AB00009F445C080E090E044C082EE90E041C05F
:102AC00089EE90E03EC08AEE90E03BC085EB90E05E
:102AD00038C086EB90E035C083EB90E032C084EBE9
:102AE00090E02FC087EB90E02CC08CEC90E029C0E8
:102AF0008DEC90E026C083E891E023C08AE891E065
:102B000020C082E991E01DC084E991E01AC081E211
:102B100092E017C083E292E014C084E292E011C018
:102B200085E292E00EC086E292E00BC087E292E07E
:102B300008C08FE690E005C080E790E002C08AE21E
:102B400092E00F90DF91CF910C940613603F40F01C
:102B5000862F0E946B220F90DF91CF910C94582307
:102B60000F90DF91CF910895882309F464C08238D3
:102B700079F40E948D1281FF5EC069E380910201A9
:102B8000909103010E94AC200E94061F69E310C0CF
:102B90008338B1F40E948D1280FF4DC063E58091AF
:102BA0000201909103010E94AC200E94061F63E580
:102BB00080910201909103010E94AE200C94061FA7
:102BC000843879F40E948D1282FF35C067E48091C9
:102BD0000201909103010E94AC200E94061F67E44D
:102BE000E7CF9CEF980F913A10F4682FE1CF90E275
:102BF000980F983050F4877091E001C0990F8A9532
:102C0000EAF7892F0E94C31ED9CF9BE5980F933016
:102C100020F480E090E00C94F01298E5980F973142
:102C200020F480E090E00C940613803F20F00E9496
:102C3000D3220C9458230895CF93C82F0E947B145D
:102C4000C93349F42FEF87EE93E021508040904044
:102C5000E1F700C000008C2FCF910C94B4158823AD
:102C600021F00E94BD1E0C94061F0895882321F0B8
:102C70000E94C31E0C94061F0895BF92CF92DF924C
:102C8000EF92FF920F931F93CF93DF937C01062F58
:102C9000C72FFC01158112951F70D281D1110E949E
:102CA000DA1E0E94B31E882379F0DD2369F080E2EA
:102CB000800F883048F082E00E94511F0E94B31EAE
:102CC00091E0B82EB92601C0B12CCC2EC2948FE071
:102CD000C822D12CF601EA5AFF4F0C9443328C2FB4
:102CE000807FCF70882311F0C295C07FDD2399F0DB
:102CF000CC2309F4CFC180E2800F883010F001119D
:102D000004C08C2F0E94BD1E03C08C2F0E94CD1EBC
:102D10000E94061FBFC1802F0E94B415CC2309F466
:102D200002C280E2800F883010F0011104C08C2FA5
:102D30000E94C31E03C08C2F0E94D31E0E94061F38
:102D4000F2C18C2F807FCF70803211F0C295C07F8E
:102D5000002319F00130C9F022C0DD2371F01123E6
:102D600041F0113031F40E94ED1E8C2B0E94F31EB5
:102D7000DAC10E94ED1E8C2B1DC0112319F01130F9
:102D800009F4D1C10E94FC1E25C0DD2321F01630BC
:102D900008F0C9C10EC0153008F0C5C11BC0DD2345
:102DA00061F0112331F0F701858180FF73C18F70CD
:102DB00085838C2F0E942F16B6C1112359F0093339
:102DC00009F079C1FFEF27EE83E0F1502040804009
:102DD000E1F76FC18C2F0E943616A5C18C2F869506
:102DE0008695837090E0009719F0019761F09BC180
:102DF000DD2321F0802F9C2F937002C080E090E0B3
:102E00000E94F0129BC1DD2321F0802F9C2F937034
:102E100002C080E090E00E94061390C1DD23F9F02B
:102E2000053F51F0063F71F0043FA9F4809157022D
:102E30009091580281600BC0809157029091580286
:102E4000826005C0809157029091580284609093EF
:102E5000580280935702802F0E946B221EC0053FAC
:102E600051F0063F71F0043FA9F480915702909110
:102E700058028E7F0BC080915702909158028D7F2F
:102E800005C080915702909158028B7F9093580211
:102E900080935702802F0E94D3220E9458234EC154
:102EA0008C2F837009F049C0D11144C1402F429545
:102EB00046954770440F440F602F6F70862F90E047
:102EC000A0E0B0E0042E04C0880F991FAA1FBB1F0A
:102ED0000A94D2F704FF10C00FE010E020E030E0C9
:102EE00004C0000F111F221F331F4A95D2F700950F
:102EF00010952095309503C000E010E09801C6952C
:102F0000C695C370D0E0BC01CD01602B712B822B24
:102F1000932BC230D10559F0C330D10559F0219718
:102F200019F00E94F41C06C10E94E21C03C10E9419
:102F3000061D00C10E94E01CFDC0DD2319F08C2F8E
:102F4000817001C08695882309F4F4C0402F429512
:102F500046954770440F440F602F6F70862F90E0A6
:102F6000A0E0B0E0042E04C0880F991FAA1FBB1F69
:102F70000A94D2F704FF10C00FE010E020E030E028
:102F800004C0000F111F221F331F4A95D2F700956E
:102F900010952095309503C000E010E09801C6958B
:102FA000C695C370D0E0BC01CD01602B712B822B84
:102FB000932BC230D10559F0C330D10559F0219778
:102FC00019F00E94BA1DB6C00E94A81DB3C00E948D
:102FD000CC1DB0C00E941B1DADC0CF70DD2339F0E9
:102FE0008C2F0E94411D802F0E942F16A3C0802F7E
:102FF0000E9436168C2F0E94621D9CC0023F01F178
:1030000028F4003F41F0013FA1F040C0033FF9F038
:10301000043F39F13BC0DD2341F0153008F083C097
:103020008C2F8F710E94871D7EC0163008F07BC0E8
:10303000F7CFDD2339F08C2F8F710E94411D73C0B3
:10304000DD23C9F38C2F8F710E94621D6CC0DD23BC
:1030500029F08C2F8F710E942C1D65C00E94271DA6
:1030600062C0DD2349F0CF718C2F0E94411D63E0C7
:103070008C2F0E943C1F57C081E00E94511F1230CC
:1030800008F451C082E00E94511F4DC0DD2331F091
:10309000112389F2802F0E947B1445C0112391F2E5
:1030A000093349F49FEFE7EEF3E09150E040F04040
:1030B000E1F700C00000802F0E94B41534C04C2FEF
:1030C0004F70602FC7010E944C0C0E94531C36C0E9
:1030D000D11134C0CF70D0E0C230D10599F03CF4AA
:1030E000209769F02197F9F40E948B0F27C0C43014
:1030F000D10571F054F02597B1F480E00AC00E9428
:10310000530F1CC00E94FF0F19C00E941B1016C055
:1031100083E00E94591012C04C2F4F70602FC701DE
:103120000E944F0C0BC028E0C21AD10884E0C816D8
:10313000D10420F40E948D120E94720ABB20D1F0AB
:103140000E94AF1E80FD16C0F70112820E94A91EC8
:103150000E94411DC7010E94C4180E94A91EDF9150
:10316000CF911F910F91FF90EF90DF90CF90BF9084
:103170000C94621DDF91CF911F910F91FF90EF9002
:10318000DF90CF90BF9008950F931F93CF93DF935D
:10319000EC01888199812B813C81232BB9F09F3FE1
:1031A00011F48F3F99F0CE010E94840A882371F0B8
:1031B000688179818A810E94861E8C010E94DE1DB1
:1031C0000E94DF1CB801CE010E943D16DF91CF9115
:1031D0001F910F9108950E94DA1E0E94EA1E0E941C
:1031E000061F0E9480240E94582380E090E00E94E5
:1031F000F01280E090E00C9406138091020190910F
:1032000003010E94B0200C94EB180E94CA1E0C947B
:10321000FD18E92FE295EF70F0E03297EE30F105FE
:10322000B0F4EA59FF4F0C944332803F91F018F408
:10323000883E68F40EC0843F51F40BC0883E48F0CD
:10324000813F29F406C093FB882780F9089580E028
:10325000089581E008950E947B1E0E940919089537
:10326000CF93DF9300D000D01F92CDB7DEB70F9081
:103270000F900F900F900F90DF91CF910895CF9303
:10328000DF9300D000D000D0CDB7DEB726960FB6C2
:10329000F894DEBF0FBECDBFDF91CF9108951F938D
:1032A000CF93DF93C091930116E080919401C817EA
:1032B00099F0D0E01C9FF0011D9FF00D1124EB56FA
:1032C000FE4F4081518162817381848195810E948A
:1032D0003F192196C770E9CFDF91CF911F910895D3
:1032E0004091C5015091C6016091C7017091C8011C
:1032F0008091C9019091CA010C943F198091CA0133
:1033000082958F7009F054C08091C701882309F419
:103310004FC080919301A09194016091C50170917B
:10332000C6014091C8015091C901B6E08A1709F45D
:103330003FC090E041155105C1F17F3F11F46F3F4F
:10334000A1F1B89FF001B99FF00D1124EB56FE4F8B
:10335000218172132AC02081621327C0228121118A
:1033600024C0238134812417350710F421503109FA
:10337000241B350B283C3105C0F42091CA012F7065
:1033800020612093CA0126E0289FF001299FF00DBB
:103390001124E656FE4F80818F708061808385EC1A
:1033A00091E00E94C4180C944F1901968770BECF0B
:1033B0000895CF92DF92EF92FF920F931F93CF93D6
:1033C000DF93CDB7DEB762970FB6F894DEBF0FBEBE
:1033D000CDBF8C0185E0F801DE011D9601900D92B4
:1033E0008A95E1F7D8014C9111965C91119712964C
:1033F0006C9112971396CD90DC9014973091C50183
:103400007091C6018091C8019091C901009709F49B
:103410006BC17F3F19F43F3F09F466C1E090C701DB
:10342000EE2009F4C0C02091CA01C816D90628F0C0
:10343000F601E81BF90BCF0104C0809590958C0D27
:103440009D1DFF24F394883C910578F0F12C207F9A
:1034500009F0C6C07C2DD98AC88A89890E94301992
:1034600085EC91E00E94C418B1C0822F807F09F0E2
:1034700046C0751314C0341312C0611110C02F70F0
:1034800020612093CA010E94701985EC91E00E948E
:10349000C4188091CA01D80115968C932EC0CD28EE
:1034A00019F15F3F11F44F3FF9F0F62E61111CC086
:1034B000809193012091940136E0821709F45AC05B
:1034C00090E0389FF001399FF00D1124EB56FE4F2C
:1034D0007181571306C07081471303C07281711147
:1034E00003C001968770E9CFF62E662309F427C141
:1034F0008091CA0181608093CA01F12C20C17513AB
:1035000008C0341306C0611104C08091CA01D801FB
:10351000C3C04D875E878D859E856A8B0E942B195F
:103520006A898823E1F16623D1F12091CA01822FB3
:1035300082958F7090E0029774F08091C501909110
:10354000C60198878F831986DB86CA862C87CE01B1
:1035500007960E94C41886E0F801A5ECB1E001903E
:103560000D928A95E1F70E947E190E947019FF243E
:10357000F394E5C04D875E878D859E850E947B1EF6
:10358000292F22952F7030E0223031050CF0CBC06E
:103590009F7009F0C5C0805E883008F4D0C0C801B3
:1035A0000E94C418E4CFC816D90608F453C0F60127
:1035B000E81BF90BCF01883C910508F450C0F12CB1
:1035C0007C2DD98AC88A89890E943019E5ECF1E0FE
:1035D00086E0DF011D928A95E9F70E947019AFC05D
:1035E000751314C0341312C0611110C08091CA0148
:1035F000F8018583C8010E94C41886E0E5ECF1E07B
:10360000DF011D928A95E9F7FE2C99C04D875E87F0
:103610008D859E856A8B0E942B196A89882309F4FF
:10362000BECF662309F4BBCF2091CA01822F8295B9
:103630008F7090E002970CF48ECF8091C50190912D
:10364000C6019A8389831B82DD82CC822E83CE01C0
:1036500001967FCF809590958C0D9D1DACCFF62E59
:10366000662309F49CCF75132EC034132CC020910F
:10367000CA0120FD1FC0822F82958F70D9F0D8011A
:1036800015962C9315978F3049F08F5F982F929550
:10369000907F822F8F70892B15968C93C8010E9482
:1036A000C41886E0F801A5ECB1E001900D928A956E
:1036B000E1F793CF86E0F801A5ECB1E001900D921F
:1036C0008A95E1F73CC04D875E878D859E850E9477
:1036D0002B19811140CF8091CA0181608093CA016A
:1036E000C8010E94C4182BC0662309F458CF4D8727
:1036F0005E878D859E850E942B19F82E882309F4FC
:103700004ECF86E0F801A5ECB1E001900D928A95CC
:10371000E1F785EC91E00E9475140E947E195DCF5F
:10372000811139CF0CC0243031050CF038CF9F7097
:1037300009F431CFF8019581907F09F02CCF8F2DBE
:1037400062960FB6F894DEBF0FBECDBFDF91CF916A
:103750001F910F91FF90EF90DF90CF9008951F93EE
:10376000CF93DF93CDB7DEB72C970FB6F894DEBFBB
:103770000FBECDBF4F83588769877A878B879C8719
:10378000CE0107960E94D919882369F08F81988508
:103790002A853B85232BF1F19F3F09F063C08F3FC2
:1037A00009F060C037C086E0FE013796DE01119651
:1037B00001900D928A95E1F76F817885EA85FB8506
:1037C000309741F17F3F11F46F3F21F12091940137
:1037D00030E0C9010196877099274091930150E02C
:1037E0008417950709F447C069837A83FD83EC83C6
:1037F00096E0929FD001939FB00D1124AB56BE4F1F
:10380000FE01319601900D929A95E1F78093940113
:103810000E944F1916E080919301909194018917AD
:10382000C1F1189FC00111248B569E4F0E94D919D7
:10383000882379F1E09193011E9FF0011124EB564A
:10384000FE4F4081518162817381848195810E9404
:103850003F198091930190E001968770992780939A
:103860009301D9CF4F81588569857A858B859C8551
:103870000E943F19CFCF0E94051910929401109217
:103880009301E5ECF1E086E0DF011D928A95E9F70E
:10389000C1CF2C960FB6F894DEBF0FBECDBFDF911F
:1038A000CF911F910895EF92FF920F931F93CF93A3
:1038B000DF938C01892B09F46CC0F12CEE24E39486
:1038C000E8012196F8018491843740F4843008F0AF
:1038D00051C0813081F0823019F15BC0853709F425
:1038E00044C0A8F19CE7980F903708F052C08F773A
:1038F0000E94B41541C00E5F1F4FFE01C49180E2CB
:103900008C0F883048F4C7708E2D01C0880FCA957F
:10391000EAF70E94DD1E14C08C2F0E947B142DC07C
:103920000E5F1F4FFE01C49180E28C0F883058F467
:10393000C7708E2D01C0880FCA95EAF70E94E31E5A
:103940000E94061F1AC08C2F0E94B41516C00E5F6D
:103950001F4FFE01C491CC2381F08FE99FE00197B6
:10396000F1F700C00000C150F6CF0E5F1F4FFE01FF
:10397000F49003C00E947B148E018F2D882309F4DC
:103980009FCFEFE9FFE03197F1F700C000008150D1
:10399000F5CFDF91CF911F910F91FF90EF90089598
:1039A00008950C94D01C0E94D11C6093290270933E
:1039B0002A0280932B0290932C020C94EB1808950A
:1039C0000C94D31C0F931F930091290210912A028B
:1039D00020912B0230912C02602B712B822B932B88
:1039E0001F910F910C94D31C0F931F9300912902E8
:1039F00010912A0220912B0230912C026023712316
:103A0000822393231F910F910C94D31C0F931F9328
:103A10000091290210912A0220912B0230912C0250
:103A200060277127822793271F910F910C94D31C35
:103A300008950C94181D0E94191D6093250270931F
:103A4000260280932702909328020C94EB1860E0E2
:103A500070E0CB010C941B1D0F931F9341E050E0CD
:103A600060E070E08A019B0104C0000F111F221F5B
:103A7000331F8A95D2F7C901B8011F910F910C9499
:103A80001B1D0F931F9341E050E060E070E004C005
:103A9000440F551F661F771F8A95D2F78091250224
:103AA00090912602A0912702B09128028A019B01E1
:103AB000082B192B2A2B3B2BC901B8011F910F9101
:103AC0000C941B1D0F931F9341E050E060E070E0E9
:103AD00004C0440F551F661F771F8A95D2F7409583
:103AE0005095609570958091250290912602A09145
:103AF0002702B09128028A019B01082319232A2357
:103B00003B23C901B8011F910F910C941B1D0F930A
:103B10001F9341E050E060E070E004C0440F551F87
:103B2000661F771F8A95D2F7809125029091260211
:103B3000A0912702B09128028A019B01082719272A
:103B40002A273B27C901B8011F910F910C941B1D17
:103B50000F931F93009125021091260220912702B6
:103B600030912802602B712B822B932B1F910F9188
:103B70000C941B1D0F931F93009125021091260298
:103B800020912702309128026023712382239323FE
:103B90001F910F910C941B1D0F931F9300912502F1
:103BA0001091260220912702309128026027712768
:103BB000822793271F910F910C941B1D089524E1D8
:103BC000929F800D1124A82FA695A695A695877083
:103BD00051E001C0550F8A95EAF785E0A89FD00112
:103BE000112420E030E070E0F901EA0FFB1FE553FB
:103BF000FE4F4081CB01022E02C0969587950A9414
:103C0000E2F7817099278195842785238427808313
:103C10002F5F3F4F2530310539F7089524E1929FFA
:103C2000800D1124682F669566956695982F97707C
:103C300085E0689FB001112440E050E080E0FA0187
:103C4000E60FF71FE553FE4F208130E0092E02C03A
:103C5000369527950A94E2F721703327042E01C088
:103C6000220F0A94EAF7822B4F5F5F4F45305105D0
:103C700031F70895BF92CF92DF92EF92FF920F93A8
:103C80001F93CF93DF938C01C0902902D0902A021A
:103C9000E0902B02F0902C02809125029091260258
:103CA000A0912702B0912802C82AD92AEA2AFB2A21
:103CB000CFE1D0E0D701C6010C2E04C0B695A79580
:103CC000979587950A94D2F780FF07C0BC2EB8015C
:103CD0008C2F0E946A0C019719F4219758F7B12C88
:103CE0008B2DDF91CF911F910F91FF90EF90DF907F
:103CF000CF90BF900895CF93DF93EC010E943A1EBE
:103D0000BE010E946A0CDF91CF9108951F93CF935B
:103D1000DF93EB0190919201992321F0CB010E9456
:103D20007B1E13C0882349F0CB010E943A1E182F36
:103D3000682FCE010E94DF1D04C0CB010E940E1E21
:103D4000182FBE01812F0E946A0CDF91CF911F9125
:103D5000089580912D02859585958595089580918A
:103D60002D028770089590912D02977081E009F4DB
:103D700080E0089580913902089590913902892B4D
:103D80008093390208958095909139028923809318
:103D90003902089510923902089590913802892BC2
:103DA00080933802089580959091380289238093FA
:103DB0003802089510923802089590913702892BA5
:103DC00080933702089580959091370289238093DC
:103DD0003702089510923702089580912E020895B7
:103DE00008950C94F01E90912E02981721F0809364
:103DF0002E020C94F11E089580912E02882329F042
:103E000010922E0280E00C94F11E0895E0910201C0
:103E1000F0910301809139028083E0910201F091D9
:103E20000301908180913802892B8083E091020107
:103E3000F0910301908180913702892B80838091DA
:103E40002E02882381F0E0910201F091030190811C
:103E5000892B808380910201909103010E947A2036
:103E600081110E94FC1E80910201909103010C942B
:103E7000991208950C94391F98E0899F900111249C
:103E8000262B20932D020E94411D80912D028595A5
:103E9000859585950C943A1F10922D0280E00C9424
:103EA0003A1F20912D028095822380932D02982F16
:103EB000977079F430E0482F082E000C550B24172A
:103EC000350739F08595859585950E94621D0C947E
:103ED0004C1F089590932F0180932E010895829591
:103EE000982F9C7C392F36953695282F237344E0E4
:103EF000249FC0011124932F982B292F2A7A2695CD
:103F0000892F8575880F822B08951F93CF93DF9398
:103F10001F92CDB7DEB799830E946F1F182F99812A
:103F2000892F0E946F1F212F30E0322F2227A901F5
:103F3000482BCA010F90DF91CF911F910895CF9226
:103F4000DF92EF92FF920F931F93CF93DF936B015A
:103F50007C01CB010E94851FEC01C7010E94851FD7
:103F6000AC01CE01A0E0B0E0DC019927882760E039
:103F700070E08C019D01042B152B262B372BC901DA
:103F8000B801DF91CF911F910F91FF90EF90DF90DB
:103F9000CF90089580E090E00E946B3221E08C3E4B
:103FA0009E4F09F020E0822F089582E090E00C946B
:103FB000633283E090E00C946332CF9384E090E02E
:103FC0000E946332C82F81E290E00E9463322C2F5E
:103FD00030E0A901582BCA01CF910895CF93C92F82
:103FE000682F84E090E00E9471326C2F81E290E0B3
:103FF000CF910C94713286E090E00C946332682F7C
:1040000086E090E00C947132AB01BC018FE090E04F
:104010000C948332AB01BC0183E190E00C948332B9
:1040200060E070E0CB010C940A2060E070E0CB010E
:104030000E9404200C9410206CEE7EEF80E090E053
:104040000E948F3260E082E090E00E94713260E076
:1040500083E090E00E9471321092290210922A02AD
:1040600010922B0210922C0260E084E090E00E94FB
:10407000713260E081E290E00E94713260E085E0A0
:1040800090E00E94713260E086E090E00E94713220
:104090006FEF87E090E00E94713240E050E0BA019B
:1040A00088E090E00E94833260E08DE090E00E9422
:1040B000713240E050E0BA0188E190E00E94833222
:1040C00060E087E190E00E94713240E050E0BA0188
:1040D0008CE190E00E94833260E080E290E00E94F8
:1040E00071320C9415200C941C20682F8EE090E007
:1040F0000C947132FC01329697E080E0915029F0E7
:1041000021912223D9F38F5FF9CF08959C01FC01FF
:1041100032969FEF80E04191461789F09F3F19F456
:10412000411101C0982F8F5F8630A9F79F3F39F06A
:10413000F901E90FF11D97FDFA956283089508953D
:10414000FC01329608962081261301C01082319618
:10415000E817F907C1F708950C9486200C94A02065
:10416000029626E0FC0111922A95E9F70895089538
:104170000C94B7200E94B82080916302843061F1D2
:1041800010923B0220E488E190E00FB6F894A895E5
:10419000809360000FBE2093600080E00E941D119C
:1041A00080E00E94720A0E94B82083B7817F8460F9
:1041B00083BF83B7816083BF7894889583B78E7FF0
:1041C00083BF0FB6F894A8958091600088618093B2
:1041D0006000109260000FBE089508950895CF9377
:1041E0000E94ED200E94D8080E94EE20C0E08C2F93
:1041F0000E94B309672B682B692B29F4CF5FC73066
:10420000B1F780E001C081E0CF91089508950C944A
:1042100006210E9405190E94320F0E948D120E94F1
:10422000720A0C9407211F920F920FB60F9211245D
:104230008F939F93AF93BF9380913B02811113C0E3
:104240008091590290915A02A0915B02B0915C0258
:104250004196A11DB11D8093590290935A02A093DB
:104260005B02B0935C02BF91AF919F918F910F90D1
:104270000FBE0F901F90189582E084BD93E095BD0E
:104280009AEF97BD80936E0008952FB7F8948091B0
:10429000590290915A02A0915B02B0915C022FBF2B
:1042A00008952FB7F8946091590270915A02809145
:1042B0005B0290915C022FBF0895CF92DF92EF9244
:1042C000FF920F931F932FB7F8944091590250918A
:1042D0005A0260915B0270915C022FBF6A017B0100
:1042E000EE24FF248C0120E030E0C016D106E20667
:1042F000F30610F4415051099A01281B390BC901EA
:104300001F910F91FF90EF90DF90CF9008957894D8
:104310001F920F920FB60F9211248F939F93AF931A
:10432000BF938091590290915A02A0915B02B09183
:104330005C020196A11DB11D8093590290935A020F
:10434000A0935B02B0935C02BF91AF919F918F915C
:104350000F900FBE0F901F90189581E08093E000A2
:1043600080E28093D8001092C9008FE19EE401970B
:10437000F1F700C0000087E090EBDC0180936C0255
:1043800090936D02A0936E02B0936F029CE088E15F
:104390000FB6F894A895809360000FBE90936000CC
:1043A000FFCF0E94CA1F811102C00E9473200E9489
:1043B000D51F80933A020E94DD1F90935E02809386
:1043C0005D020E94D91F682F70E080E090E00C949D
:1043D000E01C80913F0280FF0BC06091070185E0E7
:1043E000689FB001112475956795759567952BC0E9
:1043F00081FF09C06091070185E0689FB001112429
:104400007595679520C082FF07C06091070185E020
:10441000689FB001112417C090913E029923D1F0FA
:1044200060910601961788F72091070185E0289F83
:1044300090011124929FA001939F500D112470E0D0
:10444000CA010E940D326038710540F46115710592
:1044500039F002C065E070E0862F08958FE7089577
:1044600081E0089580913F0280FF08C060910501BE
:1044700070E0759567957595679521C081FF06C0B9
:104480006091050170E07595679519C082FF04C0C1
:104490006091050170E010C090913E029923C1F037
:1044A000609104019617A0F780910501899FC001D2
:1044B000112470E00E940D326038710528F46115F6
:1044C000710521F0862F08958FE7089581E0089502
:1044D00061E070E0F4CF803F21F40E94E9218195F2
:1044E00004C0813F29F40E94E9218093430208958A
:1044F000823F21F40E94E921819504C0833F29F481
:104500000E94E921809342020895893F19F40E9494
:10451000322205C08A3F31F40E9432228195809375
:10452000440208958B3F21F40E943222819504C0F9
:104530008C3F29F40E943222809345020895843FE3
:1045400021F480914102816017C0853F21F4809160
:104550004102826011C0863F21F480914102846053
:104560000BC0873F21F480914102886005C0883FDD
:1045700031F48091410280618093410208958D3F22
:1045800021F480913F0281600BC08E3F21F4809125
:104590003F02826005C08F3F29F480913F02846012
:1045A00080933F020895803F39F48091430287FF52
:1045B0006CC01092430269C0813F29F4809143028C
:1045C0001816BCF362C090914202823F29F497FF13
:1045D0005CC01092420259C0833F19F41916CCF303
:1045E00054C0893F41F48091440218160CF04DC02C
:1045F000109244024AC08A3F29F48091440287FF06
:1046000044C0F6CF8B3F39F48091450287FF3DC00F
:10461000109245023AC08C3F29F480914502181649
:10462000BCF333C0843F21F4809141028E7F17C0D8
:10463000853F21F4809141028D7F11C0863F21F496
:10464000809141028B7F0BC0873F21F48091410212
:10465000877F05C0883F31F4809141028F7E80932F
:10466000410213C08D3F21F480913F028E7F0BC029
:104670008E3F21F480913F028D7F05C08F3F29F44A
:1046800080913F028B7F80933F0280914202811193
:104690000EC08091430281110AC0809144028111B1
:1046A00006C080914502811102C010923E02089519
:1046B00080913A0283FF7EC08AE295E00E940F0853
:1046C000809141021F928F9385E295E09F938F9393
:1046D0000E94A80883E295E00E940F0880914202A0
:1046E000282F082E000C330B3F938F9380E295E028
:1046F0009F938F930E94A8088EE195E00E940F0877
:1047000080914302282F082E000C330B3F938F9388
:104710008BE195E09F938F930E94A80889E195E033
:104720000E940F0880914402282F082E000C330BA2
:104730003F938F9386E195E09F938F930E94A80803
:1047400084E195E00E940F0880914502282F082EF1
:10475000000C330B3F938F9381E195E09F938F93F0
:104760000E94A8088EE095E00E940F0880913E020A
:104770001F928F938BE095E09F938F930E94A808E0
:1047800089E095E00E940F0880913F021F928F936D
:1047900086E095E09F938F930E94A80883E095E0C0
:1047A0000E940F088DB79EB74C960FB6F8949EBF27
:1047B0000FBE8DBF80E492E00E94E2120E9445216C
:1047C00090933D0280933C0208951F93CF93DF9313
:1047D00080913C0290913D020E945D21AC0190913C
:1047E0003E02992321F02091080130E006C020917B
:1047F00009018AE0289F900111244217530708F409
:104800007BC080914202C0914302D091440210913A
:104810004502811107C0C1116BC0D11169C01111CE
:1048200067C06AC09F3F19F09F5F90933E021816C1
:1048300024F40E94E921809342028091420287FF82
:1048400005C00E94E9218195809342021C1624F440
:104850000E94E921809343028091430287FF05C0B3
:104860000E94E921819580934302309142023323D3
:10487000E1F0209143022223C1F045EB3403C00153
:104880001124892F990F990B009709F481E08093E7
:10489000420235EB2303C0011124892F990F990B94
:1048A000009709F481E0809343021D1624F40E94CE
:1048B0003222809344028091440287FF05C00E9407
:1048C0003222819580934402111624F40E943222F0
:1048D000809345028091450287FF05C00E943222E5
:1048E000819580934502DF91CF911F910C945823BD
:1048F0009F3F09F099CFA1CFDF91CF911F910895EC
:10490000E0E4F2E086E0DF011D928A95E9F710927B
:104910003E0210923F0208958DE497E00E940F0836
:104920001F9281E08F931F9285E08F938FEF96E027
:104930009F938F930E94A8080F900F900F900F9055
:104940000F900F9008958330E9F128F4813061F0E1
:10495000823009F10895853009F462C008F449C035
:10496000863009F474C0089580910901262F30E043
:10497000280F311D2F3F310524F4680F6093090182
:1049800003C08FEF80930901809109011F928F93DB
:1049900088E396E072C080910801262F30E0280F4E
:1049A000311D2F3F310524F4680F6093080103C0C7
:1049B0008FEF80930801809108011F928F9386E208
:1049C00096E05BC080910701262F30E0280F311D53
:1049D0002F3F310524F4680F6093070103C08FEF68
:1049E00080930701809107011F928F9383E196E0E6
:1049F00044C080910601262F30E0280F311D2F3F43
:104A0000310524F4680F6093060103C08FEF809393
:104A10000601809106011F928F938EEF95E02DC0C5
:104A200080910501262F30E0280F311D2F3F3105E1
:104A300024F4680F6093050103C08FEF8093050194
:104A4000809105011F928F9385EE95E016C08091AD
:104A50000401262F30E0280F311D2F3F310524F4AB
:104A6000680F6093040103C08FEF8093040180916D
:104A700004011F928F938AEC95E09F938F930E947D
:104A8000A8080F900F900F900F900895833081F138
:104A900028F4813059F08230D1F00895853009F43E
:104AA00049C0B8F1863009F456C0089580910901D3
:104AB000681720F4861B8093090102C01092090137
:104AC000809109011F928F938BEB95E054C08091E8
:104AD0000801681720F4861B8093080102C0109219
:104AE0000801809108011F928F9389EA95E043C0E5
:104AF00080910701681720F4861B8093070102C08C
:104B000010920701809107011F928F9386E995E02B
:104B100032C080910601681720F4861B809306013D
:104B200002C010920601809106011F928F9381E8C6
:104B300095E021C080910501681720F4861B8093C1
:104B4000050102C010920501809105011F928F930B
:104B500088E695E010C080910401681720F4861B58
:104B60008093040102C010920401809104011F92FD
:104B70008F938DE495E09F938F930E94A8080F90E8
:104B80000F900F900F900895CF93C82F1F928F937F
:104B900082E598E09F938F930E94A80881E090E0BF
:104BA000A0E0B0E0BC01CD0104C0660F771F881FF4
:104BB000991FCA95D2F70E94E01C0F900F900F909A
:104BC0000F90CF910C940519CF93DF938B3109F49B
:104BD00035C208F0CBC18B3009F4EEC108F0A1C199
:104BE000863009F4ECC120F4853009F4FAC1A8C27A
:104BF000873009F408C2883009F0A2C286EC9DE033
:104C00000E940F0887E19DE00E940F080E94D91FB3
:104C10001F928F9384E19DE09F938F930E94A80839
:104C200082E19DE00E940F080E94D51FC82F8FEFE0
:104C30009CE00E940F081F92CF938AEF9CE09F9305
:104C40008F930E94A80888EF9CE00E940F088EEEC8
:104C50009CE00E940F088C2F81701F928F938BEE27
:104C60009CE09F938F930E94A80889EE9CE00E948D
:104C70000F088FED9CE00E940F08C1FB882780F988
:104C80001F928F938CED9CE09F938F930E94A808B6
:104C90008AED9CE00E940F088EEC9CE00E940F08B9
:104CA000C2FB882780F91F928F938BEC9CE09F9327
:104CB0008F930E94A80889EC9CE00E940F0880EC6A
:104CC0009CE00E940F08C3FBCC27C0F91F92CF9332
:104CD0008DEB9CE09F938F930E94A8088BEB9CE048
:104CE0000E940F080E94DD1FEC0187EA9CE00E94F1
:104CF0000F08DF93CF9382EA9CE09F938F930E94EB
:104D0000A80880EA9CE00E940F0887E89CE00E94C7
:104D10000F088C2F81701F928F9384E89CE09F93E3
:104D20008F930E94A8088DB79EB780960FB6F8940F
:104D30009EBF0FBE8DBF82E89CE00E940F088BE6ED
:104D40009CE00E940F08C1FB882780F91F928F9377
:104D500088E69CE09F938F930E94A80886E69CE0DB
:104D60000E940F0884E59CE00E940F088D2F81703F
:104D70001F928F9381E59CE09F938F930E94A808D8
:104D80008FE49CE00E940F088DE39CE00E940F08D6
:104D9000D695D1701F92DF938AE39CE09F938F9307
:104DA0000E94A80888E39CE00E940F0886E29CE02D
:104DB0000E940F08C2FB882780F91F928F9383E21D
:104DC0009CE09F938F930E94A80881E29CE00E9440
:104DD0000F088FE09CE00E940F08C3FB882780F932
:104DE0001F928F938CE09CE09F938F930E94A80862
:104DF0008AE09CE00E940F0880E09CE00E940F087F
:104E0000C4FB882780F91F928F938DEF9BE09F93BF
:104E10008F930E94A8088BEF9BE00E940F0889EEF9
:104E20009BE00E940F08C5FB882780F91F928F9393
:104E300086EE9BE09F938F930E94A80884EE9BE0F0
:104E40000E940F0888EC9BE00E940F08C6FB882791
:104E500080F91F928F9385EC9BE09F938F930E9424
:104E6000A8088DB79EB780960FB6F8949EBF0FBE68
:104E70008DBF83EC9BE00E940F088BEB9BE00E94B0
:104E80000F08C7FBCC27C0F91F92CF9388EB9BE09C
:104E90009F938F930E94A80886EB9BE00E940F08C7
:104EA0000E94FB1FC82F8FE99BE00E940F081F92F2
:104EB000CF938AE99BE09F938F930E94A80888E98B
:104EC0009BE00E940F088EE89BE00E940F088C2F49
:104ED00081701F928F938BE89BE09F938F930E942A
:104EE000A80889E89BE00E940F0880E89BE00E94E8
:104EF0000F08C695C695C6951F92CF938DE79BE088
:104F00009F938F930E94A8088BE79BE00E940F0855
:104F10008DB79EB740960FB6F8949EBF0FBE8DBF5B
:104F200049C0803109F4B4C020F48E3009F49AC02D
:104F300007C1863109F4C7C0893109F001C182EA8D
:104F400099E00E940F0889E899E00E940F0886E521
:104F500099E00E940F0884E299E00E940F088EEE0B
:104F600098E00E940F0880EC98E08FC08A32E1F050
:104F700060F4873209F4E0C028F48E3108F4E0C010
:104F80008D51DBC0893269F1DBC0833448F48A3348
:104F900008F0D0C0853309F4CFC0883369F0D0C0A1
:104FA000833409F4C9C0CCC085EB9DE00E940F0892
:104FB0000E947320C1E0C9C088ED99E066C080916D
:104FC0003A02817F8E7F80933A0281EB99E00E94C2
:104FD0000F0881EB9DE00E940F0881E0809347025B
:104FE000E9CF0E94051985E99DE00E940F089FEF17
:104FF00023ED80E3915020408040E1F700C00000A5
:105000000E94AD21D7CF80913A02C82FC095C170C0
:10501000C0FB80F980933A02CC2329F089E89DE017
:105020000E940F0892C08CE79DE00E940F088091BB
:105030003A02897F877F80933A02BCCF90913A02EF
:1050400091FBCC27C0F981E0C827892FC0FB81F9EB
:1050500080933A02CC2319F08FE69DE029C081E6C7
:105060009DE013C090913A0292FBCC27C0F981E0F9
:10507000C827892FC0FB82F980933A02CC2319F00C
:1050800082E59DE015C082E49DE00E940F0892CF6A
:1050900090913A0293FBCC27C0F981E0C827892F71
:1050A000C0FB83F980933A02CC2351F086E39DE064
:1050B0000E940F0880913A02816080933A0245C0B5
:1050C00089E29DE0E2CF82EB98E00E940F080E9407
:1050D0008D121F928F9388E998E09F938F930E947F
:1050E000A808809114011F928F9381E898E09F9304
:1050F0008F930E94A808809154021F928F938EE68E
:1051000098E09F938F930E94A8080E9451219F933B
:105110008F937F936F9387E598E09F938F930E947F
:10512000A8088DB79EB742960FB6F8949EBF0FBEE3
:105130008DBF40CF895301C080E00E94C4253ACF83
:1051400087E29DE00E940F08C0E08C2FDF91CF9195
:10515000089580E0089580E008958E518A3030F4FB
:10516000E82FF0E0EB5EFE4F8081089580E0089527
:10517000CF93C82F80914702813059F020F08230C0
:1051800009F445C039C10E94BA1E823209F036C105
:1051900004C00E94BA1E823261F48C2F0E94A9289A
:1051A000811104C08C2F0E94E4252FC081E090E083
:1051B0002CC08C2F0E94AB28811126C0C431E1F095
:1051C00070F4CB3081F0C031D1F40E948C248AE499
:1051D00098E00E940F0882E08093470215C0C93210
:1051E00059F0C83361F481EB99E00E940F088EE416
:1051F00098E00E940F0808C01092470201C188E49D
:1052000098E00E940F08FCC081E08170FBC0C432AE
:1052100028F5CE3108F0C1C0CB30A1F1D0F4C730B1
:1052200009F0D0C08EE18093090182E380930801E8
:105230008AE08093070184E18093060188E08093EF
:10524000050188E2809304018EEE96E00E940F082B
:10525000BCC0C33149F1C431C1F0B4C0CB3409F48E
:10526000A6C028F4C93289F0C83361F0ABC0C1359B
:1052700009F49BC0C23509F496C0CE3409F0A2C02F
:105280006AE09BC00E948C24A0C0809146028823C3
:1052900019F01092460299C08BEF96E00E940F0819
:1052A00081E080934702AEC085ED96E00E940F0832
:1052B00083EC96E00E940F08809109011F928F9362
:1052C00080EC96E09F938F930E94A8088EEB96E067
:1052D0000E940F088CEA96E00E940F088091080156
:1052E0001F928F9389EA96E09F938F930E94A8085C
:1052F00087EA96E00E940F0888E996E00E940F086E
:10530000809107011F928F9385E996E09F938F9379
:105310000E94A80883E996E00E940F0882E896E0C0
:105320000E940F08809106011F928F938FE796E0ED
:105330009F938F930E94A8088DE796E00E940F0824
:1053400088E696E00E940F08809105011F928F93D6
:1053500085E696E09F938F930E94A80883E696E0E7
:105360000E940F088CE496E00E940F0880910401CF
:105370001F928F9389E496E09F938F930E94A808D1
:1053800087E496E00E940F088DB79EB748960FB647
:10539000F8949EBF0FBE8DBF18C08C2F0E94AD2801
:1053A0008093460212C061E003C061E006C06AE07B
:1053B000809146020E94A32408C0809146020E9468
:1053C000462503C08CEE96E013C0809146028823E8
:1053D00069F01F928F9386EE96E09F938F930E94C1
:1053E000A8080F900F900F900F9004C083EE96E0E6
:1053F0000E940F0881E006C01092470280E002C0C0
:1054000080E003CFCF9108958091530208959FB714
:10541000F89410924A029FBF90916302943009F071
:1054200057C09091E9009F703091EC00232F2170BC
:1054300030FD20E8922B23E02093E9002091EB003F
:1054400020FF43C02091EE0027FF3FC0209148027B
:10545000222321F02091E80025FF37C01092480256
:1054600026E03091E80035FD15C0309163023430FC
:1054700061F53091EB0035FD28C0215021F481E029
:105480008093480222C0EFE9FFE03197F1F700C0B6
:105490000000E7CF8093F1008091E80085FD0AC00D
:1054A0008091E80080FFFCCF8091E8008E778093A8
:1054B000E80006C08FB7F89421E020934A028FBF1E
:1054C0009F709093E90080E008959F709093E900A9
:1054D0008FEF08950F931F93CF93DF9300D01F9208
:1054E000CDB7DEB78C010E94252D823011F08430BB
:1054F00021F584E089831B830A8382E08093E9009D
:105500008FEF9091E800815095FD06C095ED9A953A
:10551000F1F700008111F5CF8091E80085FF0DC003
:1055200040E050E063E070E0CE0101960E94422D21
:105530008091E8008E778093E8000F900F900F9095
:10554000DF91CF911F910F910895CF93DF9300D0FA
:105550001F92CDB7DEB720916302243031F523E0EE
:105560002983805891099B838A8382E08093E90094
:105570008FEF9091E800815095FD06C095ED9A95CA
:10558000F1F700008111F5CF8091E80085FF0DC093
:1055900040E050E063E070E0CE0101960E94422DB1
:1055A0008091E8008E778093E8000F900F900F9025
:1055B000DF91CF910895CF93DF93EC010E94252DC9
:1055C000823011F08430F9F482E08093E9009FEF9B
:1055D0008091E800915085FD06C085ED8A95F1F730
:1055E00000009111F5CF8091E80085FF0CC040E0EC
:1055F00050E066E070E0CE010E94422D8091E8000C
:105600008E778093E800DF91CF910895CF93DF9359
:10561000EC010E94252D823011F0843039F581E0B3
:105620008093E9008FEF9091E800815095FD06C0CE
:1056300095ED9A95F1F700008111F5CF8091E80082
:1056400085FF14C040E050E068E070E0CE010E94A9
:10565000422D8091E8008E778093E80088E0FE017B
:10566000ABE4B2E001900D928A95E1F7DF91CF9122
:10567000089586EF9DE00E940F08809162028111DB
:1056800009C00E94D72E0E94342F8091E2008460CE
:105690008093E200089582EF9DE00E940F0810922F
:1056A000620208958EEE9DE00C940F088AEE9DE054
:1056B0000C940F0886EE9DE00E940F080C940921BF
:1056C000209149022F5F822F62E30E94ED319923DE
:1056D00019F02093490208951092490280914A02DC
:1056E000882371F180916302843041F58091E90053
:1056F0008F702091EC00922F917020FD90E8892B03
:1057000093E09093E9009091EB0090FF14C090918A
:10571000EE0097FF10C09091E80095FF03C0109233
:10572000F100F9CF9091E80090FF05C09091E8005A
:105730009E779093E8008F708093E90010924A0260
:10574000089542E061EC81E00E94512E42E261EC5A
:1057500082E00E94512E42E261EC83E00C94512ED3
:1057600080916502833009F460C030F4813071F0BB
:10577000823009F499C008958A3009F485C08B30CD
:1057800009F46BC0893009F0A7C020C08091640281
:10579000813A09F0A1C08091E800877F8093E800FA
:1057A0008091680290916902892B21F468E08BE472
:1057B00092E003C060E080E090E070E00E948D2DF8
:1057C0008091E8008B778093E800089580916402CF
:1057D000813209F081C0809168029091690202973C
:1057E00008F07AC08091E800877F8093E80080917C
:1057F000E80082FD05C0809163028111F8CF6CC082
:105800002091F3008091F20090E0922B029729F40E
:105810008091F1008B7F813021F48091F1008093A1
:1058200053028091E8008B7753C080916402813AE3
:1058300009F052C08091680290916902892B09F0A9
:105840004BC08091E800877F8093E8008091E8005A
:1058500080FFFCCF8091140136C0809164028132B8
:10586000D9F58091680290916902892BA9F5809100
:10587000E800877F8093E8000E94862E8091660270
:10588000809314010C94051980916402813221F5F2
:105890008091E800877F8093E8000E94862E8091A7
:1058A000670280935402089580916402813AA1F4C2
:1058B0008091E800877F8093E8008091E80080FF76
:1058C000FCCF809154028093F1008091E8008E77A4
:1058D0008093E8000C94862E089584B7877F84BF58
:1058E0000FB6F894A895809160008861809360005D
:1058F000109260000FBE80E88093610010926100FA
:105900000E942A130E94D72E0E94342F8091E20019
:1059100084608093E20087E09AE20E946A1F789494
:105920000E94C2310E9432138AE091E00E948812E4
:1059300085ED9DE00E940F0880916302853089F417
:1059400081ED9DE00E940F080E94BA2080916102C3
:10595000882391F30E94EF20882371F30E942C2D5D
:10596000EBCF0E946413E8CF0C94B62C292F332779
:1059700023303105C9F064F42130310581F0223043
:10598000310509F049C08BE590E020E23EE048C0D7
:105990002132310521F12232310571F13DC082E120
:1059A00090E02BE73EE03CC099278130910571F0F3
:1059B0002CF4892B89F5ECE1FEE00DC082309105D5
:1059C00041F0039749F5EAEFFDE005C0EAE0FEE0AB
:1059D00002C0E0E0FEE0849190E09F0121C06330CE
:1059E0007105D0F4660F771FFB01E85DFE4F208143
:1059F000318189E090E014C06330710568F4FB01E7
:105A0000EE0FFF1FEE5DFE4F20813181FB01E15E55
:105A1000FE4F808190E004C080E090E020E030E024
:105A2000FA013183208308950895CF93C82F0E94EF
:105A3000142DC0935502CF91089580916302843054
:105A400011F081E0089582E008958091550281115E
:105A500002C00C941D2D089580E189BD82E189BDAD
:105A600009B400FEFDCF8091D8008F7D8093D800CF
:105A70008091E00082608093E0008091E00081FDF1
:105A8000FCCF0895CF92DF92EF92FF920F931F9376
:105A9000CF93DF93EC018B016A010E94A52E811147
:105AA00033C0C114D10439F0F60180819181081B03
:105AB000190BC80FD91FE12CF12C0115110519F193
:105AC0008091E80085FD16C08091E8008E77809374
:105AD000E800C114D10449F0F60180819181E80EFB
