:100000000C9416040C945D040C945D040C945D0433
:100010000C945D040C945D040C945D040C945D04DC
:100020000C945D040C945D040C94D0210C94A222D9
:100030000C94E4180C945D040C945D040C945D0421
:100040000C945D040C945D040C945D040C945D04AC
:100050000C945D040C9458190C945D040C945D048C
:100060000C945D040C945D040C945D040C945D048C
:100070000C945D040C945D040C945D040C945D047C
:100080000C945D040C945D040C945D040C945D046C
:100090000C945D040C945D040C945D040C945D045C
:1000A0000C945D040C945D040C945D045C065E0687
:1000B0006906600662066406660668066B066D06DB
:1000C0006F067A06710673067506770679067C0652
:1000D000AA0EAA0EDC0EDC0E1C0F8D108D108D10DA
:1000E0003C0F8D10E90FE90F591062108D1086102A
:1000F000F60FF60FF60FF60FF60FF60FF60FF60FD8
:10010000F60FF60FF60FF60FF60FF60FF60FF60FC7
:10011000051013101A1021102B10181118112A1184
:100120002A1121112A112A112A1118111811261128
:100130002A112A1126110F23362328243623282496
:100140008223A5232824FB230A2429002B002A002C
:10015000670053005400550056005F0060006100C6
:1001600057005C005D005E00000059005A005B0013
:100170005800620000006341000029002B002A00A3
:10018000670053005400550056005F006000610096
:10019000005C5C005D005E00000059005A005B00DE
:1001A0005800620000006341000044454255473A50
:1001B00020656E61626C65642E0A000A0025303885
:1001C00062003A200025303258000A722F63203036
:1001D000313233343536370A000A002530325820A0
:1001E000006B6579626F6172645F7265706F7274C3
:1001F0003A20000A0025303258006B6579626F6141
:1002000072645F7365745F6C65643A200064656C4A
:100210005F6B65795F6269743A2063616E27742051
:1002200064656C3A20253032580A006164645F6B63
:1002300065795F6269743A2063616E277420616436
:10024000643A20253032580A003F00433E20004CDB
:1002500025640A0074696D65725F7265616433328A
:1002600028293A202530346C580A006B65796D6175
:10027000705F636F6E6669672E6E6B726F3A2025D2
:10028000580A006B6579626F6172645F69646C65BE
:100290003A2025580A006B6579626F6172645F705D
:1002A000726F746F636F6C3A2025580A00686F7321
:1002B000745F6B6579626F6172645F6C65647328EB
:1002C000293A2025580A000A092D205374617475B3
:1002D00073202D0A004743433A20342E392E322012
:1002E0004156522D4C4942433A20322E302E302076
:1002F0004156525F415243483A20617672350A00B6
:100300004F5054494F4E533A204C55464120455882
:100310005452414B455920434F4E534F4C45204377
:100320004F4D4D414E44204E4B524F2034303936C4
:100330000A004255494C443A2022302E362E32349F
:10034000362D372D67386534376636222028313907
:100350003A33313A3230204A616E20323520323021
:100360003139290A005649443A20307846454544F7
:1003700028414D4A29205049443A203078363036B9
:10038000302850414429205645523A2030783030A8
:1003900030330A00444553433A20514D4B206B659E
:1003A00079626F617264206669726D77617265202F
:1003B000666F7220414D4A205041440A000A092DBF
:1003C0002056657273696F6E202D0A000A092D2070
:1003D000436F6E736F6C65202D0A4553432F713A3E
:1003E00009717569740A000A092D204D61676963F6
:1003F000202D0A443A094465627567204D65737380
:1004000061676520546F67676C650A583A094D61EA
:1004100074726978204465627567204D6F64652049
:10042000546F67676C65202D2053686F77206B656C
:10043000797072657373657320696E206D61747273
:10044000697820677269640A4B3A094B6579626F73
:1004500061726420446562756720546F67676C65DC
:10046000202D2053686F77206B65797072657373E8
:10047000207265706F72740A4D3A0944656275673F
:10048000204D6F75736520546F67676C650A563A27
:100490000956657273696F6E0A533A095374617431
:1004A00075730A433A094163746976617465204340
:1004B0006F6E736F6C65204D6F64650A46312D4613
:1004C00031303A0953776974636820746F204C6146
:1004D00079657220302D392028463130203D204C5E
:1004E00030290A302D393A095377697463682074CA
:1004F0006F204C6179657220302D390A4553433A9B
:100500000953776974636820746F204C6179657250
:1005100020302028616C7465726E617465206B6593
:10052000792031290A47524156453A09537769746F
:10053000636820746F204C617965722030202861D7
:100540006C7465726E617465206B65792032290A5E
:1005500050415553453A094A756D7020746F2042D9
:100560006F6F746C6F616465722028526573657477
:10057000290A4E3A094E4B524F20546F67676C65FB
:100580000A003F004E4B524F3A206F66660A004EFB
:100590004B524F3A206F6E0A000A6D6F7573653AC1
:1005A000206F66660A000A6D6F7573653A206F6E7C
:1005B0000A000A6B6579626F6172643A206F666641
:1005C0000A000A6B6579626F6172643A206F6E0A85
:1005D000000A6D61747269783A206F66660A000AD3
:1005E0006D61747269783A206F6E0A000A64656200
:1005F00075673A206F66660A000A64656275673A35
:10060000206F6E0A000A0A4A756D70696E67207461
:100610006F20626F6F746C6F616465722E2E2E2076
:1006200000433E20006261636B6C696768742073ED
:100630007465703A2025750A006261636B6C6967A6
:1006400068742064697361626C650A006261636B3F
:100650006C6967687420656E61626C650A0062612E
:10066000636B6C6967687420746F67676C653A20A8
:1006700025750A006261636B6C6967687420646544
:100680006372656173653A2025750A006261636B68
:100690006C6967687420696E6372656173653A207E
:1006A00025750A005B735D004B6579626F6172644A
:1006B0002073746172742E0A005B575D005B535D9A
:1006C000005B525D005B445D005B435D00040330F2
:1006D00000000008035000410044000000080341EE
:1006E000004D004A0000000403090409025B0003F6
:1006F0000100A0FA09040000010301010009211111
:100700000100012240000705810308000A090401D5
:1007100000010300000009211101000122710007FE
:1007200005820320000A09040200020300000009F8
:100730002111010001222200070583032000010787
:100740000503032000011201100100000008EDFE66
:1007500060600300010203010631FF0974A1010971
:1007600075150026FF009520750881020976150091
:1007700026FF00952075089102C005010980A1019E
:1007800085031601002603001A81002A83007510D4
:1007900095018100C0050C0901A101850416010025
:1007A000269C021A01002A9C02751095018100C046
:1007B00005010906A1018505050719E029E71500CE
:1007C000250195087501810205081901290595057E
:1007D000750191029501750391010507190029EF33
:1007E0001500250195F075018102C005010906A1DA
:1007F00001050719E029E715002501950875018114
:1008000002950175088101050819012905950575ED
:100810000191029501750391010507190029FF1542
:100820000026FF00950675088100C00011241FBE38
:10083000CFEFDAE0DEBFCDBF04B603FE27C0809164
:10084000FD019091FE01A091FF01B091000287305F
:10085000904BA740B04BD1F41092FD011092FE01D5
:100860001092FF011092000214BE84B7877F84BFEC
:100870000FB6F894A895809160008861809360001D
:10088000109260000FBEE0E0F8E3099511E0A0E0EF
:10089000B1E0E2E2FAE402C005900D92A632B1079F
:1008A000D9F721E0A6E2B1E001C01D92AD3FB20749
:1008B000E1F70E94EB1E0C940F250C940000FF93AF
:1008C000EF93E0912601F0912701309709F0099507
:1008D000EF91FF910895FC018591803011F0EFDFD9
:1008E000FBCF0895FF27E0E230E247FF0CC04195BF
:1008F00097FF09C0EDE26095709580959095611D18
:10090000711D811D911D27FF02C0219530E350E22A
:10091000AA27660F771F881F991FAA1FA41710F018
:10092000A41B63955A95A9F7AA3008F0A95FA05DAA
:10093000AF93F395611571058105910541F7ED328E
:1009400011F4EF93F395F21718F43F93F395FBCF5F
:100950008F91B5DFFA95E1F70895E991F9918591C5
:10096000803021F0853219F0AADFF9CF089520E018
:10097000E89455915532C1F3503311F46894559170
:100980005A3348F4505390F3220F022E220F220FB5
:10099000200D250FF4CF0EF42195899199915336AE
:1009A00019F3533729F1533559F1BC018827992799
:1009B000E8945C3621F48991999168945591543664
:1009C00039F446EF7EF077FF0DC08FEF9FEF0AC03E
:1009D00055374AE039F0583540E121F0523642E0CF
:1009E00009F00895FF93EF937DDFEF91FF91B7CF6B
:1009F000FF93EF93FC0181918030B9F360DFFBCF6F
:100A0000FF93EF9368DFF1CFDF93CF93CDB7DEB7DE
:100A10002596A3DFCF91DF9108950C94D609569ABD
:100A200008950E94D5090C940F0580FF02C05E98BE
:100A300008955E9A089581E0089581E008950C94E8
:100A40001D050C940D05CF92DF92EF92FF92853039
:100A500030F4811105C0909180009F7D04C084E036
:100A600090918000906290938000282F30E0AFEF4B
:100A7000BFEF0E94B324DC01CB0142E0B695A795FD
:100A8000979587954A95D1F78C3724E19207A10570
:100A9000B10528F469E070E00E94772427C08A50ED
:100AA000974DAF4FBF4F6627782F892F9A2F25EF8D
:100AB00038E241E050E00E948B2469017A01CA01CA
:100AC000B9010E945B249B01AC01C701B6010E94E1
:100AD0005B24BB27A92F982F872F009721E0A2071F
:100AE000B10511F0BC0102C06FEF7FEF70938B0076
:100AF00060938A00FF90EF90DF90CF900895269A40
:100B00002E9882E28093800089E1809381008FEFAC
:100B10009FEF90938700809386000C94741B0E9433
:100B20006317811102C00E94DA170E947F050C949E
:100B300011050C94150508950E9408110E949B054B
:100B40002FEF84E39CE0215080409040E1F700C00B
:100B500000000C947E19FF920F931F93CF93DF93A5
:100B60008C01FC01C081D18180914B01811113C0A6
:100B70008281882349F0CE010E943B16F82E682F0F
:100B8000CE010E94E21504C0CE010E941016F82E7C
:100B9000BE018F2D04C0CE010E943B16BE010E94F3
:100BA0003007EC01B8010E941F05882309F44DC1EC
:100BB000C63DFCE5DF0709F4AFC0B0F4C531ECE594
:100BC000DE0768F4C230FCE5DF0708F053C0C1154A
:100BD0008CE5D80701F1C130DC4529F129C1C631C6
:100BE000DC4509F4FEC024C1CB3D8CE5D80791F16A
:100BF00050F4C73DFCE5DF0709F4B1C0C83DDC4552
:100C000009F4D4C015C1CC3DECE5DE0751F1CD3D72
:100C1000DC45C1F00DC1F8018281882309F415C1BA
:100C20000E949C0512C1F8018281882309F40DC13C
:100C30008091C00181608093C0018AEA91E00E94A6
:100C40006B0403C1F8018281882309F4FEC00E946D
:100C5000DA17FBC0F8018281882309F4F6C080E02E
:100C600006C0F8018281882309F4EFC082E00E9467
:100C7000931FEBC0F8018281882309F4DEC00E9433
:100C80006317811102C00E94DA170E94761790E064
:100C90009093EE018093ED01FE01E350FC45E231BB
:100CA000F10530F4EA5AFF4F8091ED010C94AD2428
:100CB0008091ED01816027C0826025C0846023C0DF
:100CC000806121C080621FC080641DC080681BC01D
:100CD0008460886018C08E7F16C08D7F14C08B7FA3
:100CE00012C08F7E10C08F7D0EC08F7B0CC08F779F
:100CF0000AC08B7F877F07C087FB222720F991E0FE
:100D0000922790FB87F98093ED018091ED010E947D
:100D10007A170E94081199C0F8018281882351F046
:100D200010922D010E94161990932A018093290197
:100D300082E022C080912D0181110FC08091290194
:100D400090912A010E942E19883C910530F486E288
:100D50000E94D80C86E20E94070E82E024C0F801AF
:100D60008281882361F010922E010E9416199093BF
:100D70002C0180932B0180E20E94660E66C0809158
:100D80002E0181110FC080912B0190912C010E94A6
:100D90002E19883C910530F487E20E94D80C87E236
:100DA0000E94070E80E20E946D0E4FC0F801828102
:100DB0008111D9CF80912E018111F4CF80912B0127
:100DC00090912C010E942E19883C910558F780E2E1
:100DD0000E946D0E88E20E94D80C88E20E94070EE5
:100DE00034C00E940C17282FF80182814091000125
:100DF00050910101882379F02A7A91E009F490E07A
:100E000090932801911102C069E201C065E3CA0113
:100E10000E9463180AC080912801811102C069E212
:100E200001C065E3CA010E946E180E94D9160DC068
:100E300081E080932D0180932E01C801DF91CF9135
:100E40001F910F91FF900C941B0580E0DF91CF91D3
:100E50001F910F91FF90089580E090E0089508950C
:100E6000E72FF0E096E0899FE00DF11D1124EE0FD1
:100E7000FF1FEE0FFF1FE60FF11DEE0FFF1FE65BDA
:100E8000FE4F859194910895880F991FFC01E554B8
:100E9000FE4F859194910895CF93DF930E94300780
:100EA0000E943509EC01811521E5920708F042C046
:100EB000811530E5930708F026C1883E910500F5BD
:100EC000803E910508F0CDC1883A910570F4853ACD
:100ED000910508F09DC08130910509F4C2C108F464
:100EE00073C1049708F0BDC16FC18F3B910508F431
:100EF0009AC0803C910508F467C1805C9109F3C0F9
:100F0000811540E3940780F4811550E2950708F0BD
:100F1000E9C0803F910508F457C18F3F910511F05A
:100F200008F09FC1D0659DC1811560E4960708F067
:100F3000E7C0DDC0C11589E5D80740F5C11528E532
:100F4000D20708F02DC1C11534E5D30778F4C115D7
:100F500043E5D40708F009C1C11552E5D50708F0EB
:100F6000EEC0DC2FCC27C16FD06A7BC1C11565E50F
:100F7000D60708F410C1C11586E5D80708F024C1CA
:100F8000CF71DD27DC2FCC27D0626BC1CD3B2CE5A8
:100F9000D20709F410C1D8F4CB3B4CE5D40709F4CF
:100FA00004C108F005C1C1156AE5D60708F00CC1F7
:100FB0008C2F8F70806E90E0906A24E0D695C79554
:100FC0002A95E1F7CF709C013C2BE9014AC1C03C56
:100FD0008CE5D80709F4F5C060F4CE3B3CE5D307B7
:100FE00009F4ECC0CF3BDC4509F0EEC0C0E0D2ED27
:100FF00038C1CE0190568115904208F0E5C08D2F82
:101000008F710E94B209DD27D0628F71D82B29C160
:10101000853A910509F4DBC0863A910509F0DAC0FA
:10102000C2E8D0E41EC1883A910509F4D6C0893AD5
:10103000910509F4D5C08A3A910509F4D4C08B3AD8
:10104000910509F4D3C08C3A910509F4D2C08B3BC9
:10105000910509F4D1C08C3B910509F4D0C08D3ABB
:10106000910509F4CFC0803B910509F4CEC08E3ABA
:10107000910509F4CDC08F3A910509F4CCC0813BAC
:10108000910509F4CBC0823B910509F4CAC0833BAA
:10109000910509F4C9C0843B910509F4C8C0853B9A
:1010A000910509F4C7C0863B910509F4C6C0873B8A
:1010B000910509F4C5C0883B910509F4C4C0893B7A
:1010C000910509F4C3C08D3B910509F4C2C08E3B64
:1010D000910509F4C1C08A3B910509F4C0C0C0E084
:1010E000D4E4BFC09F700E944407EC01BAC09927A6
:1010F000D3FF03C0EC01D86CB4C0EC01D06CB1C01C
:10110000DF70D06AAEC0282F237081E090E002C06B
:10111000880F991F2A95E2F79C689E0174E0369526
:1011200027957A95E1F72370922BCF70C695C695D7
:1011300060E2C69FE0011124C82BD92B92C02C2F4E
:101140002695269580E2289F90011124C370DD2703
:1011500081E090E0AC0102C0440F551FCA95E2F750
:10116000EA01C22BD32BDC687CC02C2F2695269558
:1011700080E2289F90011124C370DD2781E090E078
:10118000AC0102C0440F551FCA95E2F7EA01C22B19
:10119000D32BDA6866C0DC2FCC27C46FD06A61C05D
:1011A000DC2FCC27C06FD06A5CC0C0E0D4ED59C042
:1011B000C0E0D5ED56C0C0E0D1ED53C0C0E0D0EDE9
:1011C00050C0C0E0D3ED4DC0C0E0D0E04AC0C1E89F
:1011D000D0E447C0C3E8D0E444C0C2EED4E441C088
:1011E000C9EED4E43EC0CAEED4E43BC0C5EBD4E4BF
:1011F00038C0C6EBD4E435C0C3EBD4E432C0C4EB92
:10120000D4E42FC0C7EBD4E42CC0CCECD4E429C088
:10121000CDECD4E426C0C3E8D5E423C0CAE8D5E4C5
:1012200020C0C2E9D5E41DC0C4E9D5E41AC0C1E2BA
:10123000D6E417C0C3E2D6E414C0C4E2D6E411C0B9
:10124000C5E2D6E40EC0C6E2D6E40BC0C7E2D6E4DF
:1012500008C0CFE6D4E405C0C0E7D4E402C0CAE2C7
:10126000D6E4CE01DF91CF9108958238910549F1FE
:10127000B0F48133910509F458C048F489329105DE
:1012800009F44EC08A32910509F454C0089585339B
:10129000910509F440C08933910599F00895833E82
:1012A000910529F138F4803E910591F0823E910537
:1012B000A1F00895863E9105F9F0873E910531F140
:1012C00008952091ED0120FD3AC021FD38C0089518
:1012D0008091ED0180FD35C032C08091ED0182FF2B
:1012E00032C08091ED0184FD30C083EE39C0809121
:1012F000ED0182FD28C0F5CF8091ED0183FF27C06D
:101300008091ED0184FD21C087EE2AC08091ED011E
:1013100083FD1DC0F5CF8091ED0185FD1AC01BC076
:101320008091ED0185FD17C014C08091ED0186FD0F
:1013300014C015C08091ED0186FD11C00EC080EE75
:101340000FC089E30DC082EE0BC080E009C086EEBD
:1013500007C089E205C085E303C08AE201C081E3DA
:1013600090E008959091ED0192FF0DC0282F287113
:10137000283019F4877F846006C0282F2471243018
:1013800011F48B7F886093FF0DC0282F28712831BE
:1013900019F4877E846106C0282F2471243111F44A
:1013A0008B7E886194FD877E089508950895E1E11C
:1013B000F1E041E050E026E02E0F9191A92FA29597
:1013C000AF70B0E091963C9191979F70BA0102C0C6
:1013D000660F771F9A95E2F7CB018095832391964C
:1013E0008C932E13EACFADE0B1E041E050E024E071
:1013F0002A0F8D91E82FE295EF70F0E031A18F7008
:10140000BA0102C0660F771F8A95E2F7CB01962FCB
:101410009095932391A392A1892B82A32A13E9CFBC
:10142000AFE2B1E0E5E3F1E086E08E0F11921D92AC
:101430008E13FCCF86E00E94F80A0C948F054F9221
:101440005F926F927F928F929F92AF92BF92CF9254
:10145000DF92EF92FF920F931F93CF93DF9321E1DF
:10146000422E21E0522EA5E3B1E020E001E010E0A1
:1014700036E0932E9A0E7D018C901C92E2018991A8
:101480002E01E82FE295EF70F0E031A18F70A801F6
:1014900002C0440F551F8A95E2F7CA01342B31A3CD
:1014A00042A1382F3095432342A350EA5A95F1F7D1
:1014B0009DE0C92E91E0D92E40E050E0E601799000
:1014C0006E01672D62956F7070E0EB01A8A06C90C3
:1014D000B12C772D7F7002C0B594A7947A95E2F76E
:1014E000A0FC07C0602F042E01C0660F0A94EAF723
:1014F00001C060E066296C934F5F5F4F4430510537
:10150000E9F691A1392331A392A1892B82A31196E7
:1015100081E0F7019081891201C080E0282B9A12A6
:10152000AACF46E06FE271E085E391E00E94F90AFC
:101530000E94210581E0DF91CF911F910F91FF90D3
:10154000EF90DF90CF90BF90AF909F908F907F9063
:101550006F905F904F900895E82FF0E0E15DFE4FAF
:1015600080810895CF92DF92EF92FF920F931F93A5
:10157000CF93DF938AEC91E00E946B048FE2E82E18
:1015800081E0F82EC0E0D0E095ECC92E91E0D92E94
:101590000DEB11E0DF93CF93DF92CF920E94040511
:1015A00082EC91E00E946B04F70181917F010E941F
:1015B0004D171F928F931F930F930E9404058BEB7F
:1015C00091E00E946B0421968DB79EB708960FB6E6
:1015D000F8949EBF0FBE8DBFC630D105D9F6DF91FE
:1015E000CF911F910F91FF90EF90DF90CF900895D2
:1015F0000895FF920F931F93CF93DF93C82F192F56
:10160000F62E072FD42F222349F081E080933D014D
:101610000E94161990933C0180933B0180913D01FB
:101620008823B1F080913B0190913C010E942E19DA
:10163000069770F02C2FAF2DB02FEC2FF12F8E2F9F
:10164000821B8D1718F481918D93F9CF10923D0173
:10165000DF91CF911F910F91FF90089590934301D7
:10166000809342010895E0914201F0914301309747
:1016700021F00190F081E02D099480E00895EF922F
:10168000FF921F93CF93DF93FC01A0914201B09191
:101690004301109709F442C080910C01882341F066
:1016A0008091ED0187FF04C08081818385E0808384
:1016B000EF011296ED91FC911397CE01099580915F
:1016C000C00182FF2BC080FF04C081EE91E00E9428
:1016D0006B0418E08BEDE82E81E0F82E8091C001BC
:1016E00080FF0BC088811F928F93FF92EF920E9420
:1016F00004050F900F900F900F901150219611112B
:10170000EDCF8091C00180FF09C089ED91E0DF91AC
:10171000CF911F91FF90EF900C946B04DF91CF91CC
:101720001F91FF90EF900895209140013091410169
:101730008217930771F09093410180934001E091EB
:101740004201F0914301309721F00680F781E02DAE
:101750000994089520913E0130913F01821793072B
:1017600071F090933F0180933E01E0914201F0912E
:101770004301309721F00084F185E02D099408950C
:1017800085B7806885BF85B7806885BF089508954F
:101790000E94C00B0C94C70B81E008950E940D19A4
:1017A0000E94D7090E94A2190C94741BCF93C82FD2
:1017B0008091C00182FF1EC080FF04C08AEF91E0CB
:1017C0000E946B048091C00180FF0CC01F92CF93D8
:1017D00085EF91E09F938F930E9404050F900F90E7
:1017E0000F900F908091C00180FF04C083EF91E0C3
:1017F0000E946B048C2FCF910C949905CF92DF92AD
:10180000EF92FF920F931F93CF93DF93CDB7DEB785
:101810002B970FB6F894DEBF0FBECDBF0E941F0AF4
:101820000E94CC0B811111C08FEF89838A831B82A8
:101830000E9416198160782F9D838C8349815A817B
:101840006B818D810E94A40C56C085E4C82E81E076
:10185000D82E00E010E0E02E802F0E94AC0AF601A6
:1018600041916F01F42EF82631F40F5F1F4F0630BF
:10187000110589F7D9CF9091C00191FF04C08B87E2
:101880000E94B20A8B8520E030E04F2D50E0922F6D
:10189000BA01022E02C0759567950A94E2F760FFBF
:1018A00024C02E83EF8221E030E0690102C0CC0C1D
:1018B000DD1C9A95E2F790E08C219D21892B09F49B
:1018C00020E028870E9416198160782F9A878987DF
:1018D0004E815F8168858A850E94A40CF801EB5BCC
:1018E000FE4F8081C826C08206C02F5F3F4F243044
:1018F000310569F6BACF109144010E94330B1817D5
:10190000A1F00E94330B809344012B960FB6F894FC
:10191000DEBF0FBECDBFDF91CF911F910F91FF9022
:10192000EF90DF90CF900C94D60B2B960FB6F894D7
:10193000DEBF0FBECDBFDF91CF911F910F91FF9002
:10194000EF90DF90CF900895CF93DF93CDB7DEB7C0
:101950002B970FB6F894DEBF0FBECDBF4F835887CD
:1019600069877A878B87DE01119686E0FD011192E7
:101970008A95E9F785E0FE01379601900D928A95E8
:10198000E1F749815A816B817C818D819E810E9422
:10199000B2132B960FB6F894DEBF0FBECDBFDF910A
:1019A000CF910895FC01808191810E947A1608955B
:1019B000CF93DF931F92CDB7DEB7882309F423C1FD
:1019C000682F8238C1F40E94330B81FD1CC169E38A
:1019D00080910001909101010E9463180E94D91624
:1019E0002FEF81EE94E0215080409040E1F700C05D
:1019F000000069E319C0833811F50E94330B80FDA4
:101A000002C163E580910001909101010E94631879
:101A10000E94D9162FEF81EE94E021508040904033
:101A2000E1F700C0000063E58091000190910101A1
:101A30000E946E180F90DF91CF910C94D9168438C4
:101A4000C1F40E94330B82FDDEC067E48091000187
:101A5000909101010E9463180E94D9162FEF81EE28
:101A600094E0215080409040E1F700C0000067E41E
:101A7000DBCF8CEF860F813A70F4862F69830E944A
:101A8000251B69818111BFC08091000190910101E6
:101A90000E946318CFCF80E2860F883048F46770C9
:101AA00081E001C0880F6A95EAF70E940F17C2CF44
:101AB0008BE5860F833088F4653A29F0663A31F079
:101AC00083E890E005C081E890E002C082E890E001
:101AD0000F90DF91CF910C94940B88E5860F87319E
:101AE00008F091C0683A09F445C0693A09F445C064
:101AF0006A3A09F445C06B3A09F445C06C3A09F4F6
:101B000045C06B3B09F445C06C3B09F445C06D3AD8
:101B100009F445C0603B09F445C06E3A09F445C07C
:101B20006F3A09F445C0613B09F445C0623B09F4D2
:101B300045C0633B09F445C0643B09F445C0653BBF
:101B400009F445C0663B09F445C0673B09F445C04C
:101B5000683B09F445C0693B09F445C06D3B09F495
:101B600045C06E3B09F445C06A3B09F445C080E0BE
:101B700090E044C082EE90E041C089EE90E03EC02B
:101B80008AEE90E03BC085EB90E038C086EB90E0B9
:101B900035C083EB90E032C084EB90E02FC087EB40
:101BA00090E02CC08CEC90E029C08DEC90E026C039
:101BB00083E891E023C08AE891E020C082E991E0C7
:101BC0001DC084E991E01AC081E292E017C083E26F
:101BD00092E014C084E292E011C085E292E00EC06F
:101BE00086E292E00BC087E292E008C08FE690E0C8
:101BF00005C080E790E002C08AE292E00F90DF919A
:101C0000CF910C94AA0B0F90DF91CF910895882368
:101C100009F45BC0682F823879F40E94330B81FF8E
:101C200054C069E380910001909101010E94631802
:101C30000E94D91669E310C08338B1F40E94330BB7
:101C400080FF43C063E580910001909101010E94F3
:101C500063180E94D91663E58091000190910101FB
:101C60000E946E180C94D916843879F40E94330BB4
:101C700082FF2BC067E480910001909101010E94D6
:101C800063180E94D91667E4E7CF8CEF860F813A7C
:101C900018F380E2860F883048F4677081E001C055
:101CA000880F6A95EAF70E941517DCCF8BE5860F3F
:101CB000833020F480E090E00C94940B685A6731F4
:101CC00020F480E090E00C94AA0B0895882321F082
:101CD0000E940F170C94D9160895882321F00E94B2
:101CE00015170C94D91608954F925F926F927F92B8
:101CF000BF92CF92DF92EF92FF920F931F93CF93F9
:101D0000DF937C01D62FC72FFC01058102950F7050
:101D1000128111110E942C170E94D216882379F08B
:101D2000112369F080E28D0F883048F082E00E9434
:101D3000BB160E94D21691E0B82EB92601C0B12C74
:101D4000CC2EC2948FE0C822D12CF601E859FF4F67
:101D50000C94AD248C2F807FCF70882311F0C29516
:101D6000C07F112399F0CC2309F48EC180E28D0F3E
:101D7000883010F0D11104C08C2F0E940F1703C0BF
:101D80008C2F0E941F170E94D9167EC18D2F0E9492
:101D9000070ECC2309F4C1C180E28D0F883010F00A
:101DA000D11104C08C2F0E94151703C08C2F0E94E4
:101DB00025170E94D916B1C18C2F807FCF70803239
:101DC00011F0C295C07FDD2319F0D130C9F022C0D7
:101DD000112371F0002341F0013031F40E944517C6
:101DE0008C2B0E943F1799C10E9445178C2B1DC058
:101DF000002319F0013009F490C10E9442171AC063
:101E0000112321F0063008F088C10EC0053008F01B
:101E100084C110C0112361F0002331F0F7018581E6
:101E200080FF32C18F7085838C2F0E94660E75C132
:101E300001113BC18C2FE6C08C2F8695869583704F
:101E400090E0009719F0019761F067C1112321F02C
:101E50008D2F9C2F937002C080E090E00E94940B25
:101E60006CC1112321F08D2F9C2F937002C080E054
:101E700090E00E94AA0B61C18C2F837009F050C0C2
:101E8000111157C18D2F829586958770880F880F05
:101E90009D2F9F70492E512C612C712C082E04C04F
:101EA000440C551C661C771C0A94D2F7D4FF14C04E
:101EB0000FE010E020E030E0B901A80104C0440FB9
:101EC000551F661F771F8A95D2F7CB01BA0160951F
:101ED00070958095909503C060E070E0CB01C69549
:101EE000C695C370D0E0C230D10561F0C330D105D2
:101EF00081F06429752986299729219771F00E941C
:101F0000F71417C164297529862997290E94091594
:101F100010C10E94F714C301B2010E94E51409C167
:101F2000112319F08C2F817001C08695882309F444
:101F300000C18D2F829586958770880F880F9D2F01
:101F40009F70492E512C612C712C082E04C0440C1A
:101F5000551C661C771C0A94D2F7D4FF14C00FE0FE
:101F600010E020E030E0B901A80104C0440F551F83
:101F7000661F771F8A95D2F7CB01BA0160957095DD
:101F80008095909503C060E070E0CB01C695C69542
:101F9000C3704C2F50E04230510569F04330510579
:101FA00089F064297529862997294130510571F0F6
:101FB0000E94BD15BEC064297529862997290E94F3
:101FC000CF15B7C00E94BD15C301B2010E94AB1569
:101FD000B0C08D2F90E0FC01E05EF109E531F10524
:101FE00008F04EC0E858FF4F0C94AD24DF708C2FE2
:101FF0008F71112321F00E9444158D2F16CF0E945E
:1020000065158D2F0E946D0E88C0112341F005309B
:1020100008F083C08C2F8F710E948A157EC0063015
:1020200008F07BC0F7CF112339F08C2F8F710E94FD
:10203000441573C01123C9F38C2F8F710E9465154D
:102040006CC0112329F08C2F8F710E942F1565C051
:102050000E942A1562C0112349F0CF718C2F0E9473
:10206000441563E08C2F0E94B21657C081E00E9495
:10207000BB16023008F451C082E00E94BB164DC06E
:10208000112331F0002389F28D2F0E94D80C45C016
:10209000002391F2D93349F45FEF67EE73E05150BA
:1020A00060407040E1F700C000008D2F0E94070ED5
:1020B00034C04C2F4F706D2FC7010E942C070E9417
:1020C00056143BC0111139C0CF70D0E0C230D105D9
:1020D00099F03CF4209769F02197F9F40E94C11B14
:1020E0002CC0C430D10571F054F02597B1F480E0D4
:1020F0000AC00E94911B21C00E942B1C1EC00E947E
:10210000471C1BC084E00E947D1C17C04C2F4F70E1
:102110006D2FC7010E942F0710C088E0C816D10498
:1021200041F05CF0EAE0CE1AD108F2E0CF16D1041B
:1021300020F40E94330B0E949905BB20F1F00E940D
:10214000AE1680FD1AC0F70112820E94A8160E94E6
:102150004415C7010E94CB100E94A816DF91CF91B1
:102160001F910F91FF90EF90DF90CF90BF907F90E5
:102170006F905F904F900C946515DF91CF911F91F8
:102180000F91FF90EF90DF90CF90BF907F906F9076
:102190005F904F9008950F931F93CF93DF93EC01BF
:1021A000888199812B813C81232BB9F09F3F11F4C9
:1021B0008F3F99F0CE010E94AB05882371F06881B2
:1021C00079818A810E9485168C010E94E1150E9406
:1021D000E214B801CE010E94740EDF91CF911F91DD
:1021E0000F9108950E942C170E943C170E94D91647
:1021F00080E090E00E94940B80E090E00C94AA0BA9
:1022000080910001909101010E9479180C94F210C4
:102210000E941C170C940011E92FE295EF70F0E07A
:102220003297EE30F105B0F4E357FF4F0C94AD2434
:10223000803F91F018F4803E68F40EC0843F51F462
:102240000BC0803E48F0813F29F406C093FB8827ED
:1022500080F9089580E0089581E008950E947A163B
:102260000E940C110895CF93DF9300D000D01F92ED
:10227000CDB7DEB70F900F900F900F900F90DF91BA
:10228000CF910895CF93DF9300D000D000D0CDB789
:10229000DEB726960FB6F894DEBF0FBECDBFDF9136
:1022A000CF9108951F93CF93DF93C0914C0116E017
:1022B00080914D01C81799F0D0E01C9FF0011D9F3F
:1022C000F00D1124E25BFE4F4081518162817381E8
:1022D000848195810E9442112196C770E9CFDF91D8
:1022E000CF911F91089540917E0150917F0160919F
:1022F00080017091810180918201909183010C9401
:1023000042118091830182958F7009F054C08091B1
:102310008001882309F44FC080914C01A0914D01A8
:1023200060917E0170917F01409181015091820105
:10233000B6E08A1709F43FC090E041155105C1F19C
:102340007F3F11F46F3FA1F1B89FF001B99FF00DED
:102350001124E25BFE4F218172132AC02081621397
:1023600027C02281211124C02381348124173507FD
:1023700010F421503109241B350B283C3105C0F4E1
:10238000209183012F7020612093830126E0289FF4
:10239000F001299FF00D1124ED5AFE4F80818F70BE
:1023A000806180838EE791E00E94CB100C945211E3
:1023B00001968770BECF0895CF92DF92EF92FF9281
:1023C0000F931F93CF93DF93CDB7DEB762970FB60E
:1023D000F894DEBF0FBECDBF8C0185E0F801DE01B1
:1023E0001D9601900D928A95E1F7D8014C911196B6
:1023F0005C91119712966C9112971396CD90DC9088
:10240000149730917E0170917F01809181019091AC
:102410008201009709F46BC17F3F19F43F3F09F433
:1024200066C1E0908001EE2009F4C0C020918301D4
:10243000C816D90628F0F601E81BF90BCF0104C035
:10244000809590958C0D9D1DFF24F394883C9105FB
:1024500078F0F12C207F09F0C6C07C2DD98AC88A7B
:1024600089890E9433118EE791E00E94CB10B1C0A0
:10247000822F807F09F046C0751314C0341312C038
:10248000611110C02F702061209383010E9473118D
:102490008EE791E00E94CB1080918301D8011596C0
:1024A0008C932EC0CD2819F15F3F11F44F3FF9F006
:1024B000F62E61111CC080914C0120914D0136E037
:1024C000821709F45AC090E0389FF001399FF00D4F
:1024D0001124E25BFE4F7181571306C070814713D0
:1024E00003C07281711103C001968770E9CFF62E87
:1024F000662309F427C18091830181608093830161
:10250000F12C20C1751308C0341306C0611104C03A
:1025100080918301D801C3C04D875E878D859E85DC
:102520006A8B0E942E116A898823E1F16623D1F11A
:1025300020918301822F82958F7090E0029774F032
:1025400080917E0190917F0198878F831986DB8629
:10255000CA862C87CE0107960E94CB1086E0F80130
:10256000AEE7B1E001900D928A95E1F70E948111EA
:102570000E947311FF24F394E5C04D875E878D851B
:102580009E850E947A16292F22952F7030E02230E6
:1025900031050CF0CBC09F7009F0C5C0805E88305B
:1025A00008F4D0C0C8010E94CB10E4CFC816D906E9
:1025B00008F453C0F601E81BF90BCF01883C9105E4
:1025C00008F450C0F12C7C2DD98AC88A89890E94D0
:1025D0003311EEE7F1E086E0DF011D928A95E9F71D
:1025E0000E947311AFC0751314C0341312C061116F
:1025F00010C080918301F8018583C8010E94CB102F
:1026000086E0EEE7F1E0DF011D928A95E9F7FE2C06
:1026100099C04D875E878D859E856A8B0E942E119D
:102620006A89882309F4BECF662309F4BBCF2091C1
:102630008301822F82958F7090E002970CF48ECFE9
:1026400080917E0190917F019A8389831B82DD8234
:10265000CC822E83CE0101967FCF809590958C0DF4
:102660009D1DACCFF62E662309F49CCF75132EC0AA
:1026700034132CC02091830120FD1FC0822F82952E
:102680008F70D9F0D80115962C9315978F3049F09B
:102690008F5F982F9295907F822F8F70892B159640
:1026A0008C93C8010E94CB1086E0F801AEE7B1E040
:1026B00001900D928A95E1F793CF86E0F801AEE79D
:1026C000B1E001900D928A95E1F73CC04D875E879D
:1026D0008D859E850E942E11811140CF80918301AE
:1026E000816080938301C8010E94CB102BC06623B8
:1026F00009F458CF4D875E878D859E850E942E11E7
:10270000F82E882309F44ECF86E0F801AEE7B1E059
:1027100001900D928A95E1F78EE791E00E94D20C2C
:102720000E9481115DCF811139CF0CC02430310559
:102730000CF038CF9F7009F431CFF8019581907F6C
:1027400009F02CCF8F2D62960FB6F894DEBF0FBE26
:10275000CDBFDF91CF911F910F91FF90EF90DF9050
:10276000CF9008951F93CF93DF93CDB7DEB72C970B
:102770000FB6F894DEBF0FBECDBF4F835887698771
:102780007A878B879C87CE0107960E94DC1188236D
:1027900069F08F8198852A853B85232BF1F19F3F36
:1027A00009F063C08F3F09F060C037C086E0FE01CA
:1027B0003796DE01119601900D928A95E1F76F81AF
:1027C0007885EA85FB85309741F17F3F11F46F3FB3
:1027D00021F120914D0130E0C901019687709927C0
:1027E00040914C0150E08417950709F447C0698374
:1027F0007A83FD83EC8396E0929FD001939FB00D86
:102800001124A25BBE4FFE01319601900D929A9564
:10281000E1F780934D010E94521116E080914C0126
:1028200090914D018917C1F1189FC0011124825B5D
:102830009E4F0E94DC11882379F1E0914C011E9F8C
:10284000F0011124E25BFE4F40815181628173816E
:10285000848195810E94421180914C0190E0019603
:102860008770992780934C01D9CF4F81588569850E
:102870007A858B859C850E944211CFCF0E940811DA
:1028800010924D0110924C01EEE7F1E086E0DF017D
:102890001D928A95E9F7C1CF2C960FB6F894DEBF4A
:1028A0000FBECDBFDF91CF911F910895EF92FF92A0
:1028B0000F931F93CF93DF938C01892B09F46CC086
:1028C000F12CEE24E394E8012196F80184918437F9
:1028D00040F4843008F051C0813081F0823019F129
:1028E0005BC0853709F444C0A8F19CE7980F903786
:1028F00008F052C08F770E94070E41C00E5F1F4F35
:10290000FE01C49180E28C0F883048F4C7708E2D90
:1029100001C0880FCA95EAF70E942F1714C08C2FA8
:102920000E94D80C2DC00E5F1F4FFE01C49180E2A3
:102930008C0F883058F4C7708E2D01C0880FCA954F
:10294000EAF70E9435170E94D9161AC08C2F0E94F0
:10295000070E16C00E5F1F4FFE01C491CC2381F0FD
:102960008FE99FE00197F1F700C00000C150F6CF5A
:102970000E5F1F4FFE01F49003C00E94D80C8E0121
:102980008F2D882309F49FCFEFE9FFE03197F1F70E
:1029900000C000008150F5CFDF91CF911F910F91C2
:1029A000FF90EF90089508950C94D3140E94D414CE
:1029B00060939701709398018093990190939A0185
:1029C0000C94F21008950C94D6140F931F93009159
:1029D0009701109198012091990130919A01602BF3
:1029E000712B822B932B1F910F910C94D6140F9364
:1029F0001F930091970110919801209199013091B6
:102A00009A0160237123822393231F910F910C94C9
:102A1000D6140F931F930091970110919801209164
:102A2000990130919A0160277127822793271F917E
:102A30000F910C94D61408950C941B150E941C152C
:102A40006093930170939401809395019093960104
:102A50000C94F21060E070E0CB010C941E150F9303
:102A60001F9341E050E060E070E08A019B0104C0E8
:102A7000000F111F221F331F8A95D2F7C901B80119
:102A80001F910F910C941E150F931F9341E050E07E
:102A900060E070E004C0440F551F661F771F8A95E1
:102AA000D2F78091930190919401A0919501B091FA
:102AB00096018A019B01082B192B2A2B3B2BC9015C
:102AC000B8011F910F910C941E150F931F9341E0B5
:102AD00050E060E070E004C0440F551F661F771F90
:102AE0008A95D2F7409550956095709580919301A5
:102AF00090919401A0919501B09196018A019B015A
:102B0000082319232A233B23C901B8011F910F91E0
:102B10000C941E150F931F9341E050E060E070E0AD
:102B200004C0440F551F661F771F8A95D2F7809106
:102B3000930190919401A0919501B09196018A0121
:102B40009B01082719272A273B27C901B8011F9194
:102B50000F910C941E150F931F93009193011091E8
:102B600094012091950130919601602B712B822B5D
:102B7000932B1F910F910C941E150F931F9300918F
:102B80009301109194012091950130919601602359
:102B90007123822393231F910F910C941E150F9381
:102BA0001F93009193011091940120919501309110
:102BB000960160277127822793271F910F910C940C
:102BC0001E150895990F990F890FA82FA695A69500
:102BD000A695877051E001C0550F8A95EAF785E008
:102BE000A89FD001112420E030E070E0F901EA0F45
:102BF000FB1FEC57FE4F4081CB01022E02C0969581
:102C000087950A94E2F78170992781958427852317
:102C1000842780832F5F3F4F2530310539F7089592
:102C2000990F990F890F682F669566956695982F6D
:102C3000977085E0689FB001112440E050E080E08B
:102C4000FA01E60FF71FEC57FE4F208130E0092E06
:102C500002C0369527950A94E2F721703327042E97
:102C600001C0220F0A94EAF7822B4F5F5F4F453075
:102C7000510531F70895CF92DF92EF92FF920F93B3
:102C80001F93CF93DF938C01C0909701D090980150
:102C9000E0909901F0909A018091930190919401B4
:102CA000A0919501B0919601C82AD92AEA2AFB2A57
:102CB000CFE1D0E0D701C6010C2E04C0B695A79590
:102CC000979587950A94D2F780FF06C0B8018C2F9C
:102CD0000E944C07019721F4219760F780E001C022
:102CE0008C2FDF91CF911F910F91FF90EF90DF908C
:102CF000CF900895CF93DF93EC010E943B16BE0165
:102D00000E944C07DF91CF9108951F93CF93DF93DB
:102D1000EB0190914B01992321F0CB010E947A168F
:102D200013C0882349F0CB010E943B16182F682F4F
:102D3000CE010E94E21504C0CB010E941016182F8C
:102D4000BE01812F0E944C07DF91CF911F91089502
:102D500080919B01859585958595089580919B012E
:102D60008770089598E0899F90011124262B209365
:102D70009B010C94441520919B01809582238093A4
:102D80009B01982F977069F430E0482F082E000CB3
:102D9000550B2417350729F08595859585950C9455
:102DA0006515089590919B01977081E009F480E08A
:102DB0000895E0910001F09101018091BF018083AD
:102DC000E0910001F091010190818091BE01892B79
:102DD0008083E0910001F091010190818091BD011B
:102DE000892B808380919C01882381F0E0910001F0
:102DF000F09101019081892B808380910001909155
:102E000001010E94DC17811110929C018091000148
:102E1000909101010C943F0B8091BF010895909116
:102E2000BF01892B8093BF01089580959091BF01C8
:102E300089238093BF0108951092BF010895909156
:102E4000BE01892B8093BE01089580959091BE01AB
:102E500089238093BE0108951092BE010895909138
:102E6000BD01892B8093BD01089580959091BD018E
:102E700089238093BD0108951092BD010895809328
:102E80009C01089510929C01089580919C010895E1
:102E9000909327018093260108958295982F9C7C1A
:102EA000392F36953695282F237344E0249FC0018F
:102EB0001124932F982B292F2A7A2695892F8575EF
:102EC000880F822B089580E090E00E94D52421E0B5
:102ED0008D3E9E4F09F020E0822F089582E090E021
:102EE0000C94CD2483E090E00C94CD2484E090E019
:102EF0000C94CD24682F84E090E00C94DB2486E0D1
:102F000090E00C94CD24682F86E090E00C94DB24B4
:102F1000AB01BC018FE090E00C94ED24AB01BC014F
:102F200083E190E00C94ED2460E070E0CB010C9420
:102F30008E1760E070E0CB010E9488170C94941704
:102F40006DEE7EEF80E090E00E94F92460E082E088
:102F500090E00E94DB2460E083E090E00E94DB24AC
:102F600010929701109298011092990110929A0173
:102F700060E084E090E00E94DB2460E085E090E087
:102F80000E94DB2460E086E090E00E94DB246FEF8B
:102F900087E090E00E94DB2440E050E0BA0188E046
:102FA00090E00E94ED2460E08DE090E00E94DB2440
:102FB0000C9499170C94A017FC01329680910C0187
:102FC000882331F08091ED0187FF02C09EE101C0AE
:102FD00096E080E0915028F021912223D9F38F5F71
:102FE000F9CF08959C01FC0132969FEF80E041915A
:102FF000461789F09F3F19F4411101C0982F8F5F48
:103000008630A9F79F3F39F0F901E90FF11D97FDCF
:10301000FA95628308950895FC01329608962081FE
:10302000261301C010823196E817F907C1F70895F9
:10303000262F2695269526952E3170F4FC01E20F59
:10304000F11D677021E030E001C0220F6A95EAF7B8
:103050008281282B228308958091C00180FF0CC0BB
:103060001F926F938BE292E09F938F930E940405CF
:103070000F900F900F900F900895262F269526956C
:1030800026952E3178F4FC01E20FF11D677021E0E6
:1030900030E001C0220F6A95EAF72095828128234B
:1030A000228308958091C00180FF0CC01F926F930E
:1030B0008DE092E09F938F930E9404050F900F90F4
:1030C0000F900F90089520910C01222329F0209158
:1030D000ED0127FD0C9418180C94F21720910C01A7
:1030E000222329F02091ED0127FD0C943D180C942A
:1030F0000C1820910C01FC013296222331F08091B2
:10310000ED0187FF02C08EE101C086E0DF011D9264
:103110008A95E9F7089508950C948B180E948C18ED
:103120008091F401843061F11092C10120E488E1C2
:1031300090E00FB6F894A895809360000FBE20939E
:10314000600080E00E94230580E00E9499050E94B3
:103150008C1883B7817F846083BF83B7816083BF0E
:103160007894889583B78E7F83BF0FB6F894A8951F
:1031700080916000886180936000109260000FBEB3
:10318000089508950895CF930E94C1180E941F0AC0
:103190000E94C218C0E08C2F0E94AC0A811104C0AA
:1031A000CF5FC630C1F701C081E0CF910895089587
:1031B0000C94D7180E9408110E94741B0E94330BB4
:1031C0000E9499050C94D8181F920F920FB60F9277
:1031D00011248F939F93AF93BF938091C10181116D
:1031E00013C08091E9019091EA01A091EB01B091A7
:1031F000EC014196A11DB11D8093E9019093EA0174
:10320000A093EB01B093EC01BF91AF919F918F918F
:103210000F900FBE0F901F90189582E084BD93E031
:1032200095BD9AEF97BD80936E0008952FB7F894DF
:103230008091E9019091EA01A091EB01B091EC013C
:103240002FBF08952FB7F8946091E9017091EA01BA
:103250008091EB019091EC012FBF0895CF92DF9206
:10326000EF92FF920F931F932FB7F8944091E901CB
:103270005091EA016091EB017091EC012FBF6A015E
:103280007B01EE24FF248C0120E030E0C016D10643
:10329000E206F30610F4415051099A01281B390B3C
:1032A000C9011F910F91FF90EF90DF90CF9008958B
:1032B00078941F920F920FB60F9211248F939F93C1
:1032C000AF93BF938091E9019091EA01A091EB0146
:1032D000B091EC010196A11DB11D8093E90190937D
:1032E000EA01A093EB01B093EC01BF91AF919F91E4
:1032F0008F910F900FBE0F901F90189581E08093D3
:10330000E00080E28093D8001092C9008FE19EE433
:103310000197F1F700C0000087E090EBDC0180939B
:10332000FD019093FE01A093FF01B09300029CE089
:1033300088E10FB6F894A895809360000FBE909333
:103340006000FFCF0E946317811102C00E94DA174C
:103350000E946E178093C0010E94761790E09093B0
:10336000EE018093ED010E947217682F70E080E0FB
:1033700090E00C94E314CF93C82F1F928F938FE4A7
:1033800092E09F938F930E94040581E090E0A0E07B
:10339000B0E0BC01CD0104C0660F771F881F991FE4
:1033A000CA95D2F70E94E3140F900F900F900F90E0
:1033B000CF910C940811CF938732A8F58E3108F085
:1033C00032C1803109F49FC0F8F4873009F465C038
:1033D000A8F4863009F02DC18091C001817F8E7FD5
:1033E0008093C0018CEC93E00E946B0481E296E034
:1033F0000E946B0481E08093C2014DC08B30F1F1DB
:103400008E3009F46CC015C1863109F4B0C020F4C7
:10341000813109F4F0C00DC1893109F491C08B31BB
:1034200009F449C006C1883349F150F4893209F4DE
:10343000FCC0853309F4F9C0873209F4F6C0F9C03D
:10344000833409F4F2C028F48A3308F4F2C08953B3
:10345000EDC0883409F0EDC00E94081185E096E0C7
:103460000E946B042FEF83ED90E321508040904049
:10347000E1F700C000000E947E190DC087EE93E0C6
:103480005CC08CEE95E00E946B048091C001897F46
:10349000877F8093C001C1E0D1C08091C001C82F57
:1034A000C095C170C0FB80F98093C001CC2349F363
:1034B00089EF95E0B2C09091C00191FBCC27C0F993
:1034C00081E0C827892FC0FB81F98093C001CC23FC
:1034D00019F08FED95E027C081ED95E02EC0909119
:1034E000C00192FBCC27C0F981E0C827892FC0FB1F
:1034F00082F98093C001CC2319F082EC95E013C0CF
:1035000082EB95E01AC09091C00193FBCC27C0F9E3
:1035100081E0C827892FC0FB83F98093C001CC23A9
:1035200051F086EA95E00E946B048091C0018160B1
:103530008093C00183C089E995E00E946B04ABCF02
:103540008DEB93E00E946B0484E993E00E946B048E
:1035500085E693E00E946B0482E393E00E946B0493
:1035600080E093E00E946B0485ED92E0E6CF87EC6B
:1035700092E00E946B040E94330B1F928F938DEA9E
:1035800092E09F938F930E94040580910C011F92FB
:103590008F9386E992E09F938F930E940405809118
:1035A000E7011F928F9383E892E09F938F930E948D
:1035B00004058091ED0187FB882780F91F928F9386
:1035C0008BE692E09F938F930E9404050E9422193C
:1035D0009F938F937F936F9384E592E09F938F9354
:1035E0000E9404058DB79EB746960FB6F8949EBF0D
:1035F0000FBE8DBF50CF0E9408119091ED0197FB37
:10360000CC27C0F981E0C827892FC0FB87F98093B8
:10361000ED01CC2329F08FE895E00E946B040EC0E9
:1036200084E895E08ACF8D5101C080E00E94BB19EB
:1036300032CF82E895E00E946B04C0E08C2FCF91DE
:10364000089580E0089580E00895CF93C82F809179
:10365000C201882319F0813049F03EC0E091000199
:10366000F091010180818232C9F507C0E09100012B
:10367000F09101018081823261F48C2F0E94211B24
:10368000811104C08C2F0E94DB1924C081E090E0DE
:1036900021C08C2F0E94231B81111BC0C43189F0D3
:1036A00018F4CB3029F010C0C93259F0C83361F496
:1036B0008CEC93E00E946B048BE492E00E946B041C
:1036C00008C01092C2010CC089E492E00E946B0411
:1036D00007C081E0817006C01092C20180E002C084
:1036E00080E0F8CFCF9108950E946317811102C046
:1036F0000E94DA170E947F178093EF01282F2695EA
:1037000030E02530310524F0817088608093EF012E
:103710008091EF0180FF02C0869501C080E00C948B
:1037200023052091EF01822F8695482F50E04430E9
:10373000510544F48F5F982F990F822F8170892B48
:103740008093EF018091EF0181608093EF010E94EF
:1037500083178091C00180FF0FC08091EF01869593
:103760001F928F938CE896E09F938F930E9404059D
:103770000F900F900F900F908091EF0186950C9411
:1037800023058091EF01982F969591F09158990F0C
:103790008170892B8093EF018E7F91E009F490E096
:1037A0008091EF0190FB80F98093EF010E948317D5
:1037B0008091C00180FF0FC08091EF0186951F921C
:1037C0008F9384E796E09F938F930E9404050F9058
:1037D0000F900F900F908091EF0186950C94230528
:1037E0008091EF0180FD1DC081608093EF018130E9
:1037F00019F483E08093EF018091EF010E94831719
:103800008091C00180FF08C08CE496E09F938F9365
:103810000E9404050F900F908091EF0186950C9403
:10382000230508958091EF0180FF14C08E7F80935F
:10383000EF010E9483178091C00180FF08C089E3D7
:1038400096E09F938F930E9404050F900F9080E065
:103850000C9423050895CF93C091EF01C17080911E
:10386000C00180FF0CC01F92CF938EE596E09F931E
:103870008F930E9404050F900F900F900F90CC2310
:1038800019F0CF910C94121CCF910C94F01B9091D5
:10389000EF01892F86958F5F8F779170853028F49F
:1038A000880F892B8093EF0102C09093EF018091E4
:1038B000EF018E7F91E009F490E08091EF0190FBA1
:1038C00080F98093EF010E9483178091C00180FFEF
:1038D0000FC08091EF0186951F928F9385E296E04D
:1038E0009F938F930E9404050F900F900F900F905D
:1038F0008091EF0186950C942305853008F084E0D3
:10390000880F9091EF019170892B8093EF018E7F4A
:1039100091E009F490E08091EF0190FB80F98093B1
:10392000EF010E9483178091EF0186950C94230587
:103930008091E601089508959FB7F8941092C5010B
:103940009FBF9091F401943009F057C09091E90025
:103950009F703091EC00232F217030FD20E8922BD6
:1039600023E02093E9002091EB0020FF43C0209149
:10397000EE0027FF3FC02091C301222321F02091B8
:10398000E80025FF37C01092C30126E03091E8001F
:1039900035FD15C03091F401343061F53091EB0004
:1039A00035FD28C0215021F481E08093C30122C05D
:1039B000EFE9FFE03197F1F700C00000E7CF809317
:1039C000F1008091E80085FD0AC08091E80080FF49
:1039D000FCCF8091E8008E778093E80006C08FB717
:1039E000F89421E02093C5018FBF9F709093E90068
:1039F00080E008959F709093E9008FEF08950F93F2
:103A00001F93CF93DF9300D01F92CDB7DEB78C0109
:103A10000E94A31F823011F0843021F584E0898355
:103A20001B830A8382E08093E9008FEF9091E80086
:103A3000815095FD06C095ED9A95F1F70000811132
:103A4000F5CF8091E80085FF0DC040E050E063E0D5
:103A500070E0CE0101960E94C01F8091E8008E7731
:103A60008093E8000F900F900F90DF91CF911F91FE
:103A70000F910895CF93DF9300D01F92CDB7DEB79B
:103A80002091F401243031F523E0298380589109F5
:103A90009B838A8382E08093E9008FEF9091E80016
:103AA000815095FD06C095ED9A95F1F700008111C2
:103AB000F5CF8091E80085FF0DC040E050E063E065
:103AC00070E0CE0101960E94C01F8091E8008E77C1
:103AD0008093E8000F900F900F90DF91CF910895A1
:103AE000CF93DF93EC010E94A31F823011F084304A
:103AF000D9F580910C01882339F08091ED0187FF81
:103B000003C060E282E002C068E081E08093E900E7
:103B10008FEF9091E800815095FD06C095ED9A9544
:103B2000F1F700008111F5CF8091E80085FF1CC0FE
:103B300080910C01811105C040E050E068E070E028
:103B400003C070E040E050E0CE010E94C01F8091B1
:103B5000E8008E778093E80080E2FE01A6ECB1E0F9
:103B600001900D928A95E1F7DF91CF91089589EC4C
:103B700096E00E946B048091F301811109C00E94BC
:103B800055210E94B2218091E20084608093E2007E
:103B9000089585EC96E00E946B041092F30108955D
:103BA00081EC96E00C946B048DEB96E00C946B0426
:103BB00089EB96E00E946B040C94DA182091C40102
:103BC0002F5F822F62E30E946B24992319F02093C8
:103BD000C40108951092C4018091C501882371F138
:103BE0008091F401843041F58091E9008F7020913B
:103BF000EC00922F917020FD90E8892B93E0909338
:103C0000E9009091EB0090FF14C09091EE0097FFB7
:103C100010C09091E80095FF03C01092F100F9CF19
:103C20009091E80090FF05C09091E8009E779093F6
:103C3000E8008F708093E9001092C501089542E07A
:103C400061EC81E00E94CF2042E261EC82E00E94C0
:103C5000CF2042E261EC83E00C94CF208091F6010A
:103C6000833009F460C030F4813071F0823009F49F
:103C700099C008958A3009F485C08B3009F46BC06F
:103C8000893009F0A7C020C08091F501813A09F080
:103C9000A1C08091E800877F8093E8008091F901BE
:103CA0009091FA01892B21F460E286EC91E003C047
:103CB00060E080E090E070E00E940B208091E800DE
:103CC0008B778093E80008958091F501813209F0A7
:103CD00081C08091F9019091FA01029708F07AC0B1
:103CE0008091E800877F8093E8008091E80082FD62
:103CF00005C08091F4018111F8CF6CC02091F300D0
:103D00008091F20090E0922B029729F48091F100CB
:103D10008B7F813021F48091F1008093E6018091C6
:103D2000E8008B7753C08091F501813A09F052C0C9
:103D30008091F9019091FA01892B09F04BC0809193
:103D4000E800877F8093E8008091E80080FFFCCF47
:103D500080910C0136C08091F5018132D9F58091B6
:103D6000F9019091FA01892BA9F58091E800877FEC
:103D70008093E8000E9404218091F70180930C0158
:103D80000C9408118091F501813221F58091E800B1
:103D9000877F8093E8000E9404218091F80180933E
:103DA000E70108958091F501813AA1F48091E8003E
:103DB000877F8093E8008091E80080FFFCCF8091AE
:103DC000E7018093F1008091E8008E778093E8000E
:103DD0000C940421089584B7877F84BF0FB6F894AC
:103DE000A8958091600088618093600010926000C7
:103DF0000FBE80E880936100109261000E94C80BA2
:103E00000E9455210E94B2218091E200846080933B
:103E1000E2008CE99CE10E94481778940E944024BB
:103E20000E94CE0B82E091E00E942E0B88EA96E081
:103E30000E946B048091F401853089F484EA96E055
:103E40000E946B040E948E188091F201882391F3E6
:103E50000E94C318882371F30E94AA1FEBCF0E940F
:103E6000FE0BE8CF0C94341F292F33272330310564
:103E7000C9F064F42130310581F02230310509F0B8
:103E800049C08BE590E02BEE36E048C02132310589
:103E900021F12232310571F13DC082E190E026E44A
:103EA00037E03CC099278130910571F02CF4892BC3
:103EB00089F5E7EEF6E00DC08230910541F00397F9
:103EC00049F5EDECF6E005C0EDEDF6E002C0E3EDFE
:103ED000F6E0849190E09F0121C063307105D0F439
:103EE000660F771FFB01E05EFE4F2081318189E084
:103EF00090E014C06330710568F4FB01EE0FFF1F02
:103F0000E65EFE4F20813181FB01E95EFE4F80813C
:103F100090E004C080E090E020E030E0FA013183DE
:103F2000208308950895CF93C82F0E94921FC093B5
:103F3000E801CF9108958091F401843011F081E07F
:103F4000089582E008958091E801811102C00C94E7
:103F50009B1F089580E189BD82E189BD09B400FEFF
:103F6000FDCF8091D8008F7D8093D8008091E000B4
:103F700082608093E0008091E00081FDFCCF089595
:103F8000CF92DF92EF92FF920F931F93CF93DF9325
:103F9000EC018B016A010E942321811133C0C114FD
:103FA000D10439F0F60180819181081B190BC80FEB
:103FB000D91FE12CF12C0115110519F18091E800B0
:103FC00085FD16C08091E8008E778093E800C114CB
:103FD000D10449F0F60180819181E80EF91EF18249
:103FE000E08285E00FC00E942321882321F30AC0CC
:103FF00089918093F10001501109FFEFEF1AFF0A38
:10400000DACF80E0DF91CF911F910F91FF90EF9079
:10401000DF90CF9008952091FB013091FC0126178D
:10402000370748F06115710539F42091E8002E77C3
:104030002093E80001C0B90140E061157105A9F1C4
:104040002091F401222309F443C0253009F442C031
:104050002091E80023FD40C02091E80022FD32C0FD
:104060002091E80020FFE9CF4091F3002091F20079
:1040700030E0342BFC01CF016115710559F0283077
:10408000310540F481918093F100615071092F5FF7
:104090003F4FF1CF41E02830310509F040E0209159
:1040A000E8002E772093E800C8CF4111C9CF0AC09D
:1040B0008091F401882361F0853061F08091E800FF
:1040C00083FD0AC08091E80082FFF2CF80E008956E
:1040D00082E0089583E0089581E008952091FB0136
:1040E0003091FC012617370748F06115710539F446
:1040F0002091E8002E772093E80001C0B901FC016F
:1041000020E06115710591F18091F401882309F493
:1041100040C0853009F43FC08091E80083FD3DC078
:104120008091E80082FD2FC08091E80080FFE9CFF8
:104130002091F3008091F20090E0922B61157105BF
:1041400059F08830910540F424912093F100319684
:10415000615071090196F2CF21E0089709F020E043
:104160008091E8008E778093E800CBCF2111CCCFEF
:104170000AC08091F401882361F0853061F080915C
:10418000E80083FD0AC08091E80082FFF2CF80E062
:10419000089582E0089583E0089581E00895982FBE
:1041A000973058F59093E900981739F07091EC002A
:1041B0002091ED005091F00003C0242F762F50E0A5
:1041C00021FF19C03091EB003E7F3093EB0030911E
:1041D000ED003D7F3093ED003091EB003160309386
:1041E000EB007093EC002093ED005093F0002091D1
:1041F000EE0027FF07C09F5FD3CF8F708093E90049
:1042000081E0089580E008958091F50187FF11C055
:104210008091E80082FD05C08091F4018111F8CF02
:1042200011C08091E8008B770BC08091F401882346
:1042300049F08091E80080FFF8CF8091E8008E7708
:104240008093E80008952091E4003091E50095E620
:104250004091EC00842F817040FF22C08091E800E3
:1042600080FD1CC08091F401882391F0853091F08D
:104270008091EB0085FD10C04091E4005091E50075
:104280004217530729F39A01915011F784E00895DA
:1042900082E0089583E0089581E0089580E0089524
:1042A0004091E80042FFDECF08950E94C3210E94A2
:1042B000CB21E0EEF0E0808181608083E8EDF0E0EA
:1042C00080818F77808319BCA7EDB0E08C918E7FC1
:1042D0008C9380818F7E80831092F30108950F93D9
:1042E0001F93CF93DF930E94C3210E94CB21C8ED7F
:1042F000D0E088818F7788838881806888838881EF
:104300008F7D888319BC1092F4011092F0011092F5
:10431000F2011092F10100EE10E0F80180818B7F34
:10432000808388818160888342E060E080E00E9431
:10433000CF20E1EEF0E080818E7F8083E2EEF0E03E
:10434000808181608083808188608083F8018081A2
:104350008E7F8083888180618883DF91CF911F91D8
:104360000F910895E8EDF0E080818F7E8083E7ED86
:10437000F0E080818160808384E082BF81E080936F
:10438000F3010C946F21E8EDF0E080818E7F808353
:104390001092E20008951092DA001092E100089560
:1043A0001F920F920FB60F9211242F933F934F93AA
:1043B0005F936F937F938F939F93AF93BF93EF938D
:1043C000FF938091E10082FF0BC08091E20082FFA9
:1043D00007C08091E1008B7F8093E1000E94DE1D89
:1043E0008091DA0080FF1FC08091D80080FF1BC041
:1043F0008091DA008E7F8093DA008091D90080FF6F
:104400000DC080E189BD82E189BD09B400FEFDCF08
:1044100081E08093F4010E94B71D05C019BC109281
:10442000F4010E94C91D8091E10080FF19C08091B4
:10443000E20080FF15C08091E2008E7F8093E20051
:104440008091E20080618093E2008091D8008062D8
:104450008093D80019BC85E08093F4010E94D41D9C
:104460008091E10084FF30C08091E20084FF2CC085
:1044700080E189BD82E189BD09B400FEFDCF809154
:10448000D8008F7D8093D8008091E1008F7E80934B
:10449000E1008091E2008F7E8093E2008091E20053
:1044A00081608093E2008091F001882311F084E024
:1044B00007C08091E30087FD02C081E001C083E076
:1044C0008093F4010E94D81D8091E10083FF29C0F0
:1044D0008091E20083FF25C08091E100877F809377
:1044E000E10082E08093F4011092F0018091E100FC
:1044F0008E7F8093E1008091E2008E7F8093E200C6
:104500008091E20080618093E20042E060E080E020
:104510000E94CF208091F00088608093F0000E947C
:10452000D01DFF91EF91BF91AF919F918F917F919E
:104530006F915F914F913F912F910F900FBE0F9010
:104540001F9018951F920F920FB60F9211242F9360
:104550003F934F935F936F937F938F939F93AF930B
:10456000BF93CF93DF93EF93FF93C091E900CF7098
:104570008091EC00D82FD17080FDD0E81092E90036
:104580008091F000877F8093F00078940E94E6226B
:104590001092E9008091F00088608093F000CD2BAC
:1045A000CF70C093E900FF91EF91DF91CF91BF9160
:1045B000AF919F918F917F916F915F914F913F91BB
:1045C0002F910F900FBE0F901F9018951F93CF93B0
:1045D000DF93CDB7DEB7AA970FB6F894DEBF0FBE54
:1045E000CDBFE5EFF1E088E08E0F9091F10091935F
:1045F0008E13FBCF0E942E1E8091E80083FF28C1FE
:104600008091F5019091F601492F50E04A30510513
:1046100008F01EC1FA01E556FF4F0C94AD24803816
:1046200021F0823809F014C108C08091F101909105
:10463000F201992389F082600FC08091F9018F7097
:10464000873008F005C18093E9008091EB0085FB7D
:10465000882780F91092E9009091E800977F909365
:10466000E8008093F1001092F100D0C0282F2D7F38
:1046700009F0EEC0882319F0823061F0E9C0809122
:10468000F701813009F0E4C0933009F080E08093B5
:10469000F2012EC08091F70181112AC08091F901A9
:1046A0008F702FEF280F263008F0D2C08093E900DA
:1046B0002091EB0020FF1CC0933021F48091EB008F
:1046C000806214C09091EB0090619093EB0021E028
:1046D00030E0A90102C0440F551F8A95E2F74093CC
:1046E000EA001092EA008091EB0088608093EB0072
:1046F0001092E9008091E800877F8093E8000E9493
:104700000421A6C08111A4C01091F7011F778091E8
:10471000E3008078812B8093E3008091E800877F1D
:104720008093E8000E9404218091E80080FFFCCF84
:104730008091E30080688093E300111102C082E061
:1047400001C083E08093F40183C08058823008F078
:104750007FC08091F7019091F8018C3D53E095075F
:1047600079F583E08A838AE289834FB7F894DE0182
:10477000139620E03EE051E2E32FF0E05093570023
:10478000E49120FF03C0E295EF703F5FEF708E2F42
:1047900090E0EA3010F0C79601C0C0968D939D93CB
:1047A0002F5F243149F74FBF8091E800877F8093C6
:1047B000E8006AE270E0CE0101960E940B2015C06D
:1047C0006091F9017091FA01AE014F5F5F4F0E9455
:1047D000321FBC01892BE1F19091E800977F909303
:1047E000E80089819A810E946E208091E8008B7791
:1047F0008093E8002DC0803859F58091E800877FCC
:104800008093E8008091F0018093F1008091E800AE
:104810008E7773CF81111CC09091F7019230C0F454
:104820008091E800877F8093E8009093F0010E94D8
:1048300004218091F001811106C08091E30087FD81
:1048400002C081E001C084E08093F4010E941F1E39
:104850008091E80083FF0AC08091E800877F809301
:10486000E8008091EB0080628093EB00AA960FB67F
:10487000F894DEBF0FBECDBFDF91CF911F91089599
:10488000CF938091F4018823A1F0C091E900CF700B
:104890009091EC00892F817090FD80E8C82B1092D8
:1048A000E9008091E80083FD0E94E622CF70C0936A
:1048B000E900CF910895DB018F939F930E94C2245A
:1048C000BF91AF91A29F800D911DA39F900DB29FAC
:1048D000900D11240895991B79E004C0991F961733
:1048E00008F0961B881F7A95C9F780950895AA1B32
:1048F000BB1B51E107C0AA1FBB1FA617B70710F0CB
:10490000A61BB70B881F991F5A95A9F780959095FC
:10491000BC01CD010895A1E21A2EAA1BBB1BFD010B
:104920000DC0AA1FBB1FEE1FFF1FA217B307E4078E
:10493000F50720F0A21BB30BE40BF50B661F771FE6
:10494000881F991F1A9469F76095709580959095C6
:104950009B01AC01BD01CF010895EE0FFF1F059033
:10496000F491E02D0994A29FB001B39FC001A39FD1
:10497000700D811D1124911DB29F700D811D112498
:10498000911D08950E94B324A59F900DB49F900D92
:10499000A49F800D911D11240895F999FECF92BD19
:1049A00081BDF89A992780B50895A8E1B0E042E06A
:1049B00050E00C940125262FF999FECF92BD81BDC0
:1049C000F89A019700B4021639F01FBA20BD0FB64D
:1049D000F894FA9AF99A0FBE08950396272F0E9429
:1049E000DC240E94DB24252F0E94DC24242F0C943D
:1049F000DC240196272F0E94DC240C94DB24DC01AC
:104A0000CB01FC01F999FECF06C0F2BDE1BDF89AD9
:104A1000319600B40D9241505040B8F70895F89483
:024A2000FFCFC6
:104A22009D01981C701D9B1C3A1DFF1C01F1F0C6D4
:104A320067F7F6F5F49590407122EB077A0758076D
:064A4200FD0616072F0718
:00000001FF
