:100000000C942E060C9475060C9475060C947506CB
:100010000C9475060C9475060C9475060C94750674
:100020000C9475060C9475060C9499260C946B2709
:100030000C94D5190C9475060C9475060C947506E1
:100040000C9475060C9475060C9475060C94750644
:100050000C9475060C94491A0C9475060C9475064C
:100060000C9475060C9475060C9475060C94750624
:100070000C9475060C9475060C9475060C94750614
:100080000C9475060C9475060C9475060C94750604
:100090000C9475060C9475060C9475060C947506F4
:1000A0000C9475060C9475060C947506DE07E00733
:1000B000EB07E207E407E607E807EA07ED07EF07C3
:1000C000F107FC07F307F507F707F907FB07FE073A
:1000D0004710471081108110C010E01053125312C6
:1000E00022115312D211D2114512531253124D1232
:1000F000DF11DF11DF11DF11DF11DF11DF11DF1180
:10010000DF11DF11DF11DF11DF11DF11DF11DF116F
:10011000F111FF1106120D121712E612E612F81273
:10012000F812EF12F812F812F812E612E612F412B0
:10013000F812F812F412D827FF27F128FF27F12828
:100140004B286E28F128C428D32814001A00080070
:100150001500170000001C0018000C00120013000E
:1001600004001600070009000A0000000B000D0043
:100170000E000F0033001D001B00060019000500D3
:10018000E0001100100036003700380029002B0075
:10019000E300E1002A00E2002C0001512D003400B0
:1001A00028001E021F0252002F02300200004B00E6
:1001B00024002500260025022002500051004F0097
:1001C000210200004E002100220023002E022F00F9
:1001D0003000260227022402E00035001E001F0026
:1001E0002000310002534900E300E1002A00E20050
:1001F0002C000100370027002E0049004A00520061
:100200004D004B00000052004000410042004300FE
:100210004C00500051004F005100000051003D00C3
:100220003E003F0044000000A90000000000005C08
:10023000E00000003A003B003C0045000000AA003E
:10024000E300E1002A00E2002C00105046004700C5
:10025000480044454255473A20656E61626C6564CA
:100260002E0A000A002530313662003A200025307F
:100270003258000A722F632030313233343536372A
:1002800038394142434445460A000A002530325875
:1002900020006B6579626F6172645F7265706F7266
:1002A000743A20000A0025303258006B6579626F7D
:1002B0006172645F7365745F6C65643A20006465A5
:1002C0006C5F6B65795F6269743A2063616E277455
:1002D0002064656C3A20253032580A006164645FFE
:1002E0006B65795F6269743A2063616E277420617F
:1002F00064643A20253032580A00290A0025750026
:100300002F002575005D280025640020002564006D
:10031000200025640020002564007C002530325830
:10032000006D6F7573656B6579205B62746E7C78A8
:100330002079207620685D287265702F61636C29B2
:100340003A205B006D6B5F776865656C5F74696D03
:10035000655F746F5F6D6178203D2025640A006DD4
:100360006B5F776865656C5F6D61785F73706565FD
:1003700064203D2025640A006D6B5F74696D655FC4
:10038000746F5F6D6178203D2025640A006D6B5F9E
:100390006D61785F7370656564203D2025640A0097
:1003A0006D6B5F696E74657276616C203D202564AB
:1003B0000A006D6B5F64656C6179203D2025640ADD
:1003C000006D6B5F776865656C5F74696D655F7400
:1003D0006F5F6D6178203D2025640A006D6B5F774B
:1003E0006865656C5F6D61785F7370656564203DFD
:1003F0002025640A006D6B5F74696D655F746F5FC3
:100400006D6178203D2025640A006D6B5F6D617819
:100410005F7370656564203D2025640A006D6B5F25
:10042000696E74657276616C203D2025640A006DEA
:100430006B5F64656C6179203D2025640A000A00C9
:10044000257500363A20776865656C5F74696D655F
:100450005F746F5F6D61783A20000A002575003582
:100460003A20776865656C5F6D61785F737065656C
:10047000643A20000A00257500343A2074696D65DD
:100480005F746F5F6D61783A20000A002575003354
:100490003A206D61785F73706565643A20000A00E8
:1004A000257500323A20696E74657276616C286D2C
:1004B00073293A20000A00257500313A2064656CE2
:1004C0006179282A31306D73293A20000A092D20DC
:1004D00056616C756573202D0A004D3E004D2564F4
:1004E0003E20003F007365742064656661756C741E
:1004F0000A00433E200077686572652064656C746D
:10050000613A20637572736F723D25642C207768A1
:1005100065656C3D25640A53656520687474703A9E
:100520002F2F656E2E77696B6970656469612E6F18
:1005300072672F77696B692F4D6F7573655F6B6598
:1005400079730A000A092D204D6F7573656B657903
:10055000202D0A4553432F713A09717569740A3188
:100560003A0964656C6179282A31306D73290A3241
:100570003A09696E74657276616C286D73290A3365
:100580003A096D61785F73706565640A343A09747D
:10059000696D655F746F5F6D61780A353A097768D8
:1005A00065656C5F6D61785F73706565640A363A86
:1005B00009776865656C5F74696D655F746F5F6D01
:1005C00061780A0A703A097072696E742076616CFB
:1005D0007565730A643A09736574206465666175AC
:1005E0006C74730A75703A092B310A646F776E3A2E
:1005F000092D310A706775703A092B31300A70671E
:10060000646F776E3A092D31300A0A73706565643C
:10061000203D2064656C7461202A206D61785F73D1
:1006200070656564202A2028726570656174202FCA
:100630002074696D655F746F5F6D6178290A003F92
:10064000004D3E2000433E20004C25640A007469A2
:100650006D65725F72656164333228293A202530F6
:10066000346C580A006B65796D61705F636F6E66FC
:1006700069672E6E6B726F3A2025580A006B657998
:10068000626F6172645F69646C653A2025580A0084
:100690006B6579626F6172645F70726F746F636FA4
:1006A0006C3A2025580A00686F73745F6B65796235
:1006B0006F6172645F6C65647328293A2025580A5B
:1006C000000A092D20537461747573202D0A0047A8
:1006D00043433A20342E392E32204156522D4C4974
:1006E00042433A20322E302E30204156525F415242
:1006F00043483A20617672350A004F5054494F4EB4
:10070000533A204C554641204D4F5553454B455982
:100710002045585452414B455920434F4E534F4C5E
:100720004520434F4D4D414E44204E4B524F2034B7
:100730003039360A004255494C443A2022302E3591
:100740002E3139392D322D67393763366238222000
:100750002830323A31353A34302044656320323221
:100760002032303137290A005649443A2030783156
:1007700032303928546563686E6F6D616E63792914
:10078000205049443A20307841314535284174722F
:1007900065757329205645523A203078303030380C
:1007A0000A00444553433A20712E6D2E6B2E206B68
:1007B0006579626F617264206669726D77617265D6
:1007C00020666F72204174726575730A000A092DE4
:1007D0002056657273696F6E202D0A000A092D205C
:1007E000436F6E736F6C65202D0A4553432F713A2A
:1007F00009717569740A6D3A096D6F7573656B657A
:10080000790A000A092D204D61676963202D0A4489
:100810003A094465627567204D65737361676520A9
:10082000546F67676C650A583A094D61747269784C
:10083000204465627567204D6F646520546F67675B
:100840006C65202D2053686F77206B657970726519
:100850007373657320696E206D61747269782067A7
:100860007269640A4B3A094B6579626F6172642060
:10087000446562756720546F67676C65202D20534F
:10088000686F77206B65797072657373207265701D
:100890006F72740A4D3A094465627567204D6F7531
:1008A000736520546F67676C650A563A095665721E
:1008B00073696F6E0A533A095374617475730A430E
:1008C0003A09416374697661746520436F6E736F92
:1008D0006C65204D6F64650A46312D4631303A090A
:1008E00053776974636820746F204C617965722056
:1008F000302D392028463130203D204C30290A3017
:100900002D393A0953776974636820746F204C61FC
:1009100079657220302D390A4553433A0953776976
:1009200074636820746F204C6179657220302028D0
:10093000616C7465726E617465206B657920312914
:100940000A47524156453A095377697463682074DF
:100950006F204C6179657220302028616C7465725B
:100960006E617465206B65792032290A50415553B8
:10097000453A094A756D7020746F20426F6F746C30
:100980006F6164657220285265736574290A4E3A56
:10099000094E4B524F20546F67676C650A003F0049
:1009A0004E4B524F3A206F66660A004E4B524F3AFA
:1009B000206F6E0A000A6D6F7573653A206F666668
:1009C0000A000A6D6F7573653A206F6E0A000A6B34
:1009D0006579626F6172643A206F66660A000A6B1D
:1009E0006579626F6172643A206F6E0A000A6D6108
:1009F000747269783A206F66660A000A6D617472D3
:100A000069783A206F6E0A000A64656275673A2059
:100A10006F66660A000A64656275673A206F6E0A3F
:100A2000000A0A4A756D70696E6720746F20626FE4
:100A30006F746C6F616465722E2E2E2000433E2011
:100A4000005B735D004B6579626F61726420737443
:100A50006172742E0A005B575D005B535D005B5250
:100A60005D005B445D005B435D00040330000000FB
:100A70000E034100740072006500750073000000F1
:100A8000180354006500630068006E006F006D007D
:100A900061006E006300790000000403090409028C
:100AA0008D00050100A0FA09040000010301010006
:100AB0000921110100012240000705810308000AF5
:100AC00009040100010301020009211101000122B2
:100AD0004D000705820308000A0904020001030013
:100AE00000000921110100012236000705830308D7
:100AF000000A09040300020300000009211101009B
:100B000001222200070584032000010705040320B9
:100B10000001090404000103000000092111010083
:100B20000122390007058503200001120110010090
:100B30000000080912E5A1080001020301050109EE
:100B400006A101050719E029E7150025019508759B
:100B50000181020508190129059505750191029584
:100B600001750391010507190029F7150025019565
:100B7000F875018102C00631FF0974A101097515DC
:100B80000026FF009520750881020976150026FFD2
:100B900000952075089102C005010980A101850218
:100BA0001601002603001A81002A830075109501A2
:100BB0008100C0050C0901A1018503160100269CD6
:100BC000021A01002A9C02751095018100C00501DE
:100BD0000902A1010901A100050919012905150052
:100BE00025019505750181029501750381010501B6
:100BF000093009311581257F95027508810609386C
:100C00001581257F950175088106050C0A380215A6
:100C100081257F950175088106C0C005010906A1DF
:100C200001050719E029E7150025019508750181DF
:100C300002950175088101050819012905950575B9
:100C40000191029501750391010507190029FF150E
:100C50000026FF00950675088100C00011241FBE04
:100C6000CFEFDAE0DEBFCDBF04B603FE27C0809130
:100C70002C0290912D02A0912E02B0912F0287306C
:100C8000904BA740B04BD1F410922C0210922D0241
:100C900010922E0210922F0214BE84B7877F84BF59
:100CA0000FB6F894A89580916000886180936000E9
:100CB000109260000FBEE0E0F8E3099511E0A0E0BB
:100CC000B1E0ECE2F3E502C005900D92A634B10765
:100CD000D9F722E0A6E4B1E001C01D92AC32B20720
:100CE000E1F70E94B6230C9494290C940000FF9322
:100CF000EF93E0914601F0914701309709F0099593
:100D0000EF91FF910895FC018591803011F0EFDFA4
:100D1000FBCF0895FF27E0E230E247FF0CC041958A
:100D200097FF09C0EDE26095709580959095611DE3
:100D3000711D811D911D27FF02C0219530E350E2F6
:100D4000AA27660F771F881F991FAA1FA41710F0E4
:100D5000A41B63955A95A9F7AA3008F0A95FA05D76
:100D6000AF93F395611571058105910541F7ED325A
:100D700011F4EF93F395F21718F43F93F395FBCF2B
:100D80008F91B5DFFA95E1F70895E991F991859191
:100D9000803021F0853219F0AADFF9CF089520E0E4
:100DA000E89455915532C1F3503311F4689455913C
:100DB0005A3348F4505390F3220F022E220F220F81
:100DC000200D250FF4CF0EF421958991999153367A
:100DD00019F3533729F1533559F1BC018827992765
:100DE000E8945C3621F48991999168945591543630
:100DF00039F446EF7EF077FF0DC08FEF9FEF0AC00A
:100E000055374AE039F0583540E121F0523642E09A
:100E100009F00895FF93EF937DDFEF91FF91B7CF36
:100E2000FF93EF93FC0181918030B9F360DFFBCF3A
:100E3000FF93EF9368DFF1CFDF93CF93CDB7DEB7AA
:100E40002596A3DFCF91DF91089561110BC0FC01BE
:100E50008281882321F085EE0E948C0E03C085EEEE
:100E60000E949B0F80E090E0089581E0089581E06A
:100E700008950C9437070E94D4122FEF84E39CE06E
:100E8000215080409040E1F700C0000087E797E7DD
:100E900090930108809300080C946F1A0F931F938E
:100EA000CF93DF938C01FC01C081D181CE010E94E0
:100EB0009A17BE010E94B708EC01B8010E943907D9
:100EC000882309F444C1B801CE010E94130B882382
:100ED00009F43DC1C531FCE5DF0791F50E944C18CE
:100EE000282FF8018281409100015091010188234F
:100EF00079F02A7A91E009F490E0909348019111F9
:100F000002C069E201C065E3CA010E946E190AC00D
:100F100080914801811102C069E201C065E3CA0104
:100F20000E9479190E94191881E080934D018093E5
:100F30004E01C801DF91CF911F910F910C9435079D
:100F4000C6318CE5D80708F075C0C130ECE5DE0786
:100F500079F4F8018281882309F4F9C08091E401D1
:100F600081608093E40182E592E00E948306EFC0F5
:100F7000C230FCE5DF0708F451C0F8018281882304
:100F8000C1F20E94D418811102C00E94BA180E94B6
:100F9000E71890E090931E0280931D02FE01E3503B
:100FA000FC45E231F10530F4EA5AFF4F80911D0211
:100FB0000C94442980911D02816027C0826025C065
:100FC000846023C0806121C080621FC080641DC016
:100FD00080681BC08460886018C08E7F16C08D7FBB
:100FE00014C08B7F12C08F7E10C08F7D0EC08F7B90
:100FF0000CC08F770AC08B7F877F07C087FB2227B3
:1010000020F991E0922790FB87F980931D0280914F
:101010001D020E94EB180E94D41299C0C115DC4534
:1010200009F082CFF8018281882309F490C00E94E0
:101030003B078DC0CA3DECE5DE0759F5F80182811A
:10104000882361F010924E010E94071A90934C0180
:1010500080934B0180E20E94FA0F79C080914E018B
:10106000882321F080E20E94011071C080914B0121
:1010700090914C010E941F1A883C910598F780E2DC
:101080000E94011088E20E948C0E88E20E949B0F51
:101090005EC0CB3DFCE5DF0708F044C0C83D8CE5F1
:1010A000D80719F5F8018281882351F010924D017B
:1010B0000E94071A90934A018093490182E0CBCFA6
:1010C00080914D0181110FC08091490190914A0199
:1010D0000E941F1A883C910530F486E20E948C0E13
:1010E00086E20E949B0F82E0BECFC93DDC4509F03D
:1010F0001BCFF80182818111A5CF80914E01811112
:10110000B1CF80914B0190914C010E941F1A883CF5
:10111000910508F0A7CF87E20E948C0E87E20E941B
:101120009B0FA0CFCD3DFCE5DF0731F4F8018281B4
:10113000882369F080E009C0CE3DDC4509F0F4CE9B
:10114000F8018281882319F082E00E945C2480E00B
:10115000DF91CF911F910F9108950C94630B0C9424
:10116000660B08950C94B1080C94B20808959BE0A6
:10117000799FF00111249CE2899FE00DF11D11245B
:10118000E60FF11DEE0FFF1FE65BFE4F8591949178
:101190000895880F991FFC01E65BFE4F859194919D
:1011A0000895CF93DF930E94B7080E94690AEC016B
:1011B000811520E49207B0F5811540E3940708F00B
:1011C000E1C0803E9105D0F4803C910508F06FC0ED
:1011D000883A910570F4853A910508F06BC081302A
:1011E000910509F472C108F429C1049708F06DC192
:1011F00025C18D3B910508F468C020C18F3F910542
:1012000009F048F4803F910508F0B6C0883E91058A
:1012100008F45BC113C1811550E2950708F455C16C
:101220009F70ACC0811564E59607D8F4C11583E5BD
:10123000D80708F0E2C0C11521E5D20740F4C11576
:1012400040E5D40708F0A7C0DF70D06A3EC1C115E1
:1012500052E5D50708F0BBC0DC2FCC27C16FD06AA0
:1012600034C1811566E5960750F4C11585E5D807A8
:1012700008F0D9C0DC2FCC27C46FD06A26C18115F5
:1012800028E5920708F4DAC0811549E5940708F4C7
:10129000D0C090568115904208F0D0C08D2F8F712C
:1012A0000E94E60ADD27D0628F71D82B0EC1805CC8
:1012B000910964C0853A910509F4C3C0863A910545
:1012C00009F0C2C0C2E8D0E400C1883A910509F42F
:1012D000BEC0893A910509F4BDC08A3A910509F466
:1012E000BCC08B3A910509F4BBC08C3A910509F456
:1012F000BAC08B3B910509F4B9C08C3B910509F448
:10130000B8C08D3A910509F4B7C0803B910509F446
:10131000B6C08E3A910509F4B5C08F3A910509F42B
:10132000B4C0813B910509F4B3C0823B910509F437
:10133000B2C0833B910509F4B1C0843B910509F427
:10134000B0C0853B910509F4AFC0863B910509F417
:10135000AEC0873B910509F4ADC0883B910509F407
:10136000ACC0893B910509F4ABC08A3B910509F4F7
:10137000AAC0C0E0D4E4A9C0D065A7C00E94C90833
:10138000EC01A3C09927D3FF03C0EC01D86C9DC02A
:10139000EC01D06C9AC02C2F237081E090E002C049
:1013A000880F991F2A95E2F79C689E0144E03695C4
:1013B00027954A95E1F72370922BCF70C695C69575
:1013C00060E2C69FE0011124C82BD92B7EC02C2FD0
:1013D0002695269580E2289F90011124C370DD2771
:1013E00081E090E0AC0102C0440F551FCA95E2F7BE
:1013F000EA01C22BD32BDC6868C02C2F26952695DA
:1014000080E2289F90011124C370DD2781E090E0E5
:10141000AC0102C0440F551FCA95E2F7EA01C22B86
:10142000D32BDA6852C0CF71DD27DC2FCC27D062F6
:101430004CC0DC2FCC27C06FD06A47C0C0E0D0E0E2
:1014400044C0C1E8D0E441C0C3E8D0E43EC0C2EE2D
:10145000D4E43BC0C9EED4E438C0CAEED4E435C00D
:10146000C5EBD4E432C0C6EBD4E42FC0C3EBD4E464
:101470002CC0C4EBD4E429C0C7EBD4E426C0CCEC28
:10148000D4E423C0CDECD4E420C0C3E8D5E41DC02F
:10149000CAE8D5E41AC0C2E9D5E417C0C4E9D5E466
:1014A00014C0C1E2D6E411C0C3E2D6E40EC0C4E267
:1014B000D6E40BC0C5E2D6E408C0C6E2D6E405C057
:1014C000C7E2D6E402C0CAE2D6E4CE01DF91CF91F2
:1014D00008958238910549F1B0F48133910509F4FA
:1014E00058C048F48932910509F44EC08A329105FA
:1014F00009F454C008958533910509F440C0893337
:10150000910599F00895833E910529F138F4803EC4
:10151000910591F0823E9105A1F00895863E9105D6
:10152000F9F0873E910531F1089520911D0220FDCB
:101530003AC021FD38C0089580911D0280FD35C05C
:1015400032C080911D0282FF32C080911D0284FD55
:1015500030C083EE39C080911D0282FD28C0F5CFD6
:1015600080911D0283FF27C080911D0284FD21C050
:1015700087EE2AC080911D0283FD1DC0F5CF8091AA
:101580001D0285FD1AC01BC080911D0285FD17C07C
:1015900014C080911D0286FD14C015C080911D02EB
:1015A00086FD11C00EC080EE0FC089E30DC082EE33
:1015B0000BC080E009C086EE07C089E205C085E364
:1015C00003C08AE201C081E390E00895CF93C82F61
:1015D0000E94E71890E090931E0280931D0282FF04
:1015E0000DC09C2F9871983019F4C77FC46006C055
:1015F0009C2F9471943011F4CB7FC86083FF0DC091
:101600009C2F9871983119F4C77EC46106C09C2F35
:101610009471943111F4CB7EC86184FDC77E8C2F08
:10162000CF91089508950F931F93CF93FB012281CB
:10163000211102C0C1E041C08C01C0915C01C11107
:1016400025C086319C45B1F70E94120B81E0809342
:101650005C010E94071A90935B0180935A011092DB
:101660004F011092510110925001109253011092AB
:10167000520110925501109254011092570110928C
:101680005601109259011092580117C080915A01C9
:1016900090915B010E941F1A883C910558F6909129
:1016A0004F01E92FF0E0EE0FFF1FE05BFE4F1183CB
:1016B00000839F5F90934F01C0E08C2FCF911F91CB
:1016C0000F91089508950C94620B08950C94650B86
:1016D00085B7806885BF85B7806885BFAEE1B1E01A
:1016E00041E050E024E02A0F8D91E82FE295EF7061
:1016F000F0E031A18F70BA0102C0660F771F8A95A2
:10170000E2F7CB01962F9095932391A392A1892B79
:1017100082A32A13E9CFA3E1B1E041E050E02BE03E
:101720002A0F8D91E82FE295EF70F0E031A18F70D4
:10173000BA0102C0660F771F8A95E2F7CB01962F98
:101740009095932391A392A1892B82A32A13E9CF89
:10175000109266011092650110925E0110925D0177
:1017600010926801109267011092600110925F015F
:1017700010926A0110926901109262011092610147
:1017800010926C0110926B0110926401109263012F
:101790000C94AD084F925F927F928F929F92AF927E
:1017A000BF92CF92DF92EF92FF920F931F93CF934E
:1017B000DF932EE1E22E21E0F22ECDE5D1E001E033
:1017C00010E0992493946E01A880B9801982188240
:1017D000D7018D917D01E82FE295EF70F0E021A116
:1017E0008F70A80102C0440F551F8A95E2F7CA0105
:1017F000242B21A322A1842E8094282122A350EA05
:101800005A95F1F793E1492E91E0592E20E030E00E
:10181000D2017D912D01472F42954F7050E0DA01A2
:1018200090967C90488159817F70D80102C0AA0FA0
:10183000BB1F7A95E2F7BD01672141F4B801022E82
:1018400002C0660F771F0A94E2F702C060E070E002
:10185000462B572B598348832F5F3F4F2B30310541
:10186000B9F691A1892281A292A1892B82A3229605
:10187000F60180819181A816B90641F090926D0120
:101880000E94071A90936F0180936E01F1E0C536B4
:10189000DF0709F098CF80916D01882351F1809185
:1018A0006E0190916F010E941F1A069710F18091AE
:1018B0005D0190915E019093660180936501809136
:1018C0005F0190916001909368018093670180911E
:1018D00061019091620190936A0180936901809106
:1018E00063019091640190936C0180936B0110925D
:1018F0006D010E94AF0881E0DF91CF911F910F91A0
:10190000FF90EF90DF90CF90BF90AF909F908F901F
:101910007F905F904F900895E82FF0E0EE0FFF1F4B
:10192000EB59FE4F808191810895CF92DF92EF9223
:10193000FF920F931F93CF93DF9383E792E00E9470
:10194000830685E6E82E81E0F82EC0E0D0E09EE632
:10195000C92E92E0D92E05E612E0DF93CF93DF92F5
:10196000CF920E941C078BE692E00E948306F7014B
:10197000819191917F010E94A0189F938F931F9353
:101980000F930E941C0783E692E00E948306219633
:101990008DB79EB708960FB6F8949EBF0FBE8DBF49
:1019A000C430D105D1F6DF91CF911F910F91FF90F7
:1019B000EF90DF90CF90089590937501809374011C
:1019C0000895E0917401F0917501309721F0019034
:1019D000F081E02D099480E00895EF92FF920F933B
:1019E0001F93CF93DF93E0917401F09175013097CD
:1019F000B1F18C010280F381E02D09958091E40121
:101A000082FF2DC080FF04C082E992E00E9483061D
:101A1000E80110E28CE8E82E82E0F82E8091E401E3
:101A200080FF0BC088811F928F93FF92EF920E94DC
:101A30001C070F900F900F900F90115021961111CD
:101A4000EDCF8091E40180FF0AC08AE892E0DF9147
:101A5000CF911F910F91FF90EF900C948306DF912F
:101A6000CF911F910F91FF90EF900895E091740135
:101A7000F0917501309721F00480F581E02D0994F3
:101A8000089520917201309173018217930771F0CC
:101A90009093730180937201E0917401F09175014C
:101AA000309721F00680F781E02D09940895209168
:101AB0007001309171018217930771F09093710159
:101AC00080937001E0917401F0917501309721F0DD
:101AD0000084F185E02D0994089508950C946D0D0E
:101AE00081E008950E94FE190E94680B0C94801AF0
:101AF000CF93C82F8091E40182FF1EC080FF04C0F5
:101B00008BEA92E00E9483068091E40180FF0CC082
:101B10001F92CF9386EA92E09F938F930E941C07B7
:101B20000F900F900F900F908091E40180FF04C000
:101B300084EA92E00E9483068C2FCF910C94B40823
:101B40004F925F927F928F929F92AF92BF92CF926D
:101B5000DF92EF92FF920F931F93CF93DF93CDB756
:101B6000DEB72A970FB6F894DEBF0FBECDBF0E9436
:101B7000CA0B0E94700D811111C08FEF89838A8377
:101B80001B820E94071A8160782F9D838C83498174
:101B90005A816B818D810E945E0E57C097E7C92ED6
:101BA00091E0D92E00E010E0AA24A394B12C702E6D
:101BB000802F0E948C0C4C01F601419051906F01D6
:101BC000482659264114510431F40F5F1F4F043049
:101BD000110569F7D2CF8091E40181FD0E94950C37
:101BE00020E030E07501022E02C0EE0CFF1C0A94CA
:101BF000E2F7C70184219521892B09F12E837F8289
:101C00008E209F2091E0892809F490E098870E9417
:101C1000071A8160782F9A8789874E815F8168854E
:101C20008A850E945E0E000F111FF801E958FE4FD1
:101C300080819181E826F926F182E08206C02F5F3B
:101C40003F4F2B30310571F6C0CF0E94951C10918B
:101C500076010E94E10C1817D9F00E94E10C8093E4
:101C600076012A960FB6F894DEBF0FBECDBFDF9186
:101C7000CF911F910F91FF90EF90DF90CF90BF9089
:101C8000AF909F908F907F905F904F900C94780DC5
:101C90002A960FB6F894DEBF0FBECDBFDF91CF916D
:101CA0001F910F91FF90EF90DF90CF90BF90AF907A
:101CB0009F908F907F905F904F900895CF93DF9388
:101CC000CDB7DEB72B970FB6F894DEBF0FBECDBFF2
:101CD0004F83588769877A878B87DE01119686E064
:101CE000FD0111928A95E9F785E0FE013796019092
:101CF0000D928A95E1F749815A816B817C818D81B2
:101D00009E810E946C152B960FB6F894DEBF0FBE15
:101D1000CDBFDF91CF910895CF93DF931F92CDB7C1
:101D2000DEB7882309F403C1682F8238C1F40E940A
:101D3000E10C81FDFCC069E38091000190910101FB
:101D40000E946E190E9419182FEF81EE94E0215025
:101D500080409040E1F700C0000069E319C083387B
:101D600011F50E94E10C80FDE2C063E58091000165
:101D7000909101010E946E190E9419182FEF81EEB7
:101D800094E0215080409040E1F700C0000063E5FE
:101D900080910001909101010E9479190F90DF91CB
:101DA000CF910C9419188438C1F40E94E10C82FD83
:101DB000BEC067E480910001909101010E946E19FC
:101DC0000E9419182FEF81EE94E02150804090403E
:101DD000E1F700C0000067E4DBCF8CEF860F813AAB
:101DE00070F4862F69830E94DC1F698181119FC076
:101DF00080910001909101010E946E19CFCF80E285
:101E0000860F883048F4677081E001C0880F6A95BA
:101E1000EAF70E944F18C2CF8BE5860F833088F413
:101E2000653A29F0663A31F083E890E005C081E830
:101E300090E002C082E890E00F90DF91CF910C9487
:101E4000410D88E5860F853108F071C0683A61F16F
:101E5000693A69F16A3A71F16B3A79F16C3A81F158
:101E60006B3B89F16C3B91F16D3A99F1603BA1F1CB
:101E70006E3AA9F16F3AB1F1613BB9F1623BC1F140
:101E8000633BC9F1643BD1F1653BD9F1663BE1F1BC
:101E9000673BE9F1683BF1F1693BF9F16A3B09F411
:101EA0003FC080E090E03EC082EE90E03BC089EE13
:101EB00090E038C08AEE90E035C085EB90E032C00B
:101EC00086EB90E02FC083EB90E02CC084EB90E099
:101ED00029C087EB90E026C08CEC90E023C08DEC0D
:101EE00090E020C083E891E01DC08AE891E01AC02C
:101EF00082E991E017C084E991E014C081E292E0A8
:101F000011C083E292E00EC084E292E00BC085E251
:101F100092E008C086E292E005C087E292E002C04B
:101F20008AE292E00F90DF91CF910C94570D0F90C1
:101F3000DF91CF910895882309F45BC0682F823820
:101F400079F40E94E10C81FF54C069E380910001A3
:101F5000909101010E946E190E94191869E310C046
:101F60008338B1F40E94E10C80FF43C063E58091A7
:101F70000001909101010E946E190E94191863E5F9
:101F800080910001909101010E9479190C94191817
:101F9000843879F40E94E10C82FF2BC067E48091C1
:101FA0000001909101010E946E190E94191867E4C6
:101FB000E7CF8CEF860F813A18F380E2860F8830E6
:101FC00048F4677081E001C0880F6A95EAF70E94C3
:101FD0005518DCCF8BE5860F833020F480E090E04D
:101FE0000C94410D685A653120F480E090E00C9427
:101FF000570D0895882321F00E944F180C9419184A
:102000000895882321F00E9455180C9419180895FA
:102010004F925F926F927F92AF92BF92CF92DF9278
:10202000EF92FF920F931F93CF93DF931F92CDB741
:10203000DEB77C01A72EFC01058102950F7012818D
:10204000112321F069830E946C18698169830E94C1
:1020500012186981882381F0112371F080E2860FC4
:10206000883050F082E00E94FB170E94121891E025
:10207000B82EB926698101C0B12CCA2CC2948FE058
:10208000C822D12CF601E859FF4F0C9444298A2D1F
:10209000807F0A2D0F70882311F00295007F112395
:1020A000C1F0002309F4DCC180E2860F883010F013
:1020B000611105C0802F69830E944F1804C0802FD2
:1020C00069830E945F18698169830E941918698178
:1020D000C7C1862F69830E949B0F6981002309F481
:1020E000E2C180E2860F883010F0611104C0802FB9
:1020F0000E94551803C0802F0E9465180E9419186D
:10210000D2C18A2D807F9A2D9F70803211F4892F41
:1021100003C0892F8295807F662319F06130B1F06A
:102120001FC0112349F0002309F452C1013009F006
:102130004FC10E947F18B7C1002319F0013009F484
:10214000B2C189830E948218898148C1112321F07C
:10215000063008F0A8C13CC1053008F0A4C13EC15A
:10216000112351F0002309F433C1F701958190FF49
:1021700077C19F7095832CC1002309F42FC181C1C1
:102180008A2D86958695837090E0009719F00197C7
:1021900061F089C1112321F0862F9A2D937002C01E
:1021A00080E090E00E94410D8EC1112321F0862F26
:1021B0009A2D937002C080E090E00E94570D83C179
:1021C0001123F9F0653F51F0663F71F0643FA9F4C7
:1021D000809117029091180281600BC080911702C4
:1021E00090911802826005C08091170290911802A8
:1021F00084609093180280931702862F0E941B1B05
:102200001EC0653F51F0663F71F0643FA9F48091B4
:102210001702909118028E7F0BC080911702909147
:1022200018028D7F05C080911702909118028B7F54
:102230009093180280931702862F0E94831B0E949E
:10224000081C41C18A2D837009F052C0111137C199
:10225000862F829586958770880F880F962F9F709E
:10226000492E512C612C712C082E04C0440C551C95
:10227000661C771C0A94D2F764FF14C00FE010E0CC
:1022800020E030E0B901A80104C0440F551F661FCB
:10229000771F8A95D2F7CB01BA016095709580952A
:1022A000909503C060E070E0CB012A2D269526951D
:1022B000237030E02230310569F02330310589F098
:1022C00064297529862997292130310571F00E94EA
:1022D000AF16F5C064297529862997290E94C11671
:1022E000EEC00E94AF16C301B2010E949D16E7C066
:1022F000112319F08A2D817001C08695882309F475
:10230000DEC0862F829586958770880F880F962F5E
:102310009F70492E512C612C712C082E04C0440C46
:10232000551C661C771C0A94D2F764FF14C00FE09A
:1023300010E020E030E0B901A80104C0440F551FAF
:10234000661F771F8A95D2F7CB01BA016095709509
:102350008095909503C060E070E0CB012A2D269512
:1023600026952370422F50E04230510569F04330EA
:10237000510589F06429752986299729413051052D
:1023800071F00E9475179BC06429752986299729C9
:102390000E94871794C00E947517C301B2010E9462
:1023A00063178DC0862F90E0FC01E05EF109E531F6
:1023B000F10508F051C0E858FF4F0C944429062F4E
:1023C0000F708A2D8F71112331F00E94FC16802F1F
:1023D0000E94FA0F68C00E941D17802F0E940110F2
:1023E00062C0112341F0053008F05DC08A2D8F7165
:1023F0000E94421758C0063008F055C0F7CF11238D
:1024000039F08A2D8F710E94FC164DC01123C9F33B
:102410008A2D8F710E941D1746C0112329F08A2D25
:102420008F710E94E7163FC00E94E2163CC0112344
:1024300051F01A2D1F71812F0E94FC1663E0812F2D
:102440000E94F21730C081E00E94FB17023058F161
:1024500082E00E94FB1727C0112331F0002389F28C
:10246000862F0E948C0E1FC0002391F2693349F41D
:102470005FEF77EE83E0515070408040E1F700C09D
:102480000000862F0E949B0F0EC04A2D4F70C7017F
:102490000E9425070E94101616C04A2D4F70C701D2
:1024A0000E94B60810C098E0C916D10441F05CF053
:1024B000FAE0CF1AD10822E0C216D10420F40E941B
:1024C000E10C0E94B408BB2001F10E94EE1780FDD0
:1024D0001CC0F70112820E94E8170E94FC16C70177
:1024E0000E9495120E94E8170F90DF91CF911F91E3
:1024F0000F91FF90EF90DF90CF90BF90AF907F90C3
:102500006F905F904F900C941D170F90DF91CF91BB
:102510001F910F91FF90EF90DF90CF90BF90AF9001
:102520007F906F905F904F9008950F931F93CF937C
:10253000DF93EC01888199812B813C81232BB9F0B9
:102540009F3F11F48F3F99F0CE010E944E078823E0
:1025500071F0688179818A810E94E4178C010E9460
:1025600099170E949A16B801CE010E940810DF91B7
:10257000CF911F910F9108950E946C180E947C18B2
:1025800080910001909101010E9484190E94191804
:102590000E94231D0E94081C80E090E00E94410DD3
:1025A00080E090E00C94570D0E945C180C94BC12D3
:1025B0000E94D917E92FE295EF70F0E03297EE30E4
:1025C000F105B0F4E357FF4F0C944429803F91F09C
:1025D00018F4803E68F40EC0843F51F40BC0803E76
:1025E00048F0813F29F406C093FB882780F90895BD
:1025F00080E0089581E00895CF93DF9300D000D06C
:102600001F92CDB7DEB70F900F900F900F900F90E5
:10261000DF91CF910895CF93DF9300D000D000D009
:10262000CDB7DEB726960FB6F894DEBF0FBECDBF8E
:10263000DF91CF9108951F93CF93DF93C0917F01D6
:1026400016E080918001C81799F0D0E01C9FF0013E
:102650001D9FF00D1124EF57FE4F40815181628183
:102660007381848195810E940B132196C770E9CFF5
:10267000DF91CF911F9108954091B1015091B20126
:102680006091B3017091B4018091B5019091B60150
:102690000C940B138091B60182958F7009F054C091
:1026A0008091B301882309F44FC080917F01A091EC
:1026B00080016091B1017091B2014091B4015091DB
:1026C000B501B6E08A1709F43FC090E04115510505
:1026D000C1F17F3F11F46F3FA1F1B89FF001B99FA5
:1026E000F00D1124EF57FE4F218172132AC0208173
:1026F000621327C02281211124C023813481241731
:10270000350710F421503109241B350B283C3105C5
:10271000C0F42091B6012F7020612093B60126E00D
:10272000289FF001299FF00D1124EA57FE4F808168
:102730008F708061808381EB91E00E9495120C94F0
:102740001B1301968770BECF0895CF92DF92EF9250
:10275000FF920F931F93CF93DF93CDB7DEB76297AE
:102760000FB6F894DEBF0FBECDBF8C0185E0F80137
:10277000DE011D9601900D928A95E1F7D8014C91EA
:1027800011965C91119712966C9112971396CD90B9
:10279000DC9014973091B1017091B2018091B40135
:1027A0009091B501009709F46BC17F3F19F43F3F49
:1027B00009F466C1E090B301EE2009F4C0C0209195
:1027C000B601C816D90628F0F601E81BF90BCF01AF
:1027D00004C0809590958C0D9D1DFF24F394883C3A
:1027E000910578F0F12C207F09F0C6C07C2DD98AA4
:1027F000C88A89890E94FC1281EB91E00E9495129F
:10280000B1C0822F807F09F046C0751314C0341305
:1028100012C0611110C02F7020612093B6010E9478
:102820003C1381EB91E00E9495128091B601D80192
:1028300015968C932EC0CD2819F15F3F11F44F3FB0
:10284000F9F0F62E61111CC080917F01209180016A
:1028500036E0821709F45AC090E0389FF001399FA2
:10286000F00D1124EF57FE4F7181571306C0708190
:10287000471303C07281711103C001968770E9CFBD
:10288000F62E662309F418C18091B6018160809309
:10289000B601F12C11C1751308C0341306C06111C3
:1028A00004C08091B601D801C3C04D875E878D8575
:1028B0009E856A8B0E94D8126A898823E1F166237B
:1028C000D1F12091B601822F82958F7090E002970E
:1028D00074F08091B1019091B20198878F8319862D
:1028E000DB86CA862C87CE0107960E94951286E069
:1028F000F801A1EBB1E001900D928A95E1F70E94F9
:102900004A130E943C13FF24F394D6C04D875E8780
:102910008D859E850E94D917292F22952F7030E032
:10292000223031050CF0BCC09F7009F0B6C0805E4B
:10293000883008F4C1C0C8010E949512E4CFC816BF
:10294000D90608F453C0F601E81BF90BCF01883C07
:10295000910508F450C0F12C7C2DD98AC88A898948
:102960000E94FC12E1EBF1E086E0DF011D928A9506
:10297000E9F70E943C13A0C0751314C0341312C0B1
:10298000611110C08091B601F8018583C8010E94D1
:10299000951286E0E1EBF1E0DF011D928A95E9F7FF
:1029A000FE2C8AC04D875E878D859E856A8B0E942E
:1029B000D8126A89882309F4BECF662309F4BBCFF5
:1029C0002091B601822F82958F7090E002970CF4CF
:1029D0008ECF8091B1019091B2019A8389831B823D
:1029E000DD82CC822E83CE0101967FCF809590959B
:1029F0008C0D9D1DACCFF62E662309F49CCF75136C
:102A00002EC034132CC02091B60120FD1FC0822F90
:102A100082958F70D9F0D80115962C9315978F3029
:102A200049F08F5F982F9295907F822F8F70892B1E
:102A300015968C93C8010E94951286E0F801A1EBCF
:102A4000B1E001900D928A95E1F793CF86E0F8010D
:102A5000A1EBB1E001900D928A95E1F72DC04D8771
:102A60005E878D859E850E94D812811140CF80910E
:102A7000B60181608093B601C8010E9495121CC006
:102A8000662309F458CF4D875E878D859E850E9409
:102A9000D812882309F44FCF2ACF811148CF0CC018
:102AA000243031050CF047CF9F7009F440CFF80176
:102AB0009581907F09F03BCF8F2D62960FB6F894E9
:102AC000DEBF0FBECDBFDF91CF911F910F91FF9061
:102AD000EF90DF90CF9008951F93CF93DF93CDB702
:102AE000DEB72C970FB6F894DEBF0FBECDBF4F8375
:102AF000588769877A878B879C87CE0107960E94C3
:102B0000A513882369F08F8198852A853B85232B1F
:102B1000F1F19F3F09F063C08F3F09F060C037C0FB
:102B200086E0FE013796DE01119601900D928A959E
:102B3000E1F76F817885EA85FB85309741F17F3F2A
:102B400011F46F3F21F12091800130E0C90101961D
:102B50008770992740917F0150E08417950709F409
:102B600047C069837A83FD83EC8396E0929FD0010E
:102B7000939FB00D1124AF57BE4FFE0131960190C7
:102B80000D929A95E1F7809380010E941B1316E045
:102B900080917F01909180018917C1F1189FC00138
:102BA00011248F579E4F0E94A513882379F1E0913D
:102BB0007F011E9FF0011124EF57FE4F408151818C
:102BC00062817381848195810E940B1380917F01C2
:102BD00090E001968770992780937F01D9CF4F812C
:102BE000588569857A858B859C850E940B13CFCF8C
:102BF0000E94D4121092800110927F01E1EBF1E06B
:102C000086E0DF011D928A95E9F7C1CF2C960FB6B9
:102C1000F894DEBF0FBECDBFDF91CF911F91089515
:102C2000EF92FF920F931F93CF93DF938C01892B29
:102C300009F46CC0F12CEE24E394E8012196F8012C
:102C40008491843740F4843008F051C0813081F0A1
:102C5000823019F15BC0853709F444C0A8F19CE7C4
:102C6000980F903708F052C08F770E949B0F41C099
:102C70000E5F1F4FFE01C49180E28C0F883048F434
:102C8000C7708E2D01C0880FCA95EAF70E946F1891
:102C900014C08C2F0E948C0E2DC00E5F1F4FFE01A2
:102CA000C49180E28C0F883058F4C7708E2D01C01B
:102CB000880FCA95EAF70E9475180E9419181AC061
:102CC0008C2F0E949B0F16C00E5F1F4FFE01C491F8
:102CD000CC2381F08FE99FE00197F1F700C000005D
:102CE000C150F6CF0E5F1F4FFE01F49003C00E944B
:102CF0008C0E8E018F2D882309F49FCFEFE9FFE022
:102D00003197F1F700C000008150F5CFDF91CF91EE
:102D10001F910F91FF90EF90089508950E948D16D6
:102D20006093BB017093BC018093BD019093BE0181
:102D30000C94BC1208950C948E160F931F9300915F
:102D4000BB011091BC012091BD013091BE01602BEF
:102D5000712B822B932B1F910F910C948E160F9336
:102D60001F930091BB011091BC012091BD013091D6
:102D7000BE0160237123822393231F910F910C9432
:102D80008E160F931F930091BB011091BC012091EF
:102D9000BD013091BE0160277127822793271F91C3
:102DA0000F910C948E1608950C94D3160E94D4168D
:102DB0006093B7017093B8018093B9019093BA0101
:102DC0000C94BC1260E070E0CB010C94D6160F930B
:102DD0001F9341E050E060E070E08A019B0104C075
:102DE000000F111F221F331F8A95D2F7C901B801A6
:102DF0001F910F910C94D6160F931F9341E050E052
:102E000060E070E004C0440F551F661F771F8A956D
:102E1000D2F78091B7019091B801A091B901B0911A
:102E2000BA018A019B01082B192B2A2B3B2BC901C4
:102E3000B8011F910F910C94D6160F931F9341E088
:102E400050E060E070E004C0440F551F661F771F1C
:102E50008A95D2F740955095609570958091B7010D
:102E60009091B801A091B901B091BA018A019B017A
:102E7000082319232A233B23C901B8011F910F916D
:102E80000C94D6160F931F9341E050E060E070E081
:102E900004C0440F551F661F771F8A95D2F7809193
:102EA000B7019091B801A091B901B091BA018A011E
:102EB0009B01082719272A273B27C901B8011F9121
:102EC0000F910C94D6160F931F930091B701109198
:102ED000B8012091B9013091BA01602B712B822B7E
:102EE000932B1F910F910C94D6160F931F93009163
:102EF000B7011091B8012091B9013091BA01602356
:102F00007123822393231F910F910C94D6160F9354
:102F10001F930091B7011091B8012091B901309130
:102F2000BA0160277127822793271F910F910C9474
:102F3000D6160895CF92DF92EF92FF920F931F93D0
:102F4000CF93DF938C01C090BB01D090BC01E09087
:102F5000BD01F090BE018091B7019091B801A091A0
:102F6000B901B091BA01C82AD92AEA2AFB2ACFE1CD
:102F7000D0E0D701C6010C2E04C0B695A795979551
:102F800087950A94D2F780FF06C0B8018C2F0E9463
:102F9000D108019721F4219760F780E001C08C2FC0
:102FA000DF91CF911F910F91FF90EF90DF90CF9025
:102FB0000895CF93DF93EC010E949A17BE010E94FF
:102FC000D108DF91CF910895CB010E94D9170895C0
:102FD0008091BF0185958595859508958091BF0164
:102FE0008770089598E0899F90011124262B2093E3
:102FF000BF010C94FC162091BF0180958223809321
:10300000BF01982F977069F430E0482F082E000C0C
:10301000550B2417350729F08595859585950C94D2
:103020001D1708959091BF01977081E009F480E029
:103030000895E0910001F09101018091E301808306
:10304000E0910001F091010190818091E201892BD2
:103050008083E0910001F091010190818091E10174
:10306000892B80838091C001882381F0E091000149
:10307000F09101019081892B8083809100019091D2
:1030800001010E94F01881111092C001809100018D
:10309000909101010C94ED0C8091E30108959091C1
:1030A000E301892B8093E301089580959091E301DA
:1030B00089238093E30108951092E301089590918C
:1030C000E201892B8093E201089580959091E201BD
:1030D00089238093E20108951092E201089590916E
:1030E000E101892B8093E101089580959091E101A0
:1030F00089238093E10108951092E101089580935E
:10310000C00108951092C0010895909347018093E3
:10311000460108958295982F9C7C392F36953695D7
:10312000282F237344E0249FC0011124932F982B50
:10313000292F2A7A2695892F8575880F822B089545
:103140001F93CF93DF931F92CDB7DEB799830E9471
:103150008A18182F9981892F0E948A18212F30E010
:10316000322F2227A901482BCA010F90DF91CF915E
:103170001F9108956DEE7EEF80E090E00E947E2921
:1031800060E082E090E00E946C2960E083E090E0E3
:103190000E946C2960E084E090E00E946C2960E06D
:1031A00085E090E00C946C2980E090E00E94662914
:1031B00021E08D3E9E4F09F020E0822F089582E0AD
:1031C00090E00C945E2983E090E00C945E2984E00A
:1031D00090E00C945E29682F84E090E00C946C29B8
:1031E000FC0131969C01205E3F4F80E0919191114E
:1031F0008F5FE217F307D1F708959C01FC01329627
:103200009FEF80E04191461789F09F3F19F44111EB
:1032100001C0982F8F5F8E31A9F79F3F39F0F901D8
:10322000E90FF11D97FDFA95628308950895FC0159
:10323000329680962081261301C010823196E817BD
:10324000F907C1F70895262F2695269526952F3143
:1032500070F4FC01E20FF11D677021E030E001C065
:10326000220F6A95EAF78181282B218308958091A6
:10327000E40180FF0CC01F926F938CED92E09F934E
:103280008F930E941C070F900F900F900F9008953E
:10329000262F2695269526952F3178F4FC01E20FEE
:1032A000F11D677021E030E001C0220F6A95EAF756
:1032B000209581812823218308958091E40180FF56
:1032C0000CC01F926F938EEB92E09F938F930E949E
:1032D0001C070F900F900F900F90089520911201EE
:1032E000222329F020911D0227FD0C9423190C9410
:1032F000FD1820911201222329F020911D0227FDA3
:103300000C9448190C941719FC013196809611926F
:10331000E817F907E1F7089580912302843039F125
:103320001092E50120E488E190E00FB6F894A895AA
:10333000809360000FBE2093600080E00E94B4087C
:1033400083B7817F846083BF83B7816083BF7894B4
:10335000889583B78E7F83BF0FB6F894A895809128
:103360006000886180936000109260000FBE089535
:1033700008950895CF930E94B8190E94CA0B0E9425
:10338000B919C0E08C2F0E948C0C892B29F4CF5FD7
:10339000C430C1F780E001C081E0CF9108950E9460
:1033A000D4120E94E10C0C94B4081F920F920FB635
:1033B0000F9211248F939F93AF93BF938091E50158
:1033C000811113C08091190290911A02A0911B02E1
:1033D000B0911C024196A11DB11D809319029093DA
:1033E0001A02A0931B02B0931C02BF91AF919F9150
:1033F0008F910F900FBE0F901F90189582E084BDA3
:1034000093E095BD9AEF97BD80936E0008952FB716
:10341000F8948091190290911A02A0911B02B09128
:103420001C022FBF08952FB7F89460911902709174
:103430001A0280911B0290911C022FBF0895CF9217
:10344000DF92EF92FF920F931F932FB7F894409162
:10345000190250911A0260911B0270911C022FBF39
:103460006A017B01EE24FF248C0120E030E0C016CD
:10347000D106E206F30610F4415051099A01281BC7
:10348000390BC9011F910F91FF90EF90DF90CF9002
:10349000089578941F920F920FB60F9211248F9374
:1034A0009F93AF93BF938091190290911A02A091BC
:1034B0001B02B0911C020196A11DB11D809319023F
:1034C00090931A02A0931B02B0931C02BF91AF917C
:1034D0009F918F910F900FBE0F901F90189587E7C7
:1034E00097E790930108809300089AE088E10FB66F
:1034F000F894A895809360000FBE90936000FFCF72
:103500000E94D418811102C00E94BA180E94DF18CC
:103510008093E4010E94E71890E090931E0280934C
:103520001D020E94E318682F70E080E090E00C9488
:103530009B168091E80180FF0BC06091050185E03A
:10354000689FB001112475956795759567952BC097
:1035500081FF09C06091050185E0689FB0011124D9
:103560007595679520C082FF07C06091050185E0D1
:10357000689FB001112417C09091E9019923D1F0FF
:1035800060910401961788F72091050185E0289F36
:1035900090011124929FA001939F500D112470E07F
:1035A000CA010E9430296038710540F46115710527
:1035B00039F002C065E070E0862F08958FE7089526
:1035C00081E008958091E80180FF08C060910301C7
:1035D00070E0759567957595679521C081FF06C068
:1035E0006091030170E07595679519C082FF04C072
:1035F0006091030170E010C09091E9019923C1F03E
:10360000609102019617A0F780910301899FC00184
:10361000112470E00E9430296038710528F461158A
:10362000710521F0862F08958FE7089581E00895B0
:1036300061E070E0F4CF803F21F40E94991A8195F7
:1036400004C0813F29F40E94991A8093EC010895E7
:10365000823F21F40E94991A819504C0833F29F486
:103660000E94991A8093EB010895893F19F40E94F2
:10367000E21A05C08A3F31F40E94E21A81958093D4
:10368000ED0108958B3F21F40E94E21A819504C058
:103690008C3F29F40E94E21A8093EE010895843F42
:1036A00021F48091EA01816017C0853F21F4809167
:1036B000EA01826011C0863F21F48091EA018460B2
:1036C0000BC0873F21F48091EA01886005C0883FE4
:1036D00031F48091EA0180618093EA0108958D3F81
:1036E00021F48091E80181600BC08E3F21F480912C
:1036F000E801826005C08F3F29F48091E801846071
:103700008093E8010895803F39F48091EC0187FFB0
:103710006CC01092EC0169C0813F29F48091EC01EA
:103720001816BCF362C09091EB01823F29F497FF19
:103730005CC01092EB0159C0833F19F41916CCF309
:1037400054C0893F41F48091ED0118160CF04DC032
:103750001092ED014AC08A3F29F48091ED0187FF64
:1037600044C0F6CF8B3F39F48091EE0187FF3DC016
:103770001092EE013AC08C3F29F48091EE011816A8
:10378000BCF333C0843F21F48091EA018E7F17C0DF
:10379000853F21F48091EA018D7F11C0863F21F49D
:1037A0008091EA018B7F0BC0873F21F48091EA0171
:1037B000877F05C0883F31F48091EA018F7E809336
:1037C000EA0113C08D3F21F48091E8018E7F0BC088
:1037D0008E3F21F48091E8018D7F05C08F3F29F451
:1037E0008091E8018B7F8093E8018091EB0181114A
:1037F0000EC08091EC0181110AC08091ED01811110
:1038000006C08091EE01811102C01092E901089575
:103810008091E40183FF7EC081E293E00E948306F1
:103820008091EA011F928F938CE193E09F938F9395
:103830000E941C078AE193E00E9483068091EB01BD
:10384000282F082E000C330B3F938F9387E193E0D2
:103850009F938F930E941C0785E193E00E9483064B
:103860008091EC01282F082E000C330B3F938F938F
:1038700082E193E09F938F930E941C0780E193E085
:103880000E9483068091ED01282F082E000C330B37
:103890003F938F938DE093E09F938F930E941C073B
:1038A0008BE093E00E9483068091EE01282F082E82
:1038B000000C330B3F938F9388E093E09F938F939B
:1038C0000E941C0785E093E00E9483068091E90135
:1038D0001F928F9382E093E09F938F930E941C0727
:1038E00080E093E00E9483068091E8011F928F930D
:1038F0008DEF92E09F938F930E941C078AEF92E0D6
:103900000E9483068DB79EB74C960FB6F8949EBF63
:103910000FBE8DBF8AEE91E00E94360D0E94071AFD
:103920009093E7018093E60108951F93CF93DF936F
:103930008091E6019091E7010E941F1AAC019091DD
:10394000E901992321F02091060130E006C0209181
:1039500007018AE0289F900111244217530708F4B9
:103960006EC08091EB01C091EC01D091ED011091FE
:10397000EE01811107C0C1115EC0D1115CC01111EF
:103980005AC05DC09F3F19F09F5F9093E9011816E0
:1039900024F40E94991A8093EB018091EB0187FF38
:1039A00005C00E94991A81958093EB011C1624F49E
:1039B0000E94991A8093EC018091EC0187FF05C069
:1039C0000E94991A81958093EC014091EB01442368
:1039D00079F03091EC01332359F025EB4203A0013B
:1039E00011245093EB013203C00111249093EC0198
:1039F0001D1624F40E94E21A8093ED018091ED01DE
:103A000087FF05C00E94E21A81958093ED0111168F
:103A100024F40E94E21A8093EE018091EE0187FF68
:103A200005C00E94E21A81958093EE01DF91CF914B
:103A30001F910C94081C9F3F09F0A6CFAECFDF91D9
:103A4000CF911F910895EAEEF1E085E0DF011D922C
:103A50008A95E9F71092E9011092E801089584E44B
:103A600095E00E9483061F9281E08F931F9285E06C
:103A70008F9386EF94E09F938F930E941C070F9083
:103A80000F900F900F900F900F9008958330E9F1F1
:103A900028F4813061F0823009F10895853009F40D
:103AA00062C008F449C0863009F474C0089580915A
:103AB0000701262F30E0280F311D2F3F310524F458
:103AC000680F6093070103C08FEF80930701809117
:103AD00007011F928F938FE294E072C080910601DC
:103AE000262F30E0280F311D2F3F310524F4680FB9
:103AF0006093060103C08FEF809306018091060159
:103B00001F928F938DE194E05BC080910501262F79
:103B100030E0280F311D2F3F310524F4680F6093EA
:103B2000050103C08FEF80930501809105011F926D
:103B30008F938AE094E044C080910401262F30E006
:103B4000280F311D2F3F310524F4680F60930401C5
:103B500003C08FEF80930401809104011F928F9323
:103B600085EF93E02DC080910301262F30E0280FD0
:103B7000311D2F3F310524F4680F6093030103C00A
:103B80008FEF80930301809103011F928F938CED3F
:103B900093E016C080910201262F30E0280F311DDE
:103BA0002F3F310524F4680F6093020103C08FEFAB
:103BB00080930201809102011F928F9381EC93E028
:103BC0009F938F930E941C070F900F900F900F9060
:103BD0000895833081F128F4813059F08230D1F09A
:103BE0000895853009F449C0B8F1863009F456C00B
:103BF000089580910701681720F4861B80930701C0
:103C000002C010920701809107011F928F9382EBEF
:103C100093E054C080910601681720F4861B8093BE
:103C2000060102C010920601809106011F928F9337
:103C300080EA93E043C080910501681720F4861B59
:103C40008093050102C010920501809105011F9229
:103C50008F938DE893E032C080910401681720F4BF
:103C6000861B8093040102C010920401809104011C
:103C70001F928F9388E793E021C08091030168171A
:103C800020F4861B8093030102C0109203018091EF
:103C900003011F928F938FE593E010C08091020182
:103CA000681720F4861B8093020102C01092020163
:103CB000809102011F928F9384E493E09F938F93EE
:103CC0000E941C070F900F900F900F900895CF93B4
:103CD000C82F1F928F9389E496E09F938F930E9441
:103CE0001C0781E090E0A0E0B0E0BC01CD0104C081
:103CF000660F771F881F991FCA95D2F70E949B16DF
:103D00000F900F900F900F90CF910C94D412CF93EF
:103D10008732A8F58E3108F032C1803109F49FC096
:103D2000F8F4873009F465C0A8F4863009F02DC195
:103D30008091E401817F8E7F8093E4018CED97E098
:103D40000E9483068DE39AE00E94830681E08093BF
:103D5000F0014DC08B30F1F18E3009F46CC015C10B
:103D6000863109F4B0C020F4813109F4F0C00DC1EE
:103D7000893109F491C08B3109F449C006C18833F7
:103D800049F150F4893209F4FCC0853309F4F9C0D3
:103D9000873209F4F6C0F9C0833409F4F2C028F47C
:103DA0008A3308F4F2C08953EDC0883409F0EDC0BD
:103DB0000E94D41281E29AE00E9483062FEF83EDE5
:103DC00090E3215080409040E1F700C000000E9445
:103DD0006F1A0DC083E098E05CC088E09AE00E9412
:103DE00083068091E401897F877F8093E401C1E0AD
:103DF000D1C08091E401C82FC095C170C0FB80F98B
:103E00008093E401CC2349F385E19AE0B2C090911C
:103E1000E40191FBCC27C0F981E0C827892FC0FBC2
:103E200081F98093E401CC2319F08BEF99E027C04E
:103E30008DEE99E02EC09091E40192FBCC27C0F961
:103E400081E0C827892FC0FB82F98093E401CC234D
:103E500019F08EED99E013C08EEC99E01AC09091A4
:103E6000E40193FBCC27C0F981E0C827892FC0FB70
:103E700083F98093E401CC2351F082EC99E00E9415
:103E800083068091E40181608093E40183C085EB27
:103E900099E00E948306ABCF8DEC97E00E948306E9
:103EA00082EA97E00E94830688E697E00E948306F4
:103EB00085E397E00E9483068AEF96E00E948306DE
:103EC0008FEC96E0E6CF81EC96E00E9483060E949C
:103ED000E10C1F928F9387EA96E09F938F930E9445
:103EE0001C07809112011F928F9380E996E09F93A7
:103EF0008F930E941C07809115021F928F938DE76C
:103F000096E09F938F930E941C0780911D0287FB70
:103F1000882780F91F928F9385E696E09F938F9371
:103F20000E941C070E94131A9F938F937F936F9395
:103F30008EE496E09F938F930E941C078DB79EB7E7
:103F400046960FB6F8949EBF0FBE8DBF50CF0E940D
:103F5000D41290911D0297FBCC27C0F981E0C827AD
:103F6000892FC0FB87F980931D02CC2329F08BEAAF
:103F700099E00E9483060EC080EA99E08ACF8D51B5
:103F800001C080E00E94671E32CF8EE999E00E9456
:103F90008306C0E08C2FCF91089580E0089580E0E3
:103FA00008958E518A3030F4E82FF0E0EE5DFE4F38
:103FB0008081089580E00895CF93C82F8091F0010B
:103FC000813071F020F0823009F44BC03FC1E091A4
:103FD0000001F09101018081823209F039C107C0EE
:103FE000E0910001F09101018081823261F48C2F17
:103FF0000E94CD1F811104C08C2F0E94871E2FC0EC
:1040000081E090E02CC08C2F0E94CF1F811126C030
:10401000C431E1F070F4CB3081F0C031D1F40E94B2
:104020002F1D81E496E00E94830682E08093F001D8
:1040300015C0C93259F0C83361F48CED97E00E9485
:10404000830685E496E00E94830608C01092F00182
:1040500001C18FE396E00E948306FCC081E081707D
:10406000FBC0C43228F5CE3108F0C1C0CB30A1F17D
:10407000D0F4C73009F0D0C08EE18093070182E30D
:10408000809306018AE08093050184E18093040116
:1040900088E08093030188E28093020185EE94E03A
:1040A0000E948306BCC0C33149F1C431C1F0B4C021
:1040B000CB3409F4A6C028F4C93289F0C83361F0C2
:1040C000ABC0C13509F49BC0C23509F496C0CE34EB
:1040D00009F0A2C06AE09BC00E942F1DA0C0809181
:1040E000EF01882319F01092EF0199C082EF94E05C
:1040F0000E94830681E08093F001AEC08CEC94E0D6
:104100000E9483068AEB94E00E9483068091070157
:104110001F928F9387EB94E09F938F930E941C07CD
:1041200085EB94E00E94830683EA94E00E94830674
:10413000809106011F928F9380EA94E09F938F9362
:104140000E941C078EE994E00E9483068FE894E0A9
:104150000E948306809105011F928F938CE894E062
:104160009F938F930E941C078AE894E00E94830625
:1041700089E794E00E948306809104011F928F9347
:1041800086E794E09F938F930E941C0784E794E056
:104190000E9483068FE594E00E94830680910301CC
:1041A0001F928F938CE594E09F938F930E941C073E
:1041B0008AE594E00E94830683E494E00E948306EB
:1041C000809102011F928F9380E494E09F938F93DC
:1041D0000E941C078EE394E00E9483068DB79EB771
:1041E00048960FB6F8949EBF0FBE8DBF18C08C2F97
:1041F0000E94D11F8093EF0112C061E003C061E013
:1042000006C06AE08091EF010E94461D08C08091BF
:10421000EF010E94E91D03C083EE94E013C080917A
:10422000EF01882369F01F928F938DED94E09F93A7
:104230008F930E941C070F900F900F900F9004C057
:104240008AED94E00E94830681E006C01092F0019E
:1042500080E002C080E003CFCF91089580911402E6
:1042600008959FB7F8941092F3019FBF9091230295
:10427000943009F057C09091E9009F703091EC00A4
:10428000232F217030FD20E8922B24E02093E900B9
:104290002091EB0020FF43C02091EE0027FF3FC09C
:1042A0002091F101222321F02091E80025FF37C061
:1042B0001092F10126E03091E80035FD15C03091F3
:1042C0002302343061F53091EB0035FD28C02150D8
:1042D00021F481E08093F10122C0EFE9FFE0319702
:1042E000F1F700C00000E7CF8093F1008091E80073
:1042F00085FD0AC08091E80080FFFCCF8091E80036
:104300008E778093E80006C08FB7F89421E0209361
:10431000F3018FBF9F709093E90080E008959F7034
:104320009093E9008FEF08950F931F93CF93DF933E
:1043300000D01F92CDB7DEB78C010E946C24823072
:1043400011F0843019F593E099831B830A839093CD
:10435000E9008FEF9091E800815095FD06C095ED42
:104360009A95F1F700008111F5CF8091E80085FF63
:104370000DC040E050E063E070E0CE0101960E9485
:1043800089248091E8008E778093E8000F900F9049
:104390000F90DF91CF911F910F910895CF93DF93ED
:1043A00000D01F92CDB7DEB720912302243031F523
:1043B00022E02983805891099B838A8383E080933C
:1043C000E9008FEF9091E800815095FD06C095EDD2
:1043D0009A95F1F700008111F5CF8091E80085FFF3
:1043E0000DC040E050E063E070E0CE0101960E9415
:1043F00089248091E8008E778093E8000F900F90D9
:104400000F90DF91CF910895CF93DF93EC010E943D
:104410006C24823011F08430F9F482E08093E9005A
:104420009FEF8091E800915085FD06C085ED8A954B
:10443000F1F700009111F5CF8091E80085FF0CC0E5
:1044400040E050E065E070E0CE010E948924809158
:10445000E8008E778093E800DF91CF910895CF93A5
:10446000DF93EC010E946C24823019F0843009F053
:1044700047C0809112018823E1F080911D0287FFDF
:1044800018C085E08093E9008FEF9091E80081509B
:1044900095FD06C095E19A95F1F700008111F5CFE1
:1044A0008091E80085FF2CC040E050E060E270E0C1
:1044B00017C081E08093E9008FEF9091E800815070
:1044C00095FD06C095ED9A95F1F700008111F5CFA5
:1044D0008091E80085FF14C040E050E068E070E0A3
:1044E000CE010E9489248091E8008E778093E800B5
:1044F00080E2FE01A4EFB1E001900D928A95E1F710
:10450000DF91CF91089586E69AE00E94830680911C
:104510002202811109C00E941E260E947B268091E2
:10452000E20084608093E200089582E69AE00E94AF
:1045300083061092220208958EE59AE00C94830679
:104540008AE59AE00C94830686E59AE00E94830649
:104550000C94CF192091F2012F5F822F62E30E9409
:104560002429992319F02093F20108951092F20161
:104570008091F301882371F180912302843041F509
:104580008091E9008F702091EC00922F917020FDB6
:1045900090E8892B94E09093E9009091EB0090FFD4
:1045A00014C09091EE0097FF10C09091E80095FF25
:1045B00003C01092F100F9CF9091E80090FF05C080
:1045C0009091E8009E779093E8008F708093E900C7
:1045D0001092F301089542E061EC81E00E94982579
:1045E00042E061EC82E00E94982542E061EC83E0C9
:1045F0000E94982542E261EC84E00E94982542E204
:1046000061EC85E00C94982580912502833009F4B3
:1046100055C030F4813071F0823009F48EC00895B5
:104620008A3009F47AC08B3009F460C0893009F00F
:104630009CC020C080912402813A09F096C08091EC
:10464000E800877F8093E8008091280290912902FA
:10465000892B21F460E284EF91E003C060E080E008
:1046600090E070E00E94D4248091E8008B778093E2
:10467000E800089580912402813209F076C080918B
:10468000280290912902009719F0049709F06DC053
:104690008091E800877F8093E8008091E80082FDA8
:1046A00005C0809123028111F8CF5FC08091F10095
:1046B000809314028091E8008B7753C0809124028C
:1046C000813A09F052C08091280290912902892BE9
:1046D00009F04BC08091E800877F8093E8008091CB
:1046E000E80080FFFCCF8091120136C08091240247
:1046F0008132D9F58091280290912902892BA9F560
:104700008091E800877F8093E8000E94CD2580910A
:104710002602809312010C94D412809124028132DB
:1047200021F58091E800877F8093E8000E94CD25E5
:104730008091270280931502089580912402813A86
:10474000A1F48091E800877F8093E8008091E800E1
:1047500080FFFCCF809115028093F1008091E800EA
:104760008E778093E8000C94CD25089584B7877FD9
:1047700084BF0FB6F894A8958091600088618093FB
:104780006000109260000FBE80E88093610010927C
:1047900061000E946E0D0E941E260E947B26809161
:1047A000E20084608093E20081E391E20E94851838
:1047B00078940E9409290E94720D88E091E00E947D
:1047C000DC0C85E49AE00E94830680912302853008
:1047D00089F481E49AE00E9483060E948C198091FA
:1047E0002102882391F30E94BA19882371F30E9451
:1047F0007324EBCF0E94A00DE8CF292F332723305D
:104800003105C9F064F42130310581F022303105E1
:1048100009F049C08DE890E02EE93AE048C0213225
:10482000310521F12232310571F13DC082E190E084
:104830002BE23BE03CC099278130910571F02CF4CC
:10484000892B89F5EAE9FAE00DC08230910541F043
:10485000039749F5EAE6FAE005C0E0E8FAE002C0AD
:10486000E0E7FAE0849190E09F0121C06530710596
:10487000D0F4660F771FFB01E55CFE4F208131818C
:1048800089E090E014C06530710568F4FB01EE0F1B
:10489000FF1FEF5CFE4F20813181FB01E45DFE4F85
:1048A000808190E004C080E090E020E030E0FA01F8
:1048B0003183208308950895CF93C82F0E945B24ED
:1048C000C0931602CF91089580912302843011F095
:1048D00081E0089582E0089580911602811102C05E
:1048E0000C946424089580E189BD82E189BD09B4F6
:1048F00000FEFDCF8091D8008F7D8093D8008091FD
:10490000E00082608093E0008091E00081FDFCCFB8
:104910000895CF92DF92EF92FF920F931F93CF9360
:10492000DF93EC018B016A010E94EC25811133C0F9
:10493000C114D10439F0F60180819181081B190B53
:10494000C80FD91FE12CF12C0115110519F1809127
:10495000E80085FD16C08091E8008E778093E8001E
:10496000C114D10449F0F60180819181E80EF91E4D
:10497000F182E08285E00FC00E94EC25882321F3BC
:104980000AC089918093F10001501109FFEFEF1ADD
:10499000FF0ADACF80E0DF91CF911F910F91FF9056
:1049A000EF90DF90CF90089520912A0230912B0252
:1049B0002617370748F06115710539F42091E80092
:1049C0002E772093E80001C0B90140E06115710520
:1049D000A9F120912302222309F443C0253009F4D0
:1049E00042C02091E80023FD40C02091E80022FD54
:1049F00032C02091E80020FFE9CF4091F3002091E0
:104A0000F20030E0342BFC01CF016115710559F043
:104A10002830310540F481918093F1006150710993
:104A20002F5F3F4FF1CF41E02830310509F040E0E2
:104A30002091E8002E772093E800C8CF4111C9CF1C
:104A40000AC080912302882361F0853061F0809153
:104A5000E80083FD0AC08091E80082FFF2CF80E089
:104A6000089582E0089583E0089581E008952091FB
:104A70002A0230912B022617370748F0611571057D
:104A800039F42091E8002E772093E80001C0B901A5
:104A9000FC0120E06115710591F1809123028823CA
:104AA00009F440C0853009F43FC08091E80083FDDF
:104AB0003DC08091E80082FD2FC08091E80080FF1A
:104AC000E9CF2091F3008091F20090E0922B6115E4
:104AD000710559F08830910540F424912093F1003C
:104AE0003196615071090196F2CF21E0089709F0E3
:104AF00020E08091E8008E778093E800CBCF2111F1
:104B0000CCCF0AC080912302882361F0853061F008
:104B10008091E80083FD0AC08091E80082FFF2CF17
:104B200080E0089582E0089583E0089581E008958B
:104B3000982F973058F59093E900981739F07091B5
:104B4000EC002091ED005091F00003C0242F762F4F
:104B500050E021FF19C03091EB003E7F3093EB0015
:104B60003091ED003D7F3093ED003091EB003160EE
:104B70003093EB007093EC002093ED005093F00025
:104B80002091EE0027FF07C09F5FD3CF8F708093E7
:104B9000E90081E0089580E008958091240287FF74
:104BA00011C08091E80082FD05C08091230281112F
:104BB000F8CF11C08091E8008B770BC08091230261
:104BC000882349F08091E80080FFF8CF8091E800C9
:104BD0008E778093E80008952091E4003091E500FD
:104BE00095E64091EC00842F817040FF22C08091B7
:104BF000E80080FD1CC080912302882391F085305D
:104C000091F08091EB0085FD10C04091E40050913F
:104C1000E5004217530729F39A01915011F784E0F8
:104C2000089582E0089583E0089581E0089580E08A
:104C300008954091E80042FFDECF08950E948C263F
:104C40000E949426E0EEF0E0808181608083E8EDB0
:104C5000F0E080818F77808319BCA7EDB0E08C9164
:104C60008E7F8C9380818F7E8083109222020895A4
:104C70000F931F93CF93DF930E948C260E9494265C
:104C8000C8EDD0E088818F778883888180688883A9
:104C900088818F7D888319BC1092230210921F0295
:104CA000109221021092200200EE10E0F8018081A3
:104CB0008B7F808388818160888342E060E080E030
:104CC0000E949825E1EEF0E080818E7F8083E2EE05
:104CD000F0E0808181608083808188608083F8013A
:104CE00080818E7F8083888180618883DF91CF91EE
:104CF0001F910F910895E8EDF0E080818F7E808311
:104D0000E7EDF0E080818160808384E082BF81E014
:104D1000809322020C943826E8EDF0E080818E7FAB
:104D200080831092E20008951092DA001092E10060
:104D300008951F920F920FB60F9211242F933F9355
:104D40004F935F936F937F938F939F93AF93BF9393
:104D5000EF93FF938091E10082FF0BC08091E2000E
:104D600082FF07C08091E1008B7F8093E1000E9469
:104D7000AA228091DA0080FF1FC08091D80080FFB6
:104D80001BC08091DA008E7F8093DA008091D90079
:104D900080FF0DC080E189BD82E189BD09B400FEBC
:104DA000FDCF81E0809323020E94832205C019BCBD
:104DB000109223020E9495228091E10080FF19C089
:104DC0008091E20080FF15C08091E2008E7F809389
:104DD000E2008091E20080618093E2008091D8003F
:104DE00080628093D80019BC85E0809323020E94E2
:104DF000A0228091E10084FF30C08091E20084FF16
:104E00002CC080E189BD82E189BD09B400FEFDCFDF
:104E10008091D8008F7D8093D8008091E1008F7EB3
:104E20008093E1008091E2008F7E8093E200809188
:104E3000E20081608093E20080911F02882311F0DC
:104E400084E007C08091E30087FD02C081E001C0DB
:104E500083E0809323020E94A4228091E10083FFDB
:104E600029C08091E20083FF25C08091E100877F07
:104E70008093E10082E08093230210921F028091D0
:104E8000E1008E7F8093E1008091E2008E7F80932D
:104E9000E2008091E20080618093E20042E060E005
:104EA00080E00E9498258091F00088608093F00057
:104EB0000E949C22FF91EF91BF91AF919F918F91A2
:104EC0007F916F915F914F913F912F910F900FBE06
:104ED0000F901F9018951F920F920FB60F921124EA
:104EE0002F933F934F935F936F937F938F939F93F2
:104EF000AF93BF93CF93DF93EF93FF93C091E900FC
:104F0000CF708091EC00D82FD17080FDD0E8109246
:104F1000E9008091F000877F8093F00078940E94F0
:104F2000AF271092E9008091F00088608093F00034
:104F3000CD2BCF70C093E900FF91EF91DF91CF911E
:104F4000BF91AF919F918F917F916F915F914F91A1
:104F50003F912F910F900FBE0F901F9018951F93A8
:104F6000CF93DF93CDB7DEB7AA970FB6F894DEBF25
:104F70000FBECDBFE4E2F2E088E08E0F9091F10029
:104F800091938E13FBCF0E9404238091E80083FF4E
:104F900028C18091240290912502492F50E04A3087
:104FA000510508F01EC1FA01E556FF4F0C94442943
:104FB000803821F0823809F014C108C080912002A5
:104FC00090912102992389F082600FC0809128027C
:104FD0008F70873008F005C18093E9008091EB0065
:104FE00085FB882780F91092E9009091E800977F6F
:104FF0009093E8008093F1001092F100D0C0282F28
:105000002D7F09F0EEC0882319F0823061F0E9C0ED
:1050100080912602813009F0E4C0933009F080E0ED
:10502000809321022EC08091260281112AC0809196
:1050300028028F702FEF280F263008F0D2C08093FF
:10504000E9002091EB0020FF1CC0933021F48091F7
:10505000EB00806214C09091EB0090619093EB00A4
:1050600021E030E0A90102C0440F551F8A95E2F704
:105070004093EA001092EA008091EB0088608093F0
:10508000EB001092E9008091E800877F8093E800B0
:105090000E94CD25A6C08111A4C0109126021F77C1
:1050A0008091E3008078812B8093E3008091E80079
:1050B000877F8093E8000E94CD258091E80080FFE3
:1050C000FCCF8091E30080688093E300111102C05F
:1050D00082E001C083E08093230283C08058823045
:1050E00008F07FC080912602909127028C3D53E00A
:1050F000950779F583E08A838AE289834FB7F8942C
:10510000DE01139620E03EE051E2E32FF0E0509301
:105110005700E49120FF03C0E295EF703F5FEF700E
:105120008E2F90E0EA3010F0C79601C0C0968D93A4
:105130009D932F5F243149F74FBF8091E800877F0F
:105140008093E8006AE270E0CE0101960E94D424C8
:1051500015C06091280270912902AE014F5F5F4F28
:105160000E94FD23BC01892BE1F19091E800977F1B
:105170009093E80089819A810E9437258091E80008
:105180008B778093E8002DC0803859F58091E80036
:10519000877F8093E80080911F028093F1008091C7
:1051A000E8008E7773CF81111CC090912602923057
:1051B000C0F48091E800877F8093E80090931F02FD
:1051C0000E94CD2580911F02811106C08091E300CD
:1051D00087FD02C081E001C084E0809323020E9429
:1051E000EB228091E80083FF0AC08091E800877F6E
:1051F0008093E8008091EB0080628093EB00AA9698
:105200000FB6F894DEBF0FBECDBFDF91CF911F91D7
:105210000895CF93809123028823A1F0C091E900E3
:10522000CF709091EC00892F817090FD80E8C82BA1
:105230001092E9008091E80083FD0E94AF27CF70B3
:10524000C093E900CF910895991B79E004C0991F9C
:10525000961708F0961B881F7A95C9F780950895D0
:1052600097FB072E16F4009407D077FD09D00E9413
:105270004A2907FC05D03EF4909581959F4F0895EB
:10528000709561957F4F0895EE0FFF1F0590F49183
:10529000E02D0994AA1BBB1B51E107C0AA1FBB1F2D
:1052A000A617B70710F0A61BB70B881F991F5A95B2
:1052B000A9F780959095BC01CD010895F999FECF8D
:1052C00092BD81BDF89A992780B50895A8E1B0E014
:1052D00042E050E00C948629262FF999FECF92BD2A
:1052E00081BDF89A019700B4021639F01FBA20BDAB
:1052F0000FB6F894FA9AF99A0FBE08950196272FDF
:105300000E946D290C946C29DC01CB01FC01F999F8
:10531000FECF06C0F2BDE1BDF89A319600B40D9201
:0C53200041505040B8F70895F894FFCFBA
:10532C00C1012808140A321E2E212F220422CE215C
:10533C0094210197663534C69436F6F796379091DA
:10534C00939201020304050607080900404D36221A
:10535C00391B0CCE0B980B760B3D0BB00AC90AE22D
:06536C000AFB0A1B0B0006
:00000001FF
