:100000000C9416060C945D060C945D060C945D062B
:100010000C945D060C945D060C945D060C945D06D4
:100020000C945D060C945D060C9416280C94E8283C
:100030000C948F1B0C945D060C945D060C945D066D
:100040000C945D060C945D060C945D060C945D06A4
:100050000C945D060C94031C0C945D060C945D06D8
:100060000C945D060C945D060C945D060C945D0684
:100070000C945D060C945D060C945D060C945D0674
:100080000C945D060C945D060C945D060C945D0664
:100090000C945D060C945D060C945D060C945D0654
:1000A0000C945D060C945D060C945D0608080A0825
:1000B00015080C080E08100812081408170819086B
:1000C0001B0826081D081F082108230825082808E2
:1000D00071117111A311A311E111011271137113A7
:1000E00043127113F012F0126113711371136A133A
:1000F000FD12FD12FD12FD12FD12FD12FD12FD1288
:10010000FD12FD12FD12FD12FD12FD12FD12FD1277
:100110000E131C1323132A13341300140014121487
:1001200012140914121412141214001400140E14D0
:10013000121412140E1455297C296E2A7C296E2A59
:10014000C829EB296E2A412A502A29001E001F00C7
:1001500020002100220000002300240025002600AA
:1001600027002D00310014001A00080015001700A8
:1001700000001C0018000C001200130030002B00BF
:1001800004001600070009000A0000000B000D0023
:100190000E000F0033003400E1001D001B000600BC
:1001A000190005004C00110010003600370038001F
:1001B0002F00E000E300E200350001512A00280092
:1001C0002C002E002D0034002800E70010503A00CB
:1001D0003B003C003D003E0000003F00400041006D
:1001E0004200430044000100010001000100010041
:1001F0000100000045000100520001000100010063
:1002000001000100010001000100010000000100E7
:10021000500051004F000100010012500100010088
:1002200001000100010001000100010001000100C6
:1002300001000100010001000100010001000100B6
:100240000100010001000100010001000100105047
:10025000000000000000000000000000000000009E
:10026000000000000000000000000000000000008E
:10027000000000000000000000000000000000007E
:10028000000000000000000000000000000000006E
:10029000000000000000000000000000000000005E
:1002A000000000000000000000000000000000004E
:1002B000000000000000000000000000000000003E
:1002C0000000000000000000000000000000005CD2
:1002D00044454255473A20656E61626C65642E0A5A
:1002E000000A002530313662003A200025303258AD
:1002F000000A722F632030313233343536373839C3
:100300004142434445460A00556E69636F64652067
:10031000696E707574206D6F6465207365742074E8
:100320006F3A2025750A00556E69636F6465206910
:100330006E707574206D6F646520696E69742074C9
:100340006F3A2025750A000A002530325820006BCC
:100350006579626F6172645F7265706F72743A2062
:10036000000A0025303258006B6579626F61726453
:100370005F7365745F6C65643A2000290A00257517
:10038000002F002575005D280025640020002564ED
:1003900000200025640020002564007C0025303208
:1003A00058006D6F7573656B6579205B62746E7C48
:1003B000782079207620685D287265702F61636CE3
:1003C000293A205B006D6B5F776865656C5F7469C7
:1003D0006D655F746F5F6D6178203D2025640A0054
:1003E0006D6B5F776865656C5F6D61785F73706575
:1003F0006564203D2025640A006D6B5F74696D653E
:100400005F746F5F6D6178203D2025640A006D6B1D
:100410005F6D61785F7370656564203D2025640AB7
:10042000006D6B5F696E74657276616C203D20258E
:10043000640A006D6B5F64656C6179203D20256402
:100440000A006D6B5F776865656C5F74696D655FE9
:10045000746F5F6D6178203D2025640A006D6B5FCD
:10046000776865656C5F6D61785F73706565642042
:100470003D2025640A006D6B5F74696D655F746F64
:100480005F6D6178203D2025640A006D6B5F6D61B2
:10049000785F7370656564203D2025640A006D6B8C
:1004A0005F696E74657276616C203D2025640A0078
:1004B0006D6B5F64656C6179203D2025640A000ADC
:1004C00000257500363A20776865656C5F74696D44
:1004D000655F746F5F6D61783A20000A00257500D2
:1004E000353A20776865656C5F6D61785F7370651C
:1004F00065643A20000A00257500343A2074696D5D
:10050000655F746F5F6D61783A20000A00257500A1
:10051000333A206D61785F73706565643A20000A34
:1005200000257500323A20696E74657276616C2818
:100530006D73293A20000A00257500313A20646560
:100540006C6179282A31306D73293A20000A092D0F
:100550002056616C756573202D0A004D3E004D25B7
:10056000643E20003F007365742064656661756CAD
:10057000740A00433E200077686572652064656CEC
:1005800074613A20637572736F723D25642C207715
:100590006865656C3D25640A5365652068747470F0
:1005A0003A2F2F656E2E77696B6970656469612ECD
:1005B0006F72672F77696B692F4D6F7573655F6B0E
:1005C0006579730A000A092D204D6F7573656B6597
:1005D00079202D0A4553432F713A09717569740AC0
:1005E000313A0964656C6179282A31306D73290AC2
:1005F000323A09696E74657276616C286D73290AE6
:10060000333A096D61785F73706565640A343A093D
:1006100074696D655F746F5F6D61780A353A09774B
:100620006865656C5F6D61785F73706565640A36D7
:100630003A09776865656C5F74696D655F746F5FB3
:100640006D61780A0A703A097072696E7420766179
:100650006C7565730A643A09736574206465666134
:10066000756C74730A75703A092B310A646F776E72
:100670003A092D310A706775703A092B31300A70CA
:1006800067646F776E3A092D31300A0A73706565B9
:1006900064203D2064656C7461202A206D61785F60
:1006A0007370656564202A20287265706561742006
:1006B0002F2074696D655F746F5F6D6178290A0022
:1006C0003F004D3E2000433E20004C25640A00744C
:1006D000696D65725F72656164333228293A20253D
:1006E00030346C580A006B6579626F6172645F69BF
:1006F000646C653A2025580A006B6579626F6172F7
:10070000645F70726F746F636F6C3A2025580A00D3
:10071000686F73745F6B6579626F6172645F6C653B
:10072000647328293A2025580A000A092D20537499
:1007300061747573202D0A004743433A20342E39E3
:100740002E32204156522D4C4942433A20322E300F
:100750002E30204156525F415243483A2061767212
:10076000350A004F5054494F4E533A204C5546419C
:10077000204D4F5553454B45592045585452414BF8
:10078000455920434F4E534F4C4520434F4D4D410B
:100790004E4420343039360A004255494C443A2000
:1007A00022302E362E3238302D352D6736386661A0
:1007B000643722202830353A31303A3534204665C6
:1007C000622031352032303139290A005649443A05
:1007D000203078464545442850726F66657429205C
:1007E0005049443A203078363036322841747265A8
:1007F0007573363229205645523A203078303030E1
:10080000310A00444553433A20712E6D2E6B2E2041
:100810006B6579626F617264206669726D7761726F
:100820006520666F722041747265757336320A00F6
:100830000A092D2056657273696F6E202D0A000A11
:10084000092D20436F6E736F6C65202D0A4553434D
:100850002F713A09717569740A6D3A096D6F757374
:10086000656B65790A000A092D204D61676963206F
:100870002D0A443A094465627567204D65737361BA
:10088000676520546F67676C650A583A094D617453
:10089000726978204465627567204D6F64652054E5
:1008A0006F67676C65202D2053686F77206B6579C3
:1008B0007072657373657320696E206D61747269FF
:1008C0007820677269640A4B3A094B6579626F61F7
:1008D000726420446562756720546F67676C652099
:1008E0002D2053686F77206B657970726573732064
:1008F0007265706F72740A4D3A09446562756720BB
:100900004D6F75736520546F67676C650A563A09B9
:1009100056657273696F6E0A533A09537461747540
:10092000730A433A09416374697661746520436FC1
:100930006E736F6C65204D6F64650A46312D4631CC
:10094000303A0953776974636820746F204C617979
:10095000657220302D392028463130203D204C3022
:10096000290A302D393A0953776974636820746F06
:10097000204C6179657220302D390A4553433A097C
:1009800053776974636820746F204C6179657220B5
:10099000302028616C7465726E617465206B6579B6
:1009A0002031290A47524156453A09537769746301
:1009B0006820746F204C6179657220302028616C4A
:1009C0007465726E617465206B65792032290A50F6
:1009D000415553453A094A756D7020746F20426F36
:1009E0006F746C6F61646572202852657365742939
:1009F0000A003F000A6D6F7573653A206F66660ADC
:100A0000000A6D6F7573653A206F6E0A000A6B6598
:100A100079626F6172643A206F66660A000A6B65DC
:100A200079626F6172643A206F6E0A000A6D6174B8
:100A30007269783A206F66660A000A6D617472699D
:100A4000783A206F6E0A000A64656275673A206F13
:100A500066660A000A64656275673A206F6E0A006E
:100A60000A0A4A756D70696E6720746F20626F6F35
:100A7000746C6F616465722E2E2E2000433E200040
:100A80005B735D004B6579626F61726420737461A2
:100A900072742E0A005B575D005B535D005B525D14
:100AA000005B445D005B435D000403300000001206
:100AB0000341007400720065007500730036003257
:100AC0000000000E03500072006F006600650074A5
:100AD0000000000403090409025B00030100A0FAFE
:100AE0000904000001030101000921110100012294
:100AF00040000705810308000A0904010001030002
:100B00000000092111010001228500070582032050
:100B1000000A09040200020300000009211101007B
:100B2000012222000705830320000107050303209B
:100B300000011201100100000008EDFE62600100DA
:100B4000010203010631FF0974A101097515002690
:100B5000FF009520750881020976150026FF009593
:100B60002075089102C005010902A1018502090151
:100B7000A100050919012905150025019505750133
:100B80008102950175038101050109300931158143
:100B9000257F95027508810609381581257F950105
:100BA00075088106050C0A38021581257F950175A7
:100BB000088106C0C005010980A101850316010056
:100BC0002603001A81002A8300751095018100C058
:100BD000050C0901A1018504160100269C021A01D9
:100BE000002A9C02751095018100C005010906A12B
:100BF00001050719E029E715002501950875018110
:100C000002950175088101050819012905950575E9
:100C10000191029501750391010507190029FF153E
:100C20000026FF00950675088100C00011241FBE34
:100C3000CFEFDAE0DEBFCDBF04B603FE27C0809160
:100C4000200290912102A0912202B09123028730CC
:100C5000904BA740B04BD1F4109220021092210289
:100C6000109222021092230214BE84B7877F84BFA1
:100C70000FB6F894A8958091600088618093600019
:100C8000109260000FBEE0E0F8E3099511E0A0E0EB
:100C9000B1E0EEE3F6E502C005900D92AE33B10788
:100CA000D9F722E0AEE3B1E001C01D92A032B20755
:100CB000E1F70E9431250C941D2B0C940000FF934A
:100CC000EF93E0913E01F0913F01309709F00995D3
:100CD000EF91FF910895FC018591803011F0EFDFD5
:100CE000FBCF0895FF27E0E230E247FF0CC04195BB
:100CF00097FF09C0EDE26095709580959095611D14
:100D0000711D811D911D27FF02C0219530E350E226
:100D1000AA27660F771F881F991FAA1FA41710F014
:100D2000A41B63955A95A9F7AA3008F0A95FA05DA6
:100D3000AF93F395611571058105910541F7ED328A
:100D400011F4EF93F395F21718F43F93F395FBCF5B
:100D50008F91B5DFFA95E1F70895E991F9918591C1
:100D6000803021F0853219F0AADFF9CF089520E014
:100D7000E89455915532C1F3503311F4689455916C
:100D80005A3348F4505390F3220F022E220F220FB1
:100D9000200D250FF4CF0EF42195899199915336AA
:100DA00019F3533729F1533559F1BC018827992795
:100DB000E8945C3621F48991999168945591543660
:100DC00039F446EF7EF077FF0DC08FEF9FEF0AC03A
:100DD00055374AE039F0583540E121F0523642E0CB
:100DE00009F00895FF93EF937DDFEF91FF91B7CF67
:100DF000FF93EF93FC0181918030B9F360DFFBCF6B
:100E0000FF93EF9368DFF1CFDF93CF93CDB7DEB7DA
:100E10002596A3DFCF91DF91089561110BC0FC01EE
:100E20008281882321F085EE0E94840F03C085EE25
:100E30000E94BD1080E090E0089581E0089581E077
:100E400008950C941F070E948D1A811102C00E9400
:100E5000FB1A0E94E20C0C94550B0C94580B282F93
:100E60002F7041F0822F90E02A3010F44D960895B3
:100E70000697089587E290E0089508950C943D0741
:100E80000C943E0708950E94F0130E9442072FEF32
:100E900084E39CE0215080409040E1F700C00000D6
:100EA00087E797E790930108809300080C94291C2A
:100EB000FF920F931F93CF93DF938C01FC01C081AE
:100EC000D18180917001811113C08281882349F002
:100ED000CE010E942519F82E682FCE010E94CA1853
:100EE00004C0CE010E94F918F82EBE018F2D04C057
:100EF000CE010E942519BE010E94E308EC01B80151
:100F00000E942107882309F456C1B801CE010E942E
:100F1000860D882309F44FC1C63DFCE5DF0719F5AE
:100F2000F8018281882351F0109245010E94C11B73
:100F3000909342018093410182E032C0809145014B
:100F400081110FC080914101909142010E94D91BF3
:100F5000883C910530F486E20E94840F86E20E946C
:100F6000BD1082E026C0C73D8CE5D80728F1CB3DF7
:100F70008CE5D80709F4D1C008F0D6C0C73DFCE520
:100F8000DF0709F0EFC0F8018281882361F0109239
:100F900046010E94C11B909344018093430180E26B
:100FA0000E942D1108C180914601882309F4C9C00F
:100FB00080E20E943411FFC0C531ECE5DE0708F085
:100FC00082C0C230FCE5DF0708F452C0F80182811C
:100FD000882309F459C00E948D1A811102C00E9411
:100FE000FB1A0E94A01A90E09093120280931102C3
:100FF000FE01E350FC45E231F10530F4EA5AFF4FBF
:10100000809111020C94C12A80911102816027C045
:10101000826025C0846023C0806121C080621FC0BF
:1010200080641DC080681BC08460886018C08E7F8B
:1010300016C08D7F14C08B7F12C08F7E10C08F7D35
:101040000EC08F7B0CC08F770AC08B7F877F07C055
:1010500087FB222720F991E0922790FB87F9809364
:101060001102809111020E94A41A0E94F013A3C0E1
:10107000C1158CE5D80781F0C130DC45A9F081E0CD
:101080008093450180934601C801DF91CF911F9164
:101090000F91FF900C941D07F8018281882309F4B9
:1010A0008AC00E94430787C0F8018281882309F41F
:1010B00082C08091EB0181608093EB0180ED92E032
:1010C0000E946B0678C0C631DC45C9F60E94A5199E
:1010D000282FF8018281409100015091010188235D
:1010E00079F02A7A91E009F490E09093400191110F
:1010F00002C069E201C065E3CA010E942F1B0AC059
:1011000080914001811102C069E201C065E3CA011A
:101110000E94311B0E94F4194EC0F801828188237D
:1011200009F449C080E00AC0CC3DECE5DE07D1F50A
:10113000F8018281882309F43EC082E00E94D9250B
:101140003AC080914301909144010E94D91B883C90
:10115000910508F02DCF87E20E94840F87E20E945C
:10116000BD1026CFC83DDC4509F089CFF80182814A
:1011700081110DCF8091460181111ACF80914301D9
:10118000909144010E94D91B883C910508F010CF32
:1011900080E20E94341188E20E94840F88E20E945B
:1011A000BD1009C0CD3DDC4509F069CFF801828151
:1011B00081110E94FB1A80E0DF91CF911F910F9166
:1011C000FF90089508959DE0799FF001112491E426
:1011D000899FE00DF11D1124E60FF11DEE0FFF1F99
:1011E000E65BFE4F859194910895880F991FFC014D
:1011F000EF51FD4F859194910895CF93DF930E9415
:10120000E3080E94B40AEC01811520E59207F0F58D
:10121000811530E4930708F024C1883E910500F55C
:10122000803E910508F09CC1883A910570F4853A9A
:10123000910508F09FC08130910509F491C108F42F
:1012400042C1049708F08CC13EC18F3B910508F460
:101250009CC0803C910508F436C1805C9109F4C0C3
:10126000811540E2940758F4C11581E0D80708F0D1
:1012700077C1C03FD10508F426C1D06571C1811581
:1012800020E3920708F0E4C09F70DEC0811535E5C9
:10129000930708F044C0811544E5940708F0F8C0AE
:1012A000C11582E5D80708F5C11521E5D20708F078
:1012B000DBC08C2F837021E030E002C0220F331F8F
:1012C0008A95E2F73C68CE0174E0969587957A9509
:1012D000E1F78370382BCF70C695C69580E2C89F22
:1012E000E0011124C22BD32B3BC12C2F2695269530
:1012F000CE0183709927C115D34508F0BAC040E2EA
:10130000249F90011124C1E0D0E002C0CC0FDD1F6A
:101310008A95E2F72C2B3D2BE901DC6821C1811570
:1013200049E59407A0F4C11588E5D80708F0B5C0D1
:10133000C11526E5D20708F0C6C08C2F0E94310BDC
:101340008F71C82FD0E0DC2FCC27D06209C1811566
:101350003AE5930708F4A6C090568115904208F02C
:10136000B2C08D2F8F710E94310BDD27D0628F713B
:10137000D82BF6C0853A910509F4A8C0863A9105A4
:1013800009F0A7C0C2E8D0E4EBC0883A910509F49F
:10139000A3C0893A910509F4A2C08A3A910509F4DB
:1013A000A1C08B3A910509F4A0C08C3A910509F4CB
:1013B0009FC08B3B910509F49EC08C3B910509F4BD
:1013C0009DC08D3A910509F49CC0803B910509F4BC
:1013D0009BC08E3A910509F49AC08F3A910509F4A1
:1013E00099C0813B910509F498C0823B910509F4AD
:1013F00097C0833B910509F496C0843B910509F49D
:1014000095C0853B910509F494C0863B910509F48C
:1014100093C0873B910509F492C0883B910509F47C
:1014200091C0893B910509F490C08D3B910509F469
:101430008FC08E3B910509F48EC08A3B910509F45B
:101440008DC0C0E0D4E48CC00E94F508EC0188C0D7
:101450009927D3FF03C0EC01D86C82C0EC01D06C9B
:101460007FC0DF70D06A7CC0DC2FCC27C16FD06A10
:1014700077C040E2249F90011124C1E0D0E002C077
:10148000CC0FDD1F8A95E2F7C22BD32BDA6868C038
:10149000D82FCC27C46FD06A63C0DC2FCC27C06F95
:1014A000D06A5EC08F700E94310B94E0D695C795CC
:1014B0009A95E1F7CF70D0E0DC2FCC27D06A8F70FF
:1014C000806EC82B4DC0C0E0D0E04AC0C1E8D0E477
:1014D00047C0C3E8D0E444C0C2EED4E441C0C9EE82
:1014E000D4E43EC0CAEED4E43BC0C5EBD4E438C07B
:1014F000C6EBD4E435C0C3EBD4E432C0C4EBD4E4CF
:101500002FC0C7EBD4E42CC0CCECD4E429C0CDEC84
:10151000D4E426C0C3E8D5E423C0CAE8D5E420C09B
:10152000C2E9D5E41DC0C4E9D5E41AC0C1E2D6E4DD
:1015300017C0C3E2D6E414C0C4E2D6E411C0C5E2C9
:10154000D6E40EC0C6E2D6E40BC0C7E2D6E408C0BB
:10155000CFE6D4E405C0C0E7D4E402C0CAE2D6E4D2
:10156000CE01DF91CF9108958238910549F1B0F411
:101570008133910509F458C048F48932910509F482
:101580004EC08A32910509F454C0089585339105FF
:1015900009F440C08933910599F00895833E91057F
:1015A00029F138F4803E910591F0823E9105A1F039
:1015B0000895863E9105F9F0873E910531F1089531
:1015C0002091110220FD3AC021FD38C0089580917C
:1015D000110280FD35C032C08091110282FF32C0FD
:1015E0008091110284FD30C083EE39C080911102D8
:1015F00082FD28C0F5CF8091110283FF27C0809122
:10160000110284FD21C087EE2AC08091110283FD62
:101610001DC0F5CF8091110285FD1AC01BC08091BD
:10162000110285FD17C014C08091110286FD14C0FF
:1016300015C08091110286FD11C00EC080EE0FC052
:1016400089E30DC082EE0BC080E009C086EE07C0C2
:1016500089E205C085E303C08AE201C081E390E02E
:1016600008959091110292FF0DC0282F2871283003
:1016700019F4877F846006C0282F2471243011F468
:101680008B7F886093FF0DC0282F2871283119F4B3
:10169000877E846106C0282F2471243111F48B7E4B
:1016A000886194FD877E089508950C94540B0895E5
:1016B0000C94570BA3E1B1E041E050E02DE02A0F7C
:1016C0008D91E82FE295EF70F0E031A18F70BA01B3
:1016D00002C0660F771F8A95E2F7CB01962F90958F
:1016E000932391A392A1892B82A32A13E9CFA0E28D
:1016F000B1E041E050E025E02A0F8D91E82FE2951E
:10170000EF70F0E031A18F70BA0102C0660F771F51
:101710008A95E2F7CB01962F9095932391A392A1FE
:10172000892B82A32A13E9CFE1E5F1E0A7E4B1E038
:10173000119211921D921D9271E0EB35F707C1F7DE
:1017400085E00E94900C0C9423073F924F925F9289
:101750006F927F928F929F92AF92BF92CF92DF92C1
:10176000EF92FF920F931F93CF93DF9303E111E06A
:1017700040E050E020E0EE24E394F12CE801899170
:101780008E01E82FE295EF70F0E031A18F70B70184
:1017900002C0660F771F8A95E2F7CB01362B31A383
:1017A00062A1382E3094632162A370EA7A95F1F732
:1017B0006701042E02C0CC0CDD1C0A94E2F736014E
:1017C0006094709490E2A92E91E0B92EA1E5B1E069
:1017D000512C4D016D917C911197E50149905E016D
:1017E000C42DC295CF70D0E0C8A1D0E0342D3F7099
:1017F00002C0D595C7953A95E2F73C2FEB0130FD35
:1018000003C0CC29DD2902C0C621D7211196DC9363
:10181000CE931296E401888099806815790511F0BD
:1018200055245394D1E0AB35BD0799F691A1332DE2
:10183000392331A392A1892B82A325294F5F5F4FC2
:101840004D30510509F09ACF45E067E471E081E53C
:1018500091E00E94910C0E942D0781E0DF91CF91D1
:101860001F910F91FF90EF90DF90CF90BF90AF90BE
:101870009F908F907F906F905F904F903F900895D2
:10188000E82FF0E0EE0FFF1FE95BFE4F80819181B2
:101890000895CF92DF92EF92FF920F931F93CF9311
:1018A000DF9381EF92E00E946B0687E4E82E81E0EF
:1018B000F82EC0E0D0E09CEEC92E92E0D92E03EEC7
:1018C00012E0DF93CF93DF92CF920E94040789EE5C
:1018D00092E00E946B06F701819191917F010E9435
:1018E000731A9F938F931F930F930E94040781EEA7
:1018F00092E00E946B0621968DB79EB708960FB6B0
:10190000F8949EBF0FBE8DBFC530D105D1F6DF91D3
:10191000CF911F910F91FF90EF90DF90CF9008959E
:101920000895FF920F931F93CF93DF93F82E092F03
:10193000162FD72FC42F222349F081E080935D0119
:101940000E94C11B90935C0180935B0180915D01BB
:101950008823D9F080915B0190915C010E94D91B92
:10196000069798F0EF2DF02FA12FBD2F80E090E08B
:101970004C2F50E08417950734F4219131912D9329
:101980003D930196F7CF10925D01DF91CF911F91AA
:101990000F91FF900895CF93DF93813020E8920755
:1019A00068F0FB012281222349F0EC010E94210D05
:1019B000CE019F770E94690D0E94560D81E0DF9154
:1019C000CF9108958CE090E00E94DB2A90E0A0E0A7
:1019D000B0E08093070290930802A0930902B093AD
:1019E0000A028091EB0180FF0EC0809107021F92D6
:1019F0008F9387E293E09F938F930E9404070F9049
:101A00000F900F900F900895609107028CE090E086
:101A10000C94E92A809307020E94040D8091EB0147
:101A200080FF0EC0809107021F928F9388E093E0A1
:101A30009F938F930E9404070F900F900F900F9029
:101A400008950E94A51980935E010E94B8198091A3
:101A50000702813071F048F08230D9F08430F9F417
:101A600086EE0E94251188E118C082EE0E94840F44
:101A700016C080EE0E94840F81EE0E94840F88E1E0
:101A80000E94251181EE0E94BD1080EE0E94BD10C3
:101A900006C082EE0E94840F87E50E9425118FE325
:101AA0009CE90197F1F700C00000089580910702BA
:101AB000813021F038F0823029F007C08CE20E949A
:101AC000251103C082EE0E94BD1080915E010C942E
:101AD000B5190F931F93CF93DF938C01CCE0D0E027
:101AE000C8010C2E02C0969587950A94E2F78F7074
:101AF0000E942F070E9425112497CC3F8FEFD80713
:101B000079F7DF91CF911F910F9108950F931F9354
:101B1000CF93DF93EC018B01FB018281882301F1DC
:101B2000C23EFCE5DF07B9F050F4C03EECE5DE074D
:101B300081F0C13EFCE5DF0799F481E00FC0C33EB0
:101B40008CE5D80751F0C43EECE5DE0749F484E0AB
:101B500005C080E003C082E001C083E00E940A0D5E
:101B6000B801CE01DF91CF911F910F910C94CB0C56
:101B700090936401809363010895E0916301F09173
:101B80006401309721F00190F081E02D099480E00C
:101B90000895EF92FF920F931F93CF93DF93E091FD
:101BA0006301F09164013097B1F18C010280F381FF
:101BB000E02D09958091EB0182FF2DC080FF04C0CC
:101BC0008FE493E00E946B06E80118E089E4E82EB8
:101BD00083E0F82E8091EB0180FF0BC088811F927B
:101BE0008F93FF92EF920E9404070F900F900F9037
:101BF0000F90115021961111EDCF8091EB0180FFD4
:101C00000AC087E493E0DF91CF911F910F91FF907D
:101C1000EF900C946B06DF91CF911F910F91FF9085
:101C2000EF900895E0916301F0916401309739F0ED
:101C300022E0DC012C930480F581E02D09940895C5
:101C400020916101309162018217930771F09093A6
:101C5000620180936101E0916301F091640130972A
:101C600021F00680F781E02D0994089520915F010D
:101C7000309160018217930771F090936001809317
:101C80005F01E0916301F0916401309721F00084DD
:101C9000F185E02D0994089585B7806885BF85B7E3
:101CA000806885BF0895089508950C94540E089592
:101CB0000C94570E0E944C0E0E94530E0C94550E1D
:101CC00081E008950E94B81B0E945A0B0E943A1CA2
:101CD0000C94580ECF93C82F8091EB0182FF1EC049
:101CE00080FF04C088E693E00E946B068091EB01C0
:101CF00080FF0CC01F92CF9383E693E09F938F9356
:101D00000E9404070F900F900F900F908091EB01AD
:101D100080FF04C081E693E00E946B068C2FCF9178
:101D20000C9440074F925F927F928F929F92AF9256
:101D3000BF92CF92DF92EF92FF920F931F93CF93B8
:101D4000DF93CDB7DEB72A970FB6F894DEBF0FBE8C
:101D5000CDBF0E94A50B0E94600E811111C08FEFB4
:101D600089838A831B820E94C11B8160782F9D8397
:101D70008C8349815A816B818D810E94500F57C09D
:101D800096E6C92E91E0D92E00E010E0AA24A39493
:101D9000B12C702E802F0E94400C4C01F601419016
:101DA00051906F01482659264114510431F40F5FB8
:101DB0001F4F0530110569F7D2CF8091EB0181FDEE
:101DC0000E94490C20E030E07501022E02C0EE0CAA
:101DD000FF1C0A94E2F7C70184219521892B09F1A0
:101DE0002E837F828E209F2091E0892809F490E045
:101DF00098870E94C11B8160782F9A8789874E81BE
:101E00005F8168858A850E94500F000F111FF801BD
:101E1000EA59FE4F80819181E826F926F182E0821D
:101E200006C02F5F3F4F2D30310571F6C0CF0E94A5
:101E30004F1E109165010E94BD0D1817D9F00E9428
:101E4000BD0D809365012A960FB6F894DEBF0FBED4
:101E5000CDBFDF91CF911F910F91FF90EF90DF9059
:101E6000CF90BF90AF909F908F907F905F904F905A
:101E70000C946A0E2A960FB6F894DEBF0FBECDBF43
:101E8000DF91CF911F910F91FF90EF90DF90CF9056
:101E9000BF90AF909F908F907F905F904F900895EC
:101EA000CF93DF93CDB7DEB72B970FB6F894DEBF95
:101EB0000FBECDBF4F83588769877A878B87DE0136
:101EC000119686E0FD0111928A95E9F785E0FE0101
:101ED000379601900D928A95E1F749815A816B817D
:101EE0007C818D819E810E949A162B960FB6F89464
:101EF000DEBF0FBECDBFDF91CF910895FC01808181
:101F000091810E9466190895CF93DF931F92CDB7F8
:101F1000DEB7882309F42DC1682F8238C1F40E94EE
:101F2000BD0D81FD26C169E3809100019091010101
:101F30000E942F1B0E94F4192FEF81EE94E0215094
:101F400080409040E1F700C0000069E319C0833889
:101F500011F50E94BD0D80FD0CC163E5809100016B
:101F6000909101010E942F1B0E94F4192FEF81EE26
:101F700094E0215080409040E1F700C0000063E50C
:101F800080910001909101010E94311B0F90DF911F
:101F9000CF910C94F4198438C1F40E94BD0D82FDD8
:101FA000E8C067E480910001909101010E942F1B1D
:101FB0000E94F4192FEF81EE94E021508040904070
:101FC000E1F700C0000067E4DBCF8CEF860F813AB9
:101FD00070F4862F69830E947C2169818111C9C0B8
:101FE00080910001909101010E942F1BCFCF80E2D0
:101FF000860F883048F4677081E001C0880F6A95C9
:10200000EAF70E94A819C2CF8BE5860F833088F4C7
:10201000653A29F0663A31F083E890E005C081E83E
:1020200090E002C082E890E00F90DF91CF910C9495
:10203000200E88E5860F873108F091C0683A09F4D0
:1020400045C0693A09F445C06A3A09F445C06B3A9B
:1020500009F445C06C3A09F445C06B3B09F445C02E
:102060006C3B09F445C06D3A09F445C0603B09F486
:1020700045C06E3A09F445C06F3A09F445C0613B6A
:1020800009F445C0623B09F445C0633B09F445C00F
:10209000643B09F445C0653B09F445C0663B09F45F
:1020A00045C0673B09F445C0683B09F445C0693B3E
:1020B00009F445C06D3B09F445C06E3B09F445C0C9
:1020C0006A3B09F445C080E090E044C082EE90E0B5
:1020D00041C089EE90E03EC08AEE90E03BC085EBC7
:1020E00090E038C086EB90E035C083EB90E032C0E2
:1020F00084EB90E02FC087EB90E02CC08CEC90E05C
:1021000029C08DEC90E026C083E891E023C08AE8E6
:1021100091E020C082E991E01DC084E991E01AC0FD
:1021200081E292E017C083E292E014C084E292E080
:1021300011C085E292E00EC086E292E00BC087E219
:1021400092E008C08FE690E005C080E790E002C012
:102150008AE292E00F90DF91CF910C94360E603FAF
:1021600040F0862F0E94D51C0F90DF91CF910C94E8
:10217000C21D0F90DF91CF910895882309F464C0A8
:10218000823879F40E94BD0D81FF5EC069E38091C1
:102190000001909101010E942F1B0E94F41969E334
:1021A00010C08338B1F40E94BD0D80FF4DC063E5BF
:1021B00080910001909101010E942F1B0E94F4194F
:1021C00063E580910001909101010E94311B0C9404
:1021D000F419843879F40E94BD0D82FF35C067E49C
:1021E00080910001909101010E942F1B0E94F4191F
:1021F00067E4E7CF9CEF980F913A10F4682FE1CF96
:1022000090E2980F983050F4877091E001C0990FD8
:102210008A95EAF7892F0E94AE19D9CF9BE5980FCE
:10222000933020F480E090E00C94200E98E5980F15
:10223000973120F480E090E00C94360E803F20F03F
:102240000E943D1D0C94C21D0895CF93C82F0E947B
:10225000840F8C2FCF910C94BD10882321F00E9405
:10226000A8190C94F4190895882321F00E94AE193E
:102270000C94F41908954F925F926F927F92BF92DF
:10228000CF92DF92EF92FF920F931F93CF93DF9342
:102290007C01D62FC72FFC01058102950F7012819A
:1022A00011110E94C8190E949E19882379F01123E8
:1022B00069F080E28D0F883048F082E00E943F1A7A
:1022C0000E949E1991E0B82EB92601C0B12CCC2EE7
:1022D000C2948FE0C822D12CF601E859FF4F0C942C
:1022E000C12A8C2F807FCF70882311F0C295C07FC8
:1022F000112399F0CC2309F4CFC180E28D0F8830EF
:1023000010F0D11104C08C2F0E94A81903C08C2F8B
:102310000E94BB190E94F419BFC18D2F0E94BD10ED
:10232000CC2309F4DEC180E28D0F883010F0D1118A
:1023300004C08C2F0E94AE1903C08C2F0E94C119BB
:102340000E94F419CEC18C2F807FCF70803211F0A3
:10235000C295C07FDD2319F0D130C9F022C011230E
:1023600071F0002341F0013031F40E94DB198C2B15
:102370000E94E119B6C10E94DB198C2B46C10023D3
:1023800019F0013009F4ADC10E94EA1918C01123F7
:1023900021F0063008F0A5C10EC0053008F0A1C13B
:1023A0000EC0112351F0002331F0F701858180FF29
:1023B00073C18F7085838C2F28C101117EC18C2F32
:1023C0002AC18C2F86958695837090E0009719F02E
:1023D000019761F086C1112321F08D2F9C2F9370FE
:1023E00002C080E090E00E94200E8BC1112321F0FA
:1023F0008D2F9C2F937002C080E090E00E94360EDB
:1024000080C11123F9F0D53F51F0D63F71F0D43F90
:10241000A9F480910B0290910C0281600BC0809115
:102420000B0290910C02826005C080910B0290918A
:102430000C02846090930C0280930B028D2F0E94FB
:10244000D51C1EC0D53F51F0D63F71F0D43FA9F442
:1024500080910B0290910C028E7F0BC080910B0239
:1024600090910C028D7F05C080910B0290910C021F
:102470008B7F90930C0280930B028D2F0E943D1D49
:102480000E94C21D3EC18C2F837009F050C01111F3
:1024900034C18D2F829586958770880F880F9D2F68
:1024A0009F70492E512C612C712C082E04C0440CB5
:1024B000551C661C771C0A94D2F7D4FF14C00FE099
:1024C00010E020E030E0B901A80104C0440F551F1E
:1024D000661F771F8A95D2F7CB01BA016095709578
:1024E0008095909503C060E070E0CB01C695C695DD
:1024F000C370D0E0C230D10561F0C330D10581F0A6
:102500006429752986299729219771F00E94DF1780
:10251000F4C064297529862997290E94F117EDC016
:102520000E94DF17C301B2010E94CD17E6C011233C
:1025300019F08C2F817001C08695882309F4DDC0C5
:102540008D2F829586958770880F880F9D2F9F709D
:10255000492E512C612C712C082E04C0440C551CA2
:10256000661C771C0A94D2F7D4FF14C00FE010E069
:1025700020E030E0B901A80104C0440F551F661FD8
:10258000771F8A95D2F7CB01BA0160957095809537
:10259000909503C060E070E0CB01C695C695C3700E
:1025A0004C2F50E04230510569F04330510589F01D
:1025B00064297529862997294130510571F00E94B7
:1025C000A5189BC064297529862997290E94B718E8
:1025D00094C00E94A518C301B2010E9493188DC037
:1025E0008D2F90E0FC01E05EF109E531F10508F086
:1025F0004FC0E858FF4F0C94C12ADF708C2F8F71A9
:10260000112331F00E942C188D2F0E942D1169C0CA
:102610000E944D188D2F0E94341163C0112341F088
:10262000053008F05EC08C2F8F710E94721859C05F
:10263000063008F056C0F7CF112339F08C2F8F7178
:102640000E942C184EC01123C9F38C2F8F710E9449
:102650004D1847C0112329F08C2F8F710E94171835
:1026600040C00E9412183DC0112349F0CF718C2F39
:102670000E942C1863E08C2F0E942A1A32C081E03D
:102680000E943F1A023068F182E00E943F1A29C07E
:10269000112331F0002391F28D2F0E94840F21C06D
:1026A000002399F2D93349F45FEF67EE73E051509C
:1026B00060407040E1F700C000008D2F0E94BD1007
:1026C00010C04C2F4F706D2FC7010E940D070E9444
:1026D0003E1717C04C2F4F706D2FC7010E94E208A4
:1026E00010C088E0C816D10441F05CF0EAE0CE1AD0
:1026F000D108F2E0CF16D10420F40E94BD0D0E9453
:102700004007BB20F1F00E949A1980FD1AC0F70122
:1027100012820E9494190E942C18C7010E94AF13C4
:102720000E949419DF91CF911F910F91FF90EF902C
:10273000DF90CF90BF907F906F905F904F900C9400
:102740004D18DF91CF911F910F91FF90EF90DF9087
:10275000CF90BF907F906F905F904F9008950F93B0
:102760001F93CF93DF93EC01888199812B813C816A
:10277000232BB9F09F3F11F48F3F99F0CE010E94B7
:102780005807882371F0688179818A810E947119C4
:102790008C010E94C9180E94CA17B801CE010E947C
:1027A0003B11DF91CF911F910F9108950E94C8199D
:1027B0000E94D8190E94F4190E94EA1E0E94C21DAC
:1027C00080E090E00E94200E80E090E00C94360EB5
:1027D00080910001909101010E94331B0C94D6134B
:1027E0000E94B8190C94E813E92FE295EF70F0E01D
:1027F0003297EE30F105B0F4E357FF4F0C94C12A45
:10280000803F91F018F4803E68F40EC0843F51F48C
:102810000BC0803E48F0813F29F406C093FB882717
:1028200080F9089580E0089581E008950E94661976
:102830000E94F4130895CF93DF9300D000D01F922D
:10284000CDB7DEB70F900F900F900F900F90DF91E4
:10285000CF910895CF93DF9300D000D000D0CDB7B3
:10286000DEB726960FB6F894DEBF0FBECDBFDF9160
:10287000CF9108951F93CF93DF93C091710116E01C
:1028800080917201C81799F0D0E01C9FF0011D9F44
:10289000F00D1124ED58FE4F40815181628173810A
:1028A000848195810E942A142196C770E9CFDF9117
:1028B000CF911F9108954091A3015091A40160917F
:1028C000A5017091A6018091A7019091A8010C9497
:1028D0002A148091A80182958F7009F054C08091CC
:1028E000A501882309F44FC080917101A091720164
:1028F0006091A3017091A4014091A6015091A7019C
:10290000B6E08A1709F43FC090E041155105C1F1C6
:102910007F3F11F46F3FA1F1B89FF001B99FF00D17
:102920001124ED58FE4F218172132AC020816213B9
:1029300027C02281211124C0238134812417350727
:1029400010F421503109241B350B283C3105C0F40B
:102950002091A8012F7020612093A80126E0289FD4
:10296000F001299FF00D1124E858FE4F80818F70EF
:102970008061808383EA91E00E94AF130C943A1443
:1029800001968770BECF0895CF92DF92EF92FF92AB
:102990000F931F93CF93DF93CDB7DEB762970FB638
:1029A000F894DEBF0FBECDBF8C0185E0F801DE01DB
:1029B0001D9601900D928A95E1F7D8014C911196E0
:1029C0005C91119712966C9112971396CD90DC90B2
:1029D00014973091A3017091A4018091A601909168
:1029E000A701009709F46BC17F3F19F43F3F09F439
:1029F00066C1E090A501EE2009F4C0C02091A801B5
:102A0000C816D90628F0F601E81BF90BCF0104C05F
:102A1000809590958C0D9D1DFF24F394883C910525
:102A200078F0F12C207F09F0C6C07C2DD98AC88AA5
:102A300089890E941B1483EA91E00E94AF13B1C000
:102A4000822F807F09F046C0751314C0341312C062
:102A5000611110C02F7020612093A8010E945B14A7
:102A600083EA91E00E94AF138091A801D8011596E6
:102A70008C932EC0CD2819F15F3F11F44F3FF9F030
:102A8000F62E61111CC0809171012091720136E017
:102A9000821709F45AC090E0389FF001399FF00D79
:102AA0001124ED58FE4F7181571306C070814713F2
:102AB00003C07281711103C001968770E9CFF62EB1
:102AC000662309F427C18091A80181608093A80141
:102AD000F12C20C1751308C0341306C0611104C065
:102AE0008091A801D801C3C04D875E878D859E85E2
:102AF0006A8B0E9416146A898823E1F16623D1F15A
:102B00002091A801822F82958F7090E0029774F037
:102B10008091A3019091A40198878F831986DB8609
:102B2000CA862C87CE0107960E94AF1386E0F80173
:102B3000A3EAB1E001900D928A95E1F70E94691431
:102B40000E945B14FF24F394E5C04D875E878D855A
:102B50009E850E946619292F22952F7030E0223021
:102B600031050CF0CBC09F7009F0C5C0805E883085
:102B700008F4D0C0C8010E94AF13E4CFC816D9062C
:102B800008F453C0F601E81BF90BCF01883C91050E
:102B900008F450C0F12C7C2DD98AC88A89890E94FA
:102BA0001B14E3EAF1E086E0DF011D928A95E9F764
:102BB0000E945B14AFC0751314C0341312C06111AE
:102BC00010C08091A801F8018583C8010E94AF134D
:102BD00086E0E3EAF1E0DF011D928A95E9F7FE2C39
:102BE00099C04D875E878D859E856A8B0E941614DD
:102BF0006A89882309F4BECF662309F4BBCF2091EC
:102C0000A801822F82958F7090E002970CF48ECFEE
:102C10008091A3019091A4019A8389831B82DD8214
:102C2000CC822E83CE0101967FCF809590958C0D1E
:102C30009D1DACCFF62E662309F49CCF75132EC0D4
:102C400034132CC02091A80120FD1FC0822F829533
:102C50008F70D9F0D80115962C9315978F3049F0C5
:102C60008F5F982F9295907F822F8F70892B15966A
:102C70008C93C8010E94AF1386E0F801A3EAB1E08B
:102C800001900D928A95E1F793CF86E0F801A3EACF
:102C9000B1E001900D928A95E1F73CC04D875E87C7
:102CA0008D859E850E941614811140CF8091A801C8
:102CB00081608093A801C8010E94AF132BC06623D6
:102CC00009F458CF4D875E878D859E850E94161426
:102CD000F82E882309F44ECF86E0F801A3EAB1E08C
:102CE00001900D928A95E1F783EA91E00E947E0FB0
:102CF0000E9469145DCF811139CF0CC02430310599
:102D00000CF038CF9F7009F431CFF8019581907F96
:102D100009F02CCF8F2D62960FB6F894DEBF0FBE50
:102D2000CDBFDF91CF911F910F91FF90EF90DF907A
:102D3000CF9008951F93CF93DF93CDB7DEB72C9735
:102D40000FB6F894DEBF0FBECDBF4F83588769879B
:102D50007A878B879C87CE0107960E94C4148823AC
:102D600069F08F8198852A853B85232BF1F19F3F60
:102D700009F063C08F3F09F060C037C086E0FE01F4
:102D80003796DE01119601900D928A95E1F76F81D9
:102D90007885EA85FB85309741F17F3F11F46F3FDD
:102DA00021F12091720130E0C901019687709927C5
:102DB0004091710150E08417950709F447C0698379
:102DC0007A83FD83EC8396E0929FD001939FB00DB0
:102DD0001124AD58BE4FFE01319601900D929A9587
:102DE000E1F7809372010E943A1416E0809171011C
:102DF000909172018917C1F1189FC00111248D585B
:102E00009E4F0E94C414882379F1E09171011E9FA6
:102E1000F0011124ED58FE4F408151816281738190
:102E2000848195810E942A148091710190E001961D
:102E30008770992780937101D9CF4F815885698513
:102E40007A858B859C850E942A14CFCF0E94F0132F
:102E50001092720110927101E3EAF1E086E0DF0165
:102E60001D928A95E9F7C1CF2C960FB6F894DEBF74
:102E70000FBECDBFDF91CF911F910895EF92FF92CA
:102E80000F931F93CF93DF938C01892B09F46CC0B0
:102E9000F12CEE24E394E8012196F8018491843723
:102EA00040F4843008F051C0813081F0823019F153
:102EB0005BC0853709F444C0A8F19CE7980F9037B0
:102EC00008F052C08F770E94BD1041C00E5F1F4FA7
:102ED000FE01C49180E28C0F883048F4C7708E2DBB
:102EE00001C0880FCA95EAF70E94CB1914C08C2F35
:102EF0000E94840F2DC00E5F1F4FFE01C49180E21F
:102F00008C0F883058F4C7708E2D01C0880FCA9579
:102F1000EAF70E94D1190E94F4191AC08C2F0E945E
:102F2000BD1016C00E5F1F4FFE01C491CC2381F06F
:102F30008FE99FE00197F1F700C00000C150F6CF84
:102F40000E5F1F4FFE01F49003C00E94840F8E019C
:102F50008F2D882309F49FCFEFE9FFE03197F1F738
:102F600000C000008150F5CFDF91CF911F910F91EC
:102F7000FF90EF90089508950C94BB170E94BC1722
:102F80006093DA017093DB018093DC019093DD01A3
:102F90000C94D61308950C94BE170F931F930091B1
:102FA000DA011091DB012091DC013091DD01602B11
:102FB000712B822B932B1F910F910C94BE170F93A3
:102FC0001F930091DA011091DB012091DC01309117
:102FD000DD0160237123822393231F910F910C94B1
:102FE000BE170F931F930091DA011091DB0120911E
:102FF000DC013091DD0160277127822793271F9123
:103000000F910C94BE1708950C9403180E94041895
:103010006093D6017093D7018093D8019093D90122
:103020000C94D61360E070E0CB010C9406180F935B
:103030001F9341E050E060E070E08A019B0104C012
:10304000000F111F221F331F8A95D2F7C901B80143
:103050001F910F910C9406180F931F9341E050E0BD
:1030600060E070E004C0440F551F661F771F8A950B
:10307000D2F78091D6019091D701A091D801B0915B
:10308000D9018A019B01082B192B2A2B3B2BC90143
:10309000B8011F910F910C9406180F931F9341E0F4
:1030A00050E060E070E004C0440F551F661F771FBA
:1030B0008A95D2F740955095609570958091D6018C
:1030C0009091D701A091D801B091D9018A019B01BB
:1030D000082319232A233B23C901B8011F910F910B
:1030E0000C9406180F931F9341E050E060E070E0ED
:1030F00004C0440F551F661F771F8A95D2F7809131
:10310000D6019091D701A091D801B091D9018A013F
:103110009B01082719272A273B27C901B8011F91BE
:103120000F910C9406180F931F930091D6011091E4
:10313000D7012091D8013091D901602B712B822BBE
:10314000932B1F910F910C9406180F931F930091CE
:10315000D6011091D7012091D8013091D901602377
:103160007123822393231F910F910C9406180F93C0
:103170001F930091D6011091D7012091D801309171
:10318000D90160277127822793271F910F910C94F3
:10319000061808952DE0929F800D1124A82FA69562
:1031A000A695A695877051E001C0550F8A95EAF75C
:1031B00085E0A89FD001112420E030E070E0F90103
:1031C000EA0FFB1FE755FE4F4081CB01022E02C0E4
:1031D000969587950A94E2F78170992781958427BF
:1031E0008523842780832F5F3F4F2530310539F7B2
:1031F00008952DE0929F800D1124682F66956695A5
:103200006695982F977085E0689FB001112440E083
:1032100050E080E0FA01E60FF71FE755FE4F2081EE
:1032200030E0092E02C0369527950A94E2F7217006
:103230003327042E01C0220F0A94EAF7822B4F5F36
:103240005F4F4530510531F70895BF92CF92DF921D
:10325000EF92FF920F931F93CF93DF938C01C09057
:10326000DA01D090DB01E090DC01F090DD0180918B
:10327000D6019091D701A091D801B091D901C82A67
:10328000D92AEA2AFB2ACFE1D0E0D701C6010C2EC9
:1032900004C0B695A795979587950A94D2F780FFB5
:1032A00007C0BC2EB8018C2F0E94FD08019719F4AD
:1032B000219758F7B12C8B2DDF91CF911F910F9152
:1032C000FF90EF90DF90CF90BF900895CF93DF9362
:1032D000EC010E942519BE010E94FD08DF91CF91EB
:1032E00008951F93CF93DF93EB0190917001992381
:1032F00021F0CB010E94661913C0882349F0CB014D
:103300000E942519182F682FCE010E94CA1804C0E8
:10331000CB010E94F918182FBE01812F0E94FD08D1
:10332000DF91CF911F9108958091DE01859585955C
:10333000859508958091DE01877008959091DE0152
:10334000977081E009F480E008958091EA01089582
:103350009091EA01892B8093EA01089580959091DC
:10336000EA0189238093EA0108958093EA01089590
:103370001092EA0108959091E901892B8093E90167
:10338000089580959091E90189238093E90108953A
:103390001092E90108959091E801892B8093E8014A
:1033A000089580959091E80189238093E80108951C
:1033B0001092E80108958091DF01089508950C941A
:1033C000DE199091DF01981721F08093DF010C94B2
:1033D000DF1908958091DF01882329F01092DF0121
:1033E00080E00C94DF190895E0910001F091010153
:1033F0008091EA018083E0910001F09101019081C8
:103400008091E901892B8083E0910001F091010115
:1034100090818091E801892B80838091DF0188234E
:1034200081F0E0910001F09101019081892B80836E
:1034300080910001909101010E94FD1A81110E946A
:10344000EA1980910001909101010C94C90D089531
:103450000C94271A98E0899F90011124262B209321
:10346000DE010E942C188091DE0185958595859559
:103470000C94281A1092DE0180E00C94281A2091F6
:10348000DE01809582238093DE01982F977079F476
:1034900030E0482F082E000C550B2417350739F063
:1034A0008595859585950E944D180C943A1A089536
:1034B00090933F0180933E0108958295982F9C7CC4
:1034C000392F36953695282F237344E0249FC00169
:1034D0001124932F982B292F2A7A2695892F8575C9
:1034E000880F822B08951F93CF93DF931F92CDB740
:1034F000DEB799830E945D1A182F9981892F0E9447
:103500005D1A212F30E0322F2227A901482BCA0152
:103510000F90DF91CF911F91089580E090E00E947D
:10352000E32A21E08D3E9E4F09F020E0822F08958E
:1035300082E090E00C94DB2A83E090E00C94DB2A9C
:1035400084E090E00C94DB2A682F84E090E00C94F7
:10355000E92AAB01BC018FE090E00C94FB2AAB019F
:10356000BC0183E190E00C94FB2A60E070E0CB01A9
:103570000C94AF1A60E070E0CB010E94A91A0C9481
:10358000B51A6DEE7EEF80E090E00E94072B60E0C0
:1035900082E090E00E94E92A60E083E090E00E94EF
:1035A000E92A1092DA011092DB011092DC011092EC
:1035B000DD0160E084E090E00E94E92A60E085E0BF
:1035C00090E00E94E92A60E086E090E00E94E92A0B
:1035D0006FEF87E090E00E94E92A40E050E0BA01F6
:1035E00088E090E00E94FB2A60E08DE090E00E947D
:1035F000E92A0C94BA1A0C94C11AFC01329697E08D
:1036000080E0915029F021912223D9F38F5FF9CFE7
:1036100008959C01FC0132969FEF80E0419146178E
:1036200089F09F3F19F4411101C0982F8F5F8630B8
:10363000A9F79F3F39F0F901E90FF11D97FDFA95C0
:10364000628308950895FC0132960896208126131E
:1036500001C010823196E817F907C1F708950C945C
:10366000091B0C94231B029626E0FC0111922A955B
:10367000E9F7089508950C943A1B0E943B1B809132
:103680001702843049F11092EC0120E488E190E0C7
:103690000FB6F894A895809360000FBE2093600049
:1036A00080E00E9440070E943B1B83B7817F8460BB
:1036B00083BF83B7816083BF7894889583B78E7FFB
:1036C00083BF0FB6F894A8958091600088618093BD
:1036D0006000109260000FBE089508950895CF9382
:1036E0000E946D1B0E94A50B0E946E1BC0E08C2FD8
:1036F0000E94400C892B29F4CF5FC530C1F780E0D0
:1037000001C081E0CF91089508950C94841B0E941C
:10371000F0130E94BD0D0E9440070C94851B1F9260
:103720000F920FB60F9211248F939F93AF93BF9375
:103730008091EC01811113C080910D0290910E02D5
:10374000A0910F02B09110024196A11DB11D80936E
:103750000D0290930E02A0930F02B0931002BF913E
:10376000AF919F918F910F900FBE0F901F90189562
:1037700082E084BD93E095BD9AEF97BD80936E0083
:1037800008952FB7F89480910D0290910E02A091A8
:103790000F02B09110022FBF08952FB7F8946091D7
:1037A0000D0270910E0280910F02909110022FBFB6
:1037B0000895CF92DF92EF92FF920F931F932FB74E
:1037C000F89440910D0250910E0260910F02709199
:1037D00010022FBF6A017B01EE24FF248C0120E040
:1037E00030E0C016D106E206F30610F4415051094C
:1037F0009A01281B390BC9011F910F91FF90EF907F
:10380000DF90CF90089578941F920F920FB60F9289
:1038100011248F939F93AF93BF9380910D0290914A
:103820000E02A0910F02B09110020196A11DB11DD0
:1038300080930D0290930E02A0930F02B09310029A
:10384000BF91AF919F918F910F900FBE0F901F90DE
:10385000189587E797E790930108809300089AE00E
:1038600088E10FB6F894A895809360000FBE9093FE
:103870006000FFCF0E948D1A811102C00E94FB1AC6
:103880000E94981A8093EB010E94A01A90E09093F6
:103890001202809311020E949C1A682F70E080E04F
:1038A00090E00C94CB178091EF0180FF0BC06091EA
:1038B000050185E0689FB0011124759567957595A0
:1038C00067952BC081FF09C06091050185E0689F65
:1038D000B00111247595679520C082FF07C06091E3
:1038E000050185E0689FB001112417C09091F00197
:1038F0009923D1F060910401961788F72091050172
:1039000085E0289F90011124929FA001939F500D64
:10391000112470E0CA010E94AD2A6038710540F49C
:103920006115710539F002C065E070E0862F0895D9
:103930008FE7089581E008958091EF0180FF08C02E
:103940006091030170E0759567957595679521C045
:1039500081FF06C06091030170E07595679519C0FD
:1039600082FF04C06091030170E010C09091F001EB
:103970009923C1F0609102019617A0F7809103018D
:10398000899FC001112470E00E94AD2A6038710542
:1039900028F46115710521F0862F08958FE70895A9
:1039A00081E0089561E070E0F4CF803F21F40E944F
:1039B000531C819504C0813F29F40E94531C8093BD
:1039C000F4010895823F21F40E94531C819504C0A4
:1039D000833F29F40E94531C8093F3010895893F8B
:1039E00019F40E949C1C05C08A3F31F40E949C1C63
:1039F00081958093F50108958B3F21F40E949C1CD2
:103A0000819504C08C3F29F40E949C1C8093F60190
:103A10000895843F21F48091F201816017C0853FB1
:103A200021F48091F201826011C0863F21F48091DF
:103A3000F20184600BC0873F21F48091F20188601D
:103A400005C0883F31F48091F20180618093F201DA
:103A500008958D3F21F48091EF0181600BC08E3F6E
:103A600021F48091EF01826005C08F3F29F480919D
:103A7000EF0184608093EF010895803F39F48091D5
:103A8000F40187FF6CC01092F40169C0813F29F4F2
:103A90008091F4011816BCF362C09091F301823F4B
:103AA00029F497FF5CC01092F30159C0833F19F4C9
:103AB0001916CCF354C0893F41F48091F5011816D2
:103AC0000CF04DC01092F5014AC08A3F29F4809154
:103AD000F50187FF44C0F6CF8B3F39F48091F601A2
:103AE00087FF3DC01092F6013AC08C3F29F48091C7
:103AF000F6011816BCF333C0843F21F48091F20123
:103B00008E7F17C0853F21F48091F2018D7F11C017
:103B1000863F21F48091F2018B7F0BC0873F21F417
:103B20008091F201877F05C0883F31F48091F201D6
:103B30008F7E8093F20113C08D3F21F48091EF01BD
:103B40008E7F0BC08E3F21F48091EF018D7F05C0E9
:103B50008F3F29F48091EF018B7F8093EF0180915B
:103B6000F30181110EC08091F40181110AC080918E
:103B7000F501811106C08091F601811102C01092F9
:103B8000F00108958091EB0183FF7EC082EA93E00B
:103B90000E946B068091F2011F928F938DE993E052
:103BA0009F938F930E9404078BE993E00E946B061A
:103BB0008091F301282F082E000C330B3F938F9335
:103BC00088E993E09F938F930E94040786E993E02E
:103BD0000E946B068091F401282F082E000C330BF5
:103BE0003F938F9383E993E09F938F930E94040701
:103BF00081E993E00E946B068091F501282F082E41
:103C0000000C330B3F938F938EE893E09F938F9339
:103C10000E9404078CE893E00E946B068091F601F5
:103C2000282F082E000C330B3F938F9389E893E0E5
:103C30009F938F930E94040786E893E00E946B068F
:103C40008091F0011F928F9383E893E09F938F936D
:103C50000E94040781E893E00E946B068091EF01C7
:103C60001F928F938EE793E09F938F930E94040798
:103C70008BE793E00E946B068DB79EB74C960FB60C
:103C8000F8949EBF0FBE8DBF81EF91E00E94120E8F
:103C90000E94C11B9093EE018093ED0108951F9344
:103CA000CF93DF938091ED019091EE010E94D91B9B
:103CB000AC019091F001992321F02091060130E0B0
:103CC00006C0209107018AE0289F90011124421725
:103CD000530708F47BC08091F301C091F401D091A7
:103CE000F5011091F601811107C0C1116BC0D1110E
:103CF00069C0111167C06AC09F3F19F09F5F909320
:103D0000F001181624F40E94531C8093F301809153
:103D1000F30187FF05C00E94531C81958093F30136
:103D20001C1624F40E94531C8093F4018091F4012A
:103D300087FF05C00E94531C81958093F401309148
:103D4000F3013323E1F02091F4012223C1F045EB8C
:103D50003403C0011124892F990F990B009709F49E
:103D600081E08093F30135EB2303C0011124892FF7
:103D7000990F990B009709F481E08093F4011D16C7
:103D800024F40E949C1C8093F5018091F50187FF2B
:103D900005C00E949C1C81958093F501111624F4A6
:103DA0000E949C1C8093F6018091F60187FF05C05C
:103DB0000E949C1C81958093F601DF91CF911F9109
:103DC0000C94C21D9F3F09F099CFA1CFDF91CF91F5
:103DD0001F910895E1EFF1E086E0DF011D928A95E1
:103DE000E9F71092F0011092EF01089585EC95E04B
:103DF0000E946B061F9281E08F931F9285E08F9344
:103E000087E795E09F938F930E9404070F900F9090
:103E10000F900F900F900F9008958330E9F128F4E0
:103E2000813061F0823009F10895853009F462C073
:103E300008F449C0863009F474C0089580910701E0
:103E4000262F30E0280F311D2F3F310524F4680F55
:103E50006093070103C08FEF8093070180910701F2
:103E60001F928F9380EB94E072C080910601262F01
:103E700030E0280F311D2F3F310524F4680F609387
:103E8000060103C08FEF80930601809106011F9207
:103E90008F938EE994E05BC080910501262F30E07E
:103EA000280F311D2F3F310524F4680F6093050161
:103EB00003C08FEF80930501809105011F928F93BE
:103EC0008BE894E044C080910401262F30E0280F55
:103ED000311D2F3F310524F4680F6093040103C0A6
:103EE0008FEF80930401809104011F928F9386E7E6
:103EF00094E02DC080910301262F30E0280F311D62
:103F00002F3F310524F4680F6093030103C08FEF46
:103F100080930301809103011F928F938DE594E0BC
:103F200016C080910201262F30E0280F311D2F3F4F
:103F3000310524F4680F6093020103C08FEF809372
:103F40000201809102011F928F9382E494E09F937B
:103F50008F930E9404070F900F900F900F90089579
:103F6000833081F128F4813059F08230D1F0089506
:103F7000853009F449C0B8F1863009F456C0089577
:103F800080910701681720F4861B8093070102C007
:103F900010920701809107011F928F9383E394E0B1
:103FA00054C080910601681720F4861B8093060197
:103FB00002C010920601809106011F928F9381E248
:103FC00094E043C080910501681720F4861B80931C
:103FD000050102C010920501809105011F928F9387
:103FE0008EE094E032C080910401681720F4861BB3
:103FF0008093040102C010920401809104011F9279
:104000008F9389EF93E021C080910301681720F41A
:10401000861B8093030102C010920301809103016B
:104020001F928F9380EE93E010C080910201681779
:1040300020F4861B8093020102C01092020180913D
:1040400002011F928F9385EC93E09F938F930E94C0
:1040500004070F900F900F900F900895CF93C82FE3
:104060001F928F938AEC96E09F938F930E94040790
:1040700081E090E0A0E0B0E0BC01CD0104C0660F9B
:10408000771F881F991FCA95D2F70E94CB170F90F0
:104090000F900F900F90CF910C94F013CF93873225
:1040A00088F58E3108F00BC18E3009F489C0D8F440
:1040B000873009F461C08B3009F44FC0863009F0B5
:1040C00004C18091EB01817F8E7F8093EB018FE3B0
:1040D00098E00E946B068CE79AE00E946B0681E0F4
:1040E0008093F80147C0863109F4B2C020F48031D2
:1040F00009F47CC0EAC0893109F493C08B3109F41A
:104100004BC0E3C0883349F150F4893209F4D9C077
:10411000853309F4D6C0873209F4D3C0D6C08334BE
:1041200009F4CFC028F48A3308F4CFC08953CAC039
:10413000883409F0CAC00E94F01380E69AE00E9419
:104140006B062FEF83ED90E3215080409040E1F724
:1041500000C000000E94291C0DC086E698E043C004
:1041600087E49AE00E946B068091EB01897F877F4C
:104170008093EB01C1E0AEC08091EB01C82FC095E8
:10418000C170C0FB80F98093EB01CC2349F384E537
:104190009AE00E946B069EC09091EB0191FBCC27A8
:1041A000C0F981E0C827892FC0FB81F98093EB011A
:1041B000CC2319F08AE39AE029C08CE29AE013C07C
:1041C0009091EB0192FBCC27C0F981E0C827892FA1
:1041D000C0FB82F98093EB01CC2319F08DE19AE0CA
:1041E00015C08DE09AE00E946B06C4CF9091EB0160
:1041F00093FBCC27C0F981E0C827892FC0FB83F946
:104200008093EB01CC2351F081E09AE00E946B0691
:104210008091EB0181608093EB015CC084EF99E0B9
:10422000E2CF80E398E00E946B0683E098E00E9472
:104230006B068CEC97E00E946B0689E997E00E9480
:104240006B0683E697E00E946B0688E397E0CBCF8E
:104250008AE297E00E946B060E94BD0D1F928F9329
:1042600080E197E09F938F930E9404078091120151
:104270001F928F9389EF96E09F938F930E9404077C
:10428000809105021F928F9386EE96E09F938F9305
:104290000E9404070E94CD1B9F938F937F936F937F
:1042A0008FEC96E09F938F930E9404078DB79EB783
:1042B00042960FB6F8949EBF0FBE8DBF5BCF8D5157
:1042C00001C080E00E942E2055CF82EF99E00E942D
:1042D0006B06C0E08C2FCF91089580E0089580E0B8
:1042E00008958E518A3030F4E82FF0E0EB5DFE4FF8
:1042F0008081089580E00895CF93C82F8091F801C0
:10430000813059F020F0823009F445C039C10E9453
:10431000A519823209F036C104C00E94A519823263
:1043200061F48C2F0E946D21811104C08C2F0E949A
:104330004E202FC081E090E02CC08C2F0E946F2176
:10434000811126C0C431E1F070F4CB3081F0C0316E
:10435000D1F40E94F61E82EC96E00E946B0682E089
:104360008093F80115C0C93259F0C83361F48FE366
:1043700098E00E946B0686EC96E00E946B0608C0EF
:104380001092F80101C180EC96E00E946B06FCC01F
:1043900081E08170FBC0C43228F5CE3108F0C1C085
:1043A000CB30A1F1D0F4C73009F0D0C08EE18093BA
:1043B000070182E3809306018AE08093050184E18E
:1043C0008093040188E08093030188E280930201D6
:1043D00086E695E00E946B06BCC0C33149F1C4314A
:1043E000C1F0B4C0CB3409F4A6C028F4C93289F0B6
:1043F000C83361F0ABC0C13509F49BC0C23509F4C4
:1044000096C0CE3409F0A2C06AE09BC00E94F61E9E
:10441000A0C08091F701882319F01092F70199C08C
:1044200083E795E00E946B0681E08093F801AEC0BF
:104430008DE495E00E946B068BE395E00E946B068D
:10444000809107011F928F9388E395E09F938F934C
:104450000E94040786E395E00E946B0684E295E0E3
:104460000E946B06809106011F928F9381E295E076
:104470009F938F930E9404078FE195E00E946B0643
:1044800080E195E00E946B06809105011F928F9359
:104490008DE095E09F938F930E9404078BE095E059
:1044A0000E946B068AEF94E00E946B0680910401E3
:1044B0001F928F9387EF94E09F938F930E9404073E
:1044C00085EF94E00E946B0680EE94E00E946B06FC
:1044D000809103011F928F938DED94E09F938F93B2
:1044E0000E9404078BED94E00E946B0684EC94E03C
:1044F0000E946B06809102011F928F9381EC94E0E1
:104500009F938F930E9404078FEB94E00E946B06A9
:104510008DB79EB748960FB6F8949EBF0FBE8DBF5D
:1045200018C08C2F0E9471218093F70112C061E0A6
:1045300003C061E006C06AE08091F7010E940D1F90
:1045400008C08091F7010E94B01F03C084E695E087
:1045500013C08091F701882369F01F928F938EE535
:1045600095E09F938F930E9404070F900F900F90F8
:104570000F9004C08BE595E00E946B0681E006C0B9
:104580001092F80180E002C080E003CFCF9108953F
:104590008091040208959FB7F8941092FB019FBF89
:1045A00090911702943009F057C09091E9009F70E4
:1045B0003091EC00232F217030FD20E8922B23E076
:1045C0002093E9002091EB0020FF43C02091EE00F2
:1045D00027FF3FC02091F901222321F02091E8001C
:1045E00025FF37C01092F90126E03091E80035FD33
:1045F00015C030911702343061F53091EB0035FD74
:1046000028C0215021F481E08093F90122C0EFE914
:10461000FFE03197F1F700C00000E7CF8093F10091
:104620008091E80085FD0AC08091E80080FFFCCF02
:104630008091E8008E778093E80006C08FB7F894E9
:1046400021E02093FB018FBF9F709093E90080E0F1
:1046500008959F709093E9008FEF08950F931F9333
:10466000CF93DF9300D01F92CDB7DEB78C010E94AD
:10467000E925823011F0843021F584E089831B83A1
:104680000A8382E08093E9008FEF9091E8008150E7
:1046900095FD06C095ED9A95F1F700008111F5CFD3
:1046A0008091E80085FF0DC040E050E063E070E0DD
:1046B000CE0101960E9406268091E8008E778093B5
:1046C000E8000F900F900F90DF91CF911F910F9105
:1046D0000895CF93DF9300D01F92CDB7DEB720911E
:1046E0001702243031F523E02983805891099B83F8
:1046F0008A8382E08093E9008FEF9091E8008150F7
:1047000095FD06C095ED9A95F1F700008111F5CF62
:104710008091E80085FF0DC040E050E063E070E06C
:10472000CE0101960E9406268091E8008E77809344
:10473000E8000F900F900F90DF91CF910895CF93E5
:10474000DF93EC010E94E925823011F08430F9F406
:1047500082E08093E9009FEF8091E800915085FD11
:1047600006C085ED8A95F1F700009111F5CF809193
:10477000E80085FF0CC040E050E066E070E0CE014C
:104780000E9406268091E8008E778093E800DF91F2
:10479000CF910895CF93DF93EC010E94E9258230F9
:1047A00011F0843039F581E08093E9008FEF90912A
:1047B000E800815095FD06C095ED9A95F1F700004F
:1047C0008111F5CF8091E80085FF14C040E050E0F2
:1047D00068E070E0CE010E9406268091E8008E77A6
:1047E0008093E80088E0FE01ACEFB1E001900D920B
:1047F0008A95E1F7DF91CF91089585EA9AE00E94CA
:104800006B0680911602811109C00E949B270E94AD
:10481000F8278091E20084608093E200089581EAA5
:104820009AE00E946B061092160208958DE99AE0B4
:104830000C946B0689E99AE00C946B0685E99AE082
:104840000E946B060C94871B2091FA012F5F822F28
:1048500062E30E94A12A992319F02093FA01089596
:104860001092FA018091FB01882371F18091170267
:10487000843041F58091E9008F702091EC00922FF7
:10488000917020FD90E8892B93E09093E90090913E
:10489000EB0090FF14C09091EE0097FF10C0909134
:1048A000E80095FF03C01092F100F9CF9091E80065
:1048B00090FF05C09091E8009E779093E8008F707C
:1048C0008093E9001092FB01089542E061EC81E0E1
:1048D0000E94152742E261EC82E00E94152742E225
:1048E00061EC83E00C94152780911902833009F460
:1048F00060C030F4813071F0823009F499C00895BD
:104900008A3009F485C08B3009F46BC0893009F016
:10491000A7C020C080911802813A09F0A1C08091FF
:10492000E800877F8093E80080911C0290911D022F
:10493000892B21F468E08CEF91E003C060E080E017
:1049400090E070E00E9451268091E8008B77809380
:10495000E800089580911802813209F081C08091A9
:104960001C0290911D02029708F07AC08091E80025
:10497000877F8093E8008091E80082FD05C08091E8
:1049800017028111F8CF6CC02091F3008091F200E2
:1049900090E0922B029729F48091F1008B7F813077
:1049A00021F48091F100809304028091E8008B77DC
:1049B00053C080911802813A09F052C080911C02C4
:1049C00090911D02892B09F04BC08091E800877FF0
:1049D0008093E8008091E80080FFFCCF8091120175
:1049E00036C0809118028132D9F580911C029091D5
:1049F0001D02892BA9F58091E800877F8093E8004C
:104A00000E944A2780911A02809312010C94F0139D
:104A100080911802813221F58091E800877F809390
:104A2000E8000E944A2780911B02809305020895A6
:104A300080911802813AA1F48091E800877F8093E9
:104A4000E8008091E80080FFFCCF80910502809310
:104A5000F1008091E8008E778093E8000C944A275B
:104A6000089584B7877F84BF0FB6F894A895809186
:104A70006000886180936000109260000FBE80E843
:104A800080936100109261000E945A0E0E949B2741
:104A90000E94F8278091E20084608093E2008BEC12
:104AA00092E20E94581A78940E94862A0E94620E0E
:104AB00088E091E00E94B80D84E89AE00E946B06BD
:104AC00080911702853089F480E89AE00E946B0695
:104AD0000E943D1B80911502882391F30E946F1B59
:104AE000882371F30E94F025EBCF0E94920EE8CF4D
:104AF0000C947A25292F332723303105C9F064F42B
:104B00002130310581F02230310509F049C08BE5B3
:104B100090E027ED3AE048C02132310521F1223200
:104B2000310571F13DC082E190E022E33BE03CC001
:104B300099278130910571F02CF4892B89F5E3EDEB
:104B4000FAE00DC08230910541F0039749F5E9EA9A
:104B5000FAE005C0E3ECFAE002C0EFEAFAE0849183
:104B600090E09F0121C063307105D0F4660F771F7C
:104B7000FB01E85CFE4F2081318189E090E014C0A8
:104B80006330710568F4FB01EE0FFF1FEE5CFE4F12
:104B900020813181FB01E15DFE4F808190E004C006
:104BA00080E090E020E030E0FA0131832083089536
:104BB0000895CF93C82F0E94D825C0930602CF91A5
:104BC000089580911702843011F081E0089582E009
:104BD000089580910602811102C00C94E125089588
:104BE00080E189BD82E189BD09B400FEFDCF8091DD
:104BF000D8008F7D8093D8008091E0008260809300
:104C0000E0008091E00081FDFCCF0895CF92DF921B
:104C1000EF92FF920F931F93CF93DF93EC018B01E1
:104C20006A010E946927811133C0C114D10439F08F
:104C3000F60180819181081B190BC80FD91FE12C47
:104C4000F12C0115110519F18091E80085FD16C0C0
:104C50008091E8008E778093E800C114D10449F078
:104C6000F60180819181E80EF91EF182E08285E0F3
:104C70000FC00E946927882321F30AC0899180937D
:104C8000F10001501109FFEFEF1AFF0ADACF80E0BF
:104C9000DF91CF911F910F91FF90EF90DF90CF9018
:104CA000089520911E0230911F022617370748F001
:104CB0006115710539F42091E8002E772093E80002
:104CC00001C0B90140E061157105A9F120911702F9
:104CD000222309F443C0253009F442C02091E800A2
:104CE00023FD40C02091E80022FD32C02091E80061
:104CF00020FFE9CF4091F3002091F20030E0342B07
:104D0000FC01CF016115710559F02830310540F4DF
:104D100081918093F100615071092F5F3F4FF1CF76
:104D200041E02830310509F040E02091E8002E777D
:104D30002093E800C8CF4111C9CF0AC08091170263
:104D4000882361F0853061F08091E80083FD0AC01E
:104D50008091E80082FFF2CF80E0089582E008951C
:104D600083E0089581E0089520911E0230911F0292
:104D70002617370748F06115710539F42091E800CE
:104D80002E772093E80001C0B901FC0120E06115F5
:104D9000710591F180911702882309F440C0853094
:104DA00009F43FC08091E80083FD3DC08091E80098
:104DB00082FD2FC08091E80080FFE9CF2091F300B1
:104DC0008091F20090E0922B6115710559F08830C6
:104DD000910540F424912093F100319661507109BE
:104DE0000196F2CF21E0089709F020E08091E800D9
:104DF0008E778093E800CBCF2111CCCF0AC0809171
:104E00001702882361F0853061F08091E80083FD0E
:104E10000AC08091E80082FFF2CF80E0089582E02E
:104E2000089583E0089581E00895982F973058F50C
:104E30009093E900981739F07091EC002091ED0003
:104E40005091F00003C0242F762F50E021FF19C0AD
:104E50003091EB003E7F3093EB003091ED003D7FD1
:104E60003093ED003091EB0031603093EB007093A4
:104E7000EC002093ED005093F0002091EE0027FF0E
:104E800007C09F5FD3CF8F708093E90081E00895C2
:104E900080E008958091180287FF11C08091E8009A
:104EA00082FD05C0809117028111F8CF11C0809159
:104EB000E8008B770BC080911702882349F080911E
:104EC000E80080FFF8CF8091E8008E778093E800BB
:104ED00008952091E4003091E50095E64091EC00C2
:104EE000842F817040FF22C08091E80080FD1CC0AB
:104EF00080911702882391F0853091F08091EB002A
:104F000085FD10C04091E4005091E5004217530721
:104F100029F39A01915011F784E0089582E00895F1
:104F200083E0089581E0089580E008954091E800CD
:104F300042FFDECF08950E9409280E941128E0EE6A
:104F4000F0E0808181608083E8EDF0E080818F7700
:104F5000808319BCA7EDB0E08C918E7F8C9380810B
:104F60008F7E80831092160208950F931F93CF9324
:104F7000DF930E9409280E941128C8EDD0E08881A3
:104F80008F77888388818068888388818F7D8883F4
:104F900019BC10921702109213021092150210926F
:104FA000140200EE10E0F80180818B7F80838881FD
:104FB0008160888342E060E080E00E941527E1EE96
:104FC000F0E080818E7F8083E2EEF0E0808181607E
:104FD0008083808188608083F80180818E7F8083D8
:104FE000888180618883DF91CF911F910F9108950F
:104FF000E8EDF0E080818F7E8083E7EDF0E0808156
:105000008160808384E082BF81E0809316020C94EB
:10501000B527E8EDF0E080818E7F80831092E2007A
:1050200008951092DA001092E10008951F920F92F5
:105030000FB60F9211242F933F934F935F936F936B
:105040007F938F939F93AF93BF93EF93FF93809141
:10505000E10082FF0BC08091E20082FF07C08091D7
:10506000E1008B7F8093E1000E9424248091DA008C
:1050700080FF1FC08091D80080FF1BC08091DA00A4
:105080008E7F8093DA008091D90080FF0DC080E18F
:1050900089BD82E189BD09B400FEFDCF81E0809326
:1050A00017020E94FD2305C019BC109217020E942E
:1050B0000F248091E10080FF19C08091E20080FF01
:1050C00015C08091E2008E7F8093E2008091E20023
:1050D00080618093E2008091D80080628093D80044
:1050E00019BC85E0809317020E941A248091E10088
:1050F00084FF30C08091E20084FF2CC080E189BD34
:1051000082E189BD09B400FEFDCF8091D8008F7D7A
:105110008093D8008091E1008F7E8093E1008091A0
:10512000E2008F7E8093E2008091E20081608093B4
:10513000E20080911302882311F084E007C080917F
:10514000E30087FD02C081E001C083E08093170285
:105150000E941E248091E10083FF29C08091E2001B
:1051600083FF25C08091E100877F8093E10082E08A
:1051700080931702109213028091E1008E7F80933A
:10518000E1008091E2008E7F8093E2008091E20056
:1051900080618093E20042E060E080E00E94152799
:1051A0008091F00088608093F0000E941624FF91A7
:1051B000EF91BF91AF919F918F917F916F915F918F
:1051C0004F913F912F910F900FBE0F901F90189508
:1051D0001F920F920FB60F9211242F933F934F936C
:1051E0005F936F937F938F939F93AF93BF93CF936F
:1051F000DF93EF93FF93C091E900CF708091EC00B3
:10520000D82FD17080FDD0E81092E9008091F00095
:10521000877F8093F00078940E942C291092E900F7
:105220008091F00088608093F000CD2BCF70C09308
:10523000E900FF91EF91DF91CF91BF91AF919F91E5
:105240008F917F916F915F914F913F912F910F902F
:105250000FBE0F901F9018951F93CF93DF93CDB77C
:10526000DEB7AA970FB6F894DEBF0FBECDBFE8E158
:10527000F2E088E08E0F9091F10091938E13FBCFB6
:105280000E9474248091E80083FF28C18091180255
:1052900090911902492F50E04A30510508F01EC183
:1052A000FA01E556FF4F0C94C12A803821F082386C
:1052B00009F014C108C0809114029091150299233D
:1052C00089F082600FC080911C028F70873008F0D7
:1052D00005C18093E9008091EB0085FB882780F968
:1052E0001092E9009091E800977F9093E8008093F6
:1052F000F1001092F100D0C0282F2D7F09F0EEC0F0
:10530000882319F0823061F0E9C080911A0281305F
:1053100009F0E4C0933009F080E0809315022EC0BC
:1053200080911A0281112AC080911C028F702FEF88
:10533000280F263008F0D2C08093E9002091EB00BE
:1053400020FF1CC0933021F48091EB00806214C0D8
:105350009091EB0090619093EB0021E030E0A90187
:1053600002C0440F551F8A95E2F74093EA0010925D
:10537000EA008091EB0088608093EB001092E900D6
:105380008091E800877F8093E8000E944A27A6C0AA
:105390008111A4C010911A021F778091E3008078D8
:1053A000812B8093E3008091E800877F8093E80061
:1053B0000E944A278091E80080FFFCCF8091E300A3
:1053C00080688093E300111102C082E001C083E095
:1053D0008093170283C08058823008F07FC080918C
:1053E0001A0290911B028C3D53E0950779F583E0FA
:1053F0008A838AE289834FB7F894DE01139620E00E
:105400003EE051E2E32FF0E050935700E49120FF9B
:1054100003C0E295EF703F5FEF708E2F90E0EA30AF
:1054200010F0C79601C0C0968D939D932F5F2431D5
:1054300049F74FBF8091E800877F8093E8006AE2D8
:1054400070E0CE0101960E94512615C060911C02A9
:1054500070911D02AE014F5F5F4F0E947825BC0125
:10546000892BE1F19091E800977F9093E800898182
:105470009A810E94B4268091E8008B778093E8009F
:105480002DC0803859F58091E800877F8093E8002F
:10549000809113028093F1008091E8008E7773CFA2
:1054A00081111CC090911A029230C0F48091E800E2
:1054B000877F8093E800909313020E944A2780918F
:1054C0001302811106C08091E30087FD02C081E0D4
:1054D00001C084E0809317020E9465248091E80057
:1054E00083FF0AC08091E800877F8093E800809165
:1054F000EB0080628093EB00AA960FB6F894DEBFB3
:105500000FBECDBFDF91CF911F910895CF938091B2
:1055100017028823A1F0C091E900CF709091EC00B0
:10552000892F817090FD80E8C82B1092E90080914E
:10553000E80083FD0E942C29CF70C093E900CF9131
:105540000895991B79E004C0991F961708F0961BDF
:10555000881F7A95C9F78095089597FB072E16F452
:10556000009407D077FD09D00E94C72A07FC05D018
:105570003EF4909581959F4F0895709561957F4F6A
:105580000895EE0FFF1F0590F491E02D0994AA1BDA
:10559000BB1B51E107C0AA1FBB1FA617B70710F01E
:1055A000A61BB70B881F991F5A95A9F78095909550
:1055B000BC01CD010895F999FECF92BD81BDF89A45
:1055C000992780B50895A8E1B0E042E050E00C943E
:1055D0000F2B262FF999FECF92BD81BDF89A019726
:1055E00000B4021639F01FBA20BD0FB6F894FA9A2B
:1055F000F99A0FBE08950396272F0E94EA2A0E9467
:10560000E92A252F0E94EA2A242F0C94EA2A0196DF
:10561000272F0E94EA2A0C94E92ADC01CB01FC0125
:10562000F999FECF06C0F2BDE1BDF89A319600B4FB
:0E5630000D9241505040B8F70895F894FFCF06
:10563E00E0012808140A321EC822CA239F236923B8
:10564E002E2301F4F5F6F7313332363534C697662C
:10565E0092939190940102030405060708090040F5
:0E566E008522EB0B660B440BE90A020B1B0BAB
:00000001FF
