:100000000C9437060C947E060C947E060C947E06A7
:100010000C947E060C947E060C947E060C947E0650
:100020000C947E060C947E060C9498290C946A2AF3
:100030000C94A81B0C947E060C947E060C947E06F1
:100040000C947E060C947E060C947E060C947E0620
:100050000C947E060C941C1C0C947E060C947E065C
:100060000C947E060C947E060C947E060C947E0600
:100070000C947E060C947E060C947E060C947E06F0
:100080000C947E060C947E060C947E060C947E06E0
:100090000C947E060C947E060C947E060C947E06D0
:1000A0000C947E060C947E060C947E0664116411FA
:1000B00096119611E3110312631363134512E212B2
:1000C000F312F3125313631363135C13E513E51375
:1000D000F713F713EE13F713F713F713E513E513FD
:1000E000F313F713F713F313D72AFE2AF02BFE2A84
:1000F000F02B4A2B6D2BF02BC32BD22B14001A00A4
:100100000800150017002A001C0018000C0012003F
:1001100013001E001F0004001600070009000A005B
:1001200028620B000D000E000F003300200021009C
:100130001D001B000600190005002C4111001000D5
:10014000360037003800220023001E001F00200068
:10015000210022002A002300240025002600270079
:100160001E001F002100220023002E020100280093
:100170000100010001000100010020002100240015
:1001800025002600270001000100010001000100F8
:10019000010001002200230044454255473A2064F3
:1001A000697361626C65642E0A0044454255473AA2
:1001B00020656E61626C65642E0A000A002530318C
:1001C0003662003A200025303258000A722F632030
:1001D000303132333435363738394142434445467D
:1001E0000A000A002530325820006B6579626F6181
:1001F00072645F7265706F72743A20000A00253075
:100200003258006B6579626F6172645F7365745F09
:100210006C65643A2000290A002575002F002575B9
:10022000005D28002564002000256400200025646E
:100230000020002564007C0025303258006D6F7569
:1002400073656B6579205B62746E7C7820792076AB
:1002500020685D287265702F61636C293A205B000D
:100260006D6B5F776865656C5F74696D655F746FF2
:100270005F6D6178203D2025640A006D6B5F7768B3
:1002800065656C5F6D61785F7370656564203D20A6
:1002900025640A006D6B5F74696D655F746F5F6DD7
:1002A0006178203D2025640A006D6B5F6D61785F89
:1002B0007370656564203D2025640A006D6B5F697D
:1002C0006E74657276616C203D2025640A006D6B4A
:1002D0005F64656C6179203D2025640A006D6B5F69
:1002E000776865656C5F74696D655F746F5F6D617C
:1002F00078203D2025640A006D6B5F776865656C2A
:100300005F6D61785F7370656564203D2025640AC8
:10031000006D6B5F74696D655F746F5F6D617820F0
:100320003D2025640A006D6B5F6D61785F737065B9
:100330006564203D2025640A006D6B5F696E7465FD
:100340007276616C203D2025640A006D6B5F6465E8
:100350006C6179203D2025640A000A00257500366D
:100360003A20776865656C5F74696D655F746F5F6F
:100370006D61783A20000A00257500353A207768CB
:1003800065656C5F6D61785F73706565643A2000C8
:100390000A00257500343A2074696D655F746F5FDB
:1003A0006D61783A20000A00257500333A206D61AE
:1003B000785F73706565643A20000A002575003225
:1003C0003A20696E74657276616C286D73293A20E3
:1003D000000A00257500313A2064656C6179282A8D
:1003E00031306D73293A20000A092D2056616C7551
:1003F0006573202D0A004D3E004D25643E20003FD0
:10040000007365742064656661756C740A00433E10
:10041000200077686572652064656C74613A2063BA
:100420007572736F723D25642C20776865656C3D2D
:1004300025640A53656520687474703A2F2F656EC1
:100440002E77696B6970656469612E6F72672F77AB
:10045000696B692F4D6F7573655F6B6579730A0002
:100460000A092D204D6F7573656B6579202D0A453E
:1004700053432F713A09717569740A313A096465F9
:100480006C6179282A31306D73290A323A09696E14
:1004900074657276616C286D73290A333A096D614F
:1004A000785F73706565640A343A0974696D655FD5
:1004B000746F5F6D61780A353A09776865656C5FBE
:1004C0006D61785F73706565640A363A09776865AF
:1004D000656C5F74696D655F746F5F6D61780A0A42
:1004E000703A097072696E742076616C7565730A72
:1004F000643A097365742064656661756C74730A87
:1005000075703A092B310A646F776E3A092D310AFA
:10051000706775703A092B31300A7067646F776EB7
:100520003A092D31300A0A7370656564203D2064F4
:10053000656C7461202A206D61785F7370656564F5
:10054000202A2028726570656174202F2074696DDF
:10055000655F746F5F6D6178290A003F004D3E2032
:1005600000433E20004C25640A0074696D65725F8B
:1005700072656164333228293A202530346C580A78
:10058000006B6579626F6172645F69646C653A20C3
:1005900025580A006B6579626F6172645F70726FD3
:1005A000746F636F6C3A2025580A00686F73745F2C
:1005B0006B6579626F6172645F6C65647328293A58
:1005C0002025580A000A092D205374617475732080
:1005D0002D0A004743433A20342E392E322041560B
:1005E000522D4C4942433A20312E382E3073766ECC
:1005F000204156525F415243483A20617672350A93
:10060000004F5054494F4E533A204C554641204DCF
:100610004F5553454B45592045585452414B455928
:1006200020434F4E534F4C4520434F4D4D414E4478
:1006300020343039360A004255494C443A202230A1
:100640002E372E35332D31382D67313234396461F0
:1006500022202832313A32373A3237204E6F762014
:1006600020322032303139290A005649443A2030AC
:100670007843413137284D61706C6520436F6D7050
:100680007574696E6729205049443A203078434197
:1006900033392843333929205645523A20307830AF
:1006A0003030310A00444553433A204120636F6D96
:1006B00070616374203339206B6579206B657962D2
:1006C0006F6172640A000A092D2056657273696FA2
:1006D0006E202D0A000A092D20436F6E736F6C6522
:1006E000202D0A4553432F713A09717569740A6DBB
:1006F0003A096D6F7573656B65790A000A092D20DB
:100700004D61676963202D0A443A09446562756743
:10071000204D65737361676520546F67676C650A68
:10072000583A094D61747269782044656275672092
:100730004D6F646520546F67676C65202D2053688A
:100740006F77206B65797072657373657320696E5E
:10075000206D617472697820677269640A4B3A0986
:100760004B6579626F6172642044656275672054DD
:100770006F67676C65202D2053686F77206B6579F4
:100780007072657373207265706F72740A4D3A09E6
:100790004465627567204D6F75736520546F676798
:1007A0006C650A563A0956657273696F6E0A533A58
:1007B000095374617475730A433A09416374697625
:1007C00061746520436F6E736F6C65204D6F646557
:1007D0000A46312D4631303A0953776974636820EF
:1007E000746F204C6179657220302D392028463194
:1007F00030203D204C30290A302D393A0953776991
:1008000074636820746F204C6179657220302D39D3
:100810000A47524156453A09537769746368207410
:100820006F204C6179657220302028616C7465728C
:100830006E617465290A423A094A756D7020746FB9
:1008400020426F6F746C6F616465720A4553433A5E
:10085000094A756D7020746F20426F6F746C6F6100
:100860006465722028616C7465726E617465290A12
:10087000453A095072696E7420454550524F4D20DB
:1008800053657474696E67730A4253504143453A25
:1008900009436C65617220454550524F4D0A000A6C
:1008A000002575002E6E6B726F3A20000A002575C8
:1008B000002E737761705F6261636B736C61736844
:1008C0005F6261636B73706163653A20000A0025A3
:1008D00075002E737761705F67726176655F65730F
:1008E000633A20000A002575002E6E6F5F677569F8
:1008F0003A20000A002575002E737761705F7261DF
:100900006C745F726775693A20000A002575002EC5
:10091000737761705F6C616C745F6C6775693A20A6
:10092000000A002575002E737761705F7263746C26
:100930005F726775693A20000A002575002E73778B
:1009400061705F6C63746C5F6C6775693A20000A54
:10095000002575002E636170736C6F636B5F746F3D
:100960005F636F6E74726F6C3A20000A0025750029
:100970002E737761705F636F6E74726F6C5F63610B
:1009800070736C6F636B3A20000A00253032580098
:100990006B65796D61705F636F6E6669672E7261FA
:1009A000773A20000A002575002E6D6F7573653A41
:1009B00020000A002575002E6B6579626F617264F4
:1009C0003A20000A002575002E6D61747269783A2C
:1009D00020000A002575002E656E61626C653A2064
:1009E000000A00253032580064656275675F636FE6
:1009F0006E6669672E7261773A20000A00257500DD
:100A000064656661756C745F6C617965723A20002B
:100A10003F000A6D6F7573653A206F66660A000ABB
:100A20006D6F7573653A206F6E0A000A6B657962A7
:100A30006F6172643A206F66660A000A6B657962BC
:100A40006F6172643A206F6E0A000A6D6174726998
:100A5000783A206F66660A000A6D61747269783AA6
:100A6000206F6E0A000A64656275673A206F6666D9
:100A70000A000A64656275673A206F6E0A000A0A06
:100A80004A756D70696E6720746F20626F6F746C49
:100A90006F616465722E2E2E2000433E2000436C51
:100AA000656172696E6720454550524F4D0A006579
:100AB00065636F6E6669673A0A005B735D004B653C
:100AC00079626F6172642073746172742E0A005BC4
:100AD000575D005B535D005B525D005B445D005BF6
:100AE000435D000403300000000803430033003975
:100AF00000000020034D00610070006C00650020C4
:100B00000043006F006D0070007500740069006E96
:100B100000670000000403090409025B00030100F0
:100B2000A0FA0904000001030101000921110100DC
:100B3000012240000705810308000A0904010001A1
:100B40000300000009211101000122850007058230
:100B50000320000A09040200020300000009211119
:100B6000010001222200070583032000010705037D
:100B700003200001120110010000000817CA39CA41
:100B80000100010203010631FF0974A10109751575
:100B90000026FF009520750881020976150026FFC2
:100BA00000952075089102C005010902A101850286
:100BB0000901A1000509190129051500250195055F
:100BC0007501810295017503810105010930093123
:100BD0001581257F95027508810609381581257FC5
:100BE000950175088106050C0A38021581257F9547
:100BF0000175088106C0C005010980A10185031A9D
:100C000081002A83001601002603009501751081DA
:100C100000C0050C0901A10185041A01002A9C02EB
:100C2000160100269C02950175108100C00501097E
:100C300006A101050719E029E715002501950875AA
:100C40000181029501750881010507190029FF1529
:100C50000026FF0095067508810005081901290581
:100C6000950575019102950175039101C00011244C
:100C70001FBECFEFDAE0DEBFCDBF04B603FE27C054
:100C80008091F6019091F701A091F801B091F901DE
:100C90008730904BA740B04BD1F41092F6011092E0
:100CA000F7011092F8011092F90114BE84B7877F02
:100CB00084BF0FB6F894A8958091600088618093F6
:100CC0006000109260000FBEE0E0F8E3099511E0CB
:100CD000A0E0B1E0E2E4F9E502C005900D92AC338A
:100CE000B107D9F721E0ACE3B1E001C01D92A63F06
:100CF000B207E1F70E94B3260C949F2C0C940000DD
:100D0000FF93EF93E0913C01F0913D01309709F0A2
:100D10000995EF91FF910895FC018591803011F0C4
:100D2000EFDFFBCF0895FF27E0E230E247FF0CC082
:100D3000419597FF09C0EDE260957095809590957B
:100D4000611D711D811D911D27FF02C0219530E39A
:100D500050E2AA27660F771F881F991FAA1FA417A2
:100D600010F0A41B63955A95A9F7AA3008F0A95F63
:100D7000A05DAF93F395611571058105910541F76C
:100D8000ED3211F4EF93F395F21718F43F93F395C6
:100D9000FBCF8F91B5DFFA95E1F70895E991F991CD
:100DA0008591803021F0853219F0AADFF9CF0895BE
:100DB00020E0E89455915532C1F3503311F4689412
:100DC00055915A3348F4505390F3220F022E220FBC
:100DD000220F200D250FF4CF0EF4219589919991C2
:100DE000533619F3533729F1533559F1BC0188278C
:100DF0009927E8945C3621F48991999168945591EA
:100E0000543639F446EF7EF077FF0DC08FEF9FEF39
:100E10000AC055374AE039F0583540E121F05236E2
:100E200042E009F00895FF93EF937DDFEF91FF918A
:100E3000B7CFFF93EF93FC0181918030B9F360DF6E
:100E4000FBCFFF93EF9368DFF1CFDF93CF93CDB765
:100E5000DEB72596A3DFCF91DF91089581E0089555
:100E600081E008950C9430071F93CF93DF9300D057
:100E700000D01F92CDB7DEB749835A8320915E011F
:100E800089819A81211112C0662349F00E940A19B2
:100E9000182F682F89819A810E94AF1803C00E9481
:100EA000DE18182F69817A81812F04C00E940A19E7
:100EB00069817A810F900F900F900F900F90DF91C2
:100EC000CF911F910C945909FC014081518162819D
:100ED000738184810C9434070E946F1A811102C0BF
:100EE0000E940F1B0C94000C0C94030C08950C949E
:100EF00076070C94770708950E94D5130E947B070C
:100F00002FEF84E39CE0215080409040E1F700C047
:100F1000000087E797E790930108809300080C94FE
:100F2000421C0F931F93CF93DF938C010E946407A1
:100F3000EC01B8010E943207882309F4AFC1B8015F
:100F4000CE010E94EB0D882309F4A8C1C631FCE54F
:100F5000DF0739F50E948A19282FF8018281409114
:100F6000000150910101882379F02A7A91E009F477
:100F700090E090933E01911102C069E201C065E3E7
:100F8000CA010E94481B0AC080913E01811102C023
:100F900069E201C065E3CA010E944A1B0E94D6199A
:100FA0007DC1C7318CE5D80708F04DC1C130ECE5F3
:100FB000DE07D1F4F801C281CC2309F470C180911D
:100FC000C501C82FC095C170C0FB80F98093C501D1
:100FD000CC2329F08AEA91E00E948C065FC188E95F
:100FE00091E00E948C065BC1C230FCE5DF0708F48B
:100FF00019C1F8018281882309F417C10E946F1A70
:10100000811102C00E940F1B0E94821A9093E80176
:101010008093E701C031FCE5DF0709F4C3C008F0A5
:1010200041C0C830ECE5DE0709F49AC0F0F4C430E2
:101030008CE5D80709F487C068F4C230FCE5DF0707
:1010400009F477C0C330DC4509F0E3C08091E701C3
:10105000826076C0C630ECE5DE0709F46EC008F0A9
:101060007BC08091E70188606BC0CC308CE5D807ED
:1010700009F485C068F4CA30FCE5DF0709F474C0E0
:1010800008F079C00E94D5138091E701806858C0AC
:10109000CE30ECE5DE0709F476C008F07FC0809121
:1010A000E7018BC0CB3F8CE5D80709F44FC018F59A
:1010B000C331FCE5DF0709F47DC078F4C131ECE50C
:1010C000DE0709F473C0C231DC4509F0A2C00E94FA
:1010D000D5138091E7018F7733C0C5318CE5D807F0
:1010E00009F472C008F486C0CA3FDC4509F091C01B
:1010F0008091E8013EC0CF3F8CE5D80709F45FC07E
:1011000058F4CD3FFCE5DF0709F444C008F43FC0C4
:101110008091E80182602DC0C130EDE5DE0709F461
:1011200075C008F45DC0C230DD4509F072C080E0D2
:101130006EC08091E701816003C08091E70180610A
:101140008093E70166C08091E70111C08091E801BA
:1011500082608093E8015DC08091E7018062F0CFFA
:101160008091E7018064ECCF8091E7018860846022
:10117000E7CF8160EECF8091E7018E7FE1CF809154
:10118000E7018D7FDDCF8091E701877FD9CF809107
:10119000E80118C08091E8018D7FDBCF8091E701E5
:1011A0008F7ECECF8091E7018F7DCACF8091E701FE
:1011B0008F7BC6CF8091E701877F8B7FC1CF8091E6
:1011C000E8018D7F8E7FC5CF8091E70182FB2227CA
:1011D00020F991E0922790FB82F990FB83F9B0CF40
:1011E0008091E801982F909591708E7F892B90FBCC
:1011F00081F9AFCF0E94D5138091E70187FB2227A9
:1012000020F991E0922790FB87F99ACF81E00E9424
:10121000111B8091E7019091E8010E94931A0E94AE
:10122000D5133CC0C115DC4539F0C801DF91CF9121
:101230001F910F910C942E07F801C281CC2379F1F4
:101240000E947C072BC0CE3DECE5DE0739F4F801A7
:10125000C281CC2321F10E940F1B20C0CF3DFCE5B1
:10126000DF07A8F4CC3D8CE5D80731F4F801C28142
:10127000CC23A9F080E008C0CD3DDC45B1F6F801F3
:10128000C281CC2361F082E00E945B2707C0CE01BF
:101290008A5F9C45099708F4ACCEC7CFC0E08C2F7D
:1012A000DF91CF911F910F91089580E090E0089514
:1012B00008959DE0799FF001112497E2899FE00D48
:1012C000F11D1124E60FF11DEE0FFF1FE450FF4F3B
:1012D000859194910895880F991FFC01E554FE4F64
:1012E000859194910895CF93DF930E9459090E94AC
:1012F000280BEC01811520E59207F0F5811530E40B
:10130000930708F024C1883E910500F5803E9105C1
:1013100008F09AC1883A910570F4853A910508F071
:101320009FC08130910509F48FC108F440C1049732
:1013300008F08AC13CC18F3B910508F49CC0803CF9
:10134000910508F434C1805C9109F4C0811540E234
:10135000940758F4C11581E0D80708F075C1C03F63
:10136000D10508F424C1D0656FC1811520E392072F
:1013700008F0E4C09F70DEC0811535E5930708F0E2
:1013800044C0811544E5940708F0F8C0C11582E512
:10139000D80708F5C11521E5D20708F0DBC08C2F6E
:1013A000837021E030E002C0220F331F8A95E2F7FC
:1013B0003C68CE0174E0969587957A95E1F7837045
:1013C000382BCF70C695C69580E2C89FE0011124E6
:1013D000C22BD32B39C12C2F26952695CE01837095
:1013E0009927C115D34508F0BAC040E2249F900167
:1013F0001124C1E0D0E002C0CC0FDD1F8A95E2F7D6
:101400002C2B3D2BE901DC681FC1811549E59407B0
:10141000A0F4C11588E5D80708F0B5C0C11526E5C8
:10142000D20708F0C4C08C2F0E94BC0B8F71C82F4C
:10143000D0E0DC2FCC27D06207C181153AE59307B5
:1014400008F4A6C090568115904208F0B0C08D2FC8
:101450008F710E94BC0BDD27D0628F71D82BF4C036
:10146000853A910509F4A6C0863A910509F0A5C010
:10147000C2E8D0E4E9C0883A910509F4A1C0893AEC
:10148000910509F4A0C08A3A910509F49FC08B3AEE
:10149000910509F49EC08C3A910509F49DC08B3BDF
:1014A000910509F49CC08C3B910509F49BC08D3AD1
:1014B000910509F49AC0803B910509F499C08E3AD0
:1014C000910509F498C08F3A910509F497C0813BC2
:1014D000910509F496C0823B910509F495C0833BC0
:1014E000910509F494C0843B910509F493C0853BB0
:1014F000910509F492C0863B910509F491C0873BA0
:10150000910509F490C0883B910509F48FC0893B8F
:10151000910509F48EC08D3B910509F48DC08E3B79
:10152000910509F48CC08A3B910509F48BC0C0E099
:10153000D4E48AC00E946B09EC0186C09927D3FFCE
:1015400003C0EC01D86C80C0EC01D06C7DC0DF70B2
:10155000D06A7AC0DC2FCC27C16FD06A75C040E258
:10156000249F90011124C1E0D0E002C0CC0FDD1F08
:101570008A95E2F7C22BD32BDA6866C0D82FCC2726
:10158000C46FD06A61C0DC2FCC27C06FD06A5CC04A
:101590008F700E94BC0B94E0D695C7959A95E1F7A1
:1015A000CF70D0E0DC2FCC27D069C82B4DC0C0E075
:1015B000D0E04AC0C1E8D0E447C0C3E8D0E444C0AA
:1015C000C2EED4E441C0C9EED4E43EC0CAEED4E4D5
:1015D0003BC0C5EBD4E438C0C6EBD4E435C0C3EBA4
:1015E000D4E432C0C4EBD4E42FC0C7EBD4E42CC0A5
:1015F000CCECD4E429C0CDECD4E426C0C3E8D5E4D7
:1016000023C0CAE8D5E420C0C2E9D5E41DC0C4E9BE
:10161000D5E41AC0C1E2D6E417C0C3E2D6E414C0D0
:10162000C4E2D6E411C0C5E2D6E40EC0C6E2D6E4F8
:101630000BC0C7E2D6E408C0CFE6D4E405C0C0E7DB
:10164000D4E402C0CAE2D6E4CE01DF91CF9108957E
:101650008238910569F1B0F48133910509F46DC0C8
:1016600048F48932910509F463C08A32910509F47E
:1016700069C008958533910509F455C089339105F2
:10168000B9F00895833E910569F138F4803E9105E3
:10169000B1F0823E910509F10895863E9105A9F1C8
:1016A000873E9105B9F1843E910509F064C023C0DD
:1016B0002091E70120FD4FC021FD4DC0089580918C
:1016C000E70180FD44C08091E80180FF44C0809123
:1016D000E70184FD42C083EE4DC08091E70182FFA7
:1016E00038C0F5CF8091E70182FD33C08091E801D9
:1016F00080FD31C0ECCF8091E80181FF32C0809144
:10170000E70184FD2AC087EE35C08091E70183FFA1
:1017100026C0F5CF8091E70183FD21C08091E801CB
:1017200081FD1FC0ECCF8091E70185FD1CC01DC06D
:101730008091E70185FD19C016C08091E70186FD03
:1017400016C017C08091E70186FD13C010C089E361
:1017500011C082EE0FC080EE0DC080E00BC086EE9F
:1017600009C084EE07C089E205C085E303C08AE2B0
:1017700001C081E390E008959091E70192FF0DC0D0
:10178000282F2871283019F4877F846006C0282FFD
:101790002471243011F48B7F886093FF0DC0282FB3
:1017A0002871283119F4877E846106C0282F24719E
:1017B000243111F48B7E88612091E80120FF0DC057
:1017C000382F3871383019F4877F816006C0382F80
:1017D0003171313011F48E7F886021FF0DC0282FC8
:1017E0002871283119F4877E816106C0282F217164
:1017F000213111F48E7E886194FD877E08950895CD
:101800000C94FF0B08950C94020CE82FF0E0EE0FFF
:10181000FF1FE15CFE4F808191810895CF92DF929E
:10182000EF92FF920F931F93CF93DF938BEC91E096
:101830000E948C068FE3E82E81E0F82EC0E0D0E015
:1018400096ECC92E91E0D92E0DEB11E0DF93CF93EA
:10185000DF92CF920E94250783EC91E00E948C06D4
:10186000F701819191917F010E94551A9F938F9367
:101870001F930F930E9425078BEB91E00E948C062B
:1018800021968DB79EB708960FB6F8949EBF0FBEEF
:101890008DBFC330D105D1F6DF91CF911F910F914C
:1018A000FF90EF90DF90CF900895A0E2B1E041E08B
:1018B00050E023E02A0F8D91E82FE295EF70F0E0E1
:1018C00031A18F70BA0102C0660F771F8A95E2F7C7
:1018D000CB01962F9095932391A392A1892B82A35C
:1018E0002A13E9CFA3E1B1E041E050E02DE02A0F57
:1018F0008D91E82FE295EF70F0E031A18F70BA0181
:1019000002C0660F771F8A95E2F7CB01962F90955C
:10191000932391A392A1892B82A32A13E9CF10923A
:101920004601109245011092400110923F01109221
:101930004801109247011092420110924101109209
:101940004A0110924901109244011092430183E030
:101950000E94430D0C946C075F926F927F928F925E
:101960009F92AF92BF92CF92DF92EF92FF920F932E
:101970001F93CF93DF9300E211E0A5E4B1E0612C67
:10198000EE24E394F12C5D018D909C9011971196BB
:101990001C921E92E80189918E01E82FE295EF706A
:1019A000F0E091A18F70A70101C0440F8A95EAF77A
:1019B000892F842B81A382A1542E5094852182A348
:1019C000D0EADA95F1F783E1C82E81E0D82E80E0E5
:1019D00090E0E60179906E01272D22952F7030E07E
:1019E000E90168A12D913C91119770E0D72DDF702E
:1019F00002C075956795DA95E2F760FD08C0B701FA
:101A0000082E02C0660F771F0A94E2F702C060E05A
:101A100070E0262B372B11963C932E9301968D3038
:101A20009105B9F681A1D52DD823D1A382A1482B48
:101A300042A3129681E0F50120813181821693063E
:101A400009F480E0682AF1E0AB34BF0709F09BCFCE
:101A5000262D43E06FE371E085E491E00E94440DA0
:101A60000E947407862DDF91CF911F910F91FF90F7
:101A7000EF90DF90CF90BF90AF909F908F907F902E
:101A80006F905F9008950895FF920F931F93CF93E7
:101A9000DF93F82E092F162FD72FC42F222349F0BA
:101AA00081E080934D010E94DA1B90934C0180935A
:101AB0004B0180914D018823D9F080914B01909189
:101AC0004C010E94F21B069798F0EF2DF02FA12FEA
:101AD000BD2F80E090E04C2F50E08417950734F440
:101AE000219131912D933D930196F7CF10924D01A5
:101AF000DF91CF911F910F91FF9008950F931F9346
:101B0000CF93DF93C62FD42F022FFC01828188232D
:101B1000C9F0609350010E94DA1B90934F018093AB
:101B20004E0180E28C0F883008F050C0C77081E011
:101B300001C0880FCA95EAF7DF91CF911F910F91ED
:101B40000C94241110915001161330C080914E0155
:101B500090914F010E94F21B883C910538F5C0E23C
:101B6000CD0F1D17B9F080E2810F883040F4177057
:101B700081E001C0880F1A95EAF70E942B11C83046
:101B800048F481E09D2F977001C0880F9A95EAF77D
:101B90000E942411802F0E941111C830B8F4D77010
:101BA00081E001C0880FDA95EAF70AC080E28C0F65
:101BB000883060F4C77081E001C0880FCA95EAF7E9
:101BC000DF91CF911F910F910C942B11DF91CF9149
:101BD0001F910F9108959C01CB01233F4CE53407E1
:101BE000F9F078F4283DFCE53F07B9F0293D4CE5D4
:101BF000340711F1273D3C4531F526E241EE61EE17
:101C00001EC0253FFCE53F0799F070F0263F3C459C
:101C1000D1F427E245EE66EE12C027E245EE0EC093
:101C200026E241EE60EE0BC027E245EE64EE07C00F
:101C300026E241EE62EE03C028E241E065EE0E943A
:101C40007E0D80E00895FC018281882319F01092B6
:101C50005001089581E008959093560180935501B5
:101C60000895E0915501F0915601309721F00190CF
:101C7000F081E02D099480E00895EF92FF920F9398
:101C80001F93CF93DF93E0915501F0915601309768
:101C9000B1F18C010280F381E02D09958091C5019D
:101CA00082FF2DC080FF04C08AEE91E00E948C0666
:101CB000E80118E084EEE82E81E0F82E8091C5015D
:101CC00080FF0BC088811F928F93FF92EF920E943A
:101CD00025070F900F900F900F9011502196111122
:101CE000EDCF8091C50180FF0AC082EE91E0DF91C7
:101CF000CF911F910F91FF90EF900C948C06DF9184
:101D0000CF911F910F91FF90EF900895E0915501B1
:101D1000F0915601309739F022E0DC012C930480D9
:101D2000F581E02D099408952091530130915401DB
:101D30008217930771F09093540180935301E091BF
:101D40005501F0915601309721F00680F781E02D82
:101D500009940895209151013091520182179307FF
:101D600071F09093520180935101E0915501F091EF
:101D70005601309721F00084F185E02D09940895F3
:101D800085B7806885BF85B7806885BF0895089549
:101D900008950C94C80E08950C94CB0E0E94C00EAA
:101DA0000E94C70E0C94C90E81E008950E94D11BB9
:101DB0000E94550C0E94531C0C94CC0ECF93C82F3C
:101DC0008091C50182FF1EC080FF04C083E092E0C5
:101DD0000E948C068091C50180FF0CC01F92CF939A
:101DE0008EEF91E09F938F930E9425070F900F90A5
:101DF0000F900F908091C50180FF04C08CEF91E09F
:101E00000E948C068C2FCF910C9479074F925F9291
:101E10007F928F929F92AF92BF92CF92DF92EF927A
:101E2000FF920F931F93CF93DF93CDB7DEB72A971F
:101E30000FB6F894DEBF0FBECDBF0E94AC0C0E945F
:101E4000D40E811111C08FEF89838A831B820E9477
:101E5000DA1B8160782F9D838C8349815A816B8145
:101E60008D810E94C40F57C098E5C92E91E0D92EEC
:101E700000E010E0AA24A394B12C702E802F0E94C1
:101E8000050C4C01F601419051906F0148265926EE
:101E90004114510431F40F5F1F4F0330110569F7EE
:101EA000D2CF8091C50181FD0E940E0C20E030E070
:101EB0007501022E02C0EE0CFF1C0A94E2F7C70166
:101EC00084219521892B09F12E837F828E209F20EA
:101ED00091E0892809F490E098870E94DA1B8160DC
:101EE000782F9A8789874E815F8168858A850E94CD
:101EF000C40F000F111FF801E85AFE4F8081918135
:101F0000E826F926F182E08206C02F5F3F4F2D3090
:101F1000310571F6C0CF0E94671E109157010E94D3
:101F2000310E1817D9F00E94310E809357012A966E
:101F30000FB6F894DEBF0FBECDBFDF91CF911F91DA
:101F40000F91FF90EF90DF90CF90BF90AF909F9058
:101F50008F907F905F904F900C94DE0E2A960FB674
:101F6000F894DEBF0FBECDBFDF91CF911F910F91CF
:101F7000FF90EF90DF90CF90BF90AF909F908F90A9
:101F80007F905F904F900895CF93DF93CDB7DEB7EA
:101F90002B970FB6F894DEBF0FBECDBF4F83588787
:101FA00069877A878B87DE01119686E0FD011192A1
:101FB0008A95E9F785E0FE01379601900D928A95A2
:101FC000E1F749815A816B817C818D819E810E94DC
:101FD0007F162B960FB6F894DEBF0FBECDBFDF91F4
:101FE000CF910895FC01808191810E944B19089541
:101FF000CF93DF931F92CDB7DEB7882309F4D9C002
:10200000682F8CEF860F813A70F4862F69830E94C7
:10201000FE2269818111CDC0809100019091010162
:102020000E94481B0CC080E2860F883068F46770FD
:1020300081E001C0880F6A95EAF70E948D190F9020
:10204000DF91CF910C94D6198BE5860F833088F4FD
:10205000653A29F0663A31F083E890E005C081E8FE
:1020600090E002C082E890E00F90DF91CF910C9455
:10207000940E88E5860F873108F091C0683A09F41C
:1020800045C0693A09F445C06A3A09F445C06B3A5B
:1020900009F445C06C3A09F445C06B3B09F445C0EE
:1020A0006C3B09F445C06D3A09F445C0603B09F446
:1020B00045C06E3A09F445C06F3A09F445C0613B2A
:1020C00009F445C0623B09F445C0633B09F445C0CF
:1020D000643B09F445C0653B09F445C0663B09F41F
:1020E00045C0673B09F445C0683B09F445C0693BFE
:1020F00009F445C06D3B09F445C06E3B09F445C089
:102100006A3B09F445C080E090E044C082EE90E074
:1021100041C089EE90E03EC08AEE90E03BC085EB86
:1021200090E038C086EB90E035C083EB90E032C0A1
:1021300084EB90E02FC087EB90E02CC08CEC90E01B
:1021400029C08DEC90E026C083E891E023C08AE8A6
:1021500091E020C082E991E01DC084E991E01AC0BD
:1021600081E292E017C083E292E014C084E292E040
:1021700011C085E292E00EC086E292E00BC087E2D9
:1021800092E008C08FE690E005C080E790E002C0D2
:102190008AE292E00F90DF91CF910C94AA0E603FFB
:1021A00040F0862F0E94ED1C0F90DF91CF910C9490
:1021B000DA1D0F90DF91CF910895882389F19CEF6C
:1021C000980F913A40F4682F80910001909101019D
:1021D0000E944A1B0DC090E2980F983058F4877007
:1021E00091E001C0990F8A95EAF7892F0E9493190F
:1021F0000C94D6199BE5980F933020F480E090E082
:102200000C94940E98E5980F973120F480E090E0BC
:102210000C94AA0E803F20F00E94551D0C94DA1DEC
:102220000895CF93C82F0E94F80FC93349F42FEFB8
:1022300087EE93E0215080409040E1F700C000001D
:102240008C2FCF910C94DD10882321F00E948D19E2
:102250000C94D6190895882321F00E9493190C94A8
:10226000D6190895BF92CF92DF92EF92FF920F930B
:102270001F93CF93DF937C01062FC72FFC0115819D
:1022800012951F70D281D1110E94AA190E94831940
:10229000882379F0DD2369F080E2800F883048F0F0
:1022A00082E00E94211A0E94831991E0B82EB9267B
:1022B00001C0B12CCC2EC2948FE0C822D12CF601E3
:1022C000EA5AFF4F0C94432C8C2F807FCF708823C9
:1022D00011F0C295C07FDD2399F0CC2309F4CEC163
:1022E00080E2800F883010F0011104C08C2F0E9412
:1022F0008D1903C08C2F0E949D190E94D619BEC152
:10230000802F0E94DD10CC2309F4DDC180E2800F14
:10231000883010F0011104C08C2F0E94931903C063
:102320008C2F0E94A3190E94D619CDC18C2F807FBB
:10233000CF70803211F0C295C07F002319F00130B8
:10234000C9F022C0DD2371F0112341F0113031F4C6
:102350000E94BD198C2B0E94C319B5C10E94BD19E2
:102360008C2B1DC0112319F0113009F4ACC10E944F
:10237000CC1925C0DD2321F0163008F0A4C10EC011
:10238000153008F0A0C11BC0DD2361F0112331F02E
:10239000F701858180FF72C18F7085838C2F0E9429
:1023A000241191C1112359F0093309F078C1FFEFCD
:1023B00027EE83E0F15020408040E1F76EC18C2F82
:1023C0000E942B1180C18C2F86958695837090E09A
:1023D000009719F0019761F076C1DD2321F0802F7D
:1023E0009C2F937002C080E090E00E94940E76C112
:1023F000DD2321F0802F9C2F937002C080E090E0BD
:102400000E94AA0E6BC1DD23F9F0053F51F0063F93
:1024100071F0043FA9F48091E1019091E2018160A3
:102420000BC08091E1019091E201826005C0809132
:10243000E1019091E20184609093E2018093E101D7
:10244000802F0E94ED1C1EC0053F51F0063F71F029
:10245000043FA9F48091E1019091E2018E7F0BC0CD
:102460008091E1019091E2018D7F05C08091E101B1
:102470009091E2018B7F9093E2018093E101802FA4
:102480000E94551D0E94DA1D29C18C2F837009F00E
:1024900049C0D1111FC1402F429546954770440F46
:1024A000440F602F6F70862F90E0A0E0B0E0042E04
:1024B00004C0880F991FAA1FBB1F0A94D2F704FFFC
:1024C00010C00FE010E020E030E004C0000F111F4A
:1024D000221F331F4A95D2F700951095209530950D
:1024E00003C000E010E09801C695C695C370D0E027
:1024F000BC01CD01602B712B822B932BC230D105F7
:1025000059F0C330D10559F0219719F00E94C41732
:10251000E1C00E94B217DEC00E94D617DBC00E9445
:10252000B017D8C0DD2319F08C2F817001C08695BB
:10253000882309F4CFC0402F429546954770440F39
:10254000440F602F6F70862F90E0A0E0B0E0042E63
:1025500004C0880F991FAA1FBB1F0A94D2F704FF5B
:1025600010C00FE010E020E030E004C0000F111FA9
:10257000221F331F4A95D2F700951095209530956C
:1025800003C000E010E09801C695C695C370D0E086
:10259000BC01CD01602B712B822B932BC230D10556
:1025A00059F0C330D10559F0219719F00E948A18CB
:1025B00091C00E9478188EC00E949C188BC00E9407
:1025C000EB1788C0CF70DD2339F08C2F0E941118D3
:1025D000802F0E9424117EC0802F0E942B118C2FEF
:1025E0000E94321877C0023F01F128F4003F41F009
:1025F000013FA1F03FC0033FF9F0043F39F13AC079
:10260000DD2341F0153008F05EC08C2F8F710E94E1
:10261000571859C0163008F056C0F7CFDD2339F0EF
:102620008C2F8F710E9411184EC0DD23C9F38C2F9F
:102630008F710E94321847C0DD2329F08C2F8F71D3
:102640000E94FC1740C00E94F7173DC0DD2349F0EF
:10265000CF718C2F0E94111863E08C2F0E940C1AEE
:1026600032C081E00E94211A123068F182E00E949B
:10267000211A29C0DD2331F0112391F2802F0E940D
:10268000F80F21C0112399F2093349F49FEFE7EEC7
:10269000F3E09150E040F040E1F700C00000802FEF
:1026A0000E94DD1010C04C2F4F70602FC7010E9498
:1026B00055090E94231712C04C2F4F70602FC7017D
:1026C0000E9458090BC028E0C21AD10884E0C8163D
:1026D000D10420F40E94310E0E947907BB20D1F072
:1026E0000E947F1980FD16C0F70112820E9479199D
:1026F0000E941118C7010E9494130E947919DF915A
:10270000CF911F910F91FF90EF90DF90CF90BF90EE
:102710000C943218DF91CF911F910F91FF90EF90A1
:10272000DF90CF90BF9008950F931F93CF93DF93C7
:10273000EC01888199812B813C81232BB9F09F3F4B
:1027400011F48F3F99F0CE010E949107882371F018
:10275000688179818A810E9456198C010E94AE1885
:102760000E94AF17B801CE010E943211DF91CF91C4
:102770001F910F9108950E94AA190E94BA190E94F0
:10278000D6190E94021F0E94DA1D80E090E00E948C
:10279000940E80E090E00C94AA0E8091000190913C
:1027A00001010E944C1B0C94BB130E949A190C94BB
:1027B000CD13E92FE295EF70F0E03297EE30F1059E
:1027C000B0F4EA59FF4F0C94432C803F91F018F479
:1027D000883E68F40EC0843F51F40BC0883E48F038
:1027E000813F29F406C093FB882780F9089580E093
:1027F000089581E008950E944B190E94D91308950D
:10280000CF93DF9300D000D01F92CDB7DEB70F90EB
:102810000F900F900F900F90DF91CF910895CF936D
:10282000DF9300D000D000D0CDB7DEB726960FB62C
:10283000F894DEBF0FBECDBFDF91CF9108951F93F7
:10284000CF93DF93C0915F0116E080916001C817BC
:1028500099F0D0E01C9FF0011D9FF00D1124EF595D
:10286000FE4F4081518162817381848195810E94F4
:102870000F142196C770E9CFDF91CF911F91089572
:102880004091910150919201609193017091940156
:1028900080919501909196010C940F14809196016E
:1028A00082958F7009F054C080919301882309F4B8
:1028B0004FC080915F01A091600160919101709182
:1028C00092014091940150919501B6E08A1709F464
:1028D0003FC090E041155105C1F17F3F11F46F3FBA
:1028E000A1F1B89FF001B99FF00D1124EF59FE4FEF
:1028F000218172132AC02081621327C022812111F5
:1029000024C0238134812417350710F42150310964
:10291000241B350B283C3105C0F4209196012F7003
:1029200020612093960126E0289FF001299FF00D59
:102930001124EA59FE4F80818F708061808381E984
:1029400091E00E9494130C941F1401968770BECFDF
:102950000895CF92DF92EF92FF920F931F93CF9340
:10296000DF93CDB7DEB762970FB6F894DEBF0FBE28
:10297000CDBF8C0185E0F801DE011D9601900D921E
:102980008A95E1F7D8014C9111965C9111971296B6
:102990006C9112971396CD90DC9014973091910121
:1029A000709192018091940190919501009709F4A2
:1029B0006BC17F3F19F43F3F09F466C1E09093017A
:1029C000EE2009F4C0C020919601C816D90628F05F
:1029D000F601E81BF90BCF0104C0809590958C0D92
:1029E0009D1DFF24F394883C910578F0F12C207F05
:1029F00009F0C6C07C2DD98AC88A89890E94001432
:102A000081E991E00E949413B1C0822F807F09F088
:102A100046C0751314C0341312C0611110C02F705A
:102A20002061209396010E94401481E991E00E9468
:102A3000941380919601D80115968C932EC0CD28C1
:102A400019F15F3F11F44F3FF9F0F62E61111CC0F0
:102A500080915F012091600136E0821709F45AC02D
:102A600090E0389FF001399FF00D1124EF59FE4F8F
:102A70007181571306C07081471303C072817111B1
:102A800003C001968770E9CFF62E662309F427C1AB
:102A900080919601816080939601F12C20C175137D
:102AA00008C0341306C0611104C080919601D8019A
:102AB000C3C04D875E878D859E856A8B0E94FB1300
:102AC0006A898823E1F16623D1F120919601822F52
:102AD00082958F7090E0029774F0809191019091AF
:102AE000920198878F831986DB86CA862C87CE0150
:102AF00007960E94941386E0F801A1E9B1E00190E5
:102B00000D928A95E1F70E944E140E944014FF2412
:102B1000F394E5C04D875E878D859E850E944B1995
:102B2000292F22952F7030E0223031050CF0CBC0D8
:102B30009F7009F0C5C0805E883008F4D0C0C8011D
:102B40000E949413E4CFC816D90608F453C0F601C6
:102B5000E81BF90BCF01883C910508F450C0F12C1B
:102B60007C2DD98AC88A89890E940014E1E9F1E0A4
:102B700086E0DF011D928A95E9F70E944014AFC0FC
:102B8000751314C0341312C0611110C080919601E6
:102B9000F8018583C8010E94941386E0E1E9F1E021
:102BA000DF011D928A95E9F7FE2C99C04D875E875B
:102BB0008D859E856A8B0E94FB136A89882309F4A0
:102BC000BECF662309F4BBCF20919601822F829558
:102BD0008F7090E002970CF48ECF809191019091CC
:102BE00092019A8389831B82DD82CC822E83CE015F
:102BF00001967FCF809590958C0D9D1DACCFF62EC4
:102C0000662309F49CCF75132EC034132CC0209179
:102C1000960120FD1FC0822F82958F70D9F0D801B8
:102C200015962C9315978F3049F08F5F982F9295BA
:102C3000907F822F8F70892B15968C93C8010E94EC
:102C4000941386E0F801A1E9B1E001900D928A9514
:102C5000E1F793CF86E0F801A1E9B1E001900D9290
:102C60008A95E1F73CC04D875E878D859E850E94E1
:102C7000FB13811140CF8091960181608093960172
:102C8000C8010E9494132BC0662309F458CF4D87C6
:102C90005E878D859E850E94FB13F82E882309F49C
:102CA0004ECF86E0F801A1E9B1E001900D928A953E
:102CB000E1F781E991E00E94F20F0E944E145DCF8E
:102CC000811139CF0CC0243031050CF038CF9F7002
:102CD00009F431CFF8019581907F09F02CCF8F2D29
:102CE00062960FB6F894DEBF0FBECDBFDF91CF91D5
:102CF0001F910F91FF90EF90DF90CF9008951F9359
:102D0000CF93DF93CDB7DEB72C970FB6F894DEBF25
:102D10000FBECDBF4F83588769877A878B879C8783
:102D2000CE0107960E94A914882369F08F819885A7
:102D30002A853B85232BF1F19F3F09F063C08F3F2C
:102D400009F060C037C086E0FE013796DE011196BB
:102D500001900D928A95E1F76F817885EA85FB8570
:102D6000309741F17F3F11F46F3F21F120916001D5
:102D700030E0C90101968770992740915F0150E0CA
:102D80008417950709F447C069837A83FD83EC8330
:102D900096E0929FD001939FB00D1124AF59BE4F82
:102DA000FE01319601900D929A95E1F780936001B2
:102DB0000E941F1416E080915F01909160018917B5
:102DC000C1F1189FC00111248F599E4F0E94A91470
:102DD000882379F1E0915F011E9FF0011124EF59E2
:102DE000FE4F4081518162817381848195810E946F
:102DF0000F1480915F0190E001968770992780936E
:102E00005F01D9CF4F81588569857A858B859C85EF
:102E10000E940F14CFCF0E94D51310926001109220
:102E20005F01E1E9F1E086E0DF011D928A95E9F7B3
:102E3000C1CF2C960FB6F894DEBF0FBECDBFDF9189
:102E4000CF911F910895EF92FF920F931F93CF930D
:102E5000DF938C01892B09F46CC0F12CEE24E394F0
:102E6000E8012196F8018491843740F4843008F019
:102E700051C0813081F0823019F15BC0853709F48F
:102E800044C0A8F19CE7980F903708F052C08F77A4
:102E90000E94DD1041C00E5F1F4FFE01C49180E211
:102EA0008C0F883048F4C7708E2D01C0880FCA95EA
:102EB000EAF70E94AD1914C08C2F0E94F80F2DC0A4
:102EC0000E5F1F4FFE01C49180E28C0F883058F4D2
:102ED000C7708E2D01C0880FCA95EAF70E94B319FA
:102EE0000E94D6191AC08C2F0E94DD1016C00E5FEA
:102EF0001F4FFE01C491CC2381F08FE99FE0019721
:102F0000F1F700C00000C150F6CF0E5F1F4FFE0169
:102F1000F49003C00E94F80F8E018F2D882309F4CE
:102F20009FCFEFE9FFE03197F1F700C0000081503B
:102F3000F5CFDF91CF911F910F91FF90EF90089502
:102F400008950C94A0170E94A1176093B401709388
:102F5000B5018093B6019093B7010C94BB1308950B
:102F60000C94A3170F931F930091B4011091B50116
:102F70002091B6013091B701602B712B822B932BDE
:102F80001F910F910C94A3170F931F930091B401FD
:102F90001091B5012091B6013091B70160237123E2
:102FA000822393231F910F910C94A3170F931F93C8
:102FB0000091B4011091B5012091B6013091B70193
:102FC00060277127822793271F910F910C94A317D5
:102FD00008950C94E8170E94E9176093B00170936C
:102FE000B1018093B2019093B3010C94BB1360E0E4
:102FF00070E0CB010C94EB170F931F9341E050E06E
:1030000060E070E08A019B0104C0000F111F221FC5
:10301000331F8A95D2F7C901B8011F910F910C9403
:10302000EB170F931F9341E050E060E070E004C0A5
:10303000440F551F661F771F8A95D2F78091B00104
:103040009091B101A091B201B091B3018A019B01AD
:10305000082B192B2A2B3B2BC901B8011F910F916B
:103060000C94EB170F931F9341E050E060E070E089
:1030700004C0440F551F661F771F8A95D2F74095ED
:103080005095609570958091B0019091B101A0919B
:10309000B201B091B3018A019B01082319232A23AD
:1030A0003B23C901B8011F910F910C94EB170F93AB
:1030B0001F9341E050E060E070E004C0440F551FF2
:1030C000661F771F8A95D2F78091B0019091B10168
:1030D000A091B201B091B3018A019B010827192781
:1030E0002A273B27C901B8011F910F910C94EB17B8
:1030F0000F931F930091B0011091B1012091B20183
:103100003091B301602B712B822B932B1F910F9168
:103110000C94EB170F931F930091B0011091B10124
:103120002091B2013091B301602371238223932354
:103130001F910F910C94EB170F931F930091B00107
:103140001091B1012091B2013091B3016027712734
:10315000822793271F910F910C94EB1708952DE070
:10316000929F800D1124A82FA695A695A6958770ED
:1031700051E001C0550F8A95EAF785E0A89FD0017C
:10318000112420E030E070E0F901EA0FFB1FE9565E
:10319000FE4F4081CB01022E02C0969587950A947E
:1031A000E2F781709927819584278523842780837E
:1031B0002F5F3F4F2530310539F708952DE0929F5D
:1031C000800D1124682F669566956695982F9770E7
:1031D00085E0689FB001112440E050E080E0FA01F2
:1031E000E60FF71FE956FE4F208130E0092E02C09E
:1031F000369527950A94E2F721703327042E01C0F3
:10320000220F0A94EAF7822B4F5F5F4F453051053A
:1032100031F70895BF92CF92DF92EF92FF920F9312
:103220001F93CF93DF938C01C090B401D090B50170
:10323000E090B601F090B7018091B0019091B1019A
:10324000A091B201B091B301C82AD92AEA2AFB2A77
:10325000CFE1D0E0D701C6010C2E04C0B695A795EA
:10326000979587950A94D2F780FF07C0BC2EB801C6
:103270008C2F0E947309019719F4219758F7B12CEC
:103280008B2DDF91CF911F910F91FF90EF90DF90E9
:10329000CF90BF900895CF93DF93EC010E940A195D
:1032A000BE010E947309DF91CF9108951F93CF93C0
:1032B000DF93EB0190915E01992321F0CB010E94F5
:1032C0004B1913C0882349F0CB010E940A19182F0B
:1032D000682FCE010E94AF1804C0CB010E94DE18F7
:1032E000182FBE01812F0E947309DF91CF911F918A
:1032F00008958091B801859585958595089580916B
:10330000B801877008959091B801977081E009F431
:1033100080E008958091C40108959091C401892BA3
:103320008093C401089580959091C401892380936E
:10333000C40108951092C40108959091C301892B8E
:103340008093C301089580959091C3018923809350
:10335000C30108951092C30108959091C201892B71
:103360008093C201089580959091C2018923809332
:10337000C20108951092C20108958091B901089583
:1033800008950C94C0199091B901981721F0809379
:10339000B9010C94C11908958091B901882329F0CD
:1033A0001092B90180E00C94C1190895E0910001D8
:1033B000F09101018091C4018083E0910001F091BE
:1033C000010190818091C301892B8083E0910001EC
:1033D000F091010190818091C201892B80838091BD
:1033E000B901882381F0E0910001F0910101908101
:1033F000892B808380910001909101010E94161B0E
:1034000081110E94CC1980910001909101010C94CE
:103410003D0E08950C94091A98E0899F900111249B
:10342000262B2093B8010E9411188091B801859530
:10343000859585950C940A1A1092B80180E00C9439
:103440000A1A2091B801809582238093B801982FA1
:10345000977079F430E0482F082E000C550B241794
:10346000350739F08595859585950E9432180C941D
:103470001C1A089590933D0180933C010895829514
:10348000982F9C7C392F36953695282F237344E04E
:10349000249FC0011124932F982B292F2A7A269537
:1034A000892F8575880F822B08951F93CF93DF9303
:1034B0001F92CDB7DEB799830E943F1A182F9981CA
:1034C000892F0E943F1A212F30E0322F2227A90195
:1034D000482BCA010F90DF91CF911F91089580E092
:1034E00090E00E94652C21E08C3E9E4F09F020E088
:1034F000822F089582E090E00C945D2C83E090E0B0
:103500000C945D2CCF9384E090E00E945D2CC82F3A
:1035100081E290E00E945D2C2C2F30E0A901582B15
:10352000CA01CF910895CF93C92F682F84E090E00E
:103530000E946B2C6C2F81E290E0CF910C946B2C4D
:10354000AB01BC018FE090E00C947D2CAB01BC0181
:1035500083E190E00C947D2C60E070E0CB010C9452
:10356000A61A60E070E0CB010E94A01A0C94AC1A7D
:103570006CEE7EEF80E090E00E94892C60E082E0BB
:1035800090E00E946B2C60E083E090E00E946B2C46
:103590001092B4011092B5011092B6011092B701C9
:1035A00060E084E090E00E946B2C60E081E290E0BB
:1035B0000E946B2C60E085E090E00E946B2C60E044
:1035C00086E090E00E946B2C6FEF87E090E00E9415
:1035D0006B2C40E050E0BA0188E090E00E947D2C26
:1035E00060E08DE090E00E946B2C40E050E0BA017A
:1035F00088E190E00E947D2C60E087E190E00E94ED
:103600006B2C40E050E0BA018CE190E00E947D2CF0
:1036100060E080E290E00E946B2C0C94B11A0C9454
:10362000B81A682F8EE090E00C946B2CFC01329657
:1036300097E080E0915029F021912223D9F38F5F08
:10364000F9CF08959C01FC0132969FEF80E04191F3
:10365000461789F09F3F19F4411101C0982F8F5FE1
:103660008630A9F79F3F39F0F901E90FF11D97FD69
:10367000FA95628308950895FC0132960896208198
:10368000261301C010823196E817F907C1F7089593
:103690000C94221B0C943C1B029626E0FC01119218
:1036A0002A95E9F7089508950C94531B0E94541B22
:1036B0008091ED01843049F11092C60120E488E147
:1036C00090E00FB6F894A895809360000FBE209309
:1036D000600080E00E9479070E94541B83B7817FBD
:1036E000846083BF83B7816083BF7894889583B7F4
:1036F0008E7F83BF0FB6F894A89580916000886193
:1037000080936000109260000FBE089508950895A0
:10371000CF930E94861B0E94AC0C0E94871BC0E0C6
:103720008C2F0E94050C892B29F4CF5FC330C1F781
:1037300080E001C081E0CF91089508950C949D1B15
:103740000E94D5130E94310E0E9479070C949E1B93
:103750001F920F920FB60F9211248F939F93AF93E6
:10376000BF938091C601811113C08091E3019091B4
:10377000E401A091E501B091E6014196A11DB11DC2
:103780008093E3019093E401A093E501B093E601F7
:10379000BF91AF919F918F910F900FBE0F901F908F
:1037A000189582E084BD93E095BD9AEF97BD809314
:1037B0006E0008952FB7F8948091E3019091E40191
:1037C000A091E501B091E6012FBF08952FB7F894BD
:1037D0006091E3017091E4018091E5019091E6012F
:1037E0002FBF0895CF92DF92EF92FF920F931F9316
:1037F0002FB7F8944091E3015091E4016091E50105
:103800007091E6012FBF6A017B01EE24FF248C0139
:1038100020E030E0C016D106E206F30610F4415075
:1038200051099A01281B390BC9011F910F91FF9073
:10383000EF90DF90CF90089578941F920F920FB67B
:103840000F9211248F939F93AF93BF938091E301C5
:103850009091E401A091E501B091E6010196A11DCE
:10386000B11D8093E3019093E401A093E501B0932F
:10387000E601BF91AF919F918F910F900FBE0F9076
:103880001F90189587E797E79093010880930008A9
:103890009AE088E10FB6F894A895809360000FBE77
:1038A00090936000FFCF0E946F1A811102C00E94A6
:1038B0000F1B0E947A1A8093C5010E94821A90936E
:1038C000E8018093E7010E947E1A682F70E080E093
:1038D00090E00C94B0178091CA0180FF0BC06091FA
:1038E000050185E0689FB001112475956795759570
:1038F00067952BC081FF09C06091050185E0689F35
:10390000B00111247595679520C082FF07C06091B2
:10391000050185E0689FB001112417C09091C9018D
:103920009923D1F060910401961788F72091050141
:1039300085E0289F90011124929FA001939F500D34
:10394000112470E0CA010E942F2C6038710540F4E8
:103950006115710539F002C065E070E0862F0895A9
:103960008FE7089581E008958091CA0180FF08C023
:103970006091030170E0759567957595679521C015
:1039800081FF06C06091030170E07595679519C0CD
:1039900082FF04C06091030170E010C09091C901E2
:1039A0009923C1F0609102019617A0F7809103015D
:1039B000899FC001112470E00E942F2C603871058E
:1039C00028F46115710521F0862F08958FE7089579
:1039D00081E0089561E070E0F4CF803F21F40E941F
:1039E0006B1C819504C0813F29F40E946B1C80935D
:1039F000CE010895823F21F40E946B1C819504C082
:103A0000833F29F40E946B1C8093CD010895893F68
:103A100019F40E94B41C05C08A3F31F40E94B41C02
:103A200081958093CF0108958B3F21F40E94B41CAF
:103A3000819504C08C3F29F40E94B41C8093D0016E
:103A40000895843F21F48091CC01816017C0853FA7
:103A500021F48091CC01826011C0863F21F48091D5
:103A6000CC0184600BC0873F21F48091CC01886039
:103A700005C0883F31F48091CC0180618093CC01F6
:103A800008958D3F21F48091CA0181600BC08E3F63
:103A900021F48091CA01826005C08F3F29F4809192
:103AA000CA0184608093CA010895803F39F48091EF
:103AB000CE0187FF6CC01092CE0169C0813F29F40E
:103AC0008091CE011816BCF362C09091CD01823F67
:103AD00029F497FF5CC01092CD0159C0833F19F4BF
:103AE0001916CCF354C0893F41F48091CF011816C8
:103AF0000CF04DC01092CF014AC08A3F29F480914A
:103B0000CF0187FF44C0F6CF8B3F39F48091D001BD
:103B100087FF3DC01092D0013AC08C3F29F48091BC
:103B2000D0011816BCF333C0843F21F48091CC013E
:103B30008E7F17C0853F21F48091CC018D7F11C00D
:103B4000863F21F48091CC018B7F0BC0873F21F40D
:103B50008091CC01877F05C0883F31F48091CC01F2
:103B60008F7E8093CC0113C08D3F21F48091CA01D8
:103B70008E7F0BC08E3F21F48091CA018D7F05C0DE
:103B80008F3F29F48091CA018B7F8093CA01809175
:103B9000CD0181110EC08091CE0181110AC08091AA
:103BA000CF01811106C08091D001811102C0109215
:103BB000C90108958091C50183FF7EC08DE392E025
:103BC0000E948C068091CC011F928F9388E392E033
:103BD0009F938F930E94250786E392E00E948C06B4
:103BE0008091CD01282F082E000C330B3F938F932B
:103BF00083E392E09F938F930E94250781E392E0F5
:103C00000E948C068091CE01282F082E000C330BC9
:103C10003F938F938EE292E09F938F930E942507AC
:103C20008CE292E00E948C068091CF01282F082E12
:103C3000000C330B3F938F9389E292E09F938F9315
:103C40000E94250787E292E00E948C068091D001B5
:103C5000282F082E000C330B3F938F9384E292E0C1
:103C60009F938F930E94250781E292E00E948C0629
:103C70008091C9011F928F938EE192E09F938F9361
:103C80000E9425078CE192E00E948C068091CA0177
:103C90001F928F9389E192E09F938F930E94250753
:103CA00086E192E00E948C068DB79EB74C960FB6C7
:103CB000F8949EBF0FBE8DBF8BEC91E00E94860EE4
:103CC0000E94DA1B9093C8018093C70108951F9347
:103CD000CF93DF938091C7019091C8010E94F21B9E
:103CE000AC019091C901992321F02091060130E0A7
:103CF00006C0209107018AE0289F900111244217F5
:103D0000530708F47BC08091CD01C091CE01D091C2
:103D1000CF011091D001811107C0C1116BC0D11129
:103D200069C0111167C06AC09F3F19F09F5F9093EF
:103D3000C901181624F40E946B1C8093CD01809158
:103D4000CD0187FF05C00E946B1C81958093CD013A
:103D50001C1624F40E946B1C8093CE018091CE012E
:103D600087FF05C00E946B1C81958093CE01309126
:103D7000CD013323E1F02091CE012223C1F045EBA8
:103D80003403C0011124892F990F990B009709F46E
:103D900081E08093CD0135EB2303C0011124892FED
:103DA000990F990B009709F481E08093CE011D16BD
:103DB00024F40E94B41C8093CF018091CF0187FF2F
:103DC00005C00E94B41C81958093CF01111624F484
:103DD0000E94B41C8093D0018091D00187FF05C060
:103DE0000E94B41C81958093D001DF91CF911F91E7
:103DF0000C94DA1D9F3F09F099CFA1CFDF91CF91AD
:103E00001F910895EBECF1E086E0DF011D928A95A9
:103E1000E9F71092C9011092CA01089580E694E072
:103E20000E948C061F9281E08F931F9285E08F93F2
:103E300082E194E09F938F930E9425070F900F904B
:103E40000F900F900F900F9008958330E9F128F4B0
:103E5000813061F0823009F10895853009F462C043
:103E600008F449C0863009F474C0089580910701B0
:103E7000262F30E0280F311D2F3F310524F4680F25
:103E80006093070103C08FEF8093070180910701C2
:103E90001F928F938BE493E072C080910601262FCE
:103EA00030E0280F311D2F3F310524F4680F609357
:103EB000060103C08FEF80930601809106011F92D7
:103EC0008F9389E393E05BC080910501262F30E05A
:103ED000280F311D2F3F310524F4680F6093050131
:103EE00003C08FEF80930501809105011F928F938E
:103EF00086E293E044C080910401262F30E0280F31
:103F0000311D2F3F310524F4680F6093040103C075
:103F10008FEF80930401809104011F928F9381E1C0
:103F200093E02DC080910301262F30E0280F311D32
:103F30002F3F310524F4680F6093030103C08FEF16
:103F400080930301809103011F928F9388EF92E089
:103F500016C080910201262F30E0280F311D2F3F1F
:103F6000310524F4680F6093020103C08FEF809342
:103F70000201809102011F928F938DED92E09F9339
:103F80008F930E9425070F900F900F900F90089528
:103F9000833081F128F4813059F08230D1F00895D6
:103FA000853009F449C0B8F1863009F456C0089547
:103FB00080910701681720F4861B8093070102C0D7
:103FC00010920701809107011F928F938EEC92E06F
:103FD00054C080910601681720F4861B8093060167
:103FE00002C010920601809106011F928F938CEB04
:103FF00092E043C080910501681720F4861B8093EE
:10400000050102C010920501809105011F928F9356
:1040100089EA92E032C080910401681720F4861B7F
:104020008093040102C010920401809104011F9248
:104030008F9384E992E021C080910301681720F4F6
:10404000861B8093030102C010920301809103013B
:104050001F928F938BE792E010C080910201681746
:1040600020F4861B8093020102C01092020180910D
:1040700002011F928F9380E692E09F938F930E949C
:1040800025070F900F900F900F900895CF93C82F92
:104090001F928F9385E695E09F938F930E9425074B
:1040A00081E090E0A0E0B0E0BC01CD0104C0660F6B
:1040B000771F881F991FCA95D2F70E94B0170F90DB
:1040C0000F900F900F90CF910C94D513CF93DF9357
:1040D0008B3109F4F9C108F08FC18B3009F4B2C1FA
:1040E00008F065C1863009F4B0C120F4853009F4C8
:1040F000BEC16CC2873009F4CCC1883009F066C2F9
:104100008FEA9AE00E948C0680E09AE00E948C067A
:104110000E947E1A1F928F938DEF99E09F938F9349
:104120000E9425078BEF99E00E948C060E947A1A64
:10413000C82F88EE99E00E948C061F92CF9383EEE1
:1041400099E09F938F930E94250781EE99E00E944A
:104150008C0687ED99E00E948C068C2F81701F924F
:104160008F9384ED99E09F938F930E94250782EDB2
:1041700099E00E948C0688EC99E00E948C06C1FBB5
:10418000882780F91F928F9385EC99E09F938F93F6
:104190000E94250783EC99E00E948C0687EB99E04A
:1041A0000E948C06C2FB882780F91F928F9384EBB4
:1041B00099E09F938F930E94250782EB99E00E94DC
:1041C0008C0689EA99E00E948C06C3FBCC27C0F9D3
:1041D0001F92CF9386EA99E09F938F930E942507C1
:1041E00084EA99E00E948C060E94821AEC0180E920
:1041F00099E00E948C06DF93CF938BE899E09F9320
:104200008F930E94250789E899E00E948C0680E739
:1042100099E00E948C068C2F81701F928F938DE6FF
:1042200099E09F938F930E9425078DB79EB7809644
:104230000FB6F8949EBF0FBE8DBF8BE699E00E942B
:104240008C0684E599E00E948C06C1FB882780F9E2
:104250001F928F9381E599E09F938F930E9425078A
:104260008FE499E00E948C068DE399E00E948C0611
:104270008D2F81701F928F938AE399E09F938F9384
:104280000E94250788E399E00E948C0686E299E067
:104290000E948C06D695D1701F92DF9383E299E03D
:1042A0009F938F930E94250781E299E00E948C06DC
:1042B0008FE099E00E948C06C2FB882780F91F924C
:1042C0008F938CE099E09F938F930E9425078AE05B
:1042D00099E00E948C0688EF98E00E948C06C3FB50
:1042E000882780F91F928F9385EF98E09F938F9393
:1042F0000E94250783EF98E00E948C0689EE98E0E3
:104300000E948C06C4FB882780F91F928F9386EE4B
:1043100098E09F938F930E94250784EE98E00E9477
:104320008C0682ED98E00E948C06C5FB882780F9F8
:104330001F928F938FEC98E09F938F930E94250795
:104340008DEC98E00E948C0681EB98E00E948C0630
:10435000C6FB882780F91F928F938EEA98E09F937F
:104360008F930E9425078DB79EB780960FB6F8945D
:104370009EBF0FBE8DBF8CEA98E00E948C0684EA37
:1043800098E00E948C06C7FBCC27C0F91F92CF9300
:1043900081EA98E09F938F930E9425078FE998E028
:1043A0000E948C060F900F900F900F9049C08031A3
:1043B00009F4B4C020F48E3009F49AC007C18631E4
:1043C00009F4C7C0893109F001C186EC96E00E946A
:1043D0008C0685EA96E00E948C068AE696E00E94AA
:1043E0008C0687E396E00E948C0681E096E00E94AE
:1043F0008C0683ED95E08FC08A32E1F060F487325D
:1044000009F4E0C028F48E3108F4E0C08D51DBC01F
:10441000893269F1DBC0833448F48A3308F0D0C0B4
:10442000853309F4CFC0883369F0D0C0833409F4F0
:10443000C9C0CCC08EE99AE00E948C060E940F1B76
:10444000C1E0C9C08CEF96E066C08091C501817F54
:104450008E7F8093C50185ED96E00E948C068AE9E7
:104460009AE00E948C0681E08093D201E9CF0E94FD
:10447000D5138EE79AE00E948C069FEF23ED80E330
:10448000915020408040E1F700C000000E94421C93
:10449000D7CF8091C501C82FC095C170C0FB80F9EE
:1044A0008093C501CC2329F082E79AE00E948C0614
:1044B00092C085E69AE00E948C068091C501897FB2
:1044C000877F8093C501BCCF9091C50191FBCC271C
:1044D000C0F981E0C827892FC0FB81F98093C5010D
:1044E000CC2319F088E59AE029C08AE49AE013C049
:1044F0009091C50192FBCC27C0F981E0C827892F94
:10450000C0FB82F98093C501CC2319F08BE39AE0BC
:1045100015C08BE29AE00E948C0692CF9091C50163
:1045200093FBCC27C0F981E0C827892FC0FB83F912
:104530008093C501CC2351F08FE19AE00E948C0654
:104540008091C50181608093C50145C082E19AE0F8
:10455000E2CF85EC95E00E948C060E94310E1F92FE
:104560008F938BEA95E09F938F930E94250780910C
:1045700012011F928F9384E995E09F938F930E947D
:1045800025078091DF011F928F9381E895E09F932B
:104590008F930E9425070E94E61B9F938F937F9322
:1045A0006F938AE695E09F938F930E9425078DB7BE
:1045B0009EB742960FB6F8949EBF0FBE8DBF40CFF8
:1045C000895301C080E00E9446203ACF80E19AE002
:1045D0000E948C06C0E08C2FDF91CF91089580E07F
:1045E000089580E008958E518A3030F4E82FF0E08D
:1045F000ED5DFE4F8081089580E00895CF93C82F30
:104600008091D201813059F020F0823009F445C008
:1046100039C10E948A19823209F036C104C00E9451
:104620008A19823261F48C2F0E94EF22811104C01A
:104630008C2F0E9466202FC081E090E02CC08C2F30
:104640000E94F122811126C0C431E1F070F4CB3018
:1046500081F0C031D1F40E940E1F8DE595E00E94DB
:104660008C0682E08093D20115C0C93259F0C8335C
:1046700061F485ED96E00E948C0681E695E00E944B
:104680008C0608C01092D20101C18BE595E00E9412
:104690008C06FCC081E08170FBC0C43228F5CE31AD
:1046A00008F0C1C0CB30A1F1D0F4C73009F0D0C0C0
:1046B0008EE18093070182E3809306018AE0809374
:1046C000050184E18093040188E08093030188E27E
:1046D0008093020181E094E00E948C06BCC0C3314B
:1046E00049F1C431C1F0B4C0CB3409F4A6C028F4F8
:1046F000C93289F0C83361F0ABC0C13509F49BC041
:10470000C23509F496C0CE3409F0A2C06AE09BC05D
:104710000E940E1FA0C08091D101882319F0109231
:10472000D10199C08EE094E00E948C0681E08093D4
:10473000D201AEC088EE93E00E948C0686ED93E035
:104740000E948C06809107011F928F9383ED93E066
:104750009F938F930E94250781ED93E00E948C0622
:104760008FEB93E00E948C06809106011F928F933D
:104770008CEB93E09F938F930E9425078AEB93E045
:104780000E948C068BEA93E00E948C0680910501C2
:104790001F928F9388EA93E09F938F930E9425073F
:1047A00086EA93E00E948C0685E993E00E948C06DD
:1047B000809104011F928F9382E993E09F938F93DE
:1047C0000E94250780E993E00E948C068BE793E026
:1047D0000E948C06809103011F928F9388E793E0DB
:1047E0009F938F930E94250786E793E00E948C0693
:1047F0008FE593E00E948C06809102011F928F93B7
:104800008CE593E09F938F930E9425078AE593E0C0
:104810000E948C068DB79EB748960FB6F8949EBF3F
:104820000FBE8DBF18C08C2F0E94F3228093D10140
:1048300012C061E003C061E006C06AE08091D1016E
:104840000E94251F08C08091D1010E94C81F03C08B
:104850008FEF93E013C08091D101882369F01F92FC
:104860008F9389EF93E09F938F930E9425070F907A
:104870000F900F900F9004C086EF93E00E948C067B
:1048800081E006C01092D20180E002C080E003CF38
:10489000CF9108958091DE0108959FB7F89410920A
:1048A000D5019FBF9091ED01943009F057C09091D0
:1048B000E9009F703091EC00232F217030FD20E83B
:1048C000922B23E02093E9002091EB0020FF43C0CE
:1048D0002091EE0027FF3FC02091D301222321F039
:1048E0002091E80025FF37C01092D30126E03091D7
:1048F000E80035FD15C03091ED01343061F530919F
:10490000EB0035FD28C0215021F481E08093D301D4
:1049100022C0EFE9FFE03197F1F700C00000E7CFD8
:104920008093F1008091E80085FD0AC08091E80045
:1049300080FFFCCF8091E8008E778093E80006C06E
:104940008FB7F89421E02093D5018FBF9F7090938B
:10495000E90080E008959F709093E9008FEF08953B
:104960000F931F93CF93DF9300D01F92CDB7DEB785
:104970008C010E946B27823011F0843021F584E095
:1049800089831B830A8382E08093E9008FEF9091F3
:10499000E800815095FD06C095ED9A95F1F700006D
:1049A0008111F5CF8091E80085FF0DC040E050E017
:1049B00063E070E0CE0101960E9488278091E800B4
:1049C0008E778093E8000F900F900F90DF91CF913A
:1049D0001F910F910895CF93DF9300D01F92CDB711
:1049E000DEB72091ED01243031F523E02983805892
:1049F00091099B838A8382E08093E9008FEF9091F5
:104A0000E800815095FD06C095ED9A95F1F70000FC
:104A10008111F5CF8091E80085FF0DC040E050E0A6
:104A200063E070E0CE0101960E9488278091E80043
:104A30008E778093E8000F900F900F90DF91CF91C9
:104A40000895CF93DF93EC010E946B27823011F021
:104A50008430F9F482E08093E9009FEF8091E800D0
:104A6000915085FD06C085ED8A95F1F70000911102
:104A7000F5CF8091E80085FF0CC040E050E066E093
:104A800070E0CE010E9488278091E8008E778093A5
:104A9000E800DF91CF910895CF93DF93EC010E945E
:104AA0006B27823011F0843039F581E08093E90082
:104AB0008FEF9091E800815095FD06C095ED9A9595
:104AC000F1F700008111F5CF8091E80085FF14C057
:104AD00040E050E068E070E0CE010E9488278091BD
:104AE000E8008E778093E80088E0FE01A6EDB1E053
:104AF00001900D928A95E1F7DF91CF9108958FEDA6
:104B00009AE00E948C068091EC01811109C00E94FC
:104B10001D290E947A298091E20084608093E2003E
:104B200008958BED9AE00E948C061092EC01089596
:104B300087ED9AE00C948C0683ED9AE00C948C0639
:104B40008FEC9AE00E948C060C94A01B2091D4015B
:104B50002F5F822F62E30E94232C992319F0209368
:104B6000D40108951092D4018091D501882371F168
:104B70008091ED01843041F58091E9008F702091A2
:104B8000EC00922F917020FD90E8892B93E0909398
:104B9000E9009091EB0090FF14C09091EE0097FF18
:104BA00010C09091E80095FF03C01092F100F9CF7A
:104BB0009091E80090FF05C09091E8009E77909357
:104BC000E8008F708093E9001092D501089542E0CB
:104BD00061EC81E00E94972842E261EC82E00E9451
:104BE000972842E261EC83E00C9497288091EF01D2
:104BF000833009F460C030F4813071F0823009F400
:104C000099C008958A3009F485C08B3009F46BC0CF
:104C1000893009F0A7C020C08091EE01813A09F0E7
:104C2000A1C08091E800877F8093E8008091F20125
:104C30009091F301892B21F468E086ED91E003C0A7
:104C400060E080E090E070E00E94D3278091E8006F
:104C50008B778093E80008958091EE01813209F00E
:104C600081C08091F2019091F301029708F07AC01F
:104C70008091E800877F8093E8008091E80082FDC2
:104C800005C08091ED018111F8CF6CC02091F30037
:104C90008091F20090E0922B029729F48091F1002C
:104CA0008B7F813021F48091F1008093DE0180912F
:104CB000E8008B7753C08091EE01813A09F052C031
:104CC0008091F2019091F301892B09F04BC0809102
:104CD000E800877F8093E8008091E80080FFFCCFA8
:104CE0008091120136C08091EE018132D9F5809118
:104CF000F2019091F301892BA9F58091E800877F5B
:104D00008093E8000E94CC288091F00180931201EA
:104D10000C94D5138091EE01813221F58091E80049
:104D2000877F8093E8000E94CC288091F1018093D6
:104D3000DF0108958091EE01813AA1F48091E800AD
:104D4000877F8093E8008091E80080FFFCCF80910E
:104D5000DF018093F1008091E8008E778093E80076
:104D60000C94CC28089584B7877F84BF0FB6F8943D
:104D7000A895809160008861809360001092600027
:104D80000FBE80E880936100109261000E94CE0EF9
:104D90000E941D290E947A298091E20084608093FC
:104DA000E2008DE494E20E943A1A78940E94082C62
:104DB0000E94D60E88E091E00E942C0E8EEB9AE0C5
:104DC0000E948C068091ED01853089F48AEB9AE08F
:104DD0000E948C060E94561B8091EB01882391F360
:104DE0000E94881B882371F30E947227EBCF0E94D8
:104DF000060FE8CF0C94FC26292F332723303105EA
:104E0000C9F064F42130310581F02230310509F018
:104E100049C08BE590E029E13BE048C021323105F3
:104E200021F12232310571F13DC082E190E024E7A9
:104E30003BE03CC099278130910571F02CF4892B1F
:104E400089F5E5E1FBE00DC08230910541F0039763
:104E500049F5E3EEFAE005C0E3EFFAE002C0E9EE5F
:104E6000FAE0849190E09F0121C063307105D0F495
:104E7000660F771FFB01EA5CFE4F2081318189E0DC
:104E800090E014C06330710568F4FB01EE0FFF1F62
:104E9000E05DFE4F20813181FB01E35DFE4F8081AB
:104EA00090E004C080E090E020E030E0FA0131833F
:104EB000208308950895CF93C82F0E945A27C09346
:104EC000E001CF9108958091ED01843011F081E0EF
:104ED000089582E008958091E001811102C00C9450
:104EE0006327089580E189BD82E189BD09B400FE90
:104EF000FDCF8091D8008F7D8093D8008091E00015
:104F000082608093E0008091E00081FDFCCF0895F5
:104F1000CF92DF92EF92FF920F931F93CF93DF9385
:104F2000EC018B016A010E94EB28811133C0C1148E
:104F3000D10439F0F60180819181081B190BC80F4B
:104F4000D91FE12CF12C0115110519F18091E80010
:104F500085FD16C08091E8008E778093E800C1142B
:104F6000D10449F0F60180819181E80EF91EF182A9
:104F7000E08285E00FC00E94EB28882321F30AC05D
:104F800089918093F10001501109FFEFEF1AFF0A98
:104F9000DACF80E0DF91CF911F910F91FF90EF90DA
:104FA000DF90CF9008952091F4013091F5012617FC
:104FB000370748F06115710539F42091E8002E7724
:104FC0002093E80001C0B90140E061157105A9F125
:104FD0002091ED01222309F443C0253009F442C099
:104FE0002091E80023FD40C02091E80022FD32C05E
:104FF0002091E80020FFE9CF4091F3002091F200DA
:1050000030E0342BFC01CF016115710559F02830D7
:10501000310540F481918093F100615071092F5F57
:105020003F4FF1CF41E02830310509F040E02091B9
:10503000E8002E772093E800C8CF4111C9CF0AC0FD
:105040008091ED01882361F0853061F08091E80066
:1050500083FD0AC08091E80082FFF2CF80E00895CE
:1050600082E0089583E0089581E008952091F4019D
:105070003091F5012617370748F06115710539F4AD
:105080002091E8002E772093E80001C0B901FC01CF
:1050900020E06115710591F18091ED01882309F4FB
:1050A00040C0853009F43FC08091E80083FD3DC0D9
:1050B0008091E80082FD2FC08091E80080FFE9CF59
:1050C0002091F3008091F20090E0922B6115710520
:1050D00059F08830910540F424912093F1003196E5
:1050E000615071090196F2CF21E0089709F020E0A4
:1050F0008091E8008E778093E800CBCF2111CCCF50
:105100000AC08091ED01882361F0853061F08091C3
:10511000E80083FD0AC08091E80082FFF2CF80E0C2
:10512000089582E0089583E0089581E00895982F1E
:10513000973058F59093E900981739F07091EC008A
:105140002091ED005091F00003C0242F762F50E005
:1051500021FF19C03091EB003E7F3093EB0030917E
:10516000ED003D7F3093ED003091EB0031603093E6
:10517000EB007093EC002093ED005093F000209131
:10518000EE0027FF07C09F5FD3CF8F708093E900A9
:1051900081E0089580E008958091EE0187FF11C0BD
:1051A0008091E80082FD05C08091ED018111F8CF6A
:1051B00011C08091E8008B770BC08091ED018823AE
:1051C00049F08091E80080FFF8CF8091E8008E7769
:1051D0008093E80008952091E4003091E50095E681
:1051E0004091EC00842F817040FF22C08091E80044
:1051F00080FD1CC08091ED01882391F0853091F0F5
:105200008091EB0085FD10C04091E4005091E500D5
:105210004217530729F39A01915011F784E008953A
:1052200082E0089583E0089581E0089580E0089584
:105230004091E80042FFDECF08950E948B290E9432
:105240009329E0EEF0E0808181608083E8EDF0E07A
:1052500080818F77808319BCA7EDB0E08C918E7F21
:105260008C9380818F7E80831092EC0108950F9340
:105270001F93CF93DF930E948B290E949329C8ED3F
:10528000D0E088818F77888388818068888388814F
:105290008F7D888319BC1092ED011092E901109264
:1052A000EB011092EA0100EE10E0F80180818B7FA3
:1052B000808388818160888342E060E080E00E9492
:1052C0009728E1EEF0E080818E7F8083E2EEF0E0CF
:1052D000808181608083808188608083F801808103
:1052E0008E7F8083888180618883DF91CF911F9139
:1052F0000F910895E8EDF0E080818F7E8083E7EDE7
:10530000F0E080818160808384E082BF81E08093CF
:10531000EC010C943729E8EDF0E080818E7F8083EA
:105320001092E20008951092DA001092E1000895C0
:105330001F920F920FB60F9211242F933F934F930A
:105340005F936F937F938F939F93AF93BF93EF93ED
:10535000FF938091E10082FF0BC08091E20082FF09
:1053600007C08091E1008B7F8093E1000E94A62519
:105370008091DA0080FF1FC08091D80080FF1BC0A1
:105380008091DA008E7F8093DA008091D90080FFCF
:105390000DC080E189BD82E189BD09B400FEFDCF69
:1053A00081E08093ED010E947F2505C019BC109219
:1053B000ED010E9491258091E10080FF19C080914C
:1053C000E20080FF15C08091E2008E7F8093E200B2
:1053D0008091E20080618093E2008091D800806239
:1053E0008093D80019BC85E08093ED010E949C2534
:1053F0008091E10084FF30C08091E20084FF2CC0E6
:1054000080E189BD82E189BD09B400FEFDCF8091B4
:10541000D8008F7D8093D8008091E1008F7E8093AB
:10542000E1008091E2008F7E8093E2008091E200B3
:1054300081608093E2008091E901882311F084E08B
:1054400007C08091E30087FD02C081E001C083E0D6
:105450008093ED010E94A0258091E10083FF29C087
:105460008091E20083FF25C08091E100877F8093D7
:10547000E10082E08093ED011092E9018091E1006A
:105480008E7F8093E1008091E2008E7F8093E20026
:105490008091E20080618093E20042E060E080E081
:1054A0000E9497288091F00088608093F0000E940D
:1054B0009825FF91EF91BF91AF919F918F917F912F
:1054C0006F915F914F913F912F910F900FBE0F9071
:1054D0001F9018951F920F920FB60F9211242F93C1
:1054E0003F934F935F936F937F938F939F93AF936C
:1054F000BF93CF93DF93EF93FF93C091E900CF70F9
:105500008091EC00D82FD17080FDD0E81092E90096
:105510008091F000877F8093F00078940E94AE2AFB
:105520001092E9008091F00088608093F000CD2B0C
:10553000CF70C093E900FF91EF91DF91CF91BF91C0
:10554000AF919F918F917F916F915F914F913F911B
:105550002F910F900FBE0F901F9018951F93CF9310
:10556000DF93CDB7DEB7AA970FB6F894DEBF0FBEB4
:10557000CDBFEEEEF1E088E08E0F9091F1009193B7
:105580008E13FBCF0E94F6258091E80083FF28C18F
:105590008091EE019091EF01492F50E04A30510582
:1055A00008F01EC1FA01EC58FF4F0C94432C8038D0
:1055B00021F0823809F014C108C08091EA0190916D
:1055C000EB01992389F082600FC08091F2018F7006
:1055D000873008F005C18093E9008091EB0085FBDE
:1055E000882780F91092E9009091E800977F9093C6
:1055F000E8008093F1001092F100D0C0282F2D7F99
:1056000009F0EEC0882319F0823061F0E9C0809182
:10561000F001813009F0E4C0933009F080E080931C
:10562000EB012EC08091F00181112AC08091F2011E
:105630008F702FEF280F263008F0D2C08093E9003A
:105640002091EB0020FF1CC0933021F48091EB00EF
:10565000806214C09091EB0090619093EB0021E088
:1056600030E0A90102C0440F551F8A95E2F740932C
:10567000EA001092EA008091EB0088608093EB00D2
:105680001092E9008091E800877F8093E8000E94F3
:10569000CC28A6C08111A4C01091F0011F77809181
:1056A000E3008078812B8093E3008091E800877F7E
:1056B0008093E8000E94CC288091E80080FFFCCF16
:1056C0008091E30080688093E300111102C082E0C2
:1056D00001C083E08093ED0183C08058823008F0E0
:1056E0007FC08091F0019091F1018C3D53E09507CE
:1056F00079F583E08A838AE289834FB7F894DE01E3
:10570000139620E03EE051E2E32FF0E05093570083
:10571000E49120FF03C0E295EF703F5FEF708E2FA2
:1057200090E0EA3010F0C79601C0C0968D939D932B
:105730002F5F243149F74FBF8091E800877F809326
:10574000E8006AE270E0CE0101960E94D32715C0FE
:105750006091F2017091F301AE014F5F5F4F0E94C3
:10576000FA26BC01892BE1F19091E800977F909394
:10577000E80089819A810E9436288091E8008B7721
:105780008093E8002DC0803859F58091E800877F2C
:105790008093E8008091E9018093F1008091E80016
:1057A0008E7773CF81111CC09091F0019230C0F4BC
:1057B0008091E800877F8093E8009093E9010E9440
:1057C000CC288091E901811106C08091E30087FD1A
:1057D00002C081E001C084E08093ED010E94E725D2
:1057E0008091E80083FF0AC08091E800877F809362
:1057F000E8008091EB0080628093EB00AA960FB6E0
:10580000F894DEBF0FBECDBFDF91CF911F910895F9
:10581000CF938091ED018823A1F0C091E900CF7072
:105820009091EC00892F817090FD80E8C82B109238
:10583000E9008091E80083FD0E94AE2ACF70C093FA
:10584000E900CF910895991B79E004C0991F96173C
:1058500008F0961B881F7A95C9F78095089597FBE5
:10586000072E16F4009407D077FD09D00E94492C2A
:1058700007FC05D03EF4909581959F4F0895709553
:1058800061957F4F0895EE0FFF1F0590F491E02D75
:105890000994AA1BBB1B51E107C0AA1FBB1FA61777
:1058A000B70710F0A61BB70B881F991F5A95A9F7C9
:1058B00080959095BC01CD010895F999FECF92BDD8
:1058C00081BDF89A992780B50895A8E1B0E042E03B
:1058D00050E00C94912C262FF999FECF92BD81BDFA
:1058E000F89A019700B4021639F01FBA20BD0FB61E
:1058F000F894FA9AF99A0FBE08950396272F0E94FA
:105900006C2C0E946B2C252F0E946C2C242F0C9445
:105910006C2C0196272F0E946C2C0C946B2CDC01B4
:10592000CB01FC01F999FECF06C0F2BDE1BDF89AAA
:10593000319600B40D9241505040B8F70895F89454
:02594000FFCF97
:10594200BA012808140A321E4A244C252125EB24C8
:10595200B02401F4F5F6F73133323697C6669293E6
:105962009134350102030405060708090040852227
:0C5972002D0CA80B860B2B0B440B5D0BBF
:00000001FF
