:100000000C945F040C9486060C94A6040C94A6042D
:100010000C94A6040C94A6040C94A6040C94A604B8
:100020000C94A6040C94A6040C9434220C9406237D
:100030000C9425190C94A6040C94A6040C94A60404
:100040000C94A6040C94A6040C94A6040C94A60488
:100050000C94A6040C948D190C94A6040C94A6047C
:100060000C94A6040C94A6040C94A6040C94A60468
:100070000C94A6040C94A6040C94A6040C94A60458
:100080000C94A6040C94A6040C94A6040C94A60448
:100090000C94A6040C94A6040C94A6040C94A60438
:1000A0000C94A6040C94A6040C94A604DC08DE08A8
:1000B000E908E008E208E408E608E808EB08ED08CB
:1000C000EF08FA08F108F308F508F708F908FC0842
:1000D000550F550F870F870F3511C50F3511351186
:1000E00007103511B410B4102511351135112E112A
:1000F000C110C110C110C110C110C110C110C11078
:10010000C110C110C110C110C110C110C110C11067
:10011000D210E010E710EE10F810BC11BC11CE1197
:10012000CE11C511CE11CE11CE11BC11BC11CA1108
:10013000CE11CE11CA1173239A238C249A238C24B6
:10014000E62309248C245F246E242B0014001A005B
:10015000080015001700E000040016000700090061
:100160000A00E1001D001B00060019000500000048
:1001700000000000E300F15C2C002A0013001200D4
:100180000C0018001C00340033000F000E000D009E
:100190000B00280038003700360010001100000066
:1001A00000000000E600F25C2C0029001E001F0089
:1001B00020002100220001000100010001000100D7
:1001C0000100010001000100010001000100000028
:1001D000000000000100010001004C002700260083
:1001E000250024002300310030022F02010001000D
:1001F00001000100010001000100010001000000F8
:100200000000000001000100010035001E021F0275
:1002100020022102220201000100010001002D0044
:100220002E0001000100010001000100010000009A
:10023000000000000100010001004C00270226021E
:10024000250224022302310230002F000100520057
:1002500001000100010001004F00510050000000AA
:10026000000000000100010001000000000000008B
:10027000000000000000000000000000000000007E
:10028000000000000000000000000000000000006E
:10029000000000000000000000000000000000005E
:1002A000000000000000000000000000000000004E
:1007400000000000000000000000010001000100A6
:100750000100005C01000100010001000100010036
:100760000100010001000100010001000100000082
:10077000000000000100010001004C050100010023
:100780000100010001000100010001000100010061
:100790000100010001000100010001000100000052
:1007A000000000000100010001000403300000000F
:1007B0001E034E006F007400200053006F002000E5
:1007C0004D0069006E00690044006F007800000071
:1007D0000C036D00740064006A00720000000403E2
:1007E000090409023B00020100A0FA09040000010B
:1007F00003010100092111010001224000070581C8
:100800000308000A09040100010300000009211186
:10081000010001224F000705820320000A12011087
:100820000100000008EDFE60300100010203010537
:10083000010902A10185020901A100050919012987
:100840000515002501950575018102950175038146
:10085000010501093009311581257F95027508814F
:100860000609381581257F950175088106050C0A52
:1008700038021581257F950175088106C0C00501E4
:100880000906A101050719E029E7150025019508CA
:100890007501810295017508810105081901290575
:1008A00095057501910295017503910105071900E0
:1008B00029FF150026FF00950675088100C0112448
:1008C0001FBECFEFDAE0DEBFCDBF04B603FE27C008
:1008D0008091F5019091F601A091F701B091F80196
:1008E0008730904BA740B04BD1F41092F501109295
:1008F000F6011092F7011092F80114BE84B7877FB9
:1009000084BF0FB6F894A8958091600088618093A9
:100910006000109260000FBEE0E0F8E3099511E07E
:10092000A0E0B1E0E4E6FAE402C005900D92AE3238
:10093000B107D9F721E0AEE2B1E001C01D92A53FB9
:10094000B207E1F70E94581F0C9430250C94000068
:10095000ABE1B1E041E050E08D91E82FE295EF701E
:10096000F0E021A18F70BA0102C0660F771F8A954F
:10097000E2F7CB01962F9095922391A392A1892B18
:1009800082A371E0AF31B70739F7089508950C9449
:10099000C60408950C94C9048091C70183608860DF
:1009A0008093C7010E94A804A5E1B1E041E050E0B6
:1009B0008D91E82FE295EF70F0E021A18F70BA01E0
:1009C00002C0660F771F8A95E2F7CB01962F9095AC
:1009D000922391A392A1892B82A371E0AB31B70737
:1009E00039F7559A209AAEE2B1E0E6E3F1E088E00B
:1009F0008E0F11921D928E13FCCF0C940A089F92B9
:100A0000AF92BF92CF92DF92EF92FF920F931F931C
:100A1000CF93DF9380910101811103C004E010E0C6
:100A200002C000E010E0A801425D5E4F7A01EA01D9
:100A30008BE1C82E81E0D82EAA24A394B12C25E006
:100A4000922E8FE1C81681E0D80609F448C0F6015D
:100A500081916F01E82FE295EF70F0E021A18F7096
:100A6000A50102C0440F551F8A95E2F7CA01922FD3
:100A7000982B91A392A18095892382A350EA5A953D
:100A8000F1F7E5E1F1E020E040E050E03191A32F03
:100A9000A295AF70B0E090968C9190E03F7002C04C
:100AA000959587953A95E2F780FD07C0C501042E1C
:100AB00001C0880F0A94EAF702C080E090E0282B7A
:100AC0004F5F5F4F4630510509F78881821719F053
:100AD0002883909200010E94A8042196B2CF8091B1
:100AE00000018823E1F0815080930001882339F0D0
:100AF000EFE9FFE03197F1F700C0000010C080E09F
:100B000090E0FC01E00FF11FEA5CFE4FD701A80F57
:100B1000B91F2C91208301968430910591F781E0D3
:100B2000DF91CF911F910F91FF90EF90DF90CF90C9
:100B3000BF90AF909F900895CF93DF938091010174
:100B4000811103C0C0E0D0E002C0C4E0D0E00E9448
:100B5000F906009779F4CA5CDE4F20E030E0F90135
:100B6000EF5BFE4F408149932F5F3F4F24303105AB
:100B7000B1F702C081E090E0DF91CF910895CF936B
:100B80000E94FF04C82F0E949C05892BC1F05D982C
:100B900090913E019F5F90933E01963098F0809136
:100BA0000101811103C0E0E0F0E002C0E4E0F0E008
:100BB000EA5CFE4F108211821282138203C05D9A9A
:100BC00010923E010E9412088C2FCF9108950E942E
:100BD000FF0480910101811103C0E4E0F0E002C054
:100BE000E0E0F0E0EA5CFE4F80E090E02191DC0183
:100BF000AF5BBE4F2C93019684309105B9F70895F1
:100C0000E82FF0E0EA5CFE4F808108950895E8ED5A
:100C1000F0E08081806180838AE18A95F1F700C0ED
:100C20008091D900817008950E9407068093010188
:100C30000E940706882319F00E94790602C00E94CC
:100C40007D06789408950E94CC040E94E705FDCFAC
:100C50000E9414060E940706811102C00E9423060A
:100C60000895509A08955098589A0895589A08955A
:100C70000E943106589880E88A95F1F70C94360660
:100C80000E943306489BFECF80E88A95F1F70895CD
:100C90000E94330698E080E029B12170880F822BF2
:100CA00020E82A95F1F725E02A95F1F70000915008
:100CB00099F708950F931F93CF93082F0E94310641
:100CC000C8E010E0C15088F0C8010C2E02C0959514
:100CD00087950A94E2F780FF03C00E94360601C0A0
:100CE000589880E88A95F1F7EDCFCF911F910F9139
:100CF00008950E9431060C9436060E943306E89A45
:100D0000E9E6F0E080818C7F808308951F920F9246
:100D10000FB60F921124CF92DF92EF92FF921F93A2
:100D20002F933F934F935F936F937F938F939F93F3
:100D3000AF93BF93EF93FF93CF93DF931F92CDB702
:100D4000DEB70E943806C12CD12C10E0C6018F5BA3
:100D50009E4F7C01FC0180810E945A060E94380649
:100D6000F7018081180FFFEFCF1ADF0A84E0C81661
:100D7000D10461F7812F0E945A060E94380690E83C
:100D80009A95F1F7E0E4EA95F1F70E94480680931E
:100D900040010E943806109140010E944806898354
:100DA0000E9438060E9433068981181721F080912D
:100DB0003F01816003C080913F018E7F80933F019E
:100DC0000F90DF91CF91FF91EF91BF91AF919F91E4
:100DD0008F917F916F915F914F913F912F911F91D3
:100DE000FF90EF90DF90CF900F900FBE0F901F906D
:100DF0001895CF92DF92EF92FF921F93CF93DF93DC
:100E00001F92CDB7DEB7F8940E943106589825E0BE
:100E10002A95F1F700000E9433060E94360630E85A
:100E20003A95F1F7489934C00E944006C12CD12C64
:100E300010E00E944806F601EF5BFE4F7F018083C1
:100E40000E944006F7018081180FFFEFCF1ADF0ADA
:100E500024E0C216D10469F70E94480689830E94E3
:100E600040068981181314C0809140010E945A06DF
:100E70000E944006809140010E945A060E9440064E
:100E80000E9431060E943606789480E090E003C00C
:100E9000789481E090E00F90DF91CF911F91FF90C7
:100EA000EF90DF90CF900895CF93FB01813F2CE529
:100EB0009207B1F020F4803F9C4559F029C0823F51
:100EC0002CE5920781F0833F9C4511F5C28180E1BA
:100ED0000CC0C281CC23E9F080E00E9490070EC0D4
:100EE000C28181E002C0C28182E0CC2349F00E942D
:100EF000E81540E162E081E00E94F807C0E009C027
:100F00000E94091640E162E081E00E94F80701C0FA
:100F1000C1E08C2FCF91089581E008950C9454077F
:100F2000CF93DF9361E070E0EB0102C0CC0FDD1FD7
:100F30008A95E2F78C2F0E942618BE0180E090E08F
:100F4000DF91CF910C9487158F929F92AF92BF92B1
:100F5000CF92DF92EF92FF920F931F936B017C0170
:100F600081E090E0A0E0B0E04C015D0104C0880C9D
:100F7000991CAA1CBB1C4A95D2F7AC01BD0104C048
:100F8000440F551F661F771F2A95D2F74829592904
:100F90006A297B2904C0880F991FAA1FBB1F0A95C5
:100FA000D2F78A019B010C211D212E213F2104171C
:100FB00015072607370739F4BC01CD016C297D29B7
:100FC0008E299F290AC080959095A095B095BC0167
:100FD000CD016C217D218E219F211F910F91FF90CA
:100FE000EF90DF90CF90BF90AF909F908F9008953B
:100FF0000F93382F262F6091B2017091B301809129
:10100000B4019091B501042F432F0E94A4070F91C2
:101010000C94C2150E941318811102C00E949218EC
:101020000C94C7040C94CA0408950C9414080C94EE
:10103000150808950E94AC110E9419082FEF84E34F
:101040009CE0215080409040E1F700C0000087E71D
:1010500097E790930108809300080C94B319FF92CE
:101060000F931F93CF93DF938C01FC01C081D1813B
:1010700080915B01811113C08281882349F0CE01E8
:101080000E94E316F82E682FCE010E94861604C037
:10109000CE010E94B616F82EBE018F2D04C0CE01DF
:1010A0000E94E316BE010E94B009EC01B8010E9443
:1010B0008E07882309F449C1C73DFCE5DF0709F421
:1010C000ABC0B0F4C531ECE5DE0768F4C230FCE536
:1010D000DF0708F04FC0C1158CE5D80701F1C1301A
:1010E000DC4529F125C1C631DC4509F4FAC020C12F
:1010F000CC3D8CE5D80771F150F4C83DFCE5DF0725
:1011000009F4ADC0C93DDC4509F4D0C011C1CD3DE5
:10111000ECE5DE0731F1CE3DDC45A1F009C1F80177
:101120008281882309F411C10E941A080EC1F801B6
:101130008281882309F409C18091C701816080936D
:10114000C70103C1F8018281882309F4FEC00E940F
:101150009218FBC0F8018281882309F4F6C080E070
:1011600006C0F8018281882309F4EFC082E00E9462
:10117000F71FEBC0F8018281882309F4DEC00E94CA
:101180001318811102C00E9492180E942B1890E03F
:101190009093E7018093E601FE01E350FC45E231C4
:1011A000F10530F4EA5AFF4F8091E6010C94D42403
:1011B0008091E601816027C0826025C0846023C0E1
:1011C000806121C080621FC080641DC080681BC018
:1011D0008460886018C08E7F16C08D7F14C08B7F9E
:1011E00012C08F7E10C08F7D0EC08F7B0CC08F779A
:1011F0000AC08B7F877F07C087FB222720F991E0F9
:10120000922790FB87F98093E6018091E6010E9486
:101210002F180E94AC1199C0F8018281882351F0E7
:1012200010924A010E9457199093470180934601FA
:1012300082E022C080914A0181110FC08091460155
:10124000909147010E946319883C910530F486E231
:101250000E94700D86E20E94A90E82E024C0F8016F
:101260008281882361F010924B010E94571990935C
:1012700049018093480180E20E94110F66C080916D
:101280004B0181110FC080914801909149010E944A
:101290006319883C910530F487E20E94700D87E263
:1012A0000E94A90E80E20E94180F4FC0F8018281AF
:1012B0008111D9CF80914B018111F4CF80914801E8
:1012C000909149010E946319883C910558F780E28A
:1012D0000E94180F88E20E94700D88E20E94A90EF9
:1012E00034C00E946317282FF801828140910201C7
:1012F00050910301882379F02A7A91E009F490E073
:1013000090934501911102C069E201C065E3CA01F1
:101310000E94C6180AC080914501811102C069E28D
:1013200001C065E3CA010E94C8180E94AF170DC032
:1013300081E080934A0180934B01C801DF91CF91F6
:101340001F910F91FF900C948C0780E0DF91CF915B
:101350001F910F91FF90089580E090E00895089507
:1013600096E0799FF001112490E3899FE00DF11D33
:101370001124E60FF11DEE0FFF1FE65BFE4F859176
:1013800094910895880F991FFC01E655F84F8591B7
:1013900094910895CF93DF930E94B0090E94810B2E
:1013A000EC01811520E59207F0F5811530E49307F3
:1013B00008F024C1883E910500F5803E910508F0B3
:1013C0009CC1883A910570F4853A910508F09FC058
:1013D0008130910509F491C108F442C1049708F0E5
:1013E0008CC13EC18F3B910508F49CC0803C9105A7
:1013F00008F436C1805C9109F4C0811540E294077D
:1014000058F4C11581E0D80708F077C1C03FD10575
:1014100008F426C1D06571C1811520E3920708F058
:10142000E4C09F70DEC0811535E5930708F044C025
:10143000811544E5940708F0F8C0C11582E5D80786
:1014400008F5C11521E5D20708F0DBC08C2F8370A9
:1014500021E030E002C0220F331F8A95E2F73C689A
:10146000CE0174E0969587957A95E1F78370382BD5
:10147000CF70C695C69580E2C89FE0011124C22BAB
:10148000D32B3BC12C2F26952695CE01837099270F
:10149000C115D34508F0BAC040E2249F9001112441
:1014A000C1E0D0E002C0CC0FDD1F8A95E2F72C2B03
:1014B0003D2BE901DC6821C1811549E59407A0F4C1
:1014C000C11588E5D80708F0B5C0C11526E5D207D3
:1014D00008F0C6C08C2F0E94FE0B8F71C82FD0E081
:1014E000DC2FCC27D06209C181153AE5930708F4B7
:1014F000A6C090568115904208F0B2C08D2F8F7112
:101500000E94FE0BDD27D0628F71D82BF6C0853A82
:10151000910509F4A8C0863A910509F0A7C0C2E870
:10152000D0E4EBC0883A910509F4A3C0893A91054B
:1015300009F4A2C08A3A910509F4A1C08B3A910539
:1015400009F4A0C08C3A910509F49FC08B3B91052A
:1015500009F49EC08C3B910509F49DC08D3A91051C
:1015600009F49CC0803B910509F49BC08E3A91051B
:1015700009F49AC08F3A910509F499C0813B91050D
:1015800009F498C0823B910509F497C0833B91050B
:1015900009F496C0843B910509F495C0853B9105FB
:1015A00009F494C0863B910509F493C0873B9105EB
:1015B00009F492C0883B910509F491C0893B9105DB
:1015C00009F490C08D3B910509F48FC08E3B9105C5
:1015D00009F48EC08A3B910509F48DC0C0E0D4E4C3
:1015E0008CC00E94C209EC0188C09927D3FF03C0B8
:1015F000EC01D86C82C0EC01D06C7FC0DF70D06A87
:101600007CC0DC2FCC27C16FD06A77C040E2249F1A
:1016100090011124C1E0D0E002C0CC0FDD1F8A95FB
:10162000E2F7C22BD32BDA6868C0D82FCC27C46F5F
:10163000D06A63C0DC2FCC27C06FD06A5EC08F70C9
:101640000E94FE0B94E0D695C7959A95E1F7CF706E
:10165000D0E0DC2FCC27D06A8F70806EC82B4DC0B5
:10166000C0E0D0E04AC0C1E8D0E447C0C3E8D0E45D
:1016700044C0C2EED4E441C0C9EED4E43EC0CAEED8
:10168000D4E43BC0C5EBD4E438C0C6EBD4E435C0E9
:10169000C3EBD4E432C0C4EBD4E42FC0C7EBD4E432
:1016A0002CC0CCECD4E429C0CDECD4E426C0C3E8F3
:1016B000D5E423C0CAE8D5E420C0C2E9D5E41DC002
:1016C000C4E9D5E41AC0C1E2D6E417C0C3E2D6E447
:1016D00014C0C4E2D6E411C0C5E2D6E40EC0C6E22E
:1016E000D6E40BC0C7E2D6E408C0CFE6D4E405C018
:1016F000C0E7D4E402C0CAE2D6E4CE01DF91CF91C4
:1017000008958238910549F1B0F48133910509F4C7
:1017100058C048F48932910509F44EC08A329105C7
:1017200009F454C008958533910509F440C0893304
:10173000910599F00895833E910529F138F4803E92
:10174000910591F0823E9105A1F00895863E9105A4
:10175000F9F0873E910531F108952091E60120FDD1
:101760003AC021FD38C008958091E60180FD35C062
:1017700032C08091E60182FF32C08091E60184FD93
:1017800030C083EE39C08091E60182FD28C0F5CFDC
:101790008091E60183FF27C08091E60184FD21C08E
:1017A00087EE2AC08091E60183FD1DC0F5CF8091B0
:1017B000E60185FD1AC01BC08091E60185FD17C0BA
:1017C00014C08091E60186FD14C015C08091E60129
:1017D00086FD11C00EC080EE0FC089E30DC082EE01
:1017E0000BC080E009C086EE07C089E205C085E332
:1017F00003C08AE201C081E390E008959091E60180
:1018000092FF0DC0282F2871283019F4877F84603B
:1018100006C0282F2471243011F48B7F886093FF39
:101820000DC0282F2871283119F4877E846106C0E5
:10183000282F2471243111F48B7E886194FD877EDA
:10184000089590935101809350010895E0915001C3
:10185000F0915101309721F00190F081E02D099431
:1018600080E00895E0915001F0915101309721F00E
:101870000280F381E02D09940895E0915001F091E8
:101880005101309739F022E0DC012C930480F5817E
:10189000E02D0994089520914E0130914F01821757
:1018A000930771F090934F0180934E01E0915001A6
:1018B000F0915101309721F00680F781E02D0994D5
:1018C000089520914C0130914D018217930771F0DA
:1018D00090934D0180934C01E0915001F0915101A2
:1018E000309721F00084F185E02D0994089585B7A3
:1018F000806885BF85B7806885BF089508950C947A
:101900007E0C08950C94810C0E94770C0E9428068E
:101910000C947F0C81E008950E944E190E94CC0423
:101920000E94C4190C94820CCF92DF92EF92FF9226
:101930000F931F93CF93DF93CDB7DEB72B970FB6DF
:10194000F894DEBF0FBECDBF0E94BF050E948A0C77
:10195000811111C08FEF89838A831B820E945719DE
:101960008160782F9D838C8349815A816B818D8121
:101970000E943C0D56C083E5C82E81E0D82E00E0C1
:1019800010E0E02E802F0E940006F60141916F01C9
:10199000F42EF82631F40F5F1F4F0830110589F738
:1019A000D9CF9091C70191FF04C08B870E94060692
:1019B0008B8520E030E04F2D50E0922FBA01022EAF
:1019C00002C0759567950A94E2F760FF24C02E83E4
:1019D000EF8221E030E0690102C0CC0CDD1C9A9559
:1019E000E2F790E08C219D21892B09F420E02887E3
:1019F0000E9457198160782F9A8789874E815F816D
:101A000068858A850E943C0DF801ED5AFE4F808161
:101A1000C826C08206C02F5F3F4F2630310569F6C9
:101A2000BACF0E94571B109152010E94260C181722
:101A3000A1F00E94260C809352012B960FB6F894C9
:101A4000DEBF0FBECDBFDF91CF911F910F91FF90F1
:101A5000EF90DF90CF900C9417082B960FB6F89468
:101A6000DEBF0FBECDBFDF91CF911F910F91FF90D1
:101A7000EF90DF90CF900895CF93DF93CDB7DEB78F
:101A80002B970FB6F894DEBF0FBECDBF4F8358879C
:101A900069877A878B87DE01119686E0FD011192B6
:101AA0008A95E9F785E0FE01379601900D928A95B7
:101AB000E1F749815A816B817C818D819E810E94F1
:101AC00056142B960FB6F894DEBF0FBECDBFDF9134
:101AD000CF910895FC01808191810E94241708957F
:101AE000CF93DF931F92CDB7DEB7882309F42DC1C2
:101AF000682F8238C1F40E94260C81FD26C169E35B
:101B000080910201909103010E94C6180E94AF17B4
:101B10002FEF81EE94E0215080409040E1F700C02B
:101B2000000069E319C0833811F50E94260C80FD7E
:101B30000CC163E580910201909103010E94C618D7
:101B40000E94AF172FEF81EE94E02150804090402B
:101B5000E1F700C0000063E580910201909103016C
:101B60000E94C8180F90DF91CF910C94AF17843862
:101B7000C1F40E94260C82FDE8C067E48091020156
:101B8000909103010E94C6180E94AF172FEF81EEBB
:101B900094E0215080409040E1F700C0000067E4ED
:101BA000DBCF8CEF860F813A70F4862F69830E9419
:101BB000881D69818111C9C0809102019091030142
:101BC0000E94C618CFCF80E2860F883048F4677035
:101BD00081E001C0880F6A95EAF70E946617C2CFBC
:101BE0008BE5860F833088F4653A29F0663A31F048
:101BF00083E890E005C081E890E002C082E890E0D0
:101C00000F90DF91CF910C944B0C88E5860F8731B4
:101C100008F091C0683A09F445C0693A09F445C032
:101C20006A3A09F445C06B3A09F445C06C3A09F4C4
:101C300045C06B3B09F445C06C3B09F445C06D3AA7
:101C400009F445C0603B09F445C06E3A09F445C04B
:101C50006F3A09F445C0613B09F445C0623B09F4A1
:101C600045C0633B09F445C0643B09F445C0653B8E
:101C700009F445C0663B09F445C0673B09F445C01B
:101C8000683B09F445C0693B09F445C06D3B09F464
:101C900045C06E3B09F445C06A3B09F445C080E08D
:101CA00090E044C082EE90E041C089EE90E03EC0FA
:101CB0008AEE90E03BC085EB90E038C086EB90E088
:101CC00035C083EB90E032C084EB90E02FC087EB0F
:101CD00090E02CC08CEC90E029C08DEC90E026C008
:101CE00083E891E023C08AE891E020C082E991E096
:101CF0001DC084E991E01AC081E292E017C083E23E
:101D000092E014C084E292E011C085E292E00EC03D
:101D100086E292E00BC087E292E008C08FE690E096
:101D200005C080E790E002C08AE292E00F90DF9168
:101D3000CF910C94610C603F40F0862F0E945F1A97
:101D40000F90DF91CF910C944C1B0F90DF91CF91AE
:101D50000895882309F464C0823879F40E94260C1F
:101D600081FF5EC069E380910201909103010E94AE
:101D7000C6180E94AF1769E310C08338B1F40E94FF
:101D8000260C80FF4DC063E5809102019091030114
:101D90000E94C6180E94AF1763E5809102019091DE
:101DA00003010E94C8180C94AF17843879F40E947C
:101DB000260C82FF35C067E48091020190910301F7
:101DC0000E94C6180E94AF1767E4E7CF9CEF980FF8
:101DD000913A10F4682FE1CF90E2980F983050F4C8
:101DE000877091E001C0990F8A95EAF7892F0E94C8
:101DF0006C17D9CF9BE5980F933020F480E090E0EA
:101E00000C944B0C98E5980F973120F480E090E00B
:101E10000C94610C803F20F00E94C71A0C944C1B5C
:101E20000895882321F00E9466170C94AF17089537
:101E3000882321F00E946C170C94AF1708954F92DD
:101E40005F926F927F92BF92CF92DF92EF92FF925A
:101E50000F931F93CF93DF937C01D62FC72FFC01E5
:101E6000058102950F70128111110E9483170E9443
:101E70005C17882379F0112369F080E28D0F883098
:101E800048F082E00E94FA170E945C1791E0B82E99
:101E9000B92601C0B12CCC2EC2948FE0C822D12C1F
:101EA000F601E859FF4F0C94D4248C2F807FCF701B
:101EB000882311F0C295C07F112399F0CC2309F437
:101EC000AFC180E28D0F883010F0D11104C08C2F8B
:101ED0000E94661703C08C2F0E9476170E94AF17CE
:101EE0009FC18D2F0E94A90ECC2309F4BEC180E2B0
:101EF0008D0F883010F0D11104C08C2F0E946C1708
:101F000003C08C2F0E947C170E94AF17AEC18C2F8C
:101F1000807FCF70803211F0C295C07FDD2319F031
:101F2000D130C9F022C0112371F0002341F00130FB
:101F300031F40E9496178C2B0E949C1796C10E9428
:101F400096178C2B26C1002319F0013009F48DC19E
:101F50000E94A51718C0112321F0063008F085C192
:101F60000EC0053008F081C10EC0112351F00023CE
:101F700031F0F701858180FF53C18F7085838C2FED
:101F800008C101115EC18C2F0AC11123F9F0D53FA0
:101F900051F0D63F71F0D43FA9F48091E0019091C7
:101FA000E10181600BC08091E0019091E1018260CC
:101FB00005C08091E0019091E10184609093E1017E
:101FC0008093E0018D2F0E945F1A1EC0D53F51F013
:101FD000D63F71F0D43FA9F48091E0019091E101E6
:101FE0008E7F0BC08091E0019091E1018D7F05C053
:101FF0008091E0019091E1018B7F9093E1018093CA
:10200000E0018D2F0E94C71A0E944C1B3EC18C2FED
:10201000837009F050C0111134C18D2F82958695BF
:102020008770880F880F9D2F9F70492E512C612C2F
:10203000712C082E04C0440C551C661C771C0A9495
:10204000D2F7D4FF14C00FE010E020E030E0B90177
:10205000A80104C0440F551F661F771F8A95D2F749
:10206000CB01BA01609570958095909503C060E0B2
:1020700070E0CB01C695C695C370D0E0C230D105E3
:1020800061F0C330D10581F064297529862997292B
:10209000219771F00E949B15F4C064297529862947
:1020A00097290E94AD15EDC00E949B15C301B20196
:1020B0000E948915E6C0112319F08C2F817001C090
:1020C0008695882309F4DDC08D2F829586958770CB
:1020D000880F880F9D2F9F70492E512C612C712CD9
:1020E000082E04C0440C551C661C771C0A94D2F7B9
:1020F000D4FF14C00FE010E020E030E0B901A801E7
:1021000004C0440F551F661F771F8A95D2F7CB0175
:10211000BA01609570958095909503C060E070E07D
:10212000CB01C695C695C3704C2F50E04230510587
:1021300069F04330510589F064297529862997296A
:102140004130510571F00E9461169BC064297529C8
:10215000862997290E94731694C00E946116C301B4
:10216000B2010E944F168DC08D2F90E0FC01E05E01
:10217000F109E531F10508F04FC0E858FF4F0C9424
:10218000D424DF708C2F8F71112331F00E94E81559
:102190008D2F0E94110F69C00E9409168D2F0E9479
:1021A000180F63C0112341F0053008F05EC08C2F7A
:1021B0008F710E942E1659C0063008F056C0F7CF16
:1021C000112339F08C2F8F710E94E8154EC0112316
:1021D000C9F38C2F8F710E94091647C0112329F073
:1021E0008C2F8F710E94D31540C00E94CE153DC028
:1021F000112349F0CF718C2F0E94E81563E08C2FDA
:102200000E94E51732C081E00E94FA17023068F19F
:1022100082E00E94FA1729C0112331F0002391F2C5
:102220008D2F0E94700D21C0002399F2D93349F4FB
:102230005FEF67EE73E0515060407040E1F700C01F
:1022400000008D2F0E94A90E10C04C2F4F706D2FD3
:10225000C7010E94AC090E94FA1417C04C2F4F709E
:102260006D2FC7010E94AF0910C088E0C816D104C5
:1022700041F05CF0EAE0CE1AD108F2E0CF16D104CA
:1022800020F40E94260C0E941708BB20F1F00E9447
:10229000581780FD1AC0F70112820E9452170E943F
:1022A000E815C7010E9473110E945217DF91CF9168
:1022B0001F910F91FF90EF90DF90CF90BF907F9094
:1022C0006F905F904F900C940916DF91CF911F9102
:1022D0000F91FF90EF90DF90CF90BF907F906F9025
:1022E0005F904F9008950F931F93CF93DF93EC016E
:1022F000888199812B813C81232BB9F09F3F11F478
:102300008F3F99F0CE010E942F08882371F06881D9
:1023100079818A810E942F178C010E9485160E9464
:102320008615B801CE010E941F0FDF91CF911F913A
:102330000F9108950E9483170E9493170E94AF1770
:102340000E94F21B0C944C1B80910201909103019E
:102350000E94CA180C949A110E9473170C94A4112D
:10236000E92FE295EF70F0E03297EE30F105B0F42E
:10237000E357FF4F0C94D424803F91F018F4803E33
:1023800068F40EC0843F51F40BC0803E48F0813F9A
:1023900029F406C093FB882780F9089580E008950A
:1023A00081E008950E9424170E94B0110895CF93F0
:1023B000DF9300D000D01F92CDB7DEB70F900F9003
:1023C0000F900F900F90DF91CF910895CF93DF93EF
:1023D00000D000D000D0CDB7DEB726960FB6F89467
:1023E000DEBF0FBECDBFDF91CF9108951F93CF9376
:1023F000DF93C0915C0116E080915D01C81799F0F0
:10240000D0E01C9FF0011D9FF00D1124E25AFE4FF9
:102410004081518162817381848195810E94E6119E
:102420002196C770E9CFDF91CF911F910895409118
:102430008E0150918F016091900170919101809176
:102440009201909193010C94E611809193018295F1
:102450008F7009F054C080919001882309F44FC017
:1024600080915C01A0915D0160918E0170918F015E
:102470004091910150919201B6E08A1709F43FC052
:1024800090E041155105C1F17F3F11F46F3FA1F17B
:10249000B89FF001B99FF00D1124E25AFE4F21813F
:1024A00072132AC02081621327C02281211124C007
:1024B000238134812417350710F421503109241B5E
:1024C000350B283C3105C0F4209193012F70206119
:1024D0002093930126E0289FF001299FF00D1124FD
:1024E000ED59FE4F80818F70806180838EE891E08E
:1024F0000E9473110C94F61101968770BECF089557
:10250000CF92DF92EF92FF920F931F93CF93DF93BF
:10251000CDB7DEB762970FB6F894DEBF0FBECDBF62
:102520008C0185E0F801DE011D9601900D928A95DF
:10253000E1F7D8014C9111965C91119712966C912C
:1025400012971396CD90DC90149730918E01709174
:102550008F018091910190919201009709F46BC1D4
:102560007F3F19F43F3F09F466C1E0909001EE20EF
:1025700009F4C0C020919301C816D90628F0F601CD
:10258000E81BF90BCF0104C0809590958C0D9D1D23
:10259000FF24F394883C910578F0F12C207F09F01A
:1025A000C6C07C2DD98AC88A89890E94D7118EE835
:1025B00091E00E947311B1C0822F807F09F046C064
:1025C000751314C0341312C0611110C02F70206134
:1025D000209393010E9417128EE891E00E947311DC
:1025E00080919301D80115968C932EC0CD2819F1B6
:1025F0005F3F11F44F3FF9F0F62E61111CC080913E
:102600005C0120915D0136E0821709F45AC090E028
:10261000389FF001399FF00D1124E25AFE4F71816D
:10262000571306C07081471303C07281711103C034
:1026300001968770E9CFF62E662309F427C18091B1
:102640009301816080939301F12C20C1751308C020
:10265000341306C0611104C080919301D801C3C036
:102660004D875E878D859E856A8B0E94D2116A890F
:102670008823E1F16623D1F120919301822F829585
:102680008F7090E0029774F080918E0190918F018D
:1026900098878F831986DB86CA862C87CE0107969A
:1026A0000E94731186E0F801AEE8B1E001900D924E
:1026B0008A95E1F70E9425120E941712FF24F394D5
:1026C000E5C04D875E878D859E850E942417292F42
:1026D00022952F7030E0223031050CF0CBC09F7076
:1026E00009F0C5C0805E883008F4D0C0C8010E94DF
:1026F0007311E4CFC816D90608F453C0F601E81BDD
:10270000F90BCF01883C910508F450C0F12C7C2DC9
:10271000D98AC88A89890E94D711EEE8F1E086E05B
:10272000DF011D928A95E9F70E941712AFC0751359
:1027300014C0341312C0611110C080919301F801CC
:102740008583C8010E94731186E0EEE8F1E0DF01A5
:102750001D928A95E9F7FE2C99C04D875E878D857D
:102760009E856A8B0E94D2116A89882309F4BECFA4
:10277000662309F4BBCF20919301822F82958F703D
:1027800090E002970CF48ECF80918E0190918F0192
:102790009A8389831B82DD82CC822E83CE010196AF
:1027A0007FCF809590958C0D9D1DACCFF62E662326
:1027B00009F49CCF75132EC034132CC020919301C3
:1027C00020FD1FC0822F82958F70D9F0D8011596F9
:1027D0002C9315978F3049F08F5F982F9295907FAB
:1027E000822F8F70892B15968C93C8010E947311CC
:1027F00086E0F801AEE8B1E001900D928A95E1F72C
:1028000093CF86E0F801AEE8B1E001900D928A9591
:10281000E1F73CC04D875E878D859E850E94D21171
:10282000811140CF80919301816080939301C80111
:102830000E9473112BC0662309F458CF4D875E8721
:102840008D859E850E94D211F82E882309F44ECFE3
:1028500086E0F801AEE8B1E001900D928A95E1F7CB
:102860008EE891E00E946A0D0E9425125DCF8111D1
:1028700039CF0CC0243031050CF038CF9F7009F4EB
:1028800031CFF8019581907F09F02CCF8F2D629682
:102890000FB6F894DEBF0FBECDBFDF91CF911F9171
:1028A0000F91FF90EF90DF90CF9008951F93CF93FB
:1028B000DF93CDB7DEB72C970FB6F894DEBF0FBE0F
:1028C000CDBF4F83588769877A878B879C87CE01D6
:1028D00007960E948012882369F08F8198852A8547
:1028E0003B85232BF1F19F3F09F063C08F3F09F037
:1028F00060C037C086E0FE013796DE011196019078
:102900000D928A95E1F76F817885EA85FB8530978E
:1029100041F17F3F11F46F3F21F120915D0130E0E3
:10292000C90101968770992740915C0150E0841796
:10293000950709F447C069837A83FD83EC8396E0A9
:10294000929FD001939FB00D1124A25ABE4FFE0159
:10295000319601900D929A95E1F780935D010E9466
:10296000F61116E080915C0190915D018917C1F12B
:10297000189FC0011124825A9E4F0E948012882302
:1029800079F1E0915C011E9FF0011124E25AFE4FA3
:102990004081518162817381848195810E94E61119
:1029A00080915C0190E001968770992780935C018B
:1029B000D9CF4F81588569857A858B859C850E9402
:1029C000E611CFCF0E94AC1110925D0110925C0114
:1029D000EEE8F1E086E0DF011D928A95E9F7C1CFCC
:1029E0002C960FB6F894DEBF0FBECDBFDF91CF910E
:1029F0001F910895EF92FF920F931F93CF93DF9350
:102A00008C01892B09F46CC0F12CEE24E394E801CD
:102A10002196F8018491843740F4843008F051C045
:102A2000813081F0823019F15BC0853709F444C0F0
:102A3000A8F19CE7980F903708F052C08F770E945A
:102A4000A90E41C00E5F1F4FFE01C49180E28C0FA2
:102A5000883048F4C7708E2D01C0880FCA95EAF7F8
:102A60000E94861714C08C2F0E94700D2DC00E5F1F
:102A70001F4FFE01C49180E28C0F883058F4C7705C
:102A80008E2D01C0880FCA95EAF70E948C170E940C
:102A9000AF171AC08C2F0E94A90E16C00E5F1F4FD1
:102AA000FE01C491CC2381F08FE99FE00197F1F7FB
:102AB00000C00000C150F6CF0E5F1F4FFE01F49022
:102AC00003C00E94700D8E018F2D882309F49FCFC3
:102AD000EFE9FFE03197F1F700C000008150F5CF3A
:102AE000DF91CF911F910F91FF90EF90089508957E
:102AF0000C9477150E9478156093B6017093B70116
:102B00008093B8019093B9010C949A1108950C9494
:102B10007A150F931F930091B6011091B701209180
:102B2000B8013091B901602B712B822B932B1F912F
:102B30000F910C947A150F931F930091B601109189
:102B4000B7012091B8013091B9016023712382232C
:102B500093231F910F910C947A150F931F9300915B
:102B6000B6011091B7012091B8013091B9016027E9
:102B70007127822793271F910F910C947A1508953E
:102B80000C94BF150E94C0156093B2017093B301FD
:102B90008093B4019093B5010C949A1160E070E0B9
:102BA000CB010C94C2150F931F9341E050E060E0FD
:102BB00070E08A019B0104C0000F111F221F331F08
:102BC0008A95D2F7C901B8011F910F910C94C215D3
:102BD0000F931F9341E050E060E070E004C0440FA9
:102BE000551F661F771F8A95D2F78091B201909189
:102BF000B301A091B401B091B5018A019B01082BEA
:102C0000192B2A2B3B2BC901B8011F910F910C9452
:102C1000C2150F931F9341E050E060E070E004C0E4
:102C2000440F551F661F771F8A95D2F74095509520
:102C3000609570958091B2019091B301A091B4011B
:102C4000B091B5018A019B01082319232A233B2354
:102C5000C901B8011F910F910C94C2150F931F93D6
:102C600041E050E060E070E004C0440F551F661F73
:102C7000771F8A95D2F78091B2019091B301A0910C
:102C8000B401B091B5018A019B01082719272A27B1
:102C90003B27C901B8011F910F910C94C2150F93E6
:102CA0001F930091B2011091B3012091B4013091B2
:102CB000B501602B712B822B932B1F910F910C94DC
:102CC000C2150F931F930091B2011091B30120918F
:102CD000B4013091B50160237123822393231F91A6
:102CE0000F910C94C2150F931F930091B201109194
:102CF000B3012091B4013091B5016027712782277B
:102D000093271F910F910C94C2150895292F220F1C
:102D1000920F990F890FA82FA695A695A695877053
:102D200051E001C0550F8A95EAF785E0A89FD001D0
:102D3000112420E030E070E0F901EA0FFB1FEC56AF
:102D4000FE4F4081CB01022E02C0969587950A94D2
:102D5000E2F78170992781958427852384278083D2
:102D60002F5F3F4F2530310539F70895292F220F66
:102D7000920F990F890F682F669566956695982F23
:102D8000977085E0689FB001112440E050E080E03A
:102D9000FA01E60FF71FEC56FE4F208130E0092EB6
:102DA00002C0369527950A94E2F721703327042E46
:102DB00001C0220F0A94EAF7822B4F5F5F4F453024
:102DC000510531F70895BF92CF92DF92EF92FF92B3
:102DD0000F931F93CF93DF938C01C090B601D090D7
:102DE000B701E090B801F090B9018091B2019091E3
:102DF000B301A091B401B091B501C82AD92AEA2A39
:102E0000FB2ACFE1D0E0D701C6010C2E04C0B69555
:102E1000A795979587950A94D2F780FF07C0BC2E97
:102E2000B8018C2F0E94CA09019719F4219758F70D
:102E3000B12C8B2DDF91CF911F910F91FF90EF90CF
:102E4000DF90CF90BF900895CF93DF93EC010E9465
:102E5000E316BE010E94CA09DF91CF9108951F9326
:102E6000CF93DF93EB0190915B01992321F0CB018C
:102E70000E94241713C0882349F0CB010E94E31657
:102E8000182F682FCE010E94861604C0CB010E9425
:102E9000B616182FBE01812F0E94CA09DF91CF916B
:102EA0001F9108958091BA0185958595859508951E
:102EB0008091BA01877008959091BA01977081E06E
:102EC00009F480E008958091C60108959091C601AB
:102ED000892B8093C601089580959091C60189231E
:102EE0008093C60108951092C60108959091C5017E
:102EF000892B8093C501089580959091C501892300
:102F00008093C50108951092C50108959091C40160
:102F1000892B8093C401089580959091C4018923E1
:102F20008093C40108951092C40108958091BB015B
:102F3000089508950C9499179091BB01981721F06A
:102F40008093BB010C949A1708958091BB0188234C
:102F500029F01092BB0180E00C949A170895E0913B
:102F60000201F09103018091C6018083E09102018A
:102F7000F091030190818091C501892B8083E091BC
:102F80000201F091030190818091C401892B80831B
:102F90008091BB01882381F0E0910201F09103014F
:102FA0009081892B808380910201909103010E947E
:102FB000941881110E94A51780910201909103013C
:102FC0000C94320C08950C94E21798E0899F9001BC
:102FD0001124262B2093BA010E94E8158091BA0192
:102FE0008595859585950C94E3171092BA0180E03C
:102FF0000C94E3172091BA01809582238093BA0143
:10300000982F977079F430E0482F082E000C550B5C
:103010002417350739F08595859585950E94091601
:103020000C94F517089580E090E00E94F62421E0CA
:103030008D3E9E4F09F020E0822F089582E090E0BF
:103040000C94EE2483E090E00C94EE24682F83E04F
:1030500090E00C94FC2484E090E00C94EE24682F23
:1030600084E090E00C94FC24AB01BC018FE090E084
:103070000C940E25AB01BC0183E190E00C940E256D
:1030800060E070E0CB010C943A1860E070E0CB0196
:103090000E9434180C9440186DEE7EEF80E090E0B2
:1030A0000E941A2560E082E090E00E94FC2460E02B
:1030B00083E090E00E94FC241092B6011092B701C8
:1030C0001092B8011092B90160E084E090E00E9493
:1030D000FC2460E085E090E00E94FC2460E086E053
:1030E00090E00E94FC246FEF87E090E00E94FC24B7
:1030F00040E050E0BA0188E090E00E940E2560E0D8
:103100008DE090E00E94FC2440E050E0BA0188E1AC
:1031100090E00E940E2560E087E190E00E94FC2490
:103120000C9445180C944C18FC01329697E080E002
:10313000915029F021912223D9F38F5FF9CF08957F
:103140009C01FC0132969FEF80E04191461789F087
:103150009F3F19F4411101C0982F8F5F8630A9F766
:103160009F3F39F0F901E90FF11D97FDFA95628350
:1031700008950895FC01329608962081261301C017
:1031800010823196E817F907C1F708950C94A0183A
:103190000C94BA18029626E0FC0111922A95E9F7E0
:1031A000089508950C94D1180E94D2188091EC01D2
:1031B000843049F11092C80120E488E190E00FB614
:1031C000F894A895809360000FBE2093600080E083
:1031D0000E9417080E94D21883B7817F846083BF42
:1031E00083B7816083BF7894889583B78E7F83BFD0
:1031F0000FB6F894A8958091600088618093600074
:10320000109260000FBE089508950895CF930E9414
:1032100004190E94BF050E940519C0E08C2F0E946E
:103220000006811104C0CF5FC830C1F701C081E042
:10323000CF91089508950C941A190E94AC110E9420
:10324000260C0E9417080C941B191F920F920FB6A0
:103250000F9211248F939F93AF93BF938091C801D6
:10326000811113C08091E2019091E301A091E401EA
:10327000B091E5014196A11DB11D8093E2019093AB
:10328000E301A093E401B093E501BF91AF919F9159
:103290008F910F900FBE0F901F90189582E084BD04
:1032A00093E095BD9AEF97BD80936E0008952FB778
:1032B000F8948091E2019091E301A091E401B09132
:1032C000E5012FBF0895CF92DF92EF92FF920F9307
:1032D0001F932FB7F8944091E2015091E301609160
:1032E000E4017091E5012FBF6A017B01EE24FF2408
:1032F0008C0120E030E0C016D106E206F30610F49F
:10330000415051099A01281B390BC9011F910F9196
:10331000FF90EF90DF90CF90089578941F920F92D6
:103320000FB60F9211248F939F93AF93BF93809109
:10333000E2019091E301A091E401B091E5010196D1
:10334000A11DB11D8093E2019093E301A093E401DC
:10335000B093E501BF91AF919F918F910F900FBEF8
:103360000F901F90189587E797E790930108809337
:1033700000089AE088E10FB6F894A8958093600061
:103380000FBE90936000FFCF0E941318811102C0FE
:103390000E9492180E941E188093C7010E942B1849
:1033A00090E09093E7018093E6010E942218682F35
:1033B00070E080E090E00C9487158091CB0180FF55
:1033C0000BC06091070185E0689FB00111247595DD
:1033D0006795759567952BC081FF09C060910701BE
:1033E00085E0689FB00111247595679520C082FF24
:1033F00007C06091070185E0689FB001112417C0E4
:103400009091CC019923D1F060910601961788F72D
:103410002091070185E0289F90011124929FA0012F
:10342000939F500D112470E0CA010E94C02460389F
:10343000710540F46115710539F002C065E070E076
:10344000862F08958FE7089581E008958091CB013C
:1034500080FF08C06091050170E0759567957595CE
:10346000679521C081FF06C06091050170E07595E8
:10347000679519C082FF04C06091050170E010C01B
:103480009091CC019923C1F0609104019617A0F7A7
:1034900080910501899FC001112470E00E94C02421
:1034A0006038710528F46115710521F0862F0895A3
:1034B0008FE7089581E0089561E070E0F4CF803FE8
:1034C00021F40E94DD19819504C0813F29F40E94F6
:1034D000DD198093D0010895823F21F40E94DD1907
:1034E000819504C0833F29F40E94DD198093CF01A8
:1034F0000895893F19F40E94261A05C08A3F31F4C5
:103500000E94261A81958093D10108958B3F21F462
:103510000E94261A819504C08C3F29F40E94261A25
:103520008093D2010895843F21F48091CE0181607F
:1035300017C0853F21F48091CE01826011C0863F83
:1035400021F48091CE0184600BC0873F21F48091EB
:10355000CE01886005C0883F31F48091CE01806142
:103560008093CE0108958D3F21F48091CB0181603D
:103570000BC08E3F21F48091CB01826005C08F3F4C
:1035800029F48091CB0184608093CB010895803F22
:1035900039F48091D00187FF6CC01092D00169C0CE
:1035A000813F29F48091D0011816BCF362C090913C
:1035B000CF01823F29F497FF5CC01092CF0159C020
:1035C000833F19F41916CCF354C0893F41F480911C
:1035D000D10118160CF04DC01092D1014AC08A3F9B
:1035E00029F48091D10187FF44C0F6CF8B3F39F495
:1035F0008091D20187FF3DC01092D2013AC08C3F2A
:1036000029F48091D2011816BCF333C0843F21F411
:103610008091CE018E7F17C0853F21F48091CE012D
:103620008D7F11C0863F21F48091CE018B7F0BC02E
:10363000873F21F48091CE01877F05C0883F31F418
:103640008091CE018F7E8093CE0113C08D3F21F4F7
:103650008091CB018E7F0BC08E3F21F48091CB01F6
:103660008D7F05C08F3F29F48091CB018B7F8093A4
:10367000CB018091CF0181110EC08091D0018111C9
:103680000AC08091D101811106C08091D2018111BF
:1036900002C01092CC0108958DEC91E00E943D0C87
:1036A0000E9457199093CA018093C90108951F93EE
:1036B000CF93DF938091C9019091CA010E94631951
:1036C000AC019091CC01992321F02091080130E0C8
:1036D00006C0209109018AE0289F90011124421719
:1036E000530708F47BC08091CF01C091D001D091E5
:1036F000D1011091D201811107C0C1116BC0D1114C
:1037000069C0111167C06AC09F3F19F09F5F909315
:10371000CC01181624F40E94DD198093CF0180910A
:10372000CF0187FF05C00E94DD1981958093CF01ED
:103730001C1624F40E94DD198093D0018091D001E1
:1037400087FF05C00E94DD1981958093D0013091DB
:10375000CF013323E1F02091D0012223C1F045EBCA
:103760003403C0011124892F990F990B009709F494
:1037700081E08093CF0135EB2303C0011124892F11
:10378000990F990B009709F481E08093D0011D16E1
:1037900024F40E94261A8093D1018091D10187FFE1
:1037A00005C00E94261A81958093D101111624F438
:1037B0000E94261A8093D2018091D20187FF05C012
:1037C0000E94261A81958093D201DF91CF911F919B
:1037D0000C944C1B9F3F09F099CFA1CFDF91CF9163
:1037E0001F910895EDECF1E086E0DF011D928A95CE
:1037F000E9F71092CC011092CB010895833081F14A
:1038000028F4813059F08230D1F00895853009F4E0
:1038100049C0B8F1863009F456C008958091090175
:10382000262F30E0280F311D2F3F310524F4680F7B
:103830006093090108958FEF8093090108958091A5
:103840000801262F30E0280F311D2F3F310524F4C9
:10385000680F6093080108958FEF80930801089521
:1038600080910701262F30E0280F311D2F3F3105B1
:1038700024F4680F6093070108958FEF8093070188
:10388000089580910601262F30E0280F311D2F3F2B
:10389000310524F4680F6093060108958FEF80933B
:1038A0000601089580910501262F30E0280F311D73
:1038B0002F3F310524F4680F6093050108958FEFC1
:1038C00080930501089580910401262F30E0280F90
:1038D000311D2F3F310524F4680F609304010895D2
:1038E0008FEF809304010895833011F128F4813023
:1038F00049F0823091F00895853081F120F18630D1
:10390000C1F1089580910901681720F4861B809306
:10391000090108951092090108958091080168171E
:1039200020F4861B809308010895109208010895E1
:1039300080910701681720F4861B80930701089582
:1039400010920701089580910601681720F4861BE4
:103950008093060108951092060108958091050153
:10396000681720F4861B80930501089510920501C5
:10397000089580910401681720F4861B8093040148
:1039800008951092040108950F931F938B3109F449
:1039900074C058F58B3009F4A1C078F4863009F46E
:1039A00046C020F4853009F44CC09FC0873009F42C
:1039B00056C0883009F492C098C0803109F470C0B4
:1039C00068F48E3009F091C08091C70182FB2227F4
:1039D00020F991E0922790FB82F958C0863109F4D2
:1039E0007DC0893109F47AC080C08A32E9F060F480
:1039F000873209F475C028F48E3108F476C08D51F1
:103A00005AC08932F1F071C0833450F48A3308F01F
:103A100051C0853309F464C0883309F45FC065C0C0
:103A2000833409F45DC061C00E94921857C0809130
:103A3000C701817F8E7F8093C70181E08093D4018D
:103A400055C00E94AC110FEF13ED20E30150104060
:103A50002040E1F700C000000E94B3193FC08091F0
:103A6000C701982F9095917090FB80F98093C701C2
:103A7000911134C0897F877F10C08091C70181FB7D
:103A8000222720F991E0922790FB81F98093C701CA
:103A9000992321F18091C70181608093C7011EC0E5
:103AA0008091C70183FB222720F991E0922790FBA8
:103AB00083F9ECCF895341E050E060E070E08A0187
:103AC0009B0104C0000F111F221F331F8A95D2F7DC
:103AD000C901B8010E9487150E94AC1181E006C09F
:103AE00061E070E080E090E0F5CF80E01F910F9101
:103AF000089580E0089580E008958E518A3030F472
:103B0000E82FF0E0ED5DFE4F8081089580E008959C
:103B1000CF93C82F8091D401813051F018F08230BA
:103B200099F17DC00E946317823209F07AC004C007
:103B30000E946317823261F48C2F0E94791D8111DB
:103B400004C08C2F0E94C41C1DC081E090E01AC0EC
:103B50008C2F0E947B1D811114C0C43179F048F470
:103B6000CB3079F0C03109F060C082E08093D4019D
:103B700008C0C93219F0C83321F057C01092D401DF
:103B800054C081E0817053C0C93289F118F5C43145
:103B900071F1B0F4C73009F046C08EE1809309019D
:103BA00082E3809308018AE08093070184E1809397
:103BB000060188E08093050188E28093040133C008
:103BC00082EE8C0F863078F58C2F0E947D1D8093BD
:103BD000D30129C0CE34E9F020F4CB3421F56AE0DA
:103BE00013C0C13579F0C235F1F461E00DC08091A8
:103BF000D301882319F01092D30115C081E080937E
:103C0000D40115C061E006C08091D3010E94FE1B63
:103C10000AC06AE08091D3010E94741C04C0109213
:103C2000D40180E004C081E002C080E0ABCFCF913E
:103C300008958091DD01089508950895CF93DF934D
:103C4000EC010E940720823011F08430F9F482E008
:103C50008093E9009FEF8091E800915085FD06C0B8
:103C600085ED8A95F1F700009111F5CF8091E8007C
:103C700085FF0CC040E050E066E070E0CE010E949D
:103C800024208091E8008E778093E800DF91CF9127
:103C90000895CF93DF93EC010E940720823011F04A
:103CA000843039F581E08093E9008FEF9091E8004E
:103CB000815095FD06C095ED9A95F1F700008111B0
:103CC000F5CF8091E80085FF14C040E050E068E047
:103CD00070E0CE010E9424208091E8008E778093CE
:103CE000E80088E0FE01A5EDB1E001900D928A9513
:103CF000E1F7DF91CF9108958091EB01811109C027
:103D00000E94B9210E9416228091E2008460809373
:103D1000E20008951092EB010895089508950C941F
:103D20001D1942E061EC81E00E94332142E261EC26
:103D300082E00C9433218091EE01833009F460C05D
:103D400030F4813071F0823009F499C008958A30DE
:103D500009F485C08B3009F46BC0893009F0A7C025
:103D600020C08091ED01813A09F0A1C08091E80066
:103D7000877F8093E8008091F1019091F201892B77
:103D800021F468E085ED91E003C060E080E090E020
:103D900070E00E946F208091E8008B778093E800AC
:103DA00008958091ED01813209F081C08091F10187
:103DB0009091F201029708F07AC08091E800877F25
:103DC0008093E8008091E80082FD05C08091EC01BD
:103DD0008111F8CF6CC02091F3008091F20090E047
:103DE000922B029729F48091F1008B7F813021F48E
:103DF0008091F1008093DD018091E8008B7753C0C2
:103E00008091ED01813A09F052C08091F1019091C9
:103E1000F201892B09F04BC08091E800877F8093E5
:103E2000E8008091E80080FFFCCF8091140136C04B
:103E30008091ED018132D9F58091F1019091F201EB
:103E4000892BA9F58091E800877F8093E8000E9484
:103E500068218091EF01809314010C94AC11809142
:103E6000ED01813221F58091E800877F8093E800A1
:103E70000E9468218091F0018093DE010895809175
:103E8000ED01813AA1F48091E800877F8093E800FA
:103E90008091E80080FFFCCF8091DE018093F100EB
:103EA0008091E8008E778093E8000C946821089553
:103EB00084B7877F84BF0FB6F894A895809160007F
:103EC000886180936000109260000FBE80E880934C
:103ED0006100109261000E94840C0E94B9210E942E
:103EE00016228091E20084608093E20078940E9420
:103EF000A5240E948C0C8AE091E00E94210C809104
:103F0000EC01853069F40E94D4188091EA0188237D
:103F1000B1F30E940619882391F30E940E20EFCF7F
:103F20000E94940CECCF0C94951F292F332723303B
:103F30003105C9F064F42130310581F022303105BA
:103F400009F04CC08BE390E022EE37E04BC0213209
:103F5000310521F12232310589F140C082E190E042
:103F60002DE138E03FC099278130910571F02CF4A4
:103F7000892BA1F5EEEDF7E00DC08230910541F0FF
:103F8000039761F5EAEAF7E005C0E0EDF7E002C06B
:103F9000E0EBF7E0849190E09F0124C0611571058A
:103FA00041F061307105D1F489E090E02DE038E016
:103FB00019C089E090E024EF37E014C06115710565
:103FC00041F06130710551F48FE490E02FE238E068
:103FD00009C080E490E02EE738E004C080E090E083
:103FE00020E030E0FA013183208308950895CF93D3
:103FF000C82F0E94F61FC093DF01CF9108958091D2
:10400000EC01843011F081E0089582E00895809100
:10401000DF01811102C00C94FF1F089580E189BD6A
:1040200082E189BD09B400FEFDCF8091D8008F7D6B
:104030008093D8008091E00082608093E0008091BE
:10404000E00081FDFCCF0895CF92DF92EF92FF92C6
:104050000F931F93CF93DF93EC018B016A010E94B2
:104060008721811133C0C114D10439F0F601808158
:104070009181081B190BC80FD91FE12CF12C0115D8
:10408000110519F18091E80085FD16C08091E800C6
:104090008E778093E800C114D10449F0F601808145
:1040A0009181E80EF91EF182E08285E00FC00E9446
:1040B0008721882321F30AC089918093F100015060
:1040C0001109FFEFEF1AFF0ADACF80E0DF91CF91FD
:1040D0001F910F91FF90EF90DF90CF900895209166
:1040E000F3013091F4012617370748F06115710587
:1040F00039F42091E8002E772093E80001C0B9013F
:1041000040E061157105A9F12091EC01222309F429
:1041100043C0253009F442C02091E80023FD40C08F
:104120002091E80022FD32C02091E80020FFE9CF75
:104130004091F3002091F20030E0342BFC01CF01DC
:104140006115710559F02830310540F48191809353
:10415000F100615071092F5F3F4FF1CF41E02830EE
:10416000310509F040E02091E8002E772093E80027
:10417000C8CF4111C9CF0AC08091EC01882361F0FA
:10418000853061F08091E80083FD0AC08091E800ED
:1041900082FFF2CF80E0089582E0089583E00895E1
:1041A00081E008952091F3013091F401261737073B
:1041B00048F06115710539F42091E8002E772093BD
:1041C000E80001C0B901FC0120E06115710591F121
:1041D0008091EC01882309F440C0853009F43FC088
:1041E0008091E80083FD3DC08091E80082FD2FC0F2
:1041F0008091E80080FFE9CF2091F3008091F200E8
:1042000090E0922B6115710559F08830910540F4CA
:1042100024912093F1003196615071090196F2CFFB
:1042200021E0089709F020E08091E8008E778093E4
:10423000E800CBCF2111CCCF0AC08091EC018823BC
:1042400061F0853061F08091E80083FD0AC08091C3
:10425000E80082FFF2CF80E0089582E0089583E0D5
:10426000089581E00895982F973058F59093E900CC
:10427000981739F07091EC002091ED005091F0000A
:1042800003C0242F762F50E021FF19C03091EB009E
:104290003E7F3093EB003091ED003D7F3093ED0099
:1042A0003091EB0031603093EB007093EC00209381
:1042B000ED005093F0002091EE0027FF07C09F5FB4
:1042C000D3CF8F708093E90081E0089580E0089556
:1042D0008091ED0187FF11C08091E80082FD05C04B
:1042E0008091EC018111F8CF11C08091E8008B77AB
:1042F0000BC08091EC01882349F08091E80080FF99
:10430000F8CF8091E8008E778093E800089520919F
:10431000E4003091E50095E64091EC00842F817037
:1043200040FF22C08091E80080FD1CC08091EC011C
:10433000882391F0853091F08091EB0085FD10C0CD
:104340004091E4005091E5004217530729F39A0188
:10435000915011F784E0089582E0089583E0089574
:1043600081E0089580E008954091E80042FFDECFAB
:1043700008950E9427220E942F22E0EEF0E0808123
:1043800081608083E8EDF0E080818F77808319BCC5
:10439000A7EDB0E08C918E7F8C9380818F7E80839F
:1043A0001092EB0108950F931F93CF93DF930E9418
:1043B00027220E942F22C8EDD0E088818F77888342
:1043C00088818068888388818F7D888319BC10925A
:1043D000EC011092E8011092EA011092E90100EE5E
:1043E00010E0F80180818B7F8083888181608883E1
:1043F00042E060E080E00E943321E1EEF0E0808165
:104400008E7F8083E2EEF0E0808181608083808116
:1044100088608083F80180818E7F808388818061BD
:104420008883DF91CF911F910F910895E8EDF0E01F
:1044300080818F7E8083E7EDF0E0808181608083E2
:1044400084E082BF81E08093EB010C94D321E8EDFE
:10445000F0E080818E7F80831092E20008951092B8
:10446000DA001092E10008951F920F920FB60F929A
:1044700011242F933F934F935F936F937F938F9369
:104480009F93AF93BF93EF93FF938091E10082FFDF
:104490000BC08091E20082FF07C08091E1008B7F1A
:1044A0008093E1000E94A4248091DA0080FF1FC065
:1044B0008091D80080FF1BC08091DA008E7F8093AE
:1044C000DA008091D90080FF0DC080E189BD82E1D2
:1044D00089BD09B400FEFDCF81E08093EC010E940C
:1044E0007C1E05C019BC1092EC010E948A1E8091AE
:1044F000E10080FF19C08091E20080FF15C080912B
:10450000E2008E7F8093E2008091E20080618093E0
:10451000E2008091D80080628093D80019BC85E0C9
:104520008093EC010E948E1E8091E10084FF30C0D8
:104530008091E20084FF2CC080E189BD82E189BDC9
:1045400009B400FEFDCF8091D8008F7D8093D80004
:104550008091E1008F7E8093E1008091E2008F7E68
:104560008093E2008091E20081608093E20080917C
:10457000E801882311F084E007C08091E30087FD03
:1045800002C081E001C083E08093EC010E948F1E95
:104590008091E10083FF29C08091E20083FF25C064
:1045A0008091E100877F8093E10082E08093EC01BD
:1045B0001092E8018091E1008E7F8093E10080916C
:1045C000E2008E7F8093E2008091E2008061809320
:1045D000E20042E060E080E00E9433218091F00040
:1045E00088608093F0000E948D1EFF91EF91BF9133
:1045F000AF919F918F917F916F915F914F913F917B
:104600002F910F900FBE0F901F9018951F920F9231
:104610000FB60F9211242F933F934F935F936F9395
:104620007F938F939F93AF93BF93CF93DF93EF933A
:10463000FF93C091E900CF708091EC00D82FD1702A
:1046400080FDD0E81092E9008091F000877F809390
:10465000F00078940E944A231092E9008091F000C3
:1046600088608093F000CD2BCF70C093E900FF915C
:10467000EF91DF91CF91BF91AF919F918F917F91FA
:104680006F915F914F913F912F910F900FBE0F90BF
:104690001F9018951F93CF93DF93CDB7DEB7AA97DE
:1046A0000FB6F894DEBF0FBECDBFEDEEF1E088E0AF
:1046B0008E0F9091F10091938E13FBCF0E949B1E61
:1046C0008091E80083FF28C18091ED019091EE0177
:1046D000492F50E04A30510508F01EC1FA01E55655
:1046E000FF4F0C94D424803821F0823809F014C193
:1046F00008C08091E9019091EA01992389F08260D4
:104700000FC08091F1018F70873008F005C1809350
:10471000E9008091EB0085FB882780F91092E90081
:104720009091E800977F9093E8008093F1001092B9
:10473000F100D0C0282F2D7F09F0EEC0882319F09A
:10474000823061F0E9C08091EF01813009F0E4C06E
:10475000933009F080E08093EA012EC08091EF0150
:1047600081112AC08091F1018F702FEF280F263020
:1047700008F0D2C08093E9002091EB0020FF1CC01C
:10478000933021F48091EB00806214C09091EB0093
:1047900090619093EB0021E030E0A90102C0440F4A
:1047A000551F8A95E2F74093EA001092EA00809143
:1047B000EB0088608093EB001092E9008091E800A4
:1047C000877F8093E8000E946821A6C08111A4C061
:1047D0001091EF011F778091E3008078812B809307
:1047E000E3008091E800877F8093E8000E946821C1
:1047F0008091E80080FFFCCF8091E3008068809387
:10480000E300111102C082E001C083E08093EC015B
:1048100083C08058823008F07FC08091EF01909172
:10482000F0018C3D53E0950779F583E08A838AE2B5
:1048300089834FB7F894DE01139620E03EE051E201
:10484000E32FF0E050935700E49120FF03C0E2957E
:10485000EF703F5FEF708E2F90E0EA3010F0C79658
:1048600001C0C0968D939D932F5F243149F74FBFB0
:104870008091E800877F8093E8006AE270E0CE01D3
:1048800001960E946F2015C06091F1017091F201B4
:10489000AE014F5F5F4F0E94931FBC01892BE1F176
:1048A0009091E800977F9093E80089819A810E9417
:1048B000D2208091E8008B778093E8002DC080386B
:1048C00059F58091E800877F8093E8008091E801A6
:1048D0008093F1008091E8008E7773CF81111CC026
:1048E0009091EF019230C0F48091E800877F80932F
:1048F000E8009093E8010E9468218091E80181110D
:1049000006C08091E30087FD02C081E001C084E021
:104910008093EC010E94911E8091E80083FF0AC001
:104920008091E800877F8093E8008091EB008062AF
:104930008093EB00AA960FB6F894DEBF0FBECDBFF2
:10494000DF91CF911F9108950895CF938091EC014D
:104950008823A1F0C091E900CF709091EC00892FDD
:10496000817090FD80E8C82B1092E9008091E800EA
:1049700083FD0E944A23CF70C093E900CF91089530
:1049800097FB072E16F4009407D077FD09D00E94FC
:10499000DA2407FC05D03EF4909581959F4F089549
:1049A000709561957F4F0895EE0FFF1F0590F4916C
:1049B000E02D0994AA1BBB1B51E107C0AA1FBB1F16
:1049C000A617B70710F0A61BB70B881F991F5A959B
:1049D000A9F780959095BC01CD010895F999FECF76
:1049E00092BD81BDF89A992780B50895A8E1B0E0FD
:1049F00042E050E00C942225262FF999FECF92BD7B
:104A000081BDF89A019700B4021639F01FBA20BD93
:104A10000FB6F894FA9AF99A0FBE08950396272FC5
:104A20000E94FD240E94FC24252F0E94FD24242F97
:104A30000C94FD240196272F0E94FD240C94FC2445
:104A4000DC01CB01FC01F999FECF06C0F2BDE1BD4E
:104A5000F89A319600B40D9241505040B8F708953D
:044A6000F894FFCFF8
:104A64000501BC012808140A321E191E491E1E1E07
:104A74001C1E1D1E0136323331F79497C63435009F
:0E4A84000000000102030405060708090000F7
:00000001FF
