:100000000C9452020C9431090C9499020C949902AC
:100010000C9499020C9499020C9499020C949902F4
:100020000C9499020C9499020C9452200C94242163
:100030000C94DE160C9499020C9499020C9499027B
:100040000C9499020C9499020C9499020C949902C4
:100050000C9499020C9446170C9499020C949902F2
:100060000C9499020C9499020C9499020C949902A4
:100070000C9499020C9499020C9499020C94990294
:100080000C9499020C9499020C9499020C94990284
:100090000C9499020C9499020C9499020C94990274
:1000A0000C9499020C9499020C94990275037703AD
:1000B000820379037B037D037F038103840386032B
:1000C000880393038A038C038E03900392039503A2
:1000D000F70CF70C290D290D670D870DF70EF70E9C
:1000E000C90DF70E760E760EE70EF70EF70EF00E30
:1000F000830E830E830E830E830E830E830E830E78
:10010000830E830E830E830E830E830E830E830E67
:10011000940EA20EA90EB00EBA0E880F880F9A0F79
:100120009A0F910F9A0F9A0F9A0F880F880F960FB8
:100130009A0F9A0F960F9121B821AA22B821AA22CC
:1001400004222722AA227D228C2229001E001F00C1
:1001500020002100220023002B0014001A000800B8
:10016000150017002F00E00004001600070009002A
:100170000A00170302551D001B00060019000500A8
:1001800000003900E3002B032B0101582C00000074
:1001900000000000460029034D004A000000240032
:1001A0002500260027002D002E00350030001C0001
:1001B00018000C0012001300310002530B000D0058
:1001C0000E000F0033003400000011001000360054
:1001D00037003800125500002A0028005000520055
:1001E00051004F0000004B004E00E000E200000014
:1001F000000001003A003B003C003D003E003F0093
:100200000100010001005200010001000100010095
:100210000100500051004F000100005C010001008E
:1002200001000100010001000000AD00AE00AC00C3
:10023000AB0001000100000000000000010001000F
:100240000100010000004000410042004300440062
:100250004500010001000100010001000100010052
:100260000100010001000100010001000100010086
:100270000000010001000100010001000100000078
:100280004C0001000100010001000100000001001C
:100290000100010001000000000001000100010058
:1002A0000100010001000100010001000100010046
:1002B0000100010001000100010001000100010036
:1002C0000100010001000100010001000100010026
:1002D0000000010001000100010001000100000018
:1002E0000000000001000100010001000000010009
:1002F00001005300010056005700010001000100F9
:100300005F006000610001000100010001005C006D
:100310005D005E00550001000000010059005A0018
:100320005B005400010000000100580062006300FF
:1003300001000100000001000100010001000000B7
:100340000000040330000000340344006100630037
:10035000740079006C002D004D0061006E00750086
:1003600066006F0072006D002000280045007200DA
:1003700067006F0064006F007800290000000E0322
:100380007400730068006F007200740000000403C2
:10039000090409023B00020100A0FA09040000015F
:1003A000030101000921110100012240000705811C
:1003B0000308000A090401000103000000092111DB
:1003C0000100012285000705820320000A120110A6
:1003D0000100000008EDFE6030010001020301058C
:1003E000010902A10185020901A1000509190129DC
:1003F000051500250195057501810295017503819B
:10040000010501093009311581257F9502750881A3
:100410000609381581257F950175088106050C0AA6
:1004200038021581257F950175088106C0C0050138
:100430000980A10185031601002603001A81002A04
:100440008300751095018100C0050C0901A101858B
:1004500004160100269C021A01002A9C02751095C0
:10046000018100C005010906A101050719E029E77E
:100470001500250195087501810295017508810116
:100480000508190129059505750191029501750366
:1004900091010507190029FF150026FF0095067533
:1004A000088100C011241FBECFEFDAE0DEBFCDBF50
:1004B00004B603FE27C080912A0290912B02A091DE
:1004C0002C02B0912D028730904BA740B04BD1F455
:1004D00010922A0210922B0210922C0210922D02DE
:1004E00014BE84B7877F84BF0FB6F894A895809117
:1004F0006000886180936000109260000FBEE0E0B1
:10050000F8E3099511E0A0E0B1E0E0EAF6E402C00A
:1005100005900D92A833B107D9F722E0A8E3B1E026
:1005200001C01D92AA32B207E1F70E94761D0C9419
:100530004E230C9400000C94B40681E0089581E0F1
:1005400008950C949F020E94DD15811102C00E9443
:100550004B160C949B020C94B60608950C94AD02B5
:100560000C94AE0208950E94760F0E94B2022FEF03
:1005700084E39CE0215080409040E1F700C00000FF
:1005800087E797E790930108809300080C946C1715
:10059000FF920F931F93CF93DF938C01FC01C081D7
:1005A000D18180917401811113C08281882349F027
:1005B000CE010E94D014F82E682FCE010E9475142F
:1005C00004C0CE010E94A414F82EBE018F2D04C0D9
:1005D000CE010E94D014BE010E944904EC01B80172
:1005E0000E94A102882309F449C1C63DFCE5DF074A
:1005F00009F4ABC0B0F4C531ECE5DE0768F4C230F5
:10060000FCE5DF0708F04FC0C1158CE5D80701F104
:10061000C130DC4529F125C1C631DC4509F4FAC0F9
:1006200020C1CB3D8CE5D80771F150F4C73DFCE506
:10063000DF0709F4ADC0C83DDC4509F4D0C011C1E5
:10064000CC3DECE5DE0731F1CD3DDC45A1F009C143
:10065000F8018281882309F411C10E94B3020EC1FE
:10066000F8018281882309F409C18091F901816030
:100670008093F90103C1F8018281882309F4FEC047
:100680000E944B16FBC0F8018281882309F4F6C052
:1006900080E006C0F8018281882309F4EFC082E07F
:1006A0000E94151EEBC0F8018281882309F4DEC088
:1006B0000E94DD15811102C00E944B160E94F015A8
:1006C00090E090931C0280931B02FE01E350FC45D6
:1006D000E231F10530F4EA5AFF4F80911B020C948D
:1006E000F22280911B02816027C0826025C0846055
:1006F00023C0806121C080621FC080641DC08068EB
:100700001BC08460886018C08E7F16C08D7F14C0A7
:100710008B7F12C08F7E10C08F7D0EC08F7B0CC070
:100720008F770AC08B7F877F07C087FB222720F93E
:1007300091E0922790FB87F980931B0280911B0226
:100740000E94F4150E94760F99C0F80182818823D7
:1007500051F010923D010E94101790933A0180933E
:10076000390182E022C080913D0181110FC080914A
:10077000390190913A010E941C17883C910530F490
:1007800086E20E94120B86E20E944B0C82E024C09B
:10079000F8018281882361F010923E010E941017B7
:1007A00090933C0180933B0180E20E94B30C66C0B1
:1007B00080913E0181110FC080913B0190913C01DD
:1007C0000E941C17883C910530F487E20E94120BAE
:1007D00087E20E944B0C80E20E94BA0C4FC0F801E5
:1007E00082818111D9CF80913E018111F4CF809116
:1007F0003B0190913C010E941C17883C910558F7E1
:1008000080E20E94BA0C88E20E94120B88E20E94E9
:100810004B0C34C00E94A115282FF8018281409111
:10082000090150910A01882379F02A7A91E009F4AC
:1008300090E090933801911102C069E201C065E334
:10084000CA010E947F160AC080913801811102C03E
:1008500069E201C065E3CA010E9481160E946E151B
:100860000DC081E080933D0180933E01C801DF917E
:10087000CF911F910F91FF900C949D0280E0DF912A
:10088000CF911F910F91FF90089580E090E008951F
:10089000089597E0799FF001112494E5899FE00D78
:1008A000F11D1124E60FF11DEE0FFF1FE65BFE4F59
:1008B000859194910895880F991FFC01EE5BFC4F80
:1008C000859194910895CF93DF930E9449040E94EB
:1008D0001406EC01811520E59207F0F5811530E44E
:1008E000930708F020C1883E910500F5803E9105F0
:1008F00008F096C1883A910570F4853A910508F0A0
:100900009AC08130910509F48BC108F43CC1049769
:1009100008F086C138C18F3B910508F497C0803C30
:10092000910508F430C1805C9109EFC081159042B7
:1009300058F4C11581E0D80708F072C1C03FD10555
:1009400008F421C1D0656CC1C11590E3D90708F046
:10095000E0C0CE019F70D9C0811525E5920708F04F
:1009600043C0811534E5930708F0F4C0811542E5D2
:10097000940708F5C11581E5D80708F0D7C02C2FDA
:10098000237081E090E002C0880F991F2A95E2F75A
:100990009C689E0174E0369527957A95E1F723705F
:1009A000922BCF70C695C69530E2C39FE00111240B
:1009B000C82BD92B35C1869586959E012370332788
:1009C000C115D34508F0B7C040E2849FC00111248F
:1009D000C1E0D0E002C0CC0FDD1F2A95E2F78C2BDE
:1009E0009D2BEC01DC681CC1811529E5920778F488
:1009F000811538E5930708F0B2C08115964508F0D7
:100A0000C2C0CF71DD27DC2FCC27D06209C1C11550
:100A10008AE5D80708F4A8C0CE0190568115904207
:100A200008F0B1C08D2F8F710E949106DD27D06232
:100A30008F71D82BF5C0853A910509F4A7C0863A85
:100A4000910509F0A6C0C2E8D0E4EAC0883A910551
:100A500009F4A2C0893A910509F4A1C08A3A910526
:100A600009F4A0C08B3A910509F49FC08C3A910516
:100A700009F49EC08B3B910509F49DC08C3B910508
:100A800009F49CC08D3A910509F49BC0803B910507
:100A900009F49AC08E3A910509F499C08F3A9105EC
:100AA00009F498C0813B910509F497C0823B9105F8
:100AB00009F496C0833B910509F495C0843B9105E8
:100AC00009F494C0853B910509F493C0863B9105D8
:100AD00009F492C0873B910509F491C0883B9105C8
:100AE00009F490C0893B910509F48FC08D3B9105B5
:100AF00009F48EC08E3B910509F48DC08A3B9105A7
:100B000009F48CC0C0E0D4E48BC00E945B04EC010B
:100B100087C0CE019927D3FF03C0EC01D86C80C0F9
:100B2000EC01D06C7DC0DF70D06A7AC0DC2FCC279E
:100B3000C16FD06A75C040E2849FC0011124C1E03A
:100B4000D0E002C0CC0FDD1F2A95E2F7C82BD92BCD
:100B5000DA6866C0D82FCC27C46FD06A61C0D82F9E
:100B6000CC27C06FD06A5CC08C2F8F70806E90E0F5
:100B7000906A24E0D695C7952A95E1F7CF709C013D
:100B80003C2BE9014DC0C0E0D0E04AC0C1E8D0E450
:100B900047C0C3E8D0E444C0C2EED4E441C0C9EECB
:100BA000D4E43EC0CAEED4E43BC0C5EBD4E438C0C4
:100BB000C6EBD4E435C0C3EBD4E432C0C4EBD4E418
:100BC0002FC0C7EBD4E42CC0CCECD4E429C0CDECCE
:100BD000D4E426C0C3E8D5E423C0CAE8D5E420C0E5
:100BE000C2E9D5E41DC0C4E9D5E41AC0C1E2D6E427
:100BF00017C0C3E2D6E414C0C4E2D6E411C0C5E213
:100C0000D6E40EC0C6E2D6E40BC0C7E2D6E408C004
:100C1000CFE6D4E405C0C0E7D4E402C0CAE2D6E41B
:100C2000CE01DF91CF9108958238910549F1B0F45A
:100C30008133910509F458C048F48932910509F4CB
:100C40004EC08A32910509F454C008958533910548
:100C500009F440C08933910599F00895833E9105C8
:100C600029F138F4803E910591F0823E9105A1F082
:100C70000895863E9105F9F0873E910531F108957A
:100C800020911B0220FD3AC021FD38C008958091BB
:100C90001B0280FD35C032C080911B0282FF32C032
:100CA00080911B0284FD30C083EE39C080911B020D
:100CB00082FD28C0F5CF80911B0283FF27C0809161
:100CC0001B0284FD21C087EE2AC080911B0283FD98
:100CD0001DC0F5CF80911B0285FD1AC01BC08091FD
:100CE0001B0285FD17C014C080911B0286FD14C035
:100CF00015C080911B0286FD11C00EC080EE0FC092
:100D000089E30DC082EE0BC080E009C086EE07C00B
:100D100089E205C085E303C08AE201C081E390E077
:100D2000089590911B0292FF0DC0282F2871283042
:100D300019F4877F846006C0282F2471243011F4B1
:100D40008B7F886093FF0DC0282F2871283119F4FC
:100D5000877E846106C0282F2471243111F48B7E94
:100D6000886194FD877E0895089508950C94B506D2
:100D70000895E82FF0E0EA5BFE4F80810895089522
:100D80008091F901836088608093F901809100016E
:100D900080910001811102C096E001C090E0909323
:100DA000140286E0891B80931302A2E2B1E041E0C5
:100DB00050E026E02A0F8D91E82FE295EF70F0E0E9
:100DC00031A18F70BA0102C0660F771F8A95E2F7D2
:100DD000CB01962F9095932391A392A1892B82A367
:100DE0002A13E9CFABE1B1E041E050E027E02A0F60
:100DF0008D91E82FE295EF70F0E031A18F70BA018C
:100E000002C0660F771F8A95E2F7CB01962F909567
:100E1000932391A392A1892B82A32A13E9CFE6E41D
:100E2000F1E08CE08E0F11928E13FDCF86E00E94D0
:100E3000E0070C94A3026F927F929F92AF92BF92B1
:100E4000CF92DF92EF92FF920F931F93CF93DF9396
:100E500022E2622E21E0722EA0E4B1E020E001E067
:100E600010E036E0B32EBA0E7D01AC901C92E30187
:100E700089913E01E82FE295EF70F0E042A18F707A
:100E8000B80102C0660F771F8A95E2F7CB01362FB3
:100E90003095432342A341A1462B41A370EA7A95A2
:100EA000F1F79BE1C92E91E0D92E40E050E0E60138
:100EB00099906E01692D62956F7070E0EB0168A1E9
:100EC00070E0D92DDF7002C075956795DA95E2F76D
:100ED00060FD07C0B801042E01C0660F0A94EAF74E
:100EE00002C060E070E07C91672B6C934F5F5F4FB6
:100EF00047305105E1F691A1392331A392A1892B05
:100F000082A3119681E0F7019081A91201C080E0CF
:100F1000282BBA12A9CF6091140270E06A5B7E4F51
:100F200046E080E491E00E94E10781E0DF91CF910B
:100F30001F910F91FF90EF90DF90CF90BF90AF90F7
:100F40009F907F906F900895CF930E941B07C82FAA
:100F50000E941608882339F120911302822F90E015
:100F60008A5B9E4F0E945108811118C090913F01E9
:100F70009F5F90933F01963098F04091130220E0DC
:100F800030E050E0F901E40FF51FEA5BFE4F1082FC
:100F90002F5F3F4F26303105A9F702C010923F0165
:100FA0000E94AB020AC020911402822F90E08A5B5B
:100FB0009E4F0E946C080E94B8068C2FCF91089516
:100FC0000895FF920F931F93CF93DF93C82F192F8C
:100FD000F62E072FD42F222349F081E0809354016D
:100FE0000E941017909353018093520180915401F5
:100FF0008823B1F080915201909153010E941C17F7
:10100000069770F02C2FAF2DB02FEC2FF12F8E2FD5
:10101000821B8D1718F481918D93F9CF1092540192
:10102000DF91CF911F910F91FF900895809156010C
:10103000811112C08091D80080618093D8008AE12C
:101040008A95F1F700C08091D90080FD02C082E04E
:1010500001C081E08093560181E09091560191306A
:1010600009F080E008950C9416080E9433088093DC
:1010700000010E941608882331F00E94450881E093
:101080008093550108950C944B0861E070E081E075
:1010900091E00C94D60861E070E081E091E00C945E
:1010A000DF08CF93DF93D82FC92F0E948209892BA5
:1010B00079F4ED2FFC2F80E090E0DC01A85ABE4FC0
:1010C0002C912193019686309105B9F781E001C0FA
:1010D00080E0DF91CF91089520E030E0FC01419164
:1010E000CF01F901E85AFE4F40832F5F3F4F263072
:1010F0003105A1F708958EE1489B02C08150E1F7C8
:10110000489BFECF0895589880E28A95F1F7589A47
:101110000895FC013AE03A95F1F798E020E080E08C
:1011200031E040E14A95F1F7880F489B02C08160A9
:10113000232700C0000040E14A95F1F7915089F75C
:1011400090E19A95F1F799B100C0000030E13A952D
:10115000F1F7917092272081920F90830895FF926A
:101160000F931F93CF93DF9300D0CDB7DEB71982D3
:10117000F82E8C01802F8F19861760F46A830E94E5
:101180007B08CE0101960E948908F80181938F01A6
:101190006A81F0CF81E09981911180E00F900F90EA
:1011A000DF91CF911F910F91FF900895909360016F
:1011B00080935F0160935E01509A589A08959093CE
:1011C000600180935F0160935E015098589AE89A9D
:1011D000E9E6F0E080818C7F80830895615091E0A2
:1011E00001C0990F6A95EAF720E031E0992361F098
:1011F000492F482319F0589A232701C0589840E2F4
:101200004A95F1F79695F2CF222311F0589A01C032
:10121000589880E28A95F1F758980895EF92FF92D6
:101220000F931F93CF93DF931F92CDB7DEB7162F87
:10123000082F7C018E2D801B811758F4F7018191B6
:101240007F0189830E94830868E089810E94EE08FB
:10125000F1CF0F90DF91CF911F910F91FF90EF9001
:1012600008951F920F920FB60F9211242F933F9360
:101270004F935F936F937F938F939F93AF93BF939E
:10128000CF93DF93EF93FF935898509AC0915F01EB
:10129000D09160016D81662321F08E819F810E9433
:1012A0000E090E94830880E18A95F1F758985098BA
:1012B000589A80E18A95F1F76A81662351F08B8113
:1012C0009C810E94AF08E881F981811104C082E00D
:1012D00003C0E881F98188E080830E947B08FF9148
:1012E000EF91DF91CF91BF91AF919F918F917F91BE
:1012F0006F915F914F913F912F910F900FBE0F9083
:101300001F901895CF93DF93C0915F01D09160013A
:10131000F894509A589885E08A95F1F70000509813
:10132000589A80E28A95F1F7489B0AC0509A589AD9
:10133000E881F98181E08083789481E090E02CC09D
:101340006D81662381F08E819F810E94AF0881119B
:101350000AC0509A589AE881F98182E08083789493
:1013600082E090E019C00E947B0880E28A95F1F744
:101370005898509A80E18A95F1F76A81662321F0A6
:101380008B819C810E940E090E948308E881F9816B
:101390001082789480E090E0DF91CF91089590934F
:1013A0006601809365010895E0916501F091660101
:1013B000309721F00190F081E02D099480E00895AC
:1013C000E0916501F0916601309721F00280F38190
:1013D000E02D09940895E0916501F0916601309740
:1013E00039F022E0DC012C930480F581E02D099492
:1013F000089520916301309164018217930771F081
:101400009093640180936301E0916501F09166011E
:10141000309721F00680F781E02D099408952091FE
:101420006101309162018217930771F0909362011C
:1014300080936101E0916501F0916601309721F0A0
:101440000084F185E02D0994089585B7806885BFF3
:1014500085B7806885BF08950E94250A0C943508D9
:101460000E9407170E94C0060C947D17CF92DF924E
:10147000EF92FF920F931F93CF93DF93CDB7DEB719
:101480002B970FB6F894DEBF0FBECDBF0E94A40706
:101490000E941608811111C08FEF89838A831B82F5
:1014A0000E9410178160782F9D838C8349815A8117
:1014B0006B818D810E94DE0A56C088E6C82E81E0CD
:1014C000D82E00E010E0E02E802F0E94B906F60131
:1014D00041916F01F42EF82631F40F5F1F4F0C304D
:1014E000110589F7D9CF9091F90191FF04C08B873D
:1014F0000E94BF068B8520E030E04F2D50E0922FF8
:10150000BA01022E02C0759567950A94E2F760FF52
:1015100024C02E83EF8221E030E0690102C0CC0CB0
:10152000DD1C9A95E2F790E08C219D21892B09F42E
:1015300020E028870E9410178160782F9A8789877A
:101540004E815F8168858A850E94DE0AF801E8592C
:10155000FE4F8081C826C08206C02F5F3F4F2730D4
:10156000310569F6BACF0E941019109167010E94E7
:10157000D4091817A1F00E94D409809367012B9613
:101580000FB6F894DEBF0FBECDBFDF91CF911F9194
:101590000F91FF90EF90DF90CF900C94B0022B96BC
:1015A0000FB6F894DEBF0FBECDBFDF91CF911F9174
:1015B0000F91FF90EF90DF90CF900895CF93DF933E
:1015C000CDB7DEB72B970FB6F894DEBF0FBECDBFF9
:1015D0004F83588769877A878B87DE01119686E06B
:1015E000FD0111928A95E9F785E0FE013796019099
:1015F0000D928A95E1F749815A816B817C818D81B9
:101600009E810E9445122B960FB6F894DEBF0FBE46
:10161000CDBFDF91CF910895FC01808191810E941F
:101620000F150895CF93DF931F92CDB7DEB78823B0
:1016300009F42DC1682F8238C1F40E94D40981FDBC
:1016400026C169E38091090190910A010E947F16E9
:101650000E946E152FEF81EE94E021508040904063
:10166000E1F700C0000069E319C0833811F50E945A
:10167000D40980FD0CC163E58091090190910A01B4
:101680000E947F160E946E152FEF81EE94E021508C
:1016900080409040E1F700C0000063E580910901BF
:1016A00090910A010E9481160F90DF91CF910C94C6
:1016B0006E158438C1F40E94D40982FDE8C067E445
:1016C0008091090190910A010E947F160E946E1577
:1016D0002FEF81EE94E0215080409040E1F700C070
:1016E000000067E4DBCF8CEF860F813A70F4862F21
:1016F00069830E94331B69818111C9C080910901EE
:1017000090910A010E947F16CFCF80E2860F883029
:1017100048F4677081E001C0880F6A95EAF70E947B
:10172000A415C2CF8BE5860F833088F4653A29F083
:10173000663A31F083E890E005C081E890E002C0AD
:1017400082E890E00F90DF91CF910C94F90988E541
:10175000860F873108F091C0683A09F445C0693AAC
:1017600009F445C06A3A09F445C06B3A09F445C02A
:101770006C3A09F445C06B3B09F445C06C3B09F475
:1017800045C06D3A09F445C0603B09F445C06E3A66
:1017900009F445C06F3A09F445C0613B09F445C0FE
:1017A000623B09F445C0633B09F445C0643B09F45E
:1017B00045C0653B09F445C0663B09F445C0673B3D
:1017C00009F445C0683B09F445C0693B09F445C0CC
:1017D0006D3B09F445C06E3B09F445C06A3B09F412
:1017E00045C080E090E044C082EE90E041C089EEC8
:1017F00090E03EC08AEE90E03BC085EB90E038C0C0
:1018000086EB90E035C083EB90E032C084EB90E053
:101810002FC087EB90E02CC08CEC90E029C08DECC1
:1018200090E026C083E891E023C08AE891E020C0E0
:1018300082E991E01DC084E991E01AC081E292E062
:1018400017C083E292E014C084E292E011C085E206
:1018500092E00EC086E292E00BC087E292E008C000
:101860008FE690E005C080E790E002C08AE292E057
:101870000F90DF91CF910C940F0A603F40F0862FBC
:101880000E9418180F90DF91CF910C9405190F90BA
:10189000DF91CF910895882309F464C0823879F4E8
:1018A0000E94D40981FF5EC069E380910901909193
:1018B0000A010E947F160E946E1569E310C08338EA
:1018C000B1F40E94D40980FF4DC063E58091090105
:1018D00090910A010E947F160E946E1563E5809127
:1018E000090190910A010E9481160C946E158438AA
:1018F00079F40E94D40982FF35C067E48091090120
:1019000090910A010E947F160E946E1567E4E7CF4E
:101910009CEF980F913A10F4682FE1CF90E2980F66
:10192000983050F4877091E001C0990F8A95EAF7DA
:10193000892F0E94AA15D9CF9BE5980F933020F4E8
:1019400080E090E00C94F90998E5980F973120F425
:1019500080E090E00C940F0A803F20F00E948018F5
:101960000C9405190895882321F00E94A4150C9465
:101970006E150895882321F00E94AA150C946E1507
:1019800008954F925F926F927F92BF92CF92DF92B3
:10199000EF92FF920F931F93CF93DF937C01D62F8B
:1019A000C72FFC01058102950F70128111110E9451
:1019B000C1150E946715882379F0112369F080E230
:1019C0008D0F883048F082E00E9450150E94671504
:1019D00091E0B82EB92601C0B12CCC2EC2948FE074
:1019E000C822D12CF601E859FF4F0C94F2228C2F1B
:1019F000807FCF70882311F0C295C07F112399F0AA
:101A0000CC2309F4CFC180E28D0F883010F0D111C2
:101A100004C08C2F0E94A41503C08C2F0E94B41503
:101A20000E946E15BFC18D2F0E944B0CCC2309F470
:101A3000DEC180E28D0F883010F0D11104C08C2FF0
:101A40000E94AA1503C08C2F0E94BA150E946E1521
:101A5000CEC18C2F807FCF70803211F0C295C07FB5
:101A6000DD2319F0D130C9F022C0112371F0002319
:101A700041F0013031F40E94DA158C2B0E94D4150C
:101A8000B6C10E94DA158C2B46C1002319F0013033
:101A900009F4ADC10E94D71518C0112321F00630FA
:101AA00008F0A5C10EC0053008F0A1C10EC0112379
:101AB00051F0002331F0F701858180FF73C18F70F1
:101AC00085838C2F28C101117EC18C2F2AC18C2FB8
:101AD00086958695837090E0009719F0019761F0E4
:101AE00086C1112321F08D2F9C2F937002C080E0BE
:101AF00090E00E94F9098BC1112321F08D2F9C2FBA
:101B0000937002C080E090E00E940F0A80C1112310
:101B1000F9F0D53F51F0D63F71F0D43FA9F4809150
:101B200015029091160281600BC080911502909170
:101B30001602826005C080911502909116028460A1
:101B400090931602809315028D2F0E9418181EC0C4
:101B5000D53F51F0D63F71F0D43FA9F480911502E2
:101B6000909116028E7F0BC0809115029091160203
:101B70008D7F05C080911502909116028B7F909306
:101B80001602809315028D2F0E9480180E9405195D
:101B90003EC18C2F837009F050C0111134C18D2FBC
:101BA000829586958770880F880F9D2F9F70492E8C
:101BB000512C612C712C082E04C0440C551C661C41
:101BC000771C0A94D2F7D4FF14C00FE010E020E095
:101BD00030E0B901A80104C0440F551F661F771FEC
:101BE0008A95D2F7CB01BA01609570958095909552
:101BF00003C060E070E0CB01C695C695C370D0E02D
:101C0000C230D10561F0C330D10581F06429752956
:101C100086299729219771F00E948A13F4C06429BC
:101C20007529862997290E949C13EDC00E948A136A
:101C3000C301B2010E947813E6C0112319F08C2F62
:101C4000817001C08695882309F4DDC08D2F8295AF
:101C500086958770880F880F9D2F9F70492E512C75
:101C6000612C712C082E04C0440C551C661C771C7A
:101C70000A94D2F7D4FF14C00FE010E020E030E067
:101C8000B901A80104C0440F551F661F771F8A952C
:101C9000D2F7CB01BA01609570958095909503C0FD
:101CA00060E070E0CB01C695C695C3704C2F50E044
:101CB0004230510569F04330510589F06429752996
:101CC000862997294130510571F00E9450149BC01C
:101CD00064297529862997290E94621494C00E945C
:101CE0005014C301B2010E943E148DC08D2F90E0AC
:101CF000FC01E05EF109E531F10508F04FC0E8585C
:101D0000FF4F0C94F222DF708C2F8F71112331F072
:101D10000E94D7138D2F0E94B30C69C00E94F81344
:101D20008D2F0E94BA0C63C0112341F0053008F0DA
:101D30005EC08C2F8F710E941D1459C0063008F0B0
:101D400056C0F7CF112339F08C2F8F710E94D71313
:101D50004EC01123C9F38C2F8F710E94F81347C016
:101D6000112329F08C2F8F710E94C21340C00E9452
:101D7000BD133DC0112349F0CF718C2F0E94D713A2
:101D800063E08C2F0E94471532C081E00E945015FD
:101D9000023068F182E00E94501529C0112331F011
:101DA000002391F28D2F0E94120B21C0002399F283
:101DB000D93349F45FEF67EE73E0515060407040F3
:101DC000E1F700C000008D2F0E944B0C10C04C2F7B
:101DD0004F706D2FC7010E9445040E94E91217C081
:101DE0004C2F4F706D2FC7010E94480410C088E02F
:101DF000C816D10441F05CF0EAE0CE1AD108F2E056
:101E0000CF16D10420F40E94D4090E94B002BB2056
:101E1000F1F00E94431580FD1AC0F70112820E9462
:101E20003D150E94D713C7010E94350F0E943D1532
:101E3000DF91CF911F910F91FF90EF90DF90CF90A6
:101E4000BF907F906F905F904F900C94F813DF914C
:101E5000CF911F910F91FF90EF90DF90CF90BF90A7
:101E60007F906F905F904F9008950F931F93CF9343
:101E7000DF93EC01888199812B813C81232BB9F080
:101E80009F3F11F48F3F99F0CE010E94C802882332
:101E900071F0688179818A810E941A158C010E94F3
:101EA00074140E947513B801CE010E94C10CDF9119
:101EB000CF911F910F9108950E94C1150E94D115D5
:101EC0000E946E150E94AB190E94051980E090E0F7
:101ED0000E94F90980E090E00C940F0A80910901BA
:101EE00090910A010E9483160C945C0F0E94B11518
:101EF0000C946E0F0E940F15E92FE295EF70F0E041
:101F00003297EE30F105B0F4E357FF4F0C94F22214
:101F1000803F91F018F4803E68F40EC0843F51F485
:101F20000BC0803E48F0813F29F406C093FB882710
:101F300080F9089580E0089581E00895CF93DF93BC
:101F400000D000D01F92CDB7DEB70F900F900F904A
:101F50000F900F90DF91CF910895CF93DF9300D032
:101F600000D000D0CDB7DEB726960FB6F894DEBF0E
:101F70000FBECDBFDF91CF9108951F93CF93DF9315
:101F8000C091750116E080917601C81799F0D0E0F4
:101F90001C9FF0011D9FF00D1124E958FE4F408158
:101FA000518162817381848195810E94AD0F219658
:101FB000C770E9CFDF91CF911F9108954091A7019C
:101FC0005091A8016091A9017091AA018091AB0183
:101FD0009091AC010C94AD0F209175019091760118
:101FE00056E02917A9F030E0529FF001539FF00D01
:101FF0001124E958FE4F7181671306C07081871361
:1020000003C07281471306C02F5F3F4F2770E9CF8F
:1020100080E0089581E008958091AC0182958F70F1
:1020200009F054C08091A901882309F44FC0809120
:102030007501A09176016091A7017091A80140916E
:10204000AA015091AB01B6E08A1709F43FC090E0B5
:1020500041155105C1F17F3F11F46F3FA1F1B89FC8
:10206000F001B99FF00D1124E958FE4F2181721340
:102070002AC02081621327C02281211124C023811C
:1020800034812417350710F421503109241B350BF6
:10209000283C3105C0F42091AC012F7020612093C1
:1020A000AC0126E0289FF001299FF00D1124E4588F
:1020B000FE4F80818F708061808387EA91E00E946B
:1020C000350F0C94BD0F01968770BECF0895AF9267
:1020D000BF92CF92DF92EF92FF920F931F93CF9315
:1020E000DF93CDB7DEB762970FB6F894DEBF0FBEB1
:1020F000CDBF7C0185E0F701DE011D9601900D92B8
:102100008A95E1F7D7010C9111965C91119712967F
:10211000BC9012971396CD90DC9014973091A70144
:102120004091A8018091AA019091AB01009709F418
:102130007DC14F3F19F43F3F09F478C1A090A90138
:10214000AA2009F40DC12091AC01C816D90628F0C7
:10215000F601E81BF90BCF0104C0809590958C0D1A
:102160009D1D11E0883C910588F010E0207F09F06A
:10217000BEC07C2DD98AC88A402F6B2D89890E94C8
:102180009E0F87EA91E00E94350F48C1822F807F21
:1021900009F075C0451314C0301312C0B11010C03F
:1021A0002F7020612093AC010E94DE0F87EA91E03E
:1021B0000E94350F8091AC01D70115968C9320C0F9
:1021C000CD2809F452C05F3F19F40F3F09F44DC008
:1021D000B11018C040E0652F802F5A8B0E94EC0F81
:1021E0005A89882379F087EA91E00E94350FE7EA5F
:1021F000F1E086E0DF011D928A95E9F70E94DE0F8B
:1022000010E031C15F3F11F40F3F79F1B1102DC0E3
:1022100040E0652F802F5A8B0E94EC0F182F5A89AF
:10222000811123C00D875E878D859E850E940F15C5
:10223000292F22952F7030E02230310524F02430F0
:10224000310534F05EC09F7051F0811108C00BC1A0
:102250009F7029F0F7019581907F09F404C190E205
:10226000980F983008F04DC0FEC01B2DBB2009F41C
:10227000FAC08091AC0181608093AC01C1CF45135D
:1022800008C0301306C0B11004C08091AC01D70162
:102290009DC00D875E878D859E850E947A0F88235D
:1022A00081F1BB2071F12091AC01822F82958F705A
:1022B00090E0029774F08091A7019091A80198870F
:1022C0008F831986DB86CA862C87CE0107960E94EB
:1022D000350F86E0F701A7EAB1E001900D928A95EB
:1022E000E1F70E940C100E94DE0F11E0BCC0451700
:1022F00061F00D875E878D859E850E947A0F811122
:1023000018C0C7010E94350FF0CF3013F2CFB110C3
:10231000F0CF8091AC01F7018583C7010E94350F92
:1023200086E0E7EAF1E0DF011D928A95E9F71A2DD0
:102330009AC0BB2031F32091AC01822F82958F701F
:1023400090E0029734F28091A7019091A8019A83BE
:1023500089831B82DD82CC822E83CE010196B7CF8A
:10236000C816D90628F0F601E81BF90BCF0104C006
:10237000809590958C0D9D1D883C910550F010E046
:102380007C2DD98AC88A402F6B2D89890E949E0F87
:1023900045C01B2DBB2009F4B4CF45132EC030130C
:1023A0002CC02091AC0120FD1FC0822F82958F7020
:1023B000D9F0D70115962C9315978F3049F08F5F80
:1023C000982F9295907F822F8F70892B15968C93E2
:1023D000C7010E94350F86E0F701A7EAB1E001903E
:1023E0000D928A95E1F73DC086E0F701A7EAB1E0DA
:1023F00001900D928A95E1F736C00D875E878D8535
:102400009E850E947A0F811164CF8091AC0181601A
:102410008093AC01C7010E94350F25C0E7EAF1E0C7
:1024200086E0DF011D928A95E9F71BC0BB2009F405
:1024300068CF0D875E878D859E850E947A0F182F45
:10244000882309F45ECF86E0F701A7EAB1E00190A6
:102450000D928A95E1F787EA91E00E940C0B0E94A9
:102460000C100E94DE0F812F62960FB6F894DEBF2B
:102470000FBECDBFDF91CF911F910F91FF90EF90D5
:10248000DF90CF90BF90AF9008951F93CF93DF93CD
:10249000CDB7DEB72C970FB6F894DEBF0FBECDBF19
:1024A0004F83588769877A878B879C87CE010796E9
:1024B0000E946710882369F08F8198852A853B8563
:1024C000232BF1F19F3F09F063C08F3F09F060C0FB
:1024D00037C086E0FE013796DE01119601900D921D
:1024E0008A95E1F76F817885EA85FB85309741F120
:1024F0007F3F11F46F3F21F12091760130E0C90157
:102500000196877099274091750150E084179507CF
:1025100009F447C069837A83FD83EC8396E0929F38
:10252000D001939FB00D1124A958BE4FFE013196E2
:1025300001900D929A95E1F7809376010E94BD0F6C
:1025400016E080917501909176018917C1F1189F6D
:10255000C001112489589E4F0E946710882379F189
:10256000E09175011E9FF0011124E958FE4F408152
:10257000518162817381848195810E94AD0F809128
:10258000750190E001968770992780937501D9CFE6
:102590004F81588569857A858B859C850E94AD0F12
:1025A000CFCF0E94760F1092760110927501E7EA64
:1025B000F1E086E0DF011D928A95E9F7C1CF2C9604
:1025C0000FB6F894DEBF0FBECDBFDF91CF911F9144
:1025D0000895EF92FF920F931F93CF93DF938C0197
:1025E000892B09F46CC0F12CEE24E394E8012196C8
:1025F000F8018491843740F4843008F051C0813070
:1026000081F0823019F15BC0853709F444C0A8F12C
:102610009CE7980F903708F052C08F770E944B0CC0
:1026200041C00E5F1F4FFE01C49180E28C0F8830C5
:1026300048F4C7708E2D01C0880FCA95EAF70E9432
:10264000C41514C08C2F0E94120B2DC00E5F1F4F9B
:10265000FE01C49180E28C0F883058F4C7708E2D33
:1026600001C0880FCA95EAF70E94CA150E946E152C
:102670001AC08C2F0E944B0C16C00E5F1F4FFE011C
:10268000C491CC2381F08FE99FE00197F1F700C05E
:102690000000C150F6CF0E5F1F4FFE01F49003C043
:1026A0000E94120B8E018F2D882309F49FCFEFE932
:1026B000FFE03197F1F700C000008150F5CFDF91C6
:1026C000CF911F910F91FF90EF90089508950C9472
:1026D00066130E9467136093E8017093E901809389
:1026E000EA019093EB010C945C0F08950C9469132C
:1026F0000F931F930091E8011091E9012091EA01E5
:102700003091EB01602B712B822B932B1F910F913A
:102710000C9469130F931F930091E8011091E90144
:102720002091EA013091EB016023712382239323EE
:102730001F910F910C9469130F931F930091E8015F
:102740001091E9012091EA013091EB016027712796
:10275000822793271F910F910C94691308950C946D
:10276000AE130E94AF136093E4017093E501809370
:10277000E6019093E7010C945C0F60E070E0CB0100
:102780000C94B1130F931F9341E050E060E070E0B0
:102790008A019B0104C0000F111F221F331F8A955D
:1027A000D2F7C901B8011F910F910C94B1130F9387
:1027B0001F9341E050E060E070E004C0440F551FFB
:1027C000661F771F8A95D2F78091E4019091E50109
:1027D000A091E601B091E7018A019B01082B192B1A
:1027E0002A2B3B2BC901B8011F910F910C94B113F7
:1027F0000F931F9341E050E060E070E004C0440F8D
:10280000551F661F771F8A95D2F7409550956095A2
:1028100070958091E4019091E501A091E601B0915D
:10282000E7018A019B01082319232A233B23C901BD
:10283000B8011F910F910C94B1130F931F9341E0B6
:1028400050E060E070E004C0440F551F661F771F22
:102850008A95D2F78091E4019091E501A091E6017B
:10286000B091E7018A019B01082719272A273B27F6
:10287000C901B8011F910F910C94B1130F931F93CD
:102880000091E4011091E5012091E6013091E7010A
:10289000602B712B822B932B1F910F910C94B113F2
:1028A0000F931F930091E4011091E5012091E6013F
:1028B0003091E70160237123822393231F910F91AD
:1028C0000C94B1130F931F930091E4011091E50153
:1028D0002091E6013091E701602771278227932735
:1028E0001F910F910C94B113089527E0929F800DD2
:1028F0001124A82FA695A695A695877051E001C032
:10290000550F8A95EAF785E0A89FD001112420E0B1
:1029100030E070E0F901EA0FFB1FE355FE4F408104
:10292000CB01022E02C0969587950A94E2F781703A
:102930009927819584278523842780832F5F3F4FA4
:102940002530310539F7089527E0929F800D112435
:10295000682F669566956695982F977085E0689FB5
:10296000B001112440E050E080E0FA01E60FF71FCB
:10297000E355FE4F208130E0092E02C036952795A1
:102980000A94E2F721703327042E01C0220F0A9423
:10299000EAF7822B4F5F5F4F4530510531F70895BD
:1029A000CF92DF92EF92FF920F931F93CF93DF931B
:1029B0008C01C090E801D090E901E090EA01F0902C
:1029C000EB018091E4019091E501A091E601B091C5
:1029D000E701C82AD92AEA2AFB2ACFE1D0E0D701A9
:1029E000C6010C2E04C0B695A795979587950A94B5
:1029F000D2F780FF06C0B8018C2F0E9463040197B4
:102A000021F4219760F780E001C08C2FDF91CF91F6
:102A10001F910F91FF90EF90DF90CF900895CF938B
:102A2000DF93EC010E94D014BE010E946304DF9189
:102A3000CF9108951F93CF93DF93EB019091740191
:102A4000992321F0CB010E940F1513C0882349F070
:102A5000CB010E94D014182F682FCE010E9475144C
:102A600004C0CB010E94A414182FBE01812F0E9424
:102A70006304DF91CF911F9108958091EC018595BA
:102A80008595859508958091EC018770089598E06B
:102A9000899F90011124262B2093EC010C94D713CD
:102AA0002091EC01809582238093EC01982F977000
:102AB00069F430E0482F082E000C550B2417350719
:102AC00029F08595859585950C94F8130895909136
:102AD000EC01977081E009F480E00895E09109012C
:102AE000F0910A018091F8018083E0910901F09151
:102AF0000A0190818091F701892B8083E09109017F
:102B0000F0910A0190818091F601892B8083809158
:102B1000ED01882381F0E0910901F0910A01908193
:102B2000892B80838091090190910A010E944D16A2
:102B300081111092ED018091090190910A010C948C
:102B4000E0098091F80108959091F801892B809314
:102B5000F801089580959091F80189238093F801F8
:102B600008951092F80108959091F701892B8093B0
:102B7000F701089580959091F70189238093F701DB
:102B800008951092F70108959091F601892B809392
:102B9000F601089580959091F60189238093F601BE
:102BA00008951092F60108958093ED010895109212
:102BB000ED0108958091ED01089580E090E00E947C
:102BC000142321E08D3E9E4F09F020E0822F0895CE
:102BD00082E090E00C940C2383E090E00C940C23B2
:102BE00084E090E00C940C23682F84E090E00C9437
:102BF0001A23AB01BC018FE090E00C942C23AB01B5
:102C0000BC0183E190E00C942C2360E070E0CB01E8
:102C10000C94FF1560E070E0CB010E94F9150C9454
:102C200005166DEE7EEF80E090E00E94382360E0B4
:102C300082E090E00E941A2360E083E090E00E942E
:102C40001A231092E8011092E9011092EA01109201
:102C5000EB0160E084E090E00E941A2360E085E0F0
:102C600090E00E941A2360E086E090E00E941A2320
:102C70006FEF87E090E00E941A2340E050E0BA0135
:102C800088E090E00E942C2360E08DE090E00E94BC
:102C90001A230C940A160C941116FC01329697E034
:102CA00080E0915029F021912223D9F38F5FF9CF51
:102CB00008959C01FC0132969FEF80E041914617F8
:102CC00089F09F3F19F4411101C0982F8F5F863022
:102CD000A9F79F3F39F0F901E90FF11D97FDFA952A
:102CE000628308950895FC01329608962081261388
:102CF00001C010823196E817F907C1F708950C94C6
:102D000059160C947316029626E0FC0111922A952E
:102D1000E9F7089508950C948A160E948B16809105
:102D20002102843049F11092FA0120E488E190E018
:102D30000FB6F894A895809360000FBE20936000B2
:102D400080E00E94B0020E948B1683B7817F84606E
:102D500083BF83B7816083BF7894889583B78E7F64
:102D600083BF0FB6F894A895809160008861809326
:102D70006000109260000FBE089508950895CF93EB
:102D80000E94BD160E94A4070E94BE16C0E08C2FB0
:102D90000E94B906811104C0CF5FCC30C1F701C0D9
:102DA00081E0CF91089508950C94D3160E94760F78
:102DB0000E94D4090E94B0020C94D4161F920F9264
:102DC0000FB60F9211248F939F93AF93BF9380916F
:102DD000FA01811113C08091170290911802A091FD
:102DE0001902B0911A024196A11DB11D80931702DC
:102DF00090931802A0931902B0931A02BF91AF9159
:102E00009F918F910F900FBE0F901F90189582E0A9
:102E100084BD93E095BD9AEF97BD80936E000895B1
:102E20002FB7F8948091170290911802A09119027F
:102E3000B0911A022FBF0895CF92DF92EF92FF92C6
:102E40000F931F932FB7F8944091170250911802D7
:102E50006091190270911A022FBF6A017B01EE2462
:102E6000FF248C0120E030E0C016D106E206F30614
:102E700010F4415051099A01281B390BC9011F91C7
:102E80000F91FF90EF90DF90CF90089578941F926C
:102E90000F920FB60F9211248F939F93AF93BF930E
:102EA0008091170290911802A0911902B0911A0214
:102EB0000196A11DB11D8093170290931802A09353
:102EC0001902B0931A02BF91AF919F918F910F9009
:102ED0000FBE0F901F90189587E797E79093010812
:102EE000809300089AE088E10FB6F894A895809343
:102EF00060000FBE90936000FFCF0E94DD1581112E
:102F000002C00E944B160E94E8158093F9010E94AE
:102F1000F01590E090931C0280931B020E94EC1528
:102F2000682F70E080E090E00C9476138091FE01B1
:102F300080FF0BC060910E0185E0689FB0011124F5
:102F400075956795759567952BC081FF09C0609150
:102F50000E0185E0689FB00111247595679520C02A
:102F600082FF07C060910E0185E0689FB0011124C7
:102F700017C09091FF019923D1F060910D01961730
:102F800088F720910E0185E0289F90011124929FDF
:102F9000A001939F500D112470E0CA010E94DE220F
:102FA0006038710540F46115710539F002C065E0C3
:102FB00070E0862F08958FE7089581E0089580914D
:102FC000FE0180FF08C060910C0170E07595679567
:102FD0007595679521C081FF06C060910C0170E076
:102FE0007595679519C082FF04C060910C0170E06F
:102FF00010C09091FF019923C1F060910B019617C9
:10300000A0F780910C01899FC001112470E00E94FB
:10301000DE226038710528F46115710521F0862FD4
:1030200008958FE7089581E0089561E070E0F4CF9E
:10303000803F21F40E949617819504C0813F29F4B6
:103040000E949617809303020895823F21F40E9404
:103050009617819504C0833F29F40E9496178093A8
:1030600002020895893F19F40E94DF1705C08A3FC4
:1030700031F40E94DF1781958093040208958B3FFD
:1030800021F40E94DF17819504C08C3F29F40E942F
:10309000DF17809305020895843F21F48091010297
:1030A000816017C0853F21F480910102826011C0C8
:1030B000863F21F48091010284600BC0873F21F498
:1030C00080910102886005C0883F31F4809101023F
:1030D00080618093010208958D3F21F48091FE016B
:1030E00081600BC08E3F21F48091FE01826005C09B
:1030F0008F3F29F48091FE0184608093FE01089542
:10310000803F39F48091030287FF6CC01092030264
:1031100069C0813F29F4809103021816BCF362C094
:1031200090910202823F29F497FF5CC01092020244
:1031300059C0833F19F41916CCF354C0893F41F4A8
:103140008091040218160CF04DC0109204024AC07F
:103150008A3F29F48091040287FF44C0F6CF8B3F59
:1031600039F48091050287FF3DC0109205023AC0F4
:103170008C3F29F4809105021816BCF333C0843FBC
:1031800021F4809101028E7F17C0853F21F4809148
:1031900001028D7F11C0863F21F4809101028B7F57
:1031A0000BC0873F21F480910102877F05C0883FD3
:1031B00031F4809101028F7E8093010213C08D3F14
:1031C00021F48091FE018E7F0BC08E3F21F480910F
:1031D000FE018D7F05C08F3F29F48091FE018B7F1A
:1031E0008093FE018091020281110EC08091030242
:1031F00081110AC080910402811106C080910502EC
:10320000811102C01092FF01089580E092E00E94B7
:10321000EB090E9410179093FC018093FB01089525
:103220001F93CF93DF938091FB019091FC010E944B
:103230001C17AC019091FF01992321F020910F01FF
:1032400030E006C02091FD018AE0289F9001112402
:103250004217530708F47BC080910202C091030219
:10326000D091040210910502811107C0C1116BC0F9
:10327000D11169C0111167C06AC09F3F19F09F5FEB
:103280009093FF01181624F40E949617809302026F
:103290008091020287FF05C00E9496178195809356
:1032A00002021C1624F40E94961780930302809158
:1032B000030287FF05C00E94961781958093030241
:1032C000309102023323E1F0209103022223C1F066
:1032D00045EB3403C0011124892F990F990B0097F6
:1032E00009F481E08093020235EB2303C00111242D
:1032F000892F990F990B009709F481E080930302BD
:103300001D1624F40E94DF178093040280910402AA
:1033100087FF05C00E94DF17819580930402111674
:1033200024F40E94DF17809305028091050287FF35
:1033300005C00E94DF17819580930502DF91CF9130
:103340001F910C9405199F3F09F099CFA1CFDF91F0
:10335000CF911F910895E0E0F2E086E0DF011D9239
:103360008A95E9F71092FF011092FE0108958330CB
:1033700081F128F4813059F08230D1F00895853000
:1033800009F449C0B8F1863009F456C00895809117
:10339000FD01262F30E0280F311D2F3F310524F489
:1033A000680F6093FD0108958FEF8093FD010895EC
:1033B00080910F01262F30E0280F311D2F3F31055E
:1033C00024F4680F60930F0108958FEF80930F012D
:1033D000089580910E01262F30E0280F311D2F3FD8
:1033E000310524F4680F60930E0108958FEF8093E8
:1033F0000E01089580910D01262F30E0280F311D18
:103400002F3F310524F4680F60930D0108958FEF6D
:1034100080930D01089580910C01262F30E0280F34
:10342000311D2F3F310524F4680F60930C0108957E
:103430008FEF80930C01089580910B01262F30E0CF
:10344000280F311D2F3F310524F4680F60930B01C5
:1034500008958FEF80930B010895833011F128F4C4
:10346000813049F0823091F00895853081F120F16A
:103470008630C1F108958091FD01681720F4861B04
:103480008093FD0108951092FD01089580910F0130
:10349000681720F4861B80930F01089510920F0186
:1034A000089580910E01681720F4861B80930E0109
:1034B000089510920E01089580910D01681720F46F
:1034C000861B80930D01089510920D01089580913F
:1034D0000C01681720F4861B80930C01089510924C
:1034E0000C01089580910B01681720F4861B8093CE
:1034F0000B01089510920B0108950F931F938732CB
:10350000D8F58E3108F081C08E3009F46BC098F484
:10351000873009F459C08B3009F48BC0863009F02C
:103520008FC08091F901817F8E7F8093F90181E0C6
:103530008093070286C0863109F47BC068F480312D
:1035400009F07EC08091F90183FB222720F991E0E8
:10355000922790FB83F94FC0893109F46AC08B31FF
:1035600009F06EC08091F90181FB222720F991E0DA
:10357000922790FB81F93FC0883309F45AC050F478
:10358000893209F458C0853309F455C0873209F4EB
:1035900052C056C0833409F44EC028F48A3308F46C
:1035A0004FC0895333C0883409F04AC00E94760F57
:1035B0000FEF13ED20E3015010402040E1F700C071
:1035C00000000E946C1735C08091F901982F9095EA
:1035D000917090FB80F98093F90191112AC0897F45
:1035E000877F10C08091F90182FB222720F991E0AA
:1035F000922790FB82F98093F9019923D1F0809171
:10360000F90181608093F90114C08D5141E050E0CF
:1036100060E070E08A019B0104C0000F111F221FAF
:10362000331F8A95D2F7C901B8010E9476130E9410
:10363000760F81E006C061E070E080E090E0F5CFB9
:1036400080E01F910F91089580E0089580E0089533
:103650008E518A3030F4E82FF0E0E25DFE4F808139
:10366000089580E00895CF93C82F8091070281309C
:1036700069F018F08230C9F181C0E0910901F09140
:103680000A018081823209F07BC007C0E091090104
:10369000F0910A018081823261F48C2F0E94241BF8
:1036A000811104C08C2F0E947D1A1DC081E090E022
:1036B0001AC08C2F0E94261B811114C0C43179F0CE
:1036C00048F4CB3079F0C03109F05EC082E08093DD
:1036D000070208C0C93219F0C83321F055C0109252
:1036E000070252C081E0817051C0C93279F108F5FA
:1036F000C43161F1A0F4C73009F044C01092FD015B
:1037000084E180930F01C0930E018CE380930D013F
:1037100088E080930C0188E280930B0133C082EE35
:103720008C0F863078F58C2F0E94281B8093060220
:1037300029C0CE34E9F020F4CB3421F56AE013C07F
:10374000C13579F0C235F1F461E00DC08091060217
:10375000882319F01092060215C081E080930702B9
:1037600015C061E006C0809106020E94B7190AC028
:103770006AE0809106020E942D1A04C0109207028E
:1037800080E004C081E002C080E0ADCFCF91089519
:103790008091100208950F931F93CF93DF9300D071
:1037A0001F92CDB7DEB78C010E94251E823011F02A
:1037B000843021F584E089831B830A8382E080932F
:1037C000E9008FEF9091E800815095FD06C095EDDE
:1037D0009A95F1F700008111F5CF8091E80085FFFF
:1037E0000DC040E050E063E070E0CE0101960E9421
:1037F000421E8091E8008E778093E8000F900F9032
:103800000F90DF91CF911F910F910895CF93DF9388
:1038100000D01F92CDB7DEB720912102243031F5C0
:1038200023E02983805891099B838A8382E08093D7
:10383000E9008FEF9091E800815095FD06C095ED6D
:103840009A95F1F700008111F5CF8091E80085FF8E
:103850000DC040E050E063E070E0CE0101960E94B0
:10386000421E8091E8008E778093E8000F900F90C1
:103870000F90DF91CF910895CF93DF93EC010E94D9
:10388000251E823011F08430F9F482E08093E90043
:103890009FEF8091E800915085FD06C085ED8A95E7
:1038A000F1F700009111F5CF8091E80085FF0CC081
:1038B00040E050E066E070E0CE010E94421E809140
:1038C000E8008E778093E800DF91CF910895CF9341
:1038D000DF93EC010E94251E823011F0843039F50F
:1038E00081E08093E9008FEF9091E800815095FD91
:1038F00006C095ED9A95F1F700008111F5CF809102
:10390000E80085FF14C040E050E068E070E0CE01C0
:103910000E94421E8091E8008E778093E80088E044
:10392000FE01A8E0B2E001900D928A95E1F7DF91E7
:10393000CF91089580912002811109C00E94D71F64
:103940000E9434208091E20084608093E200089518
:10395000109220020895089508950C94D61642E01E
:1039600061EC81E00E94511F42E261EC82E00C9424
:10397000511F80912302833009F460C030F48130FC
:1039800071F0823009F499C008958A3009F485C035
:103990008B3009F46BC0893009F0A7C020C080913A
:1039A0002202813A09F0A1C08091E800877F8093CC
:1039B000E8008091260290912702892B21F468E08B
:1039C00088E092E003C060E080E090E070E00E9458
:1039D0008D1E8091E8008B778093E8000895809198
:1039E0002202813209F081C0809126029091270243
:1039F000029708F07AC08091E800877F8093E80002
:103A00008091E80082FD05C0809121028111F8CFEC
:103A10006CC02091F3008091F20090E0922B02970D
:103A200029F48091F1008B7F813021F48091F100A5
:103A3000809310028091E8008B7753C0809122021E
:103A4000813A09F052C08091260290912702892B79
:103A500009F04BC08091E800877F8093E800809157
:103A6000E80080FFFCCF80911A0136C080912202CD
:103A70008132D9F58091260290912702892BA9F5F0
:103A80008091E800877F8093E8000E94861F8091E4
:103A9000240280931A010C94760F809122028132C5
:103AA00021F58091E800877F8093E8000E94861FBF
:103AB0008091250280931102089580912202813A1B
:103AC000A1F48091E800877F8093E8008091E8006E
:103AD00080FFFCCF809111028093F1008091E8007B
:103AE0008E778093E8000C94861F089584B7877FB3
:103AF00084BF0FB6F894A895809160008861809388
:103B00006000109260000FBE80E880936100109208
:103B100061000E942C0A0E94D71F0E9434208091CD
:103B2000E20084608093E20078940E94C3220E94A5
:103B3000300A80E191E00E94CF0980912102853016
:103B400069F40E948D1680911F028823B1F30E94B0
:103B5000BF16882391F30E942C1EEFCF0E94360AD5
:103B6000ECCF0C94B31D292F332723303105C9F036
:103B700064F42130310581F02230310509F04CC068
:103B80008BE390E022E933E04BC02132310521F193
:103B90002232310589F140C082E190E02DEC33E022
:103BA0003FC099278130910571F02CF4892BA1F544
:103BB000EEE8F3E00DC08230910541F0039761F526
:103BC000E2E4F3E005C0EEE7F3E002C0E8E4F3E08E
:103BD000849190E09F0124C06115710541F061302E
:103BE0007105D1F489E090E02DEB33E019C089E054
:103BF00090E024EA33E014C06115710541F06130B2
:103C0000710551F485E890E02FED33E009C080E4C0
:103C100090E024E634E004C080E090E020E030E072
:103C2000FA013183208308950895CF93C82F0E940D
:103C3000141EC0931202CF91089580912102843006
:103C400011F081E0089582E00895809112028111BF
:103C500002C00C941D1E089580E189BD82E189BDDA
:103C600009B400FEFDCF8091D8008F7D8093D800ED
:103C70008091E00082608093E0008091E00081FD0F
:103C8000FCCF0895CF92DF92EF92FF920F931F9394
:103C9000CF93DF93EC018B016A010E94A51F811174
:103CA00033C0C114D10439F0F60180819181081B21
:103CB000190BC80FD91FE12CF12C0115110519F1B1
:103CC0008091E80085FD16C08091E8008E77809392
:103CD000E800C114D10449F0F60180819181E80E19
:103CE000F91EF182E08285E00FC00E94A51F8823A3
:103CF00021F30AC089918093F10001501109FFEF6F
:103D0000EF1AFF0ADACF80E0DF91CF911F910F9178
:103D1000FF90EF90DF90CF9008952091280230918E
:103D200029022617370748F06115710539F42091EB
:103D3000E8002E772093E80001C0B90140E061154A
:103D40007105A9F120912102222309F443C02530F5
:103D500009F442C02091E80023FD40C02091E80012
:103D600022FD32C02091E80020FFE9CF4091F3000E
:103D70002091F20030E0342BFC01CF016115710578
:103D800059F02830310540F481918093F100615061
:103D900071092F5F3F4FF1CF41E02830310509F025
:103DA00040E02091E8002E772093E800C8CF411131
:103DB000C9CF0AC080912102882361F0853061F06B
:103DC0008091E80083FD0AC08091E80082FFF2CF75
:103DD00080E0089582E0089583E0089581E00895E9
:103DE00020912802309129022617370748F06115E3
:103DF000710539F42091E8002E772093E80001C086
:103E0000B901FC0120E06115710591F18091210259
:103E1000882309F440C0853009F43FC08091E80050
:103E200083FD3DC08091E80082FD2FC08091E800B5
:103E300080FFE9CF2091F3008091F20090E0922B77
:103E40006115710559F08830910540F42491209353
:103E5000F1003196615071090196F2CF21E0089787
:103E600009F020E08091E8008E778093E800CBCFC6
:103E70002111CCCF0AC080912102882361F08530C6
:103E800061F08091E80083FD0AC08091E80082FF24
:103E9000F2CF80E0089582E0089583E0089581E004
:103EA0000895982F973058F59093E900981739F0B6
:103EB0007091EC002091ED005091F00003C0242F90
:103EC000762F50E021FF19C03091EB003E7F3093F8
:103ED000EB003091ED003D7F3093ED003091EB0031
:103EE00031603093EB007093EC002093ED00509321
:103EF000F0002091EE0027FF07C09F5FD3CF8F70A7
:103F00008093E90081E0089580E008958091220285
:103F100087FF11C08091E80082FD05C080912102D9
:103F20008111F8CF11C08091E8008B770BC0809190
:103F30002102882349F08091E80080FFF8CF80912A
:103F4000E8008E778093E80008952091E400309196
:103F5000E50095E64091EC00842F817040FF22C07F
:103F60008091E80080FD1CC080912102882391F09F
:103F7000853091F08091EB0085FD10C04091E40008
:103F80005091E5004217530729F39A01915011F718
:103F900084E0089582E0089583E0089581E0089523
:103FA00080E008954091E80042FFDECF08950E942E
:103FB00045200E944D20E0EEF0E08081816080830A
:103FC000E8EDF0E080818F77808319BCA7EDB0E049
:103FD0008C918E7F8C9380818F7E808310922002C3
:103FE00008950F931F93CF93DF930E9445200E9463
:103FF0004D20C8EDD0E088818F77888388818068E4
:10400000888388818F7D888319BC10922102109249
:104010001D0210921F0210921E0200EE10E0F80125
:1040200080818B7F808388818160888342E060E02B
:1040300080E00E94511FE1EEF0E080818E7F80835E
:10404000E2EEF0E0808181608083808188608083FF
:10405000F80180818E7F8083888180618883DF91F1
:10406000CF911F910F910895E8EDF0E080818F7E50
:104070008083E7EDF0E080818160808384E082BF0F
:1040800081E0809320020C94F11FE8EDF0E0808144
:104090008E7F80831092E20008951092DA001092D1
:1040A000E10008951F920F920FB60F9211242F93E3
:1040B0003F934F935F936F937F938F939F93AF93B0
:1040C000BF93EF93FF938091E10082FF0BC080913B
:1040D000E20082FF07C08091E1008B7F8093E100C6
:1040E0000E94C2228091DA0080FF1FC08091D80018
:1040F00080FF1BC08091DA008E7F8093DA00809170
:10410000D90080FF0DC080E189BD82E189BD09B47D
:1041100000FEFDCF81E0809321020E949A1C05C021
:1041200019BC109221020E94A81C8091E10080FF1E
:1041300019C08091E20080FF15C08091E2008E7F5F
:104140008093E2008091E20080618093E2008091A0
:10415000D80080628093D80019BC85E0809321024A
:104160000E94AC1C8091E10084FF30C08091E2008D
:1041700084FF2CC080E189BD82E189BD09B400FEC5
:10418000FDCF8091D8008F7D8093D8008091E10091
:104190008F7E8093E1008091E2008F7E8093E20029
:1041A0008091E20081608093E20080911D0288236B
:1041B00011F084E007C08091E30087FD02C081E038
:1041C00001C083E0809321020E94AD1C8091E10038
:1041D00083FF29C08091E20083FF25C08091E10028
:1041E000877F8093E10082E08093210210921D027C
:1041F0008091E1008E7F8093E1008091E2008E7FCC
:104200008093E2008091E20080618093E20042E0CE
:1042100060E080E00E94511F8091F00088608093F0
:10422000F0000E94AB1CFF91EF91BF91AF919F9165
:104230008F917F916F915F914F913F912F910F904F
:104240000FBE0F901F9018951F920F920FB60F92EE
:1042500011242F933F934F935F936F937F938F938B
:104260009F93AF93BF93CF93DF93EF93FF93C0914F
:10427000E900CF708091EC00D82FD17080FDD0E89C
:104280001092E9008091F000877F8093F00078948D
:104290000E9468211092E9008091F000886080936C
:1042A000F000CD2BCF70C093E900FF91EF91DF912B
:1042B000CF91BF91AF919F918F917F916F915F91BE
:1042C0004F913F912F910F900FBE0F901F90189517
:1042D0001F93CF93DF93CDB7DEB7AA970FB6F894AD
:1042E000DEBF0FBECDBFE2E2F2E088E08E0F90911C
:1042F000F10091938E13FBCF0E94B91C8091E800CE
:1043000083FF28C18091220290912302492F50E01F
:104310004A30510508F01EC1FA01E556FF4F0C94D2
:10432000F222803821F0823809F014C108C080914F
:104330001E0290911F02992389F082600FC0809124
:1043400026028F70873008F005C18093E9008091C4
:10435000EB0085FB882780F91092E9009091E80036
:10436000977F9093E8008093F1001092F100D0C005
:10437000282F2D7F09F0EEC0882319F0823061F0DC
:10438000E9C080912402813009F0E4C0933009F043
:1043900080E080931F022EC08091240281112AC0E8
:1043A000809126028F702FEF280F263008F0D2C0A0
:1043B0008093E9002091EB0020FF1CC0933021F492
:1043C0008091EB00806214C09091EB00906190931B
:1043D000EB0021E030E0A90102C0440F551F8A958F
:1043E000E2F74093EA001092EA008091EB008860C7
:1043F0008093EB001092E9008091E800877F809322
:10440000E8000E94861FA6C08111A4C0109124025A
:104410001F778091E3008078812B8093E300809167
:10442000E800877F8093E8000E94861F8091E80063
:1044300080FFFCCF8091E30080688093E30011113E
:1044400002C082E001C083E08093210283C08058D3
:10445000823008F07FC080912402909125028C3D2B
:1044600053E0950779F583E08A838AE289834FB721
:10447000F894DE01139620E03EE051E2E32FF0E0F5
:1044800050935700E49120FF03C0E295EF703F5F27
:10449000EF708E2F90E0EA3010F0C79601C0C09602
:1044A0008D939D932F5F243149F74FBF8091E80092
:1044B000877F8093E8006AE270E0CE0101960E9457
:1044C0008D1E15C06091260270912702AE014F5FCC
:1044D0005F4F0E94B11DBC01892BE1F19091E80072
:1044E000977F9093E80089819A810E94F01E8091C5
:1044F000E8008B778093E8002DC0803859F58091D3
:10450000E800877F8093E80080911D028093F1008E
:104510008091E8008E7773CF81111CC090912402A6
:104520009230C0F48091E800877F8093E8009093F8
:104530001D020E94861F80911D02811106C080917C
:10454000E30087FD02C081E001C084E08093210286
:104550000E94AF1C8091E80083FF0AC08091E800B0
:10456000877F8093E8008091EB0080628093EB006E
:10457000AA960FB6F894DEBF0FBECDBFDF91CF91E4
:104580001F9108950895CF93809121028823A1F06F
:10459000C091E900CF709091EC00892F817090FD5F
:1045A00080E8C82B1092E9008091E80083FD0E940A
:1045B0006821CF70C093E900CF91089597FB072E33
:1045C00016F4009407D077FD09D00E94F82207FC6A
:1045D00005D03EF4909581959F4F08957095619513
:1045E0007F4F0895EE0FFF1F0590F491E02D099481
:1045F000AA1BBB1B51E107C0AA1FBB1FA617B70709
:1046000010F0A61BB70B881F991F5A95A9F7809524
:104610009095BC01CD010895F999FECF92BD81BD61
:10462000F89A992780B50895A8E1B0E042E050E0FB
:104630000C944023262FF999FECF92BD81BDF89AA4
:10464000019700B4021639F01FBA20BD0FB6F894D6
:10465000FA9AF99A0FBE08950396272F0E941B23FA
:104660000E941A23252F0E941B23242F0C941B2306
:104670000196272F0E941B230C941A23DC01CB01E7
:10468000FC01F999FECF06C0F2BDE1BDF89A319662
:1046900000B40D9241505040B8F70895F894FFCF00
:1046A000015701005801065801EE0128083C071483
:1046B000C81B671C3C1C061CCB1B01F5F6F73133ED
:1046C0003236946697C634350000000000000102BF
:0846D0000304050607080900B8
:00000001FF
