:100000000C94D7060C941E070C941E070C941E0724
:100010000C941E070C941E070C941E070C941E07CC
:100020000C941E070C941E070C945D260C942F272D
:100030000C94D7190C941E070C941E070C941E07E1
:100040000C941E070C941E070C941E070C941E079C
:100050000C941E070C944B1A0C941E070C941E074C
:100060000C941E070C941E070C941E070C941E077C
:100070000C941E070C941E070C941E070C941E076C
:100080000C941E070C941E070C941E070C941E075C
:100090000C941E070C941E070C941E070C941E074C
:1000A0000C941E070C941E070C941E0783088508E9
:1000B0009008870889088B088D088F089208940893
:1000C0009608A10898089A089C089E08A008A3080A
:1000D000A610A610E010E0101F113F11B212B212CC
:1000E0008111B21231123112A412B212B212AC1238
:1000F0003E123E123E123E123E123E123E123E1280
:100100003E123E123E123E123E123E123E123E126F
:1001100050125E1265126C12761245134513571376
:1001200057134E13571357135713451345135313B0
:100130005713571353139C27C327B528C327B52834
:100140000F283228B5288828972829001E001F006C
:100150002000210022002300240025002600270083
:100160002D002E002A002B0014001A000800150094
:1001700017001C0018000C00120013002F003000A4
:100180003100284304001600070009000A000B0094
:100190000D000E000F003300340000002800E100C5
:1001A0001D001B000600190005001100100036009C
:1001B0003700380000000000E500E000E300E20046
:1001C000000000002C42000000000000000003516D
:1001D000045105510153010001000100010001001B
:1001E0000100010001000100010001000100010007
:1001F00001000100010001000100010001000100F7
:1002000001000100010001000100010001003900AE
:1002100001000100010001000100010001000100D6
:1002200001000100010000000100E10001000100E7
:1002300001000100010001000100010001000100B6
:1002400000000000E50001000000010000000000C7
:100250002C0000000000000000000100010001006F
:10026000010035003A003B003C003D003E003F00ED
:100270004000410042004300440045004C000100A2
:100280002A0052004C000100010001002A00520027
:100290004C0046004700480001000100500051009A
:1002A0004F00010001000100500051004F0001000B
:1002B00001000000010001000100010001002C000C
:1002C0000100010001000100010001000000000028
:1002D0000100010001000100000000000100000019
:1002E00000000000000001000100010001003500D5
:1002F0003A003B003C003D003E003F004000410012
:1003000042004300440045004C00A8002A004B0076
:100310004C000100010001004B0052004E000100A2
:1003200048004700460001004A004E004D00010011
:1003300001004A00500051004F0001004900000038
:1003400001000100010001000100010001004D0059
:100350000100010001000100000000000100010097
:10036000010001000000000001000000000000008A
:1003700000000100010001000100A60001000100D1
:100380000100010001000100010001000100010065
:100390000100010001000100010001000100010055
:1003A000010001000100F400F000F500010001006F
:1003B0000100010001000100010001000100010035
:1003C0000100F200F100F300010000000100010053
:1003D0000100010001000100010001000100F9001D
:1003E000F600FA0000000000010001000100010019
:1003F00000000000010000000000000000000100FB
:10040000010001000100A70001000100010001003E
:1004100001000100010001000100010001000100D4
:1004200001000100010001000100010001000100C4
:100430000100010001000100AA00A900A8000100BC
:1004400001000100010001000100010001000100A4
:1004500001000100AC00AB00AE0001000100010092
:10046000010001000100010001000100B600B70019
:1004700000000000B90001000100010000000000C0
:100480000100000000000000000001000100010068
:10049000010044454255473A20656E61626C6564CF
:1004A0002E0A000A002530313662003A200025303D
:1004B0003258000A722F63203031323334353637E8
:1004C00038394142434445460A000A002530325833
:1004D00020006B6579626F6172645F7265706F7224
:1004E000743A20000A0025303258006B6579626F3B
:1004F0006172645F7365745F6C65643A2000290AF9
:10050000002575002F002575005D2800256400205A
:1005100000256400200025640020002564007C0084
:1005200025303258006D6F7573656B6579205B629D
:10053000746E7C782079207620685D287265702F33
:1005400061636C293A205B006D6B5F776865656C51
:100550005F74696D655F746F5F6D6178203D202504
:10056000640A006D6B5F776865656C5F6D61785FCD
:100570007370656564203D2025640A006D6B5F74AF
:10058000696D655F746F5F6D6178203D2025640A39
:10059000006D6B5F6D61785F7370656564203D20F1
:1005A00025640A006D6B5F696E74657276616C20FC
:1005B0003D2025640A006D6B5F64656C6179203DA8
:1005C0002025640A006D6B5F776865656C5F7469F0
:1005D0006D655F746F5F6D6178203D2025640A0052
:1005E0006D6B5F776865656C5F6D61785F73706573
:1005F0006564203D2025640A006D6B5F74696D653C
:100600005F746F5F6D6178203D2025640A006D6B1B
:100610005F6D61785F7370656564203D2025640AB5
:10062000006D6B5F696E74657276616C203D20258C
:10063000640A006D6B5F64656C6179203D20256400
:100640000A000A00257500363A20776865656C5FF8
:1006500074696D655F746F5F6D61783A20000A00A0
:10066000257500353A20776865656C5F6D61785F48
:1006700073706565643A20000A00257500343A20DD
:1006800074696D655F746F5F6D61783A20000A0070
:10069000257500333A206D61785F73706565643A43
:1006A00020000A00257500323A20696E7465727662
:1006B000616C286D73293A20000A00257500313AD3
:1006C0002064656C6179282A31306D73293A2000E5
:1006D0000A092D2056616C756573202D0A004D3E68
:1006E000004D25643E20003F0073657420646566FC
:1006F00061756C740A00433E20007768657265205E
:1007000064656C74613A20637572736F723D256421
:100710002C20776865656C3D25640A536565206803
:100720007474703A2F2F656E2E77696B69706564EB
:1007300069612E6F72672F77696B692F4D6F7573C3
:10074000655F6B6579730A000A092D204D6F75731B
:10075000656B6579202D0A4553432F713A097175F0
:1007600069740A313A0964656C6179282A31306DFF
:1007700073290A323A09696E74657276616C286D64
:1007800073290A333A096D61785F73706565640A8D
:10079000343A0974696D655F746F5F6D61780A350D
:1007A0003A09776865656C5F6D61785F7370656540
:1007B000640A363A09776865656C5F74696D655FD0
:1007C000746F5F6D61780A0A703A097072696E74AD
:1007D0002076616C7565730A643A097365742064E8
:1007E000656661756C74730A75703A092B310A6419
:1007F0006F776E3A092D310A706775703A092B319F
:10080000300A7067646F776E3A092D31300A0A73C7
:1008100070656564203D2064656C7461202A206DDC
:1008200061785F7370656564202A20287265706541
:100830006174202F2074696D655F746F5F6D6178DE
:10084000290A003F004D3E2000433E20004C256415
:100850000A0074696D65725F7265616433322829BC
:100860003A202530346C580A006B6579626F6172EA
:10087000645F69646C653A2025580A006B6579628B
:100880006F6172645F70726F746F636F6C3A202572
:10089000580A00686F73745F6B6579626F61726488
:1008A0005F6C65647328293A2025580A000A092DCF
:1008B00020537461747573202D0A004743433A2016
:1008C000342E392E32204156522D4C4942433A2083
:1008D000322E302E30204156525F415243483A204A
:1008E000617672350A004F5054494F4E533A204CAE
:1008F000554641204D4F5553454B45592045585479
:1009000052414B455920434F4E534F4C4520434F86
:100910004D4D414E44203531320A004255494C4438
:100920003A2022302E352E3137322D362D67336561
:100930003266643622202831363A34363A3336204D
:100940004E6F762032322032303137290A00564934
:10095000443A2030784645454428636D6429205048
:1009600049443A2030783630363028434D443630CA
:1009700029205645523A203078303030310A004430
:100980004553433A20416476616E6365642050723A
:100990006F6772616D6D696E67204B656562204C93
:1009A00061796F75740A000A092D205665727369A2
:1009B0006F6E202D0A000A092D20436F6E736F6C35
:1009C00065202D0A4553432F713A09717569740AE0
:1009D0006D3A096D6F7573656B65790A000A092DAB
:1009E000204D61676963202D0A443A0944656275A8
:1009F00067204D65737361676520546F67676C6529
:100A00000A583A094D6174726978204465627567C5
:100A1000204D6F646520546F67676C65202D2053EF
:100A2000686F77206B657970726573736573206981
:100A30006E206D617472697820677269640A4B3A3E
:100A4000094B6579626F6172642044656275672045
:100A5000546F67676C65202D2053686F77206B6536
:100A6000797072657373207265706F72740A4D3A93
:100A7000094465627567204D6F75736520546F6713
:100A8000676C650A563A0956657273696F6E0A5348
:100A90003A095374617475730A433A09416374697E
:100AA0007661746520436F6E736F6C65204D6F6463
:100AB000650A46312D4631303A09537769746368C7
:100AC00020746F204C6179657220302D39202846C2
:100AD0003130203D204C30290A302D393A095377E6
:100AE0006974636820746F204C6179657220302DC1
:100AF000390A4553433A0953776974636820746F20
:100B0000204C6179657220302028616C7465726EAA
:100B1000617465206B65792031290A475241564539
:100B20003A0953776974636820746F204C61796562
:100B30007220302028616C7465726E617465206B60
:100B400065792032290A50415553453A094A756D55
:100B50007020746F20426F6F746C6F6164657220D7
:100B6000285265736574290A003F000A6D6F75731A
:100B7000653A206F66660A000A6D6F7573653A20E4
:100B80006F6E0A000A6B6579626F6172643A206F5A
:100B900066660A000A6B6579626F6172643A206F5B
:100BA0006E0A000A6D61747269783A206F66660A8F
:100BB000000A6D61747269783A206F6E0A000A64E7
:100BC000656275673A206F66660A000A6465627539
:100BD000673A206F6E0A000A0A4A756D70696E677F
:100BE00020746F20626F6F746C6F616465722E2E5B
:100BF0002E2000433E20005B735D004B6579626FE1
:100C00006172642073746172742E0A005B575D0018
:100C10005B535D005B525D005B445D005B435D00C8
:100C20000403300000000C0343004D004400360074
:100C300030000000080363006D006400000004033E
:100C4000090409027400040100A0FA09040000016B
:100C50000301010009211101000122400007058163
:100C60000308000A0904010001030102000921111F
:100C7000010001224D000705820308000A09040251
:100C800000010300000009211101000122360007C4
:100C900005830308000A0904030002030000000999
:100CA0002111010001222200070584032000010711
:100CB0000504032000011201100100000008EDFEF0
:100CC00060600100010203010631FF0974A10109FE
:100CD00075150026FF00952075088102097615001C
:100CE00026FF00952075089102C005010980A10129
:100CF00085021601002603001A81002A8300751060
:100D000095018100C0050C0901A1018503160100B0
:100D1000269C021A01002A9C02751095018100C0D0
:100D200005010902A1010901A1000509190129050F
:100D30001500250195057501810295017503810155
:100D40000501093009311581257F95027508810655
:100D500009381581257F950175088106050C0A382B
:100D6000021581257F950175088106C0C00501091E
:100D700006A101050719E029E71500250195087569
:100D80000181029501750881010508190129059560
:100D90000575019102950175039101050719002957
:100DA000FF150026FF00950675088100C00011247C
:100DB0001FBECFEFDAE0DEBFCDBF04B603FE27C013
:100DC0008091000290910102A0910202B091030271
:100DD0008730904BA740B04BD1F410920002109294
:100DE0000102109202021092030214BE84B7877FA0
:100DF00084BF0FB6F894A8958091600088618093B5
:100E00006000109260000FBEE0E0FFE3099511E082
:100E1000A0E0B1E0E4EBF2E502C005900D92A4344D
:100E2000B107D9F722E0A4E4B1E001C01D92A030DF
:100E3000B207E1F70E947A230C9458290C94000021
:100E4000FF93EF93E0914401F0914501309709F051
:100E50000995EF91FF910895FC018591803011F083
:100E6000EFDFFBCF0895FF27E0E230E247FF0CC041
:100E7000419597FF09C0EDE260957095809590953A
:100E8000611D711D811D911D27FF02C0219530E359
:100E900050E2AA27660F771F881F991FAA1FA41761
:100EA00010F0A41B63955A95A9F7AA3008F0A95F22
:100EB000A05DAF93F395611571058105910541F72B
:100EC000ED3211F4EF93F395F21718F43F93F39585
:100ED000FBCF8F91B5DFFA95E1F70895E991F9918C
:100EE0008591803021F0853219F0AADFF9CF08957D
:100EF00020E0E89455915532C1F3503311F46894D1
:100F000055915A3348F4505390F3220F022E220F7A
:100F1000220F200D250FF4CF0EF421958991999180
:100F2000533619F3533729F1533559F1BC0188274A
:100F30009927E8945C3621F48991999168945591A8
:100F4000543639F446EF7EF077FF0DC08FEF9FEFF8
:100F50000AC055374AE039F0583540E121F05236A1
:100F600042E009F00895FF93EF937DDFEF91FF9149
:100F7000B7CFFF93EF93FC0181918030B9F360DF2D
:100F8000FBCFFF93EF9368DFF1CFDF93CF93CDB724
:100F9000DEB72596A3DFCF91DF9108950C94E50B82
:100FA00061110BC0FC018281882321F085EE0E9433
:100FB000EB0E03C085EE0E94FA0F80E090E00895EA
:100FC00081E0089581E008950C94E2070E943313B4
:100FD0002FEF84E39CE0215080409040E1F700C077
:100FE00000000C94711A0F931F93CF93DF938C0121
:100FF000FC01C081D181CE010E94F917BE010E947F
:101000003A09EC01B8010E94E407882309F422C1DF
:10101000B801CE010E94960B882309F41BC1C5318B
:10102000FCE5DF0791F50E94AB18282FF8018281BB
:101030004091000150910101882379F02A7A91E0D2
:1010400009F490E090934601911102C069E201C059
:1010500065E3CA010E9482190AC08091460181118C
:1010600002C069E201C065E3CA010E9484190E94BE
:10107000781881E080934B0180934C01C801DF9187
:10108000CF911F910F910C94E007C6318CE5D807E2
:1010900008F075C0C130ECE5DE0779F4F801828113
:1010A000882309F4D7C08091D00181608093D0015A
:1010B00082E994E00E942C07CDC0C230FCE5DF0736
:1010C00008F451C0F80182818823C1F20E943319CB
:1010D000811102C00E9419190E94461990E0909354
:1010E000F2018093F101FE01E350FC45E231F1058C
:1010F00030F4EA5AFF4F8091F1010C940829809155
:10110000F101816027C0826025C0846023C08061B6
:1011100021C080621FC080641DC080681BC08460C5
:10112000886018C08E7F16C08D7F14C08B7F12C060
:101130008F7E10C08F7D0EC08F7B0CC08F770AC052
:101140008B7F877F07C087FB222720F991E09227BA
:1011500090FB87F98093F1018091F1010E944A1977
:101160000E94331377C0C115DC4509F082CFF80126
:101170008281882309F46EC00E94E6076BC0C53DDA
:10118000ECE5DE0739F5F8018281882361F01092E1
:101190004C010E94091A90934A018093490180E210
:1011A0000E94591057C080914C0181110FC080914D
:1011B000490190914A010E94211A883C910530F41E
:1011C00087E20E94EB0E87E20E94FA0F80E20E9403
:1011D000601040C0C63DFCE5DF0738F5C43DDC4586
:1011E00009F047CFF8018281882351F010924B011A
:1011F0000E94091A909348018093470182E0D0CF62
:1012000080914B0181110FC080914701909148015D
:101210000E94211A883C910530F486E20E94EB0E70
:1012200086E20E94FA0F82E0D2CFC83DECE5DE07ED
:1012300031F4F8018281882369F080E009C0C93D5A
:10124000DC4509F016CFF8018281882319F082E08D
:101250000E94202480E0DF91CF911F910F9108958B
:101260000C94CE070C94E70B08950C9434090C945D
:10127000350908959EE0799FF001112496E4899F35
:10128000E00DF11D1124E60FF11DEE0FFF1FE65BCF
:10129000FE4F859194910895880F991FFC01E65B9C
:1012A000FE4F859194910895CF93DF930E943A0960
:1012B0000E94EC0AEC01811520E49207B0F581153B
:1012C00040E3940708F0E1C0803E9105D0F4803CF3
:1012D000910508F06FC0883A910570F4853A910540
:1012E00008F06BC08130910509F472C108F429C17E
:1012F000049708F06DC125C18D3B910508F468C0C5
:1013000020C18F3F910509F048F4803F910508F016
:10131000B6C0883E910508F45BC113C1811550E247
:10132000950708F455C19F70ACC0811564E5960718
:10133000D8F4C11583E5D80708F0E2C0C11521E54E
:10134000D20740F4C11540E5D40708F0A7C0DF700C
:10135000D06A3EC1C11552E5D50708F0BBC0DC2FED
:10136000CC27C16FD06A34C1811566E5960750F469
:10137000C11585E5D80708F0D9C0DC2FCC27C46F8C
:10138000D06A26C1811528E5920708F4DAC08115D4
:1013900049E5940708F4D0C090568115904208F0B2
:1013A000D0C08D2F8F710E94690BDD27D0628F71A5
:1013B000D82B0EC1805C910964C0853A910509F46F
:1013C000C3C0863A910509F0C2C0C2E8D0E400C1AA
:1013D000883A910509F4BEC0893A910509F4BDC067
:1013E0008A3A910509F4BCC08B3A910509F4BBC057
:1013F0008C3A910509F4BAC08B3B910509F4B9C048
:101400008C3B910509F4B8C08D3A910509F4B7C039
:10141000803B910509F4B6C08E3A910509F4B5C038
:101420008F3A910509F4B4C0813B910509F4B3C02A
:10143000823B910509F4B2C0833B910509F4B1C028
:10144000843B910509F4B0C0853B910509F4AFC018
:10145000863B910509F4AEC0873B910509F4ADC008
:10146000883B910509F4ACC0893B910509F4ABC0F8
:101470008A3B910509F4AAC0C0E0D4E4A9C0D065B4
:10148000A7C00E944C09EC01A3C09927D3FF03C059
:10149000EC01D86C9DC0EC01D06C9AC02C2F23704D
:1014A00081E090E002C0880F991F2A95E2F79C68BE
:1014B0009E0144E0369527954A95E1F72370922BDB
:1014C000CF70C695C69560E2C69FE0011124C82B77
:1014D000D92B7EC02C2F2695269580E2289F90013F
:1014E0001124C370DD2781E090E0AC0102C0440FFD
:1014F000551FCA95E2F7EA01C22BD32BDC6868C0FE
:101500002C2F2695269580E2289F90011124C370E8
:10151000DD2781E090E0AC0102C0440F551FCA9561
:10152000E2F7EA01C22BD32BDA6852C0CF71DD2774
:10153000DC2FCC27D0624CC0DC2FCC27C06FD06A08
:1015400047C0C0E0D0E044C0C1E8D0E441C0C3E837
:10155000D0E43EC0C2EED4E43BC0C9EED4E438C00F
:10156000CAEED4E435C0C5EBD4E432C0C6EBD4E453
:101570002FC0C3EBD4E42CC0C4EBD4E429C0C7EB28
:10158000D4E426C0CCECD4E423C0CDECD4E420C019
:10159000C3E8D5E41DC0CAE8D5E41AC0C2E9D5E461
:1015A00017C0C4E9D5E414C0C1E2D6E411C0C3E257
:1015B000D6E40EC0C4E2D6E40BC0C5E2D6E408C04F
:1015C000C6E2D6E405C0C7E2D6E402C0CAE2D6E469
:1015D000CE01DF91CF9108958238910549F1B0F4A1
:1015E0008133910509F458C048F48932910509F412
:1015F0004EC08A32910509F454C00895853391058F
:1016000009F440C08933910599F00895833E91050E
:1016100029F138F4803E910591F0823E9105A1F0C8
:101620000895863E9105F9F0873E910531F10895C0
:101630002091F10120FD3AC021FD38C0089580912C
:10164000F10180FD35C032C08091F10182FF32C0CE
:101650008091F10184FD30C083EE39C08091F101A9
:1016600082FD28C0F5CF8091F10183FF27C08091D2
:10167000F10184FD21C087EE2AC08091F10183FD34
:101680001DC0F5CF8091F10185FD1AC01BC080916E
:10169000F10185FD17C014C08091F10186FD14C0D1
:1016A00015C08091F10186FD11C00EC080EE0FC003
:1016B00089E30DC082EE0BC080E009C086EE07C052
:1016C00089E205C085E303C08AE201C081E390E0BE
:1016D0000895CF93C82F0E94461990E09093F2018D
:1016E0008093F10182FF0DC09C2F9871983019F4FE
:1016F000C77FC46006C09C2F9471943011F4CB7FD7
:10170000C86083FF0DC09C2F9871983119F4C77E73
:10171000C46106C09C2F9471943111F4CB7EC861D2
:1017200084FDC77E8C2FCF91089508950F931F934A
:10173000CF93FB012281211102C0C1E041C08C0185
:10174000C0915A01C11125C086319C45B1F70E9454
:10175000950B81E080935A010E94091A90935901D8
:101760008093580110924D0110924F0110924E013A
:101770001092510110925001109253011092520197
:101780001092550110925401109257011092560177
:1017900017C080915801909159010E94211A883CEC
:1017A000910558F690914D01E92FF0E0EE0FFF1FE3
:1017B000E25BFE4F118300839F5F90934D01C0E079
:1017C0008C2FCF911F910F910895089508950C9437
:1017D000E60B85B7806885BF85B7806885BFA1E2C5
:1017E000B1E041E050E025E02A0F8D91E82FE2952D
:1017F000EF70F0E031A18F70BA0102C0660F771F61
:101800008A95E2F7CB01962F9095932391A392A10D
:10181000892B82A32A13E9CFA3E1B1E041E050E094
:101820002EE02A0F8D91E82FE295EF70F0E031A1C4
:101830008F70BA0102C0660F771F8A95E2F7CB015D
:10184000962F9095932391A392A1892B82A32A137B
:10185000E9CFE5E6F1E0ABE5B1E0119211921D921E
:101860001D9271E0EF36F707C1F70C9430092F9203
:101870003F925F926F927F928F929F92AF92BF92B0
:10188000CF92DF92EF92FF920F931F93CF93DF934C
:1018900021E2C22E21E0D22E0BE511E0E801EE2478
:1018A000E394F12C662463945E0188809980198208
:1018B0001882D6018D916D01E82FE295EF70F0E06E
:1018C00021A18F70A70102C0440F551F8A95E2F72E
:1018D000CA01242B21A322A1742E7094272122A3B4
:1018E00050EA5A95F1F793E1292E91E0392E20E044
:1018F00030E0D1017D911D01472F42954F7050E09E
:10190000DA0190965C90488159817F70D70102C0BE
:10191000AA0FBB1F7A95E2F7BD01652141F4B7011B
:10192000022E02C0660F771F0A94E2F702C060E041
:1019300070E0462B572B598348832F5F3F4F2E3043
:101940003105B9F691A1792271A292A1892B82A3C6
:101950002296F501808191818816990641F0609266
:101960006F010E94091A9093710180937001F1E058
:10197000C536DF0709F098CF80916F018823B1F059
:1019800080917001909171010E94211A069770F068
:10199000E5E6F1E0D8018D919D918D0181939193C0
:1019A000B1E005361B07B1F710926F010E943209B2
:1019B00081E0DF91CF911F910F91FF90EF90DF9029
:1019C000CF90BF90AF909F908F907F906F905F90DF
:1019D0003F902F900895E82FF0E0EE0FFF1FEB5996
:1019E000FE4F808191810895CF92DF92EF92FF9216
:1019F0000F931F93CF93DF9383EB94E00E942C0708
:101A000085E6E82E81E0F82EC0E0D0E09EEAC92EFF
:101A100094E0D92E05EA14E0DF93CF93DF92CF92C2
:101A20000E94C5078BEA94E00E942C07F701819180
:101A300091917F010E94FF189F938F931F930F93A3
:101A40000E94C50783EA94E00E942C0721968DB777
:101A50009EB708960FB6F8949EBF0FBE8DBFC530D7
:101A6000D105D1F6DF91CF911F910F91FF90EF90AB
:101A7000DF90CF9008959093770180937601089539
:101A8000E0917601F0917701309721F00190F0819B
:101A9000E02D099480E00895EF92FF920F931F9339
:101AA000CF93DF93E0917601F09177013097B1F118
:101AB0008C010280F381E02D09958091D00182FF95
:101AC0002DC080FF04C082ED94E00E942C07E80145
:101AD00018E08CECE82E84E0F82E8091D00180FF95
:101AE0000BC088811F928F93FF92EF920E94C507CF
:101AF0000F900F900F900F90115021961111EDCF74
:101B00008091D00180FF0AC08AEC94E0DF91CF91F0
:101B10001F910F91FF90EF900C942C07DF91CF91C4
:101B20001F910F91FF90EF900895E0917601F09151
:101B30007701309721F00480F581E02D0994089514
:101B400020917401309175018217930771F0909381
:101B5000750180937401E0917601F09177013097DF
:101B600021F00680F781E02D0994089520917201FB
:101B7000309173018217930771F0909373018093F2
:101B80007201E0917601F0917701309721F00084A5
:101B9000F185E02D0994089508950C94CC0D81E011
:101BA00008950E94001A0E94E90B0C94931ACF9397
:101BB000C82F8091D00182FF1EC080FF04C08BEE31
:101BC00094E00E942C078091D00180FF0CC01F92EE
:101BD000CF9386EE94E09F938F930E94C5070F905A
:101BE0000F900F900F908091D00180FF04C084EE81
:101BF00094E00E942C078C2FCF910C9437094F92C0
:101C00005F927F928F929F92AF92BF92CF92DF921C
:101C1000EF92FF920F931F93CF93DF93CDB7DEB771
:101C20002A970FB6F894DEBF0FBECDBF0E94370CC7
:101C30000E94CF0D811111C08FEF89838A831B828F
:101C40000E94091A8160782F9D838C8349815A8173
:101C50006B818D810E94BD0E57C099E7C92E91E01E
:101C6000D92E00E010E0AA24A394B12C702E802F6E
:101C70000E94EB0C4C01F601419051906F014826F7
:101C800059264114510431F40F5F1F4F05301105DF
:101C900069F7D2CF8091D00181FD0E94F40C20E041
:101CA00030E07501022E02C0EE0CFF1C0A94E2F730
:101CB000C70184219521892B09F12E837F828E20F3
:101CC0009F2091E0892809F490E098870E94091AE2
:101CD0008160782F9A8789874E815F8168858A85A0
:101CE0000E94BD0E000F111FF801E758FE4F8081C2
:101CF0009181E826F926F182E08206C02F5F3F4FEE
:101D00002E30310571F6C0CF0E94A81C10917801C9
:101D10000E94400D1817D9F00E94400D8093780161
:101D20002A960FB6F894DEBF0FBECDBFDF91CF91DC
:101D30001F910F91FF90EF90DF90CF90BF90AF90E9
:101D40009F908F907F905F904F900C94D70D2A9624
:101D50000FB6F894DEBF0FBECDBFDF91CF911F91BC
:101D60000F91FF90EF90DF90CF90BF90AF909F903A
:101D70008F907F905F904F900895CF93DF93CDB772
:101D8000DEB72B970FB6F894DEBF0FBECDBF4F83E3
:101D9000588769877A878B87DE01119686E0FD0177
:101DA00011928A95E9F785E0FE01379601900D9230
:101DB0008A95E1F749815A816B817C818D819E8171
:101DC0000E94CB152B960FB6F894DEBF0FBECDBF89
:101DD000DF91CF910895CF93DF931F92CDB7DEB7F8
:101DE000882309F403C1682F8238C1F40E94400D92
:101DF00081FDFCC069E380910001909101010E9486
:101E000082190E9478182FEF81EE94E021508040D3
:101E10009040E1F700C0000069E319C0833811F574
:101E20000E94400D80FDE2C063E580910001909129
:101E300001010E9482190E9478182FEF81EE94E030
:101E4000215080409040E1F700C0000063E58091A0
:101E50000001909101010E9484190F90DF91CF91B0
:101E60000C9478188438C1F40E94400D82FDBEC0E5
:101E700067E480910001909101010E9482190E9403
:101E800078182FEF81EE94E0215080409040E1F7E8
:101E900000C0000067E4DBCF8CEF860F813A70F45E
:101EA000862F69830E94C81F698181119FC080911C
:101EB0000001909101010E948219CFCF80E2860F2C
:101EC000883048F4677081E001C0880F6A95EAF7AE
:101ED0000E94AE18C2CF8BE5860F833088F4653A36
:101EE00029F0663A31F083E890E005C081E890E09F
:101EF00002C082E890E00F90DF91CF910C94A00D8A
:101F000088E5860F853108F071C0683A61F1693A59
:101F100069F16A3A71F16B3A79F16C3A81F16B3B94
:101F200089F16C3B91F16D3A99F1603BA1F16E3A08
:101F3000A9F16F3AB1F1613BB9F1623BC1F1633B89
:101F4000C9F1643BD1F1653BD9F1663BE1F1673BF7
:101F5000E9F1683BF1F1693BF9F16A3B09F43FC0F3
:101F600080E090E03EC082EE90E03BC089EE90E0E1
:101F700038C08AEE90E035C085EB90E032C086EB49
:101F800090E02FC083EB90E02CC084EB90E029C060
:101F900087EB90E026C08CEC90E023C08DEC90E0C5
:101FA00020C083E891E01DC08AE891E01AC082E970
:101FB00091E017C084E991E014C081E292E011C081
:101FC00083E292E00EC084E292E00BC085E292E0F0
:101FD00008C086E292E005C087E292E002C08AE291
:101FE00092E00F90DF91CF910C94B60D0F90DF919E
:101FF000CF910895882309F45BC0682F823879F463
:102000000E94400D81FF54C069E3809100019091CE
:1020100001010E9482190E94781869E310C0833878
:10202000B1F40E94400D80FF43C063E58091000140
:10203000909101010E9482190E94781863E58091B5
:102040000001909101010E9484190C947818843841
:1020500079F40E94400D82FF2BC067E4809100015B
:10206000909101010E9482190E94781867E4E7CFDD
:102070008CEF860F813A18F380E2860F883048F49F
:10208000677081E001C0880F6A95EAF70E94B41872
:10209000DCCF8BE5860F833020F480E090E00C9459
:1020A000A00D685A653120F480E090E00C94B60DE4
:1020B0000895882321F00E94AE180C947818089592
:1020C000882321F00E94B4180C94781808954F9238
:1020D0005F926F927F92AF92BF92CF92DF92EF9218
:1020E000FF920F931F93CF93DF931F92CDB7DEB76D
:1020F0007C01A72EFC01058102950F70128111232E
:1021000021F069830E94CB18698169830E9471184C
:102110006981882381F0112371F080E2860F883075
:1021200050F082E00E945A180E94711891E0B82E77
:10213000B926698101C0B12CCA2CC2948FE0C82293
:10214000D12CF601E859FF4F0C9408298A2D807F85
:102150000A2D0F70882311F00295007F1123C1F022
:10216000002309F4DCC180E2860F883010F0611191
:1021700005C0802F69830E94AE1804C0802F698338
:102180000E94BE18698169830E9478186981C7C15D
:10219000862F69830E94FA0F6981002309F4E2C146
:1021A00080E2860F883010F0611104C0802F0E94F9
:1021B000B41803C0802F0E94C4180E947818D2C19E
:1021C0008A2D807F9A2D9F70803211F4892F03C051
:1021D000892F8295807F662319F06130B1F01FC08E
:1021E000112349F0002309F452C1013009F04FC115
:1021F0000E94DE18B7C1002319F0013009F4B2C102
:1022000089830E94E118898148C1112321F0063099
:1022100008F0A8C13CC1053008F0A4C13EC111239B
:1022200051F0002309F433C1F701958190FF77C184
:102230009F7095832CC1002309F42FC181C18A2D81
:1022400086958695837090E0009719F0019761F06C
:1022500089C1112321F0862F9A2D937002C080E04E
:1022600090E00E94A00D8EC1112321F0862F9A2D9F
:10227000937002C080E090E00E94B60D83C11123EC
:10228000F9F0653F51F0663F71F0643FA9F4809129
:10229000EB019091EC0181600BC08091EB0190917A
:1022A000EC01826005C08091EB019091EC018460AB
:1022B0009093EC018093EB01862F0E942E1B1EC091
:1022C000653F51F0663F71F0643FA9F48091EB01E6
:1022D0009091EC018E7F0BC08091EB019091EC010D
:1022E0008D7F05C08091EB019091EC018B7F9093E5
:1022F000EC018093EB01862F0E94961B0E941B1C11
:1023000041C18A2D837009F052C0111137C1862F47
:10231000829586958770880F880F962F9F70492E1B
:10232000512C612C712C082E04C0440C551C661CC9
:10233000771C0A94D2F764FF14C00FE010E020E08D
:1023400030E0B901A80104C0440F551F661F771F74
:102350008A95D2F7CB01BA016095709580959095DA
:1023600003C060E070E0CB012A2D269526952370EE
:1023700030E02230310569F02330310589F06429DD
:102380007529862997292130310571F00E940E1791
:10239000F5C064297529862997290E942017EEC067
:1023A0000E940E17C301B2010E94FC16E7C0112360
:1023B00019F08A2D817001C08695882309F4DEC04A
:1023C000862F829586958770880F880F962F9F702D
:1023D000492E512C612C712C082E04C0440C551C24
:1023E000661C771C0A94D2F764FF14C00FE010E05B
:1023F00020E030E0B901A80104C0440F551F661F5A
:10240000771F8A95D2F7CB01BA01609570958095B8
:10241000909503C060E070E0CB012A2D26952695AB
:102420002370422F50E04230510569F0433051058E
:1024300089F064297529862997294130510571F061
:102440000E94D4179BC064297529862997290E9468
:10245000E61794C00E94D417C301B2010E94C217AC
:102460008DC0862F90E0FC01E05EF109E531F105B9
:1024700008F051C0E858FF4F0C940829062F0F7040
:102480008A2D8F71112331F00E945B17802F0E94DB
:10249000591068C00E947C17802F0E94601062C093
:1024A000112341F0053008F05DC08A2D8F710E9424
:1024B000A11758C0063008F055C0F7CF112339F0E6
:1024C0008A2D8F710E945B174DC01123C9F38A2D8D
:1024D0008F710E947C1746C0112329F08A2D8F71BD
:1024E0000E9446173FC00E9441173CC0112351F083
:1024F0001A2D1F71812F0E945B1763E0812F0E94AC
:10250000511830C081E00E945A18023058F182E020
:102510000E945A1827C0112331F0002389F2862F18
:102520000E94EB0E1FC0002391F2693349F45FEF64
:1025300077EE83E0515070408040E1F700C000002A
:10254000862F0E94FA0F0EC04A2D4F70C7010E94BD
:10255000D0070E946F1616C04A2D4F70C7010E9407
:10256000390910C098E0C916D10441F05CF0FAE0D6
:10257000CF1AD10822E0C216D10420F40E94400DE7
:102580000E943709BB2001F10E944D1880FD1CC03C
:10259000F70112820E9447180E945B17C7010E9430
:1025A000F4120E9447180F90DF91CF911F910F9165
:1025B000FF90EF90DF90CF90BF90AF907F906F90A3
:1025C0005F904F900C947C170F90DF91CF911F91EB
:1025D0000F91FF90EF90DF90CF90BF90AF907F90E2
:1025E0006F905F904F9008950F931F93CF93DF9359
:1025F000EC01888199812B813C81232BB9F09F3F8D
:1026000011F48F3F99F0CE010E94F307882371F0F7
:10261000688179818A810E9443188C010E94F81791
:102620000E94F916B801CE010E946710DF91CF9188
:102630001F910F9108950E94CB180E94DB18809182
:102640000001909101010E9486190E9478180E9451
:10265000361D0E941B1C80E090E00E94A00D80E0CF
:1026600090E00C94B60D0E94BB180C941B130E94B2
:102670003818E92FE295EF70F0E03297EE30F1056F
:10268000B0F4E357FF4F0C940829803F91F018F401
:10269000803E68F40EC0843F51F40BC0803E48F089
:1026A000813F29F406C093FB882780F9089580E0D4
:1026B000089581E00895CF93DF9300D000D01F925A
:1026C000CDB7DEB70F900F900F900F900F90DF9166
:1026D000CF910895CF93DF9300D000D000D0CDB735
:1026E000DEB726960FB6F894DEBF0FBECDBFDF91E2
:1026F000CF9108951F93CF93DF93C091830116E08C
:1027000080918401C81799F0D0E01C9FF0011D9FB3
:10271000F00D1124EB57FE4F40815181628173818E
:10272000848195810E946A132196C770E9CFDF9159
:10273000CF911F9108954091B5015091B6016091DC
:10274000B7017091B8018091B9019091BA010C94D0
:102750006A138091BA0182958F7009F054C08091FC
:10276000B701882309F44FC080918301A0918401AF
:102770006091B5017091B6014091B8015091B901D5
:10278000B6E08A1709F43FC090E041155105C1F148
:102790007F3F11F46F3FA1F1B89FF001B99FF00D99
:1027A0001124EB57FE4F218172132AC0208162133E
:1027B00027C02281211124C02381348124173507A9
:1027C00010F421503109241B350B283C3105C0F48D
:1027D0002091BA012F7020612093BA0126E0289F32
:1027E000F001299FF00D1124E657FE4F80818F7074
:1027F0008061808385EB91E00E94F4120C947A133F
:1028000001968770BECF0895CF92DF92EF92FF922C
:102810000F931F93CF93DF93CDB7DEB762970FB6B9
:10282000F894DEBF0FBECDBF8C0185E0F801DE015C
:102830001D9601900D928A95E1F7D8014C91119661
:102840005C91119712966C9112971396CD90DC9033
:1028500014973091B5017091B6018091B8019091B3
:10286000B901009709F46BC17F3F19F43F3F09F4A8
:1028700066C1E090B701EE2009F4C0C02091BA0112
:10288000C816D90628F0F601E81BF90BCF0104C0E1
:10289000809590958C0D9D1DFF24F394883C9105A7
:1028A00078F0F12C207F09F0C6C07C2DD98AC88A27
:1028B00089890E945B1385EB91E00E94F412B1C0FC
:1028C000822F807F09F046C0751314C0341312C0E4
:1028D000611110C02F7020612093BA010E949B13D8
:1028E00085EB91E00E94F4128091BA01D80115960F
:1028F0008C932EC0CD2819F15F3F11F44F3FF9F0B2
:10290000F62E61111CC0809183012091840136E074
:10291000821709F45AC090E0389FF001399FF00DFA
:102920001124EB57FE4F7181571306C07081471376
:1029300003C07281711103C001968770E9CFF62E32
:10294000662309F418C18091BA0181608093BA01AD
:10295000F12C11C1751308C0341306C0611104C0F5
:102960008091BA01D801C3C04D875E878D859E8551
:102970006A8B0E9437136A898823E1F16623D1F1BB
:102980002091BA01822F82958F7090E0029774F0A7
:102990008091B5019091B60198878F831986DB8667
:1029A000CA862C87CE0107960E94F41286E0F801B1
:1029B000A5EBB1E001900D928A95E1F70E94A91371
:1029C0000E949B13FF24F394D6C04D875E878D85AC
:1029D0009E850E943818292F22952F7030E02230D2
:1029E00031050CF0BCC09F7009F0B6C0805E883025
:1029F00008F4C1C0C8010E94F412E4CFC816D90679
:102A000008F453C0F601E81BF90BCF01883C91058F
:102A100008F450C0F12C7C2DD98AC88A89890E947B
:102A20005B13E5EBF1E086E0DF011D928A95E9F7A3
:102A30000E949B13A0C0751314C0341312C06111FF
:102A400010C08091BA01F8018583C8010E94F41278
:102A500086E0E5EBF1E0DF011D928A95E9F7FE2CB7
:102A60008AC04D875E878D859E856A8B0E9437134D
:102A70006A89882309F4BECF662309F4BBCF20916D
:102A8000BA01822F82958F7090E002970CF48ECF5E
:102A90008091B5019091B6019A8389831B82DD8272
:102AA000CC822E83CE0101967FCF809590958C0DA0
:102AB0009D1DACCFF62E662309F49CCF75132EC056
:102AC00034132CC02091BA0120FD1FC0822F8295A3
:102AD0008F70D9F0D80115962C9315978F3049F047
:102AE0008F5F982F9295907F822F8F70892B1596EC
:102AF0008C93C8010E94F41286E0F801A5EBB1E0C6
:102B000001900D928A95E1F793CF86E0F801A5EB4D
:102B1000B1E001900D928A95E1F72DC04D875E8757
:102B20008D859E850E943713811140CF8091BA0117
:102B300081608093BA01C8010E94F4121CC0662310
:102B400009F458CF4D875E878D859E850E94371387
:102B5000882309F44FCF2ACF811148CF0CC02430ED
:102B600031050CF047CF9F7009F440CFF8019581F3
:102B7000907F09F03BCF8F2D62960FB6F894DEBFA1
:102B80000FBECDBFDF91CF911F910F91FF90EF90BE
:102B9000DF90CF9008951F93CF93DF93CDB7DEB72B
:102BA0002C970FB6F894DEBF0FBECDBF4F8358876A
:102BB00069877A878B879C87CE0107960E940414C9
:102BC000882369F08F8198852A853B85232BF1F135
:102BD0009F3F09F063C08F3F09F060C037C086E0B7
:102BE000FE013796DE01119601900D928A95E1F76C
:102BF0006F817885EA85FB85309741F17F3F11F43D
:102C00006F3F21F12091840130E0C9010196877066
:102C100099274091830150E08417950709F447C034
:102C200069837A83FD83EC8396E0929FD001939F22
:102C3000B00D1124AB57BE4FFE01319601900D929D
:102C40009A95E1F7809384010E947A1316E08091AF
:102C50008301909184018917C1F1189FC00111244B
:102C60008B579E4F0E940414882379F1E0918301D1
:102C70001E9FF0011124EB57FE4F4081518162816C
:102C80007381848195810E946A138091830190E011
:102C900001968770992780938301D9CF4F815885FA
:102CA00069857A858B859C850E946A13CFCF0E94A7
:102CB00033131092840110928301E5EBF1E086E07A
:102CC000DF011D928A95E9F7C1CF2C960FB6F894D3
:102CD000DEBF0FBECDBFDF91CF911F910895EF9260
:102CE000FF920F931F93CF93DF938C01892B09F4ED
:102CF0006CC0F12CEE24E394E8012196F801849154
:102D0000843740F4843008F051C0813081F0823043
:102D100019F15BC0853709F444C0A8F19CE7980F0E
:102D2000903708F052C08F770E94FA0F41C00E5FB3
:102D30001F4FFE01C49180E28C0F883048F4C770A9
:102D40008E2D01C0880FCA95EAF70E94CE1814C0D4
:102D50008C2F0E94EB0E2DC00E5F1F4FFE01C49101
:102D600080E28C0F883058F4C7708E2D01C0880F18
:102D7000CA95EAF70E94D4180E9478181AC08C2FBE
:102D80000E94FA0F16C00E5F1F4FFE01C491CC23A4
:102D900081F08FE99FE00197F1F700C00000C1507A
:102DA000F6CF0E5F1F4FFE01F49003C00E94EB0EA2
:102DB0008E018F2D882309F49FCFEFE9FFE0319733
:102DC000F1F700C000008150F5CFDF91CF911F9146
:102DD0000F91FF90EF90089508950E94EC16609374
:102DE000BF017093C0018093C1019093C2010C9404
:102DF0001B1308950C94ED160F931F930091BF01C0
:102E00001091C0012091C1013091C201602B712B42
:102E1000822B932B1F910F910C94ED160F931F9300
:102E20000091BF011091C0012091C1013091C201F8
:102E300060237123822393231F910F910C94ED162D
:102E40000F931F930091BF011091C0012091C10108
:102E50003091C20160277127822793271F910F911C
:102E60000C94ED1608950C9432170E94331760935A
:102E7000BB017093BC018093BD019093BE010C9483
:102E80001B1360E070E0CB010C9435170F931F9378
:102E900041E050E060E070E08A019B0104C0000F57
:102EA000111F221F331F8A95D2F7C901B8011F9144
:102EB0000F910C9435170F931F9341E050E060E0A1
:102EC00070E004C0440F551F661F771F8A95D2F724
:102ED0008091BB019091BC01A091BD01B091BE0158
:102EE0008A019B01082B192B2A2B3B2BC901B80106
:102EF0001F910F910C9435170F931F9341E050E0F1
:102F000060E070E004C0440F551F661F771F8A956C
:102F1000D2F740955095609570958091BB01909146
:102F2000BC01A091BD01B091BE018A019B010823A3
:102F300019232A233B23C901B8011F910F910C9437
:102F400035170F931F9341E050E060E070E004C03C
:102F5000440F551F661F771F8A95D2F78091BB01DA
:102F60009091BC01A091BD01B091BE018A019B016D
:102F7000082719272A273B27C901B8011F910F915C
:102F80000C9435170F931F930091BB011091BC0156
:102F90002091BD013091BE01602B712B822B932BB0
:102FA0001F910F910C9435170F931F930091BB0144
:102FB0001091BC012091BD013091BE0160237123AD
:102FC000822393231F910F910C9435170F931F9316
:102FD0000091BB011091BC012091BD013091BE0157
:102FE00060277127822793271F910F910C94351723
:102FF0000895CF92DF92EF92FF920F931F93CF939A
:10300000DF938C01C090BF01D090C001E090C1015E
:10301000F090C2018091BB019091BC01A091BD01D3
:10302000B091BE01C82AD92AEA2AFB2ACFE1D0E012
:10303000D701C6010C2E04C0B695A7959795879524
:103040000A94D2F780FF06C0B8018C2F0E94540961
:10305000019721F4219760F780E001C08C2FDF9168
:10306000CF911F910F91FF90EF90DF90CF90089537
:10307000CF93DF93EC010E94F917BE010E9454091F
:10308000DF91CF910895CB010E9438180895809167
:10309000C30185958595859508958091C3018770B5
:1030A000089598E0899F90011124262B2093C30155
:1030B0000C945B172091C301809582238093C301F8
:1030C000982F977069F430E0482F082E000C550BAC
:1030D0002417350729F08595859585950C947C17DF
:1030E00008959091C301977081E009F480E00895FC
:1030F000E0910001F09101018091CF018083E09186
:103100000001F091010190818091CE01892B808393
:10311000E0910001F091010190818091CD01892B16
:1031200080838091C401882381F0E0910001F091B7
:1031300001019081892B8083809100019091010190
:103140000E944F1981111092C40180910001909149
:1031500001010C944C0D8091CF0108959091CF0105
:10316000892B8093CF01089580959091CF01892379
:103170008093CF0108951092CF0108959091CE01D0
:10318000892B8093CE01089580959091CE0189235B
:103190008093CE0108951092CE0108959091CD01B3
:1031A000892B8093CD01089580959091CD0189233D
:1031B0008093CD0108951092CD0108958093C401AC
:1031C00008951092C401089590934501809344019D
:1031D00008958295982F9C7C392F36953695282F07
:1031E000237344E0249FC0011124932F982B292F8F
:1031F0002A7A2695892F8575880F822B08951F932B
:10320000CF93DF931F92CDB7DEB799830E94E91861
:10321000182F9981892F0E94E918212F30E0322F31
:103220002227A901482BCA010F90DF91CF911F914E
:1032300008956DEE7EEF80E090E00E94422960E00C
:1032400082E090E00E94302960E083E090E00E94FC
:10325000302960E084E090E00E94302960E085E061
:1032600090E00C94302980E090E00E942A2921E02F
:103270008D3E9E4F09F020E0822F089582E090E07D
:103280000C94222983E090E00C94222984E090E0C1
:103290000C942229682F84E090E00C943029FC01E2
:1032A00031969C01285F3F4F80E0919191118F5F93
:1032B000E217F307D1F708959C01FC0132969FEFC6
:1032C00080E04191461789F09F3F19F4411101C0F8
:1032D000982F8F5F8630A9F79F3F39F0F901E90FEA
:1032E000F11D97FDFA95628308950895FC013296C9
:1032F00008962081261301C010823196E817F9073D
:10330000C1F708950C945C190C947619FC01319660
:1033100008961192E817F907E1F708958091F701EF
:10332000843039F11092D10120E488E190E00FB6A9
:10333000F894A895809360000FBE2093600080E011
:103340000E94370983B7817F846083BF83B7816020
:1033500083BF7894889583B78E7F83BF0FB6F89428
:10336000A895809160008861809360001092600051
:103370000FBE089508950895CF930E94BA190E9430
:10338000370C0E94BB19C0E08C2F0E94EB0C892BDC
:1033900029F4CF5FC530C1F780E001C081E0CF9153
:1033A00008950E9433130E94400D0C9437091F9218
:1033B0000F920FB60F9211248F939F93AF93BF93E9
:1033C0008091D101811113C08091ED019091EE01A6
:1033D000A091EF01B091F0014196A11DB11D809324
:1033E000ED019093EE01A093EF01B093F001BF9136
:1033F000AF919F918F910F900FBE0F901F901895D6
:1034000082E084BD93E095BD9AEF97BD80936E00F6
:1034100008952FB7F8948091ED019091EE01A0915D
:10342000EF01B091F0012FBF08952FB7F89460918C
:10343000ED017091EE018091EF019091F0012FBFAD
:103440000895CF92DF92EF92FF920F931F932FB7C1
:10345000F8944091ED015091EE016091EF0170916F
:10346000F0012FBF6A017B01EE24FF248C0120E0D4
:1034700030E0C016D106E206F30610F441505109BF
:103480009A01281B390BC9011F910F91FF90EF90F2
:10349000DF90CF90089578941F920F920FB60F92FD
:1034A00011248F939F93AF93BF938091ED019091DF
:1034B000EE01A091EF01B091F0010196A11DB11DA7
:1034C0008093ED019093EE01A093EF01B093F00192
:1034D000BF91AF919F918F910F900FBE0F901F9052
:1034E00018950E94E225F8942FEF87EA91E6215083
:1034F00080409040E1F700C0000087E090EBDC01E5
:103500008093000290930102A0930202B093030201
:103510009CE088E10FB6F894A895809360000FBEF8
:1035200090936000FFCF0E943319811102C00E9466
:1035300019190E943E198093D0010E94461990E00B
:103540009093F2018093F1010E944219682F70E07C
:1035500080E090E00C94FA168091D40180FF0BC0BB
:103560006091050185E0689FB0011124759567950C
:10357000759567952BC081FF09C06091050185E0B5
:10358000689FB00111247595679520C082FF07C020
:103590006091050185E0689FB001112417C09091EA
:1035A000D5019923D1F060910401961788F72091F5
:1035B000050185E0289F90011124929FA001939F0F
:1035C000500D112470E0CA010E94F4286038710582
:1035D00040F46115710539F002C065E070E0862F96
:1035E00008958FE7089581E008958091D40180FFC8
:1035F00008C06091030170E07595679575956795B2
:1036000021C081FF06C06091030170E07595679548
:1036100019C082FF04C06091030170E010C0909156
:10362000D5019923C1F0609102019617A0F780910E
:103630000301899FC001112470E00E94F4286038C2
:10364000710528F46115710521F0862F08958FE723
:10365000089581E0089561E070E0F4CF803F21F4A7
:103660000E94AC1A819504C0813F29F40E94AC1AD3
:103670008093D8010895823F21F40E94AC1A81956D
:1036800004C0833F29F40E94AC1A8093D7010895A7
:10369000893F19F40E94F51A05C08A3F31F40E944F
:1036A000F51A81958093D90108958B3F21F40E94EA
:1036B000F51A819504C08C3F29F40E94F51A809375
:1036C000DA010895843F21F48091D601816017C00A
:1036D000853F21F48091D601826011C0863F21F49C
:1036E0008091D60184600BC0873F21F48091D60180
:1036F000886005C0883F31F48091D6018061809355
:10370000D60108958D3F21F48091D40181600BC0D2
:103710008E3F21F48091D401826005C08F3F29F44F
:103720008091D40184608093D4010895803F39F45E
:103730008091D80187FF6CC01092D80169C0813F89
:1037400029F48091D8011816BCF362C09091D7017A
:10375000823F29F497FF5CC01092D70159C0833F84
:1037600019F41916CCF354C0893F41F48091D90162
:1037700018160CF04DC01092D9014AC08A3F29F4A6
:103780008091D90187FF44C0F6CF8B3F39F48091F7
:10379000DA0187FF3DC01092DA013AC08C3F29F46C
:1037A0008091DA011816BCF333C0843F21F4809174
:1037B000D6018E7F17C0853F21F48091D6018D7F81
:1037C00011C0863F21F48091D6018B7F0BC0873FCB
:1037D00021F48091D601877F05C0883F31F4809124
:1037E000D6018F7E8093D60113C08D3F21F4809146
:1037F000D4018E7F0BC08E3F21F48091D4018D7F48
:1038000005C08F3F29F48091D4018B7F8093D40130
:103810008091D70181110EC08091D80181110AC019
:103820008091D901811106C08091DA01811102C015
:103830001092D50108958091D00183FF7EC085E26A
:1038400095E00E942C078091D6011F928F9380E211
:1038500095E09F938F930E94C5078EE195E00E94AB
:103860002C078091D701282F082E000C330B3F9393
:103870008F938BE195E09F938F930E94C50789E119
:1038800095E00E942C078091D801282F082E000C6B
:10389000330B3F938F9386E195E09F938F930E9424
:1038A000C50784E195E00E942C078091D901282F5B
:1038B000082E000C330B3F938F9381E195E09F938B
:1038C0008F930E94C5078FE095E00E942C0780919E
:1038D000DA01282F082E000C330B3F938F938CE0D6
:1038E00095E09F938F930E94C50789E095E00E9421
:1038F0002C078091D5011F928F9386E095E09F93CE
:103900008F930E94C50784E095E00E942C07809168
:10391000D4011F928F9381E095E09F938F930E9433
:10392000C5078EEF94E00E942C078DB79EB74C968A
:103930000FB6F8949EBF0FBE8DBF86ED91E00E943A
:10394000950D0E94091A9093D3018093D201089596
:103950001F93CF93DF938091D2019091D3010E9466
:10396000211AAC019091D501992321F020910601F3
:1039700030E006C0209107018AE0289F90011124C1
:103980004217530708F46EC08091D701C091D80147
:10399000D091D9011091DA01811107C0C1115EC027
:1039A000D1115CC011115AC05DC09F3F19F09F5FDB
:1039B0009093D501181624F40E94AC1A8093D70175
:1039C0008091D70187FF05C00E94AC1A8195809332
:1039D000D7011C1624F40E94AC1A8093D801809160
:1039E000D80187FF05C00E94AC1A81958093D80149
:1039F0004091D701442379F03091D801332359F015
:103A000025EB4203A00111245093D7013203C001DA
:103A100011249093D8011D1624F40E94F51A809366
:103A2000D9018091D90187FF05C00E94F51A8195BF
:103A30008093D901111624F40E94F51A8093DA01BB
:103A40008091DA0187FF05C00E94F51A8195809365
:103A5000DA01DF91CF911F910C941B1C9F3F09F05D
:103A6000A6CFAECFDF91CF911F910895E6EDF1E0A3
:103A700085E0DF011D928A95E9F71092D501109239
:103A8000D401089588E497E00E942C071F9281E0FA
:103A90008F931F9285E08F938AEF96E09F938F9389
:103AA0000E94C5070F900F900F900F900F900F90EE
:103AB00008958330E9F128F4813061F0823009F112
:103AC0000895853009F462C008F449C0863009F4CD
:103AD00074C0089580910701262F30E0280F311D12
:103AE0002F3F310524F4680F6093070103C08FEF67
:103AF00080930701809107011F928F9383E396E0E3
:103B000072C080910601262F30E0280F311D2F3F13
:103B1000310524F4680F6093060103C08FEF809392
:103B20000601809106011F928F9381E296E05BC0AF
:103B300080910501262F30E0280F311D2F3F3105E0
:103B400024F4680F6093050103C08FEF8093050193
:103B5000809105011F928F938EE096E044C0809182
:103B60000401262F30E0280F311D2F3F310524F4AA
:103B7000680F6093040103C08FEF8093040180916C
:103B800004011F928F9389EF95E02DC0809103016E
:103B9000262F30E0280F311D2F3F310524F4680F08
:103BA0006093030103C08FEF8093030180910301B1
:103BB0001F928F9380EE95E016C080910201262F10
:103BC00030E0280F311D2F3F310524F4680F60933A
:103BD000020103C08FEF80930201809102011F92C6
:103BE0008F9385EC95E09F938F930E94C5070F906C
:103BF0000F900F900F900895833081F128F4813059
:103C000059F08230D1F00895853009F449C0B8F1F7
:103C1000863009F456C0089580910701681720F492
:103C2000861B8093070102C0109207018091070153
:103C30001F928F9386EB95E054C080910601681720
:103C400020F4861B8093060102C010920601809129
:103C500006011F928F9384EA95E043C0809105018D
:103C6000681720F4861B8093050102C0109205019D
:103C7000809105011F928F9381E995E032C0809178
:103C80000401681720F4861B8093040102C010927F
:103C90000401809104011F928F938CE795E021C06D
:103CA00080910301681720F4861B8093030102C0F2
:103CB00010920301809103011F928F9383E695E098
:103CC00010C080910201681720F4861B80930201C6
:103CD00002C010920201809102011F928F9388E42A
:103CE00095E09F938F930E94C5070F900F900F90C0
:103CF0000F900895CF93C82F1F928F938DE498E073
:103D00009F938F930E94C50781E090E0A0E0B0E010
:103D1000BC01CD0104C0660F771F881F991FCA958B
:103D2000D2F70E94FA160F900F900F900F90CF913C
:103D30000C943313CF93873288F58E3108F00BC182
:103D40008E3009F489C0D8F4873009F461C08B3013
:103D500009F44FC0863009F004C18091D001817F01
:103D60008E7F8093D00186EB99E00E942C0783EF31
:103D70009BE00E942C0781E08093DC0147C08631E4
:103D800009F4B2C020F4803109F47CC0EAC0893162
:103D900009F493C08B3109F44BC0E3C0883349F177
:103DA00050F4893209F4D9C0853309F4D6C087327A
:103DB00009F4D3C0D6C0833409F4CFC028F48A33C1
:103DC00008F4CFC08953CAC0883409F0CAC00E9421
:103DD000331387ED9BE00E942C072FEF83ED90E3D8
:103DE000215080409040E1F700C000000E94711A0D
:103DF0000DC08DED99E043C08EEB9BE00E942C0737
:103E00008091D001897F877F8093D001C1E0AEC0CF
:103E10008091D001C82FC095C170C0FB80F98093FC
:103E2000D001CC2349F38BEC9BE00E942C079EC071
:103E30009091D00191FBCC27C0F981E0C827892F50
:103E4000C0FB81F98093D001CC2319F081EB9BE07A
:103E500029C083EA9BE013C09091D00192FBCC274C
:103E6000C0F981E0C827892FC0FB82F98093D00177
:103E7000CC2319F084E99BE015C084E89BE00E9404
:103E80002C07C4CF9091D00193FBCC27C0F981E0DF
:103E9000C827892FC0FB83F98093D001CC2351F030
:103EA00088E79BE00E942C078091D001816080937D
:103EB000D0015CC08BE69BE0E2CF87EA99E00E94EC
:103EC0002C078FE799E00E942C078EE499E00E946E
:103ED0002C078BE199E00E942C0786EE98E00E9467
:103EE0002C078BEB98E0CBCF8DEA98E00E942C0753
:103EF0000E94400D1F928F9383E998E09F938F93C8
:103F00000E94C507809112011F928F938CE798E061
:103F10009F938F930E94C5078091E9011F928F9311
:103F200089E698E09F938F930E94C5070E94151A17
:103F30009F938F937F936F9382E598E09F938F93E6
:103F40000E94C5078DB79EB742960FB6F8949EBFE4
:103F50000FBE8DBF5BCF8D5101C080E00E947A1EE5
:103F600055CF89E69BE00E942C07C0E08C2FCF91B3
:103F7000089580E0089580E008958E518A3030F4ED
:103F8000E82FF0E0EA5DFE4F8081089580E008951B
:103F9000CF93C82F8091DC01813071F020F0823006
:103FA00009F44BC03FC1E0910001F0910101808113
:103FB000823209F039C107C0E0910001F09101019E
:103FC0008081823261F48C2F0E94B91F811104C05C
:103FD0008C2F0E949A1E2FC081E090E02CC08C2F65
:103FE0000E94BB1F811126C0C431E1F070F4CB30B8
:103FF00081F0C031D1F40E94421D85E498E00E9416
:104000002C0782E08093DC0115C0C93259F0C83317
:1040100061F486EB99E00E942C0789E498E00E9405
:104020002C0708C01092DC0101C183E498E00E94D3
:104030002C07FCC081E08170FBC0C43228F5CE3172
:1040400008F0C1C0CB30A1F1D0F4C73009F0D0C026
:104050008EE18093070182E3809306018AE08093DA
:10406000050184E18093040188E08093030188E2E4
:104070008093020189EE96E00E942C07BCC0C331F8
:1040800049F1C431C1F0B4C0CB3409F4A6C028F45E
:10409000C93289F0C83361F0ABC0C13509F49BC0A7
:1040A000C23509F496C0CE3409F0A2C06AE09BC0C4
:1040B0000E94421DA0C08091DB01882319F010925C
:1040C000DB0199C086EF96E00E942C0781E0809387
:1040D000DC01AEC080ED96E00E942C078EEB96E0EE
:1040E0000E942C07809107011F928F938BEB96E023
:1040F0009F938F930E94C50789EB96E00E942C073F
:1041000087EA96E00E942C07809106011F928F9308
:1041100084EA96E09F938F930E94C50782EA96E017
:104120000E942C0783E996E00E942C0780910501EC
:104130001F928F9380E996E09F938F930E94C5070B
:104140008EE896E00E942C078DE796E00E942C07EF
:10415000809104011F928F938AE796E09F938F933B
:104160000E94C50788E796E00E942C0783E696E048
:104170000E942C07809103011F928F9380E696E0A6
:104180009F938F930E94C5078EE596E00E942C07AF
:1041900087E496E00E942C07809102011F928F9382
:1041A00084E496E09F938F930E94C50782E496E093
:1041B0000E942C078DB79EB748960FB6F8949EBF05
:1041C0000FBE8DBF18C08C2F0E94BD1F8093DB01D6
:1041D00012C061E003C061E006C06AE08091DB01CB
:1041E0000E94591D08C08091DB010E94FC1D03C084
:1041F00087EE96E013C08091DB01882369F01F925F
:104200008F9381EE96E09F938F930E94C5070F9046
:104210000F900F900F9004C08EED96E00E942C0737
:1042200081E006C01092DC0180E002C080E003CF94
:10423000CF9108958091E80108959FB7F894109266
:10424000DF019FBF9091F701943009F057C0909122
:10425000E9009F703091EC00232F217030FD20E8A1
:10426000922B24E02093E9002091EB0020FF43C033
:104270002091EE0027FF3FC02091DD01222321F095
:104280002091E80025FF37C01092DD0126E0309133
:10429000E80035FD15C03091F701343061F53091FB
:1042A000EB0035FD28C0215021F481E08093DD0131
:1042B00022C0EFE9FFE03197F1F700C00000E7CF3F
:1042C0008093F1008091E80085FD0AC08091E800AC
:1042D00080FFFCCF8091E8008E778093E80006C0D5
:1042E0008FB7F89421E02093DF018FBF9F709093E8
:1042F000E90080E008959F709093E9008FEF0895A2
:104300000F931F93CF93DF9300D01F92CDB7DEB7EB
:104310008C010E943024823011F0843019F593E032
:1043200099831B830A839093E9008FEF9091E800B3
:10433000815095FD06C095ED9A95F1F70000811129
:10434000F5CF8091E80085FF0DC040E050E063E0CC
:1043500070E0CE0101960E944D248091E8008E7796
:104360008093E8000F900F900F90DF91CF911F91F5
:104370000F910895CF93DF9300D01F92CDB7DEB792
:104380002091F701243031F522E0298380589109EA
:104390009B838A8383E08093E9008FEF9091E8000C
:1043A000815095FD06C095ED9A95F1F700008111B9
:1043B000F5CF8091E80085FF0DC040E050E063E05C
:1043C00070E0CE0101960E944D248091E8008E7726
:1043D0008093E8000F900F900F90DF91CF91089598
:1043E000CF93DF93EC010E943024823011F08430AF
:1043F000F9F482E08093E9009FEF8091E80091500A
:1044000085FD06C085ED8A95F1F700009111F5CF85
:104410008091E80085FF0CC040E050E065E070E06E
:10442000CE010E944D248091E8008E778093E800B1
:10443000DF91CF910895CF93DF93EC010E94302458
:10444000823011F0843039F581E08093E9009FEFEC
:104450008091E800915085FD06C085ED8A95F1F7C1
:1044600000009111F5CF8091E80085FF14C040E075
:1044700050E068E070E0CE010E944D249091E80089
:104480009E779093E80098E0FE01A0EEB1E00190E5
:104490000D929A95E1F7DF91CF9108958CE19CE020
:1044A0000E942C078091F601811109C00E94E2252B
:1044B0000E943F268091E20084608093E20008958C
:1044C00088E19CE00E942C071092F601089584E197
:1044D0009CE00C942C0780E19CE00C942C078CE071
:1044E0009CE00E942C070C94D1192091DE012F5FD3
:1044F000822F62E30E94E828992319F02093DE01BD
:1045000008951092DE018091DF01882371F180917E
:10451000F701843041F58091E9008F702091EC0023
:10452000922F917020FD90E8892B94E09093E90000
:104530009091EB0090FF14C09091EE0097FF10C097
:104540009091E80095FF03C01092F100F9CF90918F
:10455000E80090FF05C09091E8009E779093E800F6
:104560008F708093E9001092DF01089542E061ECC2
:1045700081E00E945C2542E061EC82E00E945C25C3
:1045800042E061EC83E00E945C2542E261EC84E061
:104590000C945C258091F901833009F453C030F408
:1045A000813071F0823009F48CC008958A3009F4AA
:1045B00078C08B3009F45EC0893009F09AC020C001
:1045C0008091F801813A09F094C08091E800877FDA
:1045D0008093E8008091FC019091FD01892B21F4EA
:1045E00068E080EE91E003C060E080E090E070E081
:1045F0000E9498248091E8008B778093E8000895CA
:104600008091F801813209F074C08091FC01909191
:10461000FD01892B09F06DC08091E800877F8093B0
:10462000E8008091E80082FD05C08091F7018111CA
:10463000F8CF5FC08091F1008093E8018091E8009D
:104640008B7753C08091F801813A09F052C0809174
:10465000FC019091FD01892B09F04BC08091E8008D
:10466000877F8093E8008091E80080FFFCCF8091F5
:10467000120136C08091F8018132D9F58091FC0198
:104680009091FD01892BA9F58091E800877F8093A7
:10469000E8000E9491258091FA01809312010C9408
:1046A00033138091F801813221F58091E800877FF2
:1046B0008093E8000E9491258091FB018093E9019D
:1046C00008958091F801813AA1F48091E800877FF4
:1046D0008093E8008091E80080FFFCCF8091E901A1
:1046E0008093F1008091E8008E778093E8000C942D
:1046F0009125089584B7877F84BF0FB6F894A89555
:1047000080916000886180936000109260000FBE0D
:1047100080E880936100109261000E94CD0D0E949C
:10472000E2250E943F268091E20084608093E200AF
:104730008DE191E20E94E41878940E94CD280E94B5
:10474000D10D88E091E00E943B0D8BEF9BE00E9431
:104750002C078091F701853089F487EF9BE00E9458
:104760002C070E948E198091F501882391F30E94F5
:10477000BC19882371F30E943724EBCF0E94FF0DF0
:10478000E8CF292F332723303105C9F064F42130D5
:10479000310581F02230310509F049C084E790E00D
:1047A00022E43CE048C02132310521F122323105BA
:1047B00071F13DC082E190E026EB3CE03CC09927DE
:1047C0008130910571F02CF4892B89F5EEE3FCE042
:1047D0000DC08230910541F0039749F5E0E2FCE01D
:1047E00005C0E4E3FCE002C0E6E2FCE0849190E076
:1047F0009F0121C064307105D0F4660F771FFB0163
:10480000E45CFE4F2081318189E090E014C0643087
:10481000710568F4FB01EE0FFF1FEC5CFE4F208179
:104820003181FB01E05DFE4F808190E004C080E0BB
:1048300090E020E030E0FA0131832083089508956C
:10484000CF93C82F0E941F24C093EA01CF910895EF
:104850008091F701843011F081E0089582E008959D
:104860008091EA01811102C00C942824089580E10E
:1048700089BD82E189BD09B400FEFDCF8091D800D9
:104880008F7D8093D8008091E00082608093E0006B
:104890008091E00081FDFCCF0895CF92DF92EF92EE
:1048A000FF920F931F93CF93DF93EC018B016A016B
:1048B0000E94B025811133C0C114D10439F0F60132
:1048C00080819181081B190BC80FD91FE12CF12C95
:1048D0000115110519F18091E80085FD16C0809140
:1048E000E8008E778093E800C114D10449F0F60106
:1048F00080819181E80EF91EF182E08285E00FC08F
:104900000E94B025882321F30AC089918093F10089
:1049100001501109FFEFEF1AFF0ADACF80E0DF91B3
:10492000CF911F910F91FF90EF90DF90CF9008955E
:104930002091FE013091FF012617370748F06115DD
:10494000710539F42091E8002E772093E80001C02A
:10495000B90140E061157105A9F12091F701222309
:1049600009F443C0253009F442C02091E80023FD3A
:1049700040C02091E80022FD32C02091E80020FFD5
:10498000E9CF4091F3002091F20030E0342BFC019C
:10499000CF016115710559F02830310540F481913E
:1049A0008093F100615071092F5F3F4FF1CF41E0DB
:1049B0002830310509F040E02091E8002E7720935F
:1049C000E800C8CF4111C9CF0AC08091F701882300
:1049D00061F0853061F08091E80083FD0AC080912C
:1049E000E80082FFF2CF80E0089582E0089583E03E
:1049F000089581E008952091FE013091FF0126176E
:104A0000370748F06115710539F42091E8002E77D9
:104A10002093E80001C0B901FC0120E06115710597
:104A200091F18091F701882309F440C0853009F4A1
:104A30003FC08091E80083FD3DC08091E80082FD89
:104A40002FC08091E80080FFE9CF2091F300809192
:104A5000F20090E0922B6115710559F088309105B4
:104A600040F424912093F100319661507109019630
:104A7000F2CF21E0089709F020E08091E8008E77DE
:104A80008093E800CBCF2111CCCF0AC08091F701F1
:104A9000882361F0853061F08091E80083FD0AC0D1
:104AA0008091E80082FFF2CF80E0089582E00895CF
:104AB00083E0089581E00895982F973058F59093FA
:104AC000E900981739F07091EC002091ED005091B9
:104AD000F00003C0242F762F50E021FF19C0309141
:104AE000EB003E7F3093EB003091ED003D7F309343
:104AF000ED003091EB0031603093EB007093EC00EF
:104B00002093ED005093F0002091EE0027FF07C0A6
:104B10009F5FD3CF8F708093E90081E0089580E09C
:104B200008958091F80187FF11C08091E80082FD0F
:104B300005C08091F7018111F8CF11C08091E80084
:104B40008B770BC08091F701882349F08091E800B2
:104B500080FFF8CF8091E8008E778093E800089579
:104B60002091E4003091E50095E64091EC00842F1F
:104B7000817040FF22C08091E80080FD1CC08091C0
:104B8000F701882391F0853091F08091EB0085FD4D
:104B900010C04091E4005091E5004217530729F3FB
:104BA0009A01915011F784E0089582E0089583E01E
:104BB000089581E0089580E008954091E80042FF63
:104BC000DECF08950E9450260E945826E0EEF0E0C5
:104BD000808181608083E8EDF0E080818F77808341
:104BE00019BCA7EDB0E08C918E7F8C9380818F7E75
:104BF00080831092F60108950F931F93CF93DF9354
:104C00000E9450260E945826C8EDD0E088818F77F8
:104C1000888388818068888388818F7D888319BC98
:104C20001092F7011092F3011092F5011092F40125
:104C300000EE10E0F80180818B7F808388818160A5
:104C4000888342E060E080E00E945C25E1EEF0E0D5
:104C500080818E7F8083E2EEF0E0808181608083BE
:104C6000808188608083F80180818E7F8083888145
:104C700080618883DF91CF911F910F910895E8EDB6
:104C8000F0E080818F7E8083E7EDF0E080818160BD
:104C9000808384E082BF81E08093F6010C94FC2540
:104CA000E8EDF0E080818E7F80831092E20008952D
:104CB0001092DA001092E10008951F920F920FB641
:104CC0000F9211242F933F934F935F936F937F9392
:104CD0008F939F93AF93BF93EF93FF938091E100E6
:104CE00082FF0BC08091E20082FF07C08091E1004B
:104CF0008B7F8093E1000E9475228091DA0080FF13
:104D00001FC08091D80080FF1BC08091DA008E7F89
:104D10008093DA008091D90080FF0DC080E189BDC9
:104D200082E189BD09B400FEFDCF81E08093F701E7
:104D30000E944E2205C019BC1092F7010E94602209
:104D40008091E10080FF19C08091E20080FF15C0D2
:104D50008091E2008E7F8093E2008091E20080618A
:104D60008093E2008091D80080628093D80019BCC3
:104D700085E08093F7010E946B228091E10084FF1F
:104D800030C08091E20084FF2CC080E189BD82E1C7
:104D900089BD09B400FEFDCF8091D8008F7D80933E
:104DA000D8008091E1008F7E8093E1008091E20045
:104DB0008F7E8093E2008091E20081608093E20028
:104DC0008091F301882311F084E007C08091E30013
:104DD00087FD02C081E001C083E08093F7010E945B
:104DE0006F228091E10083FF29C08091E20083FF60
:104DF00025C08091E100877F8093E10082E080936D
:104E0000F7011092F3018091E1008E7F8093E10021
:104E10008091E2008E7F8093E2008091E2008061C9
:104E20008093E20042E060E080E00E945C25809197
:104E3000F00088608093F0000E946722FF91EF915C
:104E4000BF91AF919F918F917F916F915F914F91A2
:104E50003F912F910F900FBE0F901F9018951F92AA
:104E60000F920FB60F9211242F933F934F935F939E
:104E70006F937F938F939F93AF93BF93CF93DF9362
:104E8000EF93FF93C091E900CF708091EC00D82F91
:104E9000D17080FDD0E81092E9008091F000877F0A
:104EA0008093F00078940E9473271092E90080911B
:104EB000F00088608093F000CD2BCF70C093E900A4
:104EC000FF91EF91DF91CF91BF91AF919F918F9122
:104ED0007F916F915F914F913F912F910F900FBEF6
:104EE0000F901F9018951F93CF93DF93CDB7DEB728
:104EF000AA970FB6F894DEBF0FBECDBFE8EFF1E082
:104F000088E08E0F9091F10091938E13FBCF0E9459
:104F1000CA228091E80083FF28C18091F801909116
:104F2000F901492F50E04A30510508F01EC1FA013D
:104F3000E556FF4F0C940829803821F0823809F09B
:104F400014C108C08091F4019091F501992389F072
:104F500082600FC08091FC018F70873008F005C11E
:104F60008093E9008091EB0085FB882780F91092FF
:104F7000E9009091E800977F9093E8008093F1001A
:104F80001092F100D0C0282F2D7F09F0EEC08823A9
:104F900019F0823061F0E9C08091FA01813009F0A6
:104FA000E4C0933009F080E08093F5012EC0809139
:104FB000FA0181112AC08091FC018F702FEF280F18
:104FC000263008F0D2C08093E9002091EB0020FF4A
:104FD0001CC0933021F48091EB00806214C090914A
:104FE000EB0090619093EB0021E030E0A90102C05A
:104FF000440F551F8A95E2F74093EA001092EA00A9
:105000008091EB0088608093EB001092E900809122
:10501000E800877F8093E8000E949125A6C0811157
:10502000A4C01091FA011F778091E3008078812B52
:105030008093E3008091E800877F8093E8000E94DE
:1050400091258091E80080FFFCCF8091E30080688B
:105050008093E300111102C082E001C083E08093DD
:10506000F70183C08058823008F07FC08091FA0138
:105070009091FB018C3D53E0950779F583E08A839D
:105080008AE289834FB7F894DE01139620E03EE070
:1050900051E2E32FF0E050935700E49120FF03C06A
:1050A000E295EF703F5FEF708E2F90E0EA3010F0E6
:1050B000C79601C0C0968D939D932F5F243149F709
:1050C0004FBF8091E800877F8093E8006AE270E03C
:1050D000CE0101960E94982415C06091FC01709148
:1050E000FD01AE014F5F5F4F0E94C123BC01892BC0
:1050F000E1F19091E800977F9093E80089819A818F
:105100000E94FB248091E8008B778093E8002DC0FB
:10511000803859F58091E800877F8093E80080917E
:10512000F3018093F1008091E8008E7773CF8111B5
:105130001CC09091FA019230C0F48091E800877F02
:105140008093E8009093F3010E9491258091F301F0
:10515000811106C08091E30087FD02C081E001C09B
:1051600084E08093F7010E94B6228091E80083FFDB
:105170000AC08091E800877F8093E8008091EB006F
:1051800080628093EB00AA960FB6F894DEBF0FBE44
:10519000CDBFDF91CF911F910895CF938091F701FB
:1051A0008823A1F0C091E900CF709091EC00892F85
:1051B000817090FD80E8C82B1092E9008091E80092
:1051C00083FD0E947327CF70C093E900CF910895AB
:1051D000991B79E004C0991F961708F0961B881F49
:1051E0007A95C9F78095089597FB072E16F40094D9
:1051F00007D077FD09D00E940E2907FC05D03EF4A8
:10520000909581959F4F0895709561957F4F089572
:10521000EE0FFF1F0590F491E02D0994AA1BBB1B14
:1052200051E107C0AA1FBB1FA617B70710F0A61BA6
:10523000B70B881F991F5A95A9F780959095BC01C7
:10524000CD010895F999FECF92BD81BDF89A9927B5
:1052500080B50895A8E1B0E042E050E00C944A29FE
:10526000262FF999FECF92BD81BDF89A019700B41F
:10527000021639F01FBA20BD0FB6F894FA9AF99ABF
:105280000FBE08950196272F0E9431290C943029D2
:10529000DC01CB01FC01F999FECF06C0F2BDE1BDF6
:1052A000F89A319600B40D9241505040B8F70895E5
:0452B000F894FFCFA0
:1052B400C5012808140A321E1A211B22F021BA2122
:1052C400802101303132333790919293669734358F
:1052D40036F0F4F5F6F701020304050607080900A1
:1052E400404D36226D0D200DEA0CC80C540C6D0C8B
:0452F400860C9F0C79
:00000001FF
