:100000000C9439020C9480020C9480020C948002AF
:100010000C9480020C9480020C9480020C94800258
:100020000C9480020C9480020C94681E0C943A1F6D
:100030000C94A1160C9480020C9480020C94800203
:100040000C9480020C9480020C9480020C94800228
:100050000C9480020C9409170C9480020C9480027A
:100060000C9480020C9480020C9480020C94800208
:100070000C9480020C9480020C9480020C948002F8
:100080000C9480020C9480020C9480020C948002E8
:100090000C9480020C9480020C9480020C948002D8
:1000A0000C9480020C9480020C948002980B980BA4
:1000B000CA0BCA0B170C350C8D0D8D0D770C0C0D62
:1000C0001D0D1D0D7D0D8D0D8D0D860D130E130E49
:1000D000250E250E1C0E250E250E250E130E130EB5
:1000E000210E250E250E210EA71FCE1FC620CE1FC6
:1000F000C6201A203D20C6209420A320085D1E00A3
:100100001F002000095D2200230024002500260096
:1001100027002D002E002A00000000002B001400F4
:100120001A000800150017001C0018000C0012002F
:1001300013002F00300031000000E50039000400FA
:100140001600070009000A000B000D000E000F004A
:10015000330034002800360037003800E1001D006D
:100160001B00060019000500110010000158E000F6
:10017000E2002C00E600E7006500E40035003A00EC
:100180003B003C003D003E003F004000410042007B
:100190004300440045004C000000000003580100EB
:1001A0000100010001000100010001000100010047
:1001B0000100010001004900000052000258010046
:1001C0000100010001000100010001000100010027
:1001D00001004A0001004B004E004D0001000100EB
:1001E0000100010001000100010001000100010007
:1001F000010001000100500051004F0010501E008E
:100200001F002000095D220023005F0060006100E4
:100210006200560057002A000000000001000100A3
:10022000010001000100010001005C005D005E00B2
:1002300001000100010001000000F50001000100C3
:100240000100010001000100010059005A005B009B
:100250000100010001006300F400F0000100010052
:100260000100010001000100010062000100010025
:1002700001000100F200F100F300F600105001004F
:100280000100010001000100010001000100010066
:10029000A800AA00A9000100000000000100010060
:1002A000A7000100010001000100010001000100A0
:1002B000AD00AC00AB0001000000F5000100010042
:1002C000A600010001000100010001000100010081
:1002D0000100010001000100F400F900010001002B
:1002E000A500010001000100010001000100010062
:1002F0000100AE00FB00FA00FC00F6000403300031
:1003000000000A036B0062006F0064000000140329
:1003100066007500640061006E006300680069009B
:10032000690000000403090409023B00020100A067
:10033000FA09040000010301010009211101000173
:100340002240000705810308000A09040100010397
:1003500000000009211101000122BC0007058203F1
:1003600020000A1201100100000008EDFE6060018B
:10037000000102030105010902A10185020901A191
:10038000000509190129051500250195057501814B
:100390000295017503810105010930093115812597
:1003A0007F95027508810609381581257F950175AD
:1003B000088106050C0A38021581257F950175080C
:1003C0008106C0C005010980A101850319012AB772
:1003D00000150126B700950175108100C0050C09B4
:1003E00001A101850419012AA002150126A0029588
:1003F0000175108100C005010906A10185050507E9
:1004000019E029E715002501950875018102050706
:10041000190029EF1500250195F0750181020508E5
:100420001901290595057501910295017503910141
:10043000C005010906A101050719E029E7150025F6
:10044000019508750181029501750881010507195B
:100450000029FF150026FF00950675088100050894
:100460001901290595057501910295017503910101
:10047000C00011241FBECFEFDAE0DEBFCDBF04B64F
:1004800003FE27C08091840290918502A09186028C
:10049000B09187028730904BA740B04BD1F41092B7
:1004A000840210928502109286021092870214BE76
:1004B00084B7877F84BF0FB6F894A89580916000B9
:1004C000886180936000109260000FBEE0E0F8E366
:1004D000099511E0A0E0B1E0E8EDF2E402C005907A
:1004E0000D92A838B107D9F722E0A8E8B1E001C021
:1004F0001D92A438B207E1F70E94971B0C946A2161
:100500000C9400000C94E6020C94E9020C948A020C
:100510000C94E002CF9388302DE5920721F08930CA
:100520009D4509F149C0FB01C281CC2371F00E94B5
:10053000E413282F2272809100019091010122235F
:1005400011F065E321C069E21FC00E94E413282F67
:1005500022728091000190910101222311F065E344
:1005600026C069E224C0FB01C281CC2399F00E941D
:10057000E413282F2474809100019091010122231B
:1005800011F06DE301C061E20E9422160E94321454
:10059000C0E013C00E94E413282F2474809100014E
:1005A00090910101222311F06DE301C061E20E94EC
:1005B0002D160E94321401C0C1E08C2FCF910895F6
:1005C00081FF02C0289A089528980895209A3F9A9A
:1005D00008956091FF017091000280910102909155
:1005E00002020E949514882311F0479A08954798B3
:1005F000089581E008951F93CF93DF9300D000D03A
:100600001F92CDB7DEB749835A836B8320919E0139
:1006100089819A81211112C0662349F00E946313D7
:10062000182F682F89819A810E940C1303C00E94A1
:100630003713182F69817A81812F04C00E946313B8
:1006400069817A810F900F900F900F900F90DF913A
:10065000CF911F910C94A103FC01408151816281D3
:10066000738184810C94FB020E94E514811102C005
:100670000E9485150C9482020C94840281E00895F6
:100680000C943E03CF93C82F0E9488028C2F0E94A7
:100690004003CF91089508950E94010E0E944B03DC
:1006A0002FEF84E39CE0215080409040E1F700C0B0
:1006B000000087E797E790930108809300080C9467
:1006C0002F170F931F93CF93DF93EC010E942C03FE
:1006D0008C01BE010E948602882349F1BE01C80137
:1006E0000E944507882319F1BE01C8010E948607B0
:1006F0008823E9F0BE01C8010E94B1088823B9F03F
:100700008A81882369F001158CE5180731F00E3DC8
:100710001C4531F40E9485150AC00E944C0307C095
:10072000CE01DF91CF911F910F910C94F90280E0DF
:10073000DF91CF911F910F91089580E090E008958F
:100740000895E72FF0E098E0899FE00DF11D112456
:1007500083E0EE0FFF1F8A95E1F7E60FF11DEE0F24
:10076000FF1FE450FF4F859194910895880F991FC2
:10077000FC01E450FD4F859194910895CF93DF9350
:100780000E94A1030E94D604EC018115904508F057
:1007900041C0C11580E4D80708F0D1C0C83ED105DA
:1007A00010F5C03ED10508F0FDC0C83AD10578F477
:1007B000C53AD10508F0A2C0C130D10509F4F2C094
:1007C00008F4EEC0C430D10508F0ECC0E9C0CF3B5E
:1007D000D10508F49BC0C03CD10508F4E1C0CE01AE
:1007E000805C91099EC0C11590E2D90758F4C115EB
:1007F00021E0D20708F0D6C0C03FD10508F4D0C030
:10080000D065D0C0C11580E3D80708F08EC0CE01F6
:100810009F7087C0C11595E5D90708F043C0C11581
:1008200024E5D20708F0A2C0C11582E5D80708F573
:10083000C11591E5D90708F085C0CE0174E0969501
:1008400087957A95E1F783709C2F937021E030E0D3
:1008500002C0220F331F9A95E2F73C68382BCF7005
:10086000C695C69580E2C89FE0011124C22BD32B08
:1008700099C09E01237033278C2F86958695C115CC
:10088000D34508F064C0C1E0D0E002C0CC0FDD1F4A
:100890002A95E2F720E2829FC0011124C82BD92BB0
:1008A000DC6880C0C11529E5D207A0F4C11588E530
:1008B000D80708F060C0C11596E5D90708F070C0E8
:1008C0008C2F0E946A058F71C82FD0E0DC2FCC27B7
:1008D000D06268C0C1152AE5D20708F451C0CE0124
:1008E00090568115904208F05BC08D2F8F710E9449
:1008F0006A05DD27D0628F71D82B54C0C55AD0E06D
:10090000CD5BDE4FC881D0E0D0644CC0C85AD0E087
:10091000CC0FDD1FCB5EDE4F0990D881C02DD46493
:1009200041C00E94B603EC013DC0CE019927D3FF20
:1009300003C0EC01D86C36C0EC01D06C33C0DF7062
:10094000D06A30C0DC2FCC27C16FD06A2BC0C1E089
:10095000D0E002C0CC0FDD1F2A95E2F720E2829F93
:10096000C0011124C82BD92BDA681CC0DC2FCC277E
:10097000C46FD06A17C0DC2FCC27C06FD06A12C0FA
:100980008C2F8F700E946A0594E0D695C7959A9532
:10099000E1F7CF70D0E0DC2FCC27D069C82B02C0A4
:1009A000C0E0D0E0CE01DF91CF910895823891056B
:1009B00069F1B0F48133910509F46DC048F48932CE
:1009C000910509F463C08A32910509F469C008955C
:1009D0008533910509F455C089339105B9F008951F
:1009E000833E910569F138F4803E9105B1F0823E75
:1009F000910509F10895863E9105A9F1873E91057B
:100A0000B9F1843E910509F064C023C020917502BC
:100A100020FD4FC021FD4DC008958091750280FDDD
:100A200044C08091760280FF44C08091750284FDAD
:100A300042C083EE4DC08091750282FF38C0F5CF71
:100A40008091750282FD33C08091760280FD31C0B5
:100A5000ECCF8091760281FF32C08091750284FDD7
:100A60002AC087EE35C08091750283FF26C0F5CF7E
:100A70008091750283FD21C08091760281FD1FC0A7
:100A8000ECCF8091750285FD1CC01DC08091750260
:100A900085FD19C016C08091750286FD16C017C06D
:100AA0008091750286FD13C010C089E311C082EEEB
:100AB0000FC080EE0DC080E00BC086EE09C084EE52
:100AC00007C089E205C085E303C08AE201C081E373
:100AD00090E008959091750292FF0DC0282F287123
:100AE000283019F4877F846006C0282F24712430B1
:100AF00011F48B7F886093FF0DC0282F2871283157
:100B000019F4877E846106C0282F2471243111F4E2
:100B10008B7E88612091760220FF0DC0382F3871BE
:100B2000383019F4877F816006C0382F3171313039
:100B300011F48E7F886021FF0DC0282F2871283185
:100B400019F4877E816106C0282F2171213111F4AB
:100B50008E7E886194FD877E0895E82FF0E0E95944
:100B6000FD4F80810895089580EA8A95F1F70895F0
:100B7000CF93DF93AEE4B1E046E551E061E070E091
:100B80008D91E82FE295EF70F0E021A18F70EB01DD
:100B900002C0CC0FDD1F8A95E2F7CE019C2F909505
:100BA000922391A392A1892B82A34A175B0741F755
:100BB000A6E4B1E04EE451E061E070E08D91E82FF1
:100BC000E295EF70F0E021A18F70EB0102C0CC0F35
:100BD000DD1F8A95E2F7CE019C2F9095922391A379
:100BE00092A1892B82A34A175B0741F7EFE5F2E058
:100BF000A7E6B2E087E692E011921D928E179F075A
:100C0000D9F788E00E949A06DF91CF910C943403C3
:100C10003F924F925F926F927F928F929F92AF928C
:100C2000BF92CF92DF92EF92FF920F931F93CF93D9
:100C3000DF938EE4882E81E0982E0FE512E097E690
:100C4000692E92E0792E512CCC24C394D12C5801DA
:100C5000D8013C901C92F40181914F01C82FC2959C
:100C6000CF70D0E099A18F70760101C0EE0C8A950B
:100C7000EAF7892F8E2989A38AA14E2C40948421DA
:100C80008AA30E94B405E6E4F1E020E030E091910F
:100C9000A92FA295AF70B0E090964C91D8016C91BD
:100CA00050E09F7002C0559547959A95E2F740FD38
:100CB00008C09C2D022E01C0990F0A94EAF7892FD3
:100CC00001C080E0862BD8018C932F5F3F4F2830E6
:100CD0003105E9F689A1482249A28AA1E82AEAA2B7
:100CE0000F5F1F4F81E0F5019081931101C080E0FB
:100CF000582A6016710609F0AACF252D48E067E64C
:100D000072E08FE592E00E949B060E943C03852DD5
:100D1000DF91CF911F910F91FF90EF90DF90CF90D7
:100D2000BF90AF909F908F907F906F905F904F900B
:100D30003F9008950895FF920F931F93CF93DF93F1
:100D40008C01F62ED72FC42F222349F081E0809307
:100D50008A010E94D3169093890180938801809123
:100D60008A018823C1F080918801909189010E94B5
:100D7000DF16069780F0EF2DFD2FD8014C2F50E0A5
:100D8000CD01801B910B841795071CF48D918193E5
:100D9000F7CF10928A01DF91CF911F910F91FF90B1
:100DA00008950F931F93CF93DF93C62FD42F122F45
:100DB000FC0182818823C9F060938D010E94D316C3
:100DC00090938C0180938B0180E28C0F883008F027
:100DD00057C0C77081E001C0880FCA95EAF7DF915C
:100DE000CF911F910F910C94580B80918D01681336
:100DF00030C080918B0190918C010E94DF16883C5D
:100E0000910538F500E20D0FCD17B9F080E28C0F97
:100E1000883040F4C77081E001C0880FCA95EAF7B6
:100E20000E945F0B083028F581E09D2F977001C06C
:100E3000880F9A95EAF70E94580B812F0E94450B64
:100E40000830F0F4D77081E001C0880FDA95EAF736
:100E50000AC080E28C0F883098F4C77081E001C02E
:100E6000880FCA95EAF7DF91CF911F910F910C94EB
:100E70005F0B812FDF91CF911F910F910C94450B48
:100E8000DF91CF911F910F9108959C01CB01233FDA
:100E90004CE53407F9F078F4283DFCE53F07B9F05C
:100EA000293D4CE5340711F1273D3C4531F526E25B
:100EB00041EE61EE1EC0253FFCE53F0799F070F062
:100EC000263F3C45D1F427E245EE66EE12C027E20C
:100ED00045EE0EC026E241EE60EE0BC027E245EE85
:100EE00064EE07C026E241EE62EE03C028E241E074
:100EF00065EE0E94D10680E00895FC01828188237E
:100F000019F010928D01089581E00895CF93DF9339
:100F1000EC01FB018281882309F41FC1C230FCE58A
:100F2000DF0708F41BC1C6319CE5D90738F09E01E4
:100F30002A5F3C452930310508F010C10E94F814A1
:100F40009093760280937502C031ECE5DE0709F4D8
:100F5000C3C008F041C0C8308CE5D80709F49AC076
:100F6000F0F4C430ECE5DE0709F487C068F4C23061
:100F70008CE5D80709F477C0C330DC4509F0E3C03D
:100F800080917502826076C0C630ECE5DE0709F418
:100F90006EC008F07BC08091750288606BC0CC3059
:100FA0008CE5D80709F485C068F4CA30ECE5DE07A3
:100FB00009F474C008F079C00E94010E8091750296
:100FC000806858C0CE308CE5D80709F476C008F0A8
:100FD0007FC0809175028BC0CB3FECE5DE0709F442
:100FE0004FC018F5C3318CE5D80709F47DC078F4FB
:100FF000C131ECE5DE0709F473C0C231DC4509F00C
:10100000A2C00E94010E809175028F7733C0C53156
:101010008CE5D80709F472C008F486C0CA3FDC45E5
:1010200009F091C0809176023EC0CF3FFCE5DF071A
:1010300009F45FC058F4CD3F9CE5D90709F444C0DA
:1010400008F43FC08091760282602DC0C130FDE57A
:10105000DF0709F475C008F45DC0C230DD4509F052
:1010600072C080E06EC080917502816003C0809183
:10107000750280618093750266C08091750211C00F
:10108000809176028260809376025DC080917502C5
:101090008062F0CF809175028064ECCF8091750200
:1010A00088608460E7CF8160EECF809175028E7F8B
:1010B000E1CF809175028D7FDDCF80917502877FB2
:1010C000D9CF8091760218C0809176028D7FDBCFD8
:1010D000809175028F7ECECF809175028F7DCACFB1
:1010E000809175028F7BC6CF80917502877F8B7F41
:1010F000C1CF809176028D7F8E7FC5CF80917502A2
:1011000082FB222720F991E0922790FB82F990FB45
:1011100083F9B0CF80917602982F909591708E7F51
:10112000892B90FB81F9AFCF0E94010E809175024F
:1011300087FB222720F991E0922790FB87F99ACF2D
:1011400081E00E94871580917502909176020E943D
:1011500009150E94010E80E001C081E0DF91CF916E
:101160000895CF93DF9386319C4541F5EB010E94B2
:10117000E413982F8A812091000130910101882386
:1011800079F09A7A81E009F480E080938E019111E0
:1011900002C069E201C065E3C9010E9422160AC0CB
:1011A00080918E01811102C069E201C065E3C9012D
:1011B0000E942D160E94321480E001C081E0DF9170
:1011C000CF91089590939401809393010895E091B5
:1011D0009301F0919401309721F00190F081E02D7E
:1011E000099480E00895E0919301F0919401309783
:1011F00099F020911401222359F02091750227FFC4
:1012000007C0DC012C9111962C93119725E02C93AB
:101210000280F381E02D09940895E0919301F0910B
:101220009401309739F022E0DC012C930480F581A1
:10123000E02D099408952091910130919201281791
:10124000390771F09093920180939101E09193019D
:10125000F0919401309721F00680F781E02D0994F8
:10126000089520918F01309190012817390771F06E
:101270009093900180938F01E0919301F0919401FC
:10128000309721F00084F185E02D0994089585B709
:10129000806885BF85B7806885BF089508950C94E0
:1012A0004E090C944F090C944E090C944E090E945F
:1012B00047090E9453090C94510981E008950E9446
:1012C000CA160E94B8050E9440170C945509AF92A7
:1012D000BF92CF92DF92EF92FF920F931F93CF9323
:1012E000DF93CDB7DEB72A970FB6F894DEBF0FBEF7
:1012F000CDBF0E9408060E945D09811111C08FEFC9
:1013000089838A831B820E94D3168160782F9D83F4
:101310008C8349815A816B818D810E94FF0940C075
:1013200086E9A82E81E0B82E00E010E0C02E802FC4
:101330000E94AD05E82EF501D1905F01D82631F469
:101340000F5F1F4F0830110589F7D9CF80912C020C
:1013500081FD0E94B30580E0FF24F3949D2D9F2121
:10136000D1F08E83CF82EF2081E009F480E088877E
:101370000E94D3168160782F9A8789874E815F817A
:1013800068858A850E94FF09F801EA56FE4F808130
:10139000F826F08205C08F5FFF0C8830F9F6D0CFB9
:1013A0000E94D2180E94E708909195018917B1F028
:1013B0000E94E708809395012A960FB6F894DEBF45
:1013C0000FBECDBFDF91CF911F910F91FF90EF9096
:1013D000DF90CF90BF90AF900C9442032A960FB647
:1013E000F894DEBF0FBECDBFDF91CF911F910F915B
:1013F000FF90EF90DF90CF90BF90AF900895CF9384
:10140000DF93CDB7DEB72B970FB6F894DEBF0FBED4
:10141000CDBF4F83588769877A878B87DE01119606
:1014200086E0FD0111928A95E9F785E0FE01379685
:1014300001900D928A95E1F749815A816B817C81F7
:101440008D819E810E94D1102B960FB6F894DEBF3D
:101450000FBECDBFDF91CF910895FC0180819181B6
:101460000E94A5130895CF93882309F4A4C0C82F20
:101470008238C1F40E94E70881FD9DC069E3809134
:101480000001909101010E9422160E9432142FEF58
:1014900081EE94E0215080409040E1F700C00000D0
:1014A00069E319C0833801F50E94E70880FD83C015
:1014B00063E580910001909101010E9422160E9433
:1014C00032142FEF81EE94E0215080409040E1F7FC
:1014D00000C0000063E580910001909101010E942D
:1014E0002D16CF910C9432148438C1F40E94E70871
:1014F00082FD61C067E480910001909101010E942A
:1015000022160E9432142FEF81EE94E02150804089
:101510009040E1F700C0000067E4DDCF8CEF8C0F56
:10152000813AD0F46C2F80910001909101010E94CA
:10153000A215882349F06C2F809100019091010140
:101540000E942D160E9432146C2F80910001909100
:1015500001010E942216C5CF80E28C0F883048F42A
:10156000C77081E001C0880FCA95EAF70E94E713AF
:10157000B8CFEBE5EC0FE33040F4F0E0EC57FE4F72
:10158000808190E0CF910C941B09E8E5EC0FE731E6
:1015900050F4F0E0EE0FFF1FEA5AFE4F8081918178
:1015A000CF910C943109C03F30F08C2F0E94DA1794
:1015B000CF910C94C718CF910895882309F464C083
:1015C000823879F40E94E70881FF5EC069E3809168
:1015D0000001909101010E9422160E94321469E3D9
:1015E00010C08338B1F40E94E70880FF4DC063E566
:1015F00080910001909101010E9422160E943214F4
:1016000063E580910001909101010E942D160C94D8
:101610003214843879F40E94E70882FF35C067E409
:1016200080910001909101010E9422160E943214C3
:1016300067E4E7CF9CEF980F913A10F4682FE1CF61
:1016400090E2980F983050F4877091E001C0990FA4
:101650008A95EAF7892F0E94ED13D9CF9BE5980F61
:10166000933020F480E090E00C941B0998E5980FEB
:10167000973120F480E090E00C943109803F20F015
:101680000E9442180C94C7180895CF93C82F0E9447
:10169000330AC93349F42FEF87EE93E0215080409D
:1016A0009040E1F700C000008C2FCF910C94DD0A30
:1016B000882321F00E94E7130C94321408958823A4
:1016C00021F00E94ED130C9432140895CF92DF9212
:1016D000EF92FF920F931F93CF93DF937C01062F1E
:1016E000C72FFC01158112951F70D281D1110E9464
:1016F00004140E94DD13882379F0DD2369F080E271
:10170000800F883048F082E00E947C140E94DD1334
:1017100091E0D82ED92601C0D12CCC2EC2948FE0D6
:10172000C8228C2D90E0FC01EA5AFF4F0C940E2148
:101730008C2F807FCF70882311F0C295C07FDD236E
:1017400099F0CC2309F4C4C180E2800F883010F0F6
:10175000011104C08C2F0E94E71303C08C2F0E943C
:10176000F7130E943214B4C1802F0E94DD0ACC23EB
:1017700009F4D3C180E2800F883010F0011104C059
:101780008C2F0E94ED1303C08C2F0E94FD130E942A
:101790003214C3C18C2F807FCF70803211F0C2957C
:1017A000C07F002319F00130C9F022C0DD2371F0A1
:1017B000112341F0113031F40E9417148C2B0E9438
:1017C0001F14ABC10E9417148C2B1DC0112319F0DC
:1017D000113009F4A2C10E94281425C0DD2321F094
:1017E000133008F09AC10EC0123008F096C11BC029
:1017F000DD2361F0112331F0F701858180FF68C19D
:101800008F7085838C2F0E94580B87C1112359F04C
:10181000093309F06EC1FFEF27EE83E0F15020405D
:101820008040E1F764C18C2F0E945F0B76C18C2F42
:1018300086958695837019F0813061F06EC1DD2345
:1018400021F0802F9C2F937002C080E090E00E94D6
:101850001B096BC1DD2321F0802F9C2F937002C0E8
:1018600080E090E00E94310960C1DD23F9F0053F7E
:1018700051F0063F71F0043FA9F480916F029091FE
:10188000700281600BC080916F0290917002826043
:1018900005C080916F0290917002846090937002F5
:1018A00080936F02802F0E94DA171EC0053F51F00F
:1018B000063F71F0043FA9F480916F02909170028D
:1018C0008E7F0BC080916F02909170028D7F05C05A
:1018D00080916F02909170028B7F90937002809341
:1018E0006F02802F0E9442180E94C7181EC18C2FC1
:1018F000837009F045C0D11114C1402F429546951F
:101900004770440F440F602F6F70862F90E0A0E067
:10191000B0E0042E04C0880F991FAA1FBB1F0A94B1
:10192000D2F704FF10C00FE010E020E030E004C068
:10193000000F111F221F331F4A95D2F700951095F3
:101940002095309503C000E010E09801C695C6953B
:10195000C370BC01CD01602B712B822B932BC23045
:1019600049F058F4C13019F00E942212DAC00E94E6
:101970001012D7C00E943412D4C00E940E12D1C0DF
:10198000DD2319F08C2F817001C08695882309F41E
:10199000C8C0402F429546954770440F440F602FB2
:1019A0006F70862F90E0A0E0B0E0042E04C0880F96
:1019B000991FAA1FBB1F0A94D2F704FF10C00FE0A3
:1019C00010E020E030E004C0000F111F221F331F81
:1019D0004A95D2F7009510952095309503C000E008
:1019E00010E09801C695C695C370BC01CD01602B6F
:1019F000712B822B932BC23049F058F4C13019F06F
:101A00000E94E7128EC00E94D5128BC00E94F9126C
:101A100088C00E94481285C0CF70DD2339F08C2F1A
:101A20000E946E12802F0E94580B7BC0802F0E9454
:101A30005F0B8C2F0E948F1274C0023F01F128F4BB
:101A4000003F41F0013FA1F03FC0033FF9F0043FE8
:101A500039F13AC0DD2341F0123008F05EC08C2F1E
:101A60008F710E94B41259C0133008F056C0F7CFDE
:101A7000DD2339F08C2F8F710E946E124EC0DD2352
:101A8000C9F38C2F8F710E948F1247C0DD2329F07C
:101A90008C2F8F710E94591240C00E9454123DC079
:101AA000DD2349F0CF718C2F0E946E1263E08C2FE2
:101AB0000E94671432C081E00E947C14123068F1E9
:101AC00082E00E947C1429C0DD2331F0112391F2C1
:101AD000802F0E94330A21C0112399F2093349F45F
:101AE0009FEFE7EEF3E09150E040F040E1F700C0F7
:101AF0000000802F0E94DD0A10C04C2F4F70602F15
:101B0000C7010E949D030E947F110FC04C2F4F7090
:101B1000602FC7010E94A00308C088EF8C0D84309D
:101B200020F40E94E7080E944203DD20C9F00E94D1
:101B3000D91380FD15C0F70112820E94D3130E94B1
:101B40006E12C7010E94B90D0E94D313DF91CF918D
:101B50001F910F91FF90EF90DF90CF900C948F1218
:101B6000DF91CF911F910F91FF90EF90DF90CF9079
:101B700008950F931F93CF93DF93EC019881898190
:101B80002B813C81232B31F08F3F31F481E09F3F4B
:101B900019F403C081E001C080E080FD13C0CE01D4
:101BA0000E946103882371F0688179818A810E9493
:101BB000B0138C010E940B130E94FC11B801CE01DE
:101BC0000E94660BDF91CF911F910F9108950E94A3
:101BD00004140E9414140E9432140E94F1190E94ED
:101BE000C71880E090E00E941B0980E090E00C9410
:101BF000310980910001909101010E9438160C94E6
:101C0000E70D0E94F4130C94F90DE92FE295EF70A3
:101C10004E2F50E0FA013297EE30F105B0F4EA5958
:101C2000FF4F0C940E21803F91F018F4883E68F429
:101C30000EC0843F51F40BC0883E48F0813F29F428
:101C400006C093FB882780F9089580E0089581E01D
:101C500008950E94A5130E94050E0895CF93DF9367
:101C600000D000D01F92CDB7DEB70F900F900F902D
:101C70000F900F90DF91CF910895CF93DF9300D015
:101C800000D000D0CDB7DEB726960FB6F894DEBFF1
:101C90000FBECDBFDF91CF9108951F93CF93DF93F8
:101CA000C0919F0116E08091A001C81799F0D0E083
:101CB0001C9FF0011D9FF00D1124EF55FE4F408138
:101CC000518162817381848195810E943D0E2196AC
:101CD000C770E9CFDF91CF911F9108954091D10155
:101CE0005091D2016091D3017091D4018091D501BE
:101CF0009091D6010C943D0ECF938091D6018295A0
:101D00008F7009F05FC08091D301882309F45AC015
:101D100080919F01B091A0017091D101A091D20159
:101D20004091D4015091D50191E07F3F09F090E0BE
:101D3000692FC6E08B1709F445C04115510521F004
:101D4000AF3F21F020E003C021E001C0262F90E04A
:101D500020FD35C0C89FF001C99FF00D1124EF553B
:101D6000FE4F21812A132BC02081271328C02281F6
:101D7000211125C0238134812417350710F4215007
:101D80003109241B350B283C3105C8F42091D601BC
:101D90002F7020612093D60126E0289FF001299F13
:101DA000F00D1124EA55FE4F80818F708061808391
:101DB00081ED91E00E94B90DCF910C944D0E0196EA
:101DC0008770B8CFCF910895AF92BF92CF92DF9234
:101DD000EF92FF920F931F93CF93DF93CDB7DEB7B0
:101DE00061970FB6F894DEBF0FBECDBF8C0185E0C2
:101DF000F801DE011D9601900D928A95E1F7D80158
:101E00004C9111965C9111971296EC903091D10102
:101E10006091D2018091D4019091D501009731F069
:101E20006F3F31F421E03F3F19F403C021E001C0CE
:101E300020E0B22FB170BB2E20FD60C1F801C3803D
:101E4000D480A090D301AA2009F4EEC02091D6013D
:101E5000C816D90628F0D601A81BB90BCD0104C0BD
:101E6000809590958C0D9D1DFF24F394883C9105E1
:101E700080F0F12C207F09F09CC07C2DD98AC88A83
:101E80006E2D89890E942E0E81ED91E00E94B90D80
:101E90002DC1822F807F09F054C0561314C0431304
:101EA00012C0FE2CE1100FC02F7020612093D601CC
:101EB0000E946E0E81ED91E00E94B90D8091D601D5
:101EC000F80185835CC1CD2831F05F3F31F481E0BA
:101ED0004F3F19F403C081E001C080E080FD03C0E2
:101EE00081E08E2502C080E090E0F82FF170FF2E97
:101EF00080FF1CC080919F012091A00136E08217D5
:101F000009F41AC190E0389FF001399FF00D1124B7
:101F1000EF55FE4F6181561306C06081461303C022
:101F20006281E61203C001968770E9CFFE2CEE2095
:101F300009F425C18091D60181608093D601F12CEE
:101F40001EC1561309C0431307C0E11005C080919C
:101F5000D601F8018583A4C04D875E878D859E8557
:101F60000E94290E882379F1EE2069F12091D60193
:101F7000822F82958F7090E0029774F08091D1014A
:101F80009091D20198878F831986DB86CA862C8729
:101F9000CE0107960E94B90D86E0F801A1EDB1E0EF
:101FA00001900D928A95E1F70E947C0E0E946E0EC0
:101FB0000DC0561771F04D875E878D859E850E94F6
:101FC000290E81111AC0C8010E94B90DFF24F39493
:101FD000D6C04313F0CFE110EECF8091D601F801C7
:101FE0008583C8010E94B90D86E0E1EDF1E0DF01D3
:101FF0001D928A95E9F7FA2CC2C0EE2021F32091B8
:10200000D601822F82958F7090E002972CF28091FA
:10201000D1019091D2019A8389831B82DD82CC8287
:102020002E83CE010196B6CFC816D90628F0F60148
:10203000E81BF90BCF0104C0809590958C0D9D1D78
:10204000883C910548F0F12C7C2DD98AC88A6E2DE8
:1020500089890E942E0E4AC0FE2CEE2009F4B3CFCF
:10206000561333C0431331C02091D60120FD24C044
:10207000822F82958F70482F50E041155105E1F075
:10208000D80115962C9315974F30510549F08F5F65
:10209000982F9295907F822F8F70892B15968C9315
:1020A000C8010E94B90D86E0F801A1EDB1E00190F0
:1020B0000D928A95E1F73DC086E0F801A1EDB1E00F
:1020C00001900D928A95E1F75AC04D875E878D8504
:1020D0009E850E94290E81115FCF8091D60181607B
:1020E0008093D601C8010E94B90D49C0E1EDF1E02D
:1020F00086E0DF011D928A95E9F71BC0EE2009F406
:1021000062CF4D875E878D859E850E94290EF82EB1
:10211000882309F458CF86E0F801A1EDB1E00190E1
:102120000D928A95E1F781ED91E00E942D0A0E94BF
:102130007C0E0E946E0E23C04D875E878D859E8526
:102140000E94A513292F22952F70223028F49F700A
:1021500039F0811105C00BC0243028F49F7049F478
:10216000805E883020F0C8010E94B90DBF2CFB2C86
:1021700006C0D80115969C91907F91F7F8CF8F2DCE
:1021800061960FB6F894DEBF0FBECDBFDF91CF9141
:102190001F910F91FF90EF90DF90CF90BF90AF9085
:1021A00008951F93CF93DF93CDB7DEB72C970FB66B
:1021B000F894DEBF0FBECDBF4F83588769877A87FB
:1021C0008B879C87CE0107960E94E40E8823D1F06E
:1021D0009F8188852A853B85232B31F08F3F31F401
:1021E00081E09F3F19F403C081E001C080E080FDE1
:1021F00047C04F81588569857A858B859C850E946B
:102200003D0E3EC086E0FE013796DE01119601903C
:102210000D928A95E1F7FF81E8856A857B856115D6
:10222000710531F0EF3F31F481E0FF3F19F403C055
:1022300081E001C080E080FD23C02091A00130E05A
:10224000C90101968770992740919F0150E084173A
:102250009507F1F1F983EA837D836C8396E0929F81
:10226000D001939FB00D1124AF55BE4FFE013196A2
:1022700001900D929A95E1F78093A0010E944D0E76
:1022800016E080919F019091A001891771F1189F2C
:10229000C00111248F559E4F0E94E40E882329F11E
:1022A000E0919F011E9FF0011124EF55FE4F4081E8
:1022B000518162817381848195810E943D0E80915C
:1022C0009F0190E001968770992780939F01D9CF55
:1022D0000E94010E1092A00110929F01E1EDF1E029
:1022E00086E0DF011D928A95E9F72C960FB6F894E7
:1022F000DEBF0FBECDBFDF91CF911F910895EF924A
:10230000FF920F931F93CF93DF938C01892B09F4D6
:102310006CC0F12CEE24E394E8012196F80184913D
:10232000843740F4843008F051C0813081F082302D
:1023300019F15BC0853709F444C0A8F19CE7980FF8
:10234000903708F052C08F770E94DD0A41C00E5FBF
:102350001F4FFE01849190E2980F983050F48770DF
:10236000FE2D01C0FF0F8A95EAF78F2F0E940714F8
:1023700014C00E94330A2DC00E5F1F4FFE018491CE
:1023800090E2980F983060F48770FE2D01C0FF0F27
:102390008A95EAF78F2F0E940D140E94321419C0FB
:1023A0000E94DD0A16C00E5F1F4FFE01C491CC23B0
:1023B00081F08FE99FE00197F1F700C00000C15064
:1023C000F6CF0E5F1F4FFE01F49003C00E94330A48
:1023D0008E018F2D882309F49FCFEFE9FFE031971D
:1023E000F1F700C000008150F5CFDF91CF911F9130
:1023F0000F91FF90EF900895089508950C94FD11AA
:102400000C94FE110E940012609303027093040268
:1024100080930502909306020C94E70D0C9402122F
:102420000F931F9300910302109104022091050263
:1024300030910602602B712B822B932B1F910F91F1
:102440000C9402120F931F93009103021091040247
:102450002091050230910602602371238223932389
:102460001F910F910C9402120F931F93009103027E
:102470001091040220910502309106026027712715
:10248000822793271F910F910C9402120C94FD1137
:102490000E9446126093FF01709300028093010234
:1024A000909302020C94E70D60E070E0CB010C9475
:1024B00048120F931F9341E050E060E070E08A0102
:1024C0009B0104C0000F111F221F331F8A95D2F7F2
:1024D000C901B8011F910F910C9448120F931F93DB
:1024E00041E050E060E070E004C0440F551F661FFB
:1024F000771F8A95D2F78091FF0190910002A091F9
:102500000102B09102028A019B01082B192B2A2B90
:102510003B2BC901B8011F910F910C9448120F93E6
:102520001F9341E050E060E070E004C0440F551F8D
:10253000661F771F8A95D2F74095509560957095E4
:102540008091FF0190910002A0910102B0910202DE
:102550008A019B01082319232A233B23C901B801BF
:102560001F910F910C9448120F931F9341E050E07C
:1025700060E070E004C0440F551F661F771F8A9506
:10258000D2F78091FF0190910002A0910102B091D9
:1025900002028A019B01082719272A273B27C90124
:1025A000B8011F910F910C9448120F931F93009143
:1025B000FF01109100022091010230910202602B74
:1025C000712B822B932B1F910F910C9448120F9318
:1025D0001F930091FF0110910002209101023091A0
:1025E000020260237123822393231F910F910C9485
:1025F00048120F931F930091FF0110910002209148
:1026000001023091020260277127822793271F91D0
:102610000F910C944812089528E0929F800D112488
:10262000E82FE695E695E695877051E001C0550FD5
:102630008A95EAF785E0E89FF0011124E952FE4F00
:1026400020E030E070E04081CB01022E02C0969580
:1026500087950A94E2F781708195842785238427E2
:1026600081932F5F3F4F2530310569F7089528E0AA
:10267000929F800D1124682F669566956695982F18
:10268000977085E0689FB001112440E050E080E041
:10269000FB01E40FF51FE952FE4F208130E0092EC7
:1026A00002C0369527950A94E2F721703327042E4D
:1026B00001C0220F0A94EAF7822B4F5F5F4F45302B
:1026C000510531F70895BF92CF92DF92EF92FF92BA
:1026D0000F931F93CF93DF938C01C090FF01D09095
:1026E0000002E0900102F0900202809103029091BA
:1026F0000402A0910502B0910602C82AD92AEA2A4A
:10270000FB2ACFE1D0E0D701C6010C2E04C0B6955C
:10271000A795979587950A94D2F780FD04C02197D5
:1027200090F7B12C07C0BC2EB8018C2F0E94BE03BD
:102730000197A9F38B2DDF91CF911F910F91FF90FE
:10274000EF90DF90CF90BF900895CF93DF93EC018F
:102750000E946313BE010E94BE03DF91CF910895D2
:102760001F93CF93DF93EB0190919E01992321F06A
:10277000CB010E94A51313C0882349F0CB010E940E
:102780006313182F682FCE010E940C1304C0CB01D5
:102790000E943713182FBE01812F0E94BE03DF91C4
:1027A000CF911F9108958091070285958595859514
:1027B000089580910702877008959091070297709D
:1027C00081E009F480E0089580912B0208959091B2
:1027D0002B02892B80932B020895809590912B02D8
:1027E000892380932B02089510922B0208959091D3
:1027F0002A02892B80932A020895809590912A02BB
:10280000892380932A02089510922A0208959091B4
:102810002902892B8093290208958095909129029D
:1028200089238093290208951092290208958091A6
:102830000802089508950C941A140C941B14909196
:102840000802981721F0809308020C941D14089533
:1028500080910802882329F01092080280E00C94ED
:102860001D140895E0910001F091010180912B0267
:102870008083E0910001F0910101908180912A0212
:10288000892B8083E0910001F0910101908180917A
:102890002902892B808380910802882381F0E091AE
:1028A0000001F09101019081892B808380910001CA
:1028B000909101010E948C1581110E942814809131
:1028C0000001909101010C94F3080C941A1498E003
:1028D000899F90011124262B209307020E946E12DB
:1028E000809107028595859585950C9465141092C5
:1028F000070280E00C9465142091070280958223E2
:1029000080930702982F977079F430E0482F082EB3
:10291000000C550B2417350739F08595859585955D
:102920000E948F120C9477140895CF92DF92EF9249
:10293000FF926C01EE24FF24C114D104E104F104E0
:1029400021F0C701B60120E101C020E0C72ED82E3A
:10295000E92EFF24C114D104E104F10419F0285F29
:10296000C701B6016B017C0154E0F694E794D7945B
:10297000C7945A95D1F7C114D104E104F10419F0B8
:102980002C5FC701B6016B017C0142E0F694E7942D
:10299000D794C7944A95D1F7C114D104E104F10446
:1029A00019F02E5FC701B601DC01CB01B695A795E2
:1029B00097958795892B8A2B8B2B09F02F5F822F78
:1029C000FF90EF90DF90CF90089580E090E00E941C
:1029D000302121E08C3E9E4F09F020E0822F0895A7
:1029E00082E090E00C94282183E090E00C94282170
:1029F000CF9384E090E00E942821C82F81E290E0EC
:102A00000E9428212C2F30E0A901582BCA01CF9118
:102A10000895CF93C92F682F84E090E00E9436215B
:102A20006C2F81E290E0CF910C943621AB01BC0178
:102A30008FE090E00C944821AB01BC0183E190E071
:102A40000C94482160E070E0CB010C941C1560E010
:102A500070E0CB010E9416150C9422156CEE7EEFEF
:102A600080E090E00E94542160E082E090E00E94CB
:102A7000362160E083E090E00E943621109203024C
:102A800010920402109205021092060260E084E0A7
:102A900090E00E94362160E081E290E00E943621C1
:102AA00060E085E090E00E94362160E086E090E002
:102AB0000E9436216FEF87E090E00E94362140E0CF
:102AC00050E0BA0188E090E00E94482160E08DE08B
:102AD00090E00E94362140E050E0BA0188E190E0A9
:102AE0000E94482160E087E190E00E94362140E0AA
:102AF00050E0BA018CE190E00E94482160E080E261
:102B000090E00E9436210C9427150C942E15682F06
:102B10008EE090E00C943621FC01329680911401F5
:102B2000882331F08091750287FF02C09EE101C0C9
:102B300096E080E0915028F021912223D9F38F5F15
:102B4000F9CF0895662351F1209114012223E9F071
:102B50002091750227FF19C0462F46954695469548
:102B60004E31E0F4677021E030E002C0220F331FE5
:102B70006A95E2F7FC01E40FF11D828190E02823C1
:102B8000392381E0232B69F409C0FC0132960896B1
:102B90002191621729F0E817F907D1F780E008952D
:102BA00081E008959C01FC0132969FEF80E0419105
:102BB000461789F09F3F19F4411101C0982F8F5F8C
:102BC0008630A9F79F3F39F0F901E90FF11D97FD14
:102BD000FA956283089508959C012A5F3F4FFC0196
:102BE0004281461301C01282019682179307B9F7FA
:102BF0000895262F2695269526952E3168F4FC01FA
:102C0000E20FF11D677021E030E001C0220F6A95EC
:102C1000EAF78281282B22830895262F2695269570
:102C200026952E3170F4FC01E20FF11D677021E052
:102C300030E001C0220F6A95EAF7209582812823AF
:102C40002283089520911401222329F020917502F6
:102C500027FD0C94F9150C94D21520911401222310
:102C600029F02091750227FD0C940D160C94EC159B
:102C700020911401FC013296222331F080917502DB
:102C800087FF02C08EE101C086E0DF011D928A95B8
:102C9000E9F7089508950C944A160C944A16CF93B8
:102CA0000E944D160E9408060E944B16C0E08C2F11
:102CB0000E94AD05811104C0CF5FC830C1F701C0CB
:102CC00081E0CF9108950C944A160C9463160E94EB
:102CD000651680917B02843049F110922D0220E428
:102CE00088E190E00FB6F894A895809360000FBE3D
:102CF0002093600080E00E9442030E94651683B723
:102D0000817F846083BF83B7816083BF7894889517
:102D100083B78E7F83BF0FB6F894A895809160002B
:102D2000886180936000109260000FBE08950C943B
:102D30004A160E94010E0E94E7080E9442030C946A
:102D400097161F920F920FB60F9211248F939F9395
:102D5000AF93BF9380912D02811113C080917102B6
:102D600090917202A0917302B09174024196A11DDC
:102D7000B11D8093710290937202A0937302B0937D
:102D80007402BF91AF919F918F910F900FBE0F90E2
:102D90001F90189582E084BD93E095BD9AEF97BD92
:102DA00080936E0008952FB7F894809171029091EE
:102DB0007202A0917302B09174022FBF0895CF9256
:102DC000DF92EF92FF920F931F932FB7F8944091E9
:102DD00071025091720260917302709174022FBF60
:102DE0006A017B01EE24FF248C0120E030E0C01654
:102DF000D106E206F30610F4415051099A01281B4E
:102E0000390BC9011F910F91FF90EF90DF90CF9088
:102E1000089578941F920F920FB60F9211248F93FA
:102E20009F93AF93BF938091710290917202A09192
:102E30007302B09174020196A11DB11D80937102BD
:102E400090937202A0937302B0937402BF91AF91FA
:102E50009F918F910F900FBE0F901F90189587E74D
:102E600097E790930108809300089AE088E10FB6F5
:102E7000F894A895809360000FBE90936000FFCFF8
:102E80000E94E514811102C00E9485150E94F01471
:102E900080932C020E94F81490937602809375021E
:102EA0000E94F414682F70E080E090E00C940E1201
:102EB0008091350280FF0BC06091070185E0689F1B
:102EC000B001112475956795759567952BC081FFA5
:102ED00009C06091070185E0689FB00111247595D4
:102EE000679520C082FF07C06091070185E0689F59
:102EF000B001112417C0909134029923D1F0609150
:102F00000601961788F72091070185E0289F900118
:102F10001124929FA001939F500D112470E0CA01CB
:102F20000E94FA206038710540F46115710519F4AA
:102F300006C065E070E0862F08958FE7089581E070
:102F400008958091350280FF08C06091030170E010
:102F5000759567957595679521C081FF06C060914D
:102F6000030170E07595679519C082FF04C06091F8
:102F7000030170E010C090913402992399F06091A0
:102F800002019617A0F780910301899FC0011124C7
:102F900070E00E94FA206038710540F461157105F7
:102FA00019F406C061E070E0862F08958FE7089558
:102FB00081E00895803F21F40E945817819504C054
:102FC000813F29F40E945817809339020895823F67
:102FD00021F40E945817819504C0833F29F40E9470
:102FE0005817809338020895893F19F40E94A11759
:102FF00005C08A3F31F40E94A117819580933A025F
:1030000008958B3F21F40E94A117819504C08C3F45
:1030100029F40E94A11780933B020895843F21F474
:1030200080913702816017C0853F21F4809137027B
:10303000826011C0863F21F48091370284600BC00A
:10304000873F21F480913702886005C0883F31F4C2
:103050008091370280618093370208958D3F21F47B
:103060008091350281600BC08E3F21F48091350242
:10307000826005C08F3F29F480913502846080937F
:1030800035020895803F39F48091390287FF6CC082
:103090001092390269C0813F29F4809139021816D3
:1030A000BCF362C090913802823F29F497FF5CC064
:1030B0001092380259C0833F19F41916CCF354C04A
:1030C000893F41F480913A0218160CF04DC01092DD
:1030D0003A024AC08A3F29F480913A0287FF44C0ED
:1030E000F6CF8B3F39F480913B0287FF3DC01092B1
:1030F0003B023AC08C3F29F480913B021816BCF386
:1031000033C0843F21F4809137028E7F17C0853F02
:1031100021F4809137028D7F11C0863F21F4809188
:1031200037028B7F0BC0873F21F480913702877F66
:1031300005C0883F31F4809137028F7E809337023B
:1031400013C08D3F21F4809135028E7F0BC08E3FDE
:1031500021F4809135028D7F05C08F3F29F4809145
:1031600035028B7F809335028091380281110EC029
:103170008091390281110AC080913A02811106C002
:1031800080913B02811102C010923402089586E3BF
:1031900092E00E940D090E94D3169093330280930F
:1031A00032020895CF93DF9300D000D000D0CDB786
:1031B000DEB786E0E6E3F2E0DE01119601900D92C3
:1031C0008A95E1F780913802811105C0809139021A
:1031D000882309F47AC080913002909131020E94D4
:1031E000DF16AC0190913402992339F02091080147
:1031F00030E02417350758F068C0209109018AE0B3
:10320000289F900111242417350718F05EC09F3FB6
:1032100019F09F5F9093340210923A0210923B0291
:1032200080913802181624F40E94581780933802AF
:103230008091380287FF05C00E94581781958093BE
:10324000380280913902181624F40E94581780938E
:1032500039028091390287FF05C00E945817819575
:1032600080933902309138023323E1F02091390202
:103270002223C1F045EB3403C0011124992319F036
:103280009093380203C081E08093380235EB23032A
:10329000C0011124992319F09093390203C081E0F1
:1032A000809339020E94C7188091320290913302B4
:1032B000909331028093300286E0FE013196A6E3BE
:1032C000B2E001900D928A95E1F780913A02811166
:1032D00005C080913B02882309F47AC080912E02B8
:1032E00090912F020E94DF16AC0190913402992335
:1032F00039F02091040130E02417350758F068C0F8
:10330000209105018AE0289F900111242417350798
:1033100018F05EC09F3F19F09F5F909334021092A7
:1033200038021092390280913A02181624F40E9451
:10333000A11780933A0280913A0287FF05C00E944C
:10334000A117819580933A0280913B02181624F4CC
:103350000E94A11780933B0280913B0287FF05C02A
:103360000E94A117819580933B0230913A0233234A
:10337000E1F020913B022223C1F045EB3403C00170
:103380001124992319F090933A0203C081E08093AD
:103390003A0235EB2303C0011124992319F09093CD
:1033A0003B0203C081E080933B020E94C7188091DA
:1033B00032029091330290932F0280932E0286E086
:1033C000FE013196A6E3B2E001900D928A95E1F7F5
:1033D00026960FB6F894DEBF0FBECDBFDF91CF911A
:1033E0000895E6E3F2E086E0DF011D928A95E9F7B1
:1033F0001092340210923502089580915C02089573
:10340000CF93DF9300D01F92CDB7DEB790917B02B0
:10341000943019F589837B836A8382E08093E90085
:103420008FEF9091E800815095FD06C095ED9A953B
:10343000F1F700008111F5CF8091E80085FF0DC004
:1034400040E050E063E070E0CE0101960E945C1C19
:103450008091E8008E778093E8000F900F900F9096
:10346000DF91CF910895CF93DF93EC010E943F1C31
:10347000823011F0843031F4BE0184E0DF91CF91CD
:103480000C94001ADF91CF910895BC0183E00C9455
:10349000001ACF93DF93EC010E943F1C823011F0A1
:1034A0008430F9F482E08093E9008FEF9091E80096
:1034B000815095FD06C095ED9A95F1F700008111B8
:1034C000F5CF8091E80085FF0CC040E050E066E059
:1034D00070E0CE010E945C1C8091E8008E778093A2
:1034E000E800DF91CF910895CF93DF93EC010E9424
:1034F0003F1C823011F08430D9F58091140188236B
:1035000039F08091750287FF03C060E282E002C05B
:1035100068E081E08093E9008FEF9091E8008150AE
:1035200095FD06C095ED9A95F1F700008111F5CF54
:103530008091E80085FF1CC080911401811105C0B5
:1035400040E050E068E070E003C070E040E050E030
:10355000CE010E945C1C8091E8008E778093E80089
:1035600080E2FE01ACE3B2E001900D928A95E1F7B2
:10357000DF91CF91089580917A02811109C00E9454
:10358000ED1D0E944A1E8091E20084608093E2005B
:10359000089510927A020895089508950C9499164A
:1035A00042E061EC81E00E94661D42E261EC82E053
:1035B0000C94661D80917D02833009F460C030F464
:1035C000813071F0823009F499C008958A3009F48D
:1035D00085C08B3009F46BC0893009F0A7C020C0CA
:1035E00080917C02813A09F0A1C08091E800877F38
:1035F0008093E8008091800290918102892B21F4D0
:1036000060E28CE392E003C060E080E090E070E074
:103610000E94A71C8091E8008B778093E8000895B2
:1036200080917C02813209F081C08091800290916A
:103630008102029708F07AC08091E800877F80932A
:10364000E8008091E80082FD05C080917B02811135
:10365000F8CF6CC02091F3008091F20090E0922BA3
:10366000029729F48091F1008B7F813021F48091C1
:10367000F10080935C028091E8008B7753C08091C9
:103680007C02813A09F052C08091800290918102BF
:10369000892B09F04BC08091E800877F8093E80078
:1036A0008091E80080FFFCCF8091140136C08091AA
:1036B0007C028132D9F58091800290918102892B20
:1036C000A9F58091E800877F8093E8000E949B1D08
:1036D00080917E02809314010C94010E80917C02F3
:1036E000813221F58091E800877F8093E8000E9475
:1036F0009B1D80917F0280935D02089580917C02E2
:10370000813AA1F48091E800877F8093E80080915E
:10371000E80080FFFCCF80915D028093F1008091F2
:10372000E8008E778093E8000C949B1D089584B781
:10373000877F84BF0FB6F894A89580916000886158
:1037400080936000109260000FBE90E080E80FB69A
:10375000F89480936100909361000FBE0E94570916
:103760000E94ED1D0E944A1E8091E20084608093B9
:10377000E20078940E94DF200E945F098AE091E0D5
:103780000E94E20880917B02853069F40E946716EE
:10379000809179028823B1F30E944F16882391F318
:1037A0000E94461CEFCF0E946709ECCF0C94D81BF7
:1037B000292F332723303105C9F060F4213031053A
:1037C00081F02230310509F04AC08BE390E028E215
:1037D00033E049C02132310511F12232310579F14E
:1037E0003EC082E190E023E633E03DC0992781307E
:1037F000910561F040F08230910559F0039779F519
:10380000ECEFF2E008C0E4E2F3E005C0EEE0F3E044
:1038100002C0E2E0F3E0849190E09F0124C06115D2
:10382000710541F061307105D1F489E090E023E544
:1038300033E019C089E090E02AE333E014C0611559
:10384000710541F06130710551F48CEB90E025E792
:1038500033E009C080E490E021E334E004C080E07C
:1038600090E020E030E0FA013183208308958091D8
:103870007B02843011F081E0089582E00895809108
:103880005E02811102C00C94371C089580E189BD4D
:1038900082E189BD09B400FEFDCF8091D8008F7D03
:1038A0008093D8008091E00082608093E000809156
:1038B000E00081FDFCCF0895CF92DF92EF92FF925E
:1038C0000F931F93CF93DF93EC018B017A010E943A
:1038D000BA1D811133C0E114F10439F0F701808180
:1038E0009181081B190BC80FD91FC12CD12C0115B0
:1038F000110519F18091E80085FD16C08091E8005E
:103900008E778093E800E114F10449F0F70180819B
:103910009181C80ED91ED182C08285E00FC00E945D
:10392000BA1D882321F30AC089918093F1000150C8
:103930001109FFEFCF1ADF0ADACF80E0DF91CF91D4
:103940001F910F91FF90EF90DF90CF9008952091FD
:103950008202309183022617370748F061157105FE
:1039600039F42091E8002E772093E80001C0B901D6
:10397000FC0120E06115710579F180917B028823BB
:10398000F1F18530F1F18091E80083FD3CC0809138
:10399000E80082FD2EC08091E80080FFEBCF2091EF
:1039A000F3008091F20090E0922B6115710551F0C7
:1039B0008830910538F421912093F100615071090C
:1039C0000196F3CF21E0089709F020E08091E8000C
:1039D0008E778093E800CECF2111CFCF0AC080919F
:1039E0007B02882361F0853061F08091E80083FDDF
:1039F0000AC08091E80082FFF2CF80E0089582E063
:103A0000089583E0089581E0089520918202309125
:103A100083022617370748F06115710539F42091A4
:103A2000E8002E772093E80001C0B901FC0120E0F6
:103A30006115710591F180917B02882309F440C0E2
:103A4000853009F43FC08091E80083FD3DC080913E
:103A5000E80082FD2FC08091E80080FFE9CF20912F
:103A6000F3008091F20090E0922B6115710559F0FE
:103A70008830910540F424912093F10031966150F3
:103A800071090196F2CF21E0089709F020E08091BA
:103A9000E8008E778093E800CBCF2111CCCF0AC00D
:103AA00080917B02882361F0853061F08091E8008D
:103AB00083FD0AC08091E80082FFF2CF80E0089584
:103AC00082E0089583E0089581E00895982F97306B
:103AD00068F59093E900981739F07091EC00209107
:103AE000ED005091F00003C0242F762F50E021FD0F
:103AF00002C09F5FECCF3091EB003E7F3093EB0034
:103B00003091ED003D7F3093ED003091EB0031605E
:103B10003093EB007093EC002093ED005093F00095
:103B20002091EE0027FDE5CF80E008958F7080930F
:103B3000E90081E0089580917C0287FF11C08091A7
:103B4000E80082FD05C080917B028111F8CF11C091
:103B50008091E8008B770BC080917B02882349F02D
:103B60008091E80080FFF8CF8091E8008E77809305
:103B7000E80008952091E4003091E50095E6409139
:103B8000EC00842F817040FF23C08091E80080FD0D
:103B90001DC080917B02882399F0853099F0809137
:103BA000EB0085FD11C04091E4005091E500241721
:103BB000350729F3915011F09A01E1CF84E008957F
:103BC00082E0089583E0089581E0089580E00895FB
:103BD0004091E80042FFDDCF08950E945B1E0E94E5
:103BE000631EE0EEF0E0808181608083E8EDF0E02C
:103BF00080818F77808319BCA7EDB0E08C918E7F98
:103C00008C9380818F7E808310927A0208950F9327
:103C10001F93CF93DF930E945B1E0E94631EC8ED2B
:103C2000D0E088818F7788838881806888838881C5
:103C30008F7D888319BC10927B02109277021092BC
:103C400079021092780200EE10E0F80180818B7FFB
:103C5000808388818160888342E060E080E00E9408
:103C6000661DE1EEF0E080818E7F8083E2EEF0E081
:103C7000808181608083808188608083F801808179
:103C80008E7F8083888180618883DF91CF911F91AF
:103C90000F910895E8EDF0E080818F7E8083E7ED5D
:103CA000F0E080818160808384E082BF81E0809346
:103CB0007A020C94071EE8EDF0E080818E7F80830D
:103CC0001092E20008951092DA001092E100089537
:103CD0001F920F920FB60F9211242F933F934F9381
:103CE0005F936F937F938F939F93AF93BF93EF9364
:103CF000FF938091E10082FF0BC08091E20082FF80
:103D000007C08091E1008B7F8093E1000E94DE205C
:103D10008091DA0080FF1FC08091D80080FF1BC017
:103D20008091DA008E7F8093DA008091D90080FF45
:103D30000DC080E189BD82E189BD09B400FEFDCFDF
:103D400081E080937B020E94BB1A05C019BC1092CF
:103D50007B020E94C91A8091E10080FF19C0809106
:103D6000E20080FF15C08091E2008E7F8093E20028
:103D70008091E20080618093E2008091D8008062AF
:103D80008093D80019BC85E080937B020E94CD1AF5
:103D90008091E10084FF30C08091E20084FF2CC05C
:103DA00080E189BD82E189BD09B400FEFDCF80912B
:103DB000D8008F7D8093D8008091E1008F7E809322
:103DC000E1008091E2008F7E8093E2008091E2002A
:103DD00081608093E20080917702882311F084E073
:103DE00007C08091E30087FD02C081E001C083E04D
:103DF00080937B020E94CE1A8091E10083FF29C04C
:103E00008091E20083FF25C08091E100877F80934D
:103E1000E10082E080937B02109277028091E100C2
:103E20008E7F8093E1008091E2008E7F8093E2009C
:103E30008091E20080618093E20042E060E080E0F7
:103E40000E94661D8091F00088608093F0000E94BF
:103E5000CC1AFF91EF91BF91AF919F918F917F917C
:103E60006F915F914F913F912F910F900FBE0F90E7
:103E70001F9018951F920F920FB60F9211242F9337
:103E80003F934F935F936F937F938F939F93AF93E2
:103E9000BF93CF93DF93EF93FF93C091E900CF706F
:103EA0008091EC00D82FD17080FDD0E81092E9000D
:103EB0008091F000877F8093F00078940E947E1FAD
:103EC0001092E9008091F00088608093F000CD2B83
:103ED000CF70C093E900FF91EF91DF91CF91BF9137
:103EE000AF919F918F917F916F915F914F913F9192
:103EF0002F910F900FBE0F901F9018951F93CF9387
:103F0000DF93CDB7DEB7AA970FB6F894DEBF0FBE2A
:103F1000CDBFECE7F2E08091F100819322E0E4383C
:103F2000F207C9F70E94DA1A8091E80083FF2EC1D8
:103F300080917C0290917D02492F50E04A305105DA
:103F400008F024C1FA01EC58FF4F0C940E21803880
:103F500021F0823809F01AC108C08091780290914E
:103F60007902992389F082600FC0809180028F705E
:103F7000873008F00BC18093E9008091EB0085FB4E
:103F8000882780F91092E9009091E800977F90933C
:103F9000E8008093F1001092F100D1C0282F2D7F0E
:103FA00009F0F4C0882319F0823061F0EFC08091ED
:103FB0007E02813009F0EAC0933009F080E08093FE
:103FC00079022EC080917E0281112AC080918002E8
:103FD0008F702FEF280F263008F0D8C08093E900AB
:103FE0002091EB0020FF1CC0933021F48091EB0066
:103FF000806214C09091EB0090619093EB0021E0FF
:1040000030E0A90102C0440F551F8A95E2F74093A2
:10401000EA001092EA008091EB0088608093EB0048
:104020001092E9008091E800877F8093E8000E9469
:104030009B1DACC08111AAC010917E021F77809198
:10404000E3008078812B8093E3008091E800877FF4
:104050008093E8000E949B1D8091E80080FFFCCFC8
:104060008091E30080688093E300111102C082E038
:1040700001C083E080937B0289C08058823008F0C1
:1040800085C080917E0290917F028C3D53E0950720
:1040900079F583E08A838AE289834FB7F894DE0159
:1040A000139620E03EE051E2E32FF0E050935700FA
:1040B000E49120FF03C0E295EF703F5FEF708E2F19
:1040C00090E0EA3010F0C79601C0C0968D939D93A2
:1040D0002F5F243149F74FBF8091E800877F80939D
:1040E000E8006AE270E0CE0101960E94A71C16C0AB
:1040F0006091800270918102AE014F5F5F4F0E941C
:10410000D61BBC01892B09F441C09091E800977F30
:104110009093E80089819A810E94051D8091E800B2
:104120008B778093E80032C0803881F58091E80079
:10413000877F8093E800809177028093F1008091DF
:10414000E8008E7772CF811121C080917E0290911C
:104150007F0299270297D4F48091E800877F8093AB
:10416000E80080917E02809377020E949B1D8091DF
:104170007702811106C08091E30087FD02C081E0D3
:1041800001C084E080937B020E94D01A8091E800F5
:1041900083FF0AC08091E800877F8093E8008091C8
:1041A000EB0080628093EB00AA960FB6F894DEBF16
:1041B0000FBECDBFDF91CF911F9108950895CF938A
:1041C00080917B028823A1F0C091E900CF7090918B
:1041D000EC00892F817090FD80E8C82B1092E900D7
:1041E0008091E80083FD0E947E1FCF70C093E9009C
:1041F000CF91089597FB072E16F4009407D077FD12
:1042000009D00E94142107FC05D03EF490958195B9
:104210009F4F0895709561957F4F0895EE0FFF1F92
:104220000590F491E02D0994AA1BBB1B51E107C036
:10423000AA1FBB1FA617B70710F0A61BB70B881F36
:10424000991F5A95A9F780959095BC01CD010895C5
:10425000F999FECF92BD81BDF89A992780B508954E
:10426000A8E1B0E042E050E00C945C21262FF999DF
:10427000FECF92BD81BDF89A019700B4021639F0C5
:104280001FBA20BD0FB6F894FA9AF99A0FBE089596
:104290000396272F0E9437210E943621252F0E9446
:1042A0003721242F0C9437210196272F0E94372184
:1042B0000C943621DC01CB01FC01F999FECF06C03C
:1042C000F2BDE1BDF89A319600B40D9241505040D4
:0842D000B8F70895F894FFCF40
:1042D80009022808641E140A321EFD19741A491AA4
:1042E800451A331A01E200E900EA00B500B600B742
:1042F80000CD008301CC008A0192019401210223A0
:104308000224022502260227022A02B300B4006F03
:104318000070008182839091F0F1F4F5F6F76697CA
:10432800C63435363796E200E900EA00B500B60033
:10433800B700CD008301CC008A01920194012102CB
:10434800230224022502260227022A02B300B4000F
:084358006F00700081828300F8
:00000001FF
