:100000000C94AA040C94F1040C94F1040C94F104E3
:100010000C94F1040C94F1040C94F1040C94F1048C
:100020000C94F1040C94F1040C9443220C941523C9
:100030000C94AC190C94F1040C94F1040C94F1049C
:100040000C94F1040C94F1040C94F1040C94F1045C
:100050000C94F1040C94051A0C94F1040C94F10422
:100060000C94F1040C94F1040C94F1040C94F1043C
:100070000C94F1040C94F1040C94F1040C94F1042C
:100080000C94F1040C94F1040C94F1040C94F1041C
:100090000C94F1040C94F1040C94F1040C94F1040C
:1000A0000C94F1040C94F1040C94F104F80EF80E85
:1000B0002A0F2A0F770FAB10AB10AB10950F2A1039
:1000C0003B103B109B10AB10AB10A4104711471115
:1000D00059115911501159115911591147114711FD
:1000E00055115911591155110C1CFA1B131C981A52
:1000F000E81CE81CF71BE81CE81C401CE81C541C0E
:10010000C81CE81CE81CE81CE81C841CE81CE81C53
:10011000711CE81C2C1CE81CE81CE21CE21CE21C04
:10012000E21CE21CE21CE21CE21CE21CE41CE81CD7
:100130000C1CEF1BE81CE81CE81CE81CE81CE81C75
:10014000E81CE81CE81CE81CE41CE81CE81CF71B85
:10015000E81CE01CE01CE01CE01CE01CE01CE01CB7
:10016000E01CE01CE41C8223A923A124A923A124D0
:10017000F5231824A1246F247E2453005400550035
:1001800056005F006000610057005C005D005E008B
:10019000000059005A005B00580062000000630034
:1001A000000044454255473A2064697361626C65BA
:1001B000642E0A0044454255473A20656E61626CE0
:1001C00065642E0A000A0025303862003A200025B6
:1001D000303258000A722F632030313233343536D2
:1001E000370A000A002530325820006B6579626FAB
:1001F0006172645F7265706F72743A20000A002544
:10020000303258006B6579626F6172645F73657438
:100210005F6C65643A200064656C5F6B65795F6252
:1002200069743A2063616E27742064656C3A2025F6
:100230003032580A006164645F6B65795F6269748B
:100240003A2063616E2774206164643A202530325D
:10025000580A003F00433E20004C25640A007469A0
:100260006D65725F72656164333228293A202530EA
:10027000346C580A006B65796D61705F636F6E66F0
:1002800069672E6E6B726F3A2025580A006B65798C
:10029000626F6172645F69646C653A2025580A0078
:1002A0006B6579626F6172645F70726F746F636F98
:1002B0006C3A2025580A00686F73745F6B65796229
:1002C0006F6172645F6C65647328293A2025580A4F
:1002D000000A092D20537461747573202D0A00479C
:1002E00043433A20352E342E30204156522D4C496E
:1002F00042433A20322E302E30204156525F415236
:1003000043483A20617672350A004F5054494F4EA7
:10031000533A204C5546412045585452414B45597B
:1003200020434F4E534F4C4520434F4D4D414E447B
:10033000204E4B524F20343039360A004255494C3A
:10034000443A2022302E392E34352D332D67643235
:100350006265336122202832313A31373A30392010
:100360004A756C2032362032303230290A00564924
:10037000443A203078464545442848616E647769A0
:1003800072656429205049443A203078363036303E
:10039000284B2D4E756D70616431372920564552BA
:1003A0003A203078303030310A000A092D20566565
:1003B0007273696F6E202D0A000A092D20436F6E3B
:1003C000736F6C65202D0A4553432F713A0971757F
:1003D00069740A000A092D204D61676963202D0A9E
:1003E000443A094465627567204D657373616765BA
:1003F00020546F67676C650A583A094D61747269D9
:1004000078204465627567204D6F646520546F677E
:10041000676C65202D2053686F77206B657970724B
:10042000657373657320696E206D617472697820DD
:10043000677269640A4B3A094B6579626F6172644D
:1004400020446562756720546F67676C65202D20B6
:1004500053686F77206B657970726573732072656E
:10046000706F72740A4D3A094465627567204D6F6A
:1004700075736520546F67676C650A563A0956654F
:100480007273696F6E0A533A095374617475730A13
:10049000433A09416374697661746520436F6E73F2
:1004A0006F6C65204D6F64650A46312D4631303AD8
:1004B0000953776974636820746F204C61796572A1
:1004C00020302D392028463130203D204C30290A5B
:1004D000302D393A0953776974636820746F204C62
:1004E0006179657220302D390A47524156453A09E3
:1004F00053776974636820746F204C61796572204A
:10050000302028616C7465726E617465290A423A04
:10051000094A756D7020746F20426F6F746C6F6143
:100520006465720A4553433A094A756D7020746FC9
:1005300020426F6F746C6F616465722028616C7407
:1005400065726E617465290A453A095072696E7464
:1005500020454550524F4D2053657474696E677342
:100560000A4253504143453A09436C656172204544
:100570004550524F4D0A4E3A094E4B524F20546F40
:1005800067676C650A000A002575002E6E6B726F36
:100590003A20000A002575002E737761705F626152
:1005A000636B736C6173685F6261636B73706163CB
:1005B000653A20000A002575002E737761705F6729
:1005C000726176655F6573633A20000A00257500E5
:1005D0002E6E6F5F6775693A20000A002575002E40
:1005E000737761705F72616C745F726775693A20CE
:1005F000000A002575002E737761705F6C616C7462
:100600005F6C6775693A20000A002575002E7377C4
:1006100061705F7263746C5F726775693A20000A7B
:10062000002575002E737761705F6C63746C5F6C6E
:100630006775693A20000A002575002E63617073A2
:100640006C6F636B5F746F5F636F6E74726F6C3A25
:1006500020000A002575002E737761705F636F6E4E
:1006600074726F6C5F636170736C6F636B3A2000C0
:100670000A0025303258006B65796D61705F636FD9
:100680006E6669672E7261773A20000A0025750050
:100690002E6D6F7573653A20000A002575002E6B6C
:1006A0006579626F6172643A20000A002575002E38
:1006B0006D61747269783A20000A002575002E6514
:1006C0006E61626C653A20000A0025303258006481
:1006D000656275675F636F6E6669672E7261773AF0
:1006E00020000A0025750064656661756C745F6C96
:1006F000617965723A20003F004E4B524F3A206FAD
:1007000066660A004E4B524F3A206F6E0A000A6D21
:100710006F7573653A206F66660A000A6D6F7573B0
:10072000653A206F6E0A000A6B6579626F617264C8
:100730003A206F66660A000A6B6579626F617264BF
:100740003A206F6E0A000A6D61747269783A206F00
:1007500066660A000A6D61747269783A206F6E0AE3
:10076000000A64656275673A206F66660A000A646B
:10077000656275673A206F6E0A000A0A4A756D70E5
:10078000696E6720746F20626F6F746C6F6164654F
:10079000722E2E2E2000433E2000436C656172694C
:1007A0006E6720454550524F4D0A006565636F6E78
:1007B0006669673A0A005B735D004B6579626F6139
:1007C00072642073746172742E0A005B575D005B63
:1007D000535D005B525D005B445D005B435D000464
:1007E000033000000016034B002D004E0075006D15
:1007F00000700061006400310037000000140348FD
:100800000061006E0064007700690072006500649A
:100810000000000403090409025B00030100A0FAC0
:100820000904000001030101000921110100012256
:1008300040000705810308000A09040100010300C4
:100840000000092111010001226D0007058203202B
:10085000000A09040200020300000009211101003E
:10086000012222000705830320000107050303205E
:1008700000011201100100000008EDFE606001009F
:10088000010203010631FF0974A101097515002653
:10089000FF009520750881020976150026FF009556
:1008A0002075089102C005010980A1018503190185
:1008B0002AB700150126B700950175108100C00503
:1008C0000C0901A101850419012AA002150126A025
:1008D00002950175108100C005010906A101850579
:1008E000050719E029E71500250195087501810222
:1008F0000507190029EF1500250195F07501810202
:1009000005081901290595057501910295017503E1
:100910009101C005010906A101050719E029E715A4
:100920000025019508750181029501750881010571
:1009300007190029FF150026FF009506750881009C
:1009400005081901290595057501910295017503A1
:100950009101C00011241FBECFEFDAE0DEBFCDBF92
:1009600004B603FE27C08091580290915902A091CD
:100970005A02B0915B028730904BA740B04BD1F444
:10098000109258021092590210925A0210925B0271
:1009900014BE84B7877F84BF0FB6F894A895809162
:1009A0006000886180936000109260000FBEE0E0FC
:1009B000F8E3099511E0A0E0B1E0E4E5FAE402C053
:1009C00005900D92A838B107D9F722E0A8E8B1E068
:1009D00001C01D92A835B207E1F70E94691F0C946F
:1009E00028250C940000FF93EF93E0918801F0918B
:1009F0008901309709F00995EF91FF910895FC0165
:100A00008591803011F0EFDFFBCF0895FF27E0E202
:100A100030E247FF0CC0419597FF09C0EDE26095B9
:100A2000709580959095611D711D811D911D27FF09
:100A300002C0219530E350E2AA27660F771F881F76
:100A4000991FAA1FA41710F0A41B63955A95A9F724
:100A5000AA3008F0A95FA05DAF93F3956115710509
:100A60008105910541F7ED3211F4EF93F395F217FB
:100A700018F43F93F395FBCF8F91B5DFFA95E1F72B
:100A80000895E991F9918591803021F0853219F02E
:100A9000AADFF9CF089520E0E89455915532C1F3CB
:100AA000503311F4689455915A3348F4505390F3ED
:100AB000220F022E220F220F200D250FF4CF0EF44D
:100AC000219589919991533619F3533729F153356B
:100AD00059F1BC0188279927E8945C3621F4899163
:100AE000999168945591543639F446EF7EF077FF2A
:100AF0000DC08FEF9FEF0AC055374AE039F05835E7
:100B000040E121F0523642E009F00895FF93EF935F
:100B10007DDFEF91FF91B7CFFF93EF93FC018191C0
:100B20008030B9F360DFFBCFFF93EF9368DFF1CF45
:100B3000DF93CF93CDB7DEB72596A3DFCF91DF91BB
:100B4000089581E0089581E008950C94A305089527
:100B50000C94A7051F93CF93DF9300D000D01F9272
:100B6000CDB7DEB749835A836B8330919D0189816C
:100B70009A81311114C0662359F0222349F00E9452
:100B80007F16182F682F89819A810E942A1603C028
:100B90000E945416182F69817A81812F04C00E9407
:100BA0007F1669817A810F900F900F900F900F90B0
:100BB000DF91CF911F910C947906FC01262F408183
:100BC00051816281738184810C94AA05CF93DF9354
:100BD000EC0160E00E94DD05BE01DF91CF910C9435
:100BE000A8050E943E1A0E94CE17811102C00E94E1
:100BF0006E180C94D5080C94D10808950C94FD053A
:100C000081E008950C940006CF93C82F0E94FE0542
:100C10008C2F0E940206CF91089508950E943511ED
:100C20000E940D062FEF84E39CE02150804090400D
:100C3000E1F700C000000C942B1A0F931F93CF9381
:100C4000DF93EC0161E00E94DD058C01BE010E9492
:100C5000A505882309F442C0BE01C8010E94580AB4
:100C60008823E1F1BE01C8010E94990A8823B1F1ED
:100C7000BE01C8010E94C40B882381F18A818823A8
:100C800031F101308CE5180751F00E3D8CE5180765
:100C9000D9F001151C45D9F40E940E061FC08091A1
:100CA0001202C82FC095C170C0FB80F98093120258
:100CB000CC2329F084EB91E00E94FF040FC082EA6C
:100CC00091E00E94FF040BC00E946E1807C0CE0185
:100CD000DF91CF911F910F910C94A105C0E08C2F53
:100CE000DF91CF911F910F91089580E090E00895DA
:100CF0000895E72FF0E095E0899FE00DF11D1124A4
:100D0000EE0FFF1FEE0FFF1FE60FF11DEE0FFF1F8F
:100D1000E658FE4F859194910895880F991FFC0124
:100D2000EB53FE4F859194910895CF93DF930E94EA
:100D300079060E94A707EC018115904508F043C091
:100D4000C11580E4D80708F0CBC0C03ED10528F516
:100D5000C03CD10508F0B3C0C83AD10578F4C53A13
:100D6000D10508F0A4C0C130D10509F4ECC008F4E5
:100D7000E8C0C430D10508F0E6C0E3C0CF3BD105E0
:100D800008F0DFC0C85AD0E0CC0FDD1FC35FDE4FD4
:100D90000990D881C02DD464D6C0C11590E2D9077E
:100DA00050F4C11521E0D20708F0CDC0C83ED105EE
:100DB00008F4C9C0C6C0C11580E3D80708F086C0D2
:100DC000CE019F707FC0C11595E5D90708F043C0DB
:100DD000C11524E5D20708F09AC0C11582E5D807ED
:100DE00008F5C11591E5D90708F07DC0CE0174E082
:100DF000969587957A95E1F783709C2F937021E003
:100E000030E002C0220F331F9A95E2F73C68382B7E
:100E1000CF70C695C69580E2C89FE0011124C22B11
:100E2000D32B91C09E01237033278C2F86958695F6
:100E3000C115D34508F05CC0C1E0D0E002C0CC0FC2
:100E4000DD1F2A95E2F720E2829FC0011124C82B02
:100E5000D92BDC6878C0C11529E5D207A0F4C115EB
:100E600088E5D80708F058C0C11596E5D90708F0FD
:100E700068C08C2F0E943B088F71C82FD0E0DC2FF8
:100E8000CC27D06260C0C1152AE5D20708F449C05A
:100E9000CE0190568115904208F053C08D2F8F716E
:100EA0000E943B08DD27D0628F71D82B4CC0C55AF9
:100EB000D0E0C55CDE4FC881D0E0D06444C0CE0134
:100EC000805C91090E948D06EC013DC0CE019927FE
:100ED000D3FF03C0EC01D86C36C0EC01D06C33C03A
:100EE000DF70D06A30C0DC2FCC27C16FD06A2BC036
:100EF000C1E0D0E002C0CC0FDD1F2A95E2F720E26E
:100F0000829FC0011124C82BD92BDA681CC0DC2FAA
:100F1000CC27C46FD06A17C0DC2FCC27C06FD06A33
:100F200012C08C2F8F700E943B0894E0D695C79515
:100F30009A95E1F7CF70D0E0DC2FCC27D069C82B91
:100F400002C0C0E0D0E0CE01DF91CF910895823899
:100F5000910569F1B0F48133910509F46DC048F44D
:100F60008932910509F463C08A32910509F469C098
:100F700008958533910509F455C089339105B9F079
:100F80000895833E910569F138F4803E9105B1F0F2
:100F9000823E910509F10895863E9105A9F1873EAB
:100FA0009105B9F1843E910509F064C023C02091F8
:100FB000490220FD4FC021FD4DC008958091490296
:100FC00080FD44C080914A0280FF44C08091490264
:100FD00084FD42C083EE4DC08091490282FF38C03B
:100FE000F5CF8091490282FD33C080914A0280FD95
:100FF00031C0ECCF80914A0281FF32C0809149021A
:1010000084FD2AC087EE35C08091490283FF26C047
:10101000F5CF8091490283FD21C080914A0281FD74
:101020001FC0ECCF8091490285FD1CC01DC080917E
:10103000490285FD19C016C08091490286FD16C07F
:1010400017C08091490286FD13C010C089E311C00A
:1010500082EE0FC080EE0DC080E00BC086EE09C0AE
:1010600084EE07C089E205C085E303C08AE201C0BF
:1010700081E390E008959091490292FF0DC0282FDE
:101080002871283019F4877F846006C0282F2471C6
:10109000243011F48B7F886093FF0DC0282F2871B6
:1010A000283119F4877E846106C0282F24712431E9
:1010B00011F48B7E886120914A0220FF0DC0382FE9
:1010C0003871383019F4877F816006C0382F31714C
:1010D000313011F48E7F886021FF0DC0282F2871D8
:1010E000283119F4877E816106C0282F21712131B2
:1010F00011F48E7E886194FD877E0895E82FF0E0DC
:10110000E05CFD4F80810895CF92DF92EF92FF92D5
:101110000F931F93CF93DF9384ED91E00E94FF0420
:1011200080E4E82E82E0F82EC0E0D0E09FECC92EEB
:1011300091E0D92E07EC11E0DF93CF93DF92CF92AD
:101140000E9498058CEC91E00E94FF04F7018191C8
:101150007F010E94B6171F928F931F930F930E94D7
:10116000980585EC91E00E94FF0421968DB79EB70B
:1011700008960FB6F8949EBF0FBE8DBFC530D1053F
:10118000D9F6DF91CF911F910F91FF90EF90DF90F3
:10119000CF90089580EA8A95F1F7089508950C9408
:1011A000CE080C94CF080C94CE080C94D308CF939F
:1011B000DF93A2E4B1E047E451E061E070E08D919B
:1011C000E82FE295EF70F0E021A18F70EB0102C0F3
:1011D000CC0FDD1F8A95E2F7CE019C2F90959223CC
:1011E00091A392A1892B82A34A175B0741F7AEE333
:1011F000B1E042E451E061E070E08D91E82FE295CA
:10120000EF70F0E021A18F70EB0102C0CC0FDD1F69
:101210008A95E2F7CE019C2F9095922391A392A1FB
:10122000892B82A34A175B0741F7EBE3F2E0A0E4C6
:10123000B2E080E492E011921D928E179F07D9F7D9
:1012400085E00E94AD09DF91CF910C94F1056F927A
:101250007F928F929F92AF92BF92CF92DF92EF9246
:10126000FF920F931F93CF93DF9382E4882E81E048
:10127000982E0BE312E090E4A92E92E0B92E712C87
:10128000CC24C394D12CF40181914F01C82FC29575
:10129000CF70D0E099A18F70760101C0EE0C8A95D5
:1012A000EAF7892F8E2989A38AA16E2C6094862162
:1012B0008AA30E94CA08EEE3F1E040E050E020E09B
:1012C0003191A32FA295AF70B0E090968C9190E0F1
:1012D0003F7002C0959587953A95E2F780FD07C06B
:1012E0008C2D042E01C0880F0A94EAF701C080E01B
:1012F000282B4F5F5F4F4430510511F789A16822B9
:1013000069A28AA1E82AEAA2F8018081281719F0C7
:10131000208381E001C080E0782A0F5F1F4FA01674
:10132000B10609F0B0CF272D45E060E472E08BE311
:1013300092E00E94AE090E94FB05872DDF91CF91BC
:101340001F910F91FF90EF90DF90CF90BF90AF90E3
:101350009F908F907F906F9008950895FF920F93C4
:101360001F93CF93DF938C01F62ED72FC42F222308
:1013700049F081E080938C010E94DE1990938B01EB
:1013800080938A0180918C018823C1F080918A0129
:1013900090918B010E94F619069780F0EF2DFD2F9A
:1013A000D8014C2F50E0CD01801B910B841795077D
:1013B0001CF48D918193F7CF10928C01DF91CF9126
:1013C0001F910F91FF9008950F931F93CF93DF9379
:1013D000C62FD42F122FFC0182818823C9F060937D
:1013E0008F010E94DE1990938E0180938D0180E21F
:1013F0008C0F883008F057C0C77081E001C0880F9B
:10140000CA95EAF7DF91CF911F910F910C94B40E1A
:1014100080918F01681330C080918D0190918E0171
:101420000E94F6198039914038F500E20D0FCD1772
:10143000B9F080E28C0F883040F4C77081E001C0C1
:10144000880FCA95EAF70E94BB0E083028F581E0A4
:101450009D2F977001C0880F9A95EAF70E94B40EED
:10146000812F0E94A10E0830F0F4D77081E001C0F6
:10147000880FDA95EAF70AC080E28C0F883098F47A
:10148000C77081E001C0880FCA95EAF7DF91CF915C
:101490001F910F910C94BB0E812FDF91CF911F9163
:1014A0000F910C94A10EDF91CF911F910F91089590
:1014B0009C01CB01233F4CE53407F9F078F4283D3B
:1014C000FCE53F07B9F0293D4CE5340711F1273D14
:1014D0003C4531F526E241EE61EE1EC0253FFCE5BC
:1014E0003F0799F070F0263F3C45D1F427E245EEE6
:1014F00066EE12C027E245EE0EC026E241EE60EE37
:101500000BC027E245EE64EE07C026E241EE62EE34
:1015100003C028E241E065EE0E94E40980E00895FE
:10152000FC018281882319F010928F01089581E0D7
:101530000895CF93DF93EC01FB018281882309F4A6
:101540001FC1C230FCE5DF0708F41BC1C6319CE5B2
:10155000D90738F09E012A5F3C452930310508F053
:1015600010C10E94E11790934A0280934902C03152
:10157000ECE5DE0709F4C3C008F041C0C8308CE5D3
:10158000D80709F49AC0F0F4C430ECE5DE0709F49A
:1015900087C068F4C2308CE5D80709F477C0C3303F
:1015A000DC4509F0E3C080914902826076C0C63014
:1015B000ECE5DE0709F46EC008F07BC080914902BB
:1015C00088606BC0CC308CE5D80709F485C068F41E
:1015D000CA30ECE5DE0709F474C008F079C00E9457
:1015E000351180914902806858C0CE308CE5D8070B
:1015F00009F476C008F07FC0809149028BC0CB3FD0
:10160000ECE5DE0709F44FC018F5C3318CE5D807C7
:1016100009F47DC078F4C131ECE5DE0709F473C04C
:10162000C231DC4509F0A2C00E9435118091490207
:101630008F7733C0C5318CE5D80709F472C008F440
:1016400086C0CA3FDC4509F091C080914A023EC085
:10165000CF3FFCE5DF0709F45FC058F4CD3F9CE5C0
:10166000D90709F444C008F43FC080914A0282605F
:101670002DC0C130FDE5DF0709F475C008F45DC079
:10168000C230DD4509F072C080E06EC08091490231
:10169000816003C08091490280618093490266C0E5
:1016A0008091490211C080914A02826080934A026F
:1016B0005DC0809149028062F0CF809149028064D0
:1016C000ECCF8091490288608460E7CF8160EECFE3
:1016D000809149028E7FE1CF809149028D7FDDCFDD
:1016E00080914902877FD9CF80914A0218C08091AA
:1016F0004A028D7FDBCF809149028F7ECECF8091D1
:1017000049028F7DCACF809149028F7BC6CF8091DD
:101710004902877F8B7FC1CF80914A028D7F8E7F68
:10172000C5CF8091490282FB222720F991E09227C0
:1017300090FB82F990FB83F9B0CF80914A02982FF9
:10174000909591708E7F892B90FB81F9AFCF0E948D
:1017500035118091490287FB222720F991E09227D9
:1017600090FB87F99ACF81E00E947018809149021E
:1017700090914A020E94F2170E94351180E001C048
:1017800081E0DF91CF910895CF93DF9386319C451F
:1017900041F5EB010E940017982F8A8120910001EA
:1017A00030910101882379F09A7A81E009F480E090
:1017B00080939001911102C069E201C065E3C90103
:1017C0000E942D190AC080919001811102C069E226
:1017D00001C065E3C9010E9438190E944E1780E0DC
:1017E00001C081E0DF91CF9108959093960180939D
:1017F00095010895E0919501F0919601309721F0BF
:101800000190F081E02D099480E00895EF92FF921D
:101810001F93CF93DF93FC01A0919501B0919601A6
:10182000109709F442C080910C01882341F0809107
:10183000490287FF04C08081818385E08083EF01B6
:101840001296ED91FC911397CE01099580911202A9
:1018500082FF2BC080FF04C08BEE91E00E94FF044A
:1018600018E085EEE82E81E0F82E8091120280FFCC
:101870000BC088811F928F93FF92EF920E94980570
:101880000F900F900F900F90115021961111EDCFE6
:101890008091120280FF09C083EE91E0DF91CF9129
:1018A0001F91FF90EF900C94FF04DF91CF911F9157
:1018B000FF90EF90089520919301309194012817A3
:1018C000390771F09093940180939301E091950111
:1018D000F0919601309721F00680F781E02D099470
:1018E000089520919101309192012817390771F0E4
:1018F0009093920180939101E0919501F09196016E
:10190000309721F00084F185E02D0994089585B782
:10191000806885BF85B7806885BF089508950C9459
:101920008E0C0C948F0C0C948E0C0C948E0C0E94CC
:10193000870C0E94930C0C94910C81E008950C94F8
:101940009D0C0E94D5190E94D7080E94521A0C942F
:10195000950CCF93C82F8091120282FF1EC080FF8A
:1019600004C084E092E00E94FF048091120280FF94
:101970000CC01F92CF938FEF91E09F938F930E94A3
:1019800098050F900F900F900F908091120280FF9A
:1019900004C08DEF91E00E94FF048C2FCF910C9436
:1019A0000406AF92BF92CF92DF92EF92FF920F9315
:1019B0001F93CF93DF93CDB7DEB72A970FB6F89476
:1019C000DEBF0FBECDBF0E9427090E949F0C811170
:1019D00011C08FEF89838A831B820E94DE19816088
:1019E000782F9D838C8349815A816B818D810E94E0
:1019F000670D40C088E9A82E81E0B82E00E010E015
:101A0000C02E802F0E947E08E82EF501D1905F0144
:101A1000D82631F40F5F1F4F0530110589F7D9CF54
:101A20008091120281FD0E94840880E0FF24F394DB
:101A30009D2D9F21D1F08E83CF82EF2081E009F48C
:101A400080E088870E94DE198160782F9A878987D5
:101A50004E815F8168858A850E94670DF801E8568E
:101A6000FE4F8081F826F08205C08F5FFF0C843026
:101A7000F9F6D0CF0E94FA0B909197018917B1F037
:101A80000E94FA0B809397012A960FB6F894DEBF56
:101A90000FBECDBFDF91CF911F910F91FF90EF90BF
:101AA000DF90CF90BF90AF900C94A90C2A960FB600
:101AB000F894DEBF0FBECDBFDF91CF911F910F9184
:101AC000FF90EF90DF90CF90BF90AF900895CF93AD
:101AD000DF93CDB7DEB72B970FB6F894DEBF0FBEFE
:101AE000CDBF4F83588769877A878B87DE01119630
:101AF00086E0FD0111928A95E9F785E0FE013796AF
:101B000001900D928A95E1F749815A816B817C8120
:101B10008D819E810E94EF132B960FB6F894DEBF45
:101B20000FBECDBFDF91CF910895FC0180819181DF
:101B30000E94C1160895CF93882309F4A1C0C82F2D
:101B40008238C1F40E94FA0B81FD9AC069E380914A
:101B50000001909101010E942D190E944E172FEF54
:101B600081EE94E0215080409040E1F700C00000F9
:101B700069E319C0833801F50E94FA0B80FD80C02B
:101B800063E580910001909101010E942D190E944E
:101B90004E172FEF81EE94E0215080409040E1F706
:101BA00000C0000063E580910001909101010E9456
:101BB0003819CF910C944E178438C1F40E94FA0B57
:101BC00082FD5EC067E480910001909101010E9456
:101BD0002D190E944E172FEF81EE94E02150804086
:101BE0009040E1F700C0000067E4DDCF8CEF8C0F80
:101BF000813AF8F48C2F0E94F51C811141C06C2FA2
:101C000080910001909101010E948B18882349F076
:101C10006C2F80910001909101010E9438190E945F
:101C20004E176C2F80910001909101010E942D1997
:101C3000C0CF80E28C0F883048F4C77081E001C0CB
:101C4000880FCA95EAF70E940317B3CFEBE5EC0FB4
:101C5000E33040F4F0E0EB58FE4F808190E0CF910C
:101C60000C945B0CC85AC73158F4EC2FF0E0EE0F1F
:101C7000FF1FE95BFE4F80819181CF910C94710C25
:101C8000CF910895882309F45BC0682F823879F4D6
:101C90000E94FA0B81FF54C069E38091000190918A
:101CA00001010E942D190E944E1769E310C083386C
:101CB000B1F40E94FA0B80FF43C063E580910001FC
:101CC000909101010E942D190E944E1763E58091A9
:101CD0000001909101010E9438190C944E1784382C
:101CE00079F40E94FA0B82FF2BC067E48091000117
:101CF000909101010E942D190E944E1767E4E7CFD1
:101D00008CEF860F813A18F380E2860F883048F412
:101D1000677081E001C0880F6A95EAF70E94091791
:101D2000DCCF8BE5860F833020F480E090E00C94CC
:101D30005B0C685A673120F480E090E00C94710CE1
:101D40000895CF93C82F0E949B0DC93349F42FEFFC
:101D500087EE93E0215080409040E1F700C0000002
:101D60008C2FCF910C94420E882321F00E940317F0
:101D70000C944E170895882321F00E9409170C94A3
:101D80004E170895CF92DF92EF92FF920F931F9319
:101D9000CF93DF937C01062FC72FFC01158112958D
:101DA0001F70D281D1110E9420170E94F91688233A
:101DB00099F0DD2389F08C2F807F803421F080E240
:101DC000800F883048F082E00E9498170E94F91630
:101DD00091E0D82ED92601C0D12CCC2EC2948FE010
:101DE000C8228C2D90E0FC01EA5AFF4F0C94E024AD
:101DF0008C2F807FCF70882311F0C295C07FDD23A8
:101E000099F0CC2309F482C180E2800F883010F071
:101E1000011104C08C2F0E94031703C08C2F0E9455
:101E200013170E944E1772C1802F0E94420ECC23BE
:101E300009F491C180E2800F883010F0011104C0D4
:101E40008C2F0E94091703C08C2F0E9419170E9423
:101E50004E1781C18C2F807FCF70803211F0C295D8
:101E6000C07F002319F00130C9F022C0DD2371F0DA
:101E7000112341F0113031F40E9433178C2B0E9452
:101E80003B1769C10E9433178C2B1DC0112319F019
:101E9000113009F460C10E94441725C0DD2321F0F0
:101EA000163008F058C10EC0153008F054C11BC0E0
:101EB000DD2361F0112331F0F701858180FF26C118
:101EC0008F7085838C2F0E94B40E45C1112359F069
:101ED000093309F02CC1FFEF27EE83E0F1502040D9
:101EE0008040E1F722C18C2F0E94BB0E34C18C2FA1
:101EF00086958695837019F0813061F02CC1DD23C1
:101F000021F0802F9C2F937002C080E090E00E940F
:101F10005B0C29C1DD2321F0802F9C2F937002C020
:101F200080E090E00E94710C1EC18C2F837009F03C
:101F300045C0D11114C1402F429546954770440FBA
:101F4000440F602F6F70862F90E0A0E0B0E0042E69
:101F500004C0880F991FAA1FBB1F0A94D2F704FF61
:101F600010C00FE010E020E030E004C0000F111FAF
:101F7000221F331F4A95D2F7009510952095309572
:101F800003C000E010E09801C695C695C370BC017F
:101F9000CD01602B712B822B932BC23049F058F46A
:101FA000C13019F00E944015DAC00E942E15D7C02A
:101FB0000E945215D4C00E942C15D1C0DD2319F007
:101FC0008C2F817001C08695882309F4C8C0402FEA
:101FD000429546954770440F440F602F6F70862FCF
:101FE00090E0A0E0B0E0042E04C0880F991FAA1F63
:101FF000BB1F0A94D2F704FF10C00FE010E020E0EE
:1020000030E004C0000F111F221F331F4A95D2F782
:10201000009510952095309503C000E010E09801E0
:10202000C695C695C370BC01CD01602B712B822B68
:10203000932BC23049F058F4C13019F00E940516B4
:102040008EC00E94F3158BC00E94171688C00E9494
:10205000661585C0CF70DD2339F08C2F0E948C155A
:10206000802F0E94B40E7BC0802F0E94BB0E8C2F4D
:102070000E94AD1574C0023F01F128F4003F41F009
:10208000013FA1F03FC0033FF9F0043F39F13AC0EE
:10209000DD2341F0153008F05EC08C2F8F710E9457
:1020A000D21559C0163008F056C0F7CFDD2339F0ED
:1020B0008C2F8F710E948C154EC0DD23C9F38C2F9D
:1020C0008F710E94AD1547C0DD2329F08C2F8F71D1
:1020D0000E94771540C00E9472153DC0DD2349F073
:1020E000CF718C2F0E948C1563E08C2F0E94831778
:1020F00032C081E00E949817123068F182E00E949D
:10210000981729C0DD2331F0112391F2802F0E940E
:102110009B0D21C0112399F2093349F49FEFE7EE9B
:10212000F3E09150E040F040E1F700C00000802F64
:102130000E94420E10C04C2F4F70602FC7010E94AA
:1021400075060E949D140FC04C2F4F70602FC70161
:102150000E94780608C088EF8C0D843020F40E941D
:10216000FA0B0E940406DD20C9F00E94F51680FDDE
:1021700015C0F70112820E94EF160E948C15C7014C
:102180000E94EF100E94EF16DF91CF911F910F91E7
:10219000FF90EF90DF90CF900C94AD15DF91CF9131
:1021A0001F910F91FF90EF90DF90CF9008950F93C4
:1021B0001F93CF93DF93EC01688179818A810E941C
:1021C000CC168C010E9429160E941A15B801CE0166
:1021D0000E94C20EDF91CF911F910F910895CF936E
:1021E000DF93EC01988189812B813C81232B31F095
:1021F0008F3F31F481E09F3F19F403C081E001C0BB
:1022000080E080FD19C0CE010E941D0681110CC026
:102210000E94F916882381F08A81882369F082E080
:10222000DF91CF910C949817CE010E94D710CE0168
:10223000DF91CF910C94E605DF91CF9108950E9434
:1022400020170E9430170E944E1780E090E00E94F5
:102250005B0C80E090E00C94710C809100019091F7
:1022600001010E9443190C941F110E9410170C9435
:102270002D11E92FE295EF704E2F50E0FA013297C1
:10228000EE30F105B0F4EA59FF4F0C94E024803FA2
:1022900091F018F4883E68F40EC0843F51F40BC0EE
:1022A000883E48F0813F29F406C093FB882780F9D7
:1022B000089580E0089581E008950E94C1160E946B
:1022C00039110895CF93DF9300D000D01F92CDB77E
:1022D000DEB70F900F900F900F900F90DF91CF917E
:1022E0000895CF93DF9300D000D000D0CDB7DEB7F4
:1022F00026960FB6F894DEBF0FBECDBFDF91CF910B
:1023000008951F93CF93DF93C0919E0116E08091B3
:102310009F01C81799F0D0E01C9FF0011D9FF00DA0
:102320001124E056FE4F4081518162817381848186
:1023300095810E9471112196C770E9CFDF91CF91ED
:102340001F9108954091D0015091D1016091D20127
:102350007091D3018091D4019091D5010C947111A9
:102360000F931F93CF93DF938091D50182958F7048
:1023700009F05DC08091D201882309F458C0809192
:102380009E0110919F016091D0017091D101C09187
:10239000D301D091D40191E06F3F09F090E0292F53
:1023A00006E0811709F443C0209721F07F3F21F018
:1023B00030E003C031E001C0322F90E030FD34C086
:1023C000089FF001099FF00D1124DF01A056BE4FB8
:1023D00011963C911197371327C03C91361324C0B6
:1023E00012963C91129731111FC013964D915C913A
:1023F00014974C1B5D0B40395140B0F48091D501CE
:102400008F7080618093D501EB55FE4F80818F7076
:102410008061808380ED91E00E94EF10DF91CF9189
:102420001F910F910C94811101968770BACFDF91A3
:10243000CF911F910F9108959F92AF92BF92CF922B
:10244000DF92EF92FF920F931F93CF93DF93CDB75D
:10245000DEB761970FB6F894DEBF0FBECDBF8C011B
:1024600085E0F801DE011D9601900D928A95E1F755
:10247000F80140815181E2809091D0016091D101B9
:102480002091D3013091D4012115310531F06F3FF6
:1024900031F481E09F3F19F403C081E001C080E086
:1024A000F82FF1709F2E80FD47C1F801A380B48002
:1024B00080EDC82E81E0D82EF090D201F501E21B0C
:1024C000F30B9F01FF2009F4DFC08091D501203973
:1024D000314008F09BC0282F207F09F052C05613CE
:1024E00013C0491311C0FE2CE1100EC08F70806123
:1024F0008093D5010E94A211C6010E94EF10809125
:10250000D501F801858358C1AB2831F05F3F31F424
:1025100081E04F3F19F403C081E001C080E080FDFD
:1025200003C081E08E2502C080E090E0F82FF170BA
:10253000FF2E80FF1CC080919E0120919F0136E0FC
:10254000821709F417C190E0389FF001399FF00D10
:102550001124E056FE4F6181561306C06081461378
:1025600003C06281E61203C001968770E9CFFE2C9A
:10257000EE2009F421C18091D50181608093D501BD
:102580005AC0561306C0491304C0E11002C0F80136
:102590009FC04D875E878D859E850E945D11882333
:1025A00079F1EE2069F12091D501822F82958F700B
:1025B00090E0029774F08091D0019091D1019887BA
:1025C0008F831986BB86AA862C87CE0107960E9428
:1025D000EF1086E0F801A0EDB1E001900D928A9530
:1025E000E1F70E94B0110E94A2110DC0561729F107
:1025F0004D875E878D859E850E945D1181112CC05F
:10260000C8010E94EF10FF24F394D6C0282F207F2A
:1026100069F77A2DB98AA88A6E2D89890E9462117C
:1026200080ED91E00E94EF1086E0F60111928A950C
:10263000E9F70E94A211F12CBFC04913D9CFE110D4
:10264000D7CFF8018583C8010E94EF1086E0F6011C
:1026500011928A95E9F7B0C0EE2091F22091D50150
:10266000822F82958F7090E002970CF4B2CF809108
:10267000D0019091D1019A8389831B82BD82AC8263
:102680002E83CE010196A3CF2039314008F047C0F8
:10269000FE2CEE2009F4B4CF561330C049132EC0DF
:1026A0002091D50120FD21C0822F82958F70482F67
:1026B00050E041155105C9F0F80125834F3051050F
:1026C00041F08F5F982F9295907F822F8F70892B8A
:1026D0008583C8010E94EF1086E0F801A0EDB1E00B
:1026E00001900D928A95E1F742C086E0F801A0EDD5
:1026F000B1E001900D928A95E1F75EC04D875E874B
:102700008D859E850E945D11811163CF8091D501D9
:1027100081608093D501C8010E94EF104DC07A2DD1
:10272000B98AA88A6E2D89890E94621186E0F60115
:1027300011928A95E9F71BC0EE2009F461CF4D870D
:102740005E878D859E850E945D11F82E882309F491
:1027500057CF86E0F801A0EDB1E001900D928A9587
:10276000E1F780ED91E00E94950D0E94B0110E946A
:10277000A21122C04D875E878D859E850E94C1165D
:10278000292F22952F70223028F49F7039F0811163
:1027900005C00BC0243028F49F7049F4805E883057
:1027A00020F0C8010E94EF109F2CF92C05C0F80101
:1027B0009581907F99F7F9CF8F2D61960FB6F89498
:1027C000DEBF0FBECDBFDF91CF911F910F91FF9064
:1027D000EF90DF90CF90BF90AF909F9008951F93A0
:1027E000CF93DF93CDB7DEB72C970FB6F894DEBF4B
:1027F0000FBECDBF4F83588769877A878B879C87A9
:10280000CE0107960E941C128823D1F09F818885F3
:102810002A853B85232B31F08F3F31F481E09F3FA8
:1028200019F403C081E001C080E080FD47C04F8102
:10283000588569857A858B859C850E9471113EC07B
:1028400086E0FE013796DE01119601900D928A9581
:10285000E1F7FF81E8856A857B856115710531F0B7
:10286000EF3F31F481E0FF3F19F403C081E001C084
:1028700080E080FD23C020919F0130E0C9010196D6
:102880008770992740919E0150E084179507F1F1D8
:10289000F983EA837D836C8396E0929FD001939FB6
:1028A000B00D1124A056BE4FFE01319601900D923D
:1028B0009A95E1F780939F010E94811116E0809123
:1028C0009E0190919F01891771F1189FC0011124F9
:1028D00080569E4F0E941C12882329F1E0919E0190
:1028E0001E9FF0011124E056FE4F4081518162810C
:1028F0007381848195810E94711180919E0190E085
:1029000001968770992780939E01D9CF0E94351137
:1029100010929F0110929E01E0EDF1E086E0DF0150
:102920001D928A95E9F72C960FB6F894DEBF0FBE7C
:10293000CDBFDF91CF911F910895EF92FF920F933A
:102940001F93CF93DF938C01892B09F46CC0F12C7A
:10295000EE24E394E8012196F8018491843740F451
:10296000843008F051C0813081F0823019F15BC0B1
:10297000853709F444C0A8F19CE7980F903708F018
:1029800052C08F770E94420E41C00E5F1F4FFE0162
:10299000849190E2980F983050F48770FE2D01C01A
:1029A000FF0F8A95EAF78F2F0E94231714C00E9409
:1029B0009B0D2DC00E5F1F4FFE01849190E2980F7A
:1029C000983060F48770FE2D01C0FF0F8A95EAF7FA
:1029D0008F2F0E9429170E944E1719C00E94420E85
:1029E00016C00E5F1F4FFE01C491CC2381F08FE90A
:1029F0009FE00197F1F700C00000C150F6CF0E5FD5
:102A00001F4FFE01F49003C00E949B0D8E018F2D7D
:102A1000882309F49FCFEFE9FFE03197F1F700C079
:102A200000008150F5CFDF91CF911F910F91FF9062
:102A3000EF900895089508950C941B150C941C159F
:102A40000E941E156093E9017093EA018093EB01E7
:102A50009093EC010C941F110C9420150F931F936D
:102A60000091E9011091EA012091EB013091EC0114
:102A7000602B712B822B932B1F910F910C9420159F
:102A80000F931F930091E9011091EA012091EB014E
:102A90003091EC0160237123822393231F910F91C6
:102AA0000C9420150F931F930091E9011091EA01F6
:102AB0002091EB013091EC01602771278227932749
:102AC0001F910F910C9420150C941B150E946415F6
:102AD0006093E5017093E6018093E7019093E8012C
:102AE0000C941F1160E070E0CB010C9466150F93FD
:102AF0001F9341E050E060E070E08A019B0104C058
:102B0000000F111F221F331F8A95D2F7C901B80188
:102B10001F910F910C9466150F931F9341E050E0A5
:102B200060E070E004C0440F551F661F771F8A9550
:102B3000D2F78091E5019091E601A091E701B09173
:102B4000E8018A019B01082B192B2A2B3B2BC90179
:102B5000B8011F910F910C9466150F931F9341E0DC
:102B600050E060E070E004C0440F551F661F771FFF
:102B70008A95D2F740955095609570958091E501C2
:102B80009091E601A091E701B091E8018A019B01D3
:102B9000082319232A233B23C901B8011F910F9150
:102BA0000C9466150F931F9341E050E060E070E0D5
:102BB00004C0440F551F661F771F8A95D2F7809176
:102BC000E5019091E601A091E701B091E8018A0149
:102BD0009B01082719272A273B27C901B8011F9104
:102BE0000F910C9466150F931F930091E5011091BE
:102BF000E6012091E7013091E801602B712B822BD7
:102C0000932B1F910F910C9466150F931F930091B6
:102C1000E5011091E6012091E7013091E801602380
:102C20007123822393231F910F910C9466150F93A8
:102C30001F930091E5011091E6012091E701309189
:102C4000E80160277127822793271F910F910C9429
:102C500066150895990F990F890FE82FE695E69567
:102C6000E695877051E001C0550F8A95EAF785E037
:102C7000E89FF0011124EA52FE4F20E030E070E0BE
:102C80004081CB01022E02C0969587950A94E2F707
:102C90008170819584278523842781932F5F3F4FFF
:102CA0002530310569F70895990F990F890F682F1D
:102CB000669566956695982F977085E0689FB00138
:102CC000112440E050E080E0FB01E40FF51FEA52E0
:102CD000FE4F208130E0092E02C0369527950A94D8
:102CE000E2F721703327042E01C0220F0A94EAF77D
:102CF000822B4F5F5F4F4530510531F70895BF92EA
:102D0000CF92DF92EF92FF920F931F93CF93DF93B7
:102D10008C01C090E501D090E601E090E701F090D1
:102D2000E8018091E9019091EA01A091EB01B09155
:102D3000EC01C82AD92AEA2AFB2ACFE1D0E0D70140
:102D4000C6010C2E04C0B695A795979587950A9451
:102D5000D2F780FD04C0219790F7B12C07C0BC2E9C
:102D6000B8018C2F0E9495060197A9F38B2DDF9156
:102D7000CF911F910F91FF90EF90DF90CF90BF9078
:102D80000895CF93DF93EC010E947F16BE010E944D
:102D90009506DF91CF9108951F93CF93DF93EB01B9
:102DA00090919D01992321F0CB010E94C11613C07F
:102DB000882349F0CB010E947F16182F682FCE017F
:102DC0000E942A1604C0CB010E945416182FBE017F
:102DD000812F0E949506DF91CF911F9108958091D8
:102DE000ED0185958595859508958091ED01877014
:102DF00008959091ED01977081E009F480E00895C5
:102E000080911102089590911102892B80931102F3
:102E1000089580959091110289238093110208955D
:102E200010921102089590911002892B8093100244
:102E3000089580959091100289238093100208953F
:102E400010921002089590910F02892B80930F0227
:102E50000895809590910F02892380930F02089521
:102E600010920F0208958091EE01089508950C9438
:102E700036170C9437179091EE01981721F0809334
:102E8000EE010C94391708958091EE01882329F002
:102E90001092EE0180E00C9439170895E091000142
:102EA000F0910101809111028083E0910001F09185
:102EB0000101908180911002892B8083E0910001B3
:102EC000F0910101908180910F02892B8083809184
:102ED000EE01882381F0E0910001F09101019081E1
:102EE000892B808380910001909101010E947518C7
:102EF00081110E94441780910001909101010C946E
:102F0000060C0C94361798E0899F90011124262B0B
:102F10002093ED010E948C158091ED01859585959A
:102F200085950C9481171092ED0180E00C94811727
:102F30002091ED01809582238093ED01982F977069
:102F400079F430E0482F082E000C550B2417350774
:102F500039F08595859585950E94AD150C9493174C
:102F60000895909389018093880108958295982F00
:102F7000937344E0949F900111248C7C86958695F0
:102F8000282B822F8575880F2A7A2695822B089503
:102F90006FEF7FEF80E090E00C94122580E090E0EE
:102FA0000E94EE2421E08C3E9E4F09F020E0822F0B
:102FB000089582E090E00C94E62483E090E00C9485
:102FC000E624CF9384E090E00E94E624C82F81E2BB
:102FD00090E00E94E6242C2F30E0A901582BCA0172
:102FE000CF910895CF93C92F682F84E090E00E947D
:102FF000F4246C2F81E290E0CF910C94F424AB0187
:10300000BC018FE090E00C940625AB01BC0183E18C
:1030100090E00C94062560E070E0CB010C9405185C
:1030200060E070E0CB010E94FF170C940B186CEE6F
:103030007EEF80E090E00E94122560E082E090E068
:103040000E94F42460E083E090E00E94F424109257
:10305000E9011092EA011092EB011092EC0160E09C
:1030600084E090E00E94F42460E081E290E00E941D
:10307000F42460E085E090E00E94F42460E086E0C3
:1030800090E00E94F4246FEF87E090E00E94F42427
:1030900040E050E0BA0188E090E00E94062560E040
:1030A0008DE090E00E94F42440E050E0BA0188E115
:1030B00090E00E94062560E087E190E00E94F42401
:1030C00040E050E0BA018CE190E00E94062560E00B
:1030D00080E290E00E94F4240C9410180C941718CD
:1030E000682F8EE090E00C94F424FC0132968091DD
:1030F0000C01882331F08091490287FF02C09EE1D4
:1031000001C096E080E0915028F021912223D9F36C
:103110008F5FF9CF0895662351F120910C0122238E
:10312000E9F02091490227FF19C0462F46954695A0
:1031300046954E31E0F4677021E030E002C0220F86
:10314000331F6A95E2F7FC01E40FF11D828190E0E4
:103150002823392381E0232B69F409C0FC0132962E
:1031600008962191621729F0E817F907D1F780E056
:10317000089581E008959C01FC0132969FEF80E064
:103180004191461789F09F3F19F4411101C0982FD2
:103190008F5F8630A9F79F3F39F0F901E90FF11DE4
:1031A00097FDFA956283089508959C012A5F3F4F29
:1031B000FC014281461301C01282019682179307D7
:1031C000B9F70895262F2695269526952E3170F469
:1031D000FC01E20FF11D677021E030E001C0220F19
:1031E0006A95EAF78281282B228308958091120242
:1031F00080FF0CC01F926F9385E392E09F938F93A3
:103200000E9498050F900F900F900F900895262F11
:103210002695269526952E3178F4FC01E20FF11DB6
:10322000677021E030E001C0220F6A95EAF720952F
:1032300082812823228308958091120280FF0CC08E
:103240001F926F9387E192E09F938F930E9498055E
:103250000F900F900F900F90089520910C01222352
:1032600029F02091490227FD0C94E2180C94BB1818
:1032700020910C01222329F02091490227FD0C9472
:1032800007190C94D51820910C01FC0132962223C9
:1032900031F08091490287FF02C08EE101C086E0D3
:1032A000DF011D928A95E9F7089508950C94551948
:1032B0000C945519CF930E9458190E9427090E9417
:1032C0005619C0E08C2F0E947E08811104C0CF5F88
:1032D000C530C1F701C081E0CF9108950C94551914
:1032E0000C946E190E94701980914F02843049F13C
:1032F0001092130220E488E190E00FB6F894A895AC
:10330000809360000FBE2093600080E00E9404065E
:103310000E94701983B7817F846083BF83B7816007
:1033200083BF7894889583B78E7F83BF0FB6F89458
:10333000A895809160008861809360001092600081
:103340000FBE08950C9455190E9435110E94FA0B76
:103350000E9404060C94A2191F920F920FB60F92AE
:1033600011248F939F93AF93BF9380911302811188
:1033700013C08091450290914602A0914702B091FE
:1033800048024196A11DB11D8093450290934602CB
:10339000A0934702B0934802BF91AF919F918F9144
:1033A0000F900FBE0F901F90189582E084BD93E0A0
:1033B00095BD9AEF97BD80936E0008952FB7F8944E
:1033C0008091450290914602A0914702B091480237
:1033D0002FBF08952FB7F89460914502709146026F
:1033E00080914702909148022FBF08959C014FB7EA
:1033F000F8948091450290914602A0914702B091C5
:1034000048024FBF821B930B089578941F920F922E
:103410000FB60F9211248F939F93AF93BF93809118
:10342000450290914602A0914702B0914802019650
:10343000A11DB11D8093450290934602A0934702BF
:10344000B0934802BF91AF919F918F910F900FBEA3
:103450000F901F90189587E797E790930108809346
:1034600000089AE088E10FB6F894A8958093600070
:103470000FBE90936000FFCF0C94C8170E942709DD
:103480008FE39CE90197F1F700C000000E94270933
:1034900080E00E947E0880FF04C00E943C1A0C94C9
:1034A0002B1A08950E94CE17811102C00E946E1837
:1034B0000E94D917809312020E94E11790934A024A
:1034C000809349020E94DD17682F70E080E090E051
:1034D0000C942C15CF93C82F1F928F9389E592E0FF
:1034E0009F938F930E94980581E090E0A0E0B0E068
:1034F000BC01CD0104C0660F771F881F991FCA95B4
:10350000D2F70E942C150F900F900F900F90CF9133
:103510000C943511CF93DF93482F50E0FA01359783
:10352000EF33F10508F054C2EC58FF4F0C94E0243F
:103530008BEA97E00E94FF0487EE96E00E94FF046A
:103540000E94DD171F928F9384EE96E09F938F93D6
:103550000E94980582EE96E00E94FF040E94D9170F
:10356000C82F8FEC96E00E94FF041F92CF938AEC45
:1035700096E09F938F930E94980588EC96E00E94B6
:10358000FF048EEB96E00E94FF048C2F81701F9247
:103590008F938BEB96E09F938F930E94980589EB16
:1035A00096E00E94FF048FEA96E00E94FF04C1FBB0
:1035B000882780F91F928F938CEA96E09F938F93D0
:1035C0000E9498058AEA96E00E94FF048EE996E040
:1035D0000E94FF04C2FB882780F91F928F938BE91A
:1035E00096E09F938F930E94980589E996E00E9448
:1035F000FF0480E996E00E94FF04C3FBCC27C0F9DA
:103600001F92CF938DE896E09F938F930E94980529
:103610008BE896E00E94FF040E94E117EC0187E727
:1036200096E00E94FF04DF93CF9382E796E09F939A
:103630008F930E94980580E796E00E94FF0487E53B
:1036400096E00E94FF048C2F81701F928F9384E577
:1036500096E09F938F930E9498058DB79EB78096B2
:103660000FB6F8949EBF0FBE8DBF82E596E00E9414
:10367000FF048BE396E00E94FF04C1FB882780F9DA
:103680001F928F9388E396E09F938F930E949805F3
:1036900086E396E00E94FF0484E296E00E94FF0425
:1036A0008D2F81701F928F9381E296E09F938F936D
:1036B0000E9498058FE196E00E94FF048DE096E05D
:1036C0000E94FF04D695D1701F92DF938AE096E0A6
:1036D0009F938F930E94980588E096E00E94FF04D4
:1036E00086EF95E00E94FF04C2FB882780F91F92B5
:1036F0008F9383EF95E09F938F930E94980581EFBE
:1037000095E00E94FF048FED95E00E94FF04C3FB4B
:10371000882780F91F928F938CED95E09F938F936C
:103720000E9498058AED95E00E94FF0480ED95E0E7
:103730000E94FF04C4FB882780F91F928F938DECB1
:1037400095E09F938F930E9498058BEC95E00E94E3
:10375000FF0489EB95E00E94FF04C5FB882780F9F0
:103760001F928F9386EB95E09F938F930E9498050D
:1037700084EB95E00E94FF0488E995E00E94FF0435
:10378000C6FB882780F91F928F9385E995E09F9368
:103790008F930E9498058DB79EB780960FB6F894C8
:1037A0009EBF0FBE8DBF83E995E00E94FF048BE8AA
:1037B00095E00E94FF04C7FBCC27C0F91F92CF936E
:1037C00088E895E09F938F930E94980586E895E09E
:1037D0000E94FF040F900F900F900F9006C08AE98F
:1037E00097E00E94FF040E946E18C1E0F6C084EDCD
:1037F00093E074C080911202817F8E7F80931202C9
:1038000089EB93E00E94FF0486E997E00E94FF04A1
:1038100081E080931402E9CF8AE797E00E94FF04D9
:103820000E940E06E2CF80911202C82FC095C1708F
:10383000C0FB80F980931202CC2319F08EE697E04A
:10384000B9C081E697E00E94FF0480911202897F4F
:10385000877F80931202C9CF9091120291FBCC27EF
:10386000C0F981E0C827892FC0FB81F9809312023B
:10387000CC2319F084E597E027C086E497E02EC0BA
:103880009091120292FBCC27C0F981E0C827892FC2
:10389000C0FB82F980931202CC2319F087E397E0F2
:1038A00013C087E297E01AC09091120293FBCC27D5
:1038B000C0F981E0C827892FC0FB83F980931202E9
:1038C000CC2351F08BE197E00E94FF04809112021B
:1038D00081608093120281C08EE097E00E94FF0415
:1038E00084CF8AEA93E00E94FF048EE693E00E9470
:1038F000FF048CE393E00E94FF048AE093E00E94BF
:10390000FF048FED92E0EACF81ED92E00E94FF0488
:103910000E94FA0B1F928F9387EB92E09F938F93F5
:103920000E94980580910C011F928F9380EA92E08B
:103930009F938F930E949805809139021F928F93D5
:103940008DE892E09F938F930E94980580914902A1
:1039500087FB882780F91F928F9385E792E09F93DA
:103960008F930E9498050E94EA199F938F937F93EB
:103970006F938EE592E09F938F930E9498058DB789
:103980009EB746960FB6F8949EBF0FBE8DBF2DCF43
:103990000E9435119091490297FBCC27C0F981E034
:1039A000C827892FC0FB87F980934902CC2329F0CF
:1039B00084E097E00E94FF0410C089EF96E08ECF6C
:1039C000895303C08D5101C080E00E946A1A0DCF57
:1039D00087EF96E00E94FF04C0E08C2FDF91CF912B
:1039E000089580E008950C94F11CCF93C82F809126
:1039F0001402882319F0813031F038C00E9400177A
:103A00008232B1F504C00E940017823261F48C2F1B
:103A10000E94F31C811104C08C2F0E948A1A24C0BA
:103A200081E090E021C08C2F0E94F11C81111BC00D
:103A3000C43189F018F4CB3029F010C0C93259F0E4
:103A4000C83361F489EB93E00E94FF0485E592E0BE
:103A50000E94FF0408C0109214020CC083E592E09B
:103A60000E94FF0407C081E0817006C0109214021A
:103A700080E002C080E0F8CFCF91089580913802B5
:103A8000089508959FB7F894109217029FBF9091E0
:103A90004F02943009F057C09091E9009F70309127
:103AA000EC00232F217030FD20E8922B23E020939F
:103AB000E9002091EB0020FF43C02091EE0027FF9A
:103AC0003FC020911502222321F02091E80025FF1C
:103AD00037C01092150226E03091E80035FD15C080
:103AE00030914F02343061F53091EB0035FD28C044
:103AF000215021F481E08093150222C0EFE9FFE01C
:103B00003197F1F700C00000E7CF8093F10080917A
:103B1000E80085FD0AC08091E80080FFFCCF80911D
:103B2000E8008E778093E80006C08FB7F89421E014
:103B3000209317028FBF9F709093E90080E0089553
:103B40009F709093E9008FEF0895CF93DF9300D09B
:103B50001F92CDB7DEB790914F02943019F589834B
:103B60007B836A8382E08093E9008FEF9091E80085
:103B7000815095FD06C095ED9A95F1F700008111F1
:103B8000F5CF8091E80085FF0DC040E050E063E094
:103B900070E0CE0101960E9437208091E8008E7778
:103BA0008093E8000F900F900F90DF91CF910895D0
:103BB000CF93DF93EC010E941A20823011F0843001
:103BC00031F4BE0184E0DF91CF910C94A51DDF910B
:103BD000CF910895BC0183E00C94A51DCF93DF9392
:103BE000EC010E941A20823011F08430D9F58091C6
:103BF0000C01882339F08091490287FF03C060E2FD
:103C000082E002C068E081E08093E9008FEF90914C
:103C1000E800815095FD06C095ED9A95F1F70000FA
:103C20008111F5CF8091E80085FF1CC080910C01C7
:103C3000811105C040E050E068E070E003C070E032
:103C400040E050E0CE010E9437208091E8008E775E
:103C50008093E80080E2FE01A8E1B2E001900D92BD
:103C60008A95E1F7DF91CF9108958BED97E00E945F
:103C7000FF0480914E02811109C00E94C8210E9458
:103C800025228091E20084608093E200089587ED10
:103C900097E00E94FF0410924E02089583ED97E092
:103CA0000C94FF048FEC97E00C94FF048BEC97E0EE
:103CB0000E94FF040C94A419209116022F5F822FFA
:103CC00062E30E94D424992319F0209316020895E8
:103CD0001092160280911702882371F180914F0291
:103CE000843041F58091E9008F702091EC00922F93
:103CF000917020FD90E8892B93E09093E9009091DA
:103D0000EB0090FF14C09091EE0097FF10C09091CF
:103D1000E80095FF03C01092F100F9CF9091E80000
:103D200090FF05C09091E8009E779093E8008F7017
:103D30008093E90010921702089542E061EC81E05F
:103D40000E94412142E261EC82E00E94412142E274
:103D500061EC83E00C94412180915102833009F49D
:103D600060C030F4813071F0823009F499C0089558
:103D70008A3009F485C08B3009F46BC0893009F0B2
:103D8000A7C020C080915002813A09F0A1C0809163
:103D9000E800877F8093E80080915402909155025B
:103DA000892B21F460E288E192E003C060E080E0CA
:103DB00090E070E00E9482208091E8008B778093F1
:103DC000E800089580915002813209F081C080910D
:103DD000540290915502029708F07AC08091E80051
:103DE000877F8093E8008091E80082FD05C0809184
:103DF0004F028111F8CF6CC02091F3008091F20046
:103E000090E0922B029729F48091F1008B7F813012
:103E100021F48091F100809338028091E8008B7743
:103E200053C080915002813A09F052C080915402EF
:103E300090915502892B09F04BC08091E800877F53
:103E40008093E8008091E80080FFFCCF80910C0116
:103E500036C0809150028132D9F580915402909100
:103E60005502892BA9F58091E800877F8093E800AF
:103E70000E9476218091520280930C010C9435119E
:103E800080915002813221F58091E800877F8093F4
:103E9000E8000E94762180915302809339020895B0
:103EA00080915002813AA1F48091E800877F80934D
:103EB000E8008091E80080FFFCCF80913902809378
:103EC000F1008091E8008E778093E8000C947621D1
:103ED000089584B7877F84BF0FB6F894A895809122
:103EE0006000886180936000109260000FBE90E0D7
:103EF00080E80FB6F89480936100909361000FBE44
:103F00000E94970C0E94C8210E9425228091E20005
:103F100084608093E20082E49DE10E94B11778946E
:103F20000E94B9240E94A10C82E091E00E94F50B4E
:103F30008AEB97E00E94FF0480914F02853089F45C
:103F400086EB97E00E94FF040E94721980914D0257
:103F5000882391F30E945A19882371F30E9421202B
:103F6000EBCF0E94D10CE8CF0C94B61F292F33273A
:103F700023303105C9F060F42130310581F0223061
:103F8000310509F047C08BE590E027E138E046C0F5
:103F90002132310511F12232310561F13BC082E15C
:103FA00090E022E738E03AC099278130910561F02E
:103FB00040F08230910559F0039761F5EFEDF7E09D
:103FC00008C0E3E1F8E005C0EDEFF7E002C0E5EE80
:103FD000F7E0849190E09F0121C063307105D0F437
:103FE000660F771FFB01EF57FE4F2081318189E07B
:103FF00090E014C06330710568F4FB01EE0FFF1F01
:10400000E558FE4F20813181FB01E858FE4F808149
:1040100090E004C080E090E020E030E0FA013183DD
:104020002083089580914F02843011F081E008953B
:1040300082E0089580913A02811102C00C9412200E
:10404000089580E189BD82E189BD09B400FEFDCFFC
:104050008091D8008F7D8093D8008091E0008260AD
:104060008093E0008091E00081FDFCCF0895CF9225
:10407000DF92EF92FF920F931F93CF93DF93EC01A8
:104080008B017A010E949521811133C0E114F10462
:1040900039F0F70180819181081B190BC80FD91FD6
:1040A000C12CD12C0115110519F18091E80085FD75
:1040B00016C08091E8008E778093E800E114F10447
:1040C00049F0F70180819181C80ED91ED182C0824A
:1040D00085E00FC00E949521882321F30AC08991B1
:1040E0008093F10001501109FFEFCF1ADF0ADACFF8
:1040F00080E0DF91CF911F910F91FF90EF90DF90C3
:10410000CF90089520915602309157022617370715
:1041100048F06115710539F42091E8002E7720935D
:10412000E80001C0B901FC0120E06115710579F1D9
:1041300080914F028823F1F18530F1F18091E80000
:1041400083FD3CC08091E80082FD2EC08091E80094
:1041500080FFEBCF2091F3008091F20090E0922B52
:104160006115710551F08830910538F42191209343
:10417000F100615071090196F3CF21E0089709F031
:1041800020E08091E8008E778093E800CECF211167
:10419000CFCF0AC080914F02882361F0853061F053
:1041A0008091E80083FD0AC08091E80082FFF2CF91
:1041B00080E0089582E0089583E0089581E0089505
:1041C00020915602309157022617370748F06115A3
:1041D000710539F42091E8002E772093E80001C0A2
:1041E000B901FC0120E06115710591F180914F0248
:1041F000882309F440C0853009F43FC08091E8006D
:1042000083FD3DC08091E80082FD2FC08091E800D1
:1042100080FFE9CF2091F3008091F20090E0922B93
:104220006115710559F08830910540F4249120936F
:10423000F1003196615071090196F2CF21E00897A3
:1042400009F020E08091E8008E778093E800CBCFE2
:104250002111CCCF0AC080914F02882361F08530B4
:1042600061F08091E80083FD0AC08091E80082FF40
:10427000F2CF80E0089582E0089583E0089581E020
:104280000895982F973068F59093E900981739F0C2
:104290007091EC002091ED005091F00003C0242FAC
:1042A000762F50E021FD02C09F5FECCF3091EB00F4
:1042B0003E7F3093EB003091ED003D7F3093ED0079
:1042C0003091EB0031603093EB007093EC00209361
:1042D000ED005093F0002091EE0027FDE5CF80E047
:1042E00008958F708093E90081E0089580915002D5
:1042F00087FF11C08091E80082FD05C080914F02C8
:104300008111F8CF11C08091E8008B770BC08091AC
:104310004F02882349F08091E80080FFF8CF809118
:10432000E8008E778093E80008952091E4003091B2
:10433000E50095E64091EC00842F817040FF23C09A
:104340008091E80080FD1DC080914F02882399F084
:10435000853099F08091EB0085FD11C04091E4001B
:104360005091E5002417350729F3915011F09A0177
:10437000E1CF84E0089582E0089583E0089581E02C
:10438000089580E008954091E80042FFDDCF089550
:104390000E9436220E943E22E0EEF0E080818160A1
:1043A0008083E8EDF0E080818F77808319BCA7EDF2
:1043B000B0E08C918E7F8C9380818F7E8083109271
:1043C0004E0208950F931F93CF93DF930E943622DE
:1043D0000E943E22C8EDD0E088818F778883888153
:1043E0008068888388818F7D888319BC10924F02F2
:1043F00010924B0210924D0210924C0200EE10E00F
:10440000F80180818B7F808388818160888342E08E
:1044100060E080E00E944121E1EEF0E080818E7F4B
:104420008083E2EEF0E0808181608083808188601B
:104430008083F80180818E7F80838881806188837A
:10444000DF91CF911F910F910895E8EDF0E0808109
:104450008F7E8083E7EDF0E080818160808384E05F
:1044600082BF81E080934E020C94E221E8EDF0E0FF
:1044700080818E7F80831092E20008951092DA008E
:104480001092E10008951F920F920FB60F9211241F
:104490002F933F934F935F936F937F938F939F934C
:1044A000AF93BF93EF93FF938091E10082FF0BC026
:1044B0008091E20082FF07C08091E1008B7F8093B2
:1044C000E1000E945C1E8091DA0080FF1FC0809195
:1044D000D80080FF1BC08091DA008E7F8093DA00C5
:1044E0008091D90080FF0DC080E189BD82E189BD46
:1044F00009B400FEFDCF81E080934F020E94351E7B
:1045000005C019BC10924F020E94471E8091E10025
:1045100080FF19C08091E20080FF15C08091E20009
:104520008E7F8093E2008091E20080618093E200C0
:104530008091D80080628093D80019BC85E0809378
:104540004F020E94521E8091E10084FF30C0809192
:10455000E20084FF2CC080E189BD82E189BD09B4FD
:1045600000FEFDCF8091D8008F7D8093D800809190
:10457000E1008F7E8093E1008091E2008F7E809346
:10458000E2008091E20081608093E20080914B0222
:10459000882311F084E007C08091E30087FD02C00A
:1045A00081E001C083E080934F020E94561E8091FB
:1045B000E10083FF29C08091E20083FF25C0809144
:1045C000E100877F8093E10082E080934F021092A8
:1045D0004B028091E1008E7F8093E1008091E200A8
:1045E0008E7F8093E2008091E20080618093E20000
:1045F00042E060E080E00E9441218091F00088600C
:104600008093F0000E944E1EFF91EF91BF91AF91F9
:104610009F918F917F916F915F914F913F912F91DA
:104620000F900FBE0F901F9018951F920F920FB60C
:104630000F9211242F933F934F935F936F937F9328
:104640008F939F93AF93BF93CF93DF93EF93FF939A
:10465000C091E900CF708091EC00D82FD17080FD1F
:10466000D0E81092E9008091F000877F8093F000FD
:1046700078940E9459231092E9008091F00088609C
:104680008093F000CD2BCF70C093E900FF91EF91A4
:10469000DF91CF91BF91AF919F918F917F916F915A
:1046A0005F914F913F912F910F900FBE0F901F90F0
:1046B00018951F93CF93DF93CDB7DEB7AA970FB6A8
:1046C000F894DEBF0FBECDBFE0E5F2E08091F100CF
:1046D000819322E0E835F207C9F70E94AC1E809171
:1046E000E80083FF2EC18091500290915102492F22
:1046F00050E04A30510508F024C1FA01ED54FF4F53
:104700000C94E024803821F0823809F01AC108C0E6
:1047100080914C0290914D02992389F082600FC0E4
:10472000809154028F70873008F00BC18093E900AC
:104730008091EB0085FB882780F91092E900909129
:10474000E800977F9093E8008093F1001092F100C9
:10475000D1C0282F2D7F09F0F4C0882319F08230B2
:1047600061F0EFC080915202813009F0EAC09330CD
:1047700009F080E080934D022EC080915202811199
:104780002AC0809154028F702FEF280F263008F036
:10479000D8C08093E9002091EB0020FF1CC093302B
:1047A00021F48091EB00806214C09091EB00906145
:1047B0009093EB0021E030E0A90102C0440F551FA7
:1047C0008A95E2F74093EA001092EA008091EB00AC
:1047D00088608093EB001092E9008091E800877F69
:1047E0008093E8000E947621ACC08111AAC010918C
:1047F00052021F778091E3008078812B8093E30041
:104800008091E800877F8093E8000E947621809164
:10481000E80080FFFCCF8091E30080688093E30094
:10482000111102C082E001C083E080934F0289C071
:104830008058823008F085C08091520290915302D6
:104840008C3D53E0950779F583E08A838AE289837A
:104850004FB7F894DE01139620E03EE051E2E32FDB
:10486000F0E050935700E49120FF03C0E295EF7011
:104870003F5FEF708E2F90E0EA3010F0C79601C0D6
:10488000C0968D939D932F5F243149F74FBF809140
:10489000E800877F8093E8006AE270E0CE0101962D
:1048A0000E94822016C06091540270915502AE01A0
:1048B0004F5F5F4F0E94B41FBC01892B09F441C0B8
:1048C0009091E800977F9093E80089819A810E94F7
:1048D000E0208091E8008B778093E80032C0803838
:1048E00081F58091E800877F8093E80080914B02FA
:1048F0008093F1008091E8008E7772CF811121C002
:10490000809152029091530299270297D4F480919A
:10491000E800877F8093E8008091520280934B02E9
:104920000E94762180914B02811106C08091E300A4
:1049300087FD02C081E001C084E080934F020E94A5
:104940009D1E8091E80083FF0AC08091E800877F68
:104950008093E8008091EB0080628093EB00AA9640
:104960000FB6F894DEBF0FBECDBFDF91CF911F9180
:104970000895CF9380914F028823A1F0C091E90060
:10498000CF709091EC00892F817090FD80E8C82B4A
:104990001092E9008091E80083FD0E945923CF70B6
:1049A000C093E900CF910895991B79E004C0991F45
:1049B000961708F0961B881F7A95C9F78095089579
:1049C000EE0FFF1F0590F491E02D0994F999FECFA9
:1049D00092BD81BDF89A992780B50895A8E1B0E00D
:1049E00042E050E00C941A25262FF999FECF92BD93
:1049F00081BDF89A019700B4021639F01FBA20BDA4
:104A00000FB6F894FA9AF99A0FBE08950396272FD5
:104A10000E94F5240E94F424252F0E94F524242FBF
:104A20000C94F5240196272F0E94F5240C94F4246D
:104A3000DC01CB01FC01F999FECF06C0F2BDE1BD5E
:104A4000F89A319600B40D9241505040B8F708954D
:044A5000F894FFCF08
:104A5400EF013E1DEE1D411DEA1DD81D01E200E9D6
:104A640000EA00B500B600B700CD008301CC008A8F
:104A74000192019401210223022402250226022725
:104A8400022A02B300B4006F0070008182833231C5
:104A9400F6F491946697C6E200E900EA00B500B620
:104AA40000B700CD008301CC008A0192019401215A
:104AB40002230224022502260227022A02B300B49A
:104AC400006F007000818283406D221309A6088460
:084AD40008290842085B0800F4
:00000001FF
