:100000000C94E1060C9428070C9428070C942807FC
:100010000C9428070C9428070C9428070C942807A4
:100020000C9428070C9428070C9489290C945B2ABB
:100030000C94AF1B0C9428070C9428070C942807E9
:100040000C9428070C9428070C9428070C94280774
:100050000C9428070C94231C0C9428070C94280754
:100060000C9428070C9428070C9428070C94280754
:100070000C9428070C9428070C9428070C94280744
:100080000C9428070C9428070C9428070C94280734
:100090000C9428070C9428070C9428070C94280724
:1000A0000C9428070C9428070C94280796089808A5
:1000B000A3089A089C089E08A008A208A508A708FB
:1000C000A908B408AB08AD08AF08B108B308B60872
:1000D00094119411C611C6110412241288138813A6
:1000E0006612881307130713781388138813811374
:1000F00014131413141314131413141314131413C8
:1001000014131413141314131413141314131413B7
:10011000251333133A1341134B13171417142914CF
:100120002914201429142914291417141714251418
:10013000291429142514C82AEF2AE12BEF2AE12BD0
:100140003B2B5E2BE12BB42BC32B29003B003D0046
:100150003F0041004300450049004B003A003C008D
:100160003E004000420044004D004A004600350079
:100170001F0021002300250027002E004C004E0008
:100180001E0020002200240026002D002A0000006E
:1001900047002B001A0015001C000C001300300053
:1001A00053005500140008001700180012002F001B
:1001B000310054004800E000160009000B000E005A
:1001C000330000005F006100040007000A000D001A
:1001D0000F003400280060005600E1001D000600FA
:1001E000050010003700E5005C005E0000001B0009
:1001F000190011003600380052005D005700E00081
:10020000E2002C00E700E4005100590063005B00AD
:10021000E3000000E600015150004F005A00620068
:10022000580001000100010001000100010001006F
:10023000AC00AB0001000100010001000100010061
:100240000100AE00A9000100010001000100010051
:100250000100010001000100010001000100010096
:10026000010001004C000000AA0001000100005C38
:100270000100010001000100010001000100010076
:10028000010001000100010001000100010039002E
:100290000100010001000100010000000100010057
:1002A0000100010001000100010001000100010046
:1002B0000100010001000100010001000100010036
:1002C0000100010000000100010001000100010027
:1002D0000100010001000100010001000100010016
:1002E0000100010001000100010000000100010007
:1002F0000100010001000100010044454255473A58
:100300002064697361626C65642E0A00444542553D
:10031000473A20656E61626C65642E0A000A00250A
:1003200030313662003A200025303258000A722FF0
:100330006320303132333435363738394142434423
:1003400045460A000A002530325820006B65796264
:100350006F6172645F7265706F72743A20000A0098
:1003600025303258006B6579626F6172645F736526
:10037000745F6C65643A2000290A002575002F001F
:100380002575005D280025640020002564002000FC
:1003900025640020002564007C0025303258006D63
:1003A0006F7573656B6579205B62746E7C782079FC
:1003B000207620685D287265702F61636C293A2071
:1003C0005B006D6B5F776865656C5F74696D655F19
:1003D000746F5F6D6178203D2025640A006D6B5F4E
:1003E000776865656C5F6D61785F737065656420C3
:1003F0003D2025640A006D6B5F74696D655F746FE5
:100400005F6D6178203D2025640A006D6B5F6D6132
:10041000785F7370656564203D2025640A006D6B0C
:100420005F696E74657276616C203D2025640A00F8
:100430006D6B5F64656C6179203D2025640A006DF9
:100440006B5F776865656C5F74696D655F746F5F1E
:100450006D6178203D2025640A006D6B5F776865CB
:10046000656C5F6D61785F7370656564203D202504
:10047000640A006D6B5F74696D655F746F5F6D61B9
:1004800078203D2025640A006D6B5F6D61785F7395
:1004900070656564203D2025640A006D6B5F696EA0
:1004A00074657276616C203D2025640A006D6B5F77
:1004B00064656C6179203D2025640A000A00257579
:1004C00000363A20776865656C5F74696D655F74A6
:1004D0006F5F6D61783A20000A00257500353A207B
:1004E000776865656C5F6D61785F73706565643AA8
:1004F00020000A00257500343A2074696D655F7428
:100500006F5F6D61783A20000A00257500333A204C
:100510006D61785F73706565643A20000A00257527
:1005200000323A20696E74657276616C286D7329A9
:100530003A20000A00257500313A2064656C617923
:10054000282A31306D73293A20000A092D2056617E
:100550006C756573202D0A004D3E004D25643E20CC
:10056000003F007365742064656661756C740A00F1
:10057000433E200077686572652064656C74613A5B
:1005800020637572736F723D25642C2077686565F2
:100590006C3D25640A53656520687474703A2F2F8A
:1005A000656E2E77696B6970656469612E6F72671D
:1005B0002F77696B692F4D6F7573655F6B65797305
:1005C0000A000A092D204D6F7573656B6579202D22
:1005D0000A4553432F713A09717569740A313A0912
:1005E00064656C6179282A31306D73290A323A09C1
:1005F000696E74657276616C286D73290A333A09E5
:100600006D61785F73706565640A343A0974696D69
:10061000655F746F5F6D61780A353A097768656563
:100620006C5F6D61785F73706565640A363A09774F
:100630006865656C5F74696D655F746F5F6D617827
:100640000A0A703A097072696E742076616C756579
:10065000730A643A097365742064656661756C7425
:10066000730A75703A092B310A646F776E3A092D57
:10067000310A706775703A092B31300A7067646F00
:10068000776E3A092D31300A0A7370656564203D32
:100690002064656C7461202A206D61785F737065D9
:1006A0006564202A2028726570656174202F20748B
:1006B000696D655F746F5F6D6178290A003F004D59
:1006C0003E2000433E20004C25640A0074696D659D
:1006D000725F72656164333228293A202530346CA8
:1006E000580A006B6579626F6172645F69646C655A
:1006F0003A2025580A006B6579626F6172645F70F9
:10070000726F746F636F6C3A2025580A00686F73BC
:10071000745F6B6579626F6172645F6C6564732886
:10072000293A2025580A000A092D2053746174754E
:1007300073202D0A004743433A20342E392E3220AD
:100740004156522D4C4942433A20312E382E3073B7
:10075000766E204156525F415243483A206176728C
:10076000350A004F5054494F4E533A204C5546419C
:10077000204D4F5553454B45592045585452414BF8
:10078000455920434F4E534F4C4520434F4D4D410B
:100790004E4420343039360A004255494C443A2000
:1007A00022627265616B706F696E745F32303139CD
:1007B0005F30385F33302E312D352D67643136642C
:1007C000623622202830343A31363A3437204A759E
:1007D0006C2020372032303139290A005649443AFA
:1007E000203078464545442868696E65796275739E
:1007F0006829205049443A2030783630363028680D
:10080000696E657947383029205645523A2030784C
:10081000303030310A00444553433A20514D4B2D7E
:10082000706F77657265642050434220666F722056
:10083000436865727279204738302F38312D31384E
:10084000303020426F617264730A000A092D20560D
:10085000657273696F6E202D0A000A092D20436F9F
:100860006E736F6C65202D0A4553432F713A0971E1
:100870007569740A6D3A096D6F7573656B65790AF0
:10088000000A092D204D61676963202D0A443A0949
:100890004465627567204D65737361676520546FA9
:1008A00067676C650A583A094D617472697820442B
:1008B00065627567204D6F646520546F67676C656E
:1008C000202D2053686F77206B6579707265737384
:1008D000657320696E206D61747269782067726932
:1008E000640A4B3A094B6579626F61726420446512
:1008F00062756720546F67676C65202D2053686FA1
:1009000077206B65797072657373207265706F7292
:10091000740A4D3A094465627567204D6F757365B9
:1009200020546F67676C650A563A09566572736999
:100930006F6E0A533A095374617475730A433A0926
:10094000416374697661746520436F6E736F6C6583
:10095000204D6F64650A46312D4631303A09537790
:100960006974636820746F204C6179657220302D42
:10097000392028463130203D204C30290A302D398D
:100980003A0953776974636820746F204C61796504
:100990007220302D390A47524156453A095377693A
:1009A00074636820746F204C617965722030202850
:1009B000616C7465726E617465290A423A094A7500
:1009C0006D7020746F20426F6F746C6F616465721C
:1009D0000A4553433A094A756D7020746F20426F7F
:1009E0006F746C6F616465722028616C7465726EDF
:1009F000617465290A453A095072696E742045454B
:100A000050524F4D2053657474696E67730A425398
:100A1000504143453A09436C656172204545505247
:100A20004F4D0A000A002575002E6E6B726F3A203A
:100A3000000A002575002E737761705F6261636B39
:100A4000736C6173685F6261636B73706163653A55
:100A500020000A002575002E737761705F67726150
:100A600076655F6573633A20000A002575002E6E77
:100A70006F5F6775693A20000A002575002E73774D
:100A800061705F72616C745F726775693A20000A09
:100A9000002575002E737761705F6C616C745F6CFC
:100AA0006775693A20000A002575002E636170732E
:100AB0006C6F636B5F746F5F636F6E74726F6C3AB1
:100AC00020000A002575002E737761705F636F6EDA
:100AD00074726F6C5F636170736C6F636B3A20004C
:100AE0000A0025303258006B65796D61705F636F65
:100AF0006E6669672E7261773A20000A00257500DC
:100B00002E6D6F7573653A20000A002575002E6BF7
:100B10006579626F6172643A20000A002575002EC3
:100B20006D61747269783A20000A002575002E659F
:100B30006E61626C653A20000A002530325800640C
:100B4000656275675F636F6E6669672E7261773A7B
:100B500020000A0025750064656661756C745F6C21
:100B6000617965723A20003F000A6D6F7573653ACE
:100B7000206F66660A000A6D6F7573653A206F6EA6
:100B80000A000A6B6579626F6172643A206F66666B
:100B90000A000A6B6579626F6172643A206F6E0AAF
:100BA000000A6D61747269783A206F66660A000AFD
:100BB0006D61747269783A206F6E0A000A6465622A
:100BC00075673A206F66660A000A64656275673A5F
:100BD000206F6E0A000A0A4A756D70696E6720748C
:100BE0006F20626F6F746C6F616465722E2E2E20A1
:100BF00000433E2000436C656172696E6720454585
:100C000050524F4D0A006565636F6E6669673A0A18
:100C1000005B735D004B6579626F61726420737471
:100C20006172742E0A005B575D005B535D005B527E
:100C30005D005B445D005B435D0004033000000029
:100C40001203680069006E006500790047003800F3
:100C5000300000001403680069006E006500790030
:100C600062007500730068000000040309040902B3
:100C70005B00030100A0FA09040000010301010068
:100C80000921110100012240000705810308000A23
:100C900009040100010300000009211101000122E3
:100CA00085000705820320000A09040200020300F0
:100CB0000000092111010001222200070583032001
:100CC00000010705030320000112011001000000CC
:100CD00008EDFE60600100010203010631FF0974A6
:100CE000A1010975150026FF0095207508810209EC
:100CF00076150026FF00952075089102C0050109B0
:100D000002A10185020901A10005091901290515A2
:100D10000025019505750181029501750381010585
:100D200001093009311581257F9502750881060971
:100D3000381581257F950175088106050C0A380252
:100D40001581257F950175088106C0C005010980C0
:100D5000A10185031601002603001A81002A8300E1
:100D6000751095018100C0050C0901A101850416CB
:100D70000100269C021A01002A9C0275109501812F
:100D800000C005010906A101050719E029E71500C2
:100D900025019508750181029501750881010508F5
:100DA00019012905950575019102950175039101B8
:100DB0000507190029FF150026FF00950675088113
:100DC00000C011241FBECFEFDAE0DEBFCDBF04B6F6
:100DD00003FE27C080915F0290916002A0916102A2
:100DE000B09162028730904BA740B04BD1F4109283
:100DF0005F0210926002109261021092620214BEB1
:100E000084B7877F84BF0FB6F894A895809160005F
:100E1000886180936000109260000FBEE0E0F8E30C
:100E2000099511E0A0E0B1E0E4E2F9E502C0059027
:100E30000D92A234B107D9F722E0A2E4B1E001C0DB
:100E40001D92AF35B207E1F70E94A4260C94902CB6
:100E50000C940000FF93EF93E0914201F091430165
:100E6000309709F00995EF91FF910895FC01859164
:100E7000803011F0EFDFFBCF0895FF27E0E230E292
:100E800047FF0CC0419597FF09C0EDE26095709552
:100E900080959095611D711D811D911D27FF02C0D8
:100EA000219530E350E2AA27660F771F881F991F0C
:100EB000AA1FA41710F0A41B63955A95A9F7AA308E
:100EC00008F0A95FA05DAF93F395611571058105E9
:100ED000910541F7ED3211F4EF93F395F21718F401
:100EE0003F93F395FBCF8F91B5DFFA95E1F7089526
:100EF000E991F9918591803021F0853219F0AADFCE
:100F0000F9CF089520E0E89455915532C1F350335C
:100F100011F4689455915A3348F4505390F3220FCA
:100F2000022E220F220F200D250FF4CF0EF4219553
:100F300089919991533619F3533729F1533559F162
:100F4000BC0188279927E8945C3621F4899199910E
:100F500068945591543639F446EF7EF077FF0DC012
:100F60008FEF9FEF0AC055374AE039F0583540E11E
:100F700021F0523642E009F00895FF93EF937DDFB0
:100F8000EF91FF91B7CFFF93EF93FC0181918030F8
:100F9000B9F360DFFBCFFF93EF9368DFF1CFDF930F
:100FA000CF93CDB7DEB72596A3DFCF91DF9108951C
:100FB0000C94F1070C94F2070C94EF0780FF02C029
:100FC000469A01C0469881FF02C02E9A01C02E9811
:100FD00082FF02C02D9A01C02D980C94F30781E086
:100FE000089508950895089581E008951F93CF937B
:100FF000DF9300D000D01F92CDB7DEB749835A836C
:1010000020919A0189819A81211112C0662349F0A9
:101010000E943C19182F682F89819A810E94E1183B
:1010200003C00E941019182F69817A81812F04C092
:101030000E943C1969817A810F900F900F900F9058
:101040000F90DF91CF911F910C944409FC014081D6
:1010500051816281738184810C94F6070E94A11AE8
:10106000811102C00E941B1B0C94D8070C94DA0754
:101070000C94DE0708950E9407140E943A082FEF8F
:1010800084E39CE0215080409040E1F700C00000E4
:101090000C94491C0F931F93CF93DF938C010E94F4
:1010A0002608EC01B8010E94DC078823D9F0B801BA
:1010B000CE010E948F0D8823A9F0C531FCE5DF0722
:1010C00008F088C0C2308CE5D80770F4C115ECE593
:1010D000DE0709F05BC0F801C281CC2309F4CAC065
:1010E0000E943B08C0E0C6C0F8018281882309F451
:1010F00050C00E94A11A811102C00E941B1B0E94B5
:10110000B41A90E09093510280935002FE01E35094
:10111000FC45E231F10530F4EA5AFF4F809150026C
:101120000C94342C80915002816027C0826025C0CD
:10113000846023C0806121C080621FC080641DC0A4
:1011400080681BC08460886018C08E7F16C08D7F49
:1011500014C08B7F12C08F7E10C08F7D0EC08F7B1E
:101160000CC08F770AC08B7F877F07C087FB222741
:1011700020F991E0922790FB87F9809350028091AB
:1011800050020E94B81A0E940714ACCFC130DC454F
:1011900039F0C801DF91CF911F910F910C94F407A2
:1011A000F801C281CC2309F465C080912E02C82FBA
:1011B000C095C170C0FB80F980932E02CC2329F02A
:1011C0008CE093E00E9436078DCF8AEF92E00E9478
:1011D000360750C0CC3D8CE5D80739F4F801C28100
:1011E000CC2309F447C080E00DC0CD3DECE5DE071F
:1011F00060F0CD3D8CE5D80791F5F801C281CC2394
:10120000C9F182E00E944C276DCFC631DC4509F65A
:101210000E94BC19282FF801828140910001509151
:101220000101882379F02A7A91E009F490E0909303
:101230004401911102C069E201C065E3CA010E9444
:101240004F1B0AC080914401811102C069E201C0B4
:1012500065E3CA010E94511B0E94081A43CFCE3D8C
:10126000DC4509F096CFF801C281CC2319F00E9429
:101270001B1B38CF8C2FDF91CF911F910F910895B9
:1012800080E090E00895089599E0799FF00111249D
:101290009CE6899FE00DF11D1124E60FF11DEE0F74
:1012A000FF1FE65BFE4F859194910895880F991F6B
:1012B000FC01E35EFC4F859194910895CF93DF93F9
:1012C0000E9444090E94150BEC01811520E592074C
:1012D000F0F5811530E4930708F024C1883E9105AC
:1012E00000F5803E910508F09CC1883A910570F4A4
:1012F000853A910508F09FC08130910509F491C1AC
:1013000008F442C1049708F08CC13EC18F3B91059F
:1013100008F49CC0803C910508F436C1805C9109BA
:10132000F4C0811540E2940758F4C11581E0D80754
:1013300008F077C1C03FD10508F426C1D06571C15E
:10134000811520E3920708F0E4C09F70DEC081158C
:1013500035E5930708F044C0811544E5940708F08B
:10136000F8C0C11582E5D80708F5C11521E5D207F7
:1013700008F0DBC08C2F837021E030E002C0220F28
:10138000331F8A95E2F73C68CE0174E09695879505
:101390007A95E1F78370382BCF70C695C69580E2B9
:1013A000C89FE0011124C22BD32B3BC12C2F2695C3
:1013B0002695CE0183709927C115D34508F0BAC090
:1013C00040E2249F90011124C1E0D0E002C0CC0F84
:1013D000DD1F8A95E2F72C2B3D2BE901DC6821C14A
:1013E000811549E59407A0F4C11588E5D80708F0F0
:1013F000B5C0C11526E5D20708F0C6C08C2F0E94E3
:10140000920B8F71C82FD0E0DC2FCC27D06209C19E
:1014100081153AE5930708F4A6C0905681159042CD
:1014200008F0B2C08D2F8F710E94920BDD27D06221
:101430008F71D82BF6C0853A910509F4A8C0863A79
:10144000910509F0A7C0C2E8D0E4EBC0883A910545
:1014500009F4A3C0893A910509F4A2C08A3A91051A
:1014600009F4A1C08B3A910509F4A0C08C3A91050A
:1014700009F49FC08B3B910509F49EC08C3B9105FC
:1014800009F49DC08D3A910509F49CC0803B9105FB
:1014900009F49BC08E3A910509F49AC08F3A9105E0
:1014A00009F499C0813B910509F498C0823B9105EC
:1014B00009F497C0833B910509F496C0843B9105DC
:1014C00009F495C0853B910509F494C0863B9105CC
:1014D00009F493C0873B910509F492C0883B9105BC
:1014E00009F491C0893B910509F490C08D3B9105A9
:1014F00009F48FC08E3B910509F48EC08A3B91059B
:1015000009F48DC0C0E0D4E48CC00E945609EC01FF
:1015100088C09927D3FF03C0EC01D86C82C0EC01CE
:10152000D06C7FC0DF70D06A7CC0DC2FCC27C16F4D
:10153000D06A77C040E2249F90011124C1E0D0E03E
:1015400002C0CC0FDD1F8A95E2F7C22BD32BDA68DD
:1015500068C0D82FCC27C46FD06A63C0DC2FCC27DB
:10156000C06FD06A5EC08F700E94920B94E0D695D7
:10157000C7959A95E1F7CF70D0E0DC2FCC27D06AE1
:101580008F70806EC82B4DC0C0E0D0E04AC0C1E86B
:10159000D0E447C0C3E8D0E444C0C2EED4E441C0C4
:1015A000C9EED4E43EC0CAEED4E43BC0C5EBD4E4FB
:1015B00038C0C6EBD4E435C0C3EBD4E432C0C4EBCE
:1015C000D4E42FC0C7EBD4E42CC0CCECD4E429C0C5
:1015D000CDECD4E426C0C3E8D5E423C0CAE8D5E402
:1015E00020C0C2E9D5E41DC0C4E9D5E41AC0C1E2F7
:1015F000D6E417C0C3E2D6E414C0C4E2D6E411C0F6
:10160000C5E2D6E40EC0C6E2D6E40BC0C7E2D6E41B
:1016100008C0CFE6D4E405C0C0E7D4E402C0CAE203
:10162000D6E4CE01DF91CF9108958238910549F13A
:10163000B0F48133910509F458C048F4893291051A
:1016400009F44EC08A32910509F454C008958533D7
:10165000910509F440C08933910599F00895833EBE
:10166000910529F138F4803E910591F0823E910573
:10167000A1F00895863E9105F9F0873E910531F17C
:1016800008952091500220FD3AC021FD38C00895F0
:101690008091500280FD35C032C08091500282FF9F
:1016A00032C08091500284FD30C083EE39C08091F9
:1016B000500282FD28C0F5CF8091500283FF27C0E1
:1016C0008091500284FD21C087EE2AC08091500293
:1016D00083FD1DC0F5CF8091500285FD1AC01BC04F
:1016E0008091500285FD17C014C08091500286FD84
:1016F00014C015C08091500286FD11C00EC080EE4E
:101700000FC089E30DC082EE0BC080E009C086EEF9
:1017100007C089E205C085E303C08AE201C081E316
:1017200090E008959091500292FF0DC0282F2871EB
:10173000283019F4877F846006C0282F2471243054
:1017400011F48B7F886093FF0DC0282F28712831FA
:1017500019F4877E846106C0282F2471243111F486
:101760008B7E886194FD877E0895E82FF0E0EE0F70
:10177000FF1FEB5BFE4F808191810895CF92DF9236
:10178000EF92FF920F931F93CF93DF938DE293E03D
:101790000E94360785E4E82E81E0F82EC0E0D0E014
:1017A00098E2C92E93E0D92E0FE113E0DF93CF9397
:1017B000DF92CF920E94CF0785E293E00E94360726
:1017C000F701819191917F010E94871A9F938F93D6
:1017D0001F930F930E94CF078DE193E00E9436077D
:1017E00021968DB79EB708960FB6F8949EBF0FBE90
:1017F0008DBFCC30D105D1F6DF91CF911F910F91E4
:10180000FF90EF90DF90CF900895ACE1B1E041E020
:1018100050E02CE02A0F8D91E82FE295EF70F0E078
:1018200031A18F70BA0102C0660F771F8A95E2F767
:10183000CB01962F9095932391A392A1892B82A3FC
:101840002A13E9CFA3E1B1E041E050E029E02A0FFB
:101850008D91E82FE295EF70F0E031A18F70BA0121
:1018600002C0660F771F8A95E2F7CB01962F9095FD
:10187000932391A392A1892B82A32A13E9CFEDE5AB
:10188000F1E0A5E4B1E0119211921D921D9271E078
:10189000E537F707C1F78CE00E94E70C0C942E089F
:1018A0005F926F927F928F929F92AF92BF92CF92F0
:1018B000DF92EF92FF920F931F93CF93DF930CE190
:1018C00011E0ADE5B1E0612CEE24E394F12C5D0173
:1018D0008D909C90119711961C921E92E80189910F
:1018E0008E01E82FE295EF70F0E091A18F70A701D3
:1018F00001C0440F8A95EAF7892F842B81A382A126
:10190000542E5094852182A3D0EADA95F1F783E131
:10191000C82E81E0D82E80E090E0E60179906E013B
:10192000272D22952F7030E0E90168A12D913C917F
:10193000119770E0D72DDF7002C075956795DA9525
:10194000E2F760FD08C0B701082E02C0660F771FDE
:101950000A94E2F702C060E070E0262B372B119664
:101960003C932E93019689309105B9F681A1D52D2E
:10197000D823D1A382A1482B42A3129681E0F5017E
:10198000208131818216930609F480E0682AF1E013
:10199000A537BF0709F09BCF262D4CE065E471E029
:1019A0008DE591E00E94E80C0E943608862DDF91BB
:1019B000CF911F910F91FF90EF90DF90CF90BF904C
:1019C000AF909F908F907F906F905F900895089553
:1019D000FF920F931F93CF93DF93F82E092F162FAB
:1019E000D72FC42F222349F081E0809377010E94F2
:1019F000E11B909376018093750180917701882394
:101A0000D9F080917501909176010E94F91B06979B
:101A100098F0EF2DF02FA12FBD2F80E090E04C2FFC
:101A200050E08417950734F4219131912D933D9323
:101A30000196F7CF10927701DF91CF911F910F910F
:101A4000FF9008950F931F93CF93DF93C62FD42F4A
:101A5000022FFC0182818823C9F060937A010E94E1
:101A6000E11B909379018093780180E28C0F88309C
:101A700008F050C0C77081E001C0880FCA95EAF72E
:101A8000DF91CF911F910F910C94501110917A0119
:101A9000161330C080917801909179010E94F91B52
:101AA000883C910538F5C0E2CD0F1D17B9F080E2F2
:101AB000810F883040F4177081E001C0880F1A95BB
:101AC000EAF70E945711C83048F481E09D2F9770C3
:101AD00001C0880F9A95EAF70E945011802F0E944A
:101AE0003D11C830B8F4D77081E001C0880FDA9595
:101AF000EAF70AC080E28C0F883060F4C77081E09A
:101B000001C0880FCA95EAF7DF91CF911F910F911D
:101B10000C945711DF91CF911F910F9108959C0163
:101B2000CB01203F4CE53407F9F078F4283DFCE583
:101B30003F07B9F0293D4CE5340711F1273D3C45FD
:101B400031F526E241EE61EE1EC0223FFCE53F0783
:101B500099F070F0233F3C45D1F427E245EE66EE64
:101B600012C027E245EE0EC026E241EE60EE0BC049
:101B700027E245EE64EE07C026E241EE62EE03C0C6
:101B800028E241E065EE0E94220D80E00895FC010C
:101B90008281882319F010927A01089581E00895D6
:101BA0009093800180937F010895E0917F01F091EF
:101BB0008001309721F00190F081E02D099480E0C0
:101BC0000895EF92FF920F931F93CF93DF93E091CD
:101BD0007F01F09180013097B1F18C010280F38197
:101BE000E02D099580912E0282FF2DC080FF04C058
:101BF0008CE493E00E943607E80118E086E4E82EC2
:101C000083E0F82E80912E0280FF0BC088811F9206
:101C10008F93FF92EF920E94CF070F900F900F903B
:101C20000F90115021961111EDCF80912E0280FF5F
:101C30000AC084E493E0DF91CF911F910F91FF9050
:101C4000EF900C943607DF91CF911F910F91FF9089
:101C5000EF900895E0917F01F0918001309739F085
:101C600022E0DC012C930480F581E02D0994089595
:101C700020917D0130917E018217930771F090933E
:101C80007E0180937D01E0917F01F091800130978A
:101C900021F00680F781E02D0994089520917B01C1
:101CA00030917C018217930771F090937C018093AF
:101CB0007B01E0917F01F0918001309721F0008459
:101CC000F185E02D0994089585B7806885BF85B7B3
:101CD000806885BF0895089508950C946C0E08954A
:101CE0000C946F0E0E94640E0E946B0E0C946D0E8D
:101CF00081E008950E94D81B0E94050C0E946D1C73
:101D00000C94700ECF93C82F80912E0282FF1EC0BC
:101D100080FF04C085E693E00E94360780912E0282
:101D200080FF0CC01F92CF9380E693E09F938F9328
:101D30000E94CF070F900F900F900F9080912E026E
:101D400080FF04C08EE593E00E9436078C2FCF9170
:101D50000C9438084F925F927F928F929F92AF922D
:101D6000BF92CF92DF92EF92FF920F931F93CF9388
:101D7000DF93CDB7DEB72A970FB6F894DEBF0FBE5C
:101D8000CDBF0E94500C0E94780E811111C08FEFC0
:101D900089838A831B820E94E11B8160782F9D8347
:101DA0008C8349815A816B818D810E94680F57C055
:101DB00092E8C92E91E0D92E00E010E0AA24A39465
:101DC000B12C702E802F0E94B50B4C01F601419072
:101DD00051906F01482659264114510431F40F5F88
:101DE0001F4F0C30110569F7D2CF80912E0281FD73
:101DF0000E94BE0B20E030E07501022E02C0EE0C06
:101E0000FF1C0A94E2F7C70184219521892B09F16F
:101E10002E837F828E209F2091E0892809F490E014
:101E200098870E94E11B8160782F9A8789874E816D
:101E30005F8168858A850E94680F000F111FF80175
:101E4000EE57FE4F80819181E826F926F182E082EB
:101E500006C02F5F3F4F2930310571F6C0CF0E9479
:101E6000821E109181010E94D50D1817D9F00E9491
:101E7000D50D809381012A960FB6F894DEBF0FBE70
:101E8000CDBFDF91CF911F910F91FF90EF90DF9029
:101E9000CF90BF90AF909F908F907F905F904F902A
:101EA0000C94820E2A960FB6F894DEBF0FBECDBFFB
:101EB000DF91CF911F910F91FF90EF90DF90CF9026
:101EC000BF90AF909F908F907F905F904F900895BC
:101ED000CF93DF93CDB7DEB72B970FB6F894DEBF65
:101EE0000FBECDBF4F83588769877A878B87DE0106
:101EF000119686E0FD0111928A95E9F785E0FE01D1
:101F0000379601900D928A95E1F749815A816B814C
:101F10007C818D819E810E94B1162B960FB6F8941C
:101F2000DEBF0FBECDBFDF91CF910895FC01808150
:101F300091810E947D190895CF93DF931F92CDB7B1
:101F4000DEB7882309F42DC1682F8238C1F40E94BE
:101F5000D50D81FD26C169E38091000190910101B9
:101F60000E944F1B0E94081A2FEF81EE94E021502F
:101F700080409040E1F700C0000069E319C0833859
:101F800011F50E94D50D80FD0CC163E58091000123
:101F9000909101010E944F1B0E94081A2FEF81EEC1
:101FA00094E0215080409040E1F700C0000063E5DC
:101FB00080910001909101010E94511B0F90DF91CF
:101FC000CF910C94081A8438C1F40E94D50D82FD7B
:101FD000E8C067E480910001909101010E944F1BCD
:101FE0000E94081A2FEF81EE94E02150804090402B
:101FF000E1F700C0000067E4DBCF8CEF860F813A89
:1020000070F4862F69830E94EF2269818111C9C013
:1020100080910001909101010E944F1BCFCF80E27F
:10202000860F883048F4677081E001C0880F6A9598
:10203000EAF70E94BF19C2CF8BE5860F833088F480
:10204000653A29F0663A31F083E890E005C081E80E
:1020500090E002C082E890E00F90DF91CF910C9465
:10206000380E88E5860F873108F091C0683A09F488
:1020700045C0693A09F445C06A3A09F445C06B3A6B
:1020800009F445C06C3A09F445C06B3B09F445C0FE
:102090006C3B09F445C06D3A09F445C0603B09F456
:1020A00045C06E3A09F445C06F3A09F445C0613B3A
:1020B00009F445C0623B09F445C0633B09F445C0DF
:1020C000643B09F445C0653B09F445C0663B09F42F
:1020D00045C0673B09F445C0683B09F445C0693B0E
:1020E00009F445C06D3B09F445C06E3B09F445C099
:1020F0006A3B09F445C080E090E044C082EE90E085
:1021000041C089EE90E03EC08AEE90E03BC085EB96
:1021100090E038C086EB90E035C083EB90E032C0B1
:1021200084EB90E02FC087EB90E02CC08CEC90E02B
:1021300029C08DEC90E026C083E891E023C08AE8B6
:1021400091E020C082E991E01DC084E991E01AC0CD
:1021500081E292E017C083E292E014C084E292E050
:1021600011C085E292E00EC086E292E00BC087E2E9
:1021700092E008C08FE690E005C080E790E002C0E2
:102180008AE292E00F90DF91CF910C944E0E603F67
:1021900040F0862F0E94081D0F90DF91CF910C9484
:1021A000F51D0F90DF91CF910895882309F464C045
:1021B000823879F40E94D50D81FF5EC069E3809179
:1021C0000001909101010E944F1B0E94081A69E3CF
:1021D00010C08338B1F40E94D50D80FF4DC063E577
:1021E00080910001909101010E944F1B0E94081AEA
:1021F00063E580910001909101010E94511B0C94B4
:10220000081A843879F40E94D50D82FF35C067E43E
:1022100080910001909101010E944F1B0E94081AB9
:1022200067E4E7CF9CEF980F913A10F4682FE1CF65
:1022300090E2980F983050F4877091E001C0990FA8
:102240008A95EAF7892F0E94C519D9CF9BE5980F87
:10225000933020F480E090E00C94380E98E5980FCD
:10226000973120F480E090E00C944E0E803F20F0F7
:102270000E94701D0C94F51D0895CF93C82F0E94E5
:102280009C0FC93349F42FEF83EC99E02150804033
:102290009040E1F700C000008C2FCF910C94D51036
:1022A000882321F00E94BF190C94081A08958823EE
:1022B00021F00E94C5190C94081A08954F925F925C
:1022C0006F927F92BF92CF92DF92EF92FF920F9325
:1022D0001F93CF93DF937C01062FC72FFC0115813D
:1022E00012951F70D281D1110E94DC190E94B5197C
:1022F000882379F0DD2369F080E2800F883048F090
:1023000082E00E94531A0E94B51991E0B82EB926B6
:1023100001C0B12CCC2EC2948FE0C822D12CF60182
:10232000E859FF4F0C94342C8C2F807FCF7088237A
:1023300011F0C295C07FDD2399F0CC2309F4C3C10D
:1023400080E2800F883010F0011104C08C2F0E94B1
:10235000BF1903C08C2F0E94CF190E94081AB3C165
:10236000802F0E94D510CC2309F4D2C180E2800FC7
:10237000883010F0011104C08C2F0E94C51903C0D1
:102380008C2F0E94D5190E94081AC2C18C2F807F01
:10239000CF70803211F0C295C07F002319F0013058
:1023A000C9F022C0DD2371F0112341F0113031F466
:1023B0000E94EF198C2B0E94F519AAC10E94EF19F7
:1023C0008C2B3AC1112319F0113009F4A1C10E94DC
:1023D000FE1918C0DD2321F0163008F099C10EC097
:1023E000153008F095C10EC0DD2351F0112331F0F6
:1023F000F701858180FF67C18F7085838C2F1CC199
:10240000111172C18C2F1EC18C2F869586958370F9
:1024100090E0009719F0019761F07AC1DD2321F077
:10242000802F9C2F937002C080E090E00E94380EB5
:102430007FC1DD2321F0802F9C2F937002C080E0AC
:1024400090E00E944E0E74C1DD23F9F0053F51F07B
:10245000063F71F0043FA9F480914A0290914B022B
:1024600081600BC080914A0290914B02826005C04E
:1024700080914A0290914B02846090934B0280932A
:102480004A02802F0E94081D1EC0053F51F0063FE2
:1024900071F0043FA9F480914A0290914B028E7F23
:1024A0000BC080914A0290914B028D7F05C08091B4
:1024B0004A0290914B028B7F90934B0280934A0289
:1024C000802F0E94701D0E94F51D32C18C2F8370D9
:1024D00009F04BC0D11128C1202F229526952770D5
:1024E000220F220F602F6F70862F90E0A0E0B0E0E7
:1024F0002C013D01022E04C0440C551C661C771CA7
:102500000A94D2F704FF10C08FE090E0A0E0B0E0A2
:1025100004C0880F991FAA1FBB1F2A95D2F7809568
:102520009095A095B09503C080E090E0DC01C69541
:10253000C695C370D0E0BC01CD01642975298629F8
:102540009729C230D10559F0C330D10559F02197F0
:1025500019F00E94F617E8C00E94E417E5C00E9437
:102560000818E2C00E94E217DFC0DD2319F08C2FAB
:10257000817001C08695882309F4D6C0202F22954A
:1025800026952770220F220F602F6F70862F90E004
:10259000A0E0B0E02C013D01022E04C0440C551C0B
:1025A000661C771C0A94D2F704FF10C08FE090E0FD
:1025B000A0E0B0E004C0880F991FAA1FBB1F2A9596
:1025C000D2F780959095A095B09503C080E090E0FB
:1025D000DC01C695C695C370D0E0BC01CD0164296D
:1025E000752986299729C230D10559F0C330D10504
:1025F00059F0219719F00E94BC1896C00E94AA18A1
:1026000093C00E94CE1890C00E941D188DC0802FCC
:1026100090E0FC01E05EF109E531F10508F04FC002
:10262000E858FF4F0C94342C0F708C2F8F71DD23E2
:1026300031F00E944318802F0E94501169C00E94FF
:102640006418802F0E94571163C0DD2341F01530BC
:1026500008F05EC08C2F8F710E94891859C0163007
:1026600008F056C0F7CFDD2339F08C2F8F710E9410
:1026700043184EC0DD23C9F38C2F8F710E9464185C
:1026800047C0DD2329F08C2F8F710E942E1840C087
:102690000E9429183DC0DD2349F0CF718C2F0E9484
:1026A000431863E08C2F0E943E1A32C081E00E94E2
:1026B000531A123068F182E00E94531A29C0DD23B8
:1026C00031F0112391F2802F0E949C0F21C0112321
:1026D00099F2093349F4FFEF23EC89E0F1502040EF
:1026E0008040E1F700C00000802F0E94D51010C08C
:1026F0004C2F4F70602FC7010E9440090E94551750
:1027000017C04C2F4F70602FC7010E94430910C0A3
:1027100098E0C916D10441F05CF0FAE0CF1AD10874
:1027200022E0C216D10420F40E94D50D0E94380880
:10273000BB20F1F00E94B11980FD1AC0F70112828E
:102740000E94AB190E944318C7010E94C6130E9441
:10275000AB19DF91CF911F910F91FF90EF90DF9018
:10276000CF90BF907F906F905F904F900C946418C3
:10277000DF91CF911F910F91FF90EF90DF90CF905D
:10278000BF907F906F905F904F9008950F931F932D
:10279000CF93DF93EC01888199812B813C81232B9E
:1027A000B9F09F3F11F48F3F99F0CE010E944A0883
:1027B000882371F0688179818A810E9488198C014F
:1027C0000E94E0180E94E117B801CE010E945E113C
:1027D000DF91CF911F910F9108950E94DC190E9403
:1027E000EC190E94081A0E941D1F0E94F51D80E02E
:1027F00090E00E94380E80E090E00C944E0E8091A4
:102800000001909101010E94531B0C94ED130E9452
:10281000CC190C94FF13E92FE295EF70F0E032979A
:10282000EE30F105B0F4E357FF4F0C94342C803FA9
:1028300091F018F4803E68F40EC0843F51F40BC050
:10284000803E48F0813F29F406C093FB882780F939
:10285000089580E0089581E008950E947D190E9406
:102860000B140895CF93DF9300D000D01F92CDB703
:10287000DEB70F900F900F900F900F90DF91CF91D8
:102880000895CF93DF9300D000D000D0CDB7DEB74E
:1028900026960FB6F894DEBF0FBECDBFDF91CF9165
:1028A00008951F93CF93DF93C0919B0116E0809111
:1028B0009C01C81799F0D0E01C9FF0011D9FF00DFE
:1028C0001124E356FE4F40815181628173818481DE
:1028D00095810E9441142196C770E9CFDF91CF9175
:1028E0001F9108954091CD015091CE016091CF018B
:1028F0007091D0018091D1019091D2010C9441143A
:102900008091D20182958F7009F054C08091CF01DF
:10291000882309F44FC080919B01A0919C01609194
:10292000CD017091CE014091D0015091D101B6E01E
:102930008A1709F43FC090E041155105C1F17F3F6E
:1029400011F46F3FA1F1B89FF001B99FF00D112470
:10295000E356FE4F218172132AC02081621327C0E3
:102960002281211124C0238134812417350710F4DA
:1029700021503109241B350B283C3105C0F420912E
:10298000D2012F7020612093D20126E0289FF00110
:10299000299FF00D1124EE55FE4F80818F708061CC
:1029A00080838DEC91E00E94C6130C945114019623
:1029B0008770BECF0895CF92DF92EF92FF920F9370
:1029C0001F93CF93DF93CDB7DEB762970FB6F8941E
:1029D000DEBF0FBECDBF8C0185E0F801DE011D9684
:1029E00001900D928A95E1F7D8014C9111965C9176
:1029F000119712966C9112971396CD90DC901497C4
:102A00003091CD017091CE018091D0019091D10192
:102A1000009709F46BC17F3F19F43F3F09F466C189
:102A2000E090CF01EE2009F4C0C02091D201C81679
:102A3000D90628F0F601E81BF90BCF0104C08095F8
:102A400090958C0D9D1DFF24F394883C910578F0A2
:102A5000F12C207F09F0C6C07C2DD98AC88A8989CB
:102A60000E9432148DEC91E00E94C613B1C0822FF7
:102A7000807F09F046C0751314C0341312C0611171
:102A800010C02F7020612093D2010E9472148DEC2F
:102A900091E00E94C6138091D201D80115968C93C3
:102AA0002EC0CD2819F15F3F11F44F3FF9F0F62EFB
:102AB00061111CC080919B0120919C0136E082171E
:102AC00009F45AC090E0389FF001399FF00D1124AD
:102AD000E356FE4F7181571306C07081471303C040
:102AE0007281711103C001968770E9CFF62E6623BB
:102AF00009F427C18091D20181608093D201F12C29
:102B000020C1751308C0341306C0611104C0809140
:102B1000D201D801C3C04D875E878D859E856A8BA3
:102B20000E942D146A898823E1F16623D1F1209156
:102B3000D201822F82958F7090E0029774F080917D
:102B4000CD019091CE0198878F831986DB86CA8646
:102B50002C87CE0107960E94C61386E0F801ADECE3
:102B6000B1E001900D928A95E1F70E9480140E94D5
:102B70007214FF24F394E5C04D875E878D859E8592
:102B80000E947D19292F22952F7030E022303105C7
:102B90000CF0CBC09F7009F0C5C0805E883008F48F
:102BA000D0C0C8010E94C613E4CFC816D90608F4E5
:102BB00053C0F601E81BF90BCF01883C910508F4DE
:102BC00050C0F12C7C2DD98AC88A89890E94321480
:102BD000EDECF1E086E0DF011D928A95E9F70E94B5
:102BE0007214AFC0751314C0341312C0611110C039
:102BF0008091D201F8018583C8010E94C61386E046
:102C0000EDECF1E0DF011D928A95E9F7FE2C99C009
:102C10004D875E878D859E856A8B0E942D146A89FB
:102C2000882309F4BECF662309F4BBCF2091D201DB
:102C3000822F82958F7090E002970CF48ECF809156
:102C4000CD019091CE019A8389831B82DD82CC8253
:102C50002E83CE0101967FCF809590958C0D9D1D82
:102C6000ACCFF62E662309F49CCF75132EC0341317
:102C70002CC02091D20120FD1FC0822F82958F7021
:102C8000D9F0D80115962C9315978F3049F08F5FA6
:102C9000982F9295907F822F8F70892B15968C9309
:102CA000C8010E94C61386E0F801ADECB1E00190C6
:102CB0000D928A95E1F793CF86E0F801ADECB1E093
:102CC00001900D928A95E1F73CC04D875E878D8516
:102CD0009E850E942D14811140CF8091D201816088
:102CE0008093D201C8010E94C6132BC0662309F449
:102CF00058CF4D875E878D859E850E942D14F82EB6
:102D0000882309F44ECF86E0F801ADECB1E00190E4
:102D10000D928A95E1F78DEC91E00E94960F0E944A
:102D200080145DCF811139CF0CC0243031050CF0F7
:102D300038CF9F7009F431CFF8019581907F09F069
:102D40002CCF8F2D62960FB6F894DEBF0FBECDBF8D
:102D5000DF91CF911F910F91FF90EF90DF90CF9077
:102D600008951F93CF93DF93CDB7DEB72C970FB69F
:102D7000F894DEBF0FBECDBF4F83588769877A872F
:102D80008B879C87CE0107960E94DB14882369F00D
:102D90008F8198852A853B85232BF1F19F3F09F090
:102DA00063C08F3F09F060C037C086E0FE013796F0
:102DB000DE01119601900D928A95E1F76F81788579
:102DC000EA85FB85309741F17F3F11F46F3F21F198
:102DD00020919C0130E0C9010196877099274091AC
:102DE0009B0150E08417950709F447C069837A83F3
:102DF000FD83EC8396E0929FD001939FB00D112448
:102E0000A356BE4FFE01319601900D929A95E1F7BF
:102E100080939C010E94511416E080919B01909137
:102E20009C018917C1F1189FC001112483569E4F40
:102E30000E94DB14882379F1E0919B011E9FF00131
:102E40001124E356FE4F4081518162817381848158
:102E500095810E94411480919B0190E001968770BA
:102E6000992780939B01D9CF4F81588569857A85B1
:102E70008B859C850E944114CFCF0E94071410922D
:102E80009C0110929B01EDECF1E086E0DF011D92C8
:102E90008A95E9F7C1CF2C960FB6F894DEBF0FBE26
:102EA000CDBFDF91CF911F910895EF92FF920F93C5
:102EB0001F93CF93DF938C01892B09F46CC0F12C05
:102EC000EE24E394E8012196F8018491843740F4DC
:102ED000843008F051C0813081F0823019F15BC03C
:102EE000853709F444C0A8F19CE7980F903708F0A3
:102EF00052C08F770E94D51041C00E5F1F4FFE0158
:102F0000C49180E28C0F883048F4C7708E2D01C0C8
:102F1000880FCA95EAF70E94DF1914C08C2F0E940F
:102F20009C0F2DC00E5F1F4FFE01C49180E28C0FDD
:102F3000883058F4C7708E2D01C0880FCA95EAF703
:102F40000E94E5190E94081A1AC08C2F0E94D51001
:102F500016C00E5F1F4FFE01C491CC2381F08FE994
:102F60009FE00197F1F700C00000C150F6CF0E5F5F
:102F70001F4FFE01F49003C00E949C0F8E018F2D05
:102F8000882309F49FCFEFE9FFE03197F1F700C004
:102F900000008150F5CFDF91CF911F910F91FF90ED
:102FA000EF90089508950C94D2170E94D317609360
:102FB0001D0270931E0280931F02909320020C94B6
:102FC000ED1308950C94D5170F931F9300911D02D4
:102FD00010911E0220911F0230912002602B712B54
:102FE000822B932B1F910F910C94D5170F931F9346
:102FF00000911D0210911E0220911F0230912002AB
:1030000060237123822393231F910F910C94D51772
:103010000F931F9300911D0210911E0220911F0219
:103020003091200260277127822793271F910F91EB
:103030000C94D51708950C941A180E941B186093CD
:10304000190270931A0280931B0290931C020C9435
:10305000ED1360E070E0CB010C941D180F931F93EB
:1030600041E050E060E070E08A019B0104C0000F85
:10307000111F221F331F8A95D2F7C901B8011F9172
:103080000F910C941D180F931F9341E050E060E0E6
:1030900070E004C0440F551F661F771F8A95D2F752
:1030A0008091190290911A02A0911B02B0911C020A
:1030B0008A019B01082B192B2A2B3B2BC901B80134
:1030C0001F910F910C941D180F931F9341E050E036
:1030D00060E070E004C0440F551F661F771F8A959B
:1030E000D2F7409550956095709580911902909116
:1030F0001A02A0911B02B0911C028A019B010823B5
:1031000019232A233B23C901B8011F910F910C9465
:103110001D180F931F9341E050E060E070E004C081
:10312000440F551F661F771F8A95D2F780911902A9
:1031300090911A02A0911B02B0911C028A019B017E
:10314000082719272A273B27C901B8011F910F918A
:103150000C941D180F931F930091190210911A02DD
:1031600020911B0230911C02602B712B822B932B20
:103170001F910F910C941D180F931F93009119022A
:1031800010911A0220911B0230911C0260237123BE
:10319000822393231F910F910C941D180F931F935B
:1031A0000091190210911A0220911B0230911C0209
:1031B00060277127822793271F910F910C941D1868
:1031C000089529E0929F800D1124A82FA695A69519
:1031D000A695877051E001C0550F8A95EAF785E002
:1031E000A89FD001112420E030E070E0F901EA0F3F
:1031F000FB1FED52FE4F4081CB01022E02C096957F
:1032000087950A94E2F78170992781958427852311
:10321000842780832F5F3F4F2530310539F708958C
:1032200029E0929F800D1124682F6695669566951A
:10323000982F977085E0689FB001112440E050E01E
:1032400080E0FA01E60FF71FED52FE4F208130E0DB
:10325000092E02C0369527950A94E2F7217033278C
:10326000042E01C0220F0A94EAF7822B4F5F5F4FB2
:103270004530510531F70895BF92CF92DF92EF921A
:10328000FF920F931F93CF93DF938C01C0901D0289
:10329000D0901E02E0901F02F0902002809119024F
:1032A00090911A02A0911B02B0911C02C82AD92A3F
:1032B000EA2AFB2ACFE1D0E0D701C6010C2E04C0D8
:1032C000B695A795979587950A94D2F780FF07C082
:1032D000BC2EB8018C2F0E945E09019719F421972A
:1032E00058F7B12C8B2DDF91CF911F910F91FF904B
:1032F000EF90DF90CF90BF900895CF93DF93EC01D4
:103300000E943C19BE010E945E09DF91CF91089591
:103310001F93CF93DF93EB0190919A01992321F0B2
:10332000CB010E947D1913C0882349F0CB010E9474
:103330003C19182F682FCE010E94E11804C0CB0160
:103340000E941019182FBE01812F0E945E09DF9183
:10335000CF911F910895809121028595859585953E
:1033600008958091210287700895909121029770AD
:1033700081E009F480E0089580912D0208959091F4
:103380002D02892B80932D020895809590912D0216
:10339000892380932D02089510922D020895909113
:1033A0002C02892B80932C020895809590912C02F9
:1033B000892380932C02089510922C0208959091F5
:1033C0002B02892B80932B020895809590912B02DC
:1033D000892380932B02089510922B0208958091E7
:1033E0002202089508950C94F219909122029817E0
:1033F00021F0809322020C94F31908958091220207
:10340000882329F01092220280E00C94F319089589
:10341000E0910001F091010180912D028083E09103
:103420000001F0910101908180912C02892B808311
:10343000E0910001F0910101908180912B02892B94
:10344000808380912202882381F0E0910001F09135
:1034500001019081892B808380910001909101016D
:103460000E941D1B81110E94FE1980910001909104
:1034700001010C94E10D08950C943B1A98E0899F8A
:1034800090011124262B209321020E944318809141
:1034900021028595859585950C943C1A1092210200
:1034A00080E00C943C1A2091210280958223809325
:1034B0002102982F977079F430E0482F082E000CE5
:1034C000550B2417350739F08595859585950E940C
:1034D00064180C944E1A089590934301809342010E
:1034E00008958295982F9C7C392F36953695282FF4
:1034F000237344E0249FC0011124932F982B292F7C
:103500002A7A2695892F8575880F822B08951F9317
:10351000CF93DF931F92CDB7DEB799830E94711AC4
:10352000182F9981892F0E94711A212F30E0322F94
:103530002227A901482BCA010F90DF91CF911F913B
:10354000089580E090E00E94562C21E08D3E9E4F31
:1035500009F020E0822F089582E090E00C944E2C38
:1035600083E090E00C944E2C84E090E00C944E2C80
:10357000682F84E090E00C945C2CAB01BC018FE0E0
:1035800090E00C946E2CAB01BC0183E190E00C94B4
:103590006E2C60E070E0CB010C94C31A60E070E028
:1035A000CB010E94BD1A0C94C91A6DEE7EEF80E02B
:1035B00090E00E947A2C60E082E090E00E945C2C17
:1035C00060E083E090E00E945C2C10921D0210925B
:1035D0001E0210921F021092200260E084E090E030
:1035E0000E945C2C60E085E090E00E945C2C60E032
:1035F00086E090E00E945C2C6FEF87E090E00E94F4
:103600005C2C40E050E0BA0188E090E00E946E2C13
:1036100060E08DE090E00E945C2C40E050E0BA0158
:1036200088E190E00E946E2C60E087E190E00E94CB
:103630005C2C0C94CE1A0C94D51AFC01329697E0AF
:1036400080E0915029F021912223D9F38F5FF9CFA7
:1036500008959C01FC0132969FEF80E0419146174E
:1036600089F09F3F19F4411101C0982F8F5F863078
:10367000A9F79F3F39F0F901E90FF11D97FDFA9580
:10368000628308950895FC013296089620812613DE
:1036900001C010823196E817F907C1F708950C941C
:1036A000291B0C94431B029626E0FC0111922A95DB
:1036B000E9F7089508950C945A1B0E945B1B8091B2
:1036C0005602843049F110922F0220E488E190E004
:1036D0000FB6F894A895809360000FBE2093600009
:1036E00080E00E9438080E945B1B83B7817F846062
:1036F00083BF83B7816083BF7894889583B78E7FBB
:1037000083BF0FB6F894A89580916000886180937C
:103710006000109260000FBE089508950895CF9341
:103720000E948D1B0E94500C0E948E1BC0E08C2FAB
:103730000E94B50B892B29F4CF5FCC30C1F780E014
:1037400001C081E0CF91089508950C94A41B0E94BC
:1037500007140E94D50D0E9438080C94A51B1F92D7
:103760000F920FB60F9211248F939F93AF93BF9335
:1037700080912F02811113C080914C0290914D02D3
:10378000A0914E02B0914F024196A11DB11D8093B0
:103790004C0290934D02A0934E02B0934F02BF9102
:1037A000AF919F918F910F900FBE0F901F90189522
:1037B00082E084BD93E095BD9AEF97BD80936E0043
:1037C00008952FB7F89480914C0290914D02A091EA
:1037D0004E02B0914F022FBF08952FB7F894609119
:1037E0004C0270914D0280914E0290914F022FBF7A
:1037F0000895CF92DF92EF92FF920F931F932FB70E
:10380000F89440914C0250914D0260914E0270919B
:103810004F022FBF6A017B01EE24FF248C0120E0C0
:1038200030E0C016D106E206F30610F4415051090B
:103830009A01281B390BC9011F910F91FF90EF903E
:10384000DF90CF90089578941F920F920FB60F9249
:1038500011248F939F93AF93BF9380914C029091CB
:103860004D02A0914E02B0914F020196A11DB11DD3
:1038700080934C0290934D02A0934E02B0934F025E
:10388000BF91AF919F918F910F900FBE0F901F909E
:10389000189581E08093E00080E28093D800109238
:1038A000C9008FE19EE40197F1F700C0000087E0B6
:1038B00090EBDC0180935F0290936002A093610221
:1038C000B09362029CE088E10FB6F894A8958093CB
:1038D00060000FBE90936000FFCF0E94A11A81117B
:1038E00002C00E941B1B0E94AC1A80932E020E94F1
:1038F000B41A90E090935102809350020E94B01A43
:10390000682F70E080E090E00C94E2178091330221
:1039100080FF0BC06091050185E0689FB001112414
:1039200075956795759567952BC081FF09C0609166
:10393000050185E0689FB00111247595679520C049
:1039400082FF07C06091050185E0689FB0011124E6
:1039500017C0909132029923D1F06091040196171B
:1039600088F72091050185E0289F90011124929FFE
:10397000A001939F500D112470E0CA010E94202CD9
:103980006038710540F46115710539F002C065E0D9
:1039900070E0862F08958FE7089581E00895809163
:1039A000330280FF08C06091030170E07595679550
:1039B0007595679521C081FF06C06091030170E095
:1039C0007595679519C082FF04C06091030170E08E
:1039D00010C0909132029923C1F0609102019617B4
:1039E000A0F780910301899FC001112470E00E941B
:1039F000202C6038710528F46115710521F0862F9F
:103A000008958FE7089581E0089561E070E0F4CFB4
:103A1000803F21F40E94861C819504C0813F29F4D7
:103A20000E94861C809337020895823F21F40E94F1
:103A3000861C819504C0833F29F40E94861C8093D4
:103A400036020895893F19F40E94CF1C05C08A3FB1
:103A500031F40E94CF1C81958093380208958B3FEA
:103A600021F40E94CF1C819504C08C3F29F40E9450
:103A7000CF1C809339020895843F21F48091350250
:103A8000816017C0853F21F480913502826011C0AA
:103A9000863F21F48091350284600BC0873F21F47A
:103AA00080913502886005C0883F31F480913502ED
:103AB00080618093350208958D3F21F48091330217
:103AC00081600BC08E3F21F480913302826005C07B
:103AD0008F3F29F4809133028460809333020895EC
:103AE000803F39F48091370287FF6CC01092370213
:103AF00069C0813F29F4809137021816BCF362C077
:103B000090913602823F29F497FF5CC010923602F2
:103B100059C0833F19F41916CCF354C0893F41F4BE
:103B20008091380218160CF04DC0109238024AC02D
:103B30008A3F29F48091380287FF44C0F6CF8B3F3B
:103B400039F48091390287FF3DC0109239023AC0A2
:103B50008C3F29F4809139021816BCF333C0843F9E
:103B600021F4809135028E7F17C0853F21F480912A
:103B700035028D7F11C0863F21F4809135028B7F05
:103B80000BC0873F21F480913502877F05C0883FB5
:103B900031F4809135028F7E8093350213C08D3FC2
:103BA00021F4809133028E7F0BC08E3F21F48091EF
:103BB00033028D7F05C08F3F29F4809133028B7FC4
:103BC000809333028091360281110EC080913702BA
:103BD00081110AC080913802811106C0809139029A
:103BE000811102C010923202089580912E0283FF4B
:103BF0007EC08FE993E00E943607809135021F92C4
:103C00008F938AE993E09F938F930E94CF0788E96F
:103C100093E00E94360780913602282F082E000C70
:103C2000330B3F938F9385E993E09F938F930E948B
:103C3000CF0783E993E00E94360780913702282F4F
:103C4000082E000C330B3F938F9380E993E09F93F2
:103C50008F930E94CF078EE893E00E9436078091F1
:103C60003802282F082E000C330B3F938F938BE8DC
:103C700093E09F938F930E94CF0789E893E00E947F
:103C8000360780913902282F082E000C330B3F9302
:103C90008F9386E893E09F938F930E94CF0783E8EA
:103CA00093E00E943607809132021F928F9380E842
:103CB00093E09F938F930E94CF078EE793E00E943B
:103CC0003607809133021F928F938BE793E09F9387
:103CD0008F930E94CF0788E793E00E9436078DB745
:103CE0009EB74C960FB6F8949EBF0FBE8DBF84E36F
:103CF00092E00E942A0E0E94E11B90933102809371
:103D0000300208951F93CF93DF93809130029091FA
:103D100031020E94F91BAC0190913202992321F0EB
:103D20002091060130E006C0209107018AE0289F1B
:103D3000900111244217530708F47BC0809136028A
:103D4000C0913702D091380210913902811107C019
:103D5000C1116BC0D11169C0111167C06AC09F3F0A
:103D600019F09F5F90933202181624F40E94861C6B
:103D7000809336028091360287FF05C00E94861C20
:103D80008195809336021C1624F40E94861C809331
:103D900037028091370287FF05C00E94861C8195FB
:103DA00080933702309136023323E1F020913702BD
:103DB0002223C1F045EB3403C0011124892F990F50
:103DC000990B009709F481E08093360235EB2303C9
:103DD000C0011124892F990F990B009709F481E0F4
:103DE000809337021D1624F40E94CF1C8093380262
:103DF0008091380287FF05C00E94CF1C8195809377
:103E00003802111624F40E94CF1C8093390280914D
:103E1000390287FF05C00E94CF1C8195809339022B
:103E2000DF91CF911F910C94F51D9F3F09F099CF21
:103E3000A1CFDF91CF911F910895E4E3F2E086E0F6
:103E4000DF011D928A95E9F7109232021092330237
:103E5000089582EC95E00E9436071F9281E08F93CF
:103E60001F9285E08F9384E795E09F938F930E9444
:103E7000CF070F900F900F900F900F900F90089515
:103E80008330E9F128F4813061F0823009F108953E
:103E9000853009F462C008F449C0863009F474C062
:103EA000089580910701262F30E0280F311D2F3F04
:103EB000310524F4680F6093070103C08FEF8093EE
:103EC0000701809107011F928F938DEA94E072C0E1
:103ED00080910601262F30E0280F311D2F3F31053C
:103EE00024F4680F6093060103C08FEF80930601EE
:103EF000809106011F928F938BE994E05BC08091C3
:103F00000501262F30E0280F311D2F3F310524F405
:103F1000680F6093050103C08FEF809305018091C6
:103F200005011F928F9388E894E044C080910401BA
:103F3000262F30E0280F311D2F3F310524F4680F64
:103F40006093040103C08FEF80930401809104010A
:103F50001F928F9383E794E02DC080910301262F59
:103F600030E0280F311D2F3F310524F4680F609396
:103F7000030103C08FEF80930301809103011F921F
:103F80008F938AE594E016C080910201262F30E0DD
:103F9000280F311D2F3F310524F4680F6093020173
:103FA00003C08FEF80930201809102011F928F93D3
:103FB0008FE394E09F938F930E94CF070F900F9011
:103FC0000F900F900895833081F128F4813059F0DB
:103FD0008230D1F00895853009F449C0B8F18630B7
:103FE00009F456C0089580910701681720F4861BD4
:103FF0008093070102C010920701809107011F9270
:104000008F9380E394E054C080910601681720F4F8
:10401000861B8093060102C0109206018091060162
:104020001F928F938EE194E043C080910501681741
:1040300020F4861B8093050102C010920501809137
:1040400005011F928F938BE094E032C080910401B0
:10405000681720F4861B8093040102C010920401AB
:10406000809104011F928F9386EF93E021C080918D
:104070000301681720F4861B8093030102C010928D
:104080000301809103011F928F938DED93E010C087
:1040900080910201681720F4861B8093020102C000
:1040A00010920201809102011F928F9382EC93E0A3
:1040B0009F938F930E94CF070F900F900F900F90B8
:1040C0000895CF93C82F1F928F9387EC96E09F930C
:1040D0008F930E94CF0781E090E0A0E0B0E0BC01A8
:1040E000CD0104C0660F771F881F991FCA95D2F7AC
:1040F0000E94E2170F900F900F900F90CF910C94A9
:104100000714CF938B3109F4D1C108F067C18B300C
:1041100009F48AC108F03DC1863009F488C120F451
:10412000853009F496C144C2873009F4A4C18830AF
:1041300009F03EC286E09CE00E94360787E59BE0DE
:104140000E9436070E94B01A1F928F9384E59BE06D
:104150009F938F930E94CF0782E59BE00E943607D2
:104160000E94AC1AC82F8FE39BE00E9436071F9273
:10417000CF938AE39BE09F938F930E94CF0788E3BE
:104180009BE00E9436078EE29BE00E9436078C2F50
:1041900081701F928F938BE29BE09F938F930E947D
:1041A000CF0789E29BE00E9436078FE19BE00E94E7
:1041B0003607C1FB882780F91F928F938CE19BE023
:1041C0009F938F930E94CF078AE19BE00E9436075E
:1041D0008EE09BE00E943607C2FB882780F91F9281
:1041E0008F938BE09BE09F938F930E94CF0789E092
:1041F0009BE00E94360780E09BE00E943607C3FBED
:10420000CC27C0F91F92CF938DEF9AE09F938F93A5
:104210000E94CF078BEF9AE00E9436070E94B41AE3
:10422000C82F87EE9AE00E9436071F92CF9382EE46
:104230009AE09F938F930E94CF0780EE9AE00E94AE
:10424000360787EC9AE00E9436078C2F81701F9208
:104250008F9384EC9AE09F938F930E94CF078DB742
:104260009EB780960FB6F8949EBF0FBE8DBF82ECAE
:104270009AE00E9436078BEA9AE00E943607C1FB5B
:10428000882780F91F928F9388EA9AE09F938F93F3
:104290000E94CF0786EA9AE00E94360784E99AE0F6
:1042A0000E943607C2FB882780F91F928F9381E90D
:1042B0009AE09F938F930E94CF078FE89AE00E9425
:1042C00036078DE79AE00E943607C3FB882780F9FE
:1042D0001F928F938AE79AE09F938F930E94CF0754
:1042E00088E79AE00E9436078EE69AE00E94360739
:1042F000C4FB882780F91F928F938BE69AE09F93E7
:104300008F930E94CF0789E69AE00E94360787E5DF
:104310009AE00E943607C5FB882780F91F928F9389
:1043200084E59AE09F938F930E94CF0782E59AE0FD
:104330000E94360786E39AE00E943607C6FB88276C
:1043400080F91F928F9383E39AE09F938F930E944B
:10435000CF0781E39AE00E94360789E29AE00E9443
:104360003607C7FBCC27C0F91F92CF9386E29AE0AD
:104370009F938F930E94CF0784E29AE00E943607B2
:104380008DB79EB74C960FB6F8949EBF0FBE8DBFEB
:1043900049C0803109F4B4C020F48E3009F49AC0C9
:1043A00007C1863109F4C7C0893109F001C18BE426
:1043B00098E00E94360786E198E00E9436078CED6F
:1043C00097E00E94360789E997E00E94360783E666
:1043D00097E00E94360785E397E08FC08A32E1F0CC
:1043E00060F4873209F4E0C028F48E3108F4E0C0AC
:1043F0008D51DBC0893269F1DBC0833448F48A33E4
:1044000008F0D0C0853309F4CFC0883369F0D0C03C
:10441000833409F4C9C0CCC085EF9BE00E94360705
:104420000E941B1BC1E0C9C081E898E066C0809172
:104430002E02817F8E7F80932E028AE598E00E9473
:10444000360781EF9BE00E94360781E080933B02B4
:10445000E9CF0E94071485ED9BE00E9436079FEF8D
:1044600023ED80E3915020408040E1F700C0000040
:104470000E94491CD7CF80912E02C82FC095C170D1
:10448000C0FB80F980932E02CC2329F089EC9BE0BD
:104490000E94360792C08CEB9BE00E943607809109
:1044A0002E02897F877F80932E02BCCF90912E02AF
:1044B00091FBCC27C0F981E0C827892FC0FB81F987
:1044C00080932E02CC2319F08FEA9BE029C081EA69
:1044D0009BE013C090912E0292FBCC27C0F981E0A3
:1044E000C827892FC0FB82F980932E02CC2319F0B4
:1044F00082E99BE015C082E89BE00E94360792CFDC
:1045000090912E0293FBCC27C0F981E0C827892F18
:10451000C0FB83F980932E02CC2351F086E79BE009
:104520000E94360780912E02816080932E0245C042
:1045300089E69BE0E2CF87E297E00E9436070E947F
:10454000D50D1F928F938DE097E09F938F930E94DC
:10455000CF07809112011F928F9386EF96E09F9371
:104560008F930E94CF07809148021F928F9383EE12
:1045700096E09F938F930E94CF070E94ED1B9F931D
:104580008F937F936F938CEC96E09F938F930E9411
:10459000CF078DB79EB742960FB6F8949EBF0FBE59
:1045A0008DBF40CF895301C080E00E9461203ACF87
:1045B00087E69BE00E943607C0E08C2FCF910895DC
:1045C00080E0089580E008958E518A3030F4E82F1D
:1045D000F0E0E85DFE4F8081089580E00895CF937C
:1045E000C82F80913B02813059F020F0823009F4CD
:1045F00045C039C10E94BC19823209F036C104C0DD
:104600000E94BC19823261F48C2F0E94E022811139
:1046100004C08C2F0E9481202FC081E090E02CC02C
:104620008C2F0E94E222811126C0C431E1F070F487
:10463000CB3081F0C031D1F40E94291F8FEB96E07E
:104640000E94360782E080933B0215C0C93259F0C0
:10465000C83361F48AE598E00E94360783EC96E05F
:104660000E94360708C010923B0201C18DEB96E014
:104670000E943607FCC081E08170FBC0C43228F57F
:10468000CE3108F0C1C0CB30A1F1D0F4C73009F071
:10469000D0C08EE18093070182E3809306018AE017
:1046A0008093050184E18093040188E080930301F5
:1046B00088E28093020183E695E00E943607BCC041
:1046C000C33149F1C431C1F0B4C0CB3409F4A6C040
:1046D00028F4C93289F0C83361F0ABC0C13509F4A0
:1046E0009BC0C23509F496C0CE3409F0A2C06AE07E
:1046F0009BC00E94291FA0C080913A02882319F014
:1047000010923A0299C080E795E00E94360781E056
:1047100080933B02AEC08AE495E00E94360788E3AE
:1047200095E00E943607809107011F928F9385E3E1
:1047300095E09F938F930E94CF0783E395E00E94BB
:10474000360781E295E00E943607809106011F92AC
:104750008F938EE195E09F938F930E94CF078CE11A
:1047600095E00E9436078DE095E00E943607809123
:1047700005011F928F938AE095E09F938F930E948B
:10478000CF0788E095E00E94360787EF94E00E940B
:104790003607809104011F928F9384EF94E09F93DA
:1047A0008F930E94CF0782EF94E00E9436078DED31
:1047B00094E00E943607809103011F928F938AED47
:1047C00094E09F938F930E94CF0788ED94E00E941E
:1047D000360781EC94E00E943607809102011F9217
:1047E0008F938EEB94E09F938F930E94CF078CEB77
:1047F00094E00E9436078DB79EB748960FB6F8949E
:104800009EBF0FBE8DBF18C08C2F0E94E4228093E4
:104810003A0212C061E003C061E006C06AE0809124
:104820003A020E94401F08C080913A020E94E31F92
:1048300003C081E695E013C080913A02882369F0B5
:104840001F928F938BE595E09F938F930E94CF07E4
:104850000F900F900F900F9004C088E595E00E9494
:10486000360781E006C010923B0280E002C080E083
:1048700003CFCF9108958091470208959FB7F89490
:1048800010923E029FBF90915602943009F057C09B
:104890009091E9009F703091EC00232F217030FD42
:1048A00020E8922B23E02093E9002091EB0020FFE9
:1048B00043C02091EE0027FF3FC020913C022223FD
:1048C00021F02091E80025FF37C010923C0226E03D
:1048D0003091E80035FD15C030915602343061F555
:1048E0003091EB0035FD28C0215021F481E0809308
:1048F0003C0222C0EFE9FFE03197F1F700C0000071
:10490000E7CF8093F1008091E80085FD0AC0809197
:10491000E80080FFFCCF8091E8008E778093E8006C
:1049200006C08FB7F89421E020933E028FBF9F709E
:104930009093E90080E008959F709093E9008FEFD5
:1049400008950F931F93CF93DF9300D01F92CDB79D
:10495000DEB78C010E945C27823011F0843021F593
:1049600084E089831B830A8382E08093E9008FEFD0
:104970009091E800815095FD06C095ED9A95F1F76C
:1049800000008111F5CF8091E80085FF0DC040E067
:1049900050E063E070E0CE0101960E94792780919B
:1049A000E8008E778093E8000F900F900F90DF91D2
:1049B000CF911F910F910895CF93DF9300D01F9255
:1049C000CDB7DEB720915602243031F523E029839C
:1049D000805891099B838A8382E08093E9008FEF5E
:1049E0009091E800815095FD06C095ED9A95F1F7FC
:1049F00000008111F5CF8091E80085FF0DC040E0F7
:104A000050E063E070E0CE0101960E94792780912A
:104A1000E8008E778093E8000F900F900F90DF9161
:104A2000CF910895CF93DF93EC010E945C278230F1
:104A300011F08430F9F482E08093E9009FEF8091D7
:104A4000E800915085FD06C085ED8A95F1F70000DC
:104A50009111F5CF8091E80085FF0CC040E050E057
:104A600066E070E0CE010E9479278091E8008E77A1
:104A70008093E800DF91CF910895CF93DF93EC010D
:104A80000E945C27823011F0843039F581E08093F8
:104A9000E9008FEF9091E800815095FD06C095EDFB
:104AA0009A95F1F700008111F5CF8091E80085FF1C
:104AB00014C040E050E068E070E0CE010E94792729
:104AC0008091E8008E778093E80088E0FE01AFE3F4
:104AD000B2E001900D928A95E1F7DF91CF910895B0
:104AE00086E39CE00E94360780915502811109C03F
:104AF0000E940E290E946B298091E20084608093BD
:104B0000E200089582E39CE00E943607109255026D
:104B100008958EE29CE00C9436078AE29CE00C94A7
:104B2000360786E29CE00E9436070C94A71B209172
:104B30003D022F5F822F62E30E94142C992319F00B
:104B400020933D02089510923D0280913E028823F9
:104B500071F180915602843041F58091E9008F70A7
:104B60002091EC00922F917020FD90E8892B93E02A
:104B70009093E9009091EB0090FF14C09091EE00AB
:104B800097FF10C09091E80095FF03C01092F100CC
:104B9000F9CF9091E80090FF05C09091E8009E77D2
:104BA0009093E8008F708093E90010923E02089580
:104BB00042E061EC81E00E94882842E261EC82E000
:104BC0000E94882842E261EC83E00C94882880915E
:104BD0005802833009F460C030F4813071F08230C3
:104BE00009F499C008958A3009F485C08B3009F41E
:104BF0006BC0893009F0A7C020C080915702813A6C
:104C000009F0A1C08091E800877F8093E80080913F
:104C10005B0290915C02892B21F468E08FE392E0C3
:104C200003C060E080E090E070E00E94C4278091C3
:104C3000E8008B778093E8000895809157028132D5
:104C400009F081C080915B0290915C02029708F0AC
:104C50007AC08091E800877F8093E8008091E80027
:104C600082FD05C0809156028111F8CF6CC0209161
:104C7000F3008091F20090E0922B029729F480914A
:104C8000F1008B7F813021F48091F1008093470205
:104C90008091E8008B7753C080915702813A09F0E8
:104CA00052C080915B0290915C02892B09F04BC04D
:104CB0008091E800877F8093E8008091E80080FF82
:104CC000FCCF8091120136C0809157028132D9F514
:104CD00080915B0290915C02892BA9F58091E8009C
:104CE000877F8093E8000E94BD28809159028093BD
:104CF00012010C94071480915702813221F58091A2
:104D0000E800877F8093E8000E94BD2880915A02C6
:104D100080934802089580915702813AA1F48091CE
:104D2000E800877F8093E8008091E80080FFFCCF57
:104D3000809148028093F1008091E8008E77809303
:104D4000E8000C94BD28089584B7877F84BF0FB610
:104D5000F894A8958091600088618093600010921B
:104D600060000FBE80E880936100109261000E9495
:104D7000720E0E940E290E946B298091E2008460CD
:104D80008093E2008EE394E20E946C1A78940E9471
:104D9000F92B0E947A0E88E091E00E94D00D85E107
:104DA0009CE00E94360780915602853089F481E1AB
:104DB0009CE00E9436070E945D1B8091540288236C
:104DC00091F30E948F1B882371F30E946327EBCF1E
:104DD0000E94AA0EE8CF0C94ED26292F332723300A
:104DE0003105C9F064F42130310581F022303105FC
:104DF00009F049C08BE590E02EE63CE048C0213246
:104E0000310521F12232310571F13DC082E190E09E
:104E100029EC3CE03CC099278130910571F02CF4DD
:104E2000892B89F5EAE6FCE00DC08230910541F05E
:104E3000039749F5EAE3FCE005C0E4E5FCE002C0C5
:104E4000E0E4FCE0849190E09F0121C063307105B3
:104E5000D0F4660F771FFB01E55CFE4F20813181A6
:104E600089E090E014C06330710568F4FB01EE0F37
:104E7000FF1FEB5CFE4F20813181FB01EE5CFE4F9A
:104E8000808190E004C080E090E020E030E0FA0112
:104E90003183208308950895CF93C82F0E944B2714
:104EA000C0934902CF91089580915602843011F049
:104EB00081E0089582E0089580914902811102C045
:104EC0000C945427089580E189BD82E189BD09B41D
:104ED00000FEFDCF8091D8008F7D8093D800809117
:104EE000E00082608093E0008091E00081FDFCCFD3
:104EF0000895CF92DF92EF92FF920F931F93CF937B
:104F0000DF93EC018B016A010E94DC28811133C020
:104F1000C114D10439F0F60180819181081B190B6D
:104F2000C80FD91FE12CF12C0115110519F1809141
:104F3000E80085FD16C08091E8008E778093E80038
:104F4000C114D10449F0F60180819181E80EF91E67
:104F5000F182E08285E00FC00E94DC28882321F3E3
:104F60000AC089918093F10001501109FFEFEF1AF7
:104F7000FF0ADACF80E0DF91CF911F910F91FF9070
:104F8000EF90DF90CF90089520915D0230915E0206
:104F90002617370748F06115710539F42091E800AC
:104FA0002E772093E80001C0B90140E0611571053A
:104FB000A9F120915602222309F443C0253009F4B7
:104FC00042C02091E80023FD40C02091E80022FD6E
:104FD00032C02091E80020FFE9CF4091F3002091FA
:104FE000F20030E0342BFC01CF016115710559F05E
:104FF0002830310540F481918093F10061507109AE
:105000002F5F3F4FF1CF41E02830310509F040E0FC
:105010002091E8002E772093E800C8CF4111C9CF36
:105020000AC080915602882361F0853061F080913A
:10503000E80083FD0AC08091E80082FFF2CF80E0A3
:10504000089582E0089583E0089581E00895209115
:105050005D0230915E022617370748F06115710531
:1050600039F42091E8002E772093E80001C0B901BF
:10507000FC0120E06115710591F1809156028823B1
:1050800009F440C0853009F43FC08091E80083FDF9
:105090003DC08091E80082FD2FC08091E80080FF34
:1050A000E9CF2091F3008091F20090E0922B6115FE
:1050B000710559F08830910540F424912093F10056
:1050C0003196615071090196F2CF21E0089709F0FD
:1050D00020E08091E8008E778093E800CBCF21110B
:1050E000CCCF0AC080915602882361F0853061F0F0
:1050F0008091E80083FD0AC08091E80082FFF2CF32
:1051000080E0089582E0089583E0089581E00895A5
:10511000982F973058F59093E900981739F07091CF
:10512000EC002091ED005091F00003C0242F762F69
:1051300050E021FF19C03091EB003E7F3093EB002F
:105140003091ED003D7F3093ED003091EB00316008
:105150003093EB007093EC002093ED005093F0003F
:105160002091EE0027FF07C09F5FD3CF8F70809301
:10517000E90081E0089580E008958091570287FF5B
:1051800011C08091E80082FD05C080915602811116
:10519000F8CF11C08091E8008B770BC08091560248
:1051A000882349F08091E80080FFF8CF8091E800E3
:1051B0008E778093E80008952091E4003091E50017
:1051C00095E64091EC00842F817040FF22C08091D1
:1051D000E80080FD1CC080915602882391F0853044
:1051E00091F08091EB0085FD10C04091E40050915A
:1051F000E5004217530729F39A01915011F784E013
:10520000089582E0089583E0089581E0089580E0A4
:1052100008954091E80042FFDECF08950E947C2966
:105220000E948429E0EEF0E0808181608083E8EDD7
:10523000F0E080818F77808319BCA7EDB0E08C917E
:105240008E7F8C9380818F7E80831092550208958B
:105250000F931F93CF93DF930E947C290E94842990
:10526000C8EDD0E088818F778883888180688883C3
:1052700088818F7D888319BC109256021092520249
:10528000109254021092530200EE10E0F801808157
:105290008B7F808388818160888342E060E080E04A
:1052A0000E948828E1EEF0E080818E7F8083E2EE2C
:1052B000F0E0808181608083808188608083F80154
:1052C00080818E7F8083888180618883DF91CF9108
:1052D0001F910F910895E8EDF0E080818F7E80832B
:1052E000E7EDF0E080818160808384E082BF81E02F
:1052F000809355020C942829E8EDF0E080818E7FA0
:1053000080831092E20008951092DA001092E1007A
:1053100008951F920F920FB60F9211242F933F936F
:105320004F935F936F937F938F939F93AF93BF93AD
:10533000EF93FF938091E10082FF0BC08091E20028
:1053400082FF07C08091E1008B7F8093E1000E9483
:1053500097258091DA0080FF1FC08091D80080FFE0
:105360001BC08091DA008E7F8093DA008091D90093
:1053700080FF0DC080E189BD82E189BD09B400FED6
:10538000FDCF81E0809356020E94702505C019BCB4
:10539000109256020E9482258091E10080FF19C080
:1053A0008091E20080FF15C08091E2008E7F8093A3
:1053B000E2008091E20080618093E2008091D80059
:1053C00080628093D80019BC85E0809356020E94C9
:1053D0008D258091E10084FF30C08091E20084FF40
:1053E0002CC080E189BD82E189BD09B400FEFDCFFA
:1053F0008091D8008F7D8093D8008091E1008F7ECE
:105400008093E1008091E2008F7E8093E2008091A2
:10541000E20081608093E20080915202882311F0C3
:1054200084E007C08091E30087FD02C081E001C0F5
:1054300083E0809356020E9491258091E10083FFD2
:1054400029C08091E20083FF25C08091E100877F21
:105450008093E10082E08093560210925202809184
:10546000E1008E7F8093E1008091E2008E7F809347
:10547000E2008091E20080618093E20042E060E01F
:1054800080E00E9488288091F00088608093F0007E
:105490000E948925FF91EF91BF91AF919F918F91CC
:1054A0007F916F915F914F913F912F910F900FBE20
:1054B0000F901F9018951F920F920FB60F92112404
:1054C0002F933F934F935F936F937F938F939F930C
:1054D000AF93BF93CF93DF93EF93FF93C091E90016
:1054E000CF708091EC00D82FD17080FDD0E8109261
:1054F000E9008091F000877F8093F00078940E940B
:105500009F2A1092E9008091F00088608093F0005B
:10551000CD2BCF70C093E900FF91EF91DF91CF9138
:10552000BF91AF919F918F917F916F915F914F91BB
:105530003F912F910F900FBE0F901F9018951F93C2
:10554000CF93DF93CDB7DEB7AA970FB6F894DEBF3F
:105550000FBECDBFE7E5F2E088E08E0F9091F1003D
:1055600091938E13FBCF0E94E7258091E80083FF83
:1055700028C18091570290915802492F50E04A303B
:10558000510508F01EC1FA01E556FF4F0C94342C6A
:10559000803821F0823809F014C108C0809153028C
:1055A00090915402992389F082600FC080915B0230
:1055B0008F70873008F005C18093E9008091EB007F
:1055C00085FB882780F91092E9009091E800977F89
:1055D0009093E8008093F1001092F100D0C0282F42
:1055E0002D7F09F0EEC0882319F0823061F0E9C008
:1055F00080915902813009F0E4C0933009F080E0D5
:10560000809354022EC08091590281112AC080914A
:105610005B028F702FEF280F263008F0D2C08093E6
:10562000E9002091EB0020FF1CC0933021F4809111
:10563000EB00806214C09091EB0090619093EB00BE
:1056400021E030E0A90102C0440F551F8A95E2F71E
:105650004093EA001092EA008091EB00886080930A
:10566000EB001092E9008091E800877F8093E800CA
:105670000E94BD28A6C08111A4C0109159021F77B5
:105680008091E3008078812B8093E3008091E80093
:10569000877F8093E8000E94BD288091E80080FF0A
:1056A000FCCF8091E30080688093E300111102C079
:1056B00082E001C083E08093560283C0805882302C
:1056C00008F07FC08091590290915A028C3D53E0BE
:1056D000950779F583E08A838AE289834FB7F89446
:1056E000DE01139620E03EE051E2E32FF0E050931C
:1056F0005700E49120FF03C0E295EF703F5FEF7029
:105700008E2F90E0EA3010F0C79601C0C0968D93BE
:105710009D932F5F243149F74FBF8091E800877F29
:105720008093E8006AE270E0CE0101960E94C427EF
:1057300015C060915B0270915C02AE014F5F5F4FDC
:105740000E94EB26BC01892BE1F19091E800977F44
:105750009093E80089819A810E9427288091E8002F
:105760008B778093E8002DC0803859F58091E80050
:10577000877F8093E800809152028093F1008091AE
:10578000E8008E7773CF81111CC09091590292303E
:10579000C0F48091E800877F8093E80090935202E4
:1057A0000E94BD2880915202811106C08091E300C1
:1057B00087FD02C081E001C084E0809356020E9410
:1057C000D8258091E80083FF0AC08091E800877F98
:1057D0008093E8008091EB0080628093EB00AA96B2
:1057E0000FB6F894DEBF0FBECDBFDF91CF911F91F2
:1057F0000895CF93809156028823A1F0C091E900CB
:10580000CF709091EC00892F817090FD80E8C82BBB
:105810001092E9008091E80083FD0E949F2ACF70DA
:10582000C093E900CF910895991B79E004C0991FB6
:10583000961708F0961B881F7A95C9F780950895EA
:1058400097FB072E16F4009407D077FD09D00E942D
:105850003A2C07FC05D03EF4909581959F4F089512
:10586000709561957F4F0895EE0FFF1F0590F4919D
:10587000E02D0994AA1BBB1B51E107C0AA1FBB1F47
:10588000A617B70710F0A61BB70B881F991F5A95CC
:10589000A9F780959095BC01CD010895F999FECFA7
:1058A00092BD81BDF89A992780B50895A8E1B0E02E
:1058B00042E050E00C94822C262FF999FECF92BD45
:1058C00081BDF89A019700B4021639F01FBA20BDC5
:1058D0000FB6F894FA9AF99A0FBE08950396272FF7
:1058E0000E945D2C0E945C2C252F0E945D2C242F91
:1058F0000C945D2C0196272F0E945D2C0C945C2C3F
:10590000DC01CB01FC01F999FECF06C0F2BDE1BD7F
:10591000F89A319600B40D9241505040B8F708956E
:04592000F894FFCF29
:1059240023022808140A321E3B243D251225DC24B8
:10593400A1240167F7F6F5F4F1F0373032339031F2
:1059440092919593969434970102030405060708EF
:105954000900408522820DFD0CDB0C800C990CB2F1
:025964000C0035
:00000001FF
