:100000000C94E2040C946B130C9429050C942905B0
:100010000C9429050C9429050C9429050C942905A8
:100020000C9429050C9429050C94892B0C945B2CB9
:100030000C940C220C9429050C9429050C94290588
:100040000C9429050C9429050C9429050C94290578
:100050000C9429050C9474220C9429050C94290500
:100060000C9429050C9429050C9429050C94290558
:100070000C9429050C9429050C9429050C94290548
:100080000C9429050C9429050C9429050C94290538
:100090000C9429050C9429050C9429050C94290528
:1000A0000C9429050C9429050C942905B306B60671
:1000B000BB06C006C306C606C906CC06CF06D206D6
:1000C000D506D80635083508350835083508350809
:1000D00035083508C417C417F617F6174318631800
:1000E000E819E819A518421953195319B419BD197B
:1000F000E819E1196A1A6A1A7C1A7C1A731A7C1AAE
:100100007C1A7C1A6A1A6A1A781A7C1A7C1A781A6B
:10011000C82CEF2CE12DEF2CE12D3B2D5E2DE12D98
:10012000B42DC32D2B0014001A0008001500170071
:10013000290004001600070009000A00E1001D0064
:100140001B000600190005000D5DE000E200E30061
:100150000B5D2C002A00130012000C0018001C007C
:10016000340033000F000E000D000B002800380093
:1001700037003600100011004F00520051005000AF
:100180000C5D2C002B0014001A00090013000A005B
:10019000290004001500160017000700E1001D00EB
:1001A0001B000600190005000D5DE000E200E30001
:1001B0000B5D2C002A0033001C0018000F000D00FE
:1001C000340012000C00080011000B002800380059
:1001D0003700360010000E004F0052005100500052
:1001E0000C5D2C002B0034003600370013001C007F
:1001F000290004001200080018000C00E100330080
:1002000014000D000E001B000D5DE000E200E30095
:100210000B5D2C002A000F00150006000A000900E3
:1002200038001600110017000B00070028001D0001
:1002300019001A00100005004F0052005100500034
:100240000C5D2C0035021E021F0220022102220238
:100250004C003A003B003C003D003E00C05C4000CA
:100260004100420043004400010001000100010080
:10027000010001002A00270226022502240223028F
:10028000310230022F022E022D023F000100010038
:100290000100640232024500AE00A900AA00AB00D2
:1002A0000100010035001E001F0020002100220077
:1002B0004C003A003B003C003D003E000100400085
:1002C0004100420043004400010001000100010020
:1002D000010001002A002700260025002400230039
:1002E000310030002F002E002D003F0001000100E2
:1002F0000100640032004500AE00A900AA00AB0076
:1003000001000100000000000000000000000000EB
:1003100000000000000000000000000000000000DD
:1003200000000000000000000000000000000000CD
:1003300000000000000000000000000000000000BD
:1003400000000000000000000000000000000000AD
:10072000000000000100005C010001000100010068
:100730000100010001001D5C1E5C135C0100010052
:1007400001000100010001000100010001000100A1
:10075000010001004C000100010001000100010046
:10076000010001000A5D095D085D0A5C01000100ED
:100770000100010001000100010001000100010071
:10078000010001000001010101010101010102025A
:10079000020202020202020303030303030303042F
:1007A00004040404040405050505050606060606FA
:1007B000070707070708080808090909090A0A0AB4
:1007C0000B0B0B0C0C0C0D0D0D0E0E0E0F0F0F1056
:1007D00010111111121213131414151516161717E0
:1007E000181819191A1A1B1B1C1D1D1E1E1F20204C
:1007F000212222232424252626272829292A2B2C96
:100800002D2D2E2F30313232333435363738393AB8
:100810003B3C3D3E3F404142434445464748494AB0
:100820004C4D4E4F50515354555658595A5B5D5E7E
:100830005F616264656668696B6C6D6F7072737519
:1008400077787A7B7D7E8082838587888A8C8E8F7D
:1008500091939596989A9C9EA0A2A3A5A7A9ABADAB
:10086000AFB1B3B5B7BABCBEC0C2C4C6C9CBCDCF99
:10087000D1D4D6D8DBDDDFE2E4E7E9EBEEF0F3F547
:10088000F8FAFDFF04033000000012034C0065007D
:10089000760069006E0073006F006E0000000E03AA
:1008A0004B0065006500620069006F0000000403F2
:1008B000090409023B00020100A0FA09040000013A
:1008C00003010100092111010001224000070581F7
:1008D0000308000A090401000103000000092111B6
:1008E0000100012285000705820320000A12011081
:1008F000010000000810CB461100030102030105AE
:10090000010902A10185020901A1000509190129B6
:100910000515002501950575018102950175038175
:10092000010501093009311581257F95027508817E
:100930000609381581257F950175088106050C0A81
:1009400038021581257F950175088106C0C0050113
:100950000980A10185031A81002A8300160100265F
:100960000300950175108100C0050C0901A10185E6
:10097000041A01002A9C02160100269C02950175AA
:10098000108100C005010906A101050719E029E74A
:1009900015002501950875018102950175088101F1
:1009A0000507190029FF150026FF00950675088127
:1009B0000005081901290595057501910295017534
:1009C000039101C011241FBECFEFDAE0DEBFCDBF1F
:1009D00004B603FE27C08091480290914902A0917D
:1009E0004A02B0914B028730904BA740B04BD1F4F4
:1009F000109248021092490210924A0210924B0241
:100A000014BE84B7877F84BF0FB6F894A8958091F1
:100A10006000886180936000109260000FBEE0E08B
:100A2000F8E3099511E0A0E0B1E0E2EBFDE502C0DA
:100A300005900D92A634B107D9F722E0A6E4B1E003
:100A400001C01D92A834B207E1F70E94AD280C94B2
:100A5000D72E0C9400000C94210BCF93DF93EC0164
:100A60000E94D420BE0180E090E0DF91CF910C94F1
:100A7000351ECF93FB018A302DE5920701F140F43A
:100A800088302DE5920769F089309D4581F03FC09F
:100A90008C302DE59207E1F0C0F08D309D4561F17D
:100AA00036C0C281CC23A1F181E090E005C0C281B3
:100AB000CC2371F182E090E00E942D0523C0C28119
:100AC000CC2331F184E090E0F7CFC28183E002C013
:100AD000C28184E0CC2341F00E94961E40E164E094
:100AE00083E00E941B060EC00E94B71E40E164E036
:100AF00083E00E941B060CC0C28180E1CC2321F060
:100B00000E94961EC0E004C00E94B71E01C0C1E052
:100B10008C2FCF91089581E008950C9439051F938F
:100B2000CF93DF9300D000D01F92CDB7DEB74983BB
:100B30005A832091820189819A81211112C06623F2
:100B400049F00E94911F182F682F89819A810E9475
:100B5000341F03C00E94641F182F69817A81812F7E
:100B600004C00E94911F69817A810F900F900F90AD
:100B70000F900F90DF91CF911F910C943F08FC01D3
:100B8000408151816281738184810C948F058F92A1
:100B90009F92AF92BF92CF92DF92EF92FF920F930C
:100BA0001F936B017C0181E090E0A0E0B0E04C017C
:100BB0005D0104C0880C991CAA1CBB1C4A95D2F785
:100BC000AC01BD0104C0440F551F661F771F2A9555
:100BD000D2F7482959296A297B2904C0880F991F0F
:100BE000AA1FBB1F0A95D2F78A019B010C211D2168
:100BF0002E213F21041715072607370739F4BC01BA
:100C0000CD016C297D298E299F290AC08095909558
:100C1000A095B095BC01CD016C217D218E219F2135
:100C20001F910F91FF90EF90DF90CF90BF90AF900A
:100C30009F908F9008950F93382F262F6091D901A0
:100C40007091DA018091DB019091DC01042F432F38
:100C50000E94C7050F910C94701E0E94C120811143
:100C600002C00E946F210E94BD110C942B050E94AE
:100C7000BC110C94230B08950C943B0681E008955D
:100C80000C943E06CF93C82F0E943C068C2F0E94E6
:100C90004006CF91089508950E945A1A0E944B066B
:100CA0002FEF84E39CE0215080409040E1F700C0AA
:100CB000000087E797E790930108809300080C9461
:100CC0009A220F931F93CF93DF938C010E94BF054D
:100CD000EC01B8010E948D05882309F4C6C1B80152
:100CE000CE010E947112882309F4BFC1F8018281EC
:100CF000882361F1CC3D8CE5D80711F190F4C11542
:100D0000FCE5DF07D1F0C1308CE5D80709F054C00D
:100D10008091EE01982F909590FB80F98093EE01E1
:100D2000A4C1CD3DECE5DE0769F0CE3DFCE5DF0773
:100D300009F042C00E946F2198C10E944C0695C1E3
:100D400080E001C082E00E944C298FC10E941120E6
:100D50008272FE01E25CFC45E431F10568F5EA5A75
:100D6000FF4F0C946F2E0E94EB0F7FC1882329F058
:100D70000E94DD0F7AC18823D9F30E94D00F75C17C
:100D80000E945B0F72C10E94680F6FC10E94770FB3
:100D90006CC10E94860F69C10E94950F66C10E94B6
:100DA000A40F63C10E946A0E60C10E947B0E5DC1E8
:100DB00081E00E94E00F59C1C6318CE5D80709F4E3
:100DC00026C130F4C230FCE5DF0708F447C106C095
:100DD000CE018A5F9C45099708F040C1F8018281E5
:100DE000882309F43BC10E94C120811102C00E94E6
:100DF0006F210E94D92090933A0280933902C0312A
:100E0000FCE5DF0709F4C3C008F041C0C830ECE5D9
:100E1000DE0709F49AC0F0F4C4308CE5D80709F471
:100E200087C068F4C230FCE5DF0709F477C0C3303F
:100E3000DC4509F0E3C080913902826076C0C6309B
:100E4000ECE5DE0709F46EC008F07BC08091390242
:100E500088606BC0CC308CE5D80709F485C068F495
:100E6000CA30FCE5DF0709F474C008F079C00E94BD
:100E70005A1A80913902806858C0CE30ECE5DE07FE
:100E800009F476C008F07FC0809139028BC0CB3F57
:100E90008CE5D80709F44FC018F5C331FCE5DF072E
:100EA00009F47DC078F4C131ECE5DE0709F473C0C4
:100EB000C231DC4509F0A2C00E945A1A8091390261
:100EC0008F7733C0C5318CE5D80709F472C008F4B8
:100ED00086C0CA3FDC4509F091C080913A023EC00D
:100EE000CF3F8CE5D80709F45FC058F4CD3FFCE54F
:100EF000DF0709F444C008F43FC080913A028260E1
:100F00002DC0C130EDE5DE0709F475C008F45DC001
:100F1000C230DD4509F072C080E06EC080913902B8
:100F2000816003C08091390280618093390266C07C
:100F30008091390211C080913A02826080933A0216
:100F40005DC0809139028062F0CF80913902806467
:100F5000ECCF8091390288608460E7CF8160EECF6A
:100F6000809139028E7FE1CF809139028D7FDDCF74
:100F700080913902877FD9CF80913A0218C0809141
:100F80003A028D7FDBCF809139028F7ECECF809168
:100F900039028F7DCACF809139028F7BC6CF809175
:100FA0003902877F8B7FC1CF80913A028D7F8E7F00
:100FB000C5CF8091390282FB222720F991E0922748
:100FC00090FB82F990FB83F9B0CF80913A02982F81
:100FD000909591708E7F892B90FB81F9AFCF0E9405
:100FE0005A1A8091390287FB222720F991E0922733
:100FF00090FB87F99ACF81E00E947121809139029C
:1010000090913A020E94EA200E945A1A2EC00E9431
:101010001120282FF8018281409121015091220155
:10102000882379F02A7A91E009F490E090934601C0
:10103000911102C069E201C065E3CA010E94A821C2
:101040000AC080914601811102C069E201C065E3D6
:10105000CA010E94AA210E945D2007C0C801DF9139
:10106000CF911F910F910C948B0580E0DF91CF9170
:101070001F910F91089580E090E00895089596E003
:10108000799FF001112490E3899FE00DF11D112457
:10109000E60FF11DEE0FFF1FEC5DFE4F8591949161
:1010A0000895880F991FFC01EC57F84F8591949192
:1010B0000895CF93DF930E943F080E944A0AEC01F3
:1010C000811521E5920708F042C0811560E5960779
:1010D00008F02FC1883E910500F5803E910508F08B
:1010E000D5C1883A910570F4853A910508F0A4C0FD
:1010F0008130910509F4CAC108F47BC1049708F056
:10110000C5C177C18F3B910508F4A1C0803C910512
:1011100008F46FC1805C9109FBC0C11580E3D8075A
:1011200080F4C11590E2D90708F0F0C0C03FD105A6
:1011300008F45FC1CF3FD10511F008F0A7C1D06519
:10114000A5C1C11520E4D20708F0F0C0E5C08115A3
:1011500069E5960760F5C11588E5D80708F035C13F
:10116000C11594E5D90778F4C11523E5D20708F035
:1011700011C1C11562E5D60708F0F6C0DC2FCC27F7
:10118000C16FD06A83C1C11585E5D80708F418C1BD
:10119000C11596E5D90708F02CC18C2F0E94DE0AF4
:1011A0008F71C82FD0E0DC2FCC27D0626FC18D3B70
:1011B0002CE5920709F414C1E0F4CB3B8CE5D80789
:1011C00009F408C108F009C1C1152AE5D20708F0E1
:1011D00010C18C2F8F700E94DE0A94E0D695C795BF
:1011E0009A95E1F7CF70D0E0DC2FCC27D069C82BDF
:1011F0004DC1803C9C4509F4F9C0C13C8CE5D80741
:1012000060F4CE3B9CE5D90709F4EDC0CF3BDC454B
:1012100009F0EFC0C0E0D2ED39C1CE019056811582
:10122000904208F0E6C08D2F8F710E94DE0ADD2704
:10123000D0628F71D82B2AC1853A910509F4DCC0A0
:10124000863A910509F0DBC0C2E8D0E41FC1883AB4
:10125000910509F4D7C0893A910509F4D6C08A3AB4
:10126000910509F4D5C08B3A910509F4D4C08C3AA4
:10127000910509F4D3C08B3B910509F4D2C08C3B96
:10128000910509F4D1C08D3A910509F4D0C0803B95
:10129000910509F4CFC08E3A910509F4CEC08F3A7A
:1012A000910509F4CDC0813B910509F4CCC0823B86
:1012B000910509F4CBC0833B910509F4CAC0843B76
:1012C000910509F4C9C0853B910509F4C8C0863B66
:1012D000910509F4C7C0873B910509F4C6C0883B56
:1012E000910509F4C5C0893B910509F4C4C08D3B43
:1012F000910509F4C3C08E3B910509F4C2C08A3B35
:10130000910509F4C1C0C0E0D4E4C0C0CE019F7013
:101310000E945108EC01BAC0CE019927D3FF03C047
:10132000EC01D86CB3C0EC01D06CB0C0DF70D06AF7
:10133000ADC0837021E030E002C0220F331F8A95D8
:10134000E2F73C68CE0174E0969587957A95E1F7CF
:101350008370382BCF70C695C69580E2C89FE00198
:101360001124C22BD32B92C04C2F4695469590E268
:10137000499FA0011124C370DD2721E030E0C9019D
:1013800002C0880F991FCA95E2F7EC01C42BD52B38
:10139000DC687CC04C2F4695469580E2489FA001B2
:1013A0001124C370DD2721E030E0C90102C0880F9D
:1013B000991FCA95E2F7EC01C42BD52BDA6866C0F9
:1013C000DC2FCC27C46FD06A61C0DC2FCC27C06F64
:1013D000D06A5CC0C0E0D4ED59C0C0E0D5ED56C0C5
:1013E000C0E0D1ED53C0C0E0D0ED50C0C0E0D3EDBF
:1013F0004DC0C0E0D0E04AC0C1E8D0E447C0C3E877
:10140000D0E444C0C2EED4E441C0C9EED4E43EC04E
:10141000CAEED4E43BC0C5EBD4E438C0C6EBD4E498
:1014200035C0C3EBD4E432C0C4EBD4E42FC0C7EB67
:10143000D4E42CC0CCECD4E429C0CDECD4E426C058
:10144000C3E8D5E423C0CAE8D5E420C0C2E9D5E4A6
:101450001DC0C4E9D5E41AC0C1E2D6E417C0C3E296
:10146000D6E414C0C4E2D6E411C0C5E2D6E40EC08E
:10147000C6E2D6E40BC0C7E2D6E408C0CFE6D4E4A7
:1014800005C0C0E7D4E402C0CAE2D6E4CE01DF91D1
:10149000CF9108958238910569F1B0F481339105B7
:1014A00009F46DC048F48932910509F463C08A32A9
:1014B000910509F469C008958533910509F455C073
:1014C00089339105B9F00895833E910569F138F4A7
:1014D000803E9105B1F0823E910509F10895863E66
:1014E0009105A9F1873E9105B9F1843E910509F076
:1014F00064C023C02091390220FD4FC021FD4DC0A2
:1015000008958091390280FD44C080913A0280FFA5
:1015100044C08091390284FD42C083EE4DC0809169
:10152000390282FF38C0F5CF8091390282FD33C085
:1015300080913A0280FD31C0ECCF80913A0281FF68
:1015400032C08091390284FD2AC087EE35C0809177
:10155000390283FF26C0F5CF8091390283FD21C077
:1015600080913A0281FD1FC0ECCF8091390285FD48
:101570001CC01DC08091390285FD19C016C0809124
:10158000390286FD16C017C08091390286FD13C04E
:1015900010C089E311C082EE0FC080EE0DC080E064
:1015A0000BC086EE09C084EE07C089E205C085E362
:1015B00003C08AE201C081E390E00895909139026E
:1015C00092FF0DC0282F2871283019F4877F84607E
:1015D00006C0282F2471243011F48B7F886093FF7C
:1015E0000DC0282F2871283119F4877E846106C028
:1015F000282F2471243111F48B7E886120913A02C6
:1016000020FF0DC0382F3871383019F4877F816082
:1016100006C0382F3171313011F48E7F886021FF80
:101620000DC0282F2871283119F4877E816106C0EA
:10163000282F2171213111F48E7E886194FD877EDF
:101640000895089508950C94220B0895E82FF0E072
:10165000E45BFE4F808108950895CF93DF93CDB76B
:10166000DEB72E970FB6F894DEBF0FBECDBF0E9437
:10167000FA0C80910E0181112AC0FE01319688E09A
:10168000DF011D928A95E9F784E9898382E38A83E1
:1016900083E38B8381E38C83A6E0B1E088E08E0F47
:1016A00091919D938E13FCCF86E0E4E3F1E0DE019F
:1016B000199601900D928A95E1F7A0E0B1E0FE0144
:1016C000399686E08E0F91919D938E13FCCF809179
:1016D0000E01811102C094E001C090E090930802D5
:1016E00084E0891B80930702A6E0B1E041E050E06E
:1016F00024E02A0F8D91E82FE295EF70F0E031A100
:101700008F70BA0102C0660F771F8A95E2F7CB018E
:10171000962F9095932391A392A1892B82A32A13AC
:10172000E9CFA0E0B1E041E050E026E02A0F8D9142
:10173000E82FE295EF70F0E031A18F70BA0102C09E
:10174000660F771F8A95E2F7CB01962F909593232A
:1017500091A392A1892B82A32A13E9CFECE4F1E0B3
:1017600088E08E0F11928E13FDCF84E00E94A00CB2
:101770002E960FB6F894DEBF0FBECDBFDF91CF918E
:101780000C942D06CF92DF92EF92FF920F931F934E
:10179000CF93DF93A6E0B1E0E8E4F1E0D12C41E0A3
:1017A00050E084E0C82ECE0ECF01F08010826C9104
:1017B000262F22952F7030E0E90119A16F70EA0100
:1017C00002C0CC0FDD1F6A95E2F7BE01612BE90173
:1017D00069A33C91632F62956F7070E0EB011AA1D1
:1017E0003F70EA0102C0CC0FDD1F3A95E2F79E017F
:1017F00020952123EB012AA3D0EADA95F1F700E046
:1018000011E020E030E0E801E9908E016E2D629554
:101810006F7070E0EB0168A170E0DE2DDF7002C038
:1018200075956795DA95E2F760FD07C0BA01022E5B
:1018300001C0660F0A94EAF702C060E070E07081B0
:10184000672B60832F5F3F4F26303105E1F67C9197
:10185000272F22952F7030E0E90119A17F70EA014E
:1018600002C0CC0FDD1F7A95E2F7BE0160956123BF
:10187000E90169A36D91262F22952F7030E0E901CF
:101880001AA16F70EA0102C0CC0FDD1F6A95E2F762
:10189000BE01612BE9016AA3319621E0EC01888148
:1018A000F81201C020E0D22ACE127ECF6091080249
:1018B00070E0645B7E4F2D2D44E088E491E00E944F
:1018C000A10C8D2DDF91CF911F910F91FF90EF9083
:1018D000DF90CF900895CF930E94C20BC82F0E9433
:1018E000DD0C882301F120910702822F90E0845BB8
:1018F0009E4F0E94380D811111C0909147019F5F4A
:1019000090934701963060F0E0910702F0E0E45BCD
:10191000FE4F108211821282138202C01092470180
:101920000E9437060AC020910802822F90E0845B53
:101930009E4F0E94610D0E94250B8C2FCF91089520
:101940000895FF920F931F93CF93DF938C01F62E90
:10195000D72FC42F222349F081E0809356010E94A3
:101960003E22909355018093540180915601882323
:10197000C1F080915401909155010E944A2206972E
:1019800080F0EF2DFD2FD8014C2F50E0CD01801BB2
:10199000910B841795071CF48D918193F7CF1092CA
:1019A0005601DF91CF911F910F91FF9008955298AA
:1019B00089B182FB882780F90895809157018111B0
:1019C00012C08091D80080618093D8008AE18A9506
:1019D000F1F700C08091D90080FD02C082E001C013
:1019E00081E08093570181E090915701913009F097
:1019F00080E008950E94D70C80930E0180910E0123
:101A000066E0882311F080E001C086E00E94150E98
:101A10000E94DD0C81110C940F0D0C94150D62E0E9
:101A200070E08FE091E00C94101362E070E08FE0C2
:101A300091E00C9419130E942B10882361F08FE51C
:101A400091E00E94311081E090E00E94FB13892B0D
:101A500011F40C942E10089580915E01883039F4B1
:101A600060E08FE591E00E94441010925E010895BD
:101A7000CF93DF93D82FC92F0E941B0D80E090E0F9
:101A80000E94FB13892BC9F4ED2FFC2F80E090E01E
:101A9000DC01A65ABE4F2C9121930196843091050A
:101AA000B9F70E94FD10882319F00E94491101C066
:101AB00080E08093590181E001C080E0DF91CF9107
:101AC0000895CF93DF9300D0CDB7DEB789839A8393
:101AD0000E942C0D8981E82F9A81F92F80E090E0F7
:101AE0002191DC01A65ABE4F2C93019684309105BA
:101AF000B9F7809159010F900F90DF91CF910C941D
:101B00006011AF92BF92CF92DF92FF920F931F931B
:101B1000CF93DF93D62E372FE82FF0E0711106C058
:101B2000EC57F84F6491762F862F75C0C72FD0E001
:101B3000EC57F84F2491F22E022F10E046E0649FFC
:101B4000C0011124EFEFF0E0BF010E94252EAB0190
:101B50006BEA6403C001659F900D11248D0D911DEA
:101B60008D0D911D982F990F890FDF01AC1BBD0BB7
:101B70000A9FB0010B9F700D1A9F700D1124972FB3
:101B8000839FD0011124AB2FBB276F01CA1ADB0A38
:101B90000C9DD0010D9DB00D1C9DB00D11245F0159
:101BA000A81AB108AC9E6001AD9ED00CBC9ED00CB2
:101BB0001124CD2DDD27EC1BFD0B0E9FE0010F9FA7
:101BC000D00D1E9FD00D1124ED2F4230510591F004
:101BD0004CF441155105E1F041305105B9F4E22FC3
:101BE0002B2F16C04430510569F044F046305105A2
:101BF00079F00CC0E22F272F9D2F0AC0272F9F2D91
:101C0000EB2F06C0E72F922F2D2F02C0E72F9B2F1F
:101C10006E2F722F892FDF91CF911F910F91FF901F
:101C2000DF90CF90BF90AF9008958093680160934C
:101C300020010895CF93DF93762FE901682F842F39
:101C40000E94810D798368838A83DF91CF91089503
:101C500080910902982F9695913021F081708260D1
:101C600080930902089588E090E00C94972ECF931A
:101C7000DF9300D000D0CDB7DEB7AB01BC01498304
:101C80005A836B837C830E94280E49815A816B8121
:101C90007C8188E090E00F900F900F900F90DF9183
:101CA000CF910C94B52EE9E0F2E083E080831182BD
:101CB0008FEF828383831482AAE6B1E012968C911F
:101CC0001297836012968C936081718182819381D7
:101CD0000C94370E80910D02833018F48F5F80933F
:101CE0000D026091090270910A0280910B0290919D
:101CF0000C020C94370E80910D02882319F081504C
:101D000080930D026091090270910A0280910B028A
:101D100090910C020C94370E6091200170E080913C
:101D2000090280FF0AC08091680123E0829FC00100
:101D30001124825F9D4F0C94011280916701909154
:101D40001F01891780F7E82FF0E09F01220F331F52
:101D5000E20FF31FE25FFD4F1182108212828F5F4C
:101D6000F0CFE9E0F2E080818E7F80836081718135
:101D7000828193810E94370EEAE6F1E082818160E0
:101D800082832FEF80E792E0215080409040E1F77E
:101D900000C000000C948C0EE9E0F2E080818E7FA0
:101DA0008083EAE6F1E08281816082832FEF80E721
:101DB00092E0215080409040E1F700C000000C9478
:101DC0008C0E9091090290FF16C0909167012091AE
:101DD0001F01921770F4E92FF0E0DF01AA0FBB1F7B
:101DE000EA0FFB1FE25FFD4F8183608342839F5FA9
:101DF000F0CF0C948C0E0895EF92FF920F931F93E7
:101E0000CF93DF9300D01F92CDB7DEB79091090238
:101E100090FF3DC0E22E142F062FF82EE92FE695F5
:101E2000F0E0E65CFE4F808180936A019E7F9230F5
:101E300059F49E012F5F3F4F8F2D0E941A0E4B8148
:101E400069818A810E94E10E80910A028F1108C087
:101E500080910B02801304C080910C02811729F03D
:101E600080916C01826080936C01F0920A02009371
:101E70000B0210930C02EE2051F060910902709158
:101E80000A0280910B0290910C020E94370E0F9073
:101E90000F900F90DF91CF911F910F91FF90EF90D6
:101EA0000895E9E0F2E09181282F4381628188E082
:101EB000890F0C94FC0E81E00C94510FE9E0F2E0E4
:101EC0009181282F4381628188EF890F0C94FC0E49
:101ED00081E00C945E0FE9E0F2E0628121E1620FA3
:101EE00008F46FEF282F438181810C94FC0E81E070
:101EF0000C946B0FE9E0F2E0628121E1621B08F4CF
:101F000060E0282F438181810C94FC0E81E00C94C9
:101F10007A0FE9E0F2E0438121E1420F08F44FEF4C
:101F2000282F628181810C94FC0E81E00C94890F32
:101F3000E9E0F2E0438121E1421B08F440E0282F70
:101F4000628181810C94FC0E81E00C94980F20E05A
:101F50000C94FC0E8091090280FF1DC0817082608C
:101F60008093090280916C01816080936C016623EB
:101F700051F06091090270910A0280910B029091D8
:101F80000C020E94370E40910C0260910B0280916E
:101F90000A020C94A70F0895682F81E00C94AA0FF1
:101FA00081E00C94CC0F682F9091090296958FEFE9
:101FB000890F09F481E00C94AA0F81E00C94D30FEF
:101FC00061E00C94AA0FE9E0F2E0808181608083F7
:101FD00086950C94E00F8091090280FD0C94B10E5F
:101FE0000C94E30F60E00C94AA0F809169018111B9
:101FF00031C00E94C120811104C00E946F210E9443
:10200000530E0E94330E6093090270930A0280936C
:102010000B0290930C0280916C01836080936C01A1
:102020006E7F61F40E94530E0E94330E609309028A
:1020300070930A0280930B0290930C020E94280E68
:102040008091090280FF03C086950E94F20F81E013
:1020500080936901089580916C01089510926C013C
:10206000089525E0E9E0F2E0DC0101900D922A9567
:10207000E1F720916A0130916B0140916C01FC0104
:1020800025833683478308951F93CF93DF93EC0115
:10209000162F8F8180FF0FC0888180FF0AC080913A
:1020A0000902816080930902888186950E94AA0FA7
:1020B00002C00E94CC0E8F8181FF09C0212F4B816D
:1020C0006A818981DF91CF911F910C94FC0EDF9181
:1020D000CF911F9108950E94C120811102C00E94DA
:1020E0006F210E94F72080933202282F2695269593
:1020F000269530E02830310524F08770886380937E
:1021000032028091320280FF04C0869586958695C2
:1021100001C080E00C94601120913202822F8695DC
:1021200086958695482F50E04730510554F48F5FCF
:10213000982F990F990F990F822F8770892B809371
:102140003202809132028160809332020E94FB2031
:10215000809132028695869586950C9460118091C7
:102160003202982F969596959695A1F0915E990FCB
:10217000990F990F8770892B80933202887F91E0A5
:1021800009F490E08091320290FB80F98093320252
:102190000E94FB20809132028695869586950C944C
:1021A00060118091320280FD13C081608093320201
:1021B000813019F489E080933202809132020E94CA
:1021C000FB20809132028695869586950C9460114D
:1021D00008958091320280FF08C08E7F8093320282
:1021E0000E94FB2080E00C946011089580913202DF
:1021F00080FD0C94E9100C94D11080913202817012
:10220000089590913202892F8695869586958F5FE5
:102210008F719770883038F4880F880F880F892B5A
:102220008093320202C09093320280913202887F02
:1022300091E009F490E08091320290FB80F9809364
:1022400032020E94FB208091320286958695869507
:102250000C946011883008F087E0880F880F880F91
:10226000909132029770892B80933202887F91E09F
:1022700009F490E08091320290FB80F98093320261
:102280000E94FB20809132028695869586950C945B
:102290006011809132028695869586950895E82F83
:1022A000E295EF70F0E032A1282F2F7081E090E0EE
:1022B00001C0880F2A95EAF78095832382A30895A9
:1022C000CF92DF92EF92FF92883030F4811105C0F7
:1022D000909180009F7D04C087E090918000906283
:1022E00090938000282F30E0AFEFBFEF0E94752E53
:1022F00027E030E040E050E00E944D2E2C3784E192
:1023000038074105510530F4C90169E070E00E94C9
:10231000252E29C0DA01C9018A50974DAF4FBF4F12
:102320006627782F892F9A2F25EF38E241E050E079
:102330000E944D2E69017A01CA01B9010E94152E31
:102340009B01AC01C701B6010E94152EBB27A92F26
:10235000982F872F009721E0A207B10511F0BC014B
:1023600002C06FEF7FEF70938B0060938A00FF9045
:10237000EF90DF90CF9008950895269A86E30E940B
:102380004F1182E28093800089E1809381008FEF7A
:102390009FEF90938700809386000C946B102BB175
:1023A000342F309523233BB1432B3FB7F894FC01E6
:1023B000680F791FE617F70789F0819198E04BB90C
:1023C000000000C087FF2BB9880F000000C000C0CC
:1023D00000C02BB900C09A9591F7ECCF3FBF08958C
:1023E0002AB1242B2AB99B01220F331F620F731FBE
:1023F0000E94CF1187EC90E00197F1F700C0000038
:10240000089540E80C94F0110F931F93CF93DF933E
:10241000C62FD42F022FFC0182818823C9F060933C
:102420006F010E943E2290936E0180936D0180E2C5
:102430008C0F883008F050C0C77081E001C0880F51
:10244000CA95EAF7DF91CF911F910F910C948417F1
:1024500010916F01161330C080916D0190916E0143
:102460000E944A22883C910538F5C0E2CD0F1D1725
:10247000B9F080E2810F883040F4177081E001C02C
:10248000880F1A95EAF70E948B17C83048F481E04C
:102490009D2F977001C0880F9A95EAF70E948417C4
:1024A000802F0E947117C830B8F4D77081E001C046
:1024B000880FDA95EAF70AC080E28C0F883060F462
:1024C000C77081E001C0880FCA95EAF7DF91CF910C
:1024D0001F910F910C948B17DF91CF911F910F914A
:1024E00008959C01CB01233F4CE53407F9F078F4C3
:1024F000283DFCE53F07B9F0293D4CE5340711F1D3
:10250000273D3C4531F526E241EE61EE1EC0253FF8
:10251000FCE53F0799F070F0263F3C45D1F427E2F7
:1025200045EE66EE12C027E245EE0EC026E241EE11
:1025300060EE0BC027E245EE64EE07C026E241EEF6
:1025400062EE03C028E241E065EE0E94041280E0E2
:102550000895FC018281882319F010926F0108957B
:1025600081E008958EE1489B02C08150E1F7489BCD
:10257000FECF0895589880E28A95F1F7589A089509
:10258000FC013AE03A95F1F720E090E080E031E09C
:10259000961779F040E14A95F1F7880F489B02C001
:1025A0008160232700C0000040E14A95F1F79F5F5A
:1025B000EFCF90E19A95F1F799B100C0000030E1BA
:1025C0003A95F1F7917092272081920F90830895A8
:1025D000EF92FF920F931F93CF93DF931F92CDB78C
:1025E000DEB7F62E1982E82E8C01802F8E198F15FA
:1025F00058F40E94B21268E0CE0101960E94C01207
:10260000F80181938F01F1CF81E09981911180E0F0
:102610000F90DF91CF911F910F91FF90EF90089550
:10262000909372018093710160937001509A589A4F
:102630000895909372018093710160937001509896
:10264000589AE89AE9E6F0E080818C7F80830895CB
:10265000615091E001C0990F6A95EAF720E031E0FE
:10266000992361F0492F482319F0589A232701C074
:10267000589840E24A95F1F79695F2CF222311F04F
:10268000589A01C0589880E28A95F1F758980895B1
:10269000EF92FF920F931F93CF93DF931F92CDB7CB
:1026A000DEB7162F082F7C018E2D801B811758F462
:1026B000F70181917F0189830E94BA1268E08981C4
:1026C0000E942813F1CF0F90DF91CF911F910F91AE
:1026D000FF90EF9008951F920F920FB60F92112462
:1026E0000F931F932F933F934F935F936F937F931A
:1026F0008F939F93AF93BF93EF93FF93CF93DF930A
:102700001F92CDB7DEB719820E94B21267E0CE01E8
:1027100001960E94C012382F369536953695932F24
:1027200096959570232F2570920F292F23709695DB
:1027300096958770920F891348C08981811145C091
:1027400080917001831708F440C080E18A95F1F709
:10275000589A509AA2E0AA95F1F700C00091710131
:1027600010917201B8E03B9F000D111D1124589883
:10277000F8016581662321F0868197810E944813C4
:102780000E94BA12F0E1FA95F1F758985098589AC9
:1027900080E18A95F1F7D80112966C911297662321
:1027A00069F013968D919C9114970E94E812D801BC
:1027B000ED91FC91811105C082E004C0D801ED913A
:1027C000FC9188E080830E94B2120F90DF91CF913C
:1027D000FF91EF91BF91AF919F918F917F916F91F9
:1027E0005F914F913F912F911F910F910F900FBECD
:1027F0000F901F9018950F931F93CF93DF93209105
:10280000700130E0281739070CF471C09C0193E087
:10281000220F331F9A95E1F7C0917101D091720197
:10282000C20FD31FF894509A589845E04A95F1F793
:102830000000982F969595708570890F982F93704A
:1028400086958695890F8901082B0E94BA1284E02B
:102850008A95F1F700C067E0802F0E94281340E1BD
:102860004A95F1F75098589A489902C000C0FCCF99
:1028700087E090E0489B0EC0019751F4509A589A17
:10288000E881F98181E08083789481E090E031C033
:1028900000C0F0CF6D81662381F08E819F810E9400
:1028A000E81281110AC0509A589AE881F98182E0B1
:1028B0008083789482E090E01CC00E94B21280E293
:1028C0008A95F1F75898509A40E14A95F1F76A8154
:1028D000662321F08B819C810E9448130E94BA12CA
:1028E000E881F9811082789480E090E002C084E071
:1028F00090E0DF91CF911F910F910895909378010F
:10290000809377010895E0917701F09178013097F5
:1029100021F00190F081E02D099480E00895E0918C
:102920007701F0917801309721F00280F381E02D5A
:1029300009940895E0917701F0917801309739F08A
:1029400022E0DC012C930480F581E02D09940895A8
:1029500020917501309176018217930771F0909361
:10296000760180937501E0917701F09178013097BD
:1029700021F00680F781E02D0994089520917301DC
:10298000309174018217930771F0909374018093D2
:102990007301E0917701F0917801309721F0008484
:1029A000F185E02D0994089585B7806885BF85B7C6
:1029B000806885BF0895089508950C94DC140895E7
:1029C0000C94DF140E94D4140E94DB140C94DD14C8
:1029D0000E9435220E942D0B0E94AB220E946B1098
:1029E0000E94F50F0C94E014CF92DF92EF92FF92C9
:1029F0000F931F93CF93DF93CDB7DEB72B970FB60F
:102A0000F894DEBF0FBECDBF0E946B0C0E94DD0CA0
:102A1000811111C08FEF89838A831B820E943E221D
:102A20008160782F9D838C8349815A816B818D8150
:102A30000E949C1556C08AE7C82E81E0D82E00E07F
:102A400010E0E02E802F0E94260BF60141916F01CD
:102A5000F42EF82631F40F5F1F4F0830110589F767
:102A6000D9CF9091EE0191FF04C08B870E942C0B6F
:102A70008B8520E030E04F2D50E0922FBA01022EDE
:102A800002C0759567950A94E2F760FF24C02E8313
:102A9000EF8221E030E0690102C0CC0CDD1C9A9588
:102AA000E2F790E08C219D21892B09F420E0288712
:102AB0000E943E228160782F9A8789874E815F81AC
:102AC00068858A850E949C15F801E658FE4F808132
:102AD000C826C08206C02F5F3F4F2630310569F6F9
:102AE000BACF0E943D24109179010E9483141817D7
:102AF000A1F00E948314809379012B960FB6F8946D
:102B0000DEBF0FBECDBFDF91CF911F910F91FF9020
:102B1000EF90DF90CF900C9442062B960FB6F8946E
:102B2000DEBF0FBECDBFDF91CF911F910F91FF9000
:102B3000EF90DF90CF900895CF93DF93CDB7DEB7BE
:102B40002B970FB6F894DEBF0FBECDBF4F835887CB
:102B500069877A878B87DE01119686E0FD011192E5
:102B60008A95E9F785E0FE01379601900D928A95E6
:102B7000E1F749815A816B817C818D819E810E9420
:102B8000041D2B960FB6F894DEBF0FBECDBFDF91AC
:102B9000CF910895FC01808191810E94D21F0895F8
:102BA000CF93DF931F92CDB7DEB7882309F42DC1F1
:102BB000682F8238C1F40E94831481FD26C169E325
:102BC00080912101909122010E94A8210E945D2004
:102BD0002FEF81EE94E0215080409040E1F700C05B
:102BE000000069E319C0833811F50E94831480FD49
:102BF0000CC163E580912101909122010E94A821DE
:102C00000E945D202FEF81EE94E0215080409040A3
:102C1000E1F700C0000063E580912101909122015D
:102C20000E94AA210F90DF91CF910C945D208438EF
:102C3000C1F40E94831482FDE8C067E48091210101
:102C4000909122010E94A8210E945D202FEF81EE29
:102C500094E0215080409040E1F700C0000067E41C
:102C6000DBCF8CEF860F813A70F4862F69830E9448
:102C70006E2669818111C9C0809121019091220144
:102C80000E94A821CFCF80E2860F883048F4677079
:102C900081E001C0880F6A95EAF70E941420C2CF34
:102CA0008BE5860F833088F4653A29F0663A31F077
:102CB00083E890E005C081E890E002C082E890E0FF
:102CC0000F90DF91CF910C94A81488E5860F87317F
:102CD00008F091C0683A09F445C0693A09F445C062
:102CE0006A3A09F445C06B3A09F445C06C3A09F4F4
:102CF00045C06B3B09F445C06C3B09F445C06D3AD7
:102D000009F445C0603B09F445C06E3A09F445C07A
:102D10006F3A09F445C0613B09F445C0623B09F4D0
:102D200045C0633B09F445C0643B09F445C0653BBD
:102D300009F445C0663B09F445C0673B09F445C04A
:102D4000683B09F445C0693B09F445C06D3B09F493
:102D500045C06E3B09F445C06A3B09F445C080E0BC
:102D600090E044C082EE90E041C089EE90E03EC029
:102D70008AEE90E03BC085EB90E038C086EB90E0B7
:102D800035C083EB90E032C084EB90E02FC087EB3E
:102D900090E02CC08CEC90E029C08DEC90E026C037
:102DA00083E891E023C08AE891E020C082E991E0C5
:102DB0001DC084E991E01AC081E292E017C083E26D
:102DC00092E014C084E292E011C085E292E00EC06D
:102DD00086E292E00BC087E292E008C08FE690E0C6
:102DE00005C080E790E002C08AE292E00F90DF9198
:102DF000CF910C94BE14603F40F0862F0E94452373
:102E00000F90DF91CF910C9432240F90DF91CF91EE
:102E10000895882309F464C0823879F40E948314E9
:102E200081FF5EC069E380912101909122010E949F
:102E3000A8210E945D2069E310C08338B1F40E948C
:102E4000831480FF4DC063E58091210190912201A0
:102E50000E94A8210E945D2063E58091210190914C
:102E600022010E94AA210C945D20843879F40E94EA
:102E7000831482FF35C067E4809121019091220183
:102E80000E94A8210E945D2067E4E7CF9CEF980F85
:102E9000913A10F4682FE1CF90E2980F983050F4F7
:102EA000877091E001C0990F8A95EAF7892F0E94F7
:102EB0001A20D9CF9BE5980F933020F480E090E062
:102EC0000C94A81498E5980F973120F480E090E0D6
:102ED0000C94BE14803F20F00E94AD230C94322449
:102EE0000895CF93C82F0E94D015C93349F42FEF0E
:102EF00087EE93E0215080409040E1F700C0000051
:102F00008C2FCF910C940917882321F00E94142054
:102F10000C945D200895882321F00E941A200C94BF
:102F20005D200895BF92CF92DF92EF92FF920F93B0
:102F30001F93CF93DF937C01062FC72FFC011581D0
:102F400012951F70D281D1110E9431200E940A2057
:102F5000882379F0DD2369F080E2800F883048F023
:102F600082E00E94A8200E940A2091E0B82EB92693
:102F700001C0B12CCC2EC2948FE0C822D12CF60116
:102F8000E659FF4F0C946F2E8C2F807FCF708823D3
:102F900011F0C295C07FDD2399F0CC2309F4CFC195
:102FA00080E2800F883010F0011104C08C2F0E9445
:102FB000142003C08C2F0E9424200E945D20BFC1DA
:102FC000802F0E940917CC2309F402C280E2800FEF
:102FD000883010F0011104C08C2F0E941A2003C009
:102FE0008C2F0E942A200E945D20F2C18C2F807FAE
:102FF000CF70803211F0C295C07F002319F00130EC
:10300000C9F022C0DD2371F0112341F0113031F4F9
:103010000E9444208C2B0E944A20DAC10E94442046
:103020008C2B1DC0112319F0113009F4D1C10E945D
:10303000532025C0DD2321F0163008F0C9C10EC091
:10304000153008F0C5C11BC0DD2361F0112331F03C
:10305000F701858180FF73C18F7085838C2F0E945B
:103060008417B6C1112359F0093309F079C1FFEF74
:1030700027EE83E0F15020408040E1F76FC18C2FB4
:103080000E948B17A5C18C2F86958695837090E042
:10309000009719F0019761F09BC1DD2321F0802F8B
:1030A0009C2F937002C080E090E00E94A8149BC106
:1030B000DD2321F0802F9C2F937002C080E090E0F0
:1030C0000E94BE1490C1DD23F9F0053F51F0063F88
:1030D00071F0043FA9F48091330290913402816031
:1030E0000BC08091330290913402826005C08091C0
:1030F00033029091340284609093340280933302BF
:10310000802F0E9445231EC0053F51F0063F71F0FD
:10311000043FA9F480913302909134028E7F0BC05A
:1031200080913302909134028D7F05C080913302EB
:10313000909134028B7F9093340280933302802FDE
:103140000E94AD230E9432244EC18C2F837009F05F
:1031500049C0D11144C1402F429546954770440F54
:10316000440F602F6F70862F90E0A0E0B0E0042E37
:1031700004C0880F991FAA1FBB1F0A94D2F704FF2F
:1031800010C00FE010E020E030E004C0000F111F7D
:10319000221F331F4A95D2F7009510952095309540
:1031A00003C000E010E09801C695C695C370D0E05A
:1031B000BC01CD01602B712B822B932BC230D1052A
:1031C00059F0C330D10559F0219719F00E94491EDA
:1031D00006C10E94371E03C10E945B1E00C10E94EF
:1031E000351EFDC0DD2319F08C2F817001C086953E
:1031F000882309F4F4C0402F429546954770440F48
:10320000440F602F6F70862F90E0A0E0B0E0042E96
:1032100004C0880F991FAA1FBB1F0A94D2F704FF8E
:1032200010C00FE010E020E030E004C0000F111FDC
:10323000221F331F4A95D2F700951095209530959F
:1032400003C000E010E09801C695C695C370D0E0B9
:10325000BC01CD01602B712B822B932BC230D10589
:1032600059F0C330D10559F0219719F00E940F1F72
:10327000B6C00E94FD1EB3C00E94211FB0C00E94B4
:10328000701EADC0CF70DD2339F08C2F0E94961ECA
:10329000802F0E948417A3C0802F0E948B178C2F31
:1032A0000E94B71E9CC0023F01F128F4003F41F08C
:1032B000013FA1F040C0033FF9F0043F39F13BC0AA
:1032C000DD2341F0153008F083C08C2F8F710E94F0
:1032D000DC1E7EC0163008F07BC0F7CFDD2339F04E
:1032E0008C2F8F710E94961E73C0DD23C9F38C2F23
:1032F0008F710E94B71E6CC0DD2329F08C2F8F7157
:103300000E94811E65C00E947C1E62C0DD2349F0C0
:10331000CF718C2F0E94961E63E08C2F0E94932009
:1033200057C081E00E94A820123008F451C082E00A
:103330000E94A8204DC0DD2331F0112389F2802F97
:103340000E94D01545C0112391F2093349F49FEF33
:10335000E7EEF3E09150E040F040E1F700C00000FC
:10336000802F0E94091734C04C2F4F70602FC70167
:103370000E943B080E94A81D36C0D11134C0CF70F6
:10338000D0E0C230D10599F03CF4209769F0219744
:10339000F9F40E94AF1027C0C430D10571F054F089
:1033A0002597B1F480E00AC00E948C101CC00E94D6
:1033B000F61019C00E94011116C087E00E942A1160
:1033C00012C04C2F4F70602FC7010E943E080BC0E7
:1033D00028E0C21AD10884E0C816D10420F40E9463
:1033E00083140E944206BB20D1F00E94062080FD7B
:1033F00016C0F70112820E9400200E94961EC7018B
:103400000E94191A0E940020DF91CF911F910F9105
:10341000FF90EF90DF90CF90BF900C94B71EDF919C
:10342000CF911F910F91FF90EF90DF90CF90BF90C1
:1034300008950F931F93CF93DF93EC0188819981B7
:103440002B813C81232BB9F09F3F11F48F3F99F0E2
:10345000CE010E946106882371F0688179818A819A
:103460000E94DD1F8C010E94331F0E94341EB80190
:10347000CE010E949217DF91CF911F910F91089575
:103480000E9431200E9441200E945D200E94D82489
:103490000E94322480E090E00E94A81480E090E036
:1034A0000C94BE1480912101909122010E94AC21C4
:1034B0000C94401A0E9421200C94521AE92FE29594
:1034C000EF70F0E03297EE30F105B0F4E658FF4FC0
:1034D0000C946F2E803F91F018F4883E68F40EC073
:1034E000843F51F40BC0883E48F0813F29F406C068
:1034F00093FB882780F9089580E0089581E008957E
:103500000E94D21F0E945E1A0895CF93DF9300D0CD
:1035100000D01F92CDB7DEB70F900F900F900F9095
:103520000F90DF91CF910895CF93DF9300D000D01B
:1035300000D0CDB7DEB726960FB6F894DEBF0FBE2B
:10354000CDBFDF91CF9108951F93CF93DF93C091AB
:10355000830116E080918401C81799F0D0E01C9F88
:10356000F0011D9FF00D1124EB57FE4F408151815A
:1035700062817381848195810E94941A2196C7701B
:10358000E9CFDF91CF911F9108954091B5015091FE
:10359000B6016091B7017091B8018091B901909125
:1035A000BA010C94941A8091BA0182958F7009F037
:1035B00054C08091B701882309F44FC080918301E2
:1035C000A09184016091B5017091B6014091B8015C
:1035D0005091B901B6E08A1709F43FC090E0411557
:1035E0005105C1F17F3F11F46F3FA1F1B89FF00188
:1035F000B99FF00D1124EB57FE4F218172132AC0A1
:103600002081621327C02281211124C023813481AB
:103610002417350710F421503109241B350B283CA1
:103620003105C0F42091BA012F7020612093BA01B6
:1036300026E0289FF001299FF00D1124E657FE4F48
:1036400080818F708061808385EB91E00E94191AE0
:103650000C94A41A01968770BECF0895CF92DF9282
:10366000EF92FF920F931F93CF93DF93CDB7DEB707
:1036700062970FB6F894DEBF0FBECDBF8C0185E018
:10368000F801DE011D9601900D928A95E1F7D801AF
:103690004C9111965C91119712966C91129713961A
:1036A000CD90DC9014973091B5017091B601809166
:1036B000B8019091B901009709F46BC17F3F19F4EB
:1036C0003F3F09F466C1E090B701EE2009F4C0C0A5
:1036D0002091BA01C816D90628F0F601E81BF90BAB
:1036E000CF0104C0809590958C0D9D1DFF24F3940F
:1036F000883C910578F0F12C207F09F0C6C07C2D24
:10370000D98AC88A89890E94851A85EB91E00E942E
:10371000191AB1C0822F807F09F046C0751314C0FA
:10372000341312C0611110C02F7020612093BA01B0
:103730000E94C51A85EB91E00E94191A8091BA0186
:10374000D80115968C932EC0CD2819F15F3F11F446
:103750004F3FF9F0F62E61111CC08091830120913A
:10376000840136E0821709F45AC090E0389FF001D6
:10377000399FF00D1124EB57FE4F7181571306C08E
:103780007081471303C07281711103C00196877065
:10379000E9CFF62E662309F427C18091BA01816032
:1037A0008093BA01F12C20C1751308C0341306C0F0
:1037B000611104C08091BA01D801C3C04D875E87F2
:1037C0008D859E856A8B0E94801A6A898823E1F123
:1037D0006623D1F12091BA01822F82958F7090E0FB
:1037E000029774F08091B5019091B60198878F830C
:1037F0001986DB86CA862C87CE0107960E94191A85
:1038000086E0F801A5EBB1E001900D928A95E1F711
:103810000E94D31A0E94C51AFF24F394E5C04D8775
:103820005E878D859E850E94D21F292F22952F703D
:1038300030E0223031050CF0CBC09F7009F0C5C0DC
:10384000805E883008F4D0C0C8010E94191AE4CF05
:10385000C816D90608F453C0F601E81BF90BCF01CE
:10386000883C910508F450C0F12C7C2DD98AC88A77
:1038700089890E94851AE5EBF1E086E0DF011D925F
:103880008A95E9F70E94C51AAFC0751314C03413A6
:1038900012C0611110C08091BA01F8018583C8017E
:1038A0000E94191A86E0E5EBF1E0DF011D928A958E
:1038B000E9F7FE2C99C04D875E878D859E856A8BC2
:1038C0000E94801A6A89882309F4BECF662309F40E
:1038D000BBCF2091BA01822F82958F7090E0029722
:1038E0000CF48ECF8091B5019091B6019A838983B3
:1038F0001B82DD82CC822E83CE0101967FCF809504
:1039000090958C0D9D1DACCFF62E662309F49CCFAF
:1039100075132EC034132CC02091BA0120FD1FC096
:10392000822F82958F70D9F0D80115962C93159718
:103930008F3049F08F5F982F9295907F822F8F70F4
:10394000892B15968C93C8010E94191A86E0F801FC
:10395000A5EBB1E001900D928A95E1F793CF86E057
:10396000F801A5EBB1E001900D928A95E1F73CC01A
:103970004D875E878D859E850E94801A811140CF7C
:103980008091BA0181608093BA01C8010E94191A1E
:103990002BC0662309F458CF4D875E878D859E85A1
:1039A0000E94801AF82E882309F44ECF86E0F80191
:1039B000A5EBB1E001900D928A95E1F785EB91E0DE
:1039C0000E94CA150E94D31A5DCF811139CF0CC055
:1039D000243031050CF038CF9F7009F431CFF80155
:1039E0009581907F09F02CCF8F2D62960FB6F894B9
:1039F000DEBF0FBECDBFDF91CF911F910F91FF9022
:103A0000EF90DF90CF9008951F93CF93DF93CDB7C2
:103A1000DEB72C970FB6F894DEBF0FBECDBF4F8335
:103A2000588769877A878B879C87CE0107960E9483
:103A30002E1B882369F08F8198852A853B85232B4F
:103A4000F1F19F3F09F063C08F3F09F060C037C0BC
:103A500086E0FE013796DE01119601900D928A955F
:103A6000E1F76F817885EA85FB85309741F17F3FEB
:103A700011F46F3F21F12091840130E0C9010196DA
:103A8000877099274091830150E08417950709F4C6
:103A900047C069837A83FD83EC8396E0929FD001CF
:103AA000939FB00D1124AB57BE4FFE01319601908C
:103AB0000D929A95E1F7809384010E94A41A16E072
:103AC00080918301909184018917C1F1189FC001F1
:103AD00011248B579E4F0E942E1B882379F1E09171
:103AE00083011E9FF0011124EB57FE4F408151814D
:103AF00062817381848195810E94941A80918301EF
:103B000090E001968770992780938301D9CF4F81E8
:103B1000588569857A858B859C850E94941ACFCFBC
:103B20000E945A1A1092840110928301E5EBF1E091
:103B300086E0DF011D928A95E9F7C1CF2C960FB67A
:103B4000F894DEBF0FBECDBFDF91CF911F910895D6
:103B5000EF92FF920F931F93CF93DF938C01892BEA
:103B600009F46CC0F12CEE24E394E8012196F801ED
:103B70008491843740F4843008F051C0813081F062
:103B8000823019F15BC0853709F444C0A8F19CE785
:103B9000980F903708F052C08F770E94091741C0E4
:103BA0000E5F1F4FFE01C49180E28C0F883048F4F5
:103BB000C7708E2D01C0880FCA95EAF70E94342085
:103BC00014C08C2F0E94D0152DC00E5F1F4FFE0118
:103BD000C49180E28C0F883058F4C7708E2D01C0DC
:103BE000880FCA95EAF70E943A200E945D201AC009
:103BF0008C2F0E94091716C00E5F1F4FFE01C49143
:103C0000CC2381F08FE99FE00197F1F700C000001D
:103C1000C150F6CF0E5F1F4FFE01F49003C00E940B
:103C2000D0158E018F2D882309F49FCFEFE9FFE097
:103C30003197F1F700C000008150F5CFDF91CF91AF
:103C40001F910F91FF90EF90089508950C94251EF9
:103C50000E94261E6093DD017093DE018093DF01D8
:103C60009093E0010C94401A08950C94281E0F9331
:103C70001F930091DD011091DE012091DF01309151
:103C8000E001602B712B822B932B1F910F910C94D1
:103C9000281E0F931F930091DD011091DE012091EA
:103CA000DF013091E00160237123822393231F9170
:103CB0000F910C94281E0F931F930091DD0110911A
:103CC000DE012091DF013091E0016027712782271A
:103CD00093271F910F910C94281E08950C946D1E2C
:103CE0000E946E1E6093D9017093DA018093DB010C
:103CF0009093DC010C94401A60E070E0CB010C94CE
:103D0000701E0F931F9341E050E060E070E08A0165
:103D10009B0104C0000F111F221F331F8A95D2F789
:103D2000C901B8011F910F910C94701E0F931F933E
:103D300041E050E060E070E004C0440F551F661F92
:103D4000771F8A95D2F78091D9019091DA01A091DD
:103D5000DB01B091DC018A019B01082B192B2A2B76
:103D60003B2BC901B8011F910F910C94701E0F934A
:103D70001F9341E050E060E070E004C0440F551F25
:103D8000661F771F8A95D2F740955095609570957C
:103D90008091D9019091DA01A091DB01B091DC0111
:103DA0008A019B01082319232A233B23C901B80157
:103DB0001F910F910C94701E0F931F9341E050E0E0
:103DC00060E070E004C0440F551F661F771F8A959E
:103DD000D2F78091D9019091DA01A091DB01B091E5
:103DE000DC018A019B01082719272A273B27C901E3
:103DF000B8011F910F910C94701E0F931F930091A7
:103E0000D9011091DA012091DB013091DC01602BA6
:103E1000712B822B932B1F910F910C94701E0F937B
:103E20001F930091D9011091DA012091DB013091AB
:103E3000DC0160237123822393231F910F910C9443
:103E4000701E0F931F930091D9011091DA012091F8
:103E5000DB013091DC0160277127822793271F91B6
:103E60000F910C94701E0895292F220F920F990F15
:103E7000890FA82FA695A695A695877051E001C039
:103E8000550F8A95EAF785E0A89FD001112420E01C
:103E900030E070E0F901EA0FFB1FE554FE4F40816E
:103EA000CB01022E02C0969587950A94E2F78170A5
:103EB0009927819584278523842780832F5F3F4F0F
:103EC0002530310539F70895292F220F920F990FC8
:103ED000890F682F669566956695982F977085E08F
:103EE000689FB001112440E050E080E0FA01E60F45
:103EF000F71FE554FE4F208130E0092E02C03695B1
:103F000027950A94E2F721703327042E01C0220F6F
:103F10000A94EAF7822B4F5F5F4F4530510531F726
:103F20000895BF92CF92DF92EF92FF920F931F936B
:103F3000CF93DF938C01C090DD01D090DE01E09043
:103F4000DF01F090E0018091D9019091DA01A09118
:103F5000DB01B091DC01C82AD92AEA2AFB2ACFE189
:103F6000D0E0D701C6010C2E04C0B695A795979551
:103F700087950A94D2F780FF07C0BC2EB8018C2F1A
:103F80000E945908019719F4219758F7B12C8B2DED
:103F9000DF91CF911F910F91FF90EF90DF90CF9025
:103FA000BF900895CF93DF93EC010E94911FBE0153
:103FB0000E945908DF91CF9108951F93CF93DF930B
:103FC000EB0190918201992321F0CB010E94D21F35
:103FD00013C0882349F0CB010E94911F182F682F2E
:103FE000CE010E94341F04C0CB010E94641F182F11
:103FF000BE01812F0E945908DF91CF911F91089532
:104000008091E10185958595859508958091E101DF
:10401000877008959091E101977081E009F480E044
:1040200008958091ED0108959091ED01892B809381
:10403000ED01089580959091ED0189238093ED0124
:1040400008951092ED0108959091EC01892B8093D1
:10405000EC01089580959091EC0189238093EC0107
:1040600008951092EC0108959091EB01892B8093B3
:10407000EB01089580959091EB0189238093EB01EA
:1040800008951092EB0108958091E201089508953A
:104090000C9447209091E201981721F08093E2015F
:1040A0000C94482008958091E201882329F0109211
:1040B000E20180E00C9448200895E0912101F09104
:1040C00022018091ED018083E0912101F091220194
:1040D00090818091EC01892B8083E0912101F09106
:1040E000220190818091EB01892B80838091E201F4
:1040F000882381F0E0912101F09122019081892BA8
:10410000808380912101909122010E94762181116A
:104110000E94532080912101909122010C948F14D0
:1041200008950C94902098E0899F90011124262BEB
:104130002093E1010E94961E8091E101859585956D
:1041400085950C9491201092E10180E00C949120CF
:104150002091E101809582238093E101982F97704F
:1041600079F430E0482F082E000C550B2417350742
:1041700039F08595859585950E94B71E0C94A320EE
:10418000089580E090E00E949D2E21E08C3E9E4F9D
:1041900009F020E0822F089582E090E00C948F2EA9
:1041A00083E090E00C948F2E682F83E090E00C94D5
:1041B000A32ECF9384E090E00E948F2EC82F81E23F
:1041C00090E00E948F2E2C2F30E0A901582BCA01BD
:1041D000CF910895CF93C92F682F84E090E00E947B
:1041E000A32E6C2F81E290E0CF910C94A32E86E059
:1041F00090E00C948F2E682F86E090E00C94A32E14
:10420000AB01BC018FE090E00C94B52EAB01BC017A
:1042100083E190E00C94B52E60E070E0CB010C944B
:10422000062160E070E0CB010E9400210C940C217B
:104230006CEE7EEF80E090E00E94C12E60E082E0B4
:1042400090E00E94A32E60E083E090E00E94A32E05
:104250001092DD011092DE011092DF011092E00158
:1042600060E084E090E00E94A32E60E081E290E0B4
:104270000E94A32E60E085E090E00E94A32E60E003
:1042800086E090E00E94A32E6FEF87E090E00E940E
:10429000A32E40E050E0BA0188E090E00E94B52EE5
:1042A00060E08DE090E00E94A32E40E050E0BA0173
:1042B00088E190E00E94B52E60E087E190E00E94E6
:1042C000A32E40E050E0BA018CE190E00E94B52EB0
:1042D00060E080E290E00E94A32E0C9411210C94E7
:1042E0001821682F8EE090E00C94A32EFC013296EA
:1042F00097E080E0915029F021912223D9F38F5F3C
:10430000F9CF08959C01FC0132969FEF80E0419126
:10431000461789F09F3F19F4411101C0982F8F5F14
:104320008630A9F79F3F39F0F901E90FF11D97FD9C
:10433000FA95628308950895FC01329608962081CB
:10434000261301C010823196E817F907C1F70895C6
:104350000C9482210C949C21029626E0FC0111927F
:104360002A95E9F7089508950C94B3210E94B42189
:1043700080913F02843061F11092EF0120E488E1E6
:1043800090E00FB6F894A895809360000FBE20933C
:10439000600080E00E94601180E00E9442060E945E
:1043A000B42183B7817F846083BF83B7816083BF7B
:1043B0007894889583B78E7F83BF0FB6F894A895BD
:1043C00080916000886180936000109260000FBE51
:1043D000089508950895CF930E94E9210E946B0CDF
:1043E0000E94EA21C0E08C2F0E94260B811104C09C
:1043F000CF5FC830C1F701C081E0CF910895089523
:104400000C94FF210E945A1A0E946B100E94831480
:104410000E9442060C9400221F920F920FB60F9238
:1044200011248F939F93AF93BF938091EF018111DC
:1044300013C08091350290913602A0913702B0915D
:1044400038024196A11DB11D80933502909336022A
:10445000A0933702B0933802BF91AF919F918F9193
:104460000F900FBE0F901F90189582E084BD93E0CF
:1044700095BD9AEF97BD80936E0008952FB7F8947D
:104480008091350290913602A0913702B0913802A6
:104490002FBF0895CF92DF92EF92FF920F931F9359
:1044A0002FB7F8944091350250913602609137024F
:1044B000709138022FBF6A017B01EE24FF248C012A
:1044C00020E030E0C016D106E206F30610F44150B9
:1044D00051099A01281B390BC9011F910F91FF90B7
:1044E000EF90DF90CF90089578941F920F920FB6BF
:1044F0000F9211248F939F93AF93BF9380913502B6
:1045000090913602A0913702B09138020196A11D18
:10451000B11D8093350290933602A0933702B09379
:104520003802BF91AF919F918F910F900FBE0F9066
:104530001F90189587E797E79093010880930008EC
:104540009AE088E10FB6F894A895809360000FBEBA
:1045500090936000FFCF0E94C120811102C00E9491
:104560006F210E94CC208093EE010E94D92090936D
:104570003A02809339020E94D020682F70E080E0D8
:1045800090E00C94351E8091F30180FF0BC0609188
:10459000260185E0689FB001112475956795759592
:1045A00067952BC081FF09C06091260185E0689F57
:1045B000B00111247595679520C082FF07C06091F6
:1045C000260185E0689FB001112417C09091F20187
:1045D0009923D1F060912501961788F72091260143
:1045E00085E0289F90011124929FA001939F500D78
:1045F000112470E0CA010E94392E6038710540F420
:104600006115710539F002C065E070E0862F0895EC
:104610008FE7089581E008958091F30180FF08C03D
:104620006091240170E0759567957595679521C037
:1046300081FF06C06091240170E07595679519C0EF
:1046400082FF04C06091240170E010C09091F201DB
:104650009923C1F0609123019617A0F7809124015E
:10466000899FC001112470E00E94392E60387105C5
:1046700028F46115710521F0862F08958FE70895BC
:1046800081E0089561E070E0F4CF803F21F40E9462
:10469000C322819504C0813F29F40E94C3228093E4
:1046A000F7010895823F21F40E94C322819504C03E
:1046B000833F29F40E94C3228093F6010895893F25
:1046C00019F40E940C2305C08A3F31F40E940C2388
:1046D00081958093F80108958B3F21F40E940C236B
:1046E000819504C08C3F29F40E940C238093F9012A
:1046F0000895843F21F48091F501816017C0853FC2
:1047000021F48091F501826011C0863F21F48091EF
:10471000F50184600BC0873F21F48091F50188602A
:1047200005C0883F31F48091F50180618093F501E7
:1047300008958D3F21F48091F30181600BC08E3F7D
:1047400021F48091F301826005C08F3F29F48091AC
:10475000F30184608093F3010895803F39F48091E0
:10476000F70187FF6CC01092F70169C0813F29F4FF
:104770008091F7011816BCF362C09091F601823F58
:1047800029F497FF5CC01092F60159C0833F19F4D9
:104790001916CCF354C0893F41F48091F8011816E2
:1047A0000CF04DC01092F8014AC08A3F29F4809164
:1047B000F80187FF44C0F6CF8B3F39F48091F901AF
:1047C00087FF3DC01092F9013AC08C3F29F48091D7
:1047D000F9011816BCF333C0843F21F48091F50130
:1047E0008E7F17C0853F21F48091F5018D7F11C028
:1047F000863F21F48091F5018B7F0BC0873F21F428
:104800008091F501877F05C0883F31F48091F501E3
:104810008F7E8093F50113C08D3F21F48091F301C9
:104820008E7F0BC08E3F21F48091F3018D7F05C0F8
:104830008F3F29F48091F3018B7F8093F301809166
:10484000F60181110EC08091F70181110AC080919B
:10485000F801811106C08091F901811102C0109206
:10486000F201089584EF91E00E949A140E943E2282
:104870009093F1018093F00108951F93CF93DF93FC
:104880008091F0019091F1010E944A22AC01909137
:10489000F201992321F02091270130E006C02091F8
:1048A00028018AE0289F900111244217530708F439
:1048B0007BC08091F601C091F701D091F801109171
:1048C000F901811107C0C1116BC0D11169C011116B
:1048D00067C06AC09F3F19F09F5F9093F20118165E
:1048E00024F40E94C3228093F6018091F60187FF91
:1048F00005C00E94C32281958093F6011C1624F402
:104900000E94C3228093F7018091F70187FF05C0C1
:104910000E94C32281958093F7013091F6013323E1
:10492000E1F02091F7012223C1F045EB3403C001EF
:104930001124892F990F990B009709F481E0809336
:10494000F60135EB2303C0011124892F990F990B30
:10495000009709F481E08093F7011D1624F40E946A
:104960000C238093F8018091F80187FF05C00E9415
:104970000C2381958093F801111624F40E940C23D6
:104980008093F9018091F90187FF05C00E940C23F3
:1049900081958093F901DF91CF911F910C9432247E
:1049A0009F3F09F099CFA1CFDF91CF911F9108953B
:1049B000E4EFF1E086E0DF011D928A95E9F71092BD
:1049C000F2011092F3010895833081F128F48130CF
:1049D00059F08230D1F00895853009F449C0B8F11A
:1049E000863009F456C0089580912801262F30E0C2
:1049F000280F311D2F3F310524F4680F60932801E3
:104A000008958FEF80932801089580912701262F24
:104A100030E0280F311D2F3F310524F4680F6093DB
:104A2000270108958FEF8093270108958091260133
:104A3000262F30E0280F311D2F3F310524F4680F59
:104A40006093260108958FEF809326010895809149
:104A50002501262F30E0280F311D2F3F310524F48A
:104A6000680F6093250108958FEF809325010895C5
:104A700080912401262F30E0280F311D2F3F310572
:104A800024F4680F6093240108958FEF809324012C
:104A9000089580912301262F30E0280F311D2F3FEC
:104AA000310524F4680F6093230108958FEF8093FC
:104AB00023010895833011F128F4813049F08230C8
:104AC00091F00895853081F120F18630C1F108958B
:104AD00080912801681720F4861B8093280108958F
:104AE00010922801089580912701681720F4861BF1
:104AF000809327010895109227010895809126013F
:104B0000681720F4861B80932601089510922601D1
:104B1000089580912501681720F4861B8093250154
:104B2000089510922501089580912401681720F4BA
:104B3000861B80932401089510922401089580918A
:104B40002301681720F4861B809323010895109297
:104B5000230108950F931F938B3109F474C058F506
:104B60008B3009F4A1C078F4863009F446C020F4F3
:104B7000853009F44CC09FC0873009F456C0883096
:104B800009F492C098C0803109F470C068F48E3086
:104B900009F091C08091EE0182FB222720F991E07B
:104BA000922790FB82F958C0863109F47DC0893183
:104BB00009F47AC080C08A32E9F060F4873209F4DF
:104BC00075C028F48E3108F476C08D515AC08932F0
:104BD000F1F071C0833450F48A3308F051C085334A
:104BE00009F464C0883309F45FC065C0833409F4F4
:104BF0005DC061C00E946F2157C08091EE01817F2E
:104C00008E7F8093EE0181E08093FB0155C00E946E
:104C10005A1A0FEF13ED20E3015010402040E1F746
:104C200000C000000E949A223FC08091EE01982FA0
:104C30009095917090FB80F98093EE01911134C0B2
:104C4000897F877F10C08091EE0181FB222720F9A8
:104C500091E0922790FB81F98093EE01992321F155
:104C60008091EE0181608093EE011EC08091EE0183
:104C700083FB222720F991E0922790FB83F9ECCF68
:104C8000895341E050E060E070E08A019B0104C07C
:104C9000000F111F221F331F8A95D2F7C901B801D7
:104CA0000E94351E0E945A1A81E006C061E070E041
:104CB00080E090E0F5CF80E01F910F91089580E0B3
:104CC000089580E008958E518A3030F4E82FF0E0A6
:104CD000E45CFE4F8081089580E00895CF93C82F53
:104CE0008091FB01813051F018F0823099F17DC044
:104CF0000E941120823209F07AC004C00E94112063
:104D0000823261F48C2F0E945F26811104C08C2FA7
:104D10000E94AA251DC081E090E01AC08C2F0E943D
:104D20006126811114C0C43179F048F4CB3079F098
:104D3000C03109F060C082E08093FB0108C0C93235
:104D400019F0C83321F057C01092FB0154C081E024
:104D5000817053C0C93289F118F5C43171F1B0F4D2
:104D6000C73009F046C08EE18093280182E380932A
:104D700027018AE08093260184E18093250188E061
:104D80008093240188E28093230133C082EE8C0F4C
:104D9000863078F58C2F0E9463268093FA0129C013
:104DA000CE34E9F020F4CB3421F56AE013C0C135EC
:104DB00079F0C235F1F461E00DC08091FA018823E9
:104DC00019F01092FA0115C081E08093FB0115C023
:104DD00061E006C08091FA010E94E4240AC06AE002
:104DE0008091FA010E945A2504C01092FB0180E0D4
:104DF00004C081E002C080E0ABCFCF9108958091E4
:104E0000040208950F931F93CF93DF9300D01F9256
:104E1000CDB7DEB78C010E945C29823011F084305E
:104E200021F584E089831B830A8382E08093E90073
:104E30008FEF9091E800815095FD06C095ED9A9511
:104E4000F1F700008111F5CF8091E80085FF0DC0DA
:104E500040E050E063E070E0CE0101960E947929C5
:104E60008091E8008E778093E8000F900F900F906C
:104E7000DF91CF911F910F910895CF93DF9300D0D1
:104E80001F92CDB7DEB720913F02243031F523E0E9
:104E90002983805891099B838A8382E08093E9006B
:104EA0008FEF9091E800815095FD06C095ED9A95A1
:104EB000F1F700008111F5CF8091E80085FF0DC06A
:104EC00040E050E063E070E0CE0101960E94792955
:104ED0008091E8008E778093E8000F900F900F90FC
:104EE000DF91CF910895CF93DF93EC010E945C296D
:104EF000823011F08430F9F482E08093E9009FEF72
:104F00008091E800915085FD06C085ED8A95F1F706
:104F100000009111F5CF8091E80085FF0CC040E0C2
:104F200050E066E070E0CE010E9479298091E800AF
:104F30008E778093E800DF91CF910895CF93DF9330
:104F4000EC010E945C29823011F0843039F581E057
:104F50008093E9008FEF9091E800815095FD06C0A5
:104F600095ED9A95F1F700008111F5CF8091E80059
:104F700085FF14C040E050E068E070E0CE010E9480
:104F800079298091E8008E778093E80088E0FE011F
:104F9000ACEFB1E001900D928A95E1F7DF91CF91EE
:104FA000089580913E02811109C00E940E2B0E943B
:104FB0006B2B8091E20084608093E2000895109250
:104FC0003E020895089508950C94022242E061EC97
:104FD00081E00E94882A42E261EC82E00C94882AF7
:104FE00080914102833009F460C030F4813071F067
:104FF000823009F499C008958A3009F485C08B3055
:1050000009F46BC0893009F0A7C020C0809140022C
:10501000813A09F0A1C08091E800877F8093E80081
:105020008091440290914502892B21F468E08CEF35
:1050300091E003C060E080E090E070E00E94C4294D
:105040008091E8008B778093E8000895809140027A
:10505000813209F081C0809144029091450202970B
:1050600008F07AC08091E800877F8093E800809103
:10507000E80082FD05C080913F028111F8CF6CC02D
:105080002091F3008091F20090E0922B029729F496
:105090008091F1008B7F813021F48091F100809329
:1050A00004028091E8008B7753C080914002813ADE
:1050B00009F052C08091440290914502892B09F079
:1050C0004BC08091E800877F8093E8008091E800E2
:1050D00080FFFCCF8091330136C080914002813245
:1050E000D9F58091440290914502892BA9F58091D0
:1050F000E800877F8093E8000E94BD2A80914202E9
:10510000809333010C945A1A80914002813221F528
:105110008091E800877F8093E8000E94BD2A8091FB
:10512000430280930502089580914002813AA1F4E0
:105130008091E800877F8093E8008091E80080FFFD
:10514000FCCF809105028093F1008091E8008E777A
:105150008093E8000C94BD2A089584B7877F84BFAC
:105160000FB6F894A89580916000886180936000E4
:10517000109260000FBE80E8809361001092610081
:105180000E94E2140E940E2B0E946B2B8091E20081
:1051900084608093E20078940E94FA2D0E94E814C3
:1051A00089E291E00E947E1480913F02853069F48B
:1051B0000E94B62180913D028823B1F30E94EB2129
:1051C000882391F30E946329EFCF0E94F414ECCF5F
:1051D0000C94EA28292F332723303105C9F064F4D1
:1051E0002130310581F02230310509F04CC08BE3CC
:1051F00090E022EB38E04BC02132310521F1223220
:10520000310589F140C082E190E02DEE38E03FC0E9
:1052100099278130910571F02CF4892BA1F5EEEAE4
:10522000F8E00DC08230910541F0039761F5E4E8A4
:10523000F8E005C0EEE9F8E002C0EAE8F8E08491A1
:1052400090E09F0124C06115710541F06130710546
:10525000D1F489E090E02DED38E019C089E090E0CC
:1052600024EC38E014C06115710541F0613071051E
:1052700051F485E890E02FEF38E009C080E490E039
:1052800024E839E004C080E090E020E030E0FA015A
:105290003183208308950895CF93C82F0E944B290E
:1052A000C0930602CF91089580913F02843011F09F
:1052B00081E0089582E0089580910602811102C084
:1052C0000C945429089580E189BD82E189BD09B417
:1052D00000FEFDCF8091D8008F7D8093D800809113
:1052E000E00082608093E0008091E00081FDFCCFCF
:1052F0000895CF92DF92EF92FF920F931F93CF9377
:10530000DF93EC018B016A010E94DC2A811133C01A
:10531000C114D10439F0F60180819181081B190B69
:10532000C80FD91FE12CF12C0115110519F180913D
:10533000E80085FD16C08091E8008E778093E80034
:10534000C114D10449F0F60180819181E80EF91E63
:10535000F182E08285E00FC00E94DC2A882321F3DD
:105360000AC089918093F10001501109FFEFEF1AF3
:10537000FF0ADACF80E0DF91CF911F910F91FF906C
:10538000EF90DF90CF900895209146023091470230
:105390002617370748F06115710539F42091E800A8
:1053A0002E772093E80001C0B90140E06115710536
:1053B000A9F120913F02222309F443C0253009F4CA
:1053C00042C02091E80023FD40C02091E80022FD6A
:1053D00032C02091E80020FFE9CF4091F3002091F6
:1053E000F20030E0342BFC01CF016115710559F05A
:1053F0002830310540F481918093F10061507109AA
:105400002F5F3F4FF1CF41E02830310509F040E0F8
:105410002091E8002E772093E800C8CF4111C9CF32
:105420000AC080913F02882361F0853061F080914D
:10543000E80083FD0AC08091E80082FFF2CF80E09F
:10544000089582E0089583E0089581E00895209111
:105450004602309147022617370748F0611571055B
:1054600039F42091E8002E772093E80001C0B901BB
:10547000FC0120E06115710591F180913F028823C4
:1054800009F440C0853009F43FC08091E80083FDF5
:105490003DC08091E80082FD2FC08091E80080FF30
:1054A000E9CF2091F3008091F20090E0922B6115FA
:1054B000710559F08830910540F424912093F10052
:1054C0003196615071090196F2CF21E0089709F0F9
:1054D00020E08091E8008E778093E800CBCF211107
:1054E000CCCF0AC080913F02882361F0853061F003
:1054F0008091E80083FD0AC08091E80082FFF2CF2E
:1055000080E0089582E0089583E0089581E00895A1
:10551000982F973058F59093E900981739F07091CB
:10552000EC002091ED005091F00003C0242F762F65
:1055300050E021FF19C03091EB003E7F3093EB002B
:105540003091ED003D7F3093ED003091EB00316004
:105550003093EB007093EC002093ED005093F0003B
:105560002091EE0027FF07C09F5FD3CF8F708093FD
:10557000E90081E0089580E008958091400287FF6E
:1055800011C08091E80082FD05C080913F02811129
:10559000F8CF11C08091E8008B770BC080913F025B
:1055A000882349F08091E80080FFF8CF8091E800DF
:1055B0008E778093E80008952091E4003091E50013
:1055C00095E64091EC00842F817040FF22C08091CD
:1055D000E80080FD1CC080913F02882391F0853057
:1055E00091F08091EB0085FD10C04091E400509156
:1055F000E5004217530729F39A01915011F784E00F
:10560000089582E0089583E0089581E0089580E0A0
:1056100008954091E80042FFDECF08950E947C2B60
:105620000E94842BE0EEF0E0808181608083E8EDD1
:10563000F0E080818F77808319BCA7EDB0E08C917A
:105640008E7F8C9380818F7E808310923E0208959E
:105650000F931F93CF93DF930E947C2B0E94842B88
:10566000C8EDD0E088818F778883888180688883BF
:1056700088818F7D888319BC10923F0210923B0273
:1056800010923D0210923C0200EE10E0F801808181
:105690008B7F808388818160888342E060E080E046
:1056A0000E94882AE1EEF0E080818E7F8083E2EE26
:1056B000F0E0808181608083808188608083F80150
:1056C00080818E7F8083888180618883DF91CF9104
:1056D0001F910F910895E8EDF0E080818F7E808327
:1056E000E7EDF0E080818160808384E082BF81E02B
:1056F00080933E020C94282BE8EDF0E080818E7FB1
:1057000080831092E20008951092DA001092E10076
:1057100008951F920F920FB60F9211242F933F936B
:105720004F935F936F937F938F939F93AF93BF93A9
:10573000EF93FF938091E10082FF0BC08091E20024
:1057400082FF07C08091E1008B7F8093E1000E947F
:10575000F92D8091DA0080FF1FC08091D80080FF72
:105760001BC08091DA008E7F8093DA008091D9008F
:1057700080FF0DC080E189BD82E189BD09B400FED2
:10578000FDCF81E080933F020E94D12705C019BC64
:1057900010923F020E94DF278091E10080FF19C034
:1057A0008091E20080FF15C08091E2008E7F80939F
:1057B000E2008091E20080618093E2008091D80055
:1057C00080628093D80019BC85E080933F020E94DC
:1057D000E3278091E10084FF30C08091E20084FFE4
:1057E0002CC080E189BD82E189BD09B400FEFDCFF6
:1057F0008091D8008F7D8093D8008091E1008F7ECA
:105800008093E1008091E2008F7E8093E20080919E
:10581000E20081608093E20080913B02882311F0D6
:1058200084E007C08091E30087FD02C081E001C0F1
:1058300083E080933F020E94E4278091E10083FF90
:1058400029C08091E20083FF25C08091E100877F1D
:105850008093E10082E080933F0210923B028091AE
:10586000E1008E7F8093E1008091E2008E7F809343
:10587000E2008091E20080618093E20042E060E01B
:1058800080E00E94882A8091F00088608093F00078
:105890000E94E227FF91EF91BF91AF919F918F916D
:1058A0007F916F915F914F913F912F910F900FBE1C
:1058B0000F901F9018951F920F920FB60F92112400
:1058C0002F933F934F935F936F937F938F939F9308
:1058D000AF93BF93CF93DF93EF93FF93C091E90012
:1058E000CF708091EC00D82FD17080FDD0E810925D
:1058F000E9008091F000877F8093F00078940E9407
:105900009F2C1092E9008091F00088608093F00055
:10591000CD2BCF70C093E900FF91EF91DF91CF9134
:10592000BF91AF919F918F917F916F915F914F91B7
:105930003F912F910F900FBE0F901F9018951F93BE
:10594000CF93DF93CDB7DEB7AA970FB6F894DEBF3B
:105950000FBECDBFE0E4F2E088E08E0F9091F10041
:1059600091938E13FBCF0E94F0278091E80083FF74
:1059700028C18091400290914102492F50E04A3065
:10598000510508F01EC1FA01E857FF4F0C946F2E25
:10599000803821F0823809F014C108C080913C029F
:1059A00090913D02992389F082600FC0809144025A
:1059B0008F70873008F005C18093E9008091EB007B
:1059C00085FB882780F91092E9009091E800977F85
:1059D0009093E8008093F1001092F100D0C0282F3E
:1059E0002D7F09F0EEC0882319F0823061F0E9C004
:1059F00080914202813009F0E4C0933009F080E0E8
:105A000080933D022EC08091420281112AC0809174
:105A100044028F702FEF280F263008F0D2C08093F9
:105A2000E9002091EB0020FF1CC0933021F480910D
:105A3000EB00806214C09091EB0090619093EB00BA
:105A400021E030E0A90102C0440F551F8A95E2F71A
:105A50004093EA001092EA008091EB008860809306
:105A6000EB001092E9008091E800877F8093E800C6
:105A70000E94BD2AA6C08111A4C0109142021F77C6
:105A80008091E3008078812B8093E3008091E8008F
:105A9000877F8093E8000E94BD2A8091E80080FF04
:105AA000FCCF8091E30080688093E300111102C075
:105AB00082E001C083E080933F0283C0805882303F
:105AC00008F07FC080914202909143028C3D53E0E8
:105AD000950779F583E08A838AE289834FB7F89442
:105AE000DE01139620E03EE051E2E32FF0E0509318
:105AF0005700E49120FF03C0E295EF703F5FEF7025
:105B00008E2F90E0EA3010F0C79601C0C0968D93BA
:105B10009D932F5F243149F74FBF8091E800877F25
:105B20008093E8006AE270E0CE0101960E94C429E9
:105B300015C06091440270914502AE014F5F5F4F06
:105B40000E94E828BC01892BE1F19091E800977F41
:105B50009093E80089819A810E94272A8091E80029
:105B60008B778093E8002DC0803859F58091E8004C
:105B7000877F8093E80080913B028093F1008091C1
:105B8000E8008E7773CF81111CC090914202923051
:105B9000C0F48091E800877F8093E80090933B02F7
:105BA0000E94BD2A80913B02811106C08091E300D2
:105BB00087FD02C081E001C084E080933F020E9423
:105BC000E6278091E80083FF0AC08091E800877F84
:105BD0008093E8008091EB0080628093EB00AA96AE
:105BE0000FB6F894DEBF0FBECDBFDF91CF911F91EE
:105BF00008950895CF9380913F028823A1F0C0912A
:105C0000E900CF709091EC00892F817090FD80E8C1
:105C1000C82B1092E9008091E80083FD0E949F2C20
:105C2000CF70C093E900CF910895DB018F939F93CC
:105C30000E94842EBF91AF91A29F800D911DA39FC2
:105C4000900DB29F900D11240895AA1BBB1B51E12A
:105C500007C0AA1FBB1FA617B70710F0A61BB70BDC
:105C6000881F991F5A95A9F780959095BC01CD0181
:105C7000089597FB072E16F4009407D077FD09D0FE
:105C80000E94252E07FC05D03EF4909581959F4FEC
:105C90000895709561957F4F0895A1E21A2EAA1B71
:105CA000BB1BFD010DC0AA1FBB1FEE1FFF1FA217CC
:105CB000B307E407F50720F0A21BB30BE40BF50BC9
:105CC000661F771F881F991F1A9469F76095709552
:105CD000809590959B01AC01BD01CF010895EE0F19
:105CE000FF1F0590F491E02D0994A29FB001B39F8E
:105CF000C001A39F700D811D1124911DB29F700DD5
:105D0000811D1124911D08950E94752EA59F900D4F
:105D1000B49F900DA49F800D911D11240895F999B1
:105D2000FECF92BD81BDF89A992780B50895A6E16E
:105D3000B0E044E050E00C94C92EA8E1B0E042E0AD
:105D400050E00C94C92E262FF999FECF92BD81BD4B
:105D5000F89A019700B4021639F01FBA20BD0FB6A9
:105D6000F894FA9AF99A0FBE08950396272F0E9485
:105D7000A42E0E94A32E252F0E94A42E242F0C9423
:105D8000A42E0196272F0E94A42E0C94A32EDC0192
:105D9000CB01FC01F999FECF06C0F2BDE1BDF89A36
:105DA000319600B40D9241505040B8F70895F894E0
:025DB000FFCF23
:105DB20093F4F731333294C63435000000000158B1
:105DC20001015901045A015E01085F010000000C43
:105DD2000CE3012808140A321EFF269E2773273D72
:105DE20027022701F4F7933534C6000101020304A8
:065DF20005060708090088
:00000001FF
