:100000000C9490080C94D4080C949D090C94D4087A
:100010000C94D4080C94D4080C94D4080C94D408F0
:100020000C94D4080C94D4080C9427230C94D40872
:100030000C94D4080C94D4080C94D4080C94D408D0
:100040000C94D4080C94D4080C94D4080C94D408C0
:100050000C94D408EC0DEE0DF90DF00DF20DF40D2D
:10006000F60DF80DFB0DFD0DFF0D0A0E010E030E32
:10007000050E070E090E0C0E3C193C196E196E196F
:10008000AC19CC193C1B3C1B0E1A3C1BBB1ABB1AEF
:100090002C1B3C1B3C1B351BC81AC81AC81AC81A93
:1000A000C81AC81AC81AC81AC81AC81AC81AC81A40
:1000B000C81AC81AC81AC81AD91AE71AEE1AF51AAD
:1000C000FF1ACB1BCB1BDD1BDD1BD41BDD1BDD1B7C
:1000D000DD1BCB1BCB1BD91BDD1BDD1BD91BE000A4
:1000E000E300E20000000000000062000000630086
:1000F0005800E700015100004A000000E1001D0027
:100100001B0006001900050059005A005B0058004A
:100110003800E50000004600000039000400160029
:10012000070009000A005C005D005E005700330014
:100130003400000028004C002B0014001A000800B6
:10014000150017005F0060006100570013002F00CA
:1001500030003100000035001E001F00200021008B
:100160002200530054005500560027002D002E0099
:1001700000002A00290000003A003B003C003D003E
:1001800000000000000000000000420043004400A6
:1001900045003E0023001C000B0011002C00500005
:1001A000510052004F003F00240018000D001000C5
:1001B0004100260012000F003700E6004D0000004D
:1001C0004B004E00400025000C000E0036000100E0
:1001D000010001000000000000000100000001001B
:1001E0000100010001000000A90000000100010061
:1001F0000100BD5CBF5CBE5C0100010001000100AC
:10020000010001000000A8000000BF5C0100010027
:1002100001000100010001000100010001000100D6
:10022000010000000100AA000100C25C0100C35CE3
:10023000C55CC65C01000100010001000100010075
:1002400001000100000001000100010001000100A7
:100250000100010001000100010001000100010096
:1002600000000100005C000001000100010001002D
:10027000000000000000000000000100010001007B
:10028000010001000100C75C010001000100010044
:1002900001000100010001000100C85C0100010033
:1002A00001000100CA5C0100010001000100000022
:1002B0000100010001000100C95C0100010044458A
:1002C0004255473A20656E61626C65642E0A00549F
:1002D000494D4552332064697361626C65642E0A2E
:1002E0000054494D45523320656E61626C65642E41
:1002F0000A007267626C69676874207365742068AD
:100300007376205B4E4F454550524F4D5D3A202548
:10031000752C25752C25750A007267626C696768F3
:10032000742073657420687376205B454550524F86
:100330004D5D3A2025752C25752C25750A007267B0
:10034000626C69676874207261696E626F7720738E
:100350006574206873763A2025752C25752C2564E4
:100360002C25750A007267626C696768742064697D
:100370007361626C65205B454550524F4D5D3A207C
:100380007267626C696768745F636F6E6669672E17
:10039000656E61626C65203D2025750A007267629A
:1003A0006C6967687420656E61626C65205B4545A9
:1003B00050524F4D5D3A207267626C696768745F96
:1003C000636F6E6669672E656E61626C65203D20A5
:1003D00025750A007267626C6967687420746F67BC
:1003E000676C65205B454550524F4D5D3A20726702
:1003F000626C696768745F636F6E6669672E656EAD
:1004000061626C65203D2025750A007267626C6927
:10041000676874206D6F6465205B4E4F4545505290
:100420004F4D5D3A2025750A007267626C696768F6
:1004300074206D6F6465205B454550524F4D5D3AA9
:100440002025750A007267626C696768745F696E5F
:100450006974207267626C696768745F636F6E6647
:1004600069672E6D6F6465203D20302E20577269BC
:1004700074652064656661756C742076616C756561
:100480007320746F20454550524F4D2E0A007267FD
:10049000626C696768745F696E6974206565636F13
:1004A0006E666967206973206E6F7420656E616285
:1004B0006C65642E0A007267626C696768745F69B4
:1004C0006E6974207374617274210A007267626CC1
:1004D000696768745F696E69742063616C6C6564D8
:1004E0002E0A007267626C696768745F636F6E667C
:1004F00069672E7370656564203D2025640A00726B
:1005000067626C696768745F636F6E6669672E7691
:10051000616C203D2025640A007267626C6967681F
:10052000745F636F6E6669672E736174203D20256A
:10053000640A007267626C696768745F636F6E66F5
:1005400069672E687565203D2025640A007267681A
:100550006C696768745F636F6E6669672E6D6F6440
:1005600065203D2025640A007267626C69676874C3
:100570005F636F6E6669672E656E61626C65203DB4
:100580002025640A007267626C696768745F636F34
:100590006E666967206570726F6D0A006801F00011
:1005A000B40078005A0000000000000101010101C0
:1005B000010101010202020202020202020303031C
:1005C00003030303030404040404040505050505EB
:1005D00006060606060707070708080808090909A6
:1005E0000A0A0A0A0B0B0B0C0C0C0D0D0D0E0E0F4C
:1005F0000F0F1010111111121213131414151516D8
:10060000161717181819191A1A1B1C1C1D1D1E1F46
:100610001F20202122222324252526272728292A96
:100620002B2B2C2D2E2F2F303132333435363637BD
:1006300038393A3B3C3D3E3F4041424344464748BF
:10064000494A4B4C4D4F50515253555657585A5B8F
:100650005C5E5F606263646667696A6C6D6E707130
:1006600073747678797B7C7E8081838486888A8B9C
:100670008D8F91929496989A9B9D9FA1A3A5A7A9CF
:10068000ABADAFB1B3B5B7B9BBBDBFC1C4C6C8CAC6
:10069000CCCFD1D3D6D8DADCDFE1E4E6E8EBEDF07D
:1006A000F2F5F7FAFCFF0A002530325820006B659E
:1006B00079626F6172645F7265706F72743A200064
:1006C0000A0025303258006B6579626F6172645F91
:1006D0007365745F6C65643A2000646F6E652E0A02
:1006E00000626F6F746D61676963207363616E3A56
:1006F000202E2E2E2000290A002575002F0025759A
:10070000005D280025640020002564002000256489
:100710000020002564007C0025303258006D6F7584
:1007200073656B6579205B62746E7C7820792076C6
:1007300020685D287265702F61636C293A205B0028
:100740006D6B5F776865656C5F74696D655F746F0D
:100750005F6D6178203D2025640A006D6B5F7768CE
:1007600065656C5F6D61785F7370656564203D20C1
:1007700025640A006D6B5F74696D655F746F5F6DF2
:100780006178203D2025640A006D6B5F6D61785FA4
:100790007370656564203D2025640A006D6B5F6998
:1007A0006E74657276616C203D2025640A006D6B65
:1007B0005F64656C6179203D2025640A006D6B5F84
:1007C000776865656C5F74696D655F746F5F6D6197
:1007D00078203D2025640A006D6B5F776865656C45
:1007E0005F6D61785F7370656564203D2025640AE4
:1007F000006D6B5F74696D655F746F5F6D6178200C
:100800003D2025640A006D6B5F6D61785F737065D4
:100810006564203D2025640A006D6B5F696E746518
:100820007276616C203D2025640A006D6B5F646503
:100830006C6179203D2025640A000A002575003688
:100840003A20776865656C5F74696D655F746F5F8A
:100850006D61783A20000A00257500353A207768E6
:1008600065656C5F6D61785F73706565643A2000E3
:100870000A00257500343A2074696D655F746F5FF6
:100880006D61783A20000A00257500333A206D61C9
:10089000785F73706565643A20000A002575003240
:1008A0003A20696E74657276616C286D73293A20FE
:1008B000000A00257500313A2064656C6179282AA8
:1008C00031306D73293A20000A092D2056616C756C
:1008D0006573202D0A004D3E004D25643E20003FEB
:1008E000007365742064656661756C740A00433E2C
:1008F000200077686572652064656C74613A2063D6
:100900007572736F723D25642C20776865656C3D48
:1009100025640A53656520687474703A2F2F656EDC
:100920002E77696B6970656469612E6F72672F77C6
:10093000696B692F4D6F7573655F6B6579730A001D
:100940000A092D204D6F7573656B6579202D0A4559
:1009500053432F713A09717569740A313A09646514
:100960006C6179282A31306D73290A323A09696E2F
:1009700074657276616C286D73290A333A096D616A
:10098000785F73706565640A343A0974696D655FF0
:10099000746F5F6D61780A353A09776865656C5FD9
:1009A0006D61785F73706565640A363A09776865CA
:1009B000656C5F74696D655F746F5F6D61780A0A5D
:1009C000703A097072696E742076616C7565730A8D
:1009D000643A097365742064656661756C74730AA2
:1009E00075703A092B310A646F776E3A092D310A16
:1009F000706775703A092B31300A7067646F776ED3
:100A00003A092D31300A0A7370656564203D20640F
:100A1000656C7461202A206D61785F737065656410
:100A2000202A2028726570656174202F2074696DFA
:100A3000655F746F5F6D6178290A003F004D3E204D
:100A400000433E20004C25640A0074696D65725FA6
:100A500072656164333228293A202530346C580A93
:100A600000686F73745F6B6579626F6172645F6C4D
:100A700065647328293A2025580A000A092D205355
:100A80007461747573202D0A004743433A20342E55
:100A9000392E32204156522D4C4942433A20322EB3
:100AA000302E30204156525F415243483A20617601
:100AB00072350A004F5054494F4E533A2056555301
:100AC0004220424F4F544D41474943204D4F5553CB
:100AD000454B45592045585452414B455920434FA9
:100AE0004E534F4C4520434F4D4D414E44203430E2
:100AF00039360A004255494C443A2022302E362ECF
:100B00003239302D332D673465323336392220287F
:100B100030333A32343A303420466562203138205E
:100B200032303139290A005649443A20307832307F
:100B30004130286D65686B656529205049443A202D
:100B40003078343232442839366B65652920564571
:100B5000523A204445564943455F5645520A00449F
:100B60004553433A204445534352495054494F4E0C
:100B70000A000A092D2056657273696F6E202D0ACE
:100B8000000A092D20436F6E736F6C65202D0A4596
:100B900053432F713A09717569740A6D3A096D6F83
:100BA0007573656B65790A000A092D204D616769C7
:100BB00063202D0A443A094465627567204D6573C8
:100BC0007361676520546F67676C650A583A094D11
:100BD0006174726978204465627567204D6F646541
:100BE00020546F67676C65202D2053686F77206BEA
:100BF00065797072657373657320696E206D6174B9
:100C000072697820677269640A4B3A094B657962A8
:100C10006F61726420446562756720546F67676C0A
:100C200065202D2053686F77206B6579707265732E
:100C300073207265706F72740A4D3A09446562756B
:100C400067204D6F75736520546F67676C650A5632
:100C50003A0956657273696F6E0A533A09537461A3
:100C60007475730A433A0941637469766174652047
:100C7000436F6E736F6C65204D6F64650A46312D4E
:100C80004631303A0953776974636820746F204C99
:100C90006179657220302D392028463130203D2081
:100CA0004C30290A302D393A09537769746368202A
:100CB000746F204C6179657220302D390A45534399
:100CC0003A0953776974636820746F204C617965C1
:100CD0007220302028616C7465726E617465206BBF
:100CE00065792031290A47524156453A09537769B7
:100CF00074636820746F204C6179657220302028FD
:100D0000616C7465726E617465206B65792032293F
:100D10000A50415553453A094A756D7020746F2049
:100D2000426F6F746C6F61646572202852657365E1
:100D300074290A453A095072696E7420454550522B
:100D40004F4D2053657474696E67730A000A00255D
:100D500075002E6E6B726F3A20000A002575002E0A
:100D6000737761705F6261636B736C6173685F62FC
:100D700061636B73706163653A20000A002575003A
:100D80002E737761705F67726176655F6573633A32
:100D900020000A002575002E6E6F5F6775693A2086
:100DA000000A002575002E737761705F72616C74A4
:100DB0005F726775693A20000A002575002E737707
:100DC00061705F6C616C745F6C6775693A20000AD2
:100DD000002575002E636170736C6F636B5F746FB9
:100DE0005F636F6E74726F6C3A20000A00257500A5
:100DF0002E737761705F636F6E74726F6C5F636187
:100E000070736C6F636B3A20000A00253032580013
:100E10006B65796D61705F636F6E6669672E726175
:100E2000773A20000A002575002E6D6F7573653ABC
:100E300020000A002575002E6B6579626F6172646F
:100E40003A20000A002575002E6D61747269783AA7
:100E500020000A002575002E656E61626C653A20DF
:100E6000000A00253032580064656275675F636F61
:100E70006E6669672E7261773A20000A0025750058
:100E800064656661756C745F6C617965723A2000A7
:100E90003F000A6D6F7573653A206F66660A000A37
:100EA0006D6F7573653A206F6E0A000A6B65796223
:100EB0006F6172643A206F66660A000A6B65796238
:100EC0006F6172643A206F6E0A000A6D6174726914
:100ED000783A206F66660A000A6D61747269783A22
:100EE000206F6E0A000A64656275673A206F666655
:100EF0000A000A64656275673A206F6E0A000A0A82
:100F00004A756D70696E6720746F20626F6F746CC4
:100F10006F616465722E2E2E2000433E20006565B1
:100F2000636F6E6669673A0A006D61696E206C6F67
:100F30006F700A00696E6974466F72557362436F11
:100F40006E6E656374697669747928290A000A00EF
:100F500025303258005345545F4C45443A20000A2E
:100F60000056454E444F523A00554E4B4E4F574E49
:100F70003A005345545F4C45443A20005345545F72
:100F80005245504F52543A200025303258005345B4
:100F9000545F49444C453A20004745545F49444C0E
:100FA000453A20004745545F5245504F52543A004D
:100FB0006B6275663A2066756C6C0A00290A00251A
:100FC000303258005D28002575002D3E0025750043
:100FD000562D5553423A206B6275665B0009023B01
:100FE0000002010080FA0904000001030101000968
:100FF00021010100012240000705810308000109C9
:101000000401000103000000092101010001228404
:10101000000705830308000105010902A1018502FB
:101020000901A1000509190129051500250175010E
:101030009505810275039501810305010930093188
:101040001581257F75089502810609381581257F50
:1010500035004500750895018106050C0A38021512
:1010600081257F750895018106C0C005010980A111
:10107000018503150126B700190129B775109501DF
:101080008100C0050C0901A10185041501269C02FF
:1010900019012A9C02751095018100C005010906FD
:1010A000A10175019508050719E029E7150025013B
:1010B00081029501750881039505750105081901DF
:1010C0002905910295017503910395067508150090
:1010D00026FF000507190029FF8100C01201100139
:1010E00000000008A0202D420002010200011203AE
:1010F0007000730032006100760072004700420009
:101100001C03770069006E006B00650079006C00BD
:101110006500730073002E006B0072000403090465
:1011200011241FBECFE5D8E0DEBFCDBF04B603FE5D
:1011300024C08091860290918702A0918802B0918C
:1011400089028730904BA740B04BB9F410928602C9
:1011500010928702109288021092890214BE84B7FE
:10116000877F84BF0FB6F894A89581B5886181BD4B
:1011700011BC0FBEE0E0F8E3099510E0A0E6B0E096
:10118000E4E7F1E602C005900D92AA38B107D9F75D
:1011900022E0AAE8B0E001C01D92A638B207E1F74C
:1011A0000E94792C0C94B8300C940000FF93EF93BC
:1011B000E0918A00F0918B00309709F00995EF914A
:1011C000FF910895FC018591803011F0EFDFFBCF96
:1011D0000895FF27E0E230E247FF0CC0419597FFFA
:1011E00009C0EDE26095709580959095611D711D27
:1011F000811D911D27FF02C0219530E350E2AA27EF
:10120000660F771F881F991FAA1FA41710F0A41B31
:1012100063955A95A9F7AA3008F0A95FA05DAF932E
:10122000F395611571058105910541F7ED3211F4D2
:10123000EF93F395F21718F43F93F395FBCF8F914B
:10124000B5DFFA95E1F70895E991F991859180303C
:1012500021F0853219F0AADFF9CF089520E0E89453
:1012600055915532C1F3503311F4689455915A3366
:1012700048F4505390F3220F022E220F220F200D1C
:10128000250FF4CF0EF4219589919991533619F3D6
:10129000533729F1533559F1BC0188279927E89430
:1012A0005C3621F48991999168945591543639F4BA
:1012B00046EF7EF077FF0DC08FEF9FEF0AC05537E6
:1012C0004AE039F0583540E121F0523642E009F069
:1012D0000895FF93EF937DDFEF91FF91B7CFFF93D9
:1012E000EF93FC0181918030B9F360DFFBCFFF9376
:1012F000EF9368DFF1CFDF93CF93CDB7DEB72596BD
:10130000A3DFCF91DF910895A82FB92F80E090E05F
:1013100041E050EA609530E009C02D918227979511
:10132000879510F084279527305EC8F36F5FA8F388
:101330000895EADF8D939D930895CF93CFB7CF9310
:10134000C395839BE9F7839B0EC0839B0CC0839B53
:101350000AC0839B08C0839B06C0C0915D02C395F1
:10136000C0935D02A3C0DF93C0915C02DD27CC591E
:10137000DD4F839B02C0DF91E6CF2F930F931F9326
:1013800000B32FEF03FB20F94F933F9310B34FEFC0
:10139000012703FB21F93BE031C04E7F012F10B341
:1013A000216028C0102F4D7F2260000000B329C0AB
:1013B0004B7F2460012F000010B32BC010B3477F78
:1013C00028602AC04F7E00B320612CC04F7D10B32F
:1013D00020622FC04F7B00B3206432C0422700B38D
:1013E00049934FEF0000102713FB20F910B31C7036
:1013F000C9F1297F91F2012703FB21F900B3237F73
:1014000089F2315058F1102713FB22F910B3277ECF
:1014100079F2012703FB23F92F7C81F200B3102717
:1014200013FB24F92F7971F200C010B3012703FBDD
:1014300025F92F7359F200C000B3102713FB26F9CA
:10144000223040F200C010B3012703FB27F92430FB
:1014500028F64F77206810B30000F9CF10E81ABFC4
:10146000002719C03B503195C31BD04010E81ABF6C
:101470000881033CF9F00B34E9F020915A021981FC
:10148000110F1213EDCF4A81441F093641F10D327D
:1014900011F0013E29F7009362023F914F911F9195
:1014A0000F912F91DF91CAB7C7FD4ACFCF91CFBF20
:1014B000CF91189520916202222379F31091600256
:1014C0001123C1F53430C2F13093600220935B02E6
:1014D00010915C023BE0311B30935C022DC0009107
:1014E000600201303CF50AE54F7049F430917F000D
:1014F00034FD24C000937F00C3E4D2E023C0433016
:1015000049F030914E0234FD19C000934E02CFE4F1
:10151000D2E018C030917A0234FD10C000937A02F4
:10152000CBE7D2E00FC02795A8F45150A9F4220FC1
:101530000000F9CF4AE503C042ED01C0432FC4E1EA
:10154000D0E032E011B31C60939A11BB02B320E4E7
:101550001CE05F93012756E002BB279520F4515011
:1015600021F4220FF9CF012756E000003B5A02BBBD
:10157000D0F2279528F4515029F4220F0000F9CF1A
:10158000012756E0279502BB20F4515021F4220F89
:10159000F9CF012756E02991332302BB21F6037FBF
:1015A00010916102110FC651D04002BB11F010938F
:1015B0005A0210E81ABF086011B3137F402F437F0F
:1015C0005F9100C000C002BB11BB42BB66CF8FEF72
:1015D00087BB88BB1ABA94B39B7B94BB8F988BBB99
:1015E00085B38C6F85BB979AECE9F0E0ACE8B0E08E
:1015F000119211921D921D9280E0EC3AF807C1F70A
:101600000C94260C21E030E0A90102C0440F551FC4
:101610008A95E2F7CA0147BB809588BB0895982F49
:10162000990F9A7A86958575982B84E0989F9001FA
:101630001124822F8C7C969596959373892B829595
:101640000895DF92EF92FF920F931F93CF93DF9352
:10165000CCE8D0E08E01F12C25E0D22E8F2D0E9417
:10166000020B84E18A95F1F7E9B283B380950E9479
:101670000F0B20B330E02095309520783327369536
:10168000322F222737952795E0942E29382BF80101
:10169000808191818217930721F031832083D0923A
:1016A0006000F3940E5F1F4FF8E0FF12D7CF8091D8
:1016B00060008823B1F0815080936000882339F066
:1016C00087EB9BE00197F1F700C000000AC0ECE94E
:1016D000F0E0899199918193919390E0CC39D90769
:1016E000C1F70E942E0C81E0DF91CF911F910F91E5
:1016F000FF90EF90DF900895E82FF0E0EE0FFF1FCE
:10170000E456FF4F808191810895089585B38360E9
:1017100085BB87E080B986B7846086BF86B7816065
:1017200086BF86B7806486BF089516BE94EA96BFCA
:1017300006B607FEFDCF91B1987F983011F081E099
:10174000089583B984E886BF06B607FEFDCF81B150
:10175000887F883111F0803491F780E0089583B953
:1017600084E886BF06B607FEFDCF91B1987F81E081
:10177000983209F480E00895CF92DF92EF92FF92C1
:101780001F93CF93DF9300D0CDB7DEB77A01698383
:101790007A830E94950B182F69817A8181110DC07F
:1017A0006B01EC0CFD1CCE14DF0449F0F6018191B5
:1017B0006F010E94AF0B8823B1F311E002C084E9EE
:1017C00086BF812F0F900F90DF91CF911F91FF90D7
:1017D000EF90DF90CF9008958091060280FF09C0BE
:1017E0000E94860B40E350E06BE072E080EB0C94CB
:1017F000BC0B80E090E0FC01E55FFD4F11821082A0
:101800001282039680339105B1F7EACF0C941E0C37
:101810008091AC00811110C08091060280FF0CC045
:101820000E94860B40E350E06BE072E080EB0E9488
:10183000BC0B81E08093AC000C941F0C08950895BC
:1018400081E0089581E008950C94200C0E942022EC
:10185000811102C00E949F220C94060C0C94080C6B
:1018600008950C94300C0C94310C08950E94BB1B0D
:101870000E94350C2FEB87E299E021508040904088
:10188000E1F700C000000C944D23FF920F931F93CB
:10189000CF93DF938C01FC01C081D1818091CD0079
:1018A000811113C08281882349F0CE010E94F0206B
:1018B000F82E682FCE010E94952004C0CE010E9410
:1018C000C420F82EBE018F2D04C0CE010E94F0204E
:1018D000BE010E94C00EEC01B8010E94240C8823B6
:1018E00009F443C2CB3CFCE5DF0709F4D8C0D8F5C6
:1018F000C33C9CE5D90709F498C0E8F4C531FCE580
:10190000DF0778F4C2308CE5D80708F043C1C11571
:101910009CE5D90709F462C0C130DC4509F466C012
:1019200017C2C631FCE5DF0709F4EBC1C23CDC4558
:1019300009F473C00DC2F8018281C73CFCE5DF07E2
:1019400009F495C040F4C53CECE5DE0709F483C01A
:1019500008F477C086C0C93C9CE5D90709F493C058
:1019600008F48BC096C0C23DFCE5DF0709F4EAC06D
:10197000D0F4CE3C9CE5D90709F4A8C050F4CC3C87
:10198000FCE5DF0709F493C0CD3CDC4509F497C0C2
:10199000DFC1F8018281C03DFCE5DF0709F4B4C076
:1019A00008F4A4C0C1C0C63DECE5DE0709F444C19B
:1019B00050F4F8018281C43DFCE5DF0709F4D7C08B
:1019C00008F4D0C0E2C0C83DECE5DE0709F47EC1F2
:1019D00008F455C1CD3DDC45C1F0BAC1F8018281A2
:1019E000882309F4C2C10E94360CBFC1F80182816C
:1019F000882309F4BAC180916601816080936601F1
:101A00008EEB92E00E94E208B0C1F8018281882347
:101A100009F4ABC10E949F22A8C1F80182818823EA
:101A200009F4A3C10E940616A0C1F801828188238F
:101A300009F49BC10E947021827251F00E945015DE
:101A400094C1882309F491C10E9470218272B1F37C
:101A50000E9442158AC1882309F487C10E9410148C
:101A600084C1882309F481C10E9434147EC1882373
:101A700009F47BC10E94541478C1882309F475C10C
:101A80000E94741472C1882309F46FC10E949414D7
:101A90006CC1882309F469C10E94B41466C1F801BD
:101AA0008281882309F461C10E949B125EC1F80102
:101AB0008281882309F459C10E94B01256C1F801ED
:101AC0008281882309F451C181E02BC0F801828111
:101AD000882309F44AC10E949212823028F00E94A1
:101AE0009212853008F4B4CF82E01BC0882309F439
:101AF0003CC10E949212863028F00E9492128830D7
:101B000008F4A6CF86E00DC0882309F42EC10E94F8
:101B10009212893028F00E9492128E3008F498CFE9
:101B200089E00E94531521C1882309F41EC10E9437
:101B300092128F3028F00E949212843108F488CFDC
:101B40008FE0EFCFF8018281882309F40EC10E9453
:101B50009212853128F00E949212873108F478CFD2
:101B600085E1DFCF882309F400C188E1DACF88233B
:101B700009F4FBC00E949212893128F00E9492124F
:101B8000823208F465CF89E1CCCF882309F4EDC017
:101B900083E2C7CFF8018281882309F4DEC00E9466
:101BA0002022811102C00E949F220E943D2290E0CB
:101BB0009093420280934102FE01E350FC45E231E2
:101BC000F10530F4E65DFF4F809141020C945130F5
:101BD00080914102816027C0826025C0846023C05B
:101BE000806121C080621FC080641DC080681BC0EE
:101BF0008460886018C08E7F16C08D7F14C08B7F74
:101C000012C08F7E10C08F7D0EC08F7B0CC08F776F
:101C10000AC08B7F877F07C087FB222720F991E0CE
:101C2000922790FB87F980934102809141020E94A4
:101C300041220E94BB1B99C0F8018281882351F088
:101C40001092B2000E94E5229093AF008093AE0004
:101C500082E022C08091B20081110FC08091AE005D
:101C60009091AF000E94FD22883C910530F486E2FD
:101C70000E94DF1786E20E94C41882E024C0F801A7
:101C80008281882361F01092B3000E94E522909334
:101C9000B1008093B00080E20E94F81866C0809185
:101CA000B30081110FC08091B0009091B1000E94EB
:101CB000FD22883C910530F487E20E94DF1787E21D
:101CC0000E94C41880E20E94FF184FC0F801828170
:101CD0008111D9CF8091B3008111F4CF8091B000F0
:101CE0009091B1000E94FD22883C910558F780E256
:101CF0000E94FF1888E20E94DF1788E20E94C41841
:101D000034C00E947021282FF801828140916C001C
:101D100050916D00882379F02A7A91E009F490E0DF
:101D20009093AD00911102C069E201C065E3CA0160
:101D30000E94D3220AC08091AD00811102C069E2E5
:101D400001C065E3CA010E94D5220E94BC210DC0DA
:101D500081E08093B2008093B300C801DF91CF91FE
:101D60001F910F91FF900C94220C80E0DF91CF9196
:101D70001F910F91FF90089580E090E008950895DD
:101D80009FE0799FF001112498E7899FE00DF11DF4
:101D90001124E60FF11DEE0FFF1FE252FF4F859158
:101DA00094910895880F991FFC01E153FD4F85918F
:101DB00094910895CF93DF930E94C00E0E949110DA
:101DC000EC01811520E59207F0F5811530E49307C9
:101DD00008F024C1883E910500F5803E910508F089
:101DE0009CC1883A910570F4853A910508F09FC02E
:101DF0008130910509F491C108F442C1049708F0BB
:101E00008CC13EC18F3B910508F49CC0803C91057C
:101E100008F436C1805C9109F4C0811540E2940752
:101E200058F4C11581E0D80708F077C1C03FD1054B
:101E300008F426C1D06571C1811520E3920708F02E
:101E4000E4C09F70DEC0811535E5930708F044C0FB
:101E5000811544E5940708F0F8C0C11582E5D8075C
:101E600008F5C11521E5D20708F0DBC08C2F83707F
:101E700021E030E002C0220F331F8A95E2F73C6870
:101E8000CE0174E0969587957A95E1F78370382BAB
:101E9000CF70C695C69580E2C89FE0011124C22B81
:101EA000D32B3BC12C2F26952695CE0183709927E5
:101EB000C115D34508F0BAC040E2249F9001112417
:101EC000C1E0D0E002C0CC0FDD1F8A95E2F72C2BD9
:101ED0003D2BE901DC6821C1811549E59407A0F497
:101EE000C11588E5D80708F0B5C0C11526E5D207A9
:101EF00008F0C6C08C2F0E940E118F71C82FD0E041
:101F0000DC2FCC27D06209C181153AE5930708F48C
:101F1000A6C090568115904208F0B2C08D2F8F71E7
:101F20000E940E11DD27D0628F71D82BF6C0853A42
:101F3000910509F4A8C0863A910509F0A7C0C2E846
:101F4000D0E4EBC0883A910509F4A3C0893A910521
:101F500009F4A2C08A3A910509F4A1C08B3A91050F
:101F600009F4A0C08C3A910509F49FC08B3B910500
:101F700009F49EC08C3B910509F49DC08D3A9105F2
:101F800009F49CC0803B910509F49BC08E3A9105F1
:101F900009F49AC08F3A910509F499C0813B9105E3
:101FA00009F498C0823B910509F497C0833B9105E1
:101FB00009F496C0843B910509F495C0853B9105D1
:101FC00009F494C0863B910509F493C0873B9105C1
:101FD00009F492C0883B910509F491C0893B9105B1
:101FE00009F490C08D3B910509F48FC08E3B91059B
:101FF00009F48EC08A3B910509F48DC0C0E0D4E499
:102000008CC00E94D20EEC0188C09927D3FF03C078
:10201000EC01D86C82C0EC01D06C7FC0DF70D06A5C
:102020007CC0DC2FCC27C16FD06A77C040E2249FF0
:1020300090011124C1E0D0E002C0CC0FDD1F8A95D1
:10204000E2F7C22BD32BDA6868C0D82FCC27C46F35
:10205000D06A63C0DC2FCC27C06FD06A5EC08F709F
:102060000E940E1194E0D695C7959A95E1F7CF702E
:10207000D0E0DC2FCC27D06A8F70806EC82B4DC08B
:10208000C0E0D0E04AC0C1E8D0E447C0C3E8D0E433
:1020900044C0C2EED4E441C0C9EED4E43EC0CAEEAE
:1020A000D4E43BC0C5EBD4E438C0C6EBD4E435C0BF
:1020B000C3EBD4E432C0C4EBD4E42FC0C7EBD4E408
:1020C0002CC0CCECD4E429C0CDECD4E426C0C3E8C9
:1020D000D5E423C0CAE8D5E420C0C2E9D5E41DC0D8
:1020E000C4E9D5E41AC0C1E2D6E417C0C3E2D6E41D
:1020F00014C0C4E2D6E411C0C5E2D6E40EC0C6E204
:10210000D6E40BC0C7E2D6E408C0CFE6D4E405C0ED
:10211000C0E7D4E402C0CAE2D6E4CE01DF91CF9199
:1021200008958238910549F1B0F48133910509F49D
:1021300058C048F48932910509F44EC08A3291059D
:1021400009F454C008958533910509F440C08933DA
:10215000910599F00895833E910529F138F4803E68
:10216000910591F0823E9105A1F00895863E91057A
:10217000F9F0873E910531F108952091410220FD4B
:102180003AC021FD38C008958091410280FD35C0DC
:1021900032C08091410282FF32C08091410284FDB1
:1021A00030C083EE39C08091410282FD28C0F5CF56
:1021B0008091410283FF27C08091410284FD21C0AC
:1021C00087EE2AC08091410283FD1DC0F5CF80912A
:1021D000410285FD1AC01BC08091410285FD17C0D8
:1021E00014C08091410286FD14C015C08091410247
:1021F00086FD11C00EC080EE0FC089E30DC082EED7
:102200000BC080E009C086EE07C089E205C085E307
:1022100003C08AE201C081E390E0089590914102F9
:1022200092FF0DC0282F2871283019F4877F846011
:1022300006C0282F2471243011F48B7F886093FF0F
:102240000DC0282F2871283119F4877E846106C0BB
:10225000282F2471243111F48B7E886194FD877EB0
:102260000895EF92FF920F931F93CF93DF93E901AD
:10227000662309F44BC0242F30E0EFEFF0E0E61BBB
:10228000F109B901E69F9001E79F300DF69F300DEF
:102290001124232F8B01031B11095CE3E52EF12C84
:1022A000B7010E942930FB01BC01069FC001079FB6
:1022B000900D169F900D1124B7010E942930E23035
:1022C000F105B1F040F4309779F0319711F5832F93
:1022D000242F461B21C0E430F105A1F068F03597AA
:1022E000C1F4842F861B18C0832F262F230F14C000
:1022F000862F830FE42F03C0E42FE61B842F432F88
:102300002E2F0AC0842F462F430F06C0842F242F60
:1023100003C080E020E040E0E42FF0E0EA55FA4F0F
:102320004491E22FF0E0EA55FA4F9491E82FF0E063
:10233000EA55FA4FE49149839883EA83DF91CF917C
:102340001F910F91FF90EF90089580910602282F22
:1023500026952F7330E02115310519F481788260BC
:1023600005C02532310524F0817888648093060207
:1023700030910602432F441F4427441F2091070237
:10238000522F550F852F842B27FB992790F98936DB
:1023900041E094077CF068E671E00E943D3080FBEC
:1023A00037F93093060286952078822B90FB87F9C7
:1023B00080930702089588E090E00C946C30CF93EE
:1023C000DF9300D000D0CDB7DEB7AB01BC014983AD
:1023D0005A836B837C830E94A51149815A816B814A
:1023E0007C8188E090E00F900F900F900F90DF912C
:1023F000CF910C948930E6E0F2E083E08083109284
:1024000007028FEF828383831482608171818281CE
:1024100093810C94DF118091660180FF08C085E8EC
:1024200095E09F938F930E947B090F900F9080916E
:10243000660180FF0FC08091060281701F928F930A
:1024400088E695E09F938F930E947B090F900F90F1
:102450000F900F908091660180FF10C0809106025E
:1024600086958F731F928F938DE495E09F938F9342
:102470000E947B090F900F900F900F908091660142
:1024800080FF19C080910602881F8827881F9091BD
:102490000702292F220F822B97FB992790F99F93F0
:1024A0008F9383E395E09F938F930E947B090F9016
:1024B0000F900F900F908091660180FF0EC0809169
:1024C00008021F928F9389E195E09F938F930E945A
:1024D0007B090F900F900F900F908091660180FF05
:1024E0000EC0809109021F928F938FEF94E09F930B
:1024F0008F930E947B090F900F900F900F90809107
:10250000660180FF0EC080910A021F928F9383EEB6
:1025100094E09F938F930E947B090F900F900F90F0
:102520000F9008958091060280FF03C086958F73F7
:10253000089580E0089580910A0290E00196843029
:10254000910514F083E090E080930A026091060206
:102550007091070280910802909109020C94DF119A
:1025600080910A0290E0019797FF02C080E090E01E
:102570008430910514F083E090E080930A0260912A
:1025800006027091070280910802909109020C9452
:10259000DF119091060290FF0FC020E030E0F901BA
:1025A000E55FFD4F8183608342832D5F3F4F203382
:1025B0003105A9F70C94EC0B08952F923F924F929E
:1025C0005F926F927F928F929F92AF92BF92CF92C3
:1025D000DF92EF92FF920F931F93CF93DF93CDB7CC
:1025E000DEB727970FB6F894DEBF0FBECDBF8C01C4
:1025F000262E342E2D838091060280FFDEC0982F78
:102600009E77923061F49E012F5F3F4FC8010E9478
:1026100031114B8169818A810E94C91281C0E82FE2
:10262000E695EF739EE39E0F9F73943018F43090FD
:10263000090276C09AE39E0F9F73993068F4881F51
:102640008827881F90910702292F220F022F082B1D
:1026500097FB112710F964C087E28E0F8F738A30C1
:1026600008F05EC0F0E07997E0FD03C021E02C8324
:1026700002C03FEF3C83EE7FE456FA4F8590949082
:102680008C81682E880F7708C40124E09695879581
:102690002A95E1F7689E2001699E500C789E500CA7
:1026A0001124580198E9A91A9EEFB90A3BE0C32EFC
:1026B00032E0D32EE12CF12CC50168E671E00E94D6
:1026C00029302091660120FF18C09F928F927F923F
:1026D000AC81AF939F938F93FF92EF92AEE3B3E001
:1026E000BF93AF938E839F830E947B090FB6F894AC
:1026F000DEBF0FBECDBF9F818E819601432D622D1F
:102700000E943111BFEFEB1AFB0AA40CB51C23E0A9
:10271000C20ED11C30E1E316F10471F60E94EC0BFD
:102720008091060200FB87F98093060280910702E0
:102730008078902F9695892B10FB87F9809307025C
:1027400020920802309209028D81882321F1609144
:1027500006027091070280910802909109020E947E
:10276000DF11809109021F928F93809108021F92BE
:102770008F9380910602881F8827881F90910702F7
:10278000292F220F822B97FB992790F99F938F93E4
:1027900089E193E009C01F923F921F922F9211701E
:1027A0001F930F9382EF92E09F938F930E947B0978
:1027B0000FB6F894DEBF0FBECDBF27960FB6F894C4
:1027C000DEBF0FBECDBFDF91CF911F910F91FF9064
:1027D000EF90DF90CF90BF90AF909F908F907F90C1
:1027E0006F905F904F903F902F900895282FE6E0D4
:1027F000F2E09081991F9927991F30910702832F4A
:10280000880F482F492B37FB552750F9CA010A96E4
:1028100068E671E00E943D30438162810C94DD12D4
:1028200081E00C94F613282F90910602991F9927A6
:10283000991F30910702832F880F482F492B37FBB0
:10284000552750F9CA014A3051051CF4825A9E4F4F
:1028500001C00A9768E671E00E943D30409109028C
:10286000609108020C94DD1281E00C9413146091C5
:102870000802262F30E02F3E310514F46F5E01C0B0
:102880006FEF30910602331F3327331F90910702F9
:10289000592F550F97FB992790F9282F409109023E
:1028A000852F832B0C94DD1281E00C9437146091FA
:1028B0000802262F30E02131310514F0615101C0AA
:1028C00060E030910602331F3327331F90910702D7
:1028D000592F550F97FB992790F9282F40910902FE
:1028E000852F832B0C94DD1281E00C9457144091BA
:1028F0000902242F30E02F3E310514F44F5E01C051
:102900004FEF30910602331F3327331F9091070298
:10291000592F550F97FB992790F9282F609108029E
:10292000852F832B0C94DD1281E00C947714409159
:102930000902242F30E02131310514F0415101C04A
:1029400040E030910602331F3327331F9091070276
:10295000592F550F97FB992790F9282F609108025E
:10296000852F832B0C94DD1281E00C94971420E0CA
:102970000C94DD1281E08093B4008091660180FFA9
:1029800008C081EE92E09F938F930E947B090F9085
:102990000F9008951092B4008091660180FF08C0E6
:1029A0008FEC92E09F938F930E947B090F900F9082
:1029B00008959091060290FF58C09178811102C04D
:1029C000926007C0853210F0986403C08F73880F3F
:1029D000982B90930602662399F0609106027091FD
:1029E000070280910802909109020E94DF118091F4
:1029F000060286958F731F928F9389E294E008C038
:102A00008091060286958F731F928F938BE094E0DE
:102A10009F938F930E947B090F900F900F900F90C0
:102A20006091060266956F7370E04BE050E081E6BE
:102A300090E00E945730892B19F00E94CA1402C0FE
:102A40000E94BA1480910602881F8827881F9091DF
:102A50000702292F220F97FB992790F9409109022D
:102A600060910802822B0C94B7140895682F9091FE
:102A7000060296959F7381E0890F853208F081E008
:102A80000C94D91481E00C943615682F90910602AD
:102A900096959F738FEF890F09F484E20C94D914F3
:102AA00081E00C94451561E00C94D914CF93DF9329
:102AB000C6E0D2E08881816088831F9281E08F9395
:102AC0008DE993E09F938F930E947B090F900F9065
:102AD0000F900F90888186958F73DF91CF910C9422
:102AE000531560E00C94D9148091B500811163C036
:102AF000809166018160809366018CEC94E09F93E5
:102B00008F930E947B09809166010F900F9080FF48
:102B100008C086EB94E09F938F930E947B090F90EF
:102B20000F900E942022811110C08091660180FFC9
:102B300008C08EE894E09F938F930E947B090F90CA
:102B40000F900E949F220E94FB110E94DB11609354
:102B500006027093070280930802909309026E7731
:102B6000C1F48091660180FF08C085E494E09F93E2
:102B70008F930E947B090F900F900E94FB110E947F
:102B8000DB11609306027093070280930802909312
:102B900009020E94A5110E940B1281E08093B400EB
:102BA0008091060280FF04C086958F730E94711584
:102BB00081E08093B5000895CF93DF93C6E0D2E023
:102BC00088818E7F8883688179818A819B810E9438
:102BD000DF11888181701F928F9385E693E09F9328
:102BE0008F930E947B090E94CA142FEB84ED91E021
:102BF000215080409040E1F700C000000F900F90FE
:102C00000F900F90DF91CF910C94EC0B8091060206
:102C1000809581701F928F9384ED93E09F938F93A3
:102C20000E947B09809106020F900F900F900F90E9
:102C300080FD0C94DC150C9456159093BB0080938A
:102C4000BA000895E091BA00F091BB00309721F0EE
:102C50000190F081E02D099480E00895EF92FF92B9
:102C60000F931F93CF93DF93E091BA00F091BB00D5
:102C70003097B1F18C010280F381E02D09958091AC
:102C8000660182FF2DC080FF04C08EEA96E00E949C
:102C9000E208E80118E088EAE82E86E0F82E809144
:102CA000660180FF0BC088811F928F93FF92EF9285
:102CB0000E947B090F900F900F900F90115021965A
:102CC0001111EDCF8091660180FF0AC086EA96E07F
:102CD000DF91CF911F910F91FF90EF900C94E2083C
:102CE000DF91CF911F910F91FF90EF900895E091A8
:102CF000BA00F091BB00309721F00480F581E02DFF
:102D0000099408952091B8003091B9008217930773
:102D100071F09093B9008093B800E091BA00F091FF
:102D2000BB00309721F00680F781E02D09940895CB
:102D30002091B6003091B7008217930771F09093FD
:102D4000B7008093B600E091BA00F091BB003097D5
:102D500021F00084F185E02D0994089508950895E7
:102D60000C94AF1608950C94B2160E94AE160C94F3
:102D7000B01681E008950E94DE220E94E70A0E94B8
:102D8000B2230E9474150C94B316CF93C82F809170
:102D9000660182FF1EC080FF04C087EC96E00E949F
:102DA000E2088091660180FF0CC01F92CF9382ECF5
:102DB00096E09F938F930E947B090F900F900F9046
:102DC0000F908091660180FF04C080EC96E00E9425
:102DD000E2088C2FCF910C94330C4F925F927F922C
:102DE0008F929F92AF92BF92CF92DF92EF92FF921B
:102DF0000F931F93CF93DF93CDB7DEB72A970FB60C
:102E0000F894DEBF0FBECDBF0E94210B0E94B91601
:102E1000811111C08FEF89838A831B820E94E52272
:102E20008160782F9D838C8349815A816B818D814C
:102E30000E94AB1757C09DEBC92E90E0D92E00E041
:102E400010E0AA24A394B12C702E802F0E947C0B3A
:102E50004C01F601419051906F01482659264114CA
:102E6000510431F40F5F1F4F0830110569F7D2CFBD
:102E70008091660181FD0E94850B20E030E07501A4
:102E8000022E02C0EE0CFF1C0A94E2F7C701842157
:102E90009521892B09F12E837F828E209F2091E03E
:102EA000892809F490E098870E94E5228160782FB4
:102EB0009A8789874E815F8168858A850E94AB17D2
:102EC000000F111FF801E354FF4F80819181E82624
:102ED000F926F182E08206C02F5F3F4F2F30310587
:102EE00071F6C0CF0E94DF261091BC000E9422160E
:102EF0001817D9F00E9422168093BC002A960FB6AC
:102F0000F894DEBF0FBECDBFDF91CF911F910F911F
:102F1000FF90EF90DF90CF90BF90AF909F908F90F9
:102F20007F905F904F900C94C5162A960FB6F89438
:102F3000DEBF0FBECDBFDF91CF911F910F91FF90EC
:102F4000EF90DF90CF90BF90AF909F908F907F9049
:102F50005F904F900895CF93DF93CDB7DEB72B9757
:102F60000FB6F894DEBF0FBECDBF4F835887698779
:102F70007A878B87DE01119686E0FD0111928A9592
:102F8000E9F785E0FE01379601900D928A95E1F709
:102F900049815A816B817C818D819E810E94651E51
:102FA0002B960FB6F894DEBF0FBECDBFDF91CF9149
:102FB0000895FC01808191810E9431210895CF9371
:102FC000DF931F92CDB7DEB7882309F4D9C0682FED
:102FD0008CEF860F813A70F4862F69830E942D2B27
:102FE00069818111CDC080916C0090916D000E942B
:102FF000D3220CC080E2860F883068F4677081E0CD
:1030000001C0880F6A95EAF70E9473210F90DF9143
:10301000CF910C94BC218BE5860F833088F4653A00
:1030200029F0663A31F083E890E005C081E890E04D
:1030300002C082E890E00F90DF91CF910C9482164D
:1030400088E5860F873108F091C0683A09F445C0D9
:10305000693A09F445C06A3A09F445C06B3A09F483
:1030600045C06C3A09F445C06B3B09F445C06C3B64
:1030700009F445C06D3A09F445C0603B09F445C008
:103080006E3A09F445C06F3A09F445C0613B09F452
:1030900045C0623B09F445C0633B09F445C0643B4D
:1030A00009F445C0653B09F445C0663B09F445C0D9
:1030B000673B09F445C0683B09F445C0693B09F426
:1030C00045C06D3B09F445C06E3B09F445C06A3B01
:1030D00009F445C080E090E044C082EE90E041C039
:1030E00089EE90E03EC08AEE90E03BC085EB90E038
:1030F00038C086EB90E035C083EB90E032C084EBC3
:1031000090E02FC087EB90E02CC08CEC90E029C0C1
:103110008DEC90E026C083E891E023C08AE891E03E
:1031200020C082E991E01DC084E991E01AC081E2EB
:1031300092E017C083E292E014C084E292E011C0F2
:1031400085E292E00EC086E292E00BC087E292E058
:1031500008C08FE690E005C080E790E002C08AE2F8
:1031600092E00F90DF91CF910C949816603F40F061
:10317000862F0E9465250F90DF91CF910C945226E7
:103180000F90DF91CF910895882389F19CEF980FDC
:10319000913A40F4682F80916C0090916D000E94EC
:1031A000D5220DC090E2980F983058F4877091E0C6
:1031B00001C0990F8A95EAF7892F0E9479210C9412
:1031C000BC219BE5980F933020F480E090E00C94B4
:1031D000821698E5980F973120F480E090E00C94E7
:1031E0009816803F20F00E94CD250C945226089519
:1031F000882321F00E9473210C94BC210895882318
:1032000021F00E9479210C94BC2108954F925F9285
:103210006F927F92BF92CF92DF92EF92FF920F93C5
:103220001F93CF93DF937C01D62FC72FFC0105811D
:1032300002950F70128111110E9490210E94692144
:10324000882379F0112369F080E28D0F883048F0EF
:1032500082E00E9407220E94692191E0B82EB926DF
:1032600001C0B12CCC2EC2948FE0C822D12CF60123
:10327000E45CFF4F0C9451308C2F807FCF708823FB
:1032800011F0C295C07F112399F0CC2309F4CFC16E
:1032900080E28D0F883010F0D11104C08C2F0E9475
:1032A000732103C08C2F0E9483210E94BC21BFC1C7
:1032B0008D2F0E94C418CC2309F4DEC180E28D0F4B
:1032C000883010F0D11104C08C2F0E94792103C0E6
:1032D0008C2F0E9489210E94BC21CEC18C2F807F1F
:1032E000CF70803211F0C295C07FDD2319F0D1304C
:1032F000C9F022C0112371F0002341F0013031F4F4
:103300000E94A3218C2B0E94A921B6C10E94A32157
:103310008C2B46C1002319F0013009F4ADC10E9485
:10332000B22118C0112321F0063008F0A5C10EC04B
:10333000053008F0A1C10EC0112351F0002331F077
:10334000F701858180FF73C18F7085838C2F28C121
:1033500001117EC18C2F2AC18C2F86958695837092
:1033600090E0009719F0019761F086C1112321F0D8
:103370008D2F9C2F937002C080E090E00E948216F7
:103380008BC1112321F08D2F9C2F937002C080E000
:1033900090E00E94981680C11123F9F0D53F51F0BA
:1033A000D63F71F0D43FA9F480913B0290913C024A
:1033B00081600BC080913B0290913C02826005C00D
:1033C00080913B0290913C02846090933C028093F8
:1033D0003B028D2F0E9465251EC0D53F51F0D63F80
:1033E00071F0D43FA9F480913B0290913C028E7F12
:1033F0000BC080913B0290913C028D7F05C0809173
:103400003B0290913C028B7F90933C0280933B0265
:103410008D2F0E94CD250E9452263EC18C2F837095
:1034200009F050C0111134C18D2F82958695877097
:10343000880F880F9D2F9F70492E512C612C712C65
:10344000082E04C0440C551C661C771C0A94D2F745
:10345000D4FF14C00FE010E020E030E0B901A80173
:1034600004C0440F551F661F771F8A95D2F7CB0102
:10347000BA01609570958095909503C060E070E00A
:10348000CB01C695C695C370D0E0C230D10561F0BE
:10349000C330D10581F064297529862997292197A0
:1034A00071F00E94AA1FF4C0642975298629972902
:1034B0000E94BC1FEDC00E94AA1FC301B2010E945E
:1034C000981FE6C0112319F08C2F817001C08695DA
:1034D000882309F4DDC08D2F829586958770880F2B
:1034E000880F9D2F9F70492E512C612C712C082E16
:1034F00004C0440C551C661C771C0A94D2F7D4FFF8
:1035000014C00FE010E020E030E0B901A80104C0D1
:10351000440F551F661F771F8A95D2F7CB01BA015A
:10352000609570958095909503C060E070E0CB0148
:10353000C695C695C3704C2F50E04230510569F0D6
:103540004330510589F0642975298629972941302E
:10355000510571F00E9470209BC06429752986294D
:1035600097290E94822094C00E947020C301B2015A
:103570000E945E208DC08D2F90E0FC01E05EF1097D
:10358000E531F10508F04FC0E45BFF4F0C9451307A
:10359000DF708C2F8F71112331F00E94F71F8D2F58
:1035A0000E94F81869C00E9418208D2F0E94FF18F1
:1035B00063C0112341F0053008F05EC08C2F8F717D
:1035C0000E943D2059C0063008F056C0F7CF1123A5
:1035D00039F08C2F8F710E94F71F4EC01123C9F351
:1035E0008C2F8F710E94182047C0112329F08C2F37
:1035F0008F710E94E21F40C00E94DD1F3DC0112359
:1036000049F0CF718C2F0E94F71F63E08C2F0E942E
:10361000F22132C081E00E940722023068F182E08C
:103620000E94072229C0112331F0002391F28D2F2F
:103630000E94DF1721C0002399F2D93349F45FEFCC
:103640006DEE72E0515060407040E1F700C0000044
:103650008D2F0E94C41810C04C2F4F706D2FC701C2
:103660000E94BC0E0E94091F17C04C2F4F706D2F77
:10367000C7010E94BF0E10C088E0C816D10441F0F7
:103680005CF0EAE0CE1AD108F2E0CF16D10420F4C3
:103690000E9422160E94330CBB20F1F00E9465218B
:1036A00080FD1AC0F70112820E945F210E94F71F5D
:1036B000C7010E947A1B0E945F21DF91CF911F9169
:1036C0000F91FF90EF90DF90CF90BF907F906F9021
:1036D0005F904F900C941820DF91CF911F910F9124
:1036E000FF90EF90DF90CF90BF907F906F905F90B2
:1036F0004F9008950F931F93CF93DF93EC01888130
:1037000099812B813C81232BB9F09F3F11F48F3F8E
:1037100099F0CE010E94450C882371F0688179816F
:103720008A810E943C218C010E9494200E94951F56
:10373000B801CE010E940619DF91CF911F910F9120
:1037400008950E9490210E94A0210E94BC210E9405
:103750007A270E94522680E090E00E94821680E044
:1037600090E00C94981680916C0090916D000E94EE
:10377000D7220C94A11B0E9480210C94B31BE92F2B
:10378000E295EF70F0E03297EE30F105B0F4EF59CA
:10379000FF4F0C945130803F91F018F4803E68F454
:1037A0000EC0843F51F40BC0803E48F0813F29F4A5
:1037B00006C093FB882780F9089580E0089581E092
:1037C00008950E9431210E94BF1B0895CF93DF937B
:1037D00000D000D01F92CDB7DEB70F900F900F90A2
:1037E0000F900F90DF91CF910895CF93DF9300D08A
:1037F00000D000D0CDB7DEB726960FB6F894DEBF66
:103800000FBECDBFDF91CF9108951F93CF93DF936C
:10381000C091CE0016E08091CF00C81799F0D0E09B
:103820001C9FF0011D9FF00D1124E053FF4F4081BC
:10383000518162817381848195810E94F51B21965B
:10384000C770E9CFDF91CF911F910895409100019A
:103850005091010160910201709103018091040176
:10386000909105010C94F51B8091050182958F7054
:1038700009F054C080910201882309F44FC080915F
:10388000CE00A091CF0060910001709101014091A4
:10389000030150910401B6E08A1709F43FC090E09B
:1038A00041155105C1F17F3F11F46F3FA1F1B89F60
:1038B000F001B99FF00D1124E053FF4F21817213E5
:1038C0002AC02081621327C02281211124C02381B4
:1038D00034812417350710F421503109241B350B8E
:1038E000283C3105C0F4209105012F702061209300
:1038F000050126E0289FF001299FF00D1124EB52CD
:10390000FF4F80818F708061808380E091E00E9412
:103910007A1B0C94051C01968770BECF0895CF9238
:10392000DF92EF92FF920F931F93CF93DF93CDB768
:10393000DEB762970FB6F894DEBF0FBECDBF8C0125
:1039400085E0F801DE011D9601900D928A95E1F760
:10395000D8014C9111965C91119712966C91129727
:103960001396CD90DC901497309100017091010175
:103970008091030190910401009709F46BC17F3F8E
:1039800019F43F3F09F466C1E0900201EE2009F40A
:10399000C0C020910501C816D90628F0F601E81B21
:1039A000F90BCF0104C0809590958C0D9D1DFF24CF
:1039B000F394883C910578F0F12C207F09F0C6C083
:1039C0007C2DD98AC88A89890E94E61B80E091E013
:1039D0000E947A1BB1C0822F807F09F046C0751308
:1039E00014C0341312C0611110C02F7020612093D5
:1039F00005010E94261C80E091E00E947A1B8091C4
:103A00000501D80115968C932EC0CD2819F15F3F82
:103A100011F44F3FF9F0F62E61111CC08091CE00D9
:103A20002091CF0036E0821709F45AC090E0389F09
:103A3000F001399FF00D1124E053FF4F71815713AE
:103A400006C07081471303C07281711103C00196D3
:103A50008770E9CFF62E662309F427C1809105010E
:103A6000816080930501F12C20C1751308C03413C7
:103A700006C0611104C080910501D801C3C04D8703
:103A80005E878D859E856A8B0E94E11B6A898823EB
:103A9000E1F16623D1F120910501822F82958F708B
:103AA00090E0029774F08091000190910101988755
:103AB0008F831986DB86CA862C87CE0107960E94E3
:103AC0007A1B86E0F801A0E0B1E001900D928A95A2
:103AD000E1F70E94341C0E94261CFF24F394E5C0E9
:103AE0004D875E878D859E850E943121292F2295E5
:103AF0002F7030E0223031050CF0CBC09F7009F000
:103B0000C5C0805E883008F4D0C0C8010E947A1B0E
:103B1000E4CFC816D90608F453C0F601E81BF90B28
:103B2000CF01883C910508F450C0F12C7C2DD98A36
:103B3000C88A89890E94E61BE0E0F1E086E0DF01A7
:103B40001D928A95E9F70E94261CAFC0751314C018
:103B5000341312C0611110C080910501F8018583F2
:103B6000C8010E947A1B86E0E0E0F1E0DF011D92CF
:103B70008A95E9F7FE2C99C04D875E878D859E85D5
:103B80006A8B0E94E11B6A89882309F4BECF6623F1
:103B900009F4BBCF20910501822F82958F7090E0B0
:103BA00002970CF48ECF80910001909101019A83CD
:103BB00089831B82DD82CC822E83CE0101967FCF4A
:103BC000809590958C0D9D1DACCFF62E662309F443
:103BD0009CCF75132EC034132CC02091050120FDFD
:103BE0001FC0822F82958F70D9F0D80115962C9323
:103BF00015978F3049F08F5F982F9295907F822F85
:103C00008F70892B15968C93C8010E947A1B86E0D1
:103C1000F801A0E0B1E001900D928A95E1F793CF11
:103C200086E0F801A0E0B1E001900D928A95E1F7FD
:103C30003CC04D875E878D859E850E94E11B81116A
:103C400040CF80910501816080930501C8010E94E9
:103C50007A1B2BC0662309F458CF4D875E878D856C
:103C60009E850E94E11BF82E882309F44ECF86E042
:103C7000F801A0E0B1E001900D928A95E1F780E0B3
:103C800091E00E94D9170E94341C5DCF811139CF79
:103C90000CC0243031050CF038CF9F7009F431CFBF
:103CA000F8019581907F09F02CCF8F2D62960FB689
:103CB000F894DEBF0FBECDBFDF91CF911F910F9162
:103CC000FF90EF90DF90CF9008951F93CF93DF93F5
:103CD000CDB7DEB72C970FB6F894DEBF0FBECDBFC1
:103CE0004F83588769877A878B879C87CE01079691
:103CF0000E948F1C882369F08F8198852A853B85D7
:103D0000232BF1F19F3F09F063C08F3F09F060C0A2
:103D100037C086E0FE013796DE01119601900D92C4
:103D20008A95E1F76F817885EA85FB85309741F1C7
:103D30007F3F11F46F3F21F12091CF0030E0C901A6
:103D40000196877099274091CE0050E0841795071F
:103D500009F447C069837A83FD83EC8396E0929FE0
:103D6000D001939FB00D1124A053BF4FFE01319697
:103D700001900D929A95E1F78093CF000E94051C67
:103D800016E08091CE009091CF008917C1F1189F65
:103D9000C001112480539F4F0E948F1C882379F10A
:103DA000E091CE001E9FF0011124E053FF4F4081AF
:103DB000518162817381848195810E94F51B80917C
:103DC000CE0090E00196877099278093CE00D9CFDE
:103DD0004F81588569857A858B859C850E94F51B66
:103DE000CFCF0E94BB1B1092CF001092CE00E0E01C
:103DF000F1E086E0DF011D928A95E9F7C1CF2C96AC
:103E00000FB6F894DEBF0FBECDBFDF91CF911F91EB
:103E10000895EF92FF920F931F93CF93DF938C013E
:103E2000892B09F46CC0F12CEE24E394E80121966F
:103E3000F8018491843740F4843008F051C0813017
:103E400081F0823019F15BC0853709F444C0A8F1D4
:103E50009CE7980F903708F052C08F770E94C418E3
:103E600041C00E5F1F4FFE01C49180E28C0F88306D
:103E700048F4C7708E2D01C0880FCA95EAF70E94DA
:103E8000932114C08C2F0E94DF172DC00E5F1F4F8F
:103E9000FE01C49180E28C0F883058F4C7708E2DDB
:103EA00001C0880FCA95EAF70E9499210E94BC219F
:103EB0001AC08C2F0E94C41816C00E5F1F4FFE013F
:103EC000C491CC2381F087EB9BE00197F1F700C010
:103ED0000000C150F6CF0E5F1F4FFE01F49003C0EB
:103EE0000E94DF178E018F2D882309F49FCFE7EB07
:103EF000FBE03197F1F700C000008150F5CFDF9172
:103F0000CF911F910F91FF90EF90089508950C9419
:103F1000861F0E94871F60935501709356018093FE
:103F20005701909358010C94A11B08950C94891F7C
:103F30000F931F9300915501109156012091570145
:103F400030915801602B712B822B932B1F910F9175
:103F50000C94891F0F931F930091550110915601E6
:103F600020915701309158016023712382239323BC
:103F70001F910F910C94891F0F931F93009155016E
:103F800010915601209157013091580160277127F7
:103F9000822793271F910F910C94891F08950C94E9
:103FA000CE1F0E94CF1F60935101709352018093E6
:103FB0005301909354010C94A11B60E070E0CB017D
:103FC0000C94D11F0F931F9341E050E060E070E02C
:103FD0008A019B0104C0000F111F221F331F8A9505
:103FE000D2F7C901B8011F910F910C94D11F0F9303
:103FF0001F9341E050E060E070E004C0440F551FA3
:10400000661F771F8A95D2F78091510190915201D6
:10401000A0915301B09154018A019B01082B192BE7
:104020002A2B3B2BC901B8011F910F910C94D11F72
:104030000F931F9341E050E060E070E004C0440F34
:10404000551F661F771F8A95D2F74095509560954A
:1040500070958091510190915201A0915301B091BE
:1040600054018A019B01082319232A233B23C901F8
:10407000B8011F910F910C94D11F0F931F9341E032
:1040800050E060E070E004C0440F551F661F771FCA
:104090008A95D2F78091510190915201A0915301DC
:1040A000B09154018A019B01082719272A273B2731
:1040B000C901B8011F910F910C94D11F0F931F9349
:1040C00000915101109152012091530130915401FE
:1040D000602B712B822B932B1F910F910C94D11F6E
:1040E0000F931F93009151011091520120915301A0
:1040F0003091540160237123822393231F910F91E8
:104100000C94D11F0F931F930091510110915201F4
:104110002091530130915401602771278227932702
:104120001F910F910C94D11F08952FE0929F800D45
:104130001124A82FA695A695A695877051E001C0D9
:10414000550F8A95EAF785E0A89FD001112420E059
:1041500030E070E0F901EA0FFB1FEA5FFE4F40819B
:10416000CB01022E02C0969587950A94E2F78170E2
:104170009927819584278523842780832F5F3F4F4C
:104180002530310539F708952FE0929F800D1124D5
:10419000682F669566956695982F977085E0689F5D
:1041A000B001112440E050E080E0FA01E60FF71F73
:1041B000EA5FFE4F208130E0092E02C03695279538
:1041C0000A94E2F721703327042E01C0220F0A94CB
:1041D000EAF7822B4F5F5F4F4530510531F7089565
:1041E000BF92CF92DF92EF92FF920F931F93CF93E4
:1041F000DF938C01C0905501D0905601E09057019B
:10420000F09058018091510190915201A091530179
:10421000B0915401C82AD92AEA2AFB2ACFE1D0E07A
:10422000D701C6010C2E04C0B695A7959795879522
:104230000A94D2F780FF07C0BC2EB8018C2F0E94D1
:10424000DA0E019719F4219758F7B12C8B2DDF91D5
:10425000CF911F910F91FF90EF90DF90CF90BF9083
:104260000895CF93DF93EC010E94F020BE010E94DD
:10427000DA0EDF91CF9108951F93CF93DF93EB0177
:104280009091CD00992321F0CB010E94312113C0E0
:10429000882349F0CB010E94F020182F682FCE010F
:1042A0000E94952004C0CB010E94C420182FBE019B
:1042B000812F0E94DA0EDF91CF911F910895809196
:1042C0005901859585958595089580915901877047
:1042D000089590915901977081E009F480E0089564
:1042E00080916501089590916501892B8093650106
:1042F00008958095909165018923809365010895C3
:1043000010926501089590916401892B8093640156
:1043100008958095909164018923809364010895A4
:1043200010926401089590916301892B8093630139
:104330000895809590916301892380936301089586
:1043400010926301089580915A01089508950C9484
:10435000A62190915A01981721F080935A010C944C
:10436000A721089580915A01882329F010925A01BB
:1043700080E00C94A7210895E0916C00F0916D000D
:10438000809165018083E0916C00F0916D009081D7
:1043900080916401892B8083E0916C00F0916D0025
:1043A000908180916301892B808380915A018823B9
:1043B00081F0E0916C00F0916D009081892B8083F9
:1043C00080916C0090916D000E94A12281110E9449
:1043D000B22180916C0090916D000C942E1608957E
:1043E0000C94EF2198E0899F90011124262B2093B3
:1043F00059010E94F71F80915901859585958595F2
:104400000C94F0211092590180E00C94F02120913D
:1044100059018095822380935901982F977079F4E0
:1044200030E0482F082E000C550B2417350739F0C3
:104430008595859585950E9418200C9402220895F3
:1044400080E090E00E94723021E08D3E9E4F09F0A6
:1044500020E0822F089582E090E00C946430682F71
:1044600082E090E00C94783083E090E00C9464302B
:10447000682F83E090E00C94783084E090E00C9416
:104480006430682F84E090E00C947830AB01BC017C
:104490008FE090E00C948930AB01BC0183E190E0A7
:1044A0000C94893060E070E0CB010C944C2260E009
:1044B00070E0CB010E9446220C9452226DEE7EEFFA
:1044C00080E090E00E94953060E082E090E00E9401
:1044D000783060E083E090E00E94783010925501DF
:1044E00010925601109257011092580160E084E03A
:1044F00090E00E94783060E085E090E00E947830A3
:1045000060E086E090E00E9478306FEF87E090E016
:104510000E94783040E050E0BA0188E090E00E94CC
:10452000893060E08DE090E00E94783040E050E01B
:10453000BA0188E190E00E9489300C9457220C94D3
:104540005E22FC01329697E080E0915029F02191A3
:104550002223D9F38F5FF9CF08959C01FC01329695
:104560009FEF80E04191461789F09F3F19F4411178
:1045700001C0982F8F5F8630A9F79F3F39F0F9016E
:10458000E90FF11D97FDFA95628308950895FC01E6
:10459000329608962081261301C010823196E817C2
:1045A000F907C1F708950C94AD220C94C722029626
:1045B00026E0FC0111922A95E9F708958BE083BF6C
:1045C0008BEB8CBF82E089BF08952FB7F894809160
:1045D0003D0290913E02A0913F02B09140022FBF58
:1045E00008952FB7F89460913D0270913E0280913A
:1045F0003F02909140022FBF0895CF92DF92EF9239
:10460000FF920F931F932FB7F89440913D02509162
:104610003E0260913F02709140022FBF6A017B0110
:10462000EE24FF248C0120E030E0C016D106E20623
:10463000F30610F4415051099A01281B390BC901A6
:104640001F910F91FF90EF90DF90CF900895789495
:104650001F920F920FB60F9211248F939F93AF93D7
:10466000BF9380913D0290913E02A0913F02B09194
:1046700040020196A11DB11D80933D0290933E0220
:10468000A0933F02B0934002BF91AF919F918F9151
:104690000F900FBE0F901F90189560E081E090E0A2
:1046A0000E949B3087E090EBDC0180938602909320
:1046B0008702A0938802B09389029CE088E10FB63C
:1046C000F894A89581BD0FBE91BDFFCFAF92BF9268
:1046D000CF92DF92EF92FF920F931F93CF93C0E0A0
:1046E000CC24C394D12CE82EF12C8C2F0E947C0B6F
:1046F0005C0100E010E09601002E02C0220F331F83
:104700000A94E2F72A213B21232B31F40F5F1F4F3C
:104710000F30110581F70AC0602F7C2F80E00E94C6
:10472000C00EE816F90691F781E004C0CF5FC830EB
:10473000E1F680E0CF911F910F91FF90EF90DF9015
:10474000CF90BF90AF900895CF93C82F8CE20E9476
:104750006623882321F08C2FCF910C94662380E070
:10476000CF910895CF930E942022811102C00E9410
:104770009F2281EE96E00E94E208C5E6C15049F012
:104780000E94210B8FE295E70197F1F700C000002E
:10479000F5CF8AED96E00E94E20889E20E94A42308
:1047A00081110FC18AE20E94A42381110E949F22DD
:1047B00085E00E94A42381110E944D230E942B2298
:1047C0008093660187E00E94A4238823A9F18BE1EE
:1047D0000E94A423882351F08091660181FB222747
:1047E00020F991E0922790FB81F90EC08EE00E94A3
:1047F000A423882361F08091660182FB222720F99F
:1048000091E0922790FB82F98093660115C080E1C8
:104810000E94A42390916601882341F093FB2227F4
:1048200020F981E0822780FB93F904C0892F8095CD
:1048300080FB90F990936601809166010E942F227F
:104840000E943D2290E0909342028093410280EECC
:104850000E94A423882341F080914102982F9095D3
:1048600090FB80F98093410289E30E94A42388236E
:1048700059F08091410281FB222720F991E0922793
:1048800090FB81F98093410282EE0E94A423882349
:1048900059F08091410282FB222720F991E0922772
:1048A00090FB82F98093410286EE0E94A423882324
:1048B00059F08091410283FB222720F991E0922751
:1048C00090FB83F98093410283EE0E94A423882306
:1048D00059F08091410284FB222720F991E0922730
:1048E00090FB84F98093410285E30E94A4238823EE
:1048F00059F08091410285FB222720F991E092270F
:1049000090FB85F98093410281E30E94A4238823D0
:1049100059F08091410286FB222720F991E09227ED
:1049200090FB86F98093410281E10E94A4238823B1
:1049300059F08091410287FB222720F991E09227CC
:1049400090FB87F980934102809141020E944122AD
:1049500087E20E94A423C82F8EE10E94A423811124
:10496000C2608FE10E94A4238111C46080E20E9492
:10497000A4238111C86081E20E94A4238111C06137
:1049800082E20E94A4238111C06283E20E94A423D8
:104990008111C06484E20E94A423882311F0C068BE
:1049A00002C0CC2329F08C2F0E9438226C2F03C028
:1049B0000E943422682F70E080E090E0CF910C9448
:1049C000961FCF9108958091690180FF0BC060917F
:1049D000710085E0689FB001112475956795759504
:1049E00067952BC081FF09C06091710085E0689FC9
:1049F000B00111247595679520C082FF07C06091B2
:104A0000710085E0689FB001112417C090916A0180
:104A10009923D1F060917000961788F7209171006A
:104A200085E0289F90011124929FA001939F500D33
:104A3000112470E0CA010E943D306038710540F4D5
:104A40006115710539F002C065E070E0862F0895A8
:104A50008FE7089581E008958091690180FF08C083
:104A600060916F0070E0759567957595679521C0A9
:104A700081FF06C060916F0070E07595679519C061
:104A800082FF04C060916F0070E010C090916A01D5
:104A90009923C1F060916E009617A0F780916F0086
:104AA000899FC001112470E00E943D30603871057B
:104AB00028F46115710521F0862F08958FE7089578
:104AC00081E0089561E070E0F4CF803F21F40E941E
:104AD000E324819504C0813F29F40E94E32480935C
:104AE0006D010895823F21F40E94E324819504C062
:104AF000833F29F40E94E32480936C010895893F49
:104B000019F40E942C2505C08A3F31F40E942C25FF
:104B1000819580936E0108958B3F21F40E942C258E
:104B2000819504C08C3F29F40E942C2580936F014D
:104B30000895843F21F480916B01816017C0853F07
:104B400021F480916B01826011C0863F21F4809135
:104B50006B0184600BC0873F21F480916B018860FA
:104B600005C0883F31F480916B01806180936B01B7
:104B700008958D3F21F48091690181600BC08E3FC3
:104B800021F480916901826005C08F3F29F48091F2
:104B900069018460809369010895803F39F48091B0
:104BA0006D0187FF6CC010926D0169C0813F29F4CF
:104BB00080916D011816BCF362C090916C01823F28
:104BC00029F497FF5CC010926C0159C0833F19F41F
:104BD0001916CCF354C0893F41F480916E01181628
:104BE0000CF04DC010926E014AC08A3F29F48091AA
:104BF0006E0187FF44C0F6CF8B3F39F480916F017F
:104C000087FF3DC010926F013AC08C3F29F480911C
:104C10006F011816BCF333C0843F21F480916B01FF
:104C20008E7F17C0853F21F480916B018D7F11C06D
:104C3000863F21F480916B018B7F0BC0873F21F46D
:104C400080916B01877F05C0883F31F480916B01B3
:104C50008F7E80936B0113C08D3F21F48091690199
:104C60008E7F0BC08E3F21F4809169018D7F05C03E
:104C70008F3F29F4809169018B7F80936901809136
:104C80006C0181110EC080916D0181110AC080916B
:104C90006E01811106C080916F01811102C01092D6
:104CA0006A0108958091660183FF7EC08DE197E0DF
:104CB0000E94E20880916B011F928F9388E197E038
:104CC0009F938F930E947B0986E197E00E94E20800
:104CD00080916C01282F082E000C330B3F938F938B
:104CE00083E197E09F938F930E947B0981E197E096
:104CF0000E94E20880916D01282F082E000C330BD2
:104D00003F938F938EE097E09F938F930E947B0950
:104D10008CE097E00E94E20880916E01282F082E17
:104D2000000C330B3F938F9389E097E09F938F9311
:104D30000E947B0987E097E00E94E20880916F0162
:104D4000282F082E000C330B3F938F9384E097E0BD
:104D50009F938F930E947B0981E097E00E94E20875
:104D600080916A011F928F938EEF96E09F938F93AD
:104D70000E947B098CEF96E00E94E2088091690115
:104D80001F928F9389EF96E09F938F930E947B09E8
:104D900086EF96E00E94E2088DB79EB74C960FB65C
:104DA000F8949EBF0FBE8DBF8BE691E00E947716F0
:104DB0000E94E522909368018093670108951F93F4
:104DC000CF93DF9380916701909168010E94FD224B
:104DD000AC0190916A01992321F02091720030E09A
:104DE00006C0209173008AE0289F90011124421789
:104DF000530708F47BC080916C01C0916D01D09184
:104E00006E0110916F01811107C0C1116BC0D111EA
:104E100069C0111167C06AC09F3F19F09F5F9093EE
:104E20006A01181624F40E94E32480936C01809197
:104E30006C0187FF05C00E94E324819580936C017B
:104E40001C1624F40E94E32480936D0180916D016F
:104E500087FF05C00E94E324819580936D01309106
:104E60006C013323E1F020916D012223C1F045EB69
:104E70003403C0011124892F990F990B009709F46D
:104E800081E080936C0135EB2303C0011124892F4D
:104E9000990F990B009709F481E080936D011D161D
:104EA00024F40E942C2580936E0180916E0187FF6F
:104EB00005C00E942C25819580936E01111624F463
:104EC0000E942C2580936F0180916F0187FF05C0A0
:104ED0000E942C25819580936F01DF91CF911F91C6
:104EE0000C9452269F3F09F099CFA1CFDF91CF912B
:104EF0001F910895EBE6F1E085E0DF011D928A95B0
:104F0000E9F710926A0110926901089580E499E02E
:104F10000E94E2081F9281E08F931F9285E08F9399
:104F200082EF98E09F938F930E947B090F900F90E0
:104F30000F900F900F900F9008958330E9F128F4AF
:104F4000813061F0823009F10895853009F462C042
:104F500008F449C0863009F474C008958091730044
:104F6000262F30E0280F311D2F3F310524F4680F24
:104F70006093730003C08FEF809373008091730080
:104F80001F928F938BE298E072C080917200262F5F
:104F900030E0280F311D2F3F310524F4680F609356
:104FA000720003C08FEF80937200809172001F9295
:104FB0008F9389E198E05BC080917100262F30E0EB
:104FC000280F311D2F3F310524F4680F60937100C5
:104FD00003C08FEF80937100809171001F928F93B7
:104FE00086E098E044C080917000262F30E0280FC2
:104FF000311D2F3F310524F4680F6093700003C00A
:105000008FEF80937000809170001F928F9381EFDB
:1050100097E02DC080916F00262F30E0280F311DC2
:105020002F3F310524F4680F60936F0003C08FEFAA
:1050300080936F0080916F001F928F9388ED97E0AF
:1050400016C080916E00262F30E0280F311D2F3FB3
:10505000310524F4680F60936E0003C08FEF8093D6
:105060006E0080916E001F928F938DEB97E09F935F
:105070008F930E947B090F900F900F900F900895CF
:10508000833081F128F4813059F08230D1F00895D5
:10509000853009F449C0B8F1863009F456C0089546
:1050A00080917300681720F4861B8093730002C000
:1050B00010927300809173001F928F938EEA97E095
:1050C00054C080917200681720F4861B8093720090
:1050D00002C010927200809172001F928F938CE92F
:1050E00097E043C080917100681720F4861B80937D
:1050F000710002C010927100809171001F928F9315
:1051000089E897E032C080917000681720F4861B10
:105110008093700002C010927000809170001F9206
:105120008F9384E797E021C080916F00681720F487
:10513000861B80936F0002C010926F0080916F00F9
:105140001F928F938BE597E010C080916E006817D7
:1051500020F4861B80936E0002C010926E00809136
:105160006E001F928F9380E497E09F938F930E942D
:105170007B090F900F900F900F900895CF93C82F39
:105180001F928F9385E49AE09F938F930E947B09EF
:1051900081E090E0A0E0B0E0BC01CD0104C0660F6A
:1051A000771F881F991FCA95D2F70E94961F0F90EC
:1051B0000F900F900F90CF910C94BB1BCF93873221
:1051C000B0F58E3108F02CC28E3009F4C0C100F564
:1051D000873009F48DC1A8F4863009F027C2809188
:1051E0006601817F8E7F8093660181E89BE00E944B
:1051F000E2088AE19FE00E94E20881E08093710169
:1052000075C1883009F43FC08B3009F46BC10EC200
:10521000863109F4E2C120F4803109F4ACC106C240
:10522000893109F4C3C18B3109F47DC1FFC18833D1
:1052300009F458C150F4893209F4F4C1853309F4F2
:10524000F1C1873209F4EEC1F1C1833409F4EAC136
:1052500028F48A3308F4EAC18953E5C1883409F097
:10526000E5C10E94BB1B8EEF9EE00E94E2089FEF0B
:105270002EE984E2915020408040E1F700C0000018
:105280000E944D2333C18EE19FE00E94E20880E836
:105290009EE00E94E2080E9434221F928F938DE7C5
:1052A0009EE09F938F930E947B098BE79EE00E9474
:1052B000E2080E942B22C82F88E69EE00E94E208A6
:1052C0001F92CF9383E69EE09F938F930E947B096A
:1052D00081E69EE00E94E20887E59EE00E94E208E7
:1052E0008C2F81701F928F9384E59EE09F938F9304
:1052F0000E947B0982E59EE00E94E20888E49EE02D
:105300000E94E208C1FB882780F91F928F9385E4F1
:105310009EE09F938F930E947B0983E49EE00E940E
:10532000E20887E39EE00E94E208C2FB882780F93A
:105330001F928F9384E39EE09F938F930E947B093B
:1053400082E39EE00E94E20889E29EE00E94E20879
:10535000C3FBCC27C0F91F92CF9386E29EE09F93B8
:105360008F930E947B0984E29EE00E94E2080E94E3
:105370003D22C82F80E19EE00E94E2081F92CF9359
:105380008BE09EE09F938F930E947B0989E09EE0D3
:105390000E94E20880EF9DE00E94E2088C2F81705D
:1053A0001F928F938DEE9DE09F938F930E947B09B8
:1053B0008DB79EB780960FB6F8949EBF0FBE8DBF77
:1053C0008BEE9DE00E94E20884ED9DE00E94E208E1
:1053D000C1FB882780F91F928F9381ED9DE09F93F9
:1053E0008F930E947B098FEC9DE00E94E2088DEB79
:1053F0009DE00E94E208C2FB882780F91F928F93EC
:105400008AEB9DE09F938F930E947B0988EB9DE040
:105410000E94E20886EA9DE00E94E208C3FB88271A
:1054200080F91F928F9383EA9DE09F938F930E9450
:105430007B0981EA9DE00E94E20887E99DE00E94E5
:10544000E208C4FB882780F91F928F9384E99DE0CE
:105450009F938F930E947B0982E99DE00E94E2085E
:1054600080E89DE00E94E208C5FB882780F91F9232
:105470008F938DE79DE09F938F930E947B098BE72D
:105480009DE00E94E2088FE59DE00E94E208C6FBD5
:10549000882780F91F928F938CE59DE09F938F93CF
:1054A0000E947B098AE59DE00E94E20882E59DE07A
:1054B0000E94E208C7FBCC27C0F91F92CF938FE46C
:1054C0009DE09F938F930E947B098DE49DE00E9455
:1054D000E2088DB79EB74C960FB6F8949EBF0FBEEC
:1054E0008DBF04C088EA9BE00E94E208C1E0A3C02F
:1054F00080916601C82FC095C170C0FB80F9809370
:105500006601CC2329F082EF9EE00E94E20893C05E
:1055100085EE9EE00E94E20880916601897F877F88
:1055200080936601E3CF9091660191FBCC27C0F98F
:1055300081E0C827892FC0FB81F980936601CC23C5
:1055400019F088ED9EE027C08AEC9EE0CDCF9091C7
:10555000660192FBCC27C0F981E0C827892FC0FBE8
:1055600082F980936601CC2319F08BEB9EE013C087
:105570008BEA9EE0B9CF9091660193FBCC27C0F9EE
:1055800081E0C827892FC0FB83F980936601CC2373
:1055900051F08FE99EE00E94E208809166018160EF
:1055A0008093660148C082E99EE09ECF82E79BE03F
:1055B0000E94E2088FE59BE00E94E20887E29BE000
:1055C0000E94E20884EF9AE00E94E20884EB9AE0ED
:1055D0000E94E20889E89AE087CF8BE79AE00E9470
:1055E000E2080E9422161F928F9381E69AE09F9311
:1055F0008F930E947B090E94F1229F938F937F9348
:105600006F938AE49AE09F938F930E947B098DB7F2
:105610009EB70A960FB6F8949EBF0FBE8DBF66CF99
:105620008D5101C080E00E94BE2860CF80E99EE0DD
:105630000E94E208C0E08C2FCF91089580E0089589
:1056400080E008958E518A3030F4E82FF0E0E05881
:10565000FF4F8081089580E00895CF93C82F8091F7
:105660007101813059F020F0823009F445C039C110
:105670000E947021823209F036C104C00E9470215C
:10568000823261F48C2F0E941E2B811104C08C2F5A
:105690000E94DE282FC081E090E02CC08C2F0E9459
:1056A000202B811126C0C431E1F070F4CB3081F0A1
:1056B000C031D1F40E9486278DE39AE00E94E2086F
:1056C00082E08093710115C0C93259F0C83361F48A
:1056D00081E89BE00E94E20881E49AE00E94E208EF
:1056E00008C01092710101C18BE39AE00E94E208A8
:1056F000FCC081E08170FBC0C43228F5CE3108F0D7
:10570000C1C0CB30A1F1D0F4C73009F0D0C08EE1D8
:105710008093730082E3809372008AE0809371002B
:1057200084E18093700088E080936F0088E280932A
:105730006E0081EE98E00E94E208BCC0C33149F1DE
:10574000C431C1F0B4C0CB3409F4A6C028F4C932C6
:1057500089F0C83361F0ABC0C13509F49BC0C235D4
:1057600009F496C0CE3409F0A2C06AE09BC00E9442
:105770008627A0C080917001882319F010927001D3
:1057800099C08EEE98E00E94E20881E0809371015A
:10579000AEC088EC98E00E94E20886EB98E00E9498
:1057A000E208809173001F928F9383EB98E09F93A0
:1057B0008F930E947B0981EB98E00E94E2088FE9B9
:1057C00098E00E94E208809172001F928F938CE90A
:1057D00098E09F938F930E947B098AE998E00E944A
:1057E000E2088BE898E00E94E208809171001F9225
:1057F0008F9388E898E09F938F930E947B0986E8B7
:1058000098E00E94E20885E798E00E94E208809113
:1058100070001F928F9382E798E09F938F930E946E
:105820007B0980E798E00E94E2088BE598E00E94FF
:10583000E20880916F001F928F9388E598E09F9314
:105840008F930E947B0986E598E00E94E2088FE32F
:1058500098E00E94E20880916E001F928F938CE383
:1058600098E09F938F930E947B098AE398E00E94BF
:10587000E2088DB79EB748960FB6F8949EBF0FBE4C
:105880008DBF18C08C2F0E94222B8093700112C0F4
:1058900061E003C061E006C06AE0809170010E948F
:1058A0009D2708C0809170010E94402803C08FEDA1
:1058B00098E013C080917001882369F01F928F9344
:1058C00089ED98E09F938F930E947B090F900F9032
:1058D0000F900F9004C086ED98E00E94E20881E0EE
:1058E00006C01092710180E002C080E003CFCF912A
:1058F00008950E94E5228C010E94B5160E94BB16F5
:105900000E94D72D0E941D168091660180FF04C061
:1059100084E39FE00E94E2080E9416308B9A90E098
:10592000915041F0A895E7EBFBE03197F1F700C00B
:105930000000F6CF8B9878948091660180FF1CC0A0
:1059400089E29FE00E94E20817C0C8010E94FD2280
:105950000697A0F0C1E080915D028823B1F3109218
:105960005D020E94E5228C010E94092F8091630252
:10597000811107C00E94362DC0E0EDCFC111EBCFE1
:10598000F3CF80914E0284FFF5CF0E94ED16F2CF47
:10599000809104020895CF93DF9300D01F92CDB77A
:1059A000DEB720917401309175018217930789F059
:1059B000909375018093740124E029839B838A83EB
:1059C00080917A0284FF05C063E0CE0101960E94B7
:1059D000052F0F900F900F90DF91CF910895CF93E7
:1059E000DF9300D01F92CDB7DEB7209172013091C6
:1059F00073018217930789F090937301809372016A
:105A000023E029839B838A8380917A0284FF05C0E7
:105A100063E0CE0101960E94052F0F900F900F902A
:105A2000DF91CF910895CF93DF9300D000D000D0C5
:105A3000CDB7DEB7FC0182E0898395E0DE011296E6
:105A400001900D929A95E1F780917A0284FF05C04A
:105A500066E0CE0101960E94052F26960FB6F894B7
:105A6000DEBF0FBECDBFDF91CF910895CF93DF93FF
:105A7000CAE0D0E080914E0284FF63C08091810132
:105A800090918201981709F467C028E0829FC001B5
:105A9000112468E08D579E4F0E94012F8091810153
:105AA00090E001968F709927809381018091660123
:105AB00082FF52C080ED9FE00E94E2088091810148
:105AC0001F928F938DEC9FE09F938F930E947B0991
:105AD0008AEC9FE00E94E208809182011F928F93DE
