:100000000C9426020C946D020C946D020C946D02FB
:100010000C946D020C946D020C946D020C946D02A4
:100020000C946D020C946D020C94AF1B0C94811C0B
:100030000C94B2150C946D020C946D020C946D022C
:100040000C946D020C946D020C946D020C946D0274
:100050000C946D020C941A160C946D020C946D02A3
:100060000C946D020C946D020C946D020C946D0254
:100070000C946D020C946D020C946D020C946D0244
:100080000C946D020C946D020C946D020C946D0234
:100090000C946D020C946D020C946D020C946D0224
:1000A0000C946D020C946D020C946D02B803BA03AB
:1000B000C503BC03BE03C003C203C403C703C90313
:1000C000CB03D603CD03CF03D103D303D503D8038A
:1000D000880B880BBA0BBA0BFA0B6B0D6B0D6B0D03
:1000E0001A0C6B0DC70CC70C370D400D6B0D640D52
:1000F000D40CD40CD40CD40CD40CD40CD40CD40C00
:10010000D40CD40CD40CD40CD40CD40CD40CD40CEF
:10011000E30CF10CF80CFF0C090DF60DF60D080EB2
:10012000080EFF0D080E080E080EF60DF60D040E53
:10013000080E080E040EEE1C151D071E151D071EC9
:10014000611D841D071EDA1DE91D29001E001F0008
:100150002000210022002300240025002600270083
:100160002D002E0031002A0035002B0014001A004B
:100170000800150017001C0018000C0012001300E6
:100180002F003000000031004C0039000400160040
:10019000070009000A000B000D000E000F003300DD
:1001A00034003200000028004B00E10064001D0014
:1001B0001B00060019000500110010003600370072
:1001C0003800E500E50052004E00E000E300E200E8
:1001D0000000000000002C00000000000000E6000D
:1001E0000151E400500051004F0035003A003B003F
:1001F0003C003D003E003F00400041004200430003
:10020000440045000100460001000100010001001A
:100210000100005C0100010001000100010001007B
:10022000010001000000010049000100010001007F
:1002300001000100010001000100010001000100B6
:1002400001000100000001004A000100010001005E
:10025000010001000100010001000100BD5CBE5C65
:100260000100A800A800A9004D0001000100010044
:10027000000000000000BF5C000000000000010062
:10028000010001000100AA000100010001000100BD
:100290000100010001000100010001000100010056
:1002A0000100010001000100010001000100010046
:1002B0000100010001000100010001000100010036
:1002C0000100010000000100010001000100010027
:1002D0000100010001000100010001000100010016
:1002E0000100010000000100010001000100010007
:1002F00001000100010001000100010001000100F6
:1003000001000100010001000100010001000100E5
:1003100000000000000001000000000000000100DB
:100320000100010001000100010004033000000091
:10033000080332003600380000000E034E006F0044
:1003400078006100720079000000040309040902CA
:100350003B00020100A0FA090400000103010100B2
:100360000921110100012240000705810308000A4C
:10037000090401000103000000092111010001220C
:1003800071000705820320000A120110010000001D
:1003900008584E440001000102030105010980A133
:1003A0000185031601002603001A81002A830075C7
:1003B0001095018100C0050C0901A10185041601F9
:1003C00000269C021A01002A9C02751095018100EA
:1003D000C005010906A1018505050719E029E715F2
:1003E0000025019508750181020508190129059567
:1003F0000575019102950175039101050719002901
:10040000EF1500250195F075018102C0050109066F
:10041000A101050719E029E71500250195087501D7
:1004200081029501750881010508190129059505C5
:10043000750191029501750391010507190029FFC6
:10044000150026FF00950675088100C011241FBE07
:10045000CFEFDAE0DEBFCDBF04B603FE27C0809148
:10046000220290912302A0912402B09125028730AC
:10047000904BA740B04BD1F410922202109223026D
:10048000109224021092250214BE84B7877F84BF85
:100490000FB6F894A8958091600088618093600001
:1004A000109260000FBEE0E0F8E3099511E0A0E0D3
:1004B000B1E0EAECFDE302C005900D92A232B10773
:1004C000D9F722E0A2E2B1E001C01D92A232B20748
:1004D000E1F70E94D3180C94E31E0C9400000895D9
:1004E000089581E0089581FF03C0269A2E9A089509
:1004F00026982E98089581E008950C9471020C942A
:100500003E07CF92DF92EF92FF92843030F4811158
:1005100005C090918000977F04C083E09091800097
:10052000986090938000282F30E0AFEFBFEF0E94DB
:10053000871E23E030E040E050E00E945F1E2C3731
:1005400084E138074105510530F4C90169E070E0E4
:100550000E944B1E29C0DA01C9018A50974DAF4F46
:10056000BF4F6627782F892F9A2F25EF38E241E079
:1005700050E00E945F1E69017A01CA01B9010E9420
:100580003B1E9B01AC01C701B6010E943B1EBB276D
:10059000A92F982F872F009721E0A207B10511F00E
:1005A000BC0102C06FEF7FEF70938D0060938C00F1
:1005B000FF90EF90DF90CF900895279A2F988AE0D0
:1005C0008093800089E1809381008FEF9FEF90936B
:1005D0008700809386000C947D160E944B14811135
:1005E00002C00E94C9140E94DD020C943C070C94C6
:1005F00073020C94F70208950E94E60D0E94FB021C
:100600002FEF84E39CE0215080409040E1F700C050
:1006100000000C944016FF920F931F93CF93DF932B
:100620008C01FC01C081D18180915101811113C0E5
:100630008281882349F0CE010E941B13F82E682F77
:10064000CE010E94C01204C0CE010E94EF12F82E0B
:10065000BE018F2D04C0CE010E941B13BE010E945B
:100660008C04EC01B8010E947D02882309F449C181
:10067000C63DFCE5DF0709F4ABC0B0F4C531ECE5DD
:10068000DE0768F4C230FCE5DF0708F04FC0C11593
:100690008CE5D80701F1C130DC4529F125C1C6310F
:1006A000DC4509F4FAC020C1CB3D8CE5D80771F1D7
:1006B00050F4C73DFCE5DF0709F4ADC0C83DDC459B
:1006C00009F4D0C011C1CC3DECE5DE0731F1CD3DE0
:1006D000DC45A1F009C1F8018281882309F411C128
:1006E0000E94FC020EC1F8018281882309F409C12D
:1006F0008091E90181608093E90103C1F801828161
:10070000882309F4FEC00E94C914FBC0F80182814D
:10071000882309F4F6C080E006C0F80182818823AE
:1007200009F4EFC082E00E947219EBC0F8018281E7
:10073000882309F4DEC00E944B14811102C00E947C
:10074000C9140E945E1490E09093130280931202E9
:10075000FE01E350FC45E231F10530F4EA5AFF4F67
:10076000809112020C94811E80911202816027C038
:10077000826025C0846023C0806121C080621FC068
:1007800080641DC080681BC08460886018C08E7F34
:1007900016C08D7F14C08B7F12C08F7E10C08F7DDE
:1007A0000EC08F7B0CC08F770AC08B7F877F07C0FE
:1007B00087FB222720F991E0922790FB87F980930D
:1007C0001202809112020E9462140E94E60D99C0EA
:1007D000F8018281882351F0109227010E94E415CC
:1007E000909324018093230182E022C0809127010D
:1007F00081110FC080912301909124010E94F01576
:10080000883C910530F486E20E94CE0986E20E947F
:10081000E50A82E024C0F8018281882361F0109209
:1008200028010E94E415909326018093250180E21F
:100830000E94440B66C08091280181110FC08091F5
:100840002501909126010E94F015883C910530F415
:1008500087E20E94CE0987E20E94E50A80E20E94B8
:100860004B0B4FC0F80182818111D9CF80912801B3
:100870008111F4CF80912501909126010E94F015FD
:10088000883C910558F780E20E944B0B88E20E9459
:10089000CE0988E20E94E50A34C00E949B13282FEB
:1008A000F80182814091000150910101882379F083
:1008B0002A7A91E009F490E090932201911102C00C
:1008C00069E201C065E3CA010E9430150AC0809147
:1008D0002201811102C069E201C065E3CA010E94E0
:1008E0003B150E94E7130DC081E0809327018093A0
:1008F0002801C801DF91CF911F910F91FF900C94B7
:100900007B0280E0DF91CF911F910F91FF900895BE
:1009100080E090E008950895E72FF0E095E0899F4A
:10092000E00DF11D112484E0EE0FFF1F8A95E1F721
:10093000E60FF11DEE0FFF1FE65BFE4F85919491D0
:100940000895880F991FFC01E65DFC4F85919491F5
:100950000895CF93DF930E948C040E949C06EC01C3
:10096000811521E5920708F042C0811560E59607E0
:1009700008F031C1883E910500F5803E910508F0F0
:10098000D7C1883A910570F4853A910508F0A6C060
:100990008130910509F4CCC108F47DC1049708F0B9
:1009A000C7C179C18F3B910508F4A3C0803C910574
:1009B00008F471C1805C9109FDC0C11580E3D807BE
:1009C00080F4C11590E2D90708F0F2C0C03FD1050C
:1009D00008F461C1CF3FD10511F008F0A9C1D0657D
:1009E000A7C1C11520E4D20708F0F2C0E7C0811505
:1009F00069E5960760F5C11588E5D80708F037C1A5
:100A0000C11594E5D90778F4C11523E5D20708F09C
:100A100013C1C11562E5D60708F0F8C0DC2FCC275A
:100A2000C16FD06A85C1C11585E5D80708F41AC120
:100A3000C11596E5D90708F02EC18C2F0E94190721
:100A40008F71C82FD0E0DC2FCC27D06271C18D3BD5
:100A50002CE5920709F416C1F0F4CB3B8CE5D807DE
:100A600009F40AC108F00BC1C1152AE5D20708F044
:100A700012C18C2F8F700E94190794E0D695C795EC
:100A80009A95E1F7CF70D0E0DC2FCC27D06A8F7039
:100A9000806EC82B4DC1803C9C4509F4F9C0C13C17
:100AA0008CE5D80760F4CE3B9CE5D90709F4EDC08E
:100AB000CF3BDC4509F0EFC0C0E0D2ED39C1CE013B
:100AC00090568115904208F0E6C08D2F8F710E94DC
:100AD0001907DD27D0628F71D82B2AC1853A91057D
:100AE00009F4DCC0863A910509F0DBC0C2E8D0E425
:100AF0001FC1883A910509F4D7C0893A910509F4D4
:100B0000D6C08A3A910509F4D5C08B3A910509F40B
:100B1000D4C08C3A910509F4D3C08B3B910509F4FC
:100B2000D2C08C3B910509F4D1C08D3A910509F4EE
:100B3000D0C0803B910509F4CFC08E3A910509F4ED
:100B4000CEC08F3A910509F4CDC0813B910509F4DF
:100B5000CCC0823B910509F4CBC0833B910509F4DD
:100B6000CAC0843B910509F4C9C0853B910509F4CD
:100B7000C8C0863B910509F4C7C0873B910509F4BD
:100B8000C6C0883B910509F4C5C0893B910509F4AD
:100B9000C4C08D3B910509F4C3C08E3B910509F497
:100BA000C2C08A3B910509F4C1C0C0E0D4E4C0C012
:100BB000CE019F700E94A104EC01BAC0CE0199271A
:100BC000D3FF03C0EC01D86CB3C0EC01D06CB0C053
:100BD000DF70D06AADC0837021E030E002C0220F28
:100BE000331F8A95E2F73C68CE0174E096958795AD
:100BF0007A95E1F78370382BCF70C695C69580E261
:100C0000C89FE0011124C22BD32B92C04C2F4695D4
:100C1000469590E2499FA0011124C370DD2721E091
:100C200030E0C90102C0880F991FCA95E2F7EC01B4
:100C3000C42BD52BDC687CC04C2F4695469580E2B2
:100C4000489FA0011124C370DD2721E030E0C901D5
:100C500002C0880F991FCA95E2F7EC01C42BD52B6F
:100C6000DA6866C0DC2FCC27C46FD06A61C0DC2F85
:100C7000CC27C06FD06A5CC0C0E0D4ED59C0C0E0E2
:100C8000D5ED56C0C0E0D1ED53C0C0E0D0ED50C0AE
:100C9000C0E0D3ED4DC0C0E0D0E04AC0C1E8D0E430
:100CA00047C0C3E8D0E444C0C2EED4E441C0C9EEBA
:100CB000D4E43EC0CAEED4E43BC0C5EBD4E438C0B3
:100CC000C6EBD4E435C0C3EBD4E432C0C4EBD4E407
:100CD0002FC0C7EBD4E42CC0CCECD4E429C0CDECBD
:100CE000D4E426C0C3E8D5E423C0CAE8D5E420C0D4
:100CF000C2E9D5E41DC0C4E9D5E41AC0C1E2D6E416
:100D000017C0C3E2D6E414C0C4E2D6E411C0C5E201
:100D1000D6E40EC0C6E2D6E40BC0C7E2D6E408C0F3
:100D2000CFE6D4E405C0C0E7D4E402C0CAE2D6E40A
:100D3000CE01DF91CF9108958238910549F1B0F449
:100D40008133910509F458C048F48932910509F4BA
:100D50004EC08A32910509F454C008958533910537
:100D600009F440C08933910599F00895833E9105B7
:100D700029F138F4803E910591F0823E9105A1F071
:100D80000895863E9105F9F0873E910531F1089569
:100D90002091120220FD3AC021FD38C008958091B3
:100DA000120280FD35C032C08091120282FF32C033
:100DB0008091120284FD30C083EE39C0809112020E
:100DC00082FD28C0F5CF8091120283FF27C0809159
:100DD000120284FD21C087EE2AC08091120283FD99
:100DE0001DC0F5CF8091120285FD1AC01BC08091F5
:100DF000120285FD17C014C08091120286FD14C036
:100E000015C08091120286FD11C00EC080EE0FC089
:100E100089E30DC082EE0BC080E009C086EE07C0FA
:100E200089E205C085E303C08AE201C081E390E066
:100E300008959091120292FF0DC0282F287128303A
:100E400019F4877F846006C0282F2471243011F4A0
:100E50008B7F886093FF0DC0282F2871283119F4EB
:100E6000877E846106C0282F2471243111F48B7E83
:100E7000886194FD877E08950C946F020C94700233
:100E8000EDE1F1E041E050E025E02E0F9191A92F36
:100E9000A295AF70B0E091963C9191979F70BA0186
:100EA00002C0660F771F9A95E2F7CB0180958323E6
:100EB00091968C932E13EACFADE0B1E041E050E083
:100EC00020E12A0F8D91E82FE295EF70F0E031A13B
:100ED0008F70BA0102C0660F771F8A95E2F7CB01C7
:100EE000962F9095932391A392A1892B82A32A13E5
:100EF000E9CFE3E3F1E0A9E2B1E0119211921D9292
:100F00001D9271E0ED33F707C1F785E00E942C08D0
:100F10000C94ED024F925F927F928F929F92AF92CC
:100F2000BF92CF92DF92EF92FF920F931F93CF93D6
:100F3000DF932DE1422E21E0522EA3E3B1E020E029
:100F400001E010E05D018D909C90119711961C922C
:100F50001E92E20189912E01E82FE295EF70F0E0F8
:100F600031A18F70A80102C0440F551F8A95E2F786
:100F7000CA01342B31A342A1382F3095432342A319
:100F800050EA5A95F1F79DE0C92E91E0D92E40E044
:100F900050E0E60179906E01672D62956F7070E008
:100FA000EB01E8A06D917C911197F12CD72DDF70AA
:100FB00002C0F594E794DA95E2F7E0FC08C0780106
:100FC000042E02C0EE0CFF1C0A94E2F702C0E12CD2
:100FD000F12C6E297F2911967C936E934F5F5F4FA2
:100FE00040315105B1F691A1392331A392A1892B4A
:100FF00082A3129681E0F501408151818416950605
:1010000009F480E0282BF1E0AD33BF0709F09ACF57
:1010100045E069E271E083E391E00E942D080E94BF
:101020007F0281E0DF91CF911F910F91FF90EF90B0
:10103000DF90CF90BF90AF909F908F907F905F9008
:101040004F900895E82FF0E0EE0FFF1FE75DFE4F91
:1010500080819181089508950895FF920F931F93C1
:10106000CF93DF93F82E092F162FD72FC42F2223CB
:1010700049F081E080933F010E94E41590933E0186
:1010800080933D0180913F018823D9F080913D01FB
:1010900090913E010E94F015069798F0EF2DF02FE9
:1010A000A12FBD2F80E090E04C2F50E084179507D2
:1010B00034F4219131912D933D930196F7CF109205
:1010C0003F01DF91CF911F910F91FF900895909371
:1010D0004501809344010895E0914401F091450158
:1010E000309721F00190F081E02D099480E008957F
:1010F000E0914401F0914501309799F020910C0165
:10110000222359F02091120227FF07C0DC012C9105
:1011100011962C93119725E02C930280F381E02DFA
:101120000994089520914201309143018217930759
:1011300071F09093430180934201E0914401F0915A
:101140004501309721F00680F781E02D099408953C
:1011500020914001309141018217930771F09093E3
:10116000410180934001E0914401F09145013097A5
:1011700021F00084F185E02D0994089585B78068F9
:1011800085BF85B7806885BF0895089508950C943C
:10119000C60808950C94C9080E94BE080E94C5089C
:1011A0000C94C70881E008950E94DB150E94400757
:1011B0000E9464160E947D160C94CA084F925F929A
:1011C0007F928F929F92AF92BF92CF92DF92EF92D7
:1011D000FF920F931F93CF93DF93CDB7DEB72A977C
:1011E0000FB6F894DEBF0FBECDBF0E948A070E94E3
:1011F000D208811111C08FEF89838A831B820E94DC
:10120000E4158160782F9D838C8349815A816B819D
:101210008D810E949A0957C097E4C92E91E0D92E7A
:1012200000E010E0AA24A394B12C702E802F0E941D
:1012300022084C01F601419051906F014826592631
:101240004114510431F40F5F1F4F0530110569F748
:10125000D2CF8091E90181FD0E942B0820E030E08F
:101260007501022E02C0EE0CFF1C0A94E2F7C701C2
:1012700084219521892B09F12E837F828E209F2046
:1012800091E0892809F490E098870E94E415816034
:10129000782F9A8789874E815F8168858A850E9429
:1012A0009A09000F111FF801E95BFE4F80819181BF
:1012B000E826F926F182E08206C02F5F3F4F2031F9
:1012C000310571F6C0CF109146010E946C081817C5
:1012D000D9F00E946C08809346012A960FB6F894C4
:1012E000DEBF0FBECDBFDF91CF911F910F91FF9059
:1012F000EF90DF90CF90BF90AF909F908F907F90B6
:101300005F904F900C94F9022A960FB6F894DEBFC6
:101310000FBECDBFDF91CF911F910F91FF90EF9046
:10132000DF90CF90BF90AF909F908F907F905F9015
:101330004F900895CF93DF93CDB7DEB72B970FB6BD
:10134000F894DEBF0FBECDBF4F83588769877A8779
:101350008B87DE01119686E0FD0111928A95E9F7EF
:1013600085E0FE01379601900D928A95E1F749815B
:101370005A816B817C818D819E810E9490102B9679
:101380000FB6F894DEBF0FBECDBFDF91CF910895A9
:10139000FC01808191810E945C130895882309F4E7
:1013A00013C1682F8238C1F40E946C0881FD0CC102
:1013B00069E380910001909101010E9430150E9423
:1013C000E7132FEF81EE94E0215080409040E1F749
:1013D00000C0000069E319C08338F9F40E946C086A
:1013E00080FDF2C063E580910001909101010E94AF
:1013F00030150E94E7132FEF81EE94E021508040DA
:101400009040E1F700C0000063E5809100019091F9
:1014100001010E943B150C94E7138438C1F40E942B
:101420006C0882FDD1C067E48091000190910101B8
:101430000E9430150E94E7132FEF81EE94E02150B7
:1014400080409040E1F700C0000067E4DECF8CEF01
:10145000860F813A38F480910001909101010E9439
:101460003015D9CF80E2860F883048F4677081E06C
:1014700001C0880F6A95EAF70E949E13CCCF8BE5D6
:10148000860F833070F4653A29F0663A31F083E8CC
:1014900090E005C081E890E002C082E890E00C9402
:1014A000920888E5860F873108F08EC0683A09F403
:1014B00045C0693A09F445C06A3A09F445C06B3A37
:1014C00009F445C06C3A09F445C06B3B09F445C0CA
:1014D0006C3B09F445C06D3A09F445C0603B09F422
:1014E00045C06E3A09F445C06F3A09F445C0613B06
:1014F00009F445C0623B09F445C0633B09F445C0AB
:10150000643B09F445C0653B09F445C0663B09F4FA
:1015100045C0673B09F445C0683B09F445C0693BD9
:1015200009F445C06D3B09F445C06E3B09F445C064
:101530006A3B09F445C080E090E044C082EE90E050
:1015400041C089EE90E03EC08AEE90E03BC085EB62
:1015500090E038C086EB90E035C083EB90E032C07D
:1015600084EB90E02FC087EB90E02CC08CEC90E0F7
:1015700029C08DEC90E026C083E891E023C08AE882
:1015800091E020C082E991E01DC084E991E01AC099
:1015900081E292E017C083E292E014C084E292E01C
:1015A00011C085E292E00EC086E292E00BC087E2B5
:1015B00092E008C08FE690E005C080E790E002C0AE
:1015C0008AE292E00C94A8080895882309F45BC08D
:1015D000682F823879F40E946C0881FF54C069E357
:1015E00080910001909101010E9430150E94E71343
:1015F00069E310C08338B1F40E946C0880FF43C0D7
:1016000063E580910001909101010E9430150E94D4
:10161000E71363E580910001909101010E943B1561
:101620000C94E713843879F40E946C0882FF2BC075
:1016300067E480910001909101010E9430150E94A1
:10164000E71367E4E7CF8CEF860F813A18F380E267
:10165000860F883048F4677081E001C0880F6A9572
:10166000EAF70E94A413DCCF8BE5860F833020F4C9
:1016700080E090E00C949208685A673120F480E092
:1016800090E00C94A8080895882321F00E949E13EE
:101690000C94E7130895882321F00E94A4130C945E
:1016A000E71308954F925F926F927F92BF92CF920D
:1016B000DF92EF92FF920F931F93CF93DF937C0102
:1016C000D62FC72FFC01058102950F7012811111D1
:1016D0000E94BB130E949413882379F0112369F0B0
:1016E00080E28D0F883048F082E00E9432140E9420
:1016F000941391E0B82EB92601C0B12CCC2EC2941F
:101700008FE0C822D12CF601E859FF4F0C94811EBE
:101710008C2F807FCF70882311F0C295C07F11235A
:1017200099F0CC2309F48EC180E28D0F883010F03F
:10173000D11104C08C2F0E949E1303C08C2F0E94D5
:10174000AE130E94E7137EC18D2F0E94E50ACC23C1
:1017500009F4C1C180E28D0F883010F0D11104C0AE
:101760008C2F0E94A41303C08C2F0E94B4130E94DC
:10177000E713B1C18C2F807FCF70803211F0C295FA
:10178000C07FDD2319F0D130C9F022C0112371F0E0
:10179000002341F0013031F40E94CE138C2B0E94C3
:1017A000D41399C10E94CE138C2B1DC0002319F0B5
:1017B000013009F490C10E94DD131AC0112321F0F9
:1017C000063008F088C10EC0053008F084C110C092
:1017D000112361F0002331F0F701858180FF32C1D0
:1017E0008F7085838C2F0E94440B75C101113BC102
:1017F0008C2FE6C08C2F86958695837090E000979D
:1018000019F0019761F067C1112321F08D2F9C2FF2
:10181000937002C080E090E00E9492086CC1112396
:1018200021F08D2F9C2F937002C080E090E00E94E9
:10183000A80861C18C2F837009F050C0111157C1E5
:101840008D2F829586958770880F880F9D2F9F70AA
:10185000492E512C612C712C082E04C0440C551CAF
:10186000661C771C0A94D2F7D4FF14C00FE010E076
:1018700020E030E0B901A80104C0440F551F661FE5
:10188000771F8A95D2F7CB01BA0160957095809544
:10189000909503C060E070E0CB01C695C695C3701B
:1018A000D0E0C230D10561F0C330D10581F06429A8
:1018B000752986299729219771F00E94D51117C1A2
:1018C00064297529862997290E94E71110C10E9471
:1018D000D511C301B2010E94C31109C1112319F02E
:1018E0008C2F817001C08695882309F400C18D2F4B
:1018F000829586958770880F880F9D2F9F70492E3F
:10190000512C612C712C082E04C0440C551C661CF3
:10191000771C0A94D2F7D4FF14C00FE010E020E047
:1019200030E0B901A80104C0440F551F661F771F9E
:101930008A95D2F7CB01BA01609570958095909504
:1019400003C060E070E0CB01C695C695C3704C2F14
:1019500050E04230510569F04330510589F0642967
:101960007529862997294130510571F00E949B12F3
:10197000BEC064297529862997290E94AD12B7C077
:101980000E949B12C301B2010E948912B0C08D2F28
:1019900090E0FC01E05EF109E531F10508F04EC090
:1019A000E858FF4F0C94811EDF708C2F8F7111232C
:1019B00021F00E9422128D2F16CF0E9443128D2FEC
:1019C0000E944B0B88C0112341F0053008F083C002
:1019D0008C2F8F710E9468127EC0063008F07BC089
:1019E000F7CF112339F08C2F8F710E94221273C010
:1019F0001123C9F38C2F8F710E9443126CC01123E5
:101A000029F08C2F8F710E940D1265C00E94081260
:101A100062C0112349F0CF718C2F0E94221263E023
:101A20008C2F0E941D1457C081E00E943214023096
:101A300008F451C082E00E9432144DC0112331F0ED
:101A4000002389F28D2F0E94CE0945C0002391F218
:101A5000D93349F45FEF67EE73E051506040704056
:101A6000E1F700C000008D2F0E94E50A34C04C2F22
:101A70004F706D2FC7010E9488040E9434113BC033
:101A8000111139C0CF70D0E0C230D10599F03CF4CB
:101A9000209769F02197F9F40E94B7162CC0C43042
:101AA000D10571F054F02597B1F480E00AC00E948E
:101AB0009A1621C00E94F6161EC00E94FD161BC079
:101AC00083E00E94201717C04C2F4F706D2FC70165
:101AD0000E948B0410C088E0C816D10441F05CF06D
:101AE000EAE0CE1AD108F2E0CF16D10420F40E9429
:101AF0006C080E94F902BB20F1F00E94901380FD57
:101B00001AC0F70112820E948A130E942212C70192
:101B10000E94A90D0E948A13DF91CF911F910F910E
:101B2000FF90EF90DF90CF90BF907F906F905F908D
:101B30004F900C944312DF91CF911F910F91FF9022
:101B4000EF90DF90CF90BF907F906F905F904F901D
:101B500008950F931F93CF93DF93EC0188819981B0
:101B60002B813C81232BB9F09F3F11F48F3F99F0DB
:101B7000CE010E940B03882371F0688179818A81EC
:101B80000E9467138C010E94BF120E94C011B8010D
:101B9000CE010E94520BDF91CF911F910F910895BA
:101BA0000E94BB130E94CB130E94E71380E090E0D9
:101BB0000E94920880E090E00C94A80880910001B7
:101BC000909101010E9446150C94D00D0E94AB1318
:101BD0000C94DE0DE92FE295EF70F0E03297EE30D5
:101BE000F105B0F4E357FF4F0C94811E803F91F054
:101BF00018F4803E68F40EC0843F51F40BC0803E60
:101C000048F0813F29F406C093FB882780F90895A6
:101C100080E0089581E008950E945C130E94EA0D1F
:101C20000895CF93DF9300D000D01F92CDB7DEB7D9
:101C30000F900F900F900F900F90DF91CF9108951C
:101C4000CF93DF9300D000D000D0CDB7DEB726967B
:101C50000FB6F894DEBF0FBECDBFDF91CF910895D0
:101C60001F93CF93DF93C091520116E080915301EF
:101C7000C81799F0D0E01C9FF0011D9FF00D1124B2
:101C8000EC5AFE4F4081518162817381848195813C
:101C90000E94200E2196C770E9CFDF91CF911F914E
:101CA0000895409184015091850160918601709161
:101CB000870180918801909189010C94200E809178
:101CC000890182958F7009F054C080918601882324
:101CD00009F44FC080915201A09153016091840199
:101CE000709185014091870150918801B6E08A1773
:101CF00009F43FC090E041155105C1F17F3F11F457
:101D00006F3FA1F1B89FF001B99FF00D1124EC5A7B
:101D1000FE4F218172132AC02081621327C02281C5
:101D2000211124C0238134812417350710F4215058
:101D30003109241B350B283C3105C0F42091890161
:101D40002F7020612093890126E0289FF001299FB0
:101D5000F00D1124E75AFE4F80818F7080618083DF
:101D600084E891E00E94A90D0C94300E01968770D2
:101D7000BECF0895CF92DF92EF92FF920F931F9301
:101D8000CF93DF93CDB7DEB762970FB6F894DEBF7F
:101D90000FBECDBF8C0185E0F801DE011D960190DC
:101DA0000D928A95E1F7D8014C9111965C911197AB
:101DB00012966C9112971396CD90DC9014973091F7
:101DC000840170918501809187019091880100972D
:101DD00009F46BC17F3F19F43F3F09F466C1E090FD
:101DE0008601EE2009F4C0C020918901C816D906E9
:101DF00028F0F601E81BF90BCF0104C080959095FF
:101E00008C0D9D1DFF24F394883C910578F0F12CF6
:101E1000207F09F0C6C07C2DD98AC88A89890E9492
:101E2000110E84E891E00E94A90DB1C0822F807F3D
:101E300009F046C0751314C0341312C0611110C0EC
:101E40002F702061209389010E94510E84E891E057
:101E50000E94A90D80918901D80115968C932EC0FE
:101E6000CD2819F15F3F11F44F3FF9F0F62E6111C3
:101E70001CC0809152012091530136E0821709F471
:101E80005AC090E0389FF001399FF00D1124EC5AB0
:101E9000FE4F7181571306C07081471303C07281D2
:101EA000711103C001968770E9CFF62E662309F4FD
:101EB00027C180918901816080938901F12C20C123
:101EC000751308C0341306C0611104C080918901E4
:101ED000D801C3C04D875E878D859E856A8B0E9421
:101EE0000C0E6A898823E1F16623D1F120918901E2
:101EF000822F82958F7090E0029774F08091840118
:101F00009091850198878F831986DB86CA862C87F6
:101F1000CE0107960E94A90D86E0F801A4E8B1E081
:101F200001900D928A95E1F70E945F0E0E94510E7A
:101F3000FF24F394E5C04D875E878D859E850E94C2
:101F40005C13292F22952F7030E0223031050CF0E0
:101F5000CBC09F7009F0C5C0805E883008F4D0C047
:101F6000C8010E94A90DE4CFC816D90608F453C0D1
:101F7000F601E81BF90BCF01883C910508F450C02D
:101F8000F12C7C2DD98AC88A89890E94110EE4E837
:101F9000F1E086E0DF011D928A95E9F70E94510E7B
:101FA000AFC0751314C0341312C0611110C08091FA
:101FB0008901F8018583C8010E94A90D86E0E4E843
:101FC000F1E0DF011D928A95E9F7FE2C99C04D875B
:101FD0005E878D859E856A8B0E940C0E6A89882398
:101FE00009F4BECF662309F4BBCF20918901822F6B
:101FF00082958F7090E002970CF48ECF80918401CF
:10200000909185019A8389831B82DD82CC822E8305
:10201000CE0101967FCF809590958C0D9D1DACCF04
:10202000F62E662309F49CCF75132EC034132CC0F2
:102030002091890120FD1FC0822F82958F70D9F0D9
:10204000D80115962C9315978F3049F08F5F982FF4
:102050009295907F822F8F70892B15968C93C80153
:102060000E94A90D86E0F801A4E8B1E001900D926C
:102070008A95E1F793CF86E0F801A4E8B1E00190FA
:102080000D928A95E1F73CC04D875E878D859E85D0
:102090000E940C0E811140CF809189018160809354
:1020A0008901C8010E94A90D2BC0662309F458CFED
:1020B0004D875E878D859E850E940C0EF82E8823A5
:1020C00009F44ECF86E0F801A4E8B1E001900D924A
:1020D0008A95E1F784E891E00E94C8090E945F0EAA
:1020E0005DCF811139CF0CC0243031050CF038CFD1
:1020F0009F7009F431CFF8019581907F09F02CCFC2
:102100008F2D62960FB6F894DEBF0FBECDBFDF9164
:10211000CF911F910F91FF90EF90DF90CF90089596
:102120001F93CF93DF93CDB7DEB72C970FB6F894FC
:10213000DEBF0FBECDBF4F83588769877A878B87F5
:102140009C87CE0107960E94BA0E882369F08F8182
:1021500098852A853B85232BF1F19F3F09F063C0C9
:102160008F3F09F060C037C086E0FE013796DE0180
:10217000119601900D928A95E1F76F817885EA8535
:10218000FB85309741F17F3F11F46F3F21F12091A2
:10219000530130E0C901019687709927409152019F
:1021A00050E08417950709F447C069837A83FD835B
:1021B000EC8396E0929FD001939FB00D1124AC5A0E
:1021C000BE4FFE01319601900D929A95E1F78093F2
:1021D00053010E94300E16E08091520190915301FC
:1021E0008917C1F1189FC00111248C5A9E4F0E947B
:1021F000BA0E882379F1E09152011E9FF00111245B
:10220000EC5AFE4F408151816281738184819581B6
:102210000E94200E8091520190E0019687709927CC
:1022200080935201D9CF4F81588569857A858B85F6
:102230009C850E94200ECFCF0E94E60D1092530184
:1022400010925201E4E8F1E086E0DF011D928A95E8
:10225000E9F7C1CF2C960FB6F894DEBF0FBECDBF05
:10226000DF91CF911F910895EF92FF920F931F93EB
:10227000CF93DF938C01892B09F46CC0F12CEE24F1
:10228000E394E8012196F8018491843740F4843086
:1022900008F051C0813081F0823019F15BC0853780
:1022A00009F444C0A8F19CE7980F903708F052C099
:1022B0008F770E94E50A41C00E5F1F4FFE01C49157
:1022C00080E28C0F883048F4C7708E2D01C0880FD3
:1022D000CA95EAF70E94BE1314C08C2F0E94CE0943
:1022E0002DC00E5F1F4FFE01C49180E28C0F88301D
:1022F00058F4C7708E2D01C0880FCA95EAF70E9466
:10230000C4130E94E7131AC08C2F0E94E50A16C05E
:102310000E5F1F4FFE01C491CC2381F08FE99FE037
:102320000197F1F700C00000C150F6CF0E5F1F4FBC
:10233000FE01F49003C00E94CE098E018F2D8823E8
:1023400009F49FCFEFE9FFE03197F1F700C00000FB
:102350008150F5CFDF91CF911F910F91FF90EF90BA
:10236000089508950C94B1110E94B2116093C001B8
:102370007093C1018093C2019093C3010C94D00D5E
:1023800008950C94B4110F931F930091C001109104
:10239000C1012091C2013091C301602B712B822BAE
:1023A000932B1F910F910C94B4110F931F930091D5
:1023B000C0011091C1012091C2013091C30160237D
:1023C0007123822393231F910F910C94B4110F93C7
:1023D0001F930091C0011091C1012091C201309161
:1023E000C30160277127822793271F910F910C94B7
:1023F000B41108950C94F9110E94FA116093BC0174
:102400007093BD018093BE019093BF010C94D00DD9
:1024100060E070E0CB010C94FC110F931F9341E03E
:1024200050E060E070E08A019B0104C0000F111FC2
:10243000221F331F8A95D2F7C901B8011F910F914E
:102440000C94FC110F931F9341E050E060E070E0AA
:1024500004C0440F551F661F771F8A95D2F78091DD
:10246000BC019091BD01A091BE01B091BF018A0154
:102470009B01082B192B2A2B3B2BC901B8011F915B
:102480000F910C94FC110F931F9341E050E060E01A
:1024900070E004C0440F551F661F771F8A95D2F75E
:1024A00040955095609570958091BC019091BD01CB
:1024B000A091BE01B091BF018A019B01082319239D
:1024C0002A233B23C901B8011F910F910C94FC11E1
:1024D0000F931F9341E050E060E070E004C0440FB0
:1024E000551F661F771F8A95D2F78091BC01909186
:1024F000BD01A091BE01B091BF018A019B010827D7
:1025000019272A273B27C901B8011F910F910C9465
:10251000FC110F931F930091BC011091BD012091FC
:10252000BE013091BF01602B712B822B932B1F9129
:102530000F910C94FC110F931F930091BC0110910B
:10254000BD012091BE013091BF0160237123822320
:1025500093231F910F910C94FC110F931F930091E3
:10256000BC011091BD012091BE013091BF016027D7
:102570007127822793271F910F910C94FC110895C6
:1025800020E1929F800D1124A82FA695A695A695CF
:10259000877051E001C0550F8A95EAF785E0A89F42
:1025A000D001112420E030E070E0F901EA0FFB1FB8
:1025B000E657FE4F4081CB01022E02C096958795CB
:1025C0000A94E2F7817099278195842785238427CF
:1025D00080832F5F3F4F2530310539F7089520E183
:1025E000929F800D1124682F669566956695982FA9
:1025F000977085E0689FB001112440E050E080E0D2
:10260000FA01E60FF71FE657FE4F208130E0092E52
:1026100002C0369527950A94E2F721703327042EDD
:1026200001C0220F0A94EAF7822B4F5F5F4F4530BB
:10263000510531F70895BF92CF92DF92EF92FF924A
:102640000F931F93CF93DF938C01C090C001D09064
:10265000C101E090C201F090C3018091BC01909152
:10266000BD01A091BE01B091BF01C82AD92AEA2AB2
:10267000FB2ACFE1D0E0D701C6010C2E04C0B695ED
:10268000A795979587950A94D2F780FF07C0BC2E2F
:10269000B8018C2F0E94A904019719F4219758F7CB
:1026A000B12C8B2DDF91CF911F910F91FF90EF9067
:1026B000DF90CF90BF900895CF93DF93EC010E94FD
:1026C0001B13BE010E94A904DF91CF9108951F93AF
:1026D000CF93DF93EB0190915101992321F0CB012E
:1026E0000E945C1313C0882349F0CB010E941B1386
:1026F000182F682FCE010E94C01204C0CB010E9487
:10270000EF12182FBE01812F0E94A904DF91CF91F3
:102710001F9108958091C4018595859585950895AB
:102720008091C401877008959091C401977081E0F1
:1027300009F480E008958091E80108959091E801FE
:10274000892B8093E801089580959091E801892371
:102750008093E80108951092E80108959091E701AF
:10276000892B8093E701089580959091E701892353
:102770008093E70108951092E70108959091E60192
:10278000892B8093E601089580959091E601892335
:102790008093E60108951092E60108958091C501A5
:1027A000089508950C94D1139091C501981721F0C4
:1027B0008093C5010C94D21308958091C50188239C
:1027C00029F01092C50180E00C94D2130895E09195
:1027D0000001F09101018091E8018083E091000106
:1027E000F091010190818091E701892B8083E09134
:1027F0000001F091010190818091E601892B808395
:102800008091C501882381F0E0910001F0910101E0
:102810009081892B808380910001909101010E9419
:10282000CB1481110E94DD13809100019091010170
:102830000C94780808950C941A1498E0899F9001DC
:102840001124262B2093C4010E9422128091C401DE
:102850008595859585950C941B141092C40180E094
:102860000C941B142091C401809582238093C40191
:10287000982F977079F430E0482F082E000C550BF4
:102880002417350739F08595859585950E94431263
:102890000C942D14089580E090E00E94A91E21E080
:1028A0008D3E9E4F09F020E0822F089582E090E057
:1028B0000C94A11E83E090E00C94A11E84E090E0B3
:1028C0000C94A11E682F84E090E00C94AF1E86E06B
:1028D00090E00C94A11E682F86E090E00C94AF1E4F
:1028E000AB01BC018FE090E00C94C11EAB01BC01B8
:1028F00083E190E00C94C11E60E070E0CB010C9489
:10290000761460E070E0CB010E9470140C947C148B
:102910006DEE7EEF80E090E00E94CD1E60E082E0F0
:1029200090E00E94AF1E60E083E090E00E94AF1E46
:102930001092C0011092C1011092C2011092C30105
:1029400060E084E090E00E94AF1E60E085E090E0EF
:102950000E94AF1E60E086E090E00E94AF1E6FEF25
:1029600087E090E00E94AF1E40E050E0BA0188E0AE
:1029700090E00E94C11E60E08DE090E00E94AF1EDA
:1029800040E050E0BA0188E190E00E94C11E0C9442
:1029900081140C948814FC01329680910C018823D8
:1029A00031F08091120287FF02C09EE101C096E0E3
:1029B00080E0915028F021912223D9F38F5FF9CF45
:1029C00008959C01FC0132969FEF80E041914617EB
:1029D00089F09F3F19F4411101C0982F8F5F863015
:1029E000A9F79F3F39F0F901E90FF11D97FDFA951D
:1029F000628308950895FC0132960896208126137B
:102A000001C010823196E817F907C1F70895262F03
:102A10002695269526952E3168F4FC01E20FF11DCE
:102A2000677021E030E001C0220F6A95EAF78281E9
:102A3000282B22830895262F2695269526952E311C
:102A400070F4FC01E20FF11D677021E030E001C07D
:102A5000220F6A95EAF72095828128232283089520
:102A600020910C01222329F02091120227FD0C94C1
:102A700007150C94E11420910C01222329F02091D8
:102A8000120227FD0C941B150C94FB1420910C01D1
:102A9000FC013296222331F08091120287FF02C09E
:102AA0008EE101C086E0DF011D928A95E9F7089565
:102AB00008950C9458150E9459158091190284307C
:102AC00061F11092EA0120E488E190E00FB6F894F9
:102AD000A895809360000FBE2093600080E00E9464
:102AE000810280E00E94F9020E94591583B7817F1C
:102AF000846083BF83B7816083BF7894889583B7F0
:102B00008E7F83BF0FB6F894A8958091600088618E
:102B100080936000109260000FBE0895089508959C
:102B2000CF930E948E150E948A070E948F15C0E0E5
:102B30008C2F0E942208892B29F4CF5FC530C1F762
:102B400080E001C081E0CF91089508950C94A5150F
:102B50000E94E60D0E947D160E946C080E94F902F8
:102B60000C94A6151F920F920FB60F9211248F93FB
:102B70009F93AF93BF938091EA01811113C080911D
:102B80000E0290910F02A0911002B0911102419695
:102B9000A11DB11D80930E0290930F02A09310020D
:102BA000B0931102BF91AF919F918F910F900FBE83
:102BB0000F901F90189582E084BD93E095BD9AEF29
:102BC00097BD80936E0008952FB7F89480910E0200
:102BD00090910F02A0911002B09111022FBF0895A1
:102BE000CF92DF92EF92FF920F931F932FB7F8943B
:102BF00040910E0250910F026091100270911102EB
:102C00002FBF6A017B01EE24FF248C0120E030E01D
:102C1000C016D106E206F30610F4415051099A019C
:102C2000281B390BC9011F910F91FF90EF90DF9086
:102C3000CF90089578941F920F920FB60F9211249F
:102C40008F939F93AF93BF9380910E0290910F0249
:102C5000A0911002B09111020196A11DB11D8093A7
:102C60000E0290930F02A0931002B0931102BF9135
:102C7000AF919F918F910F900FBE0F901F9018955D
:102C800081E08093E00080E28093D8001092C90038
:102C90008FE19EE40197F1F700C0000087E090EB20
:102CA000DC018093220290932302A0932402B0932C
:102CB00025029CE088E10FB6F894A8958093600007
:102CC0000FBE90936000FFCF0E944B14811102C091
:102CD0000E94C9140E9456148093E9010E945E1458
:102CE00090E090931302809312020E945A14682F6E
:102CF00070E080E090E00C94C1110E944B148111AF
:102D000002C00E94C9140E94671480931402282FE5
:102D1000269530E02430310524F081708660809360
:102D200014028091140280FF02C0869501C080E0E9
:102D30000C94810220911402822F8695482F50E036
:102D40004330510544F48F5F982F990F822F817083
:102D5000892B809314028091140281608093140265
:102D60000E946B148091140286950C9481028091CC
:102D70001402982F969591F09158990F8170892B94
:102D8000809314028E7F91E009F490E08091140208
:102D900090FB80F9809314020E946B1480911402BE
:102DA00086950C9481028091140280FD11C081608F
:102DB00080931402813019F483E08093140280918F
:102DC00014020E946B148091140286950C94810267
:102DD00008958091140280FF08C08E7F80931402B2
:102DE0000E946B1480E00C9481020895809114027B
:102DF00080FD0C94E9160C94D31690911402892F3F
:102E000086958F5F8F779170843028F4880F892B97
:102E10008093140202C090931402809114028E7F5A
:102E200091E009F490E08091140290FB80F9809386
:102E300014020E946B148091140286950C948102F6
:102E4000843008F083E0880F909114029170892BF0
:102E5000809314028E7F91E009F490E08091140237
:102E600090FB80F9809314020E946B1480911402ED
:102E700086950C94810280910B02089508950F931A
:102E80001F93CF93DF9300D01F92CDB7DEB78C0195
:102E90000E948219823011F0843021F584E0898308
:102EA0001B830A8382E08093E9008FEF9091E80012
:102EB000815095FD06C095ED9A95F1F700008111BE
:102EC000F5CF8091E80085FF0DC040E050E063E061
:102ED00070E0CE0101960E949F198091E8008E77E4
:102EE0008093E8000F900F900F90DF91CF911F918A
:102EF0000F910895CF93DF9300D01F92CDB7DEB727
:102F000020911902243031F523E02983805891095A
:102F10009B838A8382E08093E9008FEF9091E800A1
:102F2000815095FD06C095ED9A95F1F7000081114D
:102F3000F5CF8091E80085FF0DC040E050E063E0F0
:102F400070E0CE0101960E949F198091E8008E7773
:102F50008093E8000F900F900F90DF91CF9108952C
:102F6000CF93DF93EC010E948219823011F08430FC
:102F7000D9F580910C01882339F08091120287FFE6
:102F800003C060E282E002C068E081E08093E90073
:102F90008FEF9091E800815095FD06C095ED9A95D0
:102FA000F1F700008111F5CF8091E80085FF1CC08A
:102FB00080910C01811105C040E050E068E070E0B4
:102FC00003C070E040E050E0CE010E949F19809164
:102FD000E8008E778093E80080E2FE01ABEEB1E07E
:102FE00001900D928A95E1F7DF91CF91089580913C
:102FF0001802811109C00E94341B0E94911B80910C
:10300000E20084608093E20008951092180208950F
:10301000089508950C94A81542E061EC81E00E94A7
:10302000AE1A42E261EC82E00C94AE1A80911B026F
:10303000833009F460C030F4813071F0823009F4DB
:1030400099C008958A3009F485C08B3009F46BC0AB
:10305000893009F0A7C020C080911A02813A09F096
:10306000A1C08091E800877F8093E80080911E02D4
:1030700090911F02892B21F460E28BEE91E003C056
:1030800060E080E090E070E00E94EA198091E80042
:103090008B778093E800089580911A02813209F0BD
:1030A00081C080911E0290911F02029708F07AC0A1
:1030B0008091E800877F8093E8008091E80082FD9E
:1030C00005C0809119028111F8CF6CC02091F300E6
:1030D0008091F20090E0922B029729F48091F10008
:1030E0008B7F813021F48091F10080930B028091DD
:1030F000E8008B7753C080911A02813A09F052C0E0
:1031000080911E0290911F02892B09F04BC0809183
:10311000E800877F8093E8008091E80080FFFCCF83
:1031200080910C0136C080911A028132D9F58091CC
:103130001E0290911F02892BA9F58091E800877FDC
:103140008093E8000E94E31A80911C0280930C0196
:103150000C94E60D80911A02813221F58091E800ED
:10316000877F8093E8000E94E31A80911D0280937C
:103170000C02089580911A02813AA1F48091E8002E
:10318000877F8093E8008091E80080FFFCCF8091EA
:103190000C028093F1008091E8008E778093E80024
:1031A0000C94E31A089584B7877F84BF0FB6F89410
:1031B000A895809160008861809360001092600003
:1031C0000FBE80E880936100109261000E94CC08DD
:1031D0000E94341B0E94911B8091E20084608093C6
:1031E000E20078940E94201E0E94D40882E091E0C0
:1031F0000E94670880911902853069F40E945B156E
:10320000809117028823B1F30E949015882391F3CF
:103210000E948919EFCF0E94DE08ECCF0C941019A0
:10322000292F332723303105C9F064F421303105CB
:1032300081F02230310509F04CC08BE390E02EE4A0
:1032400033E04BC02132310521F12232310589F1C1
:1032500040C082E190E029E833E03FC09927813007
:10326000910571F02CF4892BA1F5EAE4F3E00DC08F
:103270008230910541F0039761F5EAE2F3E005C081
:10328000EAE3F3E002C0E0E3F3E0849190E09F0121
:1032900024C06115710541F061307105D1F489E0F8
:1032A00090E029E733E019C089E090E020E633E0C0
:1032B00014C06115710541F06130710551F481E769
:1032C00090E02BE933E009C080E490E02CE034E0AA
:1032D00004C080E090E020E030E0FA0131832083F8
:1032E00008950895CF93C82F0E947119C0930D02BD
:1032F000CF91089580911902843011F081E00895F2
:1033000082E0089580910D02811102C00C947A1917
:10331000089580E189BD82E189BD09B400FEFDCF39
:103320008091D8008F7D8093D8008091E0008260EA
:103330008093E0008091E00081FDFCCF0895CF9262
:10334000DF92EF92FF920F931F93CF93DF93EC01E5
:103350008B016A010E94021B811133C0C114D10488
:1033600039F0F60180819181081B190BC80FD91F14
:10337000E12CF12C0115110519F18091E80085FD72
:1033800016C08091E8008E778093E800C114D104C4
:1033900049F0F60180819181E80EF91EF182E08208
:1033A00085E00FC00E94021B882321F30AC0899187
:1033B0008093F10001501109FFEFEF1AFF0ADACFF5
:1033C00080E0DF91CF911F910F91FF90EF90DF9000
:1033D000CF900895209120023091210226173707BF
:1033E00048F06115710539F42091E8002E7720939B
:1033F000E80001C0B90140E061157105A9F1209113
:103400001902222309F443C0253009F442C0209157
:10341000E80023FD40C02091E80022FD32C0209149
:10342000E80020FFE9CF4091F3002091F20030E066
:10343000342BFC01CF016115710559F0283031059D
:1034400040F481918093F100615071092F5F3F4FEB
:10345000F1CF41E02830310509F040E02091E8004B
:103460002E772093E800C8CF4111C9CF0AC08091C0
:103470001902882361F0853061F08091E80083FDB6
:103480000AC08091E80082FFF2CF80E0089582E0D8
:10349000089583E0089581E00895209120023091FD
:1034A00021022617370748F06115710539F420917C
:1034B000E8002E772093E80001C0B901FC0120E06C
:1034C0006115710591F180911902882309F440C0BA
:1034D000853009F43FC08091E80083FD3DC08091B4
:1034E000E80082FD2FC08091E80080FFE9CF2091A5
:1034F000F3008091F20090E0922B6115710559F074
:103500008830910540F424912093F1003196615068
:1035100071090196F2CF21E0089709F020E080912F
:10352000E8008E778093E800CBCF2111CCCF0AC082
:1035300080911902882361F0853061F08091E80064
:1035400083FD0AC08091E80082FFF2CF80E00895F9
:1035500082E0089583E0089581E00895982F9730E0
:1035600058F59093E900981739F07091EC0020918C
:10357000ED005091F00003C0242F762F50E021FF82
:1035800019C03091EB003E7F3093EB003091ED009D
:103590003D7F3093ED003091EB0031603093EB00D4
:1035A0007093EC002093ED005093F0002091EE001A
:1035B00027FF07C09F5FD3CF8F708093E90081E022
:1035C000089580E0089580911A0287FF11C08091CC
:1035D000E80082FD05C0809119028111F8CF11C069
:1035E0008091E8008B770BC080911902882349F005
:1035F0008091E80080FFF8CF8091E8008E7780937B
:10360000E80008952091E4003091E50095E64091AE
:10361000EC00842F817040FF22C08091E80080FD83
:103620001CC080911902882391F0853091F080911F
:10363000EB0085FD10C04091E4005091E500421779
:10364000530729F39A01915011F784E0089582E01D
:10365000089583E0089581E0089580E00895409101
:10366000E80042FFDECF08950E94A21B0E94AA1B21
:10367000E0EEF0E0808181608083E8EDF0E0808121
:103680008F77808319BCA7EDB0E08C918E7F8C93EF
:1036900080818F7E80831092180208950F931F936C
:1036A000CF93DF930E94A21B0E94AA1BC8EDD0E01B
:1036B00088818F77888388818068888388818F7DDF
:1036C000888319BC109219021092150210921702E9
:1036D0001092160200EE10E0F80180818B7F80834B
:1036E00088818160888342E060E080E00E94AE1AB9
:1036F000E1EEF0E080818E7F8083E2EEF0E0808179
:1037000081608083808188608083F80180818E7FE2
:103710008083888180618883DF91CF911F910F9191
:103720000895E8EDF0E080818F7E8083E7EDF0E0A2
:1037300080818160808384E082BF81E08093180271
:103740000C944E1BE8EDF0E080818E7F8083109218
:10375000E20008951092DA001092E10008951F929D
:103760000F920FB60F9211242F933F934F935F93B5
:103770006F937F938F939F93AF93BF93EF93FF9339
:103780008091E10082FF0BC08091E20082FF07C0C0
:103790008091E1008B7F8093E1000E941F1E809149
:1037A000DA0080FF1FC08091D80080FF1BC080918D
:1037B000DA008E7F8093DA008091D90080FF0DC0FF
:1037C00080E189BD82E189BD09B400FEFDCF81E0C1
:1037D000809319020E94F71705C019BC10921902B4
:1037E0000E9405188091E10080FF19C08091E200DD
:1037F00080FF15C08091E2008E7F8093E20080916F
:10380000E20080618093E2008091D8008062809322
:10381000D80019BC85E0809319020E940918809194
:10382000E10084FF30C08091E20084FF2CC080E181
:1038300089BD82E189BD09B400FEFDCF8091D80029
:103840008F7D8093D8008091E1008F7E8093E1008E
:103850008091E2008F7E8093E2008091E20081609F
:103860008093E20080911502882311F084E007C064
:103870008091E30087FD02C081E001C083E0809376
:1038800019020E940A188091E10083FF29C08091EB
:10389000E20083FF25C08091E100877F8093E100F3
:1038A00082E080931902109215028091E1008E7FD0
:1038B0008093E1008091E2008E7F8093E20080910E
:1038C000E20080618093E20042E060E080E00E94DC
:1038D000AE1A8091F00088608093F0000E94081872
:1038E000FF91EF91BF91AF919F918F917F916F91D8
:1038F0005F914F913F912F910F900FBE0F901F90AE
:1039000018951F920F920FB60F9211242F933F9389
:103910004F935F936F937F938F939F93AF93BF93D7
:10392000CF93DF93EF93FF93C091E900CF70809125
:10393000EC00D82FD17080FDD0E81092E900809182
:10394000F000877F8093F00078940E94C51C10924D
:10395000E9008091F00088608093F000CD2BCF705B
:10396000C093E900FF91EF91DF91CF91BF91AF91AB
:103970009F918F917F916F915F914F913F912F9187
:103980000F900FBE0F901F9018951F93CF93DF934A
:10399000CDB7DEB7AA970FB6F894DEBF0FBECDBF86
:1039A000EAE1F2E088E08E0F9091F10091938E139E
:1039B000FBCF0E9416188091E80083FF28C18091F8
:1039C0001A0290911B02492F50E04A30510508F02D
:1039D0001EC1FA01E556FF4F0C94811E803821F07C
:1039E000823809F014C108C0809116029091170224
:1039F000992389F082600FC080911E028F708730FA
:103A000008F005C18093E9008091EB0085FB8827D1
:103A100080F91092E9009091E800977F9093E80078
:103A20008093F1001092F100D0C0282F2D7F09F073
:103A3000EEC0882319F0823061F0E9C080911C0249
:103A4000813009F0E4C0933009F080E080931702E0
:103A50002EC080911C0281112AC080911E028F709D
:103A60002FEF280F263008F0D2C08093E900209174
:103A7000EB0020FF1CC0933021F48091EB008062AA
:103A800014C09091EB0090619093EB0021E030E046
:103A9000A90102C0440F551F8A95E2F74093EA003E
:103AA0001092EA008091EB0088608093EB00109206
:103AB000E9008091E800877F8093E8000E94E31A84
:103AC000A6C08111A4C010911C021F778091E30051
:103AD0008078812B8093E3008091E800877F80933A
:103AE000E8000E94E31A8091E80080FFFCCF8091FB
:103AF000E30080688093E300111102C082E001C0FE
:103B000083E08093190283C08058823008F07FC020
:103B100080911C0290911D028C3D53E0950779F530
:103B200083E08A838AE289834FB7F894DE01139693
:103B300020E03EE051E2E32FF0E050935700E491A3
:103B400020FF03C0E295EF703F5FEF708E2F90E093
:103B5000EA3010F0C79601C0C0968D939D932F5FF9
:103B6000243149F74FBF8091E800877F8093E800B8
:103B70006AE270E0CE0101960E94EA1915C06091D8
:103B80001E0270911F02AE014F5F5F4F0E940E191F
:103B9000BC01892BE1F19091E800977F9093E800B8
:103BA00089819A810E944D1A8091E8008B778093D9
:103BB000E8002DC0803859F58091E800877F809318
:103BC000E800809115028093F1008091E8008E77E3
:103BD00073CF81111CC090911C029230C0F480916F
:103BE000E800877F8093E800909315020E94E31A13
:103BF00080911502811106C08091E30087FD02C00B
:103C000081E001C084E0809319020E940C18809129
:103C1000E80083FF0AC08091E800877F8093E80076
:103C20008091EB0080628093EB00AA960FB6F89427
:103C3000DEBF0FBECDBFDF91CF911F9108950895D4
:103C4000CF93809119028823A1F0C091E900CF7031
:103C50009091EC00892F817090FD80E8C82B109224
:103C6000E9008091E80083FD0E94C51CCF70C093DD
:103C7000E900CF910895DB018F939F930E94961ED8
:103C8000BF91AF91A29F800D911DA39F900DB29FF8
:103C9000900D11240895AA1BBB1B51E107C0AA1F58
:103CA000BB1FA617B70710F0A61BB70B881F991FDD
:103CB0005A95A9F780959095BC01CD010895A1E290
:103CC0001A2EAA1BBB1BFD010DC0AA1FBB1FEE1F96
:103CD000FF1FA217B307E407F50720F0A21BB30BE1
:103CE000E40BF50B661F771F881F991F1A9469F75D
:103CF00060957095809590959B01AC01BD01CF01B9
:103D00000895EE0FFF1F0590F491E02D0994A29FF6
:103D1000B001B39FC001A39F700D811D1124911D9F
:103D2000B29F700D811D1124911D08950E94871E60
:103D3000A59F900DB49F900DA49F800D911D1124FF
:103D40000895F999FECF92BD81BDF89A992780B563
:103D50000895A8E1B0E042E050E00C94D51E262F73
:103D6000F999FECF92BD81BDF89A019700B4021671
:103D700039F01FBA20BD0FB6F894FA9AF99A0FBE1F
:103D800008950396272F0E94B01E0E94AF1E252F74
:103D90000E94B01E242F0C94B01E0196272F0E9463
:103DA000B01E0C94AF1EDC01CB01FC01F999FECFD3
:103DB00006C0F2BDE1BDF89A319600B40D924150B3
:0A3DC0005040B8F70895F894FFCFC3
:103DCA00C6013B17B0173E177A173F17016667F708
:103DDA00F6C63091323392939594969734F5F4F06F
:023DEA00F19056
:00000001FF
