:100000000C946F010C94B6010C94B6010C94B601DB
:100010000C94B6010C94B6010C94B6010C94B60184
:100020000C94B6010C94B6010C949C1D0C946E1E9D
:100030000C94BE140C94B6010C94B6010C94B60149
:100040000C94B6010C94B6010C94B6010C94B60154
:100050000C94B6010C9426150C94B6010C94B601C0
:100060000C94B6010C94B6010C94B6010C94B60134
:100070000C94B6010C94B6010C94B6010C94B60124
:100080000C94B6010C94B6010C94B6010C94B60114
:100090000C94B6010C94B6010C94B6010C94B60104
:1000A0000C94B6010C94B6010C94B6015602580299
:1000B00063025A025C025E0260026202650267022B
:1000C000690274026B026D026F02710273027602A2
:1000D000750A750AA70AA70AF40A140B740C740CA3
:1000E000560BF30B040C040C640C740C740C6D0CA8
:1000F000F60CF60C080D080DFF0C080D080D080D88
:10010000F60CF60C040D080D080D040DDB1E021F85
:10011000F41F021FF41F4E1F711FF41FC71FD61FAD
:100120002400250026002100220023001E001F00BD
:10013000200001512700280001004A004B00010067
:100140004D004E00010001000100010001003700D8
:100150000403300000000C0372006F006D006100AA
:1001600063000000260354006800650052006F0021
:10017000790061006C005300770065006100740035
:100180007300680069007200740000000403090431
:1001900009023B00020100A0FA090400000103016A
:1001A0000100092111010001224000070581030817
:1001B000000A0904010001030000000921110100E7
:1001C0000122C0000705820320000A12011001006D
:1001D000000008EDFE606001000102030105010955
:1001E00002A10185020901A10005091901290515CE
:1001F00000250195057501810295017503810105B1
:1002000001093009311581257F950275088106099C
:10021000381581257F950175088106050C0A38027D
:100220001581257F950175088106C0C005010980EB
:10023000A10185031601002603001A81002A83000C
:10024000751095018100C0050C0901A101850416F6
:100250000100269C021A01002A9C0275109501815A
:1002600000C005010906A1018505050719E029E778
:100270001500250195087501810205081901290558
:100280009505750191029501750391010507190006
:1002900029EF1500250195F075018102C0050109BE
:1002A00006A101050719E029E71500250195087544
:1002B000018102950175088101050819012905953B
:1002C0000575019102950175039101050719002932
:1002D000FF150026FF00950675088100C000112457
:1002E0001FBECFEFDAE0DEBFCDBF04B603FE27C0EE
:1002F0008091E8019091E901A091EA01B091EB01B0
:100300008730904BA740B04BD1F41092E801109287
:10031000E9011092EA011092EB0114BE84B7877FC5
:1003200084BF0FB6F894A89580916000886180938F
:100330006000109260000FBEE0E0F8E3099511E064
:10034000A0E0B1E0E4E3F1E402C005900D92AA312F
:10035000B107D9F721E0AAE1B1E001C01D92A83EA2
:10036000B207E1F70E94C01A0C9498200C94000088
:1003700081E0089581E008950C94BA011F93CF9312
:10038000DF9300D000D01F92CDB7DEB749835A83E8
:100390002091340189819A81211112C0662349F08C
:1003A0000E941B12182F682F89819A810E94C01108
:1003B00003C00E94EF11182F69817A81812F04C038
:1003C0000E941B1269817A810F900F900F900F90FD
:1003D0000F90DF91CF911F910C940203FC0140819B
:1003E00051816281738184810C94BE010E944B1300
:1003F000811102C00E94DB130C9476050C947905E0
:1004000008950C9400020C94010208950E94E60CD9
:100410000E9405022FEF84E39CE021508040904031
:10042000E1F700C000000C944C150F931F93CF937D
:10043000DF938C010E94EE01EC01B8010E94BC0127
:10044000882309F4D5C0B801CE010E94FC06882398
:1004500009F4CEC0C531FCE5DF0708F07BC0C2302F
:100460008CE5D80708F452C0F8018281882309F48A
:1004700054C00E944B13811102C00E94DB130E94E2
:10048000681390E09093DA018093D901FE01E35064
:10049000FC45E231F10530F4EA5AFF4F8091D90171
:1004A0000C943C208091D901816027C0826025C0D6
:1004B000846023C0806121C080621FC080641DC031
:1004C00080681BC08460886018C08E7F16C08D7FD6
:1004D00014C08B7F12C08F7E10C08F7D0EC08F7BAB
:1004E0000CC08F770AC08B7F877F07C087FB2227CE
:1004F00020F991E0922790FB87F98093D9018091B0
:10050000D9010E946C130E94E60C72C0C115ECE583
:10051000DE0751F0C130DC4579F0C801DF91CF91A1
:100520001F910F910C94B801F8018281882309F47E
:100530005FC00E9406025CC0F8018281882309F432
:1005400057C08091A401982F909590FB80F98093DB
:10055000A4014EC0CC3D8CE5D80739F4F801828166
:10056000882309F445C080E00DC0CD3DECE5DE07F1
:1005700060F0CD3D8CE5D80791F5F80182818823A4
:10058000B9F182E00E945F1B33C0C631DC4529F619
:100590000E949B12282FF801828140910001509106
:1005A0000101882379F02A7A91E009F490E0909390
:1005B0001A01911102C069E201C065E3CA010E94FB
:1005C00042140AC080911A01811102C069E201C07F
:1005D00065E3CA010E944D140E94E71209C0CE3D96
:1005E000DC4509F09ACFF801828181110E94DB136A
:1005F00080E0DF91CF911F910F91089580E090E00E
:1006000008950895272F30E0F901EE0FFF1F2E0FF8
:100610003F1FF9019CE0899FE00DF11D1124E60FB9
:10062000F11DEE0FFF1FE05EFE4F8591949108953E
:10063000880F991FFC01E05BFE4F8591949108950E
:10064000CF93DF930E9402030E94D504EC01811531
:1006500020E59207F0F5811530E4930708F024C1F6
:10066000883E910500F5803E910508F09AC1883AD0
:10067000910570F4853A910508F09FC0813091058D
:1006800009F48FC108F440C1049708F08AC13CC145
:100690008F3B910508F49CC0803C910508F434C15F
:1006A000805C9109F4C0811540E2940758F4C115AB
:1006B00081E0D80708F075C1C03FD10508F424C116
:1006C000D0656FC1811520E3920708F0E4C09F70E8
:1006D000DEC0811535E5930708F044C0811544E577
:1006E000940708F0F8C0C11582E5D80708F5C115D0
:1006F00021E5D20708F0DBC08C2F837021E030E0C9
:1007000002C0220F331F8A95E2F73C68CE0174E0E5
:10071000969587957A95E1F78370382BCF70C695BB
:10072000C69580E2C89FE0011124C22BD32B39C1AA
:100730002C2F26952695CE0183709927C115D34578
:1007400008F0BAC040E2249F90011124C1E0D0E03B
:1007500002C0CC0FDD1F8A95E2F72C2B3D2BE9015F
:10076000DC681FC1811549E59407A0F4C11588E52F
:10077000D80708F0B5C0C11526E5D20708F0C4C0F7
:100780008C2F0E9452058F71C82FD0E0DC2FCC2710
:10079000D06207C181153AE5930708F4A6C09056C8
:1007A0008115904208F0B0C08D2F8F710E945205C4
:1007B000DD27D0628F71D82BF4C0853A910509F4FA
:1007C000A6C0863A910509F0A5C0C2E8D0E4E9C008
:1007D000883A910509F4A1C0893A910509F4A0C0AD
:1007E0008A3A910509F49FC08B3A910509F49EC09D
:1007F0008C3A910509F49DC08B3B910509F49CC08E
:100800008C3B910509F49BC08D3A910509F49AC07F
:10081000803B910509F499C08E3A910509F498C07E
:100820008F3A910509F497C0813B910509F496C070
:10083000823B910509F495C0833B910509F494C06E
:10084000843B910509F493C0853B910509F492C05E
:10085000863B910509F491C0873B910509F490C04E
:10086000883B910509F48FC0893B910509F48EC03E
:100870008D3B910509F48DC08E3B910509F48CC028
:100880008A3B910509F48BC0C0E0D4E48AC00E9481
:100890001803EC0186C09927D3FF03C0EC01D86C84
:1008A00080C0EC01D06C7DC0DF70D06A7AC0DC2FD4
:1008B000CC27C16FD06A75C040E2249F90011124FB
:1008C000C1E0D0E002C0CC0FDD1F8A95E2F7C22B59
:1008D000D32BDA6866C0D82FCC27C46FD06A61C02A
:1008E000DC2FCC27C06FD06A5CC08F700E9452058D
:1008F00094E0D695C7959A95E1F7CF70D0E0DC2FBC
:10090000CC27D069C82B4DC0C0E0D0E04AC0C1E8B8
:10091000D0E447C0C3E8D0E444C0C2EED4E441C050
:10092000C9EED4E43EC0CAEED4E43BC0C5EBD4E487
:1009300038C0C6EBD4E435C0C3EBD4E432C0C4EB5A
:10094000D4E42FC0C7EBD4E42CC0CCECD4E429C051
:10095000CDECD4E426C0C3E8D5E423C0CAE8D5E48E
:1009600020C0C2E9D5E41DC0C4E9D5E41AC0C1E283
:10097000D6E417C0C3E2D6E414C0C4E2D6E411C082
:10098000C5E2D6E40EC0C6E2D6E40BC0C7E2D6E4A8
:1009900008C0CFE6D4E405C0C0E7D4E402C0CAE290
:1009A000D6E4CE01DF91CF9108958238910549F1C7
:1009B000B0F48133910509F458C048F489329105A7
:1009C00009F44EC08A32910509F454C00895853364
:1009D000910509F440C08933910599F00895833E4B
:1009E000910529F138F4803E910591F0823E910500
:1009F000A1F00895863E9105F9F0873E910531F109
:100A000008952091D90120FD3AC021FD38C00895F4
:100A10008091D90180FD35C032C08091D90182FF1B
:100A200032C08091D90184FD30C083EE39C08091FD
:100A3000D90182FD28C0F5CF8091D90183FF27C05D
:100A40008091D90184FD21C087EE2AC08091D9010F
:100A500083FD1DC0F5CF8091D90185FD1AC01BC053
:100A60008091D90185FD17C014C08091D90186FD00
:100A700014C015C08091D90186FD11C00EC080EE52
:100A80000FC089E30DC082EE0BC080E009C086EE86
:100A900007C089E205C085E303C08AE201C081E3A3
:100AA00090E008959091D90192FF0DC0282F2871F0
:100AB000283019F4877F846006C0282F24712430E1
:100AC00011F48B7F886093FF0DC0282F2871283187
:100AD00019F4877E846106C0282F2471243111F413
:100AE0008B7E886194FD877E089508950C9475052A
:100AF00008950C947805E82FF0E0E55EFE4F8081C4
:100B000008950895A6E1B1E041E050E024E02A0F05
:100B10008D91E82FE295EF70F0E031A18F70BA016E
:100B200002C0660F771F8A95E2F7CB01962F90954A
:100B3000932391A392A1892B82A32A13E9CFA3E146
:100B4000B1E041E050E023E02A0F8D91E82FE295DB
:100B5000EF70F0E031A18F70BA0102C0660F771F0D
:100B60008A95E2F7CB01962F9095932391A392A1BA
:100B7000892B82A32A13E9CF10921F0110921B0127
:100B80001092200110921C011092210110921D015F
:100B90001092220110921E0184E00E9458060C94CB
:100BA000F6016F927F928F929F92AF92BF92CF92F7
:100BB000DF92EF92FF920F931F93CF93DF9366E143
:100BC00071E0AFE1B1E0712C01E010E0D4E06D2EF6
:100BD0006A0E7D019C901C92EB018991BE01E82F69
:100BE000E295EF70F0E091A18F70A80101C0440F71
:100BF0008A95EAF7892F842B81A392A1842F80956F
:100C0000982392A3D0EADA95F1F7C3E1CC2EC1E0A4
:100C1000DC2E20E030E0E60199916E01A92EA2942D
:100C20005FE0A522B12CE501A8A08C90B12C9F70AB
:100C300002C0B594A7949A95E2F7A0FC07C0902F44
:100C4000022E01C0990F0A94EAF701C090E098299A
:100C50009C932F5F3F4F23303105E9F691A1892303
:100C600081A382A1482B42A3119681E0F7019081D4
:100C7000991201C080E0782A6A12ABCF272D44E098
:100C80006BE171E08FE191E00E9459060E94FE0144
:100C9000872DDF91CF911F910F91FF90EF90DF9003
:100CA000CF90BF90AF909F908F907F906F9008955E
:100CB0000895FF920F931F93CF93DF938C01F62E2D
:100CC000D72FC42F222349F081E0809325010E9471
:100CD000F0149093240180932301809125018823AF
:100CE000C1F080912301909124010E94FC14069789
:100CF00080F0EF2DFD2FD8014C2F50E0CD01801B4F
:100D0000910B841795071CF48D918193F7CF109266
:100D10002501DF91CF911F910F91FF9008950F93BF
:100D20001F93CF93DF93C62FD42F022FFC01828114
:100D30008823C9F0609328010E94F0149093270142
:100D40008093260180E28C0F883008F050C0C77075
:100D500081E001C0880FCA95EAF7DF91CF911F911A
:100D60000F910C94350A10912801161330C0809110
:100D70002601909127010E94FC14883C910538F5CA
:100D8000C0E2CD0F1D17B9F080E2810F883040F42A
:100D9000177081E001C0880F1A95EAF70E943C0A9B
:100DA000C83048F481E09D2F977001C0880F9A9554
:100DB000EAF70E94350A802F0E94220AC830B8F450
:100DC000D77081E001C0880FDA95EAF70AC080E2A7
:100DD0008C0F883060F4C77081E001C0880FCA951D
:100DE000EAF7DF91CF911F910F910C943C0ADF91AC
:100DF000CF911F910F9108959C01CB01203F4CE5AD
:100E00003407F9F078F4283DFCE53F07B9F0293DB7
:100E10004CE5340711F1273D3C4531F526E241EE22
:100E200061EE1EC0223FFCE53F0799F070F0233FC2
:100E30003C45D1F427E245EE66EE12C027E245EECE
:100E40000EC026E241EE60EE0BC027E245EE64EEF6
:100E500007C026E241EE62EE03C028E241E065EE03
:100E60000E948F0680E00895FC018281882319F09A
:100E700010922801089581E0089590932E018093A7
:100E80002D010895E0912D01F0912E01309721F070
:100E90000190F081E02D099480E00895E0912D010A
:100EA000F0912E01309799F020911201222359F0F0
:100EB0002091D90127FF07C0DC012C9111962C93BA
:100EC000119725E02C930280F381E02D0994089579
:100ED000E0912D01F0912E01309739F022E0DC01F4
:100EE0002C930480F581E02D0994089520912B0125
:100EF00030912C018217930771F090932C0180930D
:100F00002B01E0912D01F0912E01309721F0068008
:100F1000F781E02D099408952091290130912A014B
:100F20008217930771F090932A0180932901E09131
:100F30002D01F0912E01309721F00084F185E02DF4
:100F40000994089585B7806885BF85B7806885BF97
:100F50000895089508950C94AA0708950C94AD0778
:100F60000E94A2070E94A9070C94AB0781E0089594
:100F70000E94E7140E9482050E94B4150C94AE07EB
:100F8000CF92DF92EF92FF920F931F93CF93DF9355
:100F9000CDB7DEB72B970FB6F894DEBF0FBECDBF2F
:100FA0000E94D1050E94B607811111C08FEF89837D
:100FB0008A831B820E94F0148160782F9D838C832A
:100FC00049815A816B818D810E94680856C080E3F7
:100FD000C82E81E0D82E00E010E0E02E802F0E9485
:100FE0007B05F60141916F01F42EF82631F40F5F75
:100FF0001F4F0430110589F7D9CF9091A40191FFBB
:1010000004C08B870E9481058B8520E030E04F2D46
:1010100050E0922FBA01022E02C0759567950A948E
:10102000E2F760FF24C02E83EF8221E030E0690107
:1010300002C0CC0CDD1C9A95E2F790E08C219D213A
:10104000892B09F420E028870E94F0148160782F12
:101050009A8789874E815F8168858A850E946808A2
:10106000F801E05DFE4F8081C826C08206C02F5F78
:101070003F4F2330310569F6BACF0E9457181091BF
:101080002F010E9442071817A1F00E944207809387
:101090002F012B960FB6F894DEBF0FBECDBFDF91A8
:1010A000CF911F910F91FF90EF90DF90CF900C9414
:1010B00003022B960FB6F894DEBF0FBECDBFDF91B3
:1010C000CF911F910F91FF90EF90DF90CF900895F7
:1010D000CF93DF93CDB7DEB72B970FB6F894DEBF73
:1010E0000FBECDBF4F83588769877A878B87DE0114
:1010F000119686E0FD0111928A95E9F785E0FE01DF
:10110000379601900D928A95E1F749815A816B815A
:101110007C818D819E810E94900F2B960FB6F89452
:10112000DEBF0FBECDBFDF91CF910895FC0180815E
:1011300091810E945C120895882309F41AC18238B3
:10114000C1F40E94420781FD14C169E3809100014E
:10115000909101010E9442140E94E7122FEF81EE4C
:1011600094E0215080409040E1F700C0000069E326
:1011700019C08338F9F40E94420780FDFAC063E584
:1011800080910001909101010E9442140E94E71297
:101190002FEF81EE94E0215080409040E1F700C0B5
:1011A000000063E580910001909101010E944D14BF
:1011B0000C94E7128438C1F40E94420782FDD9C022
:1011C00067E480910001909101010E9442140E9405
:1011D000E7122FEF81EE94E0215080409040E1F73C
:1011E00000C0000067E4DECF9CEF980F913A40F416
:1011F000682F80910001909101010E944214D8CF84
:1012000090E2980F983050F4877091E001C0990FE8
:101210008A95EAF7892F0E949E12CACF9BE5980F04
:10122000933070F4853A29F0863A31F083E890E003
:1012300005C081E890E002C082E890E00C94760757
:1012400098E5980F973108F08EC0883A09F445C0A8
:10125000893A09F445C08A3A09F445C08B3A09F441
:1012600045C08C3A09F445C08B3B09F445C08C3B22
:1012700009F445C08D3A09F445C0803B09F445C0E6
:101280008E3A09F445C08F3A09F445C0813B09F410
:1012900045C0823B09F445C0833B09F445C0843B0B
:1012A00009F445C0853B09F445C0863B09F445C0B7
:1012B000873B09F445C0883B09F445C0893B09F4E4
:1012C00045C08D3B09F445C08E3B09F445C08A3BBF
:1012D00009F445C080E090E044C082EE90E041C057
:1012E00089EE90E03EC08AEE90E03BC085EB90E056
:1012F00038C086EB90E035C083EB90E032C084EBE1
:1013000090E02FC087EB90E02CC08CEC90E029C0DF
:101310008DEC90E026C083E891E023C08AE891E05C
:1013200020C082E991E01DC084E991E01AC081E209
:1013300092E017C083E292E014C084E292E011C010
:1013400085E292E00EC086E292E00BC087E292E076
:1013500008C08FE690E005C080E790E002C08AE216
:1013600092E00C948C07803F20F00E945F170C9451
:101370004C180895882309F464C0823879F40E94D7
:10138000420781FF5EC069E38091000190910101F5
:101390000E9442140E94E71269E310C08338B1F43E
:1013A0000E94420780FF4DC063E58091000190914B
:1013B00001010E9442140E94E71263E5809100013E
:1013C000909101010E944D140C94E712843879F435
:1013D0000E94420782FF35C067E48091000190912E
:1013E00001010E9442140E94E71267E4E7CF9CEFDC
:1013F000980F913A10F4682FE1CF90E2980F98304F
:1014000050F4877091E001C0990F8A95EAF7892F0F
:101410000E94A412D9CF9BE5980F933020F480E06E
:1014200090E00C94760798E5980F973120F480E0CF
:1014300090E00C948C07803F20F00E94C7170C941A
:101440004C180895CF93C82F0E949C08C93349F4C3
:101450002FEF87EE93E0215080409040E1F700C0ED
:1014600000008C2FCF910C94BA09882321F00E94A0
:101470009E120C94E7120895882321F00E94A41272
:101480000C94E7120895BF92CF92DF92EF92FF92F1
:101490000F931F93CF93DF937C01062FC72FFC017F
:1014A000158112951F70D281D1110E94BB120E942A
:1014B0009412882379F0DD2369F080E2800F883070
:1014C00048F082E00E9432130E94941291E0B82EFC
:1014D000B92601C0B12CCC2EC2948FE0C822D12CE9
:1014E000F601E859FF4F0C943C208C2F807FCF7081
:1014F000882311F0C295C07FDD2399F0CC2309F435
:10150000CEC180E2800F883010F0011104C08C2F12
:101510000E949E1203C08C2F0E94AE120E94E712FE
:10152000BEC1802F0E94BA09CC2309F4DDC180E23C
:10153000800F883010F0011104C08C2F0E94A4127B
:1015400003C08C2F0E94B4120E94E712CDC18C2FD1
:10155000807FCF70803211F0C295C07F002319F0D8
:101560000130C9F022C0DD2371F0112341F01130A8
:1015700031F40E94CE128C2B0E94D412B5C10E946D
:10158000CE128C2B1DC0112319F0113009F4ACC1FF
:101590000E94DD1225C0DD2321F0163008F0A4C121
:1015A0000EC0153008F0A0C11BC0DD2361F011236F
:1015B00031F0F701858180FF72C18F7085838C2F98
:1015C0000E94350A91C1112359F0093309F078C1FD
:1015D000FFEF27EE83E0F15020408040E1F76EC13D
:1015E0008C2F0E943C0A80C18C2F86958695837033
:1015F00090E0009719F0019761F076C1DD2321F0AA
:10160000802F9C2F937002C080E090E00E947607AC
:1016100076C1DD2321F0802F9C2F937002C080E0E3
:1016200090E00E948C076BC1DD23F9F0053F51F07B
:10163000063F71F0043FA9F48091D3019091D40149
:1016400081600BC08091D3019091D401826005C06C
:101650008091D3019091D40184609093D4018093C0
:10166000D301802F0E945F171EC0053F51F0063F37
:1016700071F0043FA9F48091D3019091D4018E7F41
:101680000BC08091D3019091D4018D7F05C08091D2
:10169000D3019091D4018B7F9093D4018093D30197
:1016A000802F0E94C7170E944C1829C18C2F83706D
:1016B00009F049C0D1111FC1402F4295469547708E
:1016C000440F440F602F6F70862F90E0A0E0B0E0D1
:1016D000042E04C0880F991FAA1FBB1F0A94D2F7BB
:1016E00004FF10C00FE010E020E030E004C0000F65
:1016F000111F221F331F4A95D2F700951095209590
:10170000309503C000E010E09801C695C695C370FF
:10171000D0E0BC01CD01602B712B822B932BC2300A
:10172000D10559F0C330D10559F0219719F00E9425
:10173000D510E1C00E94C310DEC00E94E710DBC0DC
:101740000E94C110D8C0DD2319F08C2F817001C018
:101750008695882309F4CFC0402F4295469547705F
:10176000440F440F602F6F70862F90E0A0E0B0E030
:10177000042E04C0880F991FAA1FBB1F0A94D2F71A
:1017800004FF10C00FE010E020E030E004C0000FC4
:10179000111F221F331F4A95D2F7009510952095EF
:1017A000309503C000E010E09801C695C695C3705F
:1017B000D0E0BC01CD01602B712B822B932BC2306A
:1017C000D10559F0C330D10559F0219719F00E9485
:1017D0009B1191C00E9489118EC00E94AD118BC0D7
:1017E0000E94FC1088C0CF70DD2339F08C2F0E943E
:1017F0002211802F0E94350A7EC0802F0E943C0A51
:101800008C2F0E94431177C0023F01F128F4003F62
:1018100041F0013FA1F03FC0033FF9F0043F39F12F
:101820003AC0DD2341F0153008F05EC08C2F8F7177
:101830000E94681159C0163008F056C0F7CFDD235A
:1018400039F08C2F8F710E9422114EC0DD23C9F315
:101850008C2F8F710E94431147C0DD2329F08C2FFC
:101860008F710E940D1140C00E9408113DC0DD2300
:1018700049F0CF718C2F0E94221163E08C2F0E94BF
:101880001D1332C081E00E943213123068F182E0F1
:101890000E94321329C0DD2331F0112391F2802FF1
:1018A0000E949C0821C0112399F2093349F49FEF4B
:1018B000E7EEF3E09150E040F040E1F700C00000B7
:1018C000802F0E94BA0910C04C2F4F70602FC701A3
:1018D0000E94FE020E94341012C04C2F4F70602FE5
:1018E000C7010E9401030BC028E0C21AD10884E09E
:1018F000C816D10420F40E9442070E940302BB20B4
:10190000D1F00E94901280FD16C0F70112820E9451
:101910008A120E942211C7010E94A50C0E948A12FD
:10192000DF91CF911F910F91FF90EF90DF90CF90BB
:10193000BF900C944311DF91CF911F910F91FF90B5
:10194000EF90DF90CF90BF9008950F931F93CF93A8
:10195000DF93EC01888199812B813C81232BB9F0A5
:101960009F3F11F48F3F99F0CE010E94150288230A
:1019700071F0688179818A810E9467128C010E94CE
:10198000BF110E94C010B801CE010E94430ADF912E
:10199000CF911F910F9108950E94BB120E94CB120C
:1019A0000E94E7120E94F2180E944C1880E090E01A
:1019B0000E94760780E090E00C948C0780910001F3
:1019C000909101010E9458140C94CC0C0E94AB120F
:1019D0000C94DE0CE92FE295EF70F0E03297EE30D8
:1019E000F105B0F4E858FF4F0C943C20803F91F093
:1019F00018F4883E68F40EC0843F51F40BC0883E52
:101A000048F0813F29F406C093FB882780F90895A8
:101A100080E0089581E008950E945C120E94EA0C23
:101A20000895CF93DF9300D000D01F92CDB7DEB7DB
:101A30000F900F900F900F900F90DF91CF9108951E
:101A4000CF93DF9300D000D000D0CDB7DEB726967D
:101A50000FB6F894DEBF0FBECDBFDF91CF910895D2
:101A60001F93CF93DF93C091350116E0809136012B
:101A7000C81799F0D0E01C9FF0011D9FF00D1124B4
:101A8000E95CFE4F4081518162817381848195813F
:101A90000E94200D2196C770E9CFDF91CF911F9151
:101AA00008954091670150916801609169017091BA
:101AB0006A0180916B0190916C010C94200D8091D2
:101AC0006C0182958F7009F054C080916901882360
:101AD00009F44FC080913501A091360160916701F2
:101AE0007091680140916A0150916B01B6E08A17CC
:101AF00009F43FC090E041155105C1F17F3F11F459
:101B00006F3FA1F1B89FF001B99FF00D1124E95C7E
:101B1000FE4F218172132AC02081621327C02281C7
:101B2000211124C0238134812417350710F421505A
:101B30003109241B350B283C3105C0F420916C0180
:101B40002F70206120936C0126E0289FF001299FCF
:101B5000F00D1124E45CFE4F80818F7080618083E2
:101B600087E691E00E94A50C0C94300D01968770D9
:101B7000BECF0895CF92DF92EF92FF920F931F9303
:101B8000CF93DF93CDB7DEB762970FB6F894DEBF81
:101B90000FBECDBF8C0185E0F801DE011D960190DE
:101BA0000D928A95E1F7D8014C9111965C911197AD
:101BB00012966C9112971396CD90DC9014973091F9
:101BC00067017091680180916A0190916B010097A3
:101BD00009F46BC17F3F19F43F3F09F466C1E090FF
:101BE0006901EE2009F4C0C020916C01C816D90625
:101BF00028F0F601E81BF90BCF0104C08095909501
:101C00008C0D9D1DFF24F394883C910578F0F12CF8
:101C1000207F09F0C6C07C2DD98AC88A89890E9494
:101C2000110D87E691E00E94A50CB1C0822F807F44
:101C300009F046C0751314C0341312C0611110C0EE
:101C40002F70206120936C010E94510D87E691E076
:101C50000E94A50C80916C01D80115968C932EC022
:101C6000CD2819F15F3F11F44F3FF9F0F62E6111C5
:101C70001CC0809135012091360136E0821709F4AD
:101C80005AC090E0389FF001399FF00D1124E95CB3
:101C9000FE4F7181571306C07081471303C07281D4
:101CA000711103C001968770E9CFF62E662309F4FF
:101CB00027C180916C01816080936C01F12C20C15F
:101CC000751308C0341306C0611104C080916C0103
:101CD000D801C3C04D875E878D859E856A8B0E9423
:101CE0000C0D6A898823E1F16623D1F120916C0102
:101CF000822F82958F7090E0029774F08091670137
:101D00009091680198878F831986DB86CA862C8715
:101D1000CE0107960E94A50C86E0F801A7E6B1E087
:101D200001900D928A95E1F70E945F0D0E94510D7E
:101D3000FF24F394E5C04D875E878D859E850E94C4
:101D40005C12292F22952F7030E0223031050CF0E3
:101D5000CBC09F7009F0C5C0805E883008F4D0C049
:101D6000C8010E94A50CE4CFC816D90608F453C0D8
:101D7000F601E81BF90BCF01883C910508F450C02F
:101D8000F12C7C2DD98AC88A89890E94110DE7E639
:101D9000F1E086E0DF011D928A95E9F70E94510D7E
:101DA000AFC0751314C0341312C0611110C08091FC
:101DB0006C01F8018583C8010E94A50C86E0E7E666
:101DC000F1E0DF011D928A95E9F7FE2C99C04D875D
:101DD0005E878D859E856A8B0E940C0D6A8988239B
:101DE00009F4BECF662309F4BBCF20916C01822F8A
:101DF00082958F7090E002970CF48ECF80916701EE
:101E0000909168019A8389831B82DD82CC822E8324
:101E1000CE0101967FCF809590958C0D9D1DACCF06
:101E2000F62E662309F49CCF75132EC034132CC0F4
:101E300020916C0120FD1FC0822F82958F70D9F0F8
:101E4000D80115962C9315978F3049F08F5F982FF6
:101E50009295907F822F8F70892B15968C93C80155
:101E60000E94A50C86E0F801A7E6B1E001900D9272
:101E70008A95E1F793CF86E0F801A7E6B1E00190FB
:101E80000D928A95E1F73CC04D875E878D859E85D2
:101E90000E940C0D811140CF80916C018160809374
:101EA0006C01C8010E94A50C2BC0662309F458CF11
:101EB0004D875E878D859E850E940C0DF82E8823A8
:101EC00009F44ECF86E0F801A7E6B1E001900D924B
:101ED0008A95E1F787E691E00E9496080E945F0DDF
:101EE0005DCF811139CF0CC0243031050CF038CFD3
:101EF0009F7009F431CFF8019581907F09F02CCFC4
:101F00008F2D62960FB6F894DEBF0FBECDBFDF9166
:101F1000CF911F910F91FF90EF90DF90CF90089598
:101F20001F93CF93DF93CDB7DEB72C970FB6F894FE
:101F3000DEBF0FBECDBF4F83588769877A878B87F7
:101F40009C87CE0107960E94BA0D882369F08F8185
:101F500098852A853B85232BF1F19F3F09F063C0CB
:101F60008F3F09F060C037C086E0FE013796DE0182
:101F7000119601900D928A95E1F76F817885EA8537
:101F8000FB85309741F17F3F11F46F3F21F12091A4
:101F9000360130E0C90101968770992740913501DB
:101FA00050E08417950709F447C069837A83FD835D
:101FB000EC8396E0929FD001939FB00D1124A95C11
:101FC000BE4FFE01319601900D929A95E1F78093F4
:101FD00036010E94300D16E0809135019091360156
:101FE0008917C1F1189FC0011124895C9E4F0E947E
:101FF000BA0D882379F1E09135011E9FF00111247B
:10200000E95CFE4F408151816281738184819581B9
:102010000E94200D8091350190E0019687709927EC
:1020200080933501D9CF4F81588569857A858B8515
:102030009C850E94200DCFCF0E94E60C10923601A5
:1020400010923501E7E6F1E086E0DF011D928A9506
:10205000E9F7C1CF2C960FB6F894DEBF0FBECDBF07
:10206000DF91CF911F910895EF92FF920F931F93ED
:10207000CF93DF938C01892B09F46CC0F12CEE24F3
:10208000E394E8012196F8018491843740F4843088
:1020900008F051C0813081F0823019F15BC0853782
:1020A00009F444C0A8F19CE7980F903708F052C09B
:1020B0008F770E94BA0941C00E5F1F4FFE01C49185
:1020C00080E28C0F883048F4C7708E2D01C0880FD5
:1020D000CA95EAF70E94BE1214C08C2F0E949C0879
:1020E0002DC00E5F1F4FFE01C49180E28C0F88301F
:1020F00058F4C7708E2D01C0880FCA95EAF70E9468
:10210000C4120E94E7121AC08C2F0E94BA0916C08E
:102110000E5F1F4FFE01C491CC2381F08FE99FE039
:102120000197F1F700C00000C150F6CF0E5F1F4FBE
:10213000FE01F49003C00E949C088E018F2D88231D
:1021400009F49FCFEFE9FFE03197F1F700C00000FD
:102150008150F5CFDF91CF911F910F91FF90EF90BC
:10216000089508950C94B1100E94B21060937B0101
:1021700070937C0180937D0190937E010C94CC0C34
:1021800008950C94B4100F931F9300917B0110914C
:102190007C0120917D0130917E01602B712B822B7F
:1021A000932B1F910F910C94B4100F931F930091D8
:1021B0007B0110917C0120917D0130917E01602393
:1021C0007123822393231F910F910C94B4100F93CA
:1021D0001F9300917B0110917C0120917D01309132
:1021E0007E0160277127822793271F910F910C94FE
:1021F000B41008950C94F9100E94FA1060937701BE
:10220000709378018093790190937A010C94CC0CAF
:1022100060E070E0CB010C94FC100F931F9341E041
:1022200050E060E070E08A019B0104C0000F111FC4
:10223000221F331F8A95D2F7C901B8011F910F9150
:102240000C94FC100F931F9341E050E060E070E0AD
:1022500004C0440F551F661F771F8A95D2F78091DF
:10226000770190917801A0917901B0917A018A016A
:102270009B01082B192B2A2B3B2BC901B8011F915D
:102280000F910C94FC100F931F9341E050E060E01D
:1022900070E004C0440F551F661F771F8A95D2F760
:1022A0004095509560957095809177019091780157
:1022B000A0917901B0917A018A019B010823192329
:1022C0002A233B23C901B8011F910F910C94FC10E4
:1022D0000F931F9341E050E060E070E004C0440FB2
:1022E000551F661F771F8A95D2F7809177019091CD
:1022F0007801A0917901B0917A018A019B010827A8
:1023000019272A273B27C901B8011F910F910C9467
:10231000FC100F931F930091770110917801209189
:10232000790130917A01602B712B822B932B1F91B5
:102330000F910C94FC100F931F9300917701109153
:1023400078012091790130917A01602371238223F1
:1023500093231F910F910C94FC100F931F930091E6
:102360007701109178012091790130917A016027ED
:102370007127822793271F910F910C94FC100895C9
:10238000292F220F920F890FA82FA695A695A69503
:10239000877051E001C0550F8A95EAF785E0A89F44
:1023A000D001112420E030E070E0F901EA0FFB1FBA
:1023B000E359FE4F4081CB01022E02C096958795CE
:1023C0000A94E2F7817099278195842785238427D1
:1023D00080832F5F3F4F2530310539F70895292F2E
:1023E000220F920F890F682F669566956695982F34
:1023F000977085E0689FB001112440E050E080E0D4
:10240000FA01E60FF71FE359FE4F208130E0092E55
:1024100002C0369527950A94E2F721703327042EDF
:1024200001C0220F0A94EAF7822B4F5F5F4F4530BD
:10243000510531F70895BF92CF92DF92EF92FF924C
:102440000F931F93CF93DF938C01C0907B01D090AB
:102450007C01E0907D01F0907E0180917701909168
:102460007801A0917901B0917A01C82AD92AEA2A83
:10247000FB2ACFE1D0E0D701C6010C2E04C0B695EF
:10248000A795979587950A94D2F780FF07C0BC2E31
:10249000B8018C2F0E942003019719F4219758F757
:1024A000B12C8B2DDF91CF911F910F91FF90EF9069
:1024B000DF90CF90BF900895CF93DF93EC010E94FF
:1024C0001B12BE010E942003DF91CF9108951F933C
:1024D000CF93DF93EB0190913401992321F0CB014D
:1024E0000E945C1213C0882349F0CB010E941B128A
:1024F000182F682FCE010E94C01104C0CB010E948A
:10250000EF11182FBE01812F0E942003DF91CF9180
:102510001F91089580917F018595859585950895F2
:1025200080917F018770089590917F01977081E07D
:1025300009F480E008958091A30108959091A3018A
:10254000892B8093A301089580959091A3018923FD
:102550008093A30108951092A30108959091A20180
:10256000892B8093A201089580959091A2018923DF
:102570008093A20108951092A20108959091A10163
:10258000892B8093A101089580959091A1018923C1
:102590008093A10108951092A10108958091800176
:1025A000089508950C94D11290918001981721F00C
:1025B000809380010C94D212089580918001882329
:1025C00029F01092800180E00C94D2120895E091DD
:1025D0000001F09101018091A3018083E09100014D
:1025E000F091010190818091A201892B8083E0917B
:1025F0000001F091010190818091A101892B8083DC
:1026000080918001882381F0E0910001F091010127
:102610009081892B808380910001909101010E941B
:10262000DD1381110E94DD12809100019091010162
:102630000C944E0708950C941A1398E0899F90010A
:102640001124262B20937F010E94221180917F016B
:102650008595859585950C941B1310927F0180E0DC
:102660000C941B1320917F018095822380937F011E
:10267000982F977079F430E0482F082E000C550BF6
:102680002417350739F08595859585950E94431166
:102690000C942D13089580E090E00E945E2021E0CC
:1026A0008D3E9E4F09F020E0822F089582E090E059
:1026B0000C945620682F82E090E00C94642083E014
:1026C00090E00C945620682F83E090E00C946420F6
:1026D00084E090E00C945620682F84E090E00C9405
:1026E0006420AB01BC018FE090E00C947620AB013C
:1026F000BC0183E190E00C94762060E070E0CB01B7
:102700000C94771360E070E0CB010E9471130C947D
:102710007D136DEE7EEF80E090E00E94822060E00D
:1027200082E090E00E94642060E083E090E00E94FC
:10273000642010927B0110927C0110927D01109216
:102740007E0160E084E090E00E94642060E085E02B
:1027500090E00E94642060E086E090E00E946420A7
:102760006FEF87E090E00E94642040E050E0BA0103
:1027700088E090E00E94762060E08DE090E00E948A
:10278000642040E050E0BA0188E190E00E947620A9
:1027900060E087E190E00E94642040E050E0BA01F0
:1027A0008CE190E00E94762060E080E290E00E9460
:1027B00064200C9482130C948913FC01329680914E
:1027C0001201882331F08091D90187FF02C09EE178
:1027D00001C096E080E0915028F021912223D9F3A6
:1027E0008F5FF9CF08959C01FC0132969FEF80E046
:1027F0004191461789F09F3F19F4411101C0982F6C
:102800008F5F8630A9F79F3F39F0F901E90FF11D7D
:1028100097FDFA95628308950895FC013296089613
:102820002081261301C010823196E817F907C1F7FD
:102830000895262F2695269526952E3168F4FC01BD
:10284000E20FF11D677021E030E001C0220F6A95B0
:10285000EAF78281282B22830895262F2695269534
:1028600026952E3170F4FC01E20FF11D677021E016
:1028700030E001C0220F6A95EAF720958281282373
:102880002283089520911201222329F02091D90159
:1028900027FD0C9419140C94F31320911201222398
:1028A00029F02091D90127FD0C942D140C940D14BE
:1028B00020911201FC013296222331F08091D9013E
:1028C00087FF02C08EE101C086E0DF011D928A957C
:1028D000E9F7089508950C946A140E946B1480918E
:1028E000DF01843049F11092A50120E488E190E0F5
:1028F0000FB6F894A895809360000FBE20936000F7
:1029000080E00E9403020E946B1483B7817F846081
:1029100083BF83B7816083BF7894889583B78E7FA8
:1029200083BF0FB6F894A89580916000886180936A
:102930006000109260000FBE089508950895CF932F
:102940000E949D140E94D1050E949E14C0E08C2F0D
:102950000E947B05811104C0CF5FC430C1F701C064
:1029600081E0CF91089508950C94B3140E94E60C71
:102970000E9442070E9403020C94B4141F920F920B
:102980000FB60F9211248F939F93AF93BF938091B3
:10299000A501811113C08091D5019091D601A0911C
:1029A000D701B091D8014196A11DB11D8093D501E9
:1029B0009093D601A093D701B093D801BF91AF9166
:1029C0009F918F910F900FBE0F901F90189582E0EE
:1029D00084BD93E095BD9AEF97BD80936E000895F6
:1029E0002FB7F8948091D5019091D601A091D7018D
:1029F000B091D8012FBF0895CF92DF92EF92FF924E
:102A00000F931F932FB7F8944091D5015091D601A1
:102A10006091D7017091D8012FBF6A017B01EE242C
:102A2000FF248C0120E030E0C016D106E206F30658
:102A300010F4415051099A01281B390BC9011F910B
:102A40000F91FF90EF90DF90CF90089578941F92B0
:102A50000F920FB60F9211248F939F93AF93BF9352
:102A60008091D5019091D601A091D701B091D80164
:102A70000196A11DB11D8093D5019093D601A0931D
:102A8000D701B093D801BF91AF919F918F910F90D3
:102A90000FBE0F901F90189581E08093E00080E2B8
:102AA0008093D8001092C9008FE19EE40197F1F75E
:102AB00000C0000087E090EBDC018093E801909378
:102AC000E901A093EA01B093EB019CE088E10FB625
:102AD000F894A895809360000FBE90936000FFCF9C
:102AE000CF92DF92EF92FF920F931F93CF93C0E0AC
:102AF000E82EF12C8C2F0E947B0500E010E0C82E00
:102B0000D12CC601002E02C0959587950A94E2F754
:102B100080FD06C00F5F1F4F0330110591F70AC0FB
:102B2000602F7C2F80E00E940203E816F90691F7DF
:102B300081E004C0CF5FC430E9F680E0CF911F91FF
:102B40000F91FF90EF90DF90CF900895CF93C82F13
:102B50008CE20E947015882321F08C2FCF910C9469
:102B6000701580E0CF910895CF930E944B1381118F
:102B700002C00E94DB13C5E6C15049F00E94D10596
:102B80008FE39CE90197F1F700C00000F5CF89E2DF
:102B90000E94A61581110FC18AE20E94A61581111B
:102BA0000E94DB1385E00E94A61581110E944C153E
:102BB0000E9456138093A40187E00E94A6158823E3
:102BC000A9F18BE10E94A615882351F08091A40100
:102BD00081FB222720F991E0922790FB81F90EC01A
:102BE0008EE00E94A615882361F08091A40182FBEB
:102BF000222720F991E0922790FB82F98093A4018B
:102C000015C080E10E94A6159091A401882341F08F
:102C100093FB222720F981E0822780FB93F904C0EF
:102C2000892F809580FB90F99093A4018091A40155
:102C30000E945A130E94681390E09093DA018093E7
:102C4000D90180EE0E94A615882341F08091D90118
:102C5000982F909590FB80F98093D90189E30E9489
:102C6000A615882359F08091D90181FB222720F9EC
:102C700091E0922790FB81F98093D90182EE0E9426
:102C8000A615882359F08091D90182FB222720F9CB
:102C900091E0922790FB82F98093D90186EE0E9401
:102CA000A615882359F08091D90183FB222720F9AA
:102CB00091E0922790FB83F98093D90183EE0E94E3
:102CC000A615882359F08091D90184FB222720F989
:102CD00091E0922790FB84F98093D90185E30E94CB
:102CE000A615882359F08091D90185FB222720F968
:102CF00091E0922790FB85F98093D90181E30E94AE
:102D0000A615882359F08091D90186FB222720F946
:102D100091E0922790FB86F98093D90181E10E948E
:102D2000A615882359F08091D90187FB222720F925
:102D300091E0922790FB87F98093D9018091D90186
:102D40000E946C1387E20E94A615C82F8EE10E9494
:102D5000A6158111C2608FE10E94A6158111C46081
:102D600080E20E94A6158111C86081E20E94A6152A
:102D70008111C06182E20E94A6158111C06283E2C6
:102D80000E94A6158111C06484E20E94A6158823C2
:102D900011F0C06802C0CC2329F08C2F0E9463136D
:102DA0006C2F03C00E945F13682F70E080E090E0FA
:102DB000CF910C94C110CF9108958091A90180FF0B
:102DC0000BC06091050185E0689FB00111247595E5
:102DD0006795759567952BC081FF09C060910501C6
:102DE00085E0689FB00111247595679520C082FF2A
:102DF00007C06091050185E0689FB001112417C0EC
:102E00009091A8019923D1F060910401961788F759
:102E10002091050185E0289F90011124929FA00137
:102E2000939F500D112470E0CA010E942820603841
:102E3000710540F46115710539F002C065E070E07C
:102E4000862F08958FE7089581E008958091A90164
:102E500080FF08C06091030170E0759567957595D6
:102E6000679521C081FF06C06091030170E07595F0
:102E7000679519C082FF04C06091030170E010C023
:102E80009091A8019923C1F0609102019617A0F7D3
:102E900080910301899FC001112470E00E942820C5
:102EA0006038710528F46115710521F0862F0895A9
:102EB0008FE7089581E0089561E070E0F4CF803FEE
:102EC00021F40E94DD16819504C0813F29F40E94FF
:102ED000DD168093AD010895823F21F40E94DD1636
:102EE000819504C0833F29F40E94DD168093AC01D4
:102EF0000895893F19F40E94261705C08A3F31F4CE
:102F00000E94261781958093AE0108958B3F21F48E
:102F10000E942617819504C08C3F29F40E94261731
:102F20008093AF010895843F21F48091AB018160CB
:102F300017C0853F21F48091AB01826011C0863FAC
:102F400021F48091AB0184600BC0873F21F4809114
:102F5000AB01886005C0883F31F48091AB0180618E
:102F60008093AB0108958D3F21F48091A901816088
:102F70000BC08E3F21F48091A901826005C08F3F74
:102F800029F48091A90184608093A9010895803F6C
:102F900039F48091AD0187FF6CC01092AD0169C01A
:102FA000813F29F48091AD011816BCF362C0909165
:102FB000AC01823F29F497FF5CC01092AC0159C06C
:102FC000833F19F41916CCF354C0893F41F4809122
:102FD000AE0118160CF04DC01092AE014AC08A3FE7
:102FE00029F48091AE0187FF44C0F6CF8B3F39F4BE
:102FF0008091AF0187FF3DC01092AF013AC08C3F76
:1030000029F48091AF011816BCF333C0843F21F43A
:103010008091AB018E7F17C0853F21F48091AB0179
:103020008D7F11C0863F21F48091AB018B7F0BC057
:10303000873F21F48091AB01877F05C0883F31F441
:103040008091AB018F7E8093AB0113C08D3F21F443
:103050008091A9018E7F0BC08E3F21F48091A90140
:103060008D7F05C08F3F29F48091A9018B7F8093CC
:10307000A9018091AC0181110EC08091AD01811137
:103080000AC08091AE01811106C08091AF0181110B
:1030900002C01092A80108958AEA91E00E94680790
:1030A0000E94F0149093A7018093A60108951F93A6
:1030B000CF93DF938091A6019091A7010E94FC1409
:1030C000AC019091A801992321F02091060130E0F4
:1030D00006C0209107018AE0289F90011124421721
:1030E000530708F47BC08091AC01C091AD01D09131
:1030F000AE011091AF01811107C0C1116BC0D11198
:1031000069C0111167C06AC09F3F19F09F5F90931B
:10311000A801181624F40E94DD168093AC0180915A
:10312000AC0187FF05C00E94DD1681958093AC013C
:103130001C1624F40E94DD168093AD018091AD0130
:1031400087FF05C00E94DD1681958093AD01309107
:10315000AC013323E1F02091AD012223C1F045EB16
:103160003403C0011124892F990F990B009709F49A
:1031700081E08093AC0135EB2303C0011124892F3A
:10318000990F990B009709F481E08093AD011D160A
:1031900024F40E9426178093AE018091AE0187FF30
:1031A00005C00E94261781958093AE01111624F464
:1031B0000E9426178093AF018091AF0187FF05C061
:1031C0000E94261781958093AF01DF91CF911F91C7
:1031D0000C944C189F3F09F099CFA1CFDF91CF916C
:1031E0001F910895EAEAF1E086E0DF011D928A95D9
:1031F000E9F71092A8011092A90108958091D001D9
:1032000008950F931F93CF93DF9300D01F92CDB7F4
:10321000DEB78C010E946F1B823011F0843021F5E3
:1032200084E089831B830A8382E08093E9008FEF27
:103230009091E800815095FD06C095ED9A95F1F7C3
:1032400000008111F5CF8091E80085FF0DC040E0BE
:1032500050E063E070E0CE0101960E948C1B8091EB
:10326000E8008E778093E8000F900F900F90DF9129
:10327000CF911F910F910895CF93DF9300D01F92AC
:10328000CDB7DEB72091DF01243031F523E029836B
:10329000805891099B838A8382E08093E9008FEFB5
:1032A0009091E800815095FD06C095ED9A95F1F753
:1032B00000008111F5CF8091E80085FF0DC040E04E
:1032C00050E063E070E0CE0101960E948C1B80917B
:1032D000E8008E778093E8000F900F900F90DF91B9
:1032E000CF910895CF93DF93EC010E946F1B823042
:1032F00011F08430F9F482E08093E9009FEF80912F
:10330000E800915085FD06C085ED8A95F1F7000033
:103310009111F5CF8091E80085FF0CC040E050E0AE
:1033200066E070E0CE010E948C1B8091E8008E77F1
:103330008093E800DF91CF910895CF93DF93EC0164
:103340000E946F1B823011F08430D9F580911201F8
:10335000882339F08091D90187FF03C060E282E0C1
:1033600002C068E081E08093E9008FEF9091E8006F
:10337000815095FD06C095ED9A95F1F700008111F9
:10338000F5CF8091E80085FF1CC08091120181116A
:1033900005C040E050E068E070E003C070E040E04D
:1033A00050E0CE010E948C1B8091E8008E778093C4
:1033B000E80080E2FE01A0EBB1E001900D928A9559
:1033C000E1F7DF91CF9108958091DE01811109C06D
:1033D0000E94211D0E947E1D8091E20084608093E6
:1033E000E20008951092DE010895089508950C9466
:1033F000B61442E061EC81E00E949B1C42E261EC69
:1034000082E00C949B1C8091E101833009F460C040
:1034100030F4813071F0823009F499C008958A3017
:1034200009F485C08B3009F46BC0893009F0A7C05E
:1034300020C08091E001813A09F0A1C08091E800AC
:10344000877F8093E8008091E4019091E501892BCA
:1034500021F460E280EB91E003C060E080E090E066
:1034600070E00E94D71B8091E8008B778093E80082
:1034700008958091E001813209F081C08091E401DA
:103480009091E501029708F07AC08091E800877F6B
:103490008093E8008091E80082FD05C08091DF0103
:1034A0008111F8CF6CC02091F3008091F20090E080
:1034B000922B029729F48091F1008B7F813021F4C7
:1034C0008091F1008093D0018091E8008B7753C008
:1034D0008091E001813A09F052C08091E40190911D
:1034E000E501892B09F04BC08091E800877F80932C
:1034F000E8008091E80080FFFCCF8091120136C087
:103500008091E0018132D9F58091E4019091E5014B
:10351000892BA9F58091E800877F8093E8000E94BD
:10352000D01C8091E201809312010C94E60C8091F2
:10353000E001813221F58091E800877F8093E800E7
:103540000E94D01C8091E3018093D1010895809165
:10355000E001813AA1F48091E800877F8093E80040
:103560008091E80080FFFCCF8091D1018093F10031
:103570008091E8008E778093E8000C94D01C089529
:1035800084B7877F84BF0FB6F894A89580916000B8
:10359000886180936000109260000FBE80E8809385
:1035A0006100109261000E94B0070E94211D0E94DC
:1035B0007E1D8091E20084608093E20078940E94F6
:1035C0000D200E94B80788E091E00E943D0780919D
:1035D000DF01853069F40E946D148091DD0188233C
:1035E000B1F30E949F14882391F30E94761BEFCFC2
:1035F0000E94C007ECCF0C94FD1A292F33272330EB
:103600003105C9F064F42130310581F022303105F3
:1036100009F04CC08BE390E020E931E04BC021324F
:10362000310521F12232310589F140C082E190E07B
:103630002BEC31E03FC099278130910571F02CF4DB
:10364000892BA1F5ECE8F1E00DC08230910541F045
:10365000039761F5E0E5F1E005C0E4E6F1E002C0C2
:10366000E6E5F1E0849190E09F0124C061157105C9
:1036700041F061307105D1F489E090E02BEB31E04D
:1036800019C089E090E022EA31E014C061157105AB
:1036900041F06130710551F480EC90E02DED31E0A6
:1036A00009C080E490E02DE932E004C080E090E0C1
:1036B00020E030E0FA013183208308950895CF930C
:1036C000C82F0E945E1BC093D201CF9108958091B4
:1036D000DF01843011F081E0089582E00895809147
:1036E000D201811102C00C94671B089580E189BD4D
:1036F00082E189BD09B400FEFDCF8091D8008F7DA5
:103700008093D8008091E00082608093E0008091F7
:10371000E00081FDFCCF0895CF92DF92EF92FF92FF
:103720000F931F93CF93DF93EC018B016A010E94EB
:10373000EF1C811133C0C114D10439F0F60180812E
:103740009181081B190BC80FD91FE12CF12C011511
:10375000110519F18091E80085FD16C08091E800FF
:103760008E778093E800C114D10449F0F60180817E
:103770009181E80EF91EF182E08285E00FC00E947F
:10378000EF1C882321F30AC089918093F100015036
:103790001109FFEFEF1AFF0ADACF80E0DF91CF9136
:1037A0001F910F91FF90EF90DF90CF90089520919F
:1037B000E6013091E7012617370748F061157105DA
:1037C00039F42091E8002E772093E80001C0B90178
:1037D00040E061157105A9F12091DF01222309F470
:1037E00043C0253009F442C02091E80023FD40C0C9
:1037F0002091E80022FD32C02091E80020FFE9CFAF
:103800004091F3002091F20030E0342BFC01CF0115
:103810006115710559F02830310540F4819180938C
:10382000F100615071092F5F3F4FF1CF41E0283027
:10383000310509F040E02091E8002E772093E80060
:10384000C8CF4111C9CF0AC08091DF01882361F040
:10385000853061F08091E80083FD0AC08091E80026
:1038600082FFF2CF80E0089582E0089583E008951A
:1038700081E008952091E6013091E701261737078E
:1038800048F06115710539F42091E8002E772093F6
:10389000E80001C0B901FC0120E06115710591F15A
:1038A0008091DF01882309F440C0853009F43FC0CE
:1038B0008091E80083FD3DC08091E80082FD2FC02B
:1038C0008091E80080FFE9CF2091F3008091F20021
:1038D00090E0922B6115710559F08830910540F404
:1038E00024912093F1003196615071090196F2CF35
:1038F00021E0089709F020E08091E8008E7780931E
:10390000E800CBCF2111CCCF0AC08091DF01882302
:1039100061F0853061F08091E80083FD0AC08091FC
:10392000E80082FFF2CF80E0089582E0089583E00E
:10393000089581E00895982F973058F59093E90005
:10394000981739F07091EC002091ED005091F00043
:1039500003C0242F762F50E021FF19C03091EB00D7
:103960003E7F3093EB003091ED003D7F3093ED00D2
:103970003091EB0031603093EB007093EC002093BA
:10398000ED005093F0002091EE0027FF07C09F5FED
:10399000D3CF8F708093E90081E0089580E008958F
:1039A0008091E00187FF11C08091E80082FD05C091
:1039B0008091DF018111F8CF11C08091E8008B77F1
:1039C0000BC08091DF01882349F08091E80080FFDF
:1039D000F8CF8091E8008E778093E80008952091D9
:1039E000E4003091E50095E64091EC00842F817071
:1039F00040FF22C08091E80080FD1CC08091DF0163
:103A0000882391F0853091F08091EB0085FD10C006
:103A10004091E4005091E5004217530729F39A01C1
:103A2000915011F784E0089582E0089583E00895AD
:103A300081E0089580E008954091E80042FFDECFE4
:103A400008950E948F1D0E94971DE0EEF0E0808196
:103A500081608083E8EDF0E080818F77808319BCFE
:103A6000A7EDB0E08C918E7F8C9380818F7E8083D8
:103A70001092DE0108950F931F93CF93DF930E945E
:103A80008F1D0E94971DC8EDD0E088818F778883B5
:103A900088818068888388818F7D888319BC109293
:103AA000DF011092DB011092DD011092DC0100EECB
:103AB00010E0F80180818B7F80838881816088831A
:103AC00042E060E080E00E949B1CE1EEF0E080813B
:103AD0008E7F8083E2EEF0E0808181608083808150
:103AE00088608083F80180818E7F808388818061F7
:103AF0008883DF91CF911F910F910895E8EDF0E059
:103B000080818F7E8083E7EDF0E08081816080831B
:103B100084E082BF81E08093DE010C943B1DE8EDE0
:103B2000F0E080818E7F80831092E20008951092F1
:103B3000DA001092E10008951F920F920FB60F92D3
:103B400011242F933F934F935F936F937F938F93A2
:103B50009F93AF93BF93EF93FF938091E10082FF18
:103B60000BC08091E20082FF07C08091E1008B7F53
:103B70008093E1000E940C208091DA0080FF1FC03A
:103B80008091D80080FF1BC08091DA008E7F8093E7
:103B9000DA008091D90080FF0DC080E189BD82E10B
:103BA00089BD09B400FEFDCF81E08093DF010E9452
:103BB000E41905C019BC1092DF010E94F21980912E
:103BC000E10080FF19C08091E20080FF15C0809164
:103BD000E2008E7F8093E2008091E200806180931A
:103BE000E2008091D80080628093D80019BC85E003
:103BF0008093DF010E94F6198091E10084FF30C0BC
:103C00008091E20084FF2CC080E189BD82E189BD02
:103C100009B400FEFDCF8091D8008F7D8093D8003D
:103C20008091E1008F7E8093E1008091E2008F7EA1
:103C30008093E2008091E20081608093E2008091B5
:103C4000DB01882311F084E007C08091E30087FD49
:103C500002C081E001C083E08093DF010E94F71978
:103C60008091E10083FF29C08091E20083FF25C09D
:103C70008091E100877F8093E10082E08093DF0103
:103C80001092DB018091E1008E7F8093E1008091B2
:103C9000E2008E7F8093E2008091E2008061809359
:103CA000E20042E060E080E00E949B1C8091F00016
:103CB00088608093F0000E94F519FF91EF91BF9109
:103CC000AF919F918F917F916F915F914F913F91B4
:103CD0002F910F900FBE0F901F9018951F920F926B
:103CE0000FB60F9211242F933F934F935F936F93CF
:103CF0007F938F939F93AF93BF93CF93DF93EF9374
:103D0000FF93C091E900CF708091EC00D82FD17063
:103D100080FDD0E81092E9008091F000877F8093C9
:103D2000F00078940E94B21E1092E9008091F00099
:103D300088608093F000CD2BCF70C093E900FF9195
:103D4000EF91DF91CF91BF91AF919F918F917F9133
:103D50006F915F914F913F912F910F900FBE0F90F8
:103D60001F9018951F93CF93DF93CDB7DEB7AA9717
:103D70000FB6F894DEBF0FBECDBFE0EEF1E088E0F5
:103D80008E0F9091F10091938E13FBCF0E94031A36
:103D90008091E80083FF28C18091E0019091E101CA
:103DA000492F50E04A30510508F01EC1FA01EA5788
:103DB000FF4F0C943C20803821F0823809F014C168
:103DC00008C08091DC019091DD01992389F0826027
:103DD0000FC08091E4018F70873008F005C1809397
:103DE000E9008091EB0085FB882780F91092E900BB
:103DF0009091E800977F9093E8008093F1001092F3
:103E0000F100D0C0282F2D7F09F0EEC0882319F0D3
:103E1000823061F0E9C08091E201813009F0E4C0B4
:103E2000933009F080E08093DD012EC08091E201A3
:103E300081112AC08091E4018F702FEF280F263066
:103E400008F0D2C08093E9002091EB0020FF1CC055
:103E5000933021F48091EB00806214C09091EB00CC
:103E600090619093EB0021E030E0A90102C0440F83
:103E7000551F8A95E2F74093EA001092EA0080917C
:103E8000EB0088608093EB001092E9008091E800DD
:103E9000877F8093E8000E94D01CA6C08111A4C037
:103EA0001091E2011F778091E3008078812B80934D
:103EB000E3008091E800877F8093E8000E94D01C97
:103EC0008091E80080FFFCCF8091E30080688093C0
:103ED000E300111102C082E001C083E08093DF01A2
:103EE00083C08058823008F07FC08091E2019091B9
:103EF000E3018C3D53E0950779F583E08A838AE2FC
:103F000089834FB7F894DE01139620E03EE051E23A
:103F1000E32FF0E050935700E49120FF03C0E295B7
:103F2000EF703F5FEF708E2F90E0EA3010F0C79691
:103F300001C0C0968D939D932F5F243149F74FBFE9
:103F40008091E800877F8093E8006AE270E0CE010C
:103F500001960E94D71B15C06091E4017091E501A4
:103F6000AE014F5F5F4F0E94FB1ABC01892BE1F14C
:103F70009091E800977F9093E80089819A810E9450
:103F80003A1C8091E8008B778093E8002DC0803840
:103F900059F58091E800877F8093E8008091DB01EC
:103FA0008093F1008091E8008E7773CF81111CC05F
:103FB0009091E2019230C0F48091E800877F809375
:103FC000E8009093DB010E94D01C8091DB018111FD
:103FD00006C08091E30087FD02C081E001C084E05B
:103FE0008093DF010E94F9198091E80083FF0AC0E5
:103FF0008091E800877F8093E8008091EB008062E9
:104000008093EB00AA960FB6F894DEBF0FBECDBF2B
:10401000DF91CF911F9108950895CF938091DF0193
:104020008823A1F0C091E900CF709091EC00892F16
:10403000817090FD80E8C82B1092E9008091E80023
:1040400083FD0E94B21ECF70C093E900CF91089506
:1040500097FB072E16F4009407D077FD09D00E9435
:10406000422007FC05D03EF4909581959F4F08951E
:10407000709561957F4F0895EE0FFF1F0590F491A5
:10408000E02D0994AA1BBB1B51E107C0AA1FBB1F4F
:10409000A617B70710F0A61BB70B881F991F5A95D4
:1040A000A9F780959095BC01CD010895F999FECFAF
:1040B00092BD81BDF89A992780B50895A8E1B0E036
:1040C00042E050E00C948A20262FF999FECF92BD51
:1040D00081BDF89A019700B4021639F01FBA20BDCD
:1040E0000FB6F894FA9AF99A0FBE08950396272FFF
:1040F0000E9465200E946420252F0E946520242FA5
:104100000C9465200196272F0E9465200C94642052
:10411000DC01CB01FC01F999FECF06C0F2BDE1BD87
:10412000F89A319600B40D9241505040B8F7089576
:04413000F894FFCF31
:1041340081012808140A321EFE189D1972193C19AF
:0A414400011901F73133946697C6A4
:00000001FF
