:100000000C94A6020C94ED020C94ED020C949B133C
:100010000C94ED020C94ED020C94ED020C94ED02A4
:100020000C94ED020C94ED020C9461240C94332595
:100030000C9405200C94ED020C94ED020C94ED024E
:100040000C94ED020C94ED020C94ED020C94ED0274
:100050000C94ED020C9452200C94ED020C94ED02E1
:100060000C94ED020C94ED020C94ED020C94ED0254
:100070000C94ED020C94ED020C94ED020C94ED0244
:100080000C94ED020C94ED020C94ED020C94ED0234
:100090000C94ED020C94ED020C94ED020C94ED0224
:1000A0000C94ED020C94ED020C94ED021F10221042
:1000B00027102E10331038103D10421047104C10EE
:1000C0005110561058105B105E10611064106710CC
:1000D00069106E10A616A616D816D8162E182E1849
:1000E0002E182E182517BE17CF17CF17C218C218F3
:1000F000D418D418CB18D418D418D418C218C218CD
:10010000D018D418D418D018A025C725BF26C725C5
:10011000BF2613263626BF268D269C2614001A00DD
:100120000800150017000000040016000700090071
:100130000A0000001D001B00060019000500000059
:10014000E1002C00E200E3002A5D296113001200A7
:100150000C0018001C00000028000F000E000D000D
:100160000B000000380037003600100011000000BE
:100170000000E300E4002A642B5D2C621E001F00D7
:1001800020002100220000002B00000000000000E1
:1001900000000000E0002C00E100E2004C00000044
:1001A00001000100010001000100010027002600FC
:1001B000250024002300000028004F0052005100B9
:1001C00050000000000000004D004A002A0000001E
:1001D0000100010001000100010001001E021F02D8
:1001E00020022102220200002B002D022E023102E9
:1001F00035020000E0002D002E0031003500000027
:100200000100010001000100010001002702260297
:10021000250224022302000030022F02370234029A
:100220003302000030002F0036023400330000009B
:100230000100010001000100010001003A003B0043
:100240003C003D003E00000044004500005C4600CC
:100250004900000000000000000000000000000055
:100260000100010001000100010001004300420003
:10027000410040003F0000000000CA5CC85CC65C52
:10028000C35C00002D5DCB5CC95CC75CC45C000036
:1002900001000100010001000100010032190A0003
:1002A000047F3F1F643214643214783C1E1E140A0B
:1002B000052223252628292A2C2D2F3032333536A6
:1002C000383A3B3D3E4042434547494A4C4E5051E7
:1002D000535557595A5C5E6062646668696B6D6F0E
:1002E00071737577797B7D7F81838587898A8C8E11
:1002F00090929496989A9C9E9FA1A3A5A7A8AAAC19
:10030000AEAFB1B3B4B6B8B9BBBCBEBFC1C2C3C552
:10031000C6C7C9CACBCCCDCED0D1D2D2D3D4D5D6F4
:10032000D7D7D8D9D9DADADBDBDBDCDCDCDCDCDD27
:10033000DDDDDDDCDCDCDCDCDBDBDBDADAD9D9D80B
:10034000D7D7D6D5D4D3D2D2D1D0CECDCCCBCAC9A3
:10035000C7C6C5C3C2C1BFBEBCBBB9B8B6B4B3B1D2
:10036000AFAEACAAA8A7A5A3A19F9E9C9A9896946D
:1003700092908E8C8A89878583817F7D7B79777542
:1003800073716F6D6B6968666462605E5C5A595721
:10039000555351504E4C4A4947454342403E3D3BE0
:1003A0003A3836353332302F2D2C2A29282625236A
:1003B00022FFAA7F55400001010101010101010155
:1003C0000202020202020202020303030303030306
:1003D00003040404040404040505050505060606D3
:1003E0000606070707070708080808090909090A90
:1003F0000A0A0B0B0B0C0C0C0D0D0D0E0E0E0F0F35
:100400000F101011111112121313141415151616C2
:100410001717181819191A1A1B1B1C1D1D1E1E1F31
:100420002020212222232424252626272829292A80
:100430002B2C2D2D2E2F30313232333435363738A8
:10044000393A3B3C3D3E3F404142434445464748A4
:10045000494A4C4D4E4F50515354555658595A5B7A
:100460005D5E5F616264656668696B6C6D6F70721A
:10047000737577787A7B7D7E8082838587888A8C86
:100480008E8F91939596989A9C9EA0A2A3A5A7A9BA
:10049000ABADAFB1B3B5B7BABCBEC0C2C4C6C9CBB1
:1004A000CDCFD1D4D6D8DBDDDFE2E4E7E9EBEEF067
:1004B000F3F5F8FAFDFF0C0375007A0075003400BF
:1004C000320000000E036E00720074006B006200C8
:1004D000620000000403090409022200010100A0D7
:1004E000FA090400000103010100092111010001C2
:1004F0002240000705810308000A120110010000D4
:100500000008EDFE6030010001020001050109064E
:10051000A101050719E029E71500250195087501D6
:1005200081029501750881010507190029FF150051
:1005300026FF009506750881000508190129059513
:100540000575019102950175039101C011241FBE2B
:10055000CFEFDAE0DEBFCDBF04B603FE27C0809147
:10056000130490911404A0911504B09116048730DF
:10057000904BA740B04BD1F4109213041092140486
:10058000109215041092160414BE84B7877F84BF9E
:100590000FB6F894A8958091600088618093600000
:1005A000109260000FBEE0E0F8E3099511E0A0E0D2
:1005B000B1E0E0ECF0E502C005900D92AE36B10777
:1005C000D9F724E0AEE6B1E001C01D92A331B20735
:1005D000E1F70E94B4210C945E280C9400000C9466
:1005E0001103CF93DF93D62FC42F0E94721C882350
:1005F00051F08D2F0E94721C882329F08C2FDF91DF
:10060000CF910C94921C8C2FDF91CF910C94B31C42
:1006100080915903869590E090934603809345031B
:100620000895CF93FB018A322DE59207D1F040F473
:10063000843C2CE59207B9F189329D4551F055C0B3
:100640008C322DE5920729F178F08D329D45E9F144
:100650004CC0C281CC2309F449C080E00E94C5038C
:100660000EC0C28181E002C0C28182E0CC2349F089
:100670000E94921C43E062E081E00E94F102C0E02F
:1006800035C00E94B31C43E062E081E00E94F102A9
:100690002DC0C28183E0CC2319F00E94921CEFCFC1
:1006A0000E94B31C23C0C281CC2301F18091450379
:1006B0000E94650E0E94550E80915903869590E028
:1006C0009093460380934503DACFC281CC2369F02F
:1006D0000E94D8080E94680E80915903869590E088
:1006E000909346038093450301C0C1E08C2FCF91C6
:1006F000089581E0089508950C947B031F93CF9390
:10070000DF9300D000D01F92CDB7DEB749835A8364
:100710006B833091B50289819A81311114C06623AF
:1007200059F0222349F00E94891D182F682F8981D2
:100730009A810E94301D03C00E945C1D182F6981A0
:100740007A81812F04C00E94891D69817A810F906E
:100750000F900F900F900F90DF91CF911F910C94FD
:100760004604FC01262F408151816281738184817E
:100770000C947E03CF93DF93EC0160E00E94B10301
:10078000BE01DF91CF910C947C03CF93DF9361E0A6
:1007900070E0EB0102C0CC0FDD1F8A95E2F78C2FD1
:1007A0000E94C11EBE0180E090E0DF91CF910C94C9
:1007B000121C0E94AE1E811102C00E945A1F0C948E
:1007C0001E060C941C0608950E94B0180E94E303B4
:1007D0002FEF84E39CE0215080409040E1F700C07F
:1007E00000000C9478200F931F93CF93DF93EC01BC
:1007F00061E00E94B1038C01BE010E94EF028823D8
:1008000079F1BE01C8010E943B11882349F1BE0164
:10081000C8010E948D11882319F1BE01C8010E94F0
:10082000B8128823E9F0BE01C8010E94091088238C
:10083000B9F08A81882369F001158CE5180731F039
:100840000F3D1C4531F40E945A1F0AC00E94E40368
:1008500007C0CE01DF91CF911F910F910C947903C6
:1008600080E0DF91CF911F910F91089508950C942E
:10087000360481E008950C943904CF93C82F0E9468
:1008800037048C2F0E943B04CF91089520E3829F70
:10089000C0011124FC0126E0729FE00DF11D11241E
:1008A000E60FF11DEE0FFF1FE45EFE4F8591949160
:1008B0000895CF93DF930E9446040E943705EC0110
:1008C000811523E5920798F5811542E5940708F014
:1008D00094C0C11580E2D807C0F4C11521E0D20749
:1008E00008F0C1C0C53AD10548F4C430D10508F0BC
:1008F000BAC0C130D10509F4B6C0B3C0CE01805E24
:100900009109089708F4AFC0ACC0C11541E5D40700
:1009100008F06EC0C11580E5D80708F04DC0C115BC
:1009200020E4D20708F49DC0DF70D06A9CC0811516
:1009300046E5940700F5C11585E5D80708F077C0AE
:10094000C11524E5D20708F06DC0CE018370992748
:1009500021E030E002C0220F331F8A95E2F78C2F8E
:100960008695869540E2849FC0011124E901C82B39
:10097000D92BDA6878C081154AE5940778F4C11557
:1009800089E5D80708F05DC0C11528E5D20708F44D
:1009900068C0DC2FCC27C06FD06A65C09056811527
:1009A000904208F05EC08D2F8F710E94CB05DD272D
:1009B000D0628F71D82B57C0CE0174E09695879581
:1009C0007A95E1F783709C2F937021E030E002C0AC
:1009D000220F331F9A95E2F73C68382BCF70C695EB
:1009E000C69580E2C89FE0011124C22BD32B3BC0E7
:1009F000DC2FCC27C16FD06A36C08370992721E0E5
:100A000030E002C0220F331F8A95E2F78C2F8695C3
:100A1000869540E2849FC0011124E901C82BD92B9F
:100A2000DC6821C0DC2FCC27C46FD06A1CC08C2F9F
:100A30000E94CB058F71C82FD0E0DC2FCC27D0626D
:100A400012C08C2F8F700E94CB0594E0D695C7956D
:100A50009A95E1F7CF70D0E0DC2FCC27D069C82B76
:100A600002C0C0E0D0E0CE01DF91CF91089582387E
:100A7000910569F1B0F48133910509F46DC048F432
:100A80008932910509F463C08A32910509F469C07D
:100A900008958533910509F455C089339105B9F05E
:100AA0000895833E910569F138F4803E9105B1F0D7
:100AB000823E910509F10895863E9105A9F1873E90
:100AC0009105B9F1843E910509F064C023C02091DD
:100AD000040420FD4FC021FD4DC008958091040401
:100AE00080FD44C08091050480FF44C080910404CF
:100AF00084FD42C083EE4DC08091040482FF38C063
:100B0000F5CF8091040482FD33C08091050480FDFF
:100B100031C0ECCF8091050481FF32C08091040484
:100B200084FD2AC087EE35C08091040483FF26C06F
:100B3000F5CF8091040483FD21C08091050481FDDF
:100B40001FC0ECCF8091040485FD1CC01DC08091A6
:100B5000040485FD19C016C08091040486FD16C0EA
:100B600017C08091040486FD13C010C089E311C032
:100B700082EE0FC080EE0DC080E00BC086EE09C093
:100B800084EE07C089E205C085E303C08AE201C0A4
:100B900081E390E008959091040492FF0DC0282F06
:100BA0002871283019F4877F846006C0282F2471AB
:100BB000243011F48B7F886093FF0DC0282F28719B
:100BC000283119F4877E846106C0282F24712431CE
:100BD00011F48B7E88612091050420FF0DC0382F11
:100BE0003871383019F4877F816006C0382F317131
:100BF000313011F48E7F886021FF0DC0282F2871BD
:100C0000283119F4877E816106C0282F2171213196
:100C100011F48E7E886194FD877E0895E82FF0E0C0
:100C2000E15BFC4F80810895089580EA8A95F1F791
:100C3000089508950C9419060C941A060C94080350
:100C4000F894E82FE295EF70F0E031A1282F2F7093
:100C500081E090E001C0880F2A95EAF7982F9095DF
:100C6000932391A392A1892B82A378940895089548
:100C70000F931F93CF93DF930E947F07809104010E
:100C800080910401811102C094E001C090E0909332
:100C9000580384E0891B8093570384E90E9420064F
:100CA00086E60E94200687E90E94200686EC0E94C4
:100CB0002006C5E3D1E00BE311E089910E942006F4
:100CC0000C171D07D1F7E7E4F3E0AFE4B3E01192AE
:100CD0001D9283E0EF34F807D1F784E00E942907E2
:100CE0000E94D903DF91CF911F910F910C9493072C
:100CF0000E9460078823F1F08091570390E0815BA8
:100D00009C4F0E94C307811111C080916E018F5FBB
:100D100080936E01863060F0E0915703F0E0E15B74
:100D2000FC4F108211821282138202C010926E0157
:100D30000C94E1038091580390E0815B9C4F0E94EA
:100D4000E2070C9437068F929F92AF92BF92CF9298
:100D5000DF92EF92FF920F931F93CF93DF938BE37A
:100D6000A82E81E0B82EC7E4D3E09FE3E92E91E0FE
:100D7000F92E912C01E010E06501F5018081F894D5
:100D8000E82FE295EF70F0E021A18F70A80102C07A
:100D9000440F551F8A95E2F7CA01922F982B91A311
:100DA00092A18095892382A378940E941506E5E399
:100DB000F1E020E030E0812C4191A42FA295AF70AA
:100DC000B0E090968C9190E04F7002C09595879519
:100DD0004A95E2F780FD07C0802F022E01C0880FE0
:100DE0000A94EAF701C080E0882A2F5F3F4F26303F
:100DF000310511F75FEFA51AB50AF60180810E944F
:100E000020068881881619F0888281E001C080E080
:100E1000982A2196EA14FB0409F0AECF609158039A
:100E200070E0615B7C4F292D44E087E493E00E94F1
:100E30002A070E947806892DDF91CF911F910F918B
:100E4000FF90EF90DF90CF90BF90AF909F908F90EA
:100E500008950895FF920F931F93CF93DF938C0112
:100E6000F62ED72FC42F222349F081E08093710101
:100E70000E9437209093700180936F0180917101DF
:100E80008823C1F080916F01909170010E944320EE
:100E9000069780F0EF2DFD2FD8014C2F50E0CD01AB
:100EA000801B910B841795071CF48D918193F7CFCC
:100EB00010927101DF91CF911F910F91FF900895D2
:100EC00080917201811112C08091D800806180935D
:100ED000D8008AE18A95F1F700C08091D90080FDA1
:100EE00002C082E001C081E08093720181E09091B4
:100EF0007201913009F080E008950C9460070E941F
:100F00007D0780930401809104016BE1882311F037
:100F100080E001C08BE10E948D080E946007811172
:100F20000C949A0708950E946007811102C00C94E6
:100F3000A007089562E070E085E091E00C94491309
:100F400062E070E085E091E00C9452130E94D00DB5
:100F5000882361F089E791E00E94D60D81E090E05E
:100F60000E942B14892B11F40C94D30D08958091B9
:100F70007801883039F460E089E791E00E94AE0E94
:100F8000109278010895CF93DF93D82FC92F0E9434
:100F9000A60780E090E00E942B14892B79F4ED2FB6
:100FA000FC2F80E090E0DC01AC58BE4F2C912193E7
:100FB000019684309105B9F781E001C080E0DF91AE
:100FC000CF910895CF93DF93D82FC92F0E94B707F1
:100FD000ED2FFC2F80E090E02191DC01AC58BE4F5A
:100FE0002C93019684309105B9F7DF91CF91089544
:100FF000EF92FF920F931F93CF93DF938B01682F94
:1010000011110AC0442329F0E82FF0E0EA54FC4F04
:101010006491762F862F75C0212F30E0E82FF0E005
:10102000442321F0EA54FC4FE491F0E046E0049FB1
:10103000C0011124CFEFD0E0BE010E940D274BEA82
:101040004603C001479F900D1124800F911D800F12
:10105000911D982F990F890FAE01421B530B4E9F84
:10106000D0014F9FB00D5E9FB00D11249B2F189F94
:10107000A0011124452F55278E01041B150B0E9F2F
:10108000A0010F9F500D1E9F500D11247E01E81AE4
:10109000F108E29E8001E39E100DF29E100D1124D6
:1010A000212F3327C21BD30BCE9F9001CF9F300D32
:1010B000DE9F300D112462307105A9F048F46115EE
:1010C000710569F061307105C9F48B2F752F0DC062
:1010D0006430710581F058F06630710579F47E2F27
:1010E0008B2F932F0DC0832F7B2F9E2F09C08E2F08
:1010F0007B2F952F05C08E2F732F02C07E2F852F3B
:10110000692FDF91CF911F910F91FF90EF9008957C
:1011100041E00E94F80708950895E8E1F1E0808336
:10112000618308950E9488080895CF93DF93762FF6
:10113000E901682F842F0E949208798368838A834B
:10114000DF91CF910895493708F048E70C9495084E
:1011500080915903282F269530E02115310519F487
:101160008170826005C02B32310524F08170846566
:101170008093590380915C03893718F088E7809346
:101180005C03089588E090E00C94FF27CF92DF92F3
:10119000EF92FF926B017C010E94A808B701A601A3
:1011A00088E090E0FF90EF90DF90CF900C941D28A6
:1011B000E9E5F3E083E0808311828FEF828388E7A3
:1011C00083831482ACE9B2E012968C91129783600B
:1011D00012968C9360817181828193810C94C608F0
:1011E0008091590380FF02C08695089580E008959C
:1011F00090915D03933018F49F5F90935D03882373
:1012000051F06091590370915A0380915B03909162
:101210005C030C94C608089581E00C94F808909142
:101220005D03992319F0915090935D03882351F049
:101230006091590370915A0380915B0390915C0314
:101240000C94C608089581E00C940F0970E00C948A
:101250007810609119018091590380FF0AC0809134
:10126000180123E0829FC0011124825A9C4F0C94E4
:10127000260980911A0190911B01891780F7E82FA8
:10128000F0E09F01220F331FE20FF31FE25AFC4FE1
:101290001182108212828F5FF0CF9091590390FFDC
:1012A00016C090911A0120911B01921770F4E92F3A
:1012B000F0E0DF01AA0FBB1FEA0FFB1FE25AFC4F51
:1012C0008183608342839F5FF0CF0C942909089546
:1012D000CF93DF9300D01F92CDB7DEB79091590323
:1012E00090FF0AC09E012F5F3F4F0E94A3084B81D1
:1012F00069818A810E944D090F900F900F90DF91B4
:10130000CF910895CF93DF93EC01EC81F0E0EF549F
:10131000FD4F4491E9E5F3E0628181810E94680913
:101320008C818F5F8C83DF91CF910895CF93DF9372
:10133000EC01E9E5F3E0438162818C810E94680958
:101340008C818F5F8C83DF91CF9108950F931F93D2
:10135000CF93DF9300D01F92CDB7DEB78C01809181
:10136000810181110AC09E012F5F3F4F48E76FEF57
:101370000E94A3088A8180938101F80184818130D1
:1013800051F028F0823061F4409181010AC08091CF
:10139000810140E007C06091810140E080E003C02E
:1013A00040E080E060E00E944D09F801848190E017
:1013B000019663E070E00E94212784830F900F90D4
:1013C0000F90DF91CF911F910F910895AF92BF922F
:1013D000CF92DF92EF92FF920F931F93CF93DF9301
:1013E00000D01F92CDB7DEB7182FF62E042FE22EB5
:1013F0009091590390FF7EC0E92FE695AE2FB0E0A3
:10140000AD5BBE4F8C9180939C029E7F923061F4C5
:101410009E012F5F3F4F812F0E94A3084B8169815E
:101420008A810E944D0943C0823019F400915C0307
:101430003EC0863019F410915A0339C08930D9F36F
:101440008931A9F5E9518E2F8170D82EE695F0E00B
:10145000EF54FC4FA590B490C12CBB2460911C01AB
:10146000C61618F52C2D30E0A29EC001A39E900D4B
:10147000B29E900D112470E00E940D27812FD11093
:1014800002C0860F01C0861B90911A01290F311DE1
:10149000A901440F551F240F351F225A3C4F402FDE
:1014A0006F2D0E94A308C394D9CF0E94290980916F
:1014B0005A03181308C080915B03F81204C080918E
:1014C0005C03081729F080919E02826080939E023F
:1014D00010935A03F0925B0300935C03EE2051F0EB
:1014E0006091590370915A0380915B0390915C0362
:1014F0000E94C6080F900F900F90DF91CF911F911F
:101500000F91FF90EF90DF90CF90BF90AF90089534
:10151000E9E5F3E09181282F438162818AE0890F18
:101520000C94E60981E00C94880AE9E5F3E09181E6
:10153000282F4381628186EF890F0C94E60981E0B0
:101540000C94950AE9E5F3E0628121E1620F08F469
:101550006FEF282F438181810C94E60981E00C9480
:10156000A20AE9E5F3E0628121E1621B08F460E090
:10157000282F438181810C94E60981E00C94B10A03
:10158000E9E5F3E0438121E1420F08F44FEF282F12
:10159000628181810C94E60981E00C94C00AE9E53E
:1015A000F3E0438121E1421B08F440E0282F6281EF
:1015B00081810C94E60981E00C94CF0A20E00C9420
:1015C000E609FF920F931F93CF93DF93EC01F12C69
:1015D0000FEF10E060911C01F616F0F480911A01F3
:1015E0002F2D30E0280F311DC901880F991F280FBA
:1015F000391F225A3C4F70E0C8010E942127962FC4
:101600008C8140915C0360915B03F99E800D1124F5
:101610000E94A308F394DECF0E9429099A818C814D
:1016200090FF02C08F5F01C081508C83DF91CF910A
:101630001F910F91FF9008958F929F92AF92BF924A
:10164000CF92DF92EF92FF920F931F93CF93DF938E
:10165000EC018A8180FF03C0BB24BA9402C0BB2482
:10166000B3948C8181110DC081E0B81206C08091C5
:101670001C0181508093830102C01092830181E09C
:101680008C83A12C46E3942E80911C01A81608F0AF
:1016900044C080911A01CA2CD12C8601080F111D5B
:1016A000C801880F991F080F191F025A1C4FF80113
:1016B00011821082128234E0E32EF12C812C809171
:1016C0008301880D87332CF0692D0E94FF26892F16
:1016D00005C087FF03C090911C01890F082E000CE4
:1016E000990BC816D90691F480915C038E9DA001D8
:1016F0008F9D500D11245595479555954795980107
:1017000060915B0380915A030E94A3088B0CF1E067
:10171000EF1AF108A1F6A394B7CF0E94290980918E
:10172000830191E0B9120EC0811107C080911C01A4
:101730008150809383011C820FC08150809383016C
:10174000BC820AC090E0019660911C0170E00E948A
:101750002127809383018C83DF91CF911F910F917B
:10176000FF90EF90DF90CF90BF90AF909F908F90C1
:1017700008951F93CF93DF93EC018C81811109C0F1
:1017800081E08C831092820192E090931701809304
:10179000160180911A0190911B01891770F4E82FAE
:1017A000F0E09F01220F331FE20FF31FE25AFC4FBC
:1017B0001182108212828F5FF0CF10E060911C01C5
:1017C0001617C0F5E12FF0E070E0CF010E9421274D
:1017D00020911A01820F20918201022E000C330BFE
:1017E00090E0E217F307CCF020911701022E000CD5
:1017F000330B2E173F078CF09C01220F331F820FF3
:10180000931F9C01225A3C4F40915C0360915B0303
:1018100080915A030E94A3080BC0FC01EE0FFF1F2A
:101820008E0F9F1FFC01E25AFC4F11821082128220
:101830001F5FC4CF0E942909809116012091820167
:10184000280F2093820190911701980F9093170110
:1018500019165CF4022E000C330B40911C0150E071
:10186000415051092417350734F0819580931601B2
:10187000813009F41C82DF91CF911F9108958F92DE
:101880009F92AF92BF92CF92DF92EF92FF920F930F
:101890001F93CF93DF938C01FC014481C42FD0E0D0
:1018A0009E01DE010E9465279B01AC010E947B27FF
:1018B0006B017C01E0E2F0E0EC1BFD0BA5E5B0E084
:1018C0009B01AC010E947B274B015C019F01DF0162
:1018D0000E945D279B01AC010E9486279B01AC0101
:1018E0002C0D3D1D4E1D5F1DC501B4010E94352705
:1018F000C22FD22F2A3228F4F3E02F9F9001112417
:101900000DC025E530E02C1B3109C901880F991F56
:10191000280F391F37FF02C02F5F3F4F359527959E
:10192000C22FC095F12C85E5E82EED1A80911C019F
:10193000F816C8F4F1FC02C08E2D01C08D2F9091D5
:101940001A012F2D30E0290F311DA901440F551F19
:10195000240F351F225A3C4F4C2F60915B030E948D
:10196000A308F394E3CF0E942909F801848181112F
:1019700002C091E003C0803219F49FEF90931501EB
:1019800090911501890FF8018483DF91CF911F9108
:101990000F91FF90EF90DF90CF90BF90AF909F900E
:1019A0008F9008950F931F93CF93DF93EC0100E086
:1019B00010E080911C01282F30E00217130724F556
:1019C00090911A019801290F311DA901440F551F4B
:1019D000240F351F225A3C4F869590E04C81081702
:1019E00019071CF4442331F002C0411103C0409197
:1019F0005C0301C040E060915B0380915A030E9448
:101A0000A3080F5F1F4FD5CF0E9429098C8190E05A
:101A10000196817099278C83DF91CF911F910F914F
:101A200008958F929F92AF92BF92CF92DF92EF92E2
:101A3000FF920F931F93CF93DF93FC01B2809480AA
:101A400081E0848300E015E05BE4A52E8824839484
:101A5000EE24EA94F12C7BE4C72ED12C80911C015A
:101A6000081708F08FC0C02FD0E01C9FF0011D9F09
:101A7000F00D1124E957FE4F911003C0138212821A
:101A800067C02381222389F12150238334813323AA
:101A900019F09A2D921B01C0922F80915C031C9F1C
:101AA000F0011D9FF00D1124E957FE4F899FC001E1
:101AB0001124B6010E940D276283211104C0332333
:101AC00011F01482A38222E02B1508F441C01C9F60
:101AD000F0011D9FF00D1124E957FE4F80915A032C
:101AE000808380915B03818333C00E94DA27823038
:101AF000914074F582E08B1530F40E94DA27B7012B
:101B00000E94212702C080915A031C9FF0011D9F53
:101B1000F00D1124E957FE4F808322E02B1558F475
:101B20000E94DA2720915B032695622F70E00E94C5
:101B30002127820F02C080915B031C9FF0011D9F33
:101B4000F00D1124E957FE4F81831282A382848213
:101B500080911A019E01280F311DC901880F991F1C
:101B6000280F391F225A3C4F1C9FF0011D9FF00D7A
:101B70001124E957FE4F4281618180810E94A308B0
:101B80000F5F6CCFDF91CF911F910F91FF90EF907E
:101B9000DF90CF90BF90AF909F908F900C942909C9
:101BA00080919E02089510929E02089525E0E9E535
:101BB000F3E0DC0101900D922A95E1F720919C025F
:101BC00030919D0240919E02FC012583368347831C
:101BD000089560915903669570E04BE050E08DE107
:101BE00091E00E94EA27892B19F481E080939D02FD
:101BF0000E943720909396028093950280919E02D6
:101C0000846080939E020895ECE9F2E01182828163
:101C10008460828308959091590390FF3AC0917037
:101C2000811102C0926006C08B3210F0946502C030
:101C3000880F982B9093590380919E028160809326
:101C40009E02662351F06091590370915A0380916E
:101C50005B0390915C030E94C608609159036695EE
:101C600070E04BE050E08DE191E00E94EA27892B83
:101C700019F00E94040E02C00E94E90D81E08093D9
:101C8000980240915C0360915B0380915A030C942D
:101C9000DE0A0895682F90915903969581E0890F87
:101CA0008B3208F081E00C940B0E81E00C944A0E0C
:101CB000682F9091590396958FEF890F09F48AE266
:101CC0000C940B0E81E00C94580E61E00C940B0EFA
:101CD000E9E5F3E080818160808386950C94650E50
:101CE00060E00C940B0EE9E5F3E080818E7F808349
:101CF00060817181828193810E94C6080E94040ED6
:101D0000ECE9F2E08281816082832FEF80E792E04C
:101D1000215080409040E1F700C000000C94290958
:101D20008091590380FD0C94730E0C94680EE9E5C4
:101D3000F3E080818E7F80830E94040EECE9F2E064
:101D40008281816082832FEF80E792E02150804082
:101D50009040E1F700C000000C9429091F93CF9335
:101D6000DF93EC01162F8F8180FF0FC0888180FFE9
:101D70000AC08091590381608093590388818695B8
:101D80000E940B0E02C00E94970E8F8181FF06C039
:101D9000212F4B816A8189810E94E6098F8182FF10
:101DA00008C08E81882319F00E94E90D02C00E94AC
:101DB000040E8F8183FF03C081E080939802DF913E
:101DC000CF911F91089580919B02811133C00E9491
:101DD000AE1E811104C00E945A1F0E94D8080E94A2
:101DE000C2086093590370935A0380935B039093E6
:101DF0005C0380919E02836080939E026E7F61F4FB
:101E00000E94D8080E94C2086093590370935A0335
:101E100080935B0390935C030E94A8080E94040EC9
:101E20008091590380FF03C086950E94700E81E067
:101E300080939B020895EF92FF920F931F93CF938D
:101E4000DF9380919D02882309F4C1C080919C0298
:101E5000E0915903E695E81BE0939702823049F43C
:101E6000F0E0E355FD4FE491CE2FD0E002E819E019
:101E700059C0863049F4F0E0E655FD4FE491CE2F8D
:101E8000D0E006E919E04EC0893051F4E695F0E063
:101E9000E955FD4FE491CE2FD0E001EE1AE042C0AB
:101EA0008F3051F4E695F0E0EC55FD4FE491CE2FE4
:101EB000D0E00CE11BE036C0853149F4F0E0EF558D
:101EC000FD4FE491CE2FD0E009EB1BE02BC0883111
:101ED000D9F0833239F4EFE9F2E0C591D49106EA02
:101EE00019E020C08432A9F08532C1F48E2F63E05E
:101EF0000E94F326E92FF0E0E456FD4FE491CE2F47
:101F0000D0E001E11DE00EC0C8E2D0E00FE31CE02C
:101F100009C0C4EFD1E002ED1CE004C0C0EDD7E081
:101F20000CE818E080919802882389F010929802BA
:101F30000E9437209E0120953095820F931F909329
:101F400096028093950210929A02109299028091C3
:101F50009502909196020E9443208C179D07B8F13C
:101F6000809186018823B1F01092860180918401CE
:101F7000909185010E9443208033954758F00E943C
:101F80003720909385018093840180919E02886020
:101F900080939E02E0909902F0909A02E09195025F
:101FA000F0919602CE0FDF1FD0939602C093950258
:101FB00085E992E0F80109958091990290919A0241
:101FC000892B29F4EF2819F081E080938601DF91B5
:101FD000CF911F910F91FF90EF900895882311F0FA
:101FE000FA0101C0FB010994CF93DF93C82FD62FCC
:101FF0000E94F0088C1740F00E94F0088D1720F422
:10200000DF91CF910C94550E8C2FDF91CF910C94D2
:10201000650E1F93CF93DF93FB011281111163C0F3
:10202000EC010E940A1E8272FE01E35CFC45E43171
:10203000F10508F057C0EA5AFF4F0C9457270E9449
:10204000900E51C042E65EE065E57EE004C045E5E5
:102050005EE062E67EE00E94EE0F45C04FE95AE086
:1020600062E97AE0F8CF42E95AE06FE97AE0F3CF2B
:102070004DEB5AE06EEA7AE0EECF4EEA5AE06DEBB5
:102080007AE0E9CF4BED5AE06CEC7AE0E4CF4CEC2F
:102090005AE06BED7AE0DFCF43E259E06CE079E0A3
:1020A000DACF4CE059E063E279E0D5CF81E017C0A8
:1020B00065E082E010C068E086E00DC06EE089E077
:1020C0000AC064E18FE007C067E185E104C088E1F0
:1020D00006C062E289E10E94F40F05C083E20E941B
:1020E000650E01C011E0812FDF91CF911F910895FE
:1020F000539A2BB1277F3BB138604FB7F894FC015E
:10210000CB01880F991F680F791F6E0F7F1FE6178D
:10211000F70789F0819198E03BB9000000C087FF84
:102120002BB9880F000000C000C000C02BB900C050
:102130009A9591F7ECCF4FBF8FE594E00197F1F7B7
:1021400000C000000895AF92BF92CF92DF92EF924D
:10215000FF920F931F93CF93DF937C015B01C42FFA
:10216000D22FFC0182818823F9F04093A1020E94C2
:1021700037209093A00280939F0280E28C0F8830DA
:1021800008F06EC0C77081E001C0880FCA95EAF7F9
:10219000DF91CF911F910F91FF90EF90DF90CF9043
:1021A000BF90AF900C945E168091A102481335C089
:1021B00080919F029091A0020E9443206C01B70180
:1021C000C5010E944F1BC816D90638F510E21D0F35
:1021D000CD17B9F080E28C0F883040F4C77081E0F1
:1021E00001C0880FCA95EAF70E946516183058F5A5
:1021F00081E09D2F977001C0880F9A95EAF70E94A1
:102200005E16802F0E944B16183050F5D77081E073
:1022100001C0880FDA95EAF70AC080E28C0F883097
:10222000F8F4C77081E001C0880FCA95EAF7DF9122
:10223000CF911F910F91FF90EF90DF90CF90BF90C3
:10224000AF900C946516802FDF91CF911F910F9165
:10225000FF90EF90DF90CF90BF90AF900C944B1613
:10226000DF91CF911F910F91FF90EF90DF90CF9072
:10227000BF90AF9008950F939C01CB01243F4CE594
:10228000340731F188F4293DFCE53F07D9F02A3DB8
:102290004CE5340779F1283D3C45A9F506E221EEED
:1022A00041EE68ED7CE52BC0263FFCE53F07E1F001
:1022B000A8F0273F3C4539F507E225EE46EE67EFEB
:1022C0007CE51DC007E225EE45EE69ED7CE517C013
:1022D00006E221EE40EE64EF7CE511C007E225EE58
:1022E00044EE65EF7CE50BC006E221EE42EE66EFC0
:1022F0007CE505C008E221E045EE6AED7CE50E9440
:10230000A31080E008C0FC018281882319F010929C
:10231000A10201C081E00F910895CF93DF93EC01FA
:10232000FB018281882309F41FC1C230FCE5DF076D
:1023300008F41BC1C6319CE5D90738F09E012B5F1C
:102340003C452930310508F010C10E94C61E90930B
:10235000050480930404C031ECE5DE0709F4C3C032
:1023600008F041C0C8308CE5D80709F49AC0F0F4F1
:10237000C430ECE5DE0709F487C068F4C2308CE5B0
:10238000D80709F477C0C330DC4509F0E3C0809179
:102390000404826076C0C630ECE5DE0709F46EC046
:1023A00008F07BC08091040488606BC0CC308CE561
:1023B000D80709F485C068F4CA30ECE5DE0709F4F3
:1023C00074C008F079C00E94B0188091040480683D
:1023D00058C0CE308CE5D80709F476C008F07FC02D
:1023E000809104048BC0CC3FECE5DE0709F44FC0BC
:1023F00018F5C3318CE5D80709F47DC078F4C131F4
:10240000ECE5DE0709F473C0C231DC4509F0A2C077
:102410000E94B018809104048F7733C0C5318CE5D9
:10242000D80709F472C008F486C0CB3FDC4509F038
:1024300091C0809105043EC0C115FDE5DF0709F498
:102440005FC058F4CE3F9CE5D90709F444C008F4B6
:102450003FC08091050482602DC0C230FDE5DF07DA
:1024600009F475C008F45DC0C330DD4509F072C0E1
:1024700080E06EC080910404816003C080910404F8
:1024800080618093040466C08091040411C080912F
:1024900005048260809305045DC08091040480621D
:1024A000F0CF809104048064ECCF809104048860B4
:1024B0008460E7CF8160EECF809104048E7FE1CF0E
:1024C000809104048D7FDDCF80910404877FD9CF74
:1024D0008091050418C0809105048D7FDBCF809129
:1024E00004048F7ECECF809104048F7DCACF80916B
:1024F00004048F7BC6CF80910404877F8B7FC1CF7C
:10250000809105048D7F8E7FC5CF8091040482FB6E
:10251000222720F991E0922790FB82F990FB83F922
:10252000B0CF80910504982F909591708E7F892B64
:1025300090FB81F9AFCF0E94B0188091040487FB13
:10254000222720F991E0922790FB87F99ACF81E02A
:102550000E945C1F80910404909105040E94D71E84
:102560000E94B01880E001C081E0DF91CF91089512
:10257000CF93DF9386319C4541F5EB010E940A1E03
:10258000982F8A812091280130912901882379F0A0
:102590009A7A81E009F480E08093A202911102C04E
:1025A00069E201C065E3C9010E94A31F0AC08091CE
:1025B000A202811102C069E201C065E3C9010E9463
:1025C000A51F0E944B1E80E001C081E0DF91CF91EA
:1025D00008958EE14A9B02C08150E1F74A9BFECFED
:1025E00008955A9880E28A95F1F75A9A0895FC0165
:1025F0002AE02A95F1F790E020E080E031E026170C
:1026000079F040E14A95F1F7880F4A9B02C081605A
:10261000932700C0000040E14A95F1F72F5FEFCF0C
:1026200020E12A95F1F729B100C0000030E13A9588
:10263000F1F722FB222720F992272081920F908325
:102640000895EF92FF920F931F93CF93DF931F9202
:10265000CDB7DEB719828C017C01E60EF11C0E1598
:102660001F0559F00E94E91268E0CE0101960E9410
:10267000F712F80181938F01F2CF81E099819111D6
:1026800080E00F90DF91CF911F910F91FF90EF901D
:1026900008959093A5028093A4026093A302529A96
:1026A0005A9A08959093A5028093A4026093A3027E
:1026B00052985A9AEA9AE9E6F0E080818F7C80830A
:1026C0000895615091E001C0990F6A95EAF720E002
:1026D00031E0992361F0492F482319F05A9A2327B2
:1026E00001C05A9840E24A95F1F79695F2CF22231D
:1026F00011F05A9A01C05A9880E28A95F1F75A98D7
:102700000895FF920F931F93CF93DF93EC018C01F9
:10271000060F111DC017D10741F0F9900E94F11268
:1027200068E08F2D0E946113F5CFDF91CF911F914B
:102730000F91FF9008951F920F920FB60F921124E0
:102740000F931F932F933F934F935F936F937F93B9
:102750008F939F93AF93BF93EF93FF93CF93DF93A9
:102760001F92CDB7DEB719820E94E91267E0CE0151
:1027700001960E94F712382F369536953695932F8D
:1027800096959570232F2570920F292F237096957B
:1027900096958770920F891348C08981811145C031
:1027A0008091A302831708F440C080E18A95F1F775
:1027B0005A9A529AA2E0AA95F1F700C00091A40299
:1027C0001091A502B8E03B9F000D111D11245A98ED
:1027D000F8016581662321F0868197810E9481132B
:1027E0000E94F112F0E1FA95F1F75A9852985A9A2C
:1027F00080E18A95F1F7D80112966C9112976623C1
:1028000069F013968D919C9114970E942113D80121
:10281000ED91FC91811105C082E004C0D801ED91D9
:10282000FC9188E080830E94E9120F90DF91CF91A4
:10283000FF91EF91BF91AF919F918F917F916F9198
:102840005F914F913F912F911F910F910F900FBE6C
:102850000F901F9018950F931F93CF93DF932091A4
:10286000A30230E0281739070CF471C09C0193E0F3
:10287000220F331F9A95E1F7C091A402D091A502CF
:10288000C20FD31FF894529A5A9845E04A95F1F72F
:102890000000982F969595708570890F982F9370EA
:1028A00086958695890F8901082B0E94F11284E094
:1028B0008A95F1F700C067E0802F0E94611340E124
:1028C0004A95F1F752985A9A4A9902C000C0FCCF33
:1028D00087E090E04A9B0EC0019751F4529A5A9AB1
:1028E000E881F98181E08083789481E090E031C0D3
:1028F00000C0F0CF6D81662381F08E819F810E94A0
:10290000211381110AC0529A5A9AE881F98182E012
:102910008083789482E090E01CC00E94E91280E2FB
:102920008A95F1F75A98529A40E14A95F1F76A81EF
:10293000662321F08B819C810E9481130E94F112F9
:10294000E881F9811082789480E090E002C084E010
:1029500090E0DF91CF911F910F9108959093AB027A
:102960008093AA020895E091AA02F091AB023097F9
:1029700021F00190F081E02D099480E00895E0912C
:10298000AA02F091AB02309721F00280F381E02D92
:10299000099408952091A8023091A90228173907B7
:1029A00071F09093A9028093A802E091AA02F0919D
:1029B000AB02309721F00680F781E02D099408954D
:1029C0002091A6023091A7022817390771F0909341
:1029D000A7028093A602E091AA02F091AB02309781
:1029E00021F00084F185E02D0994089585B7806871
:1029F00085BF85B7806885BF08950C9460070895EA
:102A00000C94FF140C94FF140C9402150C94FF14F6
:102A10000C9406150C94FF140E94F6140E940A15DB
:102A20000C9408150E942E200E9438060E948920CE
:102A30000E94E30E0C940415AF92BF92CF92DF92E6
:102A4000EF92FF920F931F93CF93DF93CDB7DEB733
:102A50002A970FB6F894DEBF0FBECDBF0E940015B7
:102A60000E94FF140E94A3060E94FD14811111C050
:102A70008FEF89838A831B820E9437208160782FA1
:102A80009D838C8349815A816B818D810E94B81509
:102A900040C08DEAA82E82E0B82E00E010E0C02EE3
:102AA000802F0E940E06E82EF501D1905F01D826F6
:102AB00031F40F5F1F4F0830110589F7D9CF80918E
:102AC000210381FD0E94140680E0FF24F3949D2DD4
:102AD0009F21D1F08E83CF82EF2081E009F480E046
:102AE00088870E9437208160782F9A8789874E8156
:102AF0005F8168858A850E94B815F801E355FD4F0E
:102B00008081F826F08205C08F5FFF0C8630F9F6D1
:102B1000D0CF0E941B0F0E94B3149091AC02891772
:102B2000B1F00E94B3148093AC022A960FB6F894C9
:102B3000DEBF0FBECDBFDF91CF911F910F91FF90F0
:102B4000EF90DF90CF90BF90AF900C943D042A9609
:102B50000FB6F894DEBF0FBECDBFDF91CF911F91AE
:102B60000F91FF90EF90DF90CF90BF90AF900895BE
:102B7000CF93DF93CDB7DEB72B970FB6F894DEBFB8
:102B80000FBECDBF4F83588769877A878B87DE0159
:102B9000119686E0FD0111928A95E9F785E0FE0124
:102BA000379601900D928A95E1F749815A816B81A0
:102BB0007C818D819E810E94521B2B960FB6F894CA
:102BC000DEBF0FBECDBFDF91CF910895FC018081A4
:102BD00091810E94CB1D0895CF93882371F1C82F56
:102BE0008CEF8C0F813AD0F46C2F8091280190915A
:102BF00029010E946D1F882349F06C2F80912801C4
:102C0000909129010E94A51F0E944B1E6C2F80915C
:102C10002801909129010E94A31F0CC080E28C0F13
:102C2000883058F4C77081E001C0880FCA95EAF770
:102C30000E940D1ECF910C944B1ECF9108958823B6
:102C400049F1682F8CEF860F813A38F48091280182
:102C5000909129010E94A51F0CC080E2860F883048
:102C600050F4677081E001C0880F6A95EAF70E940E
:102C7000131E0C944B1E8BE5860F833020F480E0EE
:102C800090E00C94CA14685A673120F480E090E018
:102C90000C94E0140895CF93C82F0E94EC15C9330B
:102CA00049F42FEF87EE93E0215080409040E1F708
:102CB00000C000008C2FCF910C941F16882321F0A8
:102CC0000E940D1E0C944B1E0895882321F00E9433
:102CD000131E0C944B1E0895CF92DF92EF92FF9239
:102CE0000F931F93CF93DF937C01D62FC72FFC0147
:102CF000158112951F70028101110E942A1E0E94E7
:102D0000031E882399F0002389F08C2F807F803464
:102D100021F080E28D0F883048F082E00E94951EFD
:102D20000E94031E91E0D82ED92601C0D12CCC2EB2
:102D3000C2948FE0C8228C2D90E08C30910508F071
:102D40008DC1FC01E659FF4F0C9457278C2F807FD3
:102D5000CF70882311F0C295C07F002399F0CC2357
:102D600009F468C180E28D0F883010F0D11104C0E1
:102D70008C2F0E940D1E03C08C2F0E941D1E0E94CE
:102D80004B1E58C18D2F0E941F16CC2309F466C11B
:102D900080E28D0F883010F0D11104C08C2F0E947A
:102DA000131E03C08C2F0E94231E0E944B1E56C16F
:102DB0008C2F807FCF70803211F0C295C07FDD23D1
:102DC00019F0D130C9F022C0002371F0112341F075
:102DD000113031F40E94301E8C2B0E94381E3EC1EF
:102DE0000E94301E8C2B1DC0112319F0113009F4E4
:102DF00035C10E94411E25C0002321F0163008F085
:102E00002DC10EC0153008F029C11BC0002361F090
:102E1000112331F0F701858180FF0CC18F7085830C
:102E20008C2F0E945E161AC1112359F0D93309F074
:102E300012C1FFEF07EE13E0F15000401040E1F740
:102E400008C18C2F0E94651609C18C2F837009F070
:102E500047C0011107C12D2F229526952770220FFB
:102E6000220F6D2F6F70862F90E0A0E0B0E0022E51
:102E700004C0880F991FAA1FBB1F0A94D2F7D4FF62
:102E800010C04FE050E060E070E004C0440F551FF8
:102E9000661F771F2A95D2F74095509560957095DB
:102EA00003C040E050E0BA01C695C695C3708A01E0
:102EB0009B01082B192B2A2B3B2BC901B801C230CF
:102EC00049F058F4C13019F00E94261CCBC00E9472
:102ED000141CC8C00E94381CC5C00E94121CC2C06D
:102EE000002319F08C2F817001C08695882309F486
:102EF000B9C02D2F229526952770220F220F6D2FF6
:102F00006F70862F90E0A0E0B0E0022E04C0880F22
:102F1000991FAA1FBB1F0A94D2F7D4FF10C04FE01D
:102F200050E060E070E004C0440F551F661F771F3B
:102F30002A95D2F7409550956095709503C040E072
:102F400050E0BA01C695C695C3708A019B01082B53
:102F5000192B2A2B3B2BC901B801C23049F058F478
:102F6000C13019F00E940B1D7DC00E94F91C7AC06F
:102F70000E941D1D77C00E944C1C74C0CF7000239E
:102F800039F08C2F0E94921C8D2F0E945E166AC011
:102F90008D2F0E9465168C2F0E94B31C63C0D23FF8
:102FA00001F128F4D03F41F0D13FA1F03FC0D33F21
:102FB000F9F0D43F39F13AC0002341F0153008F060
:102FC0004DC08C2F8F710E94D81C48C0163008F05D
:102FD00045C0F7CF002339F08C2F8F710E94921CCF
:102FE0003DC00023C9F38C2F8F710E94B31C36C0E3
:102FF000002329F08C2F8F710E947D1C2FC00E940E
:10300000581C2CC0002349F0CF718C2F0E94921CB9
:1030100063E08C2F0E94801E21C081E00E94951EDB
:103020001230E0F082E00E94951E18C0002331F0BB
:10303000112391F28D2F0E94EC1510C0112399F2EB
:10304000D93349F41FEF27EE33E0115020403040D0
:10305000E1F700C000008D2F0E941F1688EF8C0D35
:10306000843020F40E94B3140E943D04DD20C9F096
:103070000E94FF1D80FD15C0F70112820E94F91DFC
:103080000E94921CC7010E9472180E94F91DDF91D4
:10309000CF911F910F91FF90EF90DF90CF900C9404
:1030A000B31CDF91CF911F910F91FF90EF90DF90B4
:1030B000CF9008950F931F93CF93DF93EC01688116
:1030C00079818A810E94D61D8C010E942F1D0E9449
:1030D000001CB801CE010E946C16DF91CF911F91A8
:1030E0000F910895CF93DF93EC01988189812B8113
:1030F0003C81232B31F08F3F31F481E09F3F19F465
:1031000003C081E001C080E080FD19C0CE010E94B3
:10311000F30381110CC00E94031E882381F08A8171
:10312000882369F082E0DF91CF910C94951ECE0147
:103130000E945A18CE01DF91CF910C94BA03DF910F
:10314000CF9108950E942A1E0E942D1E0C944B1EA2
:1031500080912801909129010E94A71F0C94A21828
:103160000E941A1E0C94A818E92FE295EF704E2FBA
:1031700050E0FA013297EE30F105B0F4EA58FF4F13
:103180000C945727803F91F018F4883E68F40EC0E5
:10319000843F51F40BC0883E48F0813F29F406C0BB
:1031A00093FB882780F9089580E0089581E00895D1
:1031B0000E94CB1D0E94B4180895CF93DF9300D0D6
:1031C00000D01F92CDB7DEB70F900F900F900F90E9
:1031D0000F90DF91CF910895CF93DF9300D000D06F
:1031E00000D0CDB7DEB726960FB6F894DEBF0FBE7F
:1031F000CDBFDF91CF9108951F93CF93DF93C091FF
:10320000B60216E08091B702C81799F0D0E01C9F73
:10321000F0011D9FF00D1124E854FD4F40815181B4
:1032200062817381848195810E94EC182196C77018
:10323000E9CFDF91CF911F9108954091E80250911D
:10324000E9026091EA027091EB028091EC029091A8
:10325000ED020C94EC180F931F93CF93DF938091A2
:10326000ED0282958F7009F05DC08091EA0288239B
:1032700009F458C08091B6021091B7026091E8023B
:103280007091E902C091EB02D091EC0291E06F3FA6
:1032900009F090E0292F06E0811709F443C0209738
:1032A00021F07F3F21F030E003C031E001C0322F38
:1032B00090E030FD34C0089FF001099FF00D11240B
:1032C000DF01A854BD4F11963C911197371327C0C9
:1032D0003C91361324C012963C91129731111FC0B5
:1032E00013964D915C9114974C1B5D0B483C510516
:1032F000B0F48091ED028F7080618093ED02E35411
:10330000FD4F80818F708061808388EE92E00E9403
:103310007218DF91CF911F910F910C94FC180196B8
:103320008770BACFDF91CF911F910F9108959F922F
:10333000AF92BF92CF92DF92EF92FF920F931F93C3
:10334000CF93DF93CDB7DEB761970FB6F894DEBFAA
:103350000FBECDBF8C0185E0F801DE011D96019006
:103360000D928A95E1F7F80140815181E2809091B8
:10337000E8026091E9022091EB023091EC02211504
:10338000310531F06F3F31F481E09F3F19F403C004
:1033900081E001C080E0F82FF1709F2E80FD2CC1EC
:1033A000F801A380B48088EEC82E82E0D82EF09079
:1033B000EA02F501E21BF30BFF2009F4EBC0809158
:1033C000ED02E83CF10508F0A7C0282F207F09F0A6
:1033D00052C0561313C0491311C0FE2CE1100EC089
:1033E0008F7080618093ED020E941D19C6010E94BA
:1033F00072188091ED02F80185833EC1AB2831F04F
:103400005F3F31F481E04F3F19F403C081E001C018
:1034100080E080FD03C081E08E2502C080E090E066
:10342000F82FF170FF2E80FF1CC08091B602209112
:10343000B70236E0821709F4FDC090E0389FF00132
:10344000399FF00D1124E854FD4F6181561306C0D9
:103450006081461303C06281E61203C00196877043
:10346000E9CFFE2CEE2009F407C18091ED028160C6
:103470008093ED0266C0561312C0491310C0E110CC
:103480000EC0F8018583C8010E94721886E0F80119
:10349000A8EEB2E001900D928A95E1F7C8C04D8781
:1034A0005E878D859E850E94D818882379F1EE204D
:1034B00069F12091ED02822F82958F7090E0029742
:1034C00074F08091E8029091E90298878F831986C1
:1034D000BB86AA862C87CE0107960E94721886E0CA
:1034E000F801A8EEB2E001900D928A95E1F70E94F2
:1034F0002B190E941D190DC0561729F14D875E87A3
:103500008D859E850E94D81881112CC0C8010E940B
:103510007218FF24F394B0C0282F207F69F77A2D0A
:10352000B98AA88A6E2D89890E94DD1888EE92E0FA
:103530000E94721886E0F60111928A95E9F70E94BE
:103540001D19F12C99C04913D9CFE110D7CFF8013B
:103550008583C8010E94721886E0F60111928A954F
:10356000E9F78AC0EE2091F22091ED02822F829538
:103570008F7090E002970CF4B2CF8091E8029091A6
:10358000E9029A8389831B82BD82AC822E83CE019D
:103590000196A3CFE83CF10510F5FE2CEE2009F4CE
:1035A000B5CF56130BC0491309C086E0F801A8EE49
:1035B000B2E001900D928A95E1F75EC04D875E877B
:1035C0008D859E850E94D818811189CF8091ED024A
:1035D00081608093ED02C8010E9472184DC07A2D5F
:1035E000B98AA88A6E2D89890E94DD1886E0F601C5
:1035F00011928A95E9F71BC0EE2009F487CF4D8719
:103600005E878D859E850E94D818F82E882309F440
:103610007DCF86E0F801A8EEB2E001900D928A9588
:10362000E1F788EE92E00E94E6150E942B190E94B5
:103630001D1922C04D875E878D859E850E94CB1DFA
:10364000292F22952F70223028F49F7039F0811194
:1036500005C00BC0243028F49F7049F4805E883088
:1036600020F0C8010E9472189F2CF92C05C0F801A7
:103670009581907F99F7F9CF8F2D61960FB6F894C9
:10368000DEBF0FBECDBFDF91CF911F910F91FF9095
:10369000EF90DF90CF90BF90AF909F90089588EC0F
:1036A00090E008951F93CF93DF93CDB7DEB72C97AB
:1036B0000FB6F894DEBF0FBECDBF4F835887698722
:1036C0007A878B879C87CE0107960E94971988235B
:1036D000D1F09F8188852A853B85232B31F08F3F50
:1036E00031F481E09F3F19F403C081E001C080E024
:1036F00080FD47C04F81588569857A858B859C857B
:103700000E94EC183EC086E0FE013796DE0111965D
:1037100001900D928A95E1F7FF81E8856A857B85A6
:103720006115710531F0EF3F31F481E0FF3F19F48D
:1037300003C081E001C080E080FD23C02091B7027A
:1037400030E0C9010196877099274091B60250E098
:1037500084179507F1F1F983EA837D836C8396E002
:10376000929FD001939FB00D1124A854BD4FFE012C
:10377000319601900D929A95E1F78093B7020E94DD
:10378000FC1816E08091B6029091B702891771F18A
:10379000189FC001112488549D4F0E9497198823B7
:1037A00029F1E091B6021E9FF0011124E854FD4F6B
:1037B0004081518162817381848195810E94EC18DE
:1037C0008091B60290E00196877099278093B602A7
:1037D000D9CF0E94B0181092B7021092B602E8EE4C
:1037E000F2E086E0DF011D928A95E9F72C960FB68C
:1037F000F894DEBF0FBECDBFDF91CF911F9108952A
:10380000089508950C94011C0C94021C0E94041C41
:10381000609310037093110380931203909313032A
:103820000C94A2180C94061C0F931F930091100384
:10383000109111032091120330911303602B712B0F
:10384000822B932B1F910F910C94061C0F931F93A7
:103850000091100310911103209112033091130372
:1038600060237123822393231F910F910C94061CD4
:103870000F931F93009110031091110320911203D5
:103880003091130360277127822793271F910F918F
:103890000C94061C0C94011C0E944A1C60930C039F
:1038A00070930D0380930E0390930F030C94A21852
:1038B00060E070E0CB010C944C1C61157105810532
:1038C000910529F481E0442361F080E00895DC0152
:1038D000CB0104C0B695A795979587954A95D2F7E1
:1038E00081700895482F60910C0370910D038091B1
:1038F0000E0390910F030C945D1C0F931F9341E0F6
:1039000050E060E070E08A019B0104C0000F111FCD
:10391000221F331F8A95D2F7C901B8011F910F9159
:103920000C944C1C0F931F9341E050E060E070E05A
:1039300004C0440F551F661F771F8A95D2F78091E8
:103940000C0390910D03A0910E03B0910F038A0117
:103950009B01082B192B2A2B3B2BC901B8011F9166
:103960000F910C944C1C0F931F9341E050E060E0CA
:1039700070E004C0440F551F661F771F8A95D2F769
:10398000409550956095709580910C0390910D0332
:10399000A0910E03B0910F038A019B010823192304
:1039A0002A233B23C901B8011F910F910C944C1C91
:1039B0000F931F9341E050E060E070E004C0440FBB
:1039C000551F661F771F8A95D2F780910C0390913F
:1039D0000D03A0910E03B0910F038A019B010827EC
:1039E00019272A273B27C901B8011F910F910C9471
:1039F0004C1C0F931F9300910C0310910D03209109
:103A00000E0330910F03602B712B822B932B1F9190
:103A10000F910C944C1C0F931F9300910C03109169
:103A20000D0320910E0330910F0360237123822335
:103A300093231F910F910C944C1C0F931F93009193
:103A40000C0310910D0320910E0330910F0360279A
:103A50007127822793271F910F910C944C1C089576
:103A6000292F220F920F990F890FE82FE695E695DF
:103A7000E695877051E001C0550F8A95EAF785E019
:103A8000E89FF0011124E251FD4F20E030E070E0AA
:103A90004081CB01022E02C0969587950A94E2F7E9
:103AA0008170819584278523842781932F5F3F4FE1
:103AB0002530310569F70895292F220F920F990FAC
:103AC000890F682F669566956695982F977085E0A3
:103AD000689FB001112440E050E080E0FB01E40F5A
:103AE000F51FE251FD4F208130E0092E02C03695CE
:103AF00027950A94E2F721703327042E01C0220F84
:103B00000A94EAF7822B4F5F5F4F4530510531F73A
:103B10000895BF92CF92DF92EF92FF920F931F937F
:103B2000CF93DF938C01C0900C03D0900D03E090F5
:103B30000E03F0900F038091100390911103A09158
:103B40001203B0911303C82AD92AEA2AFB2ACFE12B
:103B5000D0E0D701C6010C2E04C0B695A795979565
:103B600087950A94D2F780FD04C0219790F7B12C75
:103B700007C0BC2EB8018C2F0E9459040197A9F3ED
:103B80008B2DDF91CF911F910F91FF90EF90DF90E0
:103B9000CF90BF900895CF93DF93EC010E94891DD1
:103BA000BE010E945904DF91CF9108951F93CF93D6
:103BB000DF93EB019091B502992321F0CB010E9494
:103BC000CB1D13C0882349F0CB010E94891D182FFB
:103BD000682FCE010E94301D04C0CB010E945C1DE5
:103BE000182FBE01812F0E945904DF91CF911F91A0
:103BF0000895809114038595859585950895809104
:103C000014038770089590911403977081E009F46C
:103C100080E0089580912003089590912003892BDE
:103C200080932003089580959091200389238093A9
:103C30002003089510922003089590911F03892B6B
:103C400080931F030895809590911F03892380938B
:103C50001F03089510921F03089510921E030895E4
:103C600080911503089508950C94331E0C94341E0E
:103C700090911503981721F0809315030C94361E2C
:103C8000089580911503882329F01092150380E090
:103C90000C94361E0895E0912801F091290180913D
:103CA00020038083E0912801F09129019081809187
:103CB0001F03892B8083E0912801F09129019081D5
:103CC00080911E03892B808380911503882381F0C6
:103CD000E0912801F09129019081892B80838091C6
:103CE0002801909129010E94611F81110E94411EAB
:103CF00080912801909129010C94BF140C94331EDB
:103D000098E0899F90011124262B209314030E9490
:103D1000921C809114038595859585950C947E1E43
:103D20001092140380E00C947E1E20911403809561
:103D3000822380931403982F977079F430E0482FF2
:103D4000082E000C550B2417350739F085958595FD
:103D500085950E94B31C0C94901E089580E090E01D
:103D60000E94052821E08C3E9E4F09F020E0822F22
:103D7000089582E090E00C94F72783E090E00C94A3
:103D8000F727682F83E090E00C940B28CF9384E012
:103D900090E00E94F727C82F81E290E00E94F72769
:103DA0002C2F30E0A901582BCA01CF910895CF9351
:103DB000C92F682F84E090E00E940B286C2F81E2CD
:103DC00090E0CF910C940B28AB01BC018FE090E008
:103DD0000C941D28AB01BC0183E190E00C941D28DC
:103DE00060E070E0CB010C94EA1E60E070E0CB0173
:103DF0000E94E41E0C94F01E6CEE7EEF80E090E0DA
:103E00000E94292860E082E090E00E940B2860E098
:103E100083E090E00E940B2810921003109211038F
:103E2000109212031092130360E084E090E00E946D
:103E30000B2860E081E290E00E940B2860E085E0C2
:103E400090E00E940B2860E086E090E00E940B2842
:103E50006FEF87E090E00E940B2840E050E0BA014D
:103E600088E090E00E941D2860E08DE090E00E94D4
:103E70000B2840E050E0BA0188E190E00E941D2844
:103E800060E087E190E00E940B2840E050E0BA013A
:103E90008CE190E00E941D2860E080E290E00E94AA
:103EA0000B2840E050E0BA0188E190E00E941D2814
:103EB0000C94F51E0C94FC1E682F8EE090E00C9480
:103EC0000B28FC01329697E080E0915029F0219177
:103ED0002223D9F38F5FF9CF0895662349F0FC01BF
:103EE000329608962191621729F0E817F907D1F761
:103EF00080E0089581E008959C01FC0132969FEFD7
:103F000080E04191461789F09F3F19F4411101C0AB
:103F1000982F8F5F8630A9F79F3F39F0F901E90F9D
:103F2000F11D97FDFA956283089508959C012A5F1B
:103F30003F4FFC014281461301C012820196821755
:103F40009307B9F708950C947C1F0C94961F029662
:103F500026E0FC0111922A95E9F7089508950C9442
:103F6000AE1F0C94AE1FCF930E94B11F0E94A306F8
:103F70000E94AF1FC0E08C2F0E940E06811104C06A
:103F8000CF5FC830C1F701C081E0CF9108950C9494
:103F9000AE1F0C94C71F0E94C91F80910A04843071
:103FA00049F11092220320E488E190E00FB6F894E2
:103FB000A895809360000FBE2093600080E00E946F
:103FC0003D040E94C91F83B7817F846083BF83B78C
:103FD000816083BF7894889583B78E7F83BF0FB647
:103FE000F894A89580916000886180936000109299
:103FF00060000FBE08950C94AE1F0E94B0180E947E
:10400000B3140E943D040C94FB1F1F920F920FB635
:104010000F9211248F939F93AF93BF9380912203AC
:10402000811113C08091000490910104A0910204B9
:10403000B09103044196A11DB11D8093000490939B
:104040000104A0930204B0930304BF91AF919F9128
:104050008F910F900FBE0F901F90189582E084BD36
:1040600093E095BD9AEF97BD80936E0008952FB7AA
:10407000F8948091000490910104A0910204B09101
:1040800003042FBF08959C014FB7F894809100045A
:1040900090910104A0910204B09103044FBF821BD0
:1040A000930B089578941F920F920FB60F921124DC
:1040B0008F939F93AF93BF938091000490910104DD
:1040C000A0910204B09103040196A11DB11D80933B
:1040D000000490930104A0930204B0930304BF91E1
:1040E000AF919F918F910F900FBE0F901F901895D9
:1040F00087E797E790930108809300089AE088E1AA
:104100000FB6F894A895809360000FBE909360005E
:10411000FFCF0E94AE1E811102C00E945A1F0E9452
:10412000B91E809321030E94C61E909305048093BC
:1041300004040E94BD1E682F70E080E090E00E94A1
:10414000121C60910C0370910D0380910E039091ED
:104150000F030C944A1C80912B0308950895089531
:10416000CF93DF9321E02093E9002FEF3091E80017
:10417000215035FD06C035ED3A95F1F700002111CB
:10418000F5CF2091E80025FF14C0EC0140E050E09D
:1041900068E070E00E9455228091E8008E7780935D
:1041A000E80088E0FE01A3E2B3E001900D928A9559
:1041B000E1F7DF91CF91089508958091090481116D
:1041C00009C00E94E6230E9443248091E20084609B
:1041D0008093E200089510920904089508950895C7
:1041E0000C94FD1F42E061EC81E00C945F23809110
:1041F0000C04833009F460C030F4813071F08230F7
:1042000009F499C008958A3009F485C08B3009F407
:104210006BC0893009F0A7C020C080910B04813A9F
:1042200009F0A1C08091E800877F8093E800809129
:104230000F0490911004892B21F468E083E293E04D
:1042400003C060E080E090E070E00E94A0228091D6
:10425000E8008B778093E800089580910B04813209
:1042600009F081C080910F0490911004892B09F00E
:104270007AC08091E800877F8093E8008091E80011
:1042800082FD05C080910A048111F8CF6CC0209195
:10429000F3008091F20090E0922B029729F4809134
:1042A000F1008B7F813021F48091F10080932B030A
:1042B0008091E8008B7753C080910B04813A09F01C
:1042C00052C080910F0490911004892B09F04BC0CB
:1042D0008091E800877F8093E8008091E80080FF6C
:1042E000FCCF8091340136C080910B048132D9F526
:1042F00080910F0490911004892BA9F58091E8001A
:10430000877F8093E8000E94942380910D0480931E
:1043100034010C94B01880910B04813221F5809106
:10432000E800877F8093E8000E94942380910E0428
:1043300080932C03089580910B04813AA1F480911D
:10434000E800877F8093E8008091E80080FFFCCF41
:1043500080912C038093F1008091E8008E77809308
:10436000E8000C949423089584B7877F84BF0FB628
:10437000F894A89580916000886180936000109205
:1043800060000FBE90E080E80FB6F8948093610063
:10439000909361000FBE0E940C150E94E6230E94BC
:1043A00043248091E20084608093E20078940E942C
:1043B000D8260E9412158AE291E00E94AE148091E4
:1043C0000A04853069F40E94CB1F80910804882379
:1043D000B1F30E94B31F882391F30E943F22EFCFD5
:1043E0000E941C150E9400150E94FF14E8CF0C9437
:1043F000F921292F332723303105C1F058F421301A
:10440000310579F02230310591F582E290E028ED16
:1044100034E031C021323105E1F02232310501F1C1
:1044200026C082E190E02AEF34E025C09927813050
:10443000910549F028F00297D1F4E6EBF4E005C0CD
:10444000E4EDF4E002C0E4ECF4E0849190E09F013C
:1044500012C0672B61F489E090E02AEE34E00BC0D3
:10446000672B29F480E490E02CE035E004C080E084
:1044700090E020E030E0FA0131832083089580E16C
:1044800089BD82E189BD09B400FEFDCF8091D800CD
:104490008F7D8093D8008091E00082608093E0005F
:1044A0008091E00081FDFCCF0895CF92DF92EF92E2
:1044B000FF920F931F93CF93DF93EC018B017A014F
:1044C0000E94B323811133C0E114F10439F0F701E4
:1044D00080819181081B190BC80FD91FC12CD12CC9
:1044E0000115110519F18091E80085FD16C0809134
:1044F000E8008E778093E800E114F10449F0F701B9
:1045000080819181C80ED91ED182C08285E00FC002
:104510000E94B323882321F30AC089918093F1007C
:1045200001501109FFEFCF1ADF0ADACF80E0DF91E7
:10453000CF911F910F91FF90EF90DF90CF90089552
:1045400020911104309112042617370748F06115A5
:10455000710539F42091E8002E772093E80001C01E
:10456000B901FC0120E06115710579F180910A041F
:104570008823F1F18530F1F18091E80083FD3CC0A2
:104580008091E80082FD2EC08091E80080FFEBCF93
:104590002091F3008091F20090E0922B611571055B
:1045A00051F08830910538F421912093F100615049
:1045B00071090196F3CF21E0089709F020E080917E
:1045C000E8008E778093E800CECF2111CFCF0AC0CC
:1045D00080910A04882361F0853061F08091E800C1
:1045E00083FD0AC08091E80082FFF2CF80E0089549
:1045F00082E0089583E0089581E0089520911104F8
:10460000309112042617370748F06115710539F407
:104610002091E8002E772093E80001C0B901FC0149
:1046200020E06115710591F180910A04882309F455
:1046300040C0853009F43FC08091E80083FD3DC053
:104640008091E80082FD2FC08091E80080FFE9CFD3
:104650002091F3008091F20090E0922B611571059A
:1046600059F08830910540F424912093F10031965F
:10467000615071090196F2CF21E0089709F020E01E
:104680008091E8008E778093E800CBCF2111CCCFCA
:104690000AC080910A04882361F0853061F080911E
:1046A000E80083FD0AC08091E80082FFF2CF80E03D
:1046B000089582E0089583E0089581E00895982F99
:1046C000973068F59093E900981739F07091EC00F5
:1046D0002091ED005091F00003C0242F762F50E080
:1046E00021FD02C09F5FECCF3091EB003E7F309305
:1046F000EB003091ED003D7F3093ED003091EB0009
:1047000031603093EB007093EC002093ED005093F8
:10471000F0002091EE0027FDE5CF80E008958F7036
:104720008093E90081E0089580910B0487FF11C018
:104730008091E80082FD05C080910A048111F8CFC4
:1047400011C08091E8008B770BC080910A04882308
:1047500049F08091E80080FFF8CF8091E8008E77E3
:104760008093E80008952091E4003091E50095E6FB
:104770004091EC00842F817040FF23C08091E800BD
:1047800080FD1DC080910A04882399F0853099F03E
:104790008091EB0085FD11C04091E4005091E5004F
:1047A0002417350729F3915011F09A01E1CF84E0E5
:1047B000089582E0089583E0089581E0089580E0FF
:1047C00008954091E80042FFDDCF08950E945424EF
:1047D0000E945C24E0EEF0E0808181608083E8ED5F
:1047E000F0E080818F77808319BCA7EDB0E08C91D9
:1047F0008E7F8C9380818F7E808310920904089530
:104800000F931F93CF93DF930E9454240E945C2444
:10481000C8EDD0E088818F7788838881806888831D
:1048200088818F7D888319BC10920A041092060437
:10483000109208041092070400EE10E0F801808145
:104840008B7F808388818160888342E060E080E0A4
:104850000E945F23E1EEF0E080818E7F8083E2EEB4
:10486000F0E0808181608083808188608083F801AE
:1048700080818E7F8083888180618883DF91CF9162
:104880001F910F910895E8EDF0E080818F7E808385
:10489000E7EDF0E080818160808384E082BF81E089
:1048A000809309040C940024E8EDF0E080818E7F71
:1048B00080831092E20008951092DA001092E100D5
:1048C00008951F920F920FB60F9211242F933F93CA
:1048D0004F935F936F937F938F939F93AF93BF9308
:1048E000EF93FF938091E10082FF0BC08091E20083
:1048F00082FF07C08091E1008B7F8093E1000E94DE
:10490000D7268091DA0080FF1FC08091D80080FFF9
:104910001BC08091DA008E7F8093DA008091D900ED
:1049200080FF0DC080E189BD82E189BD09B400FE30
:10493000FDCF81E080930A040E94DD2005C019BCF0
:1049400010920A040E94EB208091E10080FF19C0C0
:104950008091E20080FF15C08091E2008E7F8093FD
:10496000E2008091E20080618093E2008091D800B3
:1049700080628093D80019BC85E080930A040E946D
:10498000EF208091E10084FF30C08091E20084FF3D
:104990002CC080E189BD82E189BD09B400FEFDCF54
:1049A0008091D8008F7D8093D8008091E1008F7E28
:1049B0008093E1008091E2008F7E8093E2008091FD
:1049C000E20081608093E20080910604882311F068
:1049D00084E007C08091E30087FD02C081E001C050
:1049E00083E080930A040E94F0208091E10083FF1D
:1049F00029C08091E20083FF25C08091E100877F7C
:104A00008093E10082E080930A0410920604809172
:104A1000E1008E7F8093E1008091E2008E7F8093A1
:104A2000E2008091E20080618093E20042E060E079
:104A300080E00E945F238091F00088608093F00006
:104A40000E94EE20FF91EF91BF91AF919F918F91C6
:104A50007F916F915F914F913F912F910F900FBE7A
:104A60000F901F9018951F920F920FB60F9211245E
:104A70002F933F934F935F936F937F938F939F9366
:104A8000AF93BF93CF93DF93EF93FF93C091E90070
:104A9000CF708091EC00D82FD17080FDD0E81092BB
:104AA000E9008091F000877F8093F00078940E9465
:104AB00077251092E9008091F00088608093F000E3
:104AC000CD2BCF70C093E900FF91EF91DF91CF9193
:104AD000BF91AF919F918F917F916F915F914F9116
:104AE0003F912F910F900FBE0F901F9018951F931D
:104AF000CF93DF93CDB7DEB7AA970FB6F894DEBF9A
:104B00000FBECDBFEBE0F4E08091F100819324E093
:104B1000E331F207C9F70E94F7208091E80083FF94
:104B20002EC180910B0490910C04492F50E04A3023
:104B3000510508F024C1FA01EC57FF4F0C94572798
:104B4000803821F0823809F01AC108C0809107042A
:104B500090910804992389F082600FC080910F041E
:104B60008F70873008F00BC18093E9008091EB00D3
:104B700085FB882780F91092E9009091E800977FE3
:104B80009093E8008093F1001092F100D1C0282F9B
:104B90002D7F09F0F4C0882319F0823061F0EFC056
:104BA00080910D04813009F0EAC0933009F080E073
:104BB000809308042EC080910D0481112AC0809139
:104BC0000F048F702FEF280F263008F0D8C0809385
:104BD000E9002091EB0020FF1CC0933021F480916C
:104BE000EB00806214C09091EB0090619093EB0019
:104BF00021E030E0A90102C0440F551F8A95E2F779
:104C00004093EA001092EA008091EB008860809364
:104C1000EB001092E9008091E800877F8093E80024
:104C20000E949423ACC08111AAC010910D041F777B
:104C30008091E3008078812B8093E3008091E800ED
:104C4000877F8093E8000E9494238091E80080FF92
:104C5000FCCF8091E30080688093E300111102C0D3
:104C600082E001C083E080930A0489C080588230CA
:104C700008F085C080910D0490910E048C3D53E0A6
:104C8000950779F583E08A838AE289834FB7F894A0
:104C9000DE01139620E03EE051E2E32FF0E0509376
:104CA0005700E49120FF03C0E295EF703F5FEF7083
:104CB0008E2F90E0EA3010F0C79601C0C0968D9319
:104CC0009D932F5F243149F74FBF8091E800877F84
:104CD0008093E8006AE270E0CE0101960E94A02273
:104CE00016C060910F0470911004AE014F5F5F4FCA
:104CF0000E94F721BC01892B09F441C09091E80082
:104D0000977F9093E80089819A810E94FE2280918A
:104D1000E8008B778093E80032C0803881F580917D
:104D2000E800877F8093E800809106048093F1007B
:104D30008091E8008E7772CF811121C080910D049F
:104D400090910E0499270297D4F48091E800877F10
:104D50008093E80080910D04809306040E949423C0
:104D600080910604811106C08091E30087FD02C096
:104D700081E001C084E080930A040E94F2208091C7
:104D8000E80083FF0AC08091E800877F8093E800F5
:104D90008091EB0080628093EB00AA960FB6F894A6
:104DA000DEBF0FBECDBFDF91CF911F910895089553
:104DB000CF9380910A048823A1F0C091E900CF70BD
:104DC0009091EC00892F817090FD80E8C82B1092A3
:104DD000E9008091E80083FD0E947725CF70C093A1
:104DE000E900CF910895991B79E004C0991F9617A7
:104DF00008F0961B881F7A95C9F78095089587FB60
:104E0000082E062687FD819567FD61950E94F32691
:104E10000EF4919507FC81950895AA1BBB1B51E1E7
:104E200007C0AA1FBB1FA617B70710F0A61BB70B1A
:104E3000881F991F5A95A9F780959095BC01CD01BF
:104E4000089597FB072E16F4009407D077FD09D03C
:104E50000E940D2707FC05D03EF4909581959F4F49
:104E60000895709561957F4F0895A1E21A2EAA1BAF
:104E7000BB1BFD010DC0AA1FBB1FEE1FFF1FA2170A
:104E8000B307E407F50720F0A21BB30BE40BF50B07
:104E9000661F771F881F991F1A9469F76095709590
:104EA000809590959B01AC01BD01CF010895EE0F57
:104EB000FF1F0590F491E02D09940E94652733238C
:104EC00012F48A1B9B0B0C947627A29FB001B39F10
:104ED000C001A39F700D811D1124911DB29F700D03
:104EE000811D1124911D08950E946527B7FF089523
:104EF000821B930B08950E946527A59F900DB49F78
:104F0000900DA49F800D911D11240895B7FF0C945E
:104F10007B270E947B27821B930B08958F929F9281
:104F2000AF92BF92CF92DF92EF92FF92CF93DF9337
:104F3000EC01688179818A819B8161157105810508
:104F4000910521F464E279ED8BE597E02DE133EFF3
:104F500041E050E00E943F2849015A019B01AC0109
:104F6000A7EAB1E40E947B276B017C01ACEEB4EFB1
:104F7000A50194010E948927DC01CB018C0D9D1DA8
:104F8000AE1DBF1DB7FF03C00197A109B0488883BC
:104F90009983AA83BB839F77DF91CF91FF90EF9096
:104FA000DF90CF90BF90AF909F908F9008950E9418
:104FB0008E27089580E091E00E948E270895A0E05A
:104FC000B0E08093000190930101A0930201B0939F
:104FD00003010895FC014150504030F00190061645
:104FE000D1F73197CF010895882799270895F99926
:104FF000FECF92BD81BDF89A992780B50895A6E1AC
:10500000B0E044E050E00C943128A8E1B0E042E088
:1050100050E00C943128262FF999FECF92BD81BD26
:10502000F89A019700B4021639F01FBA20BD0FB6E6
:10503000F894FA9AF99A0FBE08950396272F0E94C2
:105040000C280E940B28252F0E940C28242F0C943A
:105050000C280196272F0E940C280C940B28DC01A9
:10506000CB01FC01F999FECF06C0F2BDE1BDF89A73
:10507000319600B40D9241505040B8F70895052E76
:1050800097FB1EF400940E94562857FD07D00E94FB
:10509000352707FC03D04EF40C94562850954095C4
:1050A000309521953F4F4F4F5F4F089590958095D4
:1050B000709561957F4F8F4F9F4F0895F894FFCF64
:1050C00001000000017301007401047401780108FB
:1050D0007901000000010102003600363601191A7C
:1050E0001B1C1D1E1F2021221603AB20B020AE204A
:1050F000DC20AF2001F4F5F6F73133946697C60053
:105100000000000001020202020606060909090960
:1051100009090F0F0F0F0F0F151515181919191968
:0E5120001919191919192324252525252525C6
:00000001FF
