:100000000C9453050C949A050C949A050C949A053B
:100010000C949A050C949A050C949A050C949A05E4
:100020000C949A050C949A050C9413280C94E528CA
:100030000C94CB1D0C949A050C949A050C949A057B
:100040000C949A050C94300D0C949A050C949A0516
:100050000C94540D0C94241E0C949A050C949A053F
:100060000C949A050C949A050C949A050C949A0594
:100070000C949A050C949A050C949A050C949A0584
:100080000C949A050C949A050C949A050C949A0574
:100090000C949A050C949A050C949A050C949A0564
:1000A0000C949A050C949A050C949A0556135613C1
:1000B00088138813D513091509150915F313881426
:1000C00099149914F914091509150215A515A51502
:1000D000B715B715AE15B715B715B715A515A515ED
:1000E000B315B715B715B31552297929712A79298E
:1000F000712AC529E829712A3F2A4E2A687474702A
:10010000733A2F2F716D6B2E666D2F0101280051F0
:100110004D4B206973207468652062657374207488
:1001200068696E6720657665722100290000003AD3
:10013000003B003C003D003E003F004000410042CB
:100140000043004400450046004700480035001EBB
:10015000001F00200021002200230024002500268B
:100160000027002D002E002A0049004A004B002BDA
:100170000014001A000800150017001C0018000CDD
:1001800000120013002F00300000004C004D004E04
:1001900000390004001600070009000A000B000DDA
:1001A000000E000F00330034003200280000000071
:1001B000000000E10064001D001B0006001900059E
:1001C0000011001000360037003800E50000000084
:1001D0000052000000E000E300E200000000000028
:1001E00000000000002C000000E600E7006500E4CD
:1001F00000500051004F0044454255473A20646981
:100200007361626C65642E0A0044454255473A208A
:10021000656E61626C65642E0A00000000000000DB
:1002200000002A2B28000000000000000000000051
:10023000000000000029000000002C1E34202122B4
:1002400024342627252E362D3738271E1F2021221D
:10025000232425263333362E37381F040506070896
:10026000090A0B0C0D0E0F10111213141516171886
:10027000191A1B1C1D2F3130232D350405060708C4
:10028000090A0B0C0D0E0F10111213141516171866
:10029000191A1B1C1D2F3130354C000000000000C6
:1002A00000000000000000000000000000007E0FC1
:1002B00000D4FFFFFFC7000000780A00253033326A
:1002C0006C62003A200025303258000A722F6320F9
:1002D000303132333435363738394142434445467C
:1002E000303132333435363738394142434445466C
:1002F0000A006261636B6C6967687420737465706F
:100300003A2025750A006261636B6C696768742026
:1003100064697361626C650A006261636B6C696732
:10032000687420656E61626C650A006261636B6C63
:100330006967687420746F67676C653A2025750A71
:10034000006261636B6C69676874206465637265E1
:100350006173653A2025750A006261636B6C696799
:10036000687420696E6372656173653A2025750A49
:10037000000A002530325820006B6579626F617287
:10038000645F7265706F72743A20000A0025303223
:1003900058006B6579626F6172645F7365745F6C3E
:1003A00065643A2000646F6E652E0A00626F6F7498
:1003B0006D61676963207363616E3A202E2E2E2073
:1003C000003F00433E20004C25640A0074696D65BF
:1003D000725F72656164333228293A202530346CAB
:1003E000580A006B6579626F6172645F69646C655D
:1003F0003A2025580A006B6579626F6172645F70FC
:10040000726F746F636F6C3A2025580A00686F73BF
:10041000745F6B6579626F6172645F6C6564732889
:10042000293A2025580A000A092D20537461747551
:1004300073202D0A004743433A20352E342E3020B6
:100440004156522D4C4942433A20322E302E302014
:100450004156525F415243483A20617672350A0054
:100460004F5054494F4E533A204C55464120424F2D
:100470004F544D414749432045585452414B4559EB
:1004800020434F4E534F4C4520434F4D4D414E441A
:1004900020343039360A004255494C443A20223043
:1004A0002E392E32312D34352D67363630306633C5
:1004B000326422202831373A33333A3232204A75B7
:1004C0006E2033302032303230290A005649443A07
:1004D00020307837383434284B502052657075629C
:1004E0006C696329205049443A20307838373837CE
:1004F000285844383720544B4C29205645523A202E
:100500003078303030310A00444553433A204B5064
:100510002052657075626C696320584438370A0050
:100520000A092D2056657273696F6E202D0A000A24
:10053000092D20436F6E736F6C65202D0A45534360
:100540002F713A09717569740A000A092D204D61ED
:10055000676963202D0A443A094465627567204D36
:1005600065737361676520546F67676C650A583AF5
:10057000094D6174726978204465627567204D6F1A
:10058000646520546F67676C65202D2053686F7712
:10059000206B65797072657373657320696E206D69
:1005A000617472697820677269640A4B3A094B6515
:1005B00079626F61726420446562756720546F6769
:1005C000676C65202D2053686F77206B657970729A
:1005D000657373207265706F72740A4D3A094465D1
:1005E000627567204D6F75736520546F67676C6522
:1005F0000A563A0956657273696F6E0A533A09537F
:1006000074617475730A433A09416374697661745D
:100610006520436F6E736F6C65204D6F64650A468D
:10062000312D4631303A0953776974636820746F0D
:10063000204C6179657220302D39202846313020D8
:100640003D204C30290A302D393A095377697463BB
:100650006820746F204C6179657220302D390A470B
:10066000524156453A0953776974636820746F2084
:100670004C6179657220302028616C7465726E61FE
:100680007465290A423A094A756D7020746F2042D8
:100690006F6F746C6F616465720A4553433A094A1F
:1006A000756D7020746F20426F6F746C6F6164653C
:1006B000722028616C7465726E617465290A453A0E
:1006C000095072696E7420454550524F4D20536554
:1006D0007474696E67730A4253504143453A094343
:1006E0006C65617220454550524F4D0A000A002545
:1006F00075002E6C6576656C3A20000A0025750041
:100700002E656E61626C653A20000A002530325811
:10071000006261636B6C696768745F636F6E6669C2
:10072000672E7261773A20000A002575002E6E6BE5
:10073000726F3A20000A002575002E737761705F92
:100740006261636B736C6173685F6261636B73702A
:100750006163653A20000A002575002E7377617089
:100760005F67726176655F6573633A20000A0025F2
:1007700075002E6E6F5F6775693A20000A00257557
:10078000002E737761705F72616C745F7267756958
:100790003A20000A002575002E737761705F6C6146
:1007A0006C745F6C6775693A20000A002575002E2D
:1007B000737761705F7263746C5F726775693A20FA
:1007C000000A002575002E737761705F6C63746C8E
:1007D0005F6C6775693A20000A002575002E636119
:1007E00070736C6F636B5F746F5F636F6E74726F47
:1007F0006C3A20000A002575002E737761705F63E4
:100800006F6E74726F6C5F636170736C6F636B3A61
:1008100020000A0025303258006B65796D61705FE9
:10082000636F6E6669672E7261773A20000A002551
:1008300075002E6D6F7573653A20000A00257500EE
:100840002E6B6579626F6172643A20000A0025752B
:10085000002E6D61747269783A20000A00257500D7
:100860002E656E61626C653A20000A0025303258B0
:100870000064656275675F636F6E6669672E72619B
:10088000773A20000A0025750064656661756C740E
:100890005F6C617965723A20003F000A6D6F757375
:1008A000653A206F66660A000A6D6F7573653A20B7
:1008B0006F6E0A000A6B6579626F6172643A206F2D
:1008C00066660A000A6B6579626F6172643A206F2E
:1008D0006E0A000A6D61747269783A206F66660A62
:1008E000000A6D61747269783A206F6E0A000A64BA
:1008F000656275673A206F66660A000A646562750C
:10090000673A206F6E0A000A0A4A756D70696E6751
:1009100020746F20626F6F746C6F616465722E2E2D
:100920002E2000433E2000436C656172696E672093
:10093000454550524F4D0A006565636F6E666967A5
:100940003A0A005B735D004B6579626F61726420E7
:1009500073746172742E0A005B575D005B535D0017
:100960005B525D005B445D005B435D00040330004F
:1009700000001203580044003800370020005400E3
:100980004B004C00000018034B00500020005200A8
:1009900065007000750062006C0069006300000073
:1009A0000403090409025B00030100A0FA09040022
:1009B000000103010100092111010001224000078B
:1009C00005810308000A0904010001030000000971
:1009D00021110100012232000705820320000A09CB
:1009E000040200020300000009211101000122227B
:1009F00000070583032000010705030320000112FF
:100A000001100100000008447887870100010203FB
:100A1000010631FF0974A1010975150026FF009533
:100A200020750881020976150026FF0095207508BB
:100A30009102C005010980A101850319012AB700AF
:100A4000150126B700950175108100C0050C09013C
:100A5000A101850419012AA002150126A002950111
:100A600075108100C005010906A101050719E029DB
:100A7000E71500250195087501810295017508812A
:100A8000010507190029FF150026FF0095067508C6
:100A90008100050819012905950575019102950147
:100AA00075039101C00011241FBECFEFDAE0DEBF55
:100AB000CDBF04B603FE27C08091A2029091A3028D
:100AC000A091A402B091A5028730904BA740B04BF3
:100AD000D1F41092A2021092A3021092A4021092DA
:100AE000A50214BE84B7877F84BF0FB6F894A8957B
:100AF00080916000886180936000109260000FBE5A
:100B0000E0E0F8E3099511E0A0E0B1E0E4EBF6E500
:100B100002C005900D92A639B107D9F722E0A6E9E7
:100B2000B1E001C01D92A23AB207E1F70E94392557
:100B30000C94582B0C940000FF93EF93E0919601D6
:100B4000F0919701309709F00995EF91FF91089581
:100B5000FC018591803011F0EFDFFBCF0895FF2776
:100B6000E0E230E247FF0CC0419597FF09C0EDE29B
:100B70006095709580959095611D711D811D911DE9
:100B800027FF02C0219530E350E2AA27660F771FA6
:100B9000881F991FAA1FA41710F0A41B63955A95CC
:100BA000A9F7AA3008F0A95FA05DAF93F39561158E
:100BB00071058105910541F7ED3211F4EF93F3953D
:100BC000F21718F43F93F395FBCF8F91B5DFFA95A9
:100BD000E1F70895E991F9918591803021F085320E
:100BE00019F0AADFF9CF089520E0E8945591553225
:100BF000C1F3503311F4689455915A3348F450536B
:100C000090F3220F022E220F220F200D250FF4CF7A
:100C10000EF4219589919991533619F3533729F19F
:100C2000533559F1BC0188279927E8945C3621F4A3
:100C30008991999168945591543639F446EF7EF034
:100C400077FF0DC08FEF9FEF0AC055374AE039F0AC
:100C5000583540E121F0523642E009F00895FF9303
:100C6000EF937DDFEF91FF91B7CFFF93EF93FC01FF
:100C700081918030B9F360DFFBCFFF93EF9368DFA2
:100C8000F1CFDF93CF93CDB7DEB72596A3DFCF911A
:100C9000DF9108950C9475060C945B0681FF02C0E9
:100CA000729801C0729A0C9476066A9A08950E940E
:100CB00055060C94740688302DE5920721F0893092
:100CC0009D4541F00FC0FB018281882359F08FE0E0
:100CD00091E006C0FB018281882321F08CEF90E037
:100CE0000E947E0781E0089508950895089581E0A7
:100CF000089508950C9479061F93CF93DF9300D045
:100D000000D01F92CDB7DEB749835A836B833091F1
:100D1000BE0189819A81311114C0662359F02223C2
:100D200049F00E94DE1A182F682F89819A810E944B
:100D3000871A03C00E94B21A182F69817A81812F05
:100D400004C00E94DE1A69817A810F900F900F9083
:100D50000F900F90DF91CF911F910C940D08FC0123
:100D6000262F408151816281738184810C947C069D
:100D7000CF93DF93EC0160E00E94AF06BE01DF91EC
:100D8000CF910C947A06FF920F931F93CF93DF932A
:100D9000E82FF0E0E65EFD4FF490C82FC695C695AB
:100DA000C695D0E0FE01E655FD4F0491877010E036
:100DB000082E02C0159507950A94E2F701701127D5
:100DC000FE01E656FD4FC491D0E002C0D595C7950F
:100DD0008A95E2F7C170DD270115110519F081EE42
:100DE0000E94F911209719F086EE0E94F9118F2DBB
:100DF0000E94FF12CD2B19F086EE0E94A012012B4B
:100E000041F081EEDF91CF911F910F91FF900C94F3
:100E1000A012DF91CF911F910F91FF900895EF9253
:100E2000FF920F931F93CF93DF938C01F62E8AE0EE
:100E3000E82EF8018491882309F459C0813009F023
:100E400044C0E8012196FE018491813041F421964D
:100E5000FE011491812F0E94F911812F0FC0823061
:100E600039F4E8012296FE0184910E94F91130C004
:100E7000833039F4E8012296FE0184910E94A01289
:100E800027C0843029F5E8012296FE01249180E0F4
:100E900090E030E0205331092A30310560F4E89EBB
:100EA000A001E99E500D1124C901840F951F2196C0
:100EB000FE012491EECF009759F0EFE9FFE0319762
:100EC000F1F700C000000197F6CF0E94C306E801C9
:100ED0008E010F5F1F4F8F2D882309F4AACFEFE9F2
:100EE000FFE03197F1F700C000008150F5CFDF91AE
:100EF000CF911F910F91FF90EF90089560E00C94B7
:100F00000F070E94651C811102C00E94181D0E94DB
:100F1000F70D0C9457060C944A0681E008950C9442
:100F20008D07CF93C82F0E944E068C2F0E948F07EB
:100F3000CF91089508950E9493150E949A072FEF6C
:100F400084E39CE0215080409040E1F700C0000025
:100F50000C944A1E0F931F93CF93DF93EC0161E033
:100F60000E94AF068C01BE010E944C06882309F442
:100F700049C0BE01C8010E94F90C882309F442C08F
:100F8000BE01C8010E947B0E8823E1F1BE01C801A9
:100F90000E94BC0E8823B1F1BE01C8010E94E70F78
:100FA000882381F18A81882331F101308CE518078B
:100FB00051F00E3D8CE51807D9F001151C45D9F408
:100FC0000E949B071FC080914D02C82FC095C17021
:100FD000C0FB80F980934D02CC2329F089E092E098
:100FE0000E94A8050FC087EF91E00E94A8050BC0E2
:100FF0000E94181D07C0CE01DF91CF911F910F9164
:101000000C947706C0E08C2FDF91CF911F910F9148
:10101000089580E090E00895089526E6829FC0013B
:101020001124FC0121E1729FE00DF11D1124E60F56
:10103000F11DEE0FFF1FE55DFE4F85919491089520
:10104000880F991FFC01E654FD4F859194910895F6
:10105000CF93DF930E940D080E943A09EC0181159D
:10106000904508F043C0C11580E4D80708F0CBC014
:10107000C03ED10528F5C03CD10508F0B3C0C83A40
:10108000D10578F4C53AD10508F0A4C0C130D10526
:1010900009F4ECC008F4E8C0C430D10508F0E6C09B
:1010A000E3C0CF3BD10508F0DFC0C85AD0E0CC0F79
:1010B000DD1FC35FDE4F0990D881C02DD464D6C038
:1010C000C11590E2D90750F4C11521E0D20708F00C
:1010D000CDC0C83ED10508F4C9C0C6C0C11580E363
:1010E000D80708F086C0CE019F707FC0C11595E576
:1010F000D90708F043C0C11524E5D20708F09AC00B
:10110000C11582E5D80708F5C11591E5D90708F0A2
:101110007DC0CE0174E0969587957A95E1F783704E
:101120009C2F937021E030E002C0220F331F9A956C
:10113000E2F73C68382BCF70C695C69580E2C89F11
:10114000E0011124C22BD32B91C09E0123703327C1
:101150008C2F86958695C115D34508F05CC0C1E0FB
:10116000D0E002C0CC0FDD1F2A95E2F720E2829F7B
:10117000C0011124C82BD92BDC6878C0C11529E522
:10118000D207A0F4C11588E5D80708F058C0C115EA
:1011900096E5D90708F068C08C2F0E94CE098F71A0
:1011A000C82FD0E0DC2FCC27D06260C0C1152AE563
:1011B000D20708F449C0CE0190568115904208F03C
:1011C00053C08D2F8F710E94CE09DD27D0628F71A1
:1011D000D82B4CC0C55AD0E0C55CDE4FC881D0E0EA
:1011E000D06444C0CE01805C91090E942008EC01CB
:1011F0003DC0CE019927D3FF03C0EC01D86C36C0A7
:10120000EC01D06C33C0DF70D06A30C0DC2FCC274B
:10121000C16FD06A2BC0C1E0D0E002C0CC0FDD1F8F
:101220002A95E2F720E2829FC0011124C82BD92B16
:10123000DA681CC0DC2FCC27C46FD06A17C0DC2F43
:10124000CC27C06FD06A12C08C2F8F700E94CE093D
:1012500094E0D695C7959A95E1F7CF70D0E0DC2F52
:10126000CC27D069C82B02C0C0E0D0E0CE01DF910E
:10127000CF9108958238910569F1B0F481339105D9
:1012800009F46DC048F48932910509F463C08A32CB
:10129000910509F469C008958533910509F455C095
:1012A00089339105B9F00895833E910569F138F4C9
:1012B000803E9105B1F0823E910509F10895863E88
:1012C0009105A9F1873E9105B9F1843E910509F098
:1012D00064C023C02091930220FD4FC021FD4DC06A
:1012E00008958091930280FD44C08091940280FF14
:1012F00044C08091930284FD42C083EE4DC0809132
:10130000930282FF38C0F5CF8091930282FD33C0F3
:101310008091940280FD31C0ECCF8091940281FFD6
:1013200032C08091930284FD2AC087EE35C080913F
:10133000930283FF26C0F5CF8091930283FD21C0E5
:101340008091940281FD1FC0ECCF8091930285FDB6
:101350001CC01DC08091930285FD19C016C08091EC
:10136000930286FD16C017C08091930286FD13C0BC
:1013700010C089E311C082EE0FC080EE0DC080E086
:101380000BC086EE09C084EE07C089E205C085E384
:1013900003C08AE201C081E390E008959091930236
:1013A00092FF0DC0282F2871283019F4877F8460A0
:1013B00006C0282F2471243011F48B7F886093FF9E
:1013C0000DC0282F2871283119F4877E846106C04A
:1013D000282F2471243111F48B7E8861209194028E
:1013E00020FF0DC0382F3871383019F4877F8160A5
:1013F00006C0382F3171313011F48E7F886021FFA3
:101400000DC0282F2871283119F4877E816106C00C
:10141000282F2171213111F48E7E886194FD877E01
:10142000089524E0829FC0011124FC01EA58FD4F79
:1014300060817181828193810895CF92DF92EF92D2
:10144000FF920F931F93CF93DF938BEC92E00E9458
:10145000A80586E7E82E82E0F82EC0E0D0E096EC02
:10146000C92E92E0D92E0CEB12E0DF93CF93DF92DE
:10147000CF920E94410683EC92E00E94A805F701FA
:1014800061917191819191917F010E943A1C9F938A
:101490008F937F936F931F930F930E9441068AEB64
:1014A00092E00E94A80521968DB79EB70A960FB6C6
:1014B000F8949EBF0FBE8DBFC630D105B1F6DF9147
:1014C000CF911F910F91FF90EF90DF90CF900895F3
:1014D00080EA8A95F1F70895CF93DF93AFE4B1E006
:1014E00045E551E061E070E08D91E82FE295EF7005
:1014F000F0E021A18F70EB0102C0CC0FDD1F8A95B7
:10150000E2F7CE019C2F9095922391A392A1892B73
:1015100082A34A175B0741F7AEE3B1E04FE451E025
:1015200061E070E08D91E82FE295EF70F0E021A18D
:101530008F70EB0102C0CC0FDD1F8A95E2F7CE0160
:101540009C2F9095922391A392A1892B82A34A1755
:101550005B0741F7EEE5F2E0A6E7B2E086E792E04E
:1015600011921192119211921D921D921D921D9233
:101570008E179F07A9F786E00E94760BDF91CF9127
:101580000C9481072F923F924F925F926F927F92BD
:101590008F929F92AF92BF92CF92DF92EF92FF9283
:1015A0000F931F93CF93DF9300D000D0CDB7DEB75A
:1015B0002FE431E03A8329830EE512E046E7242E3A
:1015C00042E0342ED12CE981FA818191FA83E983BA
:1015D000482F42954F70442E512C5C824B82F20171
:1015E00091A18F70EE24E394F12C01C0EE0C8A954A
:1015F000EAF7892F8E2981A382A1CE2CC0948C2159
:1016000082A30E94680AAEE3B1E080E090E040E08F
:1016100050E0BA01AD90EA2DE295EF70F0E020A124
:1016200030E0EA2DEF7002C035952795EA95E2F794
:1016300020FD0FC0412C512C32014394082E04C0D0
:10164000440C551C661C771C0A94D2F753014201C6
:1016500003C0812C912C5401482959296A297B29DE
:10166000019681319105B1F6EB81FC8181A18C213C
:1016700081A382A1E82AE2A2F80180819181A2815E
:10168000B381481759076A077B0731F040835183BC
:101690006283738381E001C080E0D82A0C5F1F4F12
:1016A0002016310609F08FCF2D2D46E066E772E057
:1016B0008EE592E00E94770B0E948B078D2D0F9094
:1016C0000F900F900F90DF91CF911F910F91FF908E
:1016D000EF90DF90CF90BF90AF909F908F907F90D2
:1016E0006F905F904F903F902F9008950895FF92D4
:1016F0000F931F93CF93DF93F82ED92F8B01C42F15
:10170000222349F081E080939A010E94FD1D90936D
:1017100099018093980180919A018823F1F080913A
:101720009801909199010E94151E0697B0F0EF2D37
:10173000FD2FD80180E090E04C2F50E084179507F2
:1017400054F401911191219131910D931D932D9399
:101750003D930196F3CF10929A01DF91CF911F91A3
:101760000F91FF9008950E94651C811102C00E9494
:10177000181D0E94A01C80938E02282F2695269566
:10178000269530E02430310524F0877088618093FD
:101790008E0280918E0280FF04C086958695869584
:1017A00001C080E00C947F0D20918E02822F8695DF
:1017B00086958695482F50E04330510554F48F5F4D
:1017C000982F990F990F990F822F8770892B8093EB
:1017D0008E0280918E02816080938E020E94A41CF2
:1017E00080914D0280FF11C080918E028695869572
:1017F00086951F928F9389E593E09F938F930E9424
:1018000041060F900F900F900F9080918E02869559
:10181000869586950C947F0D80918E02982F9695D3
:1018200096959695A1F0915E990F990F990F8770F3
:10183000892B80938E02887F91E009F490E080915B
:101840008E0290FB80F980938E020E94A41C8091EE
:101850004D0280FF11C080918E02869586958695F7
:101860001F928F9381E493E09F938F930E94410690
:101870000F900F900F900F9080918E028695869515
:1018800086950C947F0D80918E0280FD1FC0816033
:1018900080938E02813019F489E080938E028091CA
:1018A0008E020E94A41C80914D0280FF08C089E135
:1018B00093E09F938F930E9441060F900F90809129
:1018C0008E028695869586950C947F0D089580915D
:1018D0008E0280FF14C08E7F80938E020E94A41C13
:1018E00080914D0280FF08C086E093E09F938F9324
:1018F0000E9441060F900F9080E00C947F0D089598
:10190000CF93C0918E02C17080914D0280FF0CC0B8
:101910001F92CF938BE293E09F938F930E94410697
:101920000F900F900F900F90CC2319F0CF910C9443
:10193000670CCF910C94430C90918E02892F869561
:10194000869586958F5F8F719770843038F4880FF5
:10195000880F880F892B80938E0202C090938E028D
:1019600080918E02887F91E009F490E080918E0250
:1019700090FB80F980938E020E94A41C80914D02FE
:1019800080FF11C080918E028695869586951F9264
:101990008F9382EF92E09F938F930E9441060F9066
:1019A0000F900F900F9080918E0286958695869568
:1019B0000C947F0D843008F083E090918E02977034
:1019C000282F220F220F220F922B90938E02987FA6
:1019D00021E009F420E090918E0220FB90F9909391
:1019E0008E020C947F0D0E94DA0C80918E020C9472
:1019F000A41C9C01FB018281882349F12D3BFCE55D
:101A00003F07C9F040F42B3BECE53E0769F02C3B67
:101A10003C4561F008952F3B9CE5390791F070F04B
:101A2000203C3C4589F0089583E001C080E00E949D
:101A3000F30C80E008950E940C0CFBCF0E94D40BA5
:101A4000F8CF0E94800CF5CF0E949C0CF2CF81E071
:101A50000895509A589A089558980895589A089554
:101A60001F920F920FB60F9211242F933F934F9313
:101A70005F936F937F938F939F93AF93BF93EF93F6
:101A8000FF930E942E0DFF91EF91BF91AF919F9117
:101A90008F917F916F915F914F913F912F910F9017
:101AA0000FBE0F901F9018951F920F920FB60F92B6
:101AB00011242F933F934F935F936F937F938F9353
:101AC0009F93AF93BF93EF93FF9380918800909182
:101AD00089008130914010F00E942C0DFF91EF9110
:101AE000BF91AF919F918F917F916F915F914F9136
:101AF0003F912F910F900FBE0F901F901895CF928E
:101B0000DF92EF92FF92CF93C82F8430A8F4811117
:101B100014C08091880090918900892B51F08091A8
:101B20006F008D7F80936F0080916F008E7F809318
:101B30006F000E942E0D11C0C3E08091880090912B
:101B40008900892B51F480916F00826080936F002F
:101B500080916F00816080936F002C2F30E0AFEF99
:101B6000BFEF0E94FC2A23E030E040E050E00E94FA
:101B7000D42AC9012C3764E1360728F469E070E003
:101B80000E94C02A29C0DA01C9018A50974DAF4F7F
:101B9000BF4F6627782F892F9A2F25EF38E241E033
:101BA00050E00E94D42A69017A01CA01B9010E9459
:101BB000A42A9B01AC01C701B6010E94A42ABB273D
:101BC000A92F982F872F009721E0A207B10511F0C8
:101BD000BC0102C06FEF7FEF7093890060938800B3
:101BE000CF91FF90EF90DF90CF90089508950E94DD
:101BF000290D82E08093800089E1809381008FEF3E
:101C00009FEF90938700809386000C94B30B0F9303
:101C10001F93CF93DF93C62FD42F122FFC01828105
:101C20008823C9F060939D010E94FD1D90939C0143
:101C300080939B0180E28C0F883008F057C0C770FA
:101C400081E001C0880FCA95EAF7DF91CF911F911B
:101C50000F910C94121380919D01681330C08091F4
:101C60009B0190919C010E94151E883C910538F5BE
:101C700000E20D0FCD17B9F080E28C0F883040F4F0
:101C8000C77081E001C0880FCA95EAF70E94191356
:101C9000083028F581E09D2F977001C0880F9A9534
:101CA000EAF70E941213812F0E94FF120830F0F40D
:101CB000D77081E001C0880FDA95EAF70AC080E2A8
:101CC0008C0F883098F4C77081E001C0880FCA95E6
:101CD000EAF7DF91CF911F910F910C941913812F87
:101CE000DF91CF911F910F910C94FF12DF91CF9153
:101CF0001F910F9108959C01CB01233F4CE53407C0
:101D0000F9F078F4283DFCE53F07B9F0293D4CE5B2
:101D1000340711F1273D3C4531F526E241EE61EEF5
:101D20001EC0253FFCE53F0799F070F0263F3C457B
:101D3000D1F427E245EE66EE12C027E245EE0EC072
:101D400026E241EE60EE0BC027E245EE64EE07C0EE
:101D500026E241EE62EE03C028E241E065EE0E9419
:101D6000070E80E00895FC018281882319F010920B
:101D70009D01089581E00895CF93DF93EC01FB016D
:101D80008281882309F41FC1C230FCE5DF0708F413
:101D90001BC1C6319CE5D90738F09E012A5F3C453E
:101DA0002930310508F010C10E94821C90939402E2
:101DB00080939302C031ECE5DE0709F4C3C008F05C
:101DC00041C0C8308CE5D80709F49AC0F0F4C4309B
:101DD000ECE5DE0709F487C068F4C2308CE5D8076B
:101DE00009F477C0C330DC4509F0E3C08091930269
:101DF000826076C0C630ECE5DE0709F46EC008F0FC
:101E00007BC08091930288606BC0CC308CE5D80792
:101E100009F485C068F4CA30ECE5DE0709F474C043
:101E200008F079C00E94931580919302806858C091
:101E3000CE308CE5D80709F476C008F07FC08091D9
:101E400093028BC0CB3FECE5DE0709F44FC018F5D9
:101E5000C3318CE5D80709F47DC078F4C131ECE5D5
:101E6000DE0709F473C0C231DC4509F0A2C00E944C
:101E70009315809193028F7733C0C5318CE5D807D5
:101E800009F472C008F486C0CA3FDC4509F091C06D
:101E9000809194023EC0CF3FFCE5DF0709F45FC0AC
:101EA00058F4CD3F9CE5D90709F444C008F43FC07D
:101EB0008091940282602DC0C130FDE5DF0709F4F6
:101EC00075C008F45DC0C230DD4509F072C080E025
:101ED0006EC080919302816003C080919302806103
:101EE0008093930266C08091930211C08091940206
:101EF0008260809394025DC0809193028062F0CFF3
:101F0000809193028064ECCF80919302886084601A
:101F1000E7CF8160EECF809193028E7FE1CF8091F9
:101F200093028D7FDDCF80919302877FD9CF8091FF
:101F3000940218C0809194028D7FDBCF8091930230
:101F40008F7ECECF809193028F7DCACF80919302F6
:101F50008F7BC6CF80919302877F8B7FC1CF80918B
:101F600094028D7F8E7FC5CF8091930282FB2227C2
:101F700020F991E0922790FB82F990FB83F9B0CF92
:101F800080919402982F909591708E7F892B90FB71
:101F900081F9AFCF0E9493158091930287FB22278E
:101FA00020F991E0922790FB87F99ACF81E00E9477
:101FB0001A1D80919302909194020E94931C0E949A
:101FC000931580E001C081E0DF91CF910895CF9318
:101FD000DF9386319C4541F5EB010E945F1B982FF2
:101FE0008A812091000130910101882379F09A7A49
:101FF00081E009F480E080939E01911102C069E2C2
:1020000001C065E3C9010E94611D0AC080919E0163
:10201000811102C069E201C065E3C9010E94631D2C
:102020000E94AD1B80E001C081E0DF91CF91089557
:102030009093A4018093A3010895E091A301F091EE
:10204000A401309721F00190F081E02D099480E007
:102050000895EF92FF920F931F93CF93DF93E09138
:10206000A301F091A4013097B1F18C010280F381BA
:10207000E02D099580914D0282FF2DC080FF04C0A4
:1020800089E793E00E94A805E80118E083E7E82EBD
:1020900083E0F82E80914D0280FF0BC088811F9253
:1020A0008F93FF92EF920E9441060F900F900F9036
:1020B0000F90115021961111EDCF80914D0280FFAC
:1020C0000AC081E793E0DF91CF911F910F91FF90BC
:1020D000EF900C94A805DF91CF911F910F91FF9085
:1020E000EF9008952091A1013091A201281739079E
:1020F00071F09093A2018093A101E091A301F0916E
:10210000A401309721F00680F781E02D099408950D
:1021100020919F013091A0012817390771F0909309
:10212000A00180939F01E091A301F091A401309759
:1021300021F00084F185E02D0994089585B7806829
:1021400085BF85B7806885BF089508950C94A51054
:102150000C94A6100C94A5100C94A5100E949E102F
:102160000E94AA100C94A81081E008950C94B41059
:102170000E94F41D0E946C0A0E94B91E0E94B30BBB
:102180000C94AC10CF93C82F80914D0282FF1EC0DB
:1021900080FF04C082E993E00E94A80580914D026F
:1021A00080FF0CC01F92CF938DE893E09F938F9395
:1021B0000E9441060F900F900F900F9080914D025A
:1021C00080FF04C08BE893E00E94A8058C2FCF917C
:1021D0000C9491072F923F924F925F926F927F9251
:1021E0008F929F92AF92BF92CF92DF92EF92FF9227
:1021F0000F931F93CF93DF93CDB7DEB72B970FB617
:10220000F894DEBF0FBECDBF0E94C20A0E94B61076
:10221000811111C08FEF89838A831B820E94FD1D6B
:102220008160782F9D838C8349815A816B818D8158
:102230000E94C5116BC046EA242E41E0342E00E016
:1022400010E00B87802F0E94110A4B015C01F10105
:1022500041905190619071901F0146265726682643
:102260007926411451046104710431F40F5F1F4F4A
:102270000630110531F7CECF80914D0281FD0E94CD
:102280001D0A80E0C12CD12C7601C394B301A201B8
:102290004C215D216E217F21452B462B472B71F16F
:1022A0008E83FB85FF838C209D20AE20BF2081E0A4
:1022B00089288A288B2809F480E088870E94FD1DE0
:1022C0008160782F9A8789874E815F8168858A85AA
:1022D0000E94C511000F111F000F111FF801EA55D0
:1022E000FE4F80819181A281B381C826D926EA263A
:1022F000FB26C082D182E282F38208C08F5FCC0CC1
:10230000DD1CEE1CFF1C813109F6B0CF0E94F60DDA
:102310000E941D109091A5018917F1F00E941D10D7
:102320008093A5012B960FB6F894DEBF0FBECDBFEC
:10233000DF91CF911F910F91FF90EF90DF90CF90A1
:10234000BF90AF909F908F907F906F905F904F90D5
:102350003F902F900C94C2102B960FB6F894DEBFCE
:102360000FBECDBFDF91CF911F910F91FF90EF90E6
:10237000DF90CF90BF90AF909F908F907F906F90A5
:102380005F904F903F902F900895CF93DF93CDB7FC
:10239000DEB72B970FB6F894DEBF0FBECDBF4F83CD
:1023A000588769877A878B87DE01119686E0FD0161
:1023B00011928A95E9F785E0FE01379601900D921A
:1023C0008A95E1F749815A816B817C818D819E815B
:1023D0000E944C182B960FB6F894DEBF0FBECDBFEF
:1023E000DF91CF910895FC01808191810E94201B93
:1023F0000895CF93882309F4A1C0C82F8238C1F46F
:102400000E941D1081FD9AC069E3809100019091A6
:1024100001010E94611D0E94AD1B2FEF81EE94E02F
:10242000215080409040E1F700C0000069E319C0EE
:10243000833801F50E941D1080FD80C063E5809106
:102440000001909101010E94611D0E94AD1B2FEFC0
:1024500081EE94E0215080409040E1F700C0000000
:1024600063E580910001909101010E94631DCF916D
:102470000C94AD1B8438C1F40E941D1082FD5EC017
:1024800067E480910001909101010E94611D0E940A
:10249000AD1B2FEF81EE94E0215080409040E1F79A
:1024A00000C0000067E4DDCF8CEF8C0F813AF8F4B8
:1024B0008C2F0E94D922811141C06C2F8091000184
:1024C000909101010E942B1D882349F06C2F80916F
:1024D0000001909101010E94631D0E94AD1B6C2FB1
:1024E00080910001909101010E94611DC0CF80E2A6
:1024F0008C0F883048F4C77081E001C0880FCA95FE
:10250000EAF70E94621BB3CFEBE5EC0FE33040F437
:10251000F0E0ED57FE4F808190E0CF910C94721067
:10252000C85AC73158F4EC2FF0E0EE0FFF1FEB5AFA
:10253000FE4F80819181CF910C948810CF910895A6
:10254000882309F45BC0682F823879F40E941D103B
:1025500081FF54C069E380910001909101010E94C4
:10256000611D0E94AD1B69E310C08338B1F40E9465
:102570001D1080FF43C063E580910001909101012F
:102580000E94611D0E94AD1B63E580910001909146
:1025900001010E94631D0C94AD1B843879F40E94E4
:1025A0001D1082FF2BC067E4809100019091010112
:1025B0000E94611D0E94AD1B67E4E7CF8CEF860F80
:1025C000813A18F380E2860F883048F4677081E022
:1025D00001C0880F6A95EAF70E94681BDCCF8BE583
:1025E000860F833020F480E090E00C947210685ADB
:1025F000673120F480E090E00C9488100895CF9328
:10260000C82F0E94F911C93349F42FEF87EE93E0E8
:10261000215080409040E1F700C000008C2FCF9106
:102620000C94A012882321F00E94621B0C94AD1B15
:102630000895882321F00E94681B0C94AD1B089517
:10264000CF92DF92EF92FF920F931F93CF93DF937E
:102650007C01062FC72FFC01158112951F70D281B6
:10266000D1110E947F1B0E94581B882399F0DD2303
:1026700089F08C2F807F803421F080E2800F8830B9
:1026800048F082E00E94F71B0E94581B91E0D82E70
:10269000D92601C0D12CCC2EC2948FE0C8228C2D1B
:1026A00090E0FC01EA5AFF4F0C94F62A8C2F807FB1
:1026B000CF70882311F0C295C07FDD2399F0CC2321
:1026C00009F482C180E2800F883010F0011104C04B
:1026D0008C2F0E94621B03C08C2F0E94721B0E94D1
:1026E000AD1B72C1802F0E94A012CC2309F491C1AE
:1026F00080E2800F883010F0011104C08C2F0E94FE
:10270000681B03C08C2F0E94781B0E94AD1B81C1E7
:102710008C2F807FCF70803211F0C295C07F002354
:1027200019F00130C9F022C0DD2371F0112341F00E
:10273000113031F40E94921B8C2B0E949A1B69C1AC
:102740000E94921B8C2B1DC0112319F0113009F42B
:1027500060C10E94A31B25C0DD2321F0163008F0C4
:1027600058C10EC0153008F054C11BC0DD2361F004
:10277000112331F0F701858180FF26C18F70858399
:102780008C2F0E94121345C1112359F0093309F00F
:102790002CC1FFEF27EE83E0F15020408040E1F7AD
:1027A00022C18C2F0E94191334C18C2F86958695D7
:1027B000837019F0813061F02CC1DD2321F0802F6E
:1027C0009C2F937002C080E090E00E94721029C19B
:1027D000DD2321F0802F9C2F937002C080E090E0D9
:1027E0000E9488101EC18C2F837009F045C0D11142
:1027F00014C1402F429546954770440F440F602FF7
:102800006F70862F90E0A0E0B0E0042E04C0880F27
:10281000991FAA1FBB1F0A94D2F704FF10C00FE034
:1028200010E020E030E004C0000F111F221F331F12
:102830004A95D2F7009510952095309503C000E099
:1028400010E09801C695C695C370BC01CD01602B00
:10285000712B822B932BC23049F058F4C13019F000
:102860000E949D19DAC00E948B19D7C00E94AF192F
:10287000D4C00E948919D1C0DD2319F08C2F81703A
:1028800001C08695882309F4C8C0402F429546951B
:102890004770440F440F602F6F70862F90E0A0E0C8
:1028A000B0E0042E04C0880F991FAA1FBB1F0A9412
:1028B000D2F704FF10C00FE010E020E030E004C0C9
:1028C000000F111F221F331F4A95D2F70095109554
:1028D0002095309503C000E010E09801C695C6959C
:1028E000C370BC01CD01602B712B822B932BC230A6
:1028F00049F058F4C13019F00E94621A8EC00E944B
:10290000501A8BC00E94741A88C00E94C31985C0D7
:10291000CF70DD2339F08C2F0E94E919802F0E949F
:1029200012137BC0802F0E9419138C2F0E940A1A49
:1029300074C0023F01F128F4003F41F0013FA1F0D3
:102940003FC0033FF9F0043F39F13AC0DD2341F0C5
:10295000153008F05EC08C2F8F710E942F1A59C05D
:10296000163008F056C0F7CFDD2339F08C2F8F7169
:102970000E94E9194EC0DD23C9F38C2F8F710E948C
:102980000A1A47C0DD2329F08C2F8F710E94D419B9
:1029900040C00E94CF193DC0DD2349F0CF718C2F7C
:1029A0000E94E91963E08C2F0E94E21B32C081E093
:1029B0000E94F71B123068F182E00E94F71B29C0C9
:1029C000DD2331F0112391F2802F0E94F91121C0F3
:1029D000112399F2093349F49FEFE7EEF3E09150A8
:1029E000E040F040E1F700C00000802F0E94A012FC
:1029F00010C04C2F4F70602FC7010E9409080E9421
:102A0000FA180FC04C2F4F70602FC7010E940C089E
:102A100008C088EF8C0D843020F40E941D100E94A5
:102A20009107DD20C9F00E94541B80FD15C0F701FD
:102A300012820E944E1B0E94E919C7010E944D1587
:102A40000E944E1BDF91CF911F910F91FF90EF904D
:102A5000DF90CF900C940A1ADF91CF911F910F91C4
:102A6000FF90EF90DF90CF9008950F931F93CF9337
:102A7000DF93EC01688179818A810E942B1B8C0194
:102A80000E94861A0E947719B801CE010E94201375
:102A9000DF91CF911F910F910895CF93DF93EC01B8
:102AA000988189812B813C81232B31F08F3F31F438
:102AB00081E09F3F19F403C081E001C080E080FD08
:102AC00019C0CE010E94AA0781110CC00E94581B98
:102AD000882381F08A81882369F082E0DF91CF9199
:102AE0000C94F71BCE010E943515CE01DF91CF91DA
:102AF0000C94B806DF91CF9108950E947F1B0E942D
:102B00008F1B0E94AD1B80E090E00E94721080E05D
:102B100090E00C94881080910001909101010E9436
:102B2000651D0C947D150E946F1B0C948B15E92F6D
:102B3000E295EF704E2F50E0FA013297EE30F1053A
:102B4000B0F4EA59FF4F0C94F62A803F91F018F444
:102B5000883E68F40EC0843F51F40BC0883E48F0B4
:102B6000813F29F406C093FB882780F9089580E00F
:102B7000089581E008950E94201B0E9497150895F2
:102B8000CF93DF9300D000D01F92CDB7DEB70F9068
:102B90000F900F900F900F90DF91CF910895CF93EA
:102BA000DF9300D000D000D0CDB7DEB726960FB6A9
:102BB000F894DEBF0FBECDBFDF91CF9108951F9374
:102BC000CF93DF93C091BF0116E08091C001C81779
:102BD00099F0D0E01C9FF0011D9FF00D1124EF53E0
:102BE000FE4F4081518162817381848195810E9471
:102BF000CF152196C770E9CFDF91CF911F9108952E
:102C00004091F1015091F2016091F3017091F40152
:102C10008091F5019091F6010C94CF150F931F93BD
:102C2000CF93DF938091F60182958F7009F05DC09C
:102C30008091F301882309F458C08091BF0110915D
:102C4000C0016091F1017091F201C091F401D09145
:102C5000F50191E06F3F09F090E0292F06E0811720
:102C600009F443C0209721F07F3F21F030E003C0FA
:102C700031E001C0322F90E030FD34C0089FF001F8
:102C8000099FF00D1124DF01AF53BE4F11963C9107
:102C90001197371327C03C91361324C012963C91EC
:102CA000129731111FC013964D915C9114974C1BD4
:102CB0005D0B483C5105B0F48091F6018F70806146
:102CC0008093F601EA53FE4F80818F70806180838C
:102CD00081EF91E00E944D15DF91CF911F910F91EF
:102CE0000C94DF1501968770BACFDF91CF911F91B9
:102CF0000F9108959F92AF92BF92CF92DF92EF9281
:102D0000FF920F931F93CF93DF93CDB7DEB76197F9
:102D10000FB6F894DEBF0FBECDBF8C0185E0F80181
:102D2000DE011D9601900D928A95E1F7F801408130
:102D30005181E2809091F1016091F2012091F401C2
:102D40003091F5012115310531F06F3F31F481E00B
:102D50009F3F19F403C081E001C080E0F82FF170BB
:102D60009F2E80FD46C1F801A380B48081EFC82E5C
:102D700081E0D82EF090F301F501E21BF30BFF2068
:102D800009F4DFC08091F601E83CF10508F09BC032
:102D9000282F207F09F052C0561313C0491311C0C9
:102DA000FE2CE1100EC08F7080618093F6010E94AE
:102DB0000016C6010E944D158091F601F801858329
:102DC00058C1AB2831F05F3F31F481E04F3F19F437
:102DD00003C081E001C080E080FD03C081E08E255A
:102DE00002C080E090E0F82FF170FF2E80FF1CC041
:102DF0008091BF012091C00136E0821709F417C10C
:102E000090E0389FF001399FF00D1124EF53FE4FF1
:102E10006181561306C06081461303C06281E612C9
:102E200003C001968770E9CFFE2CEE2009F421C182
:102E30008091F60181608093F6015AC0561306C056
:102E4000491304C0E11002C0F8019FC04D875E879E
:102E50008D859E850E94BB15882379F1EE2069F14E
:102E60002091F601822F82958F7090E0029774F086
:102E70008091F1019091F20198878F831986BB862A
:102E8000AA862C87CE0107960E944D1586E0F80190
:102E9000A1EFB1E001900D928A95E1F70E940E1624
:102EA0000E9400160DC0561729F14D875E878D854B
:102EB0009E850E94BB1581112CC0C8010E944D1532
:102EC000FF24F394D6C0282F207F69F77A2DB98A82
:102ED000A88A6E2D89890E94C01581EF91E00E9419
:102EE0004D1586E0F60111928A95E9F70E940016C9
:102EF000F12CBFC04913D9CFE110D7CFF80185839A
:102F0000C8010E944D1586E0F60111928A95E9F7F5
:102F1000B0C0EE2091F22091F601822F82958F7041
:102F200090E002970CF4B2CF8091F1019091F20100
:102F30009A8389831B82BD82AC822E83CE01019647
:102F4000A3CFE83CF10508F047C0FE2CEE2009F4C1
:102F5000B4CF561330C049132EC02091F60120FD86
:102F600021C0822F82958F70482F50E04115510566
:102F7000C9F0F80125834F30510541F08F5F982F3C
:102F80009295907F822F8F70892B8583C8010E9434
:102F90004D1586E0F801A1EFB1E001900D928A9500
:102FA000E1F742C086E0F801A1EFB1E001900D9297
:102FB0008A95E1F75EC04D875E878D859E850E946C
:102FC000BB15811163CF8091F60181608093F6017A
:102FD000C8010E944D154DC07A2DB98AA88A6E2D60
:102FE00089890E94C01586E0F60111928A95E9F759
:102FF0001BC0EE2009F461CF4D875E878D859E85CD
:103000000E94BB15F82E882309F457CF86E0F801FB
:10301000A1EFB1E001900D928A95E1F781EF91E087
:103020000E94F3110E940E160E94001622C04D87C6
:103030005E878D859E850E94201B292F22952F70EB
:10304000223028F49F7039F0811105C00BC0243064
:1030500028F49F7049F4805E883020F0C8010E94F7
:103060004D159F2CF92C05C0F8019581907F99F79B
:10307000F9CF8F2D61960FB6F894DEBF0FBECDBF8E
:10308000DF91CF911F910F91FF90EF90DF90CF9044
:10309000BF90AF909F9008951F93CF93DF93CDB7CC
:1030A000DEB72C970FB6F894DEBF0FBECDBF4F83AF
:1030B000588769877A878B879C87CE0107960E94FD
:1030C0007A168823D1F09F8188852A853B85232B1A
:1030D00031F08F3F31F481E09F3F19F403C081E06C
:1030E00001C080E080FD47C04F81588569857A85A1
:1030F0008B859C850E94CF153EC086E0FE013796E9
:10310000DE01119601900D928A95E1F7FF81E88525
:103110006A857B856115710531F0EF3F31F481E0FF
:10312000FF3F19F403C081E001C080E080FD23C0AF
:103130002091C00130E0C901019687709927409124
:10314000BF0150E084179507F1F1F983EA837D838D
:103150006C8396E0929FD001939FB00D1124AF53E2
:10316000BE4FFE01319601900D929A95E1F7809342
:10317000C0010E94DF1516E08091BF019091C0014F
:10318000891771F1189FC00111248F539E4F0E941F
:103190007A16882329F1E091BF011E9FF0011124C6
:1031A000EF53FE4F4081518162817381848195810B
:1031B0000E94CF158091BF0190E0019687709927FA
:1031C0008093BF01D9CF0E9493151092C001109235
:1031D000BF01E1EFF1E086E0DF011D928A95E9F79A
:1031E0002C960FB6F894DEBF0FBECDBFDF91CF9106
:1031F0001F910895EF92FF920F931F93CF93DF9348
:103200008C01892B09F46CC0F12CEE24E394E801C5
:103210002196F8018491843740F4843008F051C03D
:10322000813081F0823019F15BC0853709F444C0E8
:10323000A8F19CE7980F903708F052C08F770E9452
:10324000A01241C00E5F1F4FFE01849190E2980FC3
:10325000983050F48770FE2D01C0FF0F8A95EAF771
:103260008F2F0E94821B14C00E94F9112DC00E5F87
:103270001F4FFE01849190E2980F983060F48770A0
:10328000FE2D01C0FF0F8A95EAF78F2F0E94881B41
:103290000E94AD1B19C00E94A01216C00E5F1F4FE6
:1032A000FE01C491CC2381F08FE99FE00197F1F7F3
:1032B00000C00000C150F6CF0E5F1F4FFE01F4901A
:1032C00003C00E94F9118E018F2D882309F49FCF2E
:1032D000EFE9FFE03197F1F700C000008150F5CF32
:1032E000DF91CF911F910F91FF90EF900895089576
:1032F00008950C9478190C9479190E947B196093A5
:103300003C0270933D0280933E0290933F020C94E6
:103310007D150C947D190F931F9300913C02109121
:103320003D0220913E0230913F02602B712B822B97
:10333000932B1F910F910C947D190F931F93009164
:103340003C0210913D0220913E0230913F026023E9
:103350007123822393231F910F910C947D190F9356
:103360001F9300913C0210913D0220913E0230914A
:103370003F0260277127822793271F910F910C949A
:103380007D190C9478190E94C119609338027093CA
:10339000390280933A0290933B020C947D1560E0D1
:1033A00070E0CB010C94C3190F931F9341E050E0E0
:1033B00060E070E08A019B0104C0000F111F221F12
:1033C000331F8A95D2F7C901B8011F910F910C9450
:1033D000C3190F931F9341E050E060E070E004C018
:1033E000440F551F661F771F8A95D2F780913802C8
:1033F00090913902A0913A02B0913B028A019B015F
:10340000082B192B2A2B3B2BC901B8011F910F91B7
:103410000C94C3190F931F9341E050E060E070E0FB
:1034200004C0440F551F661F771F8A95D2F7409539
:103430005095609570958091380290913902A091D5
:103440003A02B0913B028A019B01082319232A23E7
:103450003B23C901B8011F910F910C94C3190F931D
:103460001F9341E050E060E070E004C0440F551F3E
:10347000661F771F8A95D2F78091380290913902A2
:10348000A0913A02B0913B028A019B0108271927BB
:103490002A273B27C901B8011F910F910C94C3192A
:1034A0000F931F93009138021091390220913A0234
:1034B00030913B02602B712B822B932B1F910F912C
:1034C0000C94C3190F931F93009138021091390285
:1034D00020913A0230913B0260237123822393238F
:1034E0001F910F910C94C3190F931F9300913802F1
:1034F0001091390220913A0230913B0260277127E6
:10350000822793271F910F910C94C319089521E1ED
:10351000929F800D1124E82FE695E695E695877039
:1035200051E001C0550F8A95EAF785E0E89FF00168
:103530001124E950FE4F20E030E070E04081CB01E3
:10354000022E02C0969587950A94E2F781708195C4
:1035500084278523842781932F5F3F4F25303105B2
:1035600069F7089521E1929F800D1124682F6695D7
:1035700066956695982F977085E0689FB001112435
:1035800040E050E080E0FB01E40FF51FE950FE4F02
:10359000208130E0092E02C0369527950A94E2F783
:1035A00021703327042E01C0220F0A94EAF7822BE0
:1035B0004F5F5F4F4530510531F70895BF92CF926D
:1035C000DF92EF92FF920F931F93CF93DF938C01C3
:1035D000C0903802D0903902E0903A02F0903B025D
:1035E00080913C0290913D02A0913E02B0913F0239
:1035F000C82AD92AEA2AFB2ACFE1D0E0D701C6019E
:103600000C2E04C0B695A795979587950A94D2F786
:1036100080FD04C0219790F7B12C07C0BC2EB801E3
:103620008C2F0E9428080197A9F38B2DDF91CF9151
:103630001F910F91FF90EF90DF90CF90BF90089572
:10364000CF93DF93EC010E94DE1ABE010E9428088E
:10365000DF91CF9108951F93CF93DF93EB0190916A
:10366000BE01992321F0CB010E94201B13C08823A7
:1036700049F0CB010E94DE1A182F682FCE010E945C
:10368000871A04C0CB010E94B21A182FBE01812FE5
:103690000E942808DF91CF911F91089580914002E8
:1036A0008595859585950895809140028770089548
:1036B00090914002977081E009F480E00895809134
:1036C0004C02089590914C02892B80934C020895EE
:1036D000809590914C02892380934C02089510921A
:1036E0004C02089590914B02892B80934B020895D0
:1036F000809590914B02892380934B0208951092FC
:103700004B02089590914A02892B80934A020895B2
:10371000809590914A02892380934A0208951092DD
:103720004A02089580914102089508950C94951BD2
:103730000C94961B90914102981721F080934102BE
:103740000C94981B089580914102882329F01092CF
:10375000410280E00C94981B0895E0910001F091E3
:10376000010180914C028083E0910001F091010100
:10377000908180914B02892B8083E0910001F09130
:103780000101908180914A02892B808380914102BE
:10379000882381F0E0910001F09101019081892B53
:1037A000808380910001909101010E941F1D811171
:1037B0000E94A31B80910001909101010C9429109B
:1037C0000C94951B98E0899F90011124262B20933F
:1037D00040020E94E9198091400285958595859562
:1037E0000C94E01B1092400280E00C94E01B2091AE
:1037F00040028095822380934002982F977079F43D
:1038000030E0482F082E000C550B2417350739F0EF
:103810008595859585950E940A1A0C94F21B08954A
:10382000909397018093960108958295982F9373B2
:1038300044E0949F900111248C7C86958695282BDA
:10384000822F8575880F2A7A2695822B0895CF932B
:10385000DF93D92F0E94151CC82F8D2F0E94151C95
:103860002C2F30E0322F2227A901482BCA01DF91EB
:10387000CF910895CF92DF92EF92FF920F931F9313
:10388000CF93DF936B017C01CB010E94271CEC01DD
:10389000C7010E94271CAC01CE01A0E0B0E0DC0112
:1038A0009927882760E070E08C019D01042B152B7F
:1038B000262B372BC901B801DF91CF911F910F91B2
:1038C000FF90EF90DF90CF90089580E090E00E940D
:1038D0001E2B21E08C3E9E4F09F020E0822F0895A0
:1038E00082E090E00C94162B682F82E090E00C941C
:1038F000242B83E090E00C94162B682F83E090E05B
:103900000C94242BCF9384E090E00E94162BC82FB8
:1039100081E290E00E94162B2C2F30E0A901582B59
:10392000CA01CF910895CF93C92F682F84E090E00A
:103930000E94242B6C2F81E290E0CF910C94242BD9
:1039400086E090E00C94162B682F86E090E00C94B3
:10395000242BAB01BC018FE090E00C94362BAB0123
:10396000BC0183E190E00C94362B60E070E0CB0169
:103970000C94AF1C60E070E0CB010E94A91C0C9479
:10398000B51C6CEE7EEF80E090E00E94422B60E080
:1039900082E090E00E94242B60E083E090E00E94AF
:1039A000242B10923C0210923D0210923E02109283
:1039B0003F0260E084E090E00E94242B60E081E21E
:1039C00090E00E94242B60E085E090E00E94242B90
:1039D00060E086E090E00E94242B6FEF87E090E0AB
:1039E0000E94242B40E050E0BA0188E090E00E9461
:1039F000362B60E08DE090E00E94242B40E050E008
:103A0000BA0188E190E00E94362B60E087E190E007
:103A10000E94242B40E050E0BA018CE190E00E942B
:103A2000362B60E080E290E00E94242B0C94BA1CBC
:103A30000C94C11C682F8EE090E00C94242BFC01A8
:103A4000329697E080E0915029F021912223D9F31A
:103A50008F5FF9CF0895662349F0FC0132960896EE
:103A60002191621729F0E817F907D1F780E008954E
:103A700081E008959C01FC0132969FEF80E0419126
:103A8000461789F09F3F19F4411101C0982F8F5FAD
:103A90008630A9F79F3F39F0F901E90FF11D97FD35
:103AA000FA956283089508959C012A5F3F4FFC01B7
:103AB0004281461301C01282019682179307B9F71B
:103AC00008950C943A1D0C94541D029626E0FC01B6
:103AD00011922A95E9F7089508950C946C1D0C94A1
:103AE0006C1DCF930E946F1D0E94C20A0E946D1D23
:103AF000C0E08C2F0E94110A672B682B692B29F4D8
:103B0000CF5FC630B1F780E001C081E0CF9108956A
:103B10000C946C1D0C94881D0E948A1D8091990242
:103B2000843061F110924E0220E488E190E00FB6FB
:103B3000F894A895809360000FBE2093600080E009
:103B40000E947F0D80E00E9491070E948A1D83B72A
:103B5000817F846083BF83B7816083BF78948895B9
:103B600083B78E7F83BF0FB6F894A89580916000CD
:103B7000886180936000109260000FBE08950C94DD
:103B80006C1D0E9493150E94B30B0E941D100E9491
:103B900091070C94BF1D1F920F920FB60F92112424
:103BA0008F939F93AF93BF9380914E02811113C067
:103BB00080918F0290919002A0919102B091920217
:103BC0004196A11DB11D80938F0290939002A09306
:103BD0009102B0939202BF91AF919F918F910F90FC
:103BE0000FBE0F901F90189582E084BD93E095BDA5
:103BF0009AEF97BD80936E0008952FB7F894809147
:103C00008F0290919002A0919102B09192022FBFE9
:103C100008952FB7F89460918F027091900280916F
:103C20009102909192022FBF08959C014FB7F89492
:103C300080918F0290919002A0919102B091920296
:103C40004FBF821B930B089578941F920F920FB66B
:103C50000F9211248F939F93AF93BF9380918F0204
:103C600090919002A0919102B09192020196A11DB3
:103C7000B11D80938F0290939002A0939102B09314
:103C80009202BF91AF919F918F910F900FBE0F90B5
:103C90001F90189581E08093E00080E28093D80027
:103CA0001092C9008FE19EE40197F1F700C0000077
:103CB00087E090EBDC018093A2029093A302A09393
:103CC000A402B093A5029CE088E10FB6F894A895F1
:103CD000809360000FBE90936000FFCF8F929F9201
:103CE000AF92BF92EF92FF920F931F93CF93C0E0DA
:103CF000E82EF12C8C2F0E94110A4B015C0100E090
:103D000010E0D501C401002E04C0B695A795979583
:103D100087950A94D2F780FD06C00F5F1F4F0131CF
:103D2000110579F70AC0602F7C2F80E00E940D08F2
:103D3000E816F90691F781E004C0CF5FC630D1F6EE
:103D400080E0CF911F910F91FF90EF90BF90AF90C7
:103D50009F908F900895CF93C82F8CE20E946E1E83
:103D6000882321F08C2FCF910C946E1E80E0CF9190
:103D70000895CF930E94651C811102C00E94181DF6
:103D80008CEA93E00E94A805C5E6C15049F00E9464
:103D9000C20A8FE39CE90197F1F700C00000F5CF5C
:103DA00085EA93E00E94A80589E20E94AB1E81117A
:103DB00020C18AE20E94AB1E81110E94181D85E07D
:103DC0000E94AB1E81110E944A1E0E94701C8093AB
:103DD0004D0287E00E94AB1E8823A9F18BE10E946F
:103DE000AB1E882351F080914D0281FB222720F9E0
:103DF00091E0922790FB81F90EC08EE00E94AB1EED
:103E0000882361F080914D0282FB222720F991E006
:103E1000922790FB82F980934D0215C080E10E94A9
:103E2000AB1E90914D02882341F093FB222720F98D
:103E300081E0822780FB93F904C0892F809580FB65
:103E400090F990934D0280914D020E94741C0E9443
:103E5000821C909394028093930280EE0E94AB1E8A
:103E6000882341F080919302982F909590FB80F9E0
:103E70008093930289E30E94AB1E882359F08091BE
:103E8000930281FB222720F991E0922790FB81F990
:103E90008093930282EE0E94AB1E882359F080919A
:103EA000930282FB222720F991E0922790FB82F96E
:103EB0008093930286EE0E94AB1E882359F0809176
:103EC000930283FB222720F991E0922790FB83F94C
:103ED0008093930283EE0E94AB1E882359F0809159
:103EE000930284FB222720F991E0922790FB84F92A
:103EF0008093930285E30E94AB1E882359F0809142
:103F0000930285FB222720F991E0922790FB85F907
:103F10008093930281E30E94AB1E882359F0809125
:103F2000930286FB222720F991E0922790FB86F9E5
:103F30008093930281E10E94AB1E882359F0809107
:103F4000930287FB222720F991E0922790FB87F9C3
:103F50008093930280919302909194020E94931C0B
:103F600087E20E94AB1EC82F8EE10E94AB1E81111A
:103F7000C2608FE10E94AB1E8111C46080E20E948A
:103F8000AB1E8111C86081E20E94AB1E8111C0612D
:103F900082E20E94AB1E8111C06283E20E94AB1ECE
:103FA0008111C06484E20E94AB1E882311F0C068B6
:103FB00002C0CC2329F08C2F0E947D1C6C2F03C0E3
:103FC0000E94791C682F70E080E090E00E948919BF
:103FD0008FE00E94AB1E882319F081E00E941A1D19
:103FE00085E10E94AB1E882321F080E0CF910C94E4
:103FF0001A1DCF910895CF93C82F1F928F9387ECEE
:1040000093E09F938F930E94410681E090E0A0E0AF
:10401000B0E0BC01CD0104C0660F771F881F991F57
:10402000CA95D2F70E9489190F900F900F900F90A8
:10403000CF910C949315CF93DF938B3109F42AC25F
:1040400008F0CBC18B3009F4EEC108F0A1C1863075
:1040500009F4ECC120F4853009F4FAC19DC287301F
:1040600009F4FDC1883009F097C288E399E00E9405
:10407000A80589E898E00E94A8050E94791C1F9273
:104080008F9386E898E09F938F930E94410684E87F
:1040900098E00E94A8050E94701CC82F81E798E054
:1040A0000E94A8051F92CF938CE698E09F938F9370
:1040B0000E9441068AE698E00E94A80580E698E002
:1040C0000E94A8058C2F81701F928F938DE598E038
:1040D0009F938F930E9441068BE598E00E94A8056C
:1040E00081E598E00E94A805C1FB882780F91F920E
:1040F0008F938EE498E09F938F930E9441068CE407
:1041000098E00E94A80580E498E00E94A805C2FB00
:10411000882780F91F928F938DE398E09F938F9368
:104120000E9441068BE398E00E94A80582E398E094
:104130000E94A805C3FBCC27C0F91F92CF938FE242
:1041400098E09F938F930E9441068DE298E00E9431
:10415000A8050E94821CEC0189E198E00E94A80554
:10416000DF93CF9384E198E09F938F930E94410661
:1041700082E198E00E94A80589EF97E00E94A805D7
:104180008C2F81701F928F9386EF97E09F938F9370
:104190000E9441068DB79EB780960FB6F8949EBFD9
:1041A0000FBE8DBF84EF97E00E94A8058DED97E0CC
:1041B0000E94A805C1FB882780F91F928F938AED82
:1041C00097E09F938F930E94410688ED97E00E94AD
:1041D000A80586EC97E00E94A8058D2F81701F929C
:1041E0008F9383EC97E09F938F930E94410681EC1D
:1041F00097E00E94A8058FEA97E00E94A805D6954F
:10420000D1701F92DF938CEA97E09F938F930E9467
:1042100041068AEA97E00E94A80588E997E00E9493
:10422000A805C2FB882780F91F928F9385E997E044
:104230009F938F930E94410683E997E00E94A8050F
:1042400081E897E00E94A805C3FB882780F91F92A8
:104250008F938EE797E09F938F930E9441068CE7A0
:1042600097E00E94A80582E797E00E94A805C4FB9A
:10427000882780F91F928F938FE697E09F938F9303
:104280000E9441068DE697E00E94A8058BE597E025
:104290000E94A805C5FB882780F91F928F9388E5A7
:1042A00097E09F938F930E94410686E597E00E94D6
:1042B000A8058AE397E00E94A805C6FB882780F935
:1042C0001F928F9387E397E09F938F930E944106FD
:1042D0008DB79EB780960FB6F8949EBF0FBE8DBF68
:1042E00085E397E00E94A8058DE297E00E94A8056B
:1042F000C7FBCC27C0F91F92CF938AE297E09F9328
:104300008F930E94410688E297E00E94A8050E94D0
:10431000A01CC82F81E197E00E94A8051F92CF93AF
:104320008CE097E09F938F930E9441068AE097E08C
:104330000E94A80580E097E00E94A8058C2F81705C
:104340001F928F938DEF96E09F938F930E9441066B
:104350008BEF96E00E94A80582EF96E00E94A805E8
:10436000C695C695C6951F92CF938FEE96E09F9304
:104370008F930E9441068DEE96E00E94A8058DB7AE
:104380009EB740960FB6F8949EBF0FBE8DBF49C032
:10439000803109F4A9C020F48E3009F48FC0FCC02C
:1043A000863109F4BCC0893109F0F6C080E295E09D
:1043B0000E94A80588E095E00E94A8058CEC94E096
:1043C0000E94A80587E994E00E94A80580E694E091
:1043D0000E94A80585E394E084C08A32E1F060F48D
:1043E000873209F4D5C028F48E3108F4D5C08D5138
:1043F000D0C0893269F1D0C0833448F48A3308F0E0
:10440000C5C0853309F4C4C0883369F0C5C083349E
:1044100009F4BEC0C1C087E299E00E94A8050E94CD
:10442000181DC1E0BEC08AE495E05BC080914D02DA
:10443000817F8E7F80934D028FE295E00E94A805D8
:1044400083E299E00E94A80581E080934F02E9CFC2
:1044500087E099E00E94A8050E949B07E2CF809127
:104460004D02C82FC095C170C0FB80F980934D02EA
:10447000CC2329F08BEF98E00E94A80592C08EEE25
:1044800098E00E94A80580914D02897F877F8093E4
:104490004D02C7CF90914D0291FBCC27C0F981E02E
:1044A000C827892FC0FB81F980934D02CC2319F0D6
:1044B00081EE98E029C083ED98E013C090914D0201
:1044C00092FBCC27C0F981E0C827892FC0FB82F975
:1044D00080934D02CC2319F084EC98E015C084EB56
:1044E00098E00E94A8059DCF90914D0293FBCC27A8
:1044F000C0F981E0C827892FC0FB83F980934D0262
:10450000CC2351F088EA98E00E94A80580914D02E2
:10451000816080934D0245C08BE998E0E2CF87E24D
:1045200094E00E94A8050E941D101F928F938DE0B9
:1045300094E09F938F930E94410680910C011F92FB
:104540008F9386EF93E09F938F930E944106809113
:104550005C021F928F9383EE93E09F938F930E9450
:1045600041060E94091E9F938F937F936F938CEC5B
:1045700093E09F938F930E9441068DB79EB742961A
:104580000FB6F8949EBF0FBE8DBF4BCF895301C0AD
:1045900080E00E94FB1F45CF89E998E00E94A805B2
:1045A000C0E08C2FDF91CF91089580E008950C94A6
:1045B000D522CF93C82F80914F02882319F08130E4
:1045C00031F038C00E945F1B8232B1F504C00E94F6
:1045D0005F1B823261F48C2F0E94D722811104C0AC
:1045E0008C2F0E941B2024C081E090E021C08C2FE2
:1045F0000E94D52281111BC0C43189F018F4CB3040
:1046000029F010C0C93259F0C83361F48FE295E047
:104610000E94A80583EC93E00E94A80508C01092B0
:104620004F020CC081EC93E00E94A80507C081E016
:10463000817006C010924F0280E002C080E0F8CF87
:10464000CF91089580915B02089508959FB7F894E3
:10465000109252029FBF90919902943009F057C076
:104660009091E9009F703091EC00232F217030FD74
:1046700020E8922B23E02093E9002091EB0020FF1B
:1046800043C02091EE0027FF3FC02091500222231B
:1046900021F02091E80025FF37C01092500226E05B
:1046A0003091E80035FD15C030919902343061F544
:1046B0003091EB0035FD28C0215021F481E080933A
:1046C000500222C0EFE9FFE03197F1F700C000008F
:1046D000E7CF8093F1008091E80085FD0AC08091CA
:1046E000E80080FFFCCF8091E8008E778093E8009F
:1046F00006C08FB7F89421E0209352028FBF9F70BD
:104700009093E90080E008959F709093E9008FEF07
:104710000895CF93DF9300D01F92CDB7DEB790916D
:104720009902943019F589837B836A8382E08093B0
:10473000E9008FEF9091E800815095FD06C095ED5E
:104740009A95F1F700008111F5CF8091E80085FF7F
:104750000DC040E050E063E070E0CE0101960E94A1
:1047600007268091E8008E778093E8000F900F90E5
:104770000F90DF91CF910895CF93DF93EC010E94CA
:10478000EA25823011F0843031F4BE0184E0DF91FB
:10479000CF910C948923DF91CF910895BC0183E0E0
:1047A0000C948923CF93DF93EC010E94EA25823099
:1047B00011F0843039F581E08093E9008FEF90911A
:1047C000E800815095FD06C095ED9A95F1F700003F
:1047D0008111F5CF8091E80085FF14C040E050E0E2
:1047E00068E070E0CE010E9407268091E8008E7795
:1047F0008093E80088E0FE01A3E5B2E001900D920D
:104800008A95E1F7DF91CF91089588E699E00E94BB
:10481000A80580919802811109C00E9498270E94E2
:10482000F5278091E20084608093E200089584E699
:1048300099E00E94A80510929802089580E699E0F8
:104840000C94A8058CE599E00C94A80588E599E0FE
:104850000E94A8050C94C11D209151022F5F822F48
:1048600062E30E94B42A992319F02093510208951B
:104870001092510280915202882371F18091990225
:10488000843041F58091E9008F702091EC00922FE7
:10489000917020FD90E8892B93E09093E90090912E
:1048A000EB0090FF14C09091EE0097FF10C0909124
:1048B000E80095FF03C01092F100F9CF9091E80055
:1048C00090FF05C09091E8009E779093E8008F706C
:1048D0008093E90010925202089542E061EC81E079
:1048E0000E94112742E261EC82E00E94112742E21D
:1048F00061EC83E00C94112780919B02833009F4D2
:1049000060C030F4813071F0823009F499C00895AC
:104910008A3009F485C08B3009F46BC0893009F006
:10492000A7C020C080919A02813A09F0A1C080916D
:10493000E800877F8093E80080919E0290919F021B
:10494000892B21F468E083E592E003C060E080E019
:1049500090E070E00E9452268091E8008B7780936F
:10496000E800089580919A02813209F081C0809117
:104970009E0290919F02029708F07AC08091E80011
:10498000877F8093E8008091E80082FD05C08091D8
:1049900099028111F8CF6CC02091F3008091F20050
:1049A00090E0922B029729F48091F1008B7F813067
:1049B00021F48091F10080935B028091E8008B7775
:1049C00053C080919A02813A09F052C080919E02B0
:1049D00090919F02892B09F04BC08091E800877F5E
:1049E0008093E8008091E80080FFFCCF80910C016B
:1049F00036C080919A028132D9F580919E029091C1
:104A00009F02892BA9F58091E800877F8093E800B9
:104A10000E94462780919C0280930C010C94931570
:104A200080919A02813221F58091E800877F8093FE
:104A3000E8000E94462780919D0280935C020895C1
:104A400080919A02813AA1F48091E800877F809357
:104A5000E8008091E80080FFFCCF80915C028093A9
:104A6000F1008091E8008E778093E8000C9446274F
:104A7000089584B7877F84BF0FB6F894A895809176
:104A80006000886180936000109260000FBE90E02B
:104A900080E80FB6F89480936100909361000FBE98
:104AA0000E94AE100E9498270E94F5278091E20094
:104AB00084608093E20086E293E20E94101C789466
:104AC0000E94892A0E94B81082E091E00E9418108A
:104AD00087E499E00E94A80580919902853089F4C5
:104AE00083E499E00E94A8050E948C1D80919702A2
:104AF000882391F30E94711D882371F30E94F12590
:104B0000EBCF0E94EA10E8CF0C948625292F33279B
:104B100023303105C9F060F42130310581F02230B5
:104B2000310509F047C08BE590E024EA39E046C042
:104B30002132310511F12232310561F13BC082E1B0
:104B400090E02FEF39E03AC099278130910561F06C
:104B500040F08230910559F0039761F5ECE6F9E0F9
:104B600008C0E0EAF9E005C0E6E8F9E002C0E2E7E3
:104B7000F9E0849190E09F0121C063307105D0F489
:104B8000660F771FFB01E157FE4F2081318189E0DD
:104B900090E014C06330710568F4FB01EE0FFF1F55
:104BA000E757FE4F20813181FB01EA57FE4F80819C
:104BB00090E004C080E090E020E030E0FA01318332
:104BC0002083089580919902843011F081E0089546
:104BD00082E0089580915D02811102C00C94E2256B
:104BE000089580E189BD82E189BD09B400FEFDCF51
:104BF0008091D8008F7D8093D8008091E000826002
:104C00008093E0008091E00081FDFCCF0895CF9279
:104C1000DF92EF92FF920F931F93CF93DF93EC01FC
:104C20008B017A010E946527811133C0E114F104E0
:104C300039F0F70180819181081B190BC80FD91F2A
:104C4000C12CD12C0115110519F18091E80085FDC9
:104C500016C08091E8008E778093E800E114F1049B
:104C600049F0F70180819181C80ED91ED182C0829E
:104C700085E00FC00E946527882321F30AC089912F
:104C80008093F10001501109FFEFCF1ADF0ADACF4C
:104C900080E0DF91CF911F910F91FF90EF90DF9017
:104CA000CF9008952091A0023091A10226173707D6
:104CB00048F06115710539F42091E8002E772093B2
:104CC000E80001C0B901FC0120E06115710579F12E
:104CD000809199028823F1F18530F1F18091E8000B
:104CE00083FD3CC08091E80082FD2EC08091E800E9
:104CF00080FFEBCF2091F3008091F20090E0922BA7
:104D00006115710551F08830910538F42191209397
:104D1000F100615071090196F3CF21E0089709F085
:104D200020E08091E8008E778093E800CECF2111BB
:104D3000CFCF0AC080919902882361F0853061F05D
:104D40008091E80083FD0AC08091E80082FFF2CFE5
:104D500080E0089582E0089583E0089581E0089559
:104D60002091A0023091A1022617370748F0611563
:104D7000710539F42091E8002E772093E80001C0F6
:104D8000B901FC0120E06115710591F18091990252
:104D9000882309F440C0853009F43FC08091E800C1
:104DA00083FD3DC08091E80082FD2FC08091E80026
:104DB00080FFE9CF2091F3008091F20090E0922BE8
:104DC0006115710559F08830910540F424912093C4
:104DD000F1003196615071090196F2CF21E00897F8
:104DE00009F020E08091E8008E778093E800CBCF37
:104DF0002111CCCF0AC080919902882361F08530BF
:104E000061F08091E80083FD0AC08091E80082FF94
:104E1000F2CF80E0089582E0089583E0089581E074
:104E20000895982F973068F59093E900981739F016
:104E30007091EC002091ED005091F00003C0242F00
:104E4000762F50E021FD02C09F5FECCF3091EB0048
:104E50003E7F3093EB003091ED003D7F3093ED00CD
:104E60003091EB0031603093EB007093EC002093B5
:104E7000ED005093F0002091EE0027FDE5CF80E09B
:104E800008958F708093E90081E0089580919A02DF
:104E900087FF11C08091E80082FD05C080919902D2
:104EA0008111F8CF11C08091E8008B770BC0809101
:104EB0009902882349F08091E80080FFF8CF809123
:104EC000E8008E778093E80008952091E400309107
:104ED000E50095E64091EC00842F817040FF23C0EF
:104EE0008091E80080FD1DC080919902882399F08F
:104EF000853099F08091EB0085FD11C04091E40070
:104F00005091E5002417350729F3915011F09A01CB
:104F1000E1CF84E0089582E0089583E0089581E080
:104F2000089580E008954091E80042FFDDCF0895A4
:104F30000E9406280E940E28E0EEF0E08081816049
:104F40008083E8EDF0E080818F77808319BCA7ED46
:104F5000B0E08C918E7F8C9380818F7E80831092C5
:104F6000980208950F931F93CF93DF930E94062812
:104F70000E940E28C8EDD0E088818F7788838881D1
:104F80008068888388818F7D888319BC10929902FC
:104F900010929502109297021092960200EE10E085
:104FA000F80180818B7F808388818160888342E0E3
:104FB00060E080E00E941127E1EEF0E080818E7FCA
:104FC0008083E2EEF0E08081816080838081886070
:104FD0008083F80180818E7F8083888180618883CF
:104FE000DF91CF911F910F910895E8EDF0E080815E
:104FF0008F7E8083E7EDF0E080818160808384E0B4
:1050000082BF81E0809398020C94B227E8EDF0E033
:1050100080818E7F80831092E20008951092DA00E2
:105020001092E10008951F920F920FB60F92112473
:105030002F933F934F935F936F937F938F939F93A0
:10504000AF93BF93EF93FF938091E10082FF0BC07A
:105050008091E20082FF07C08091E1008B7F809306
:10506000E1000E942C248091DA0080FF1FC0809113
:10507000D80080FF1BC08091DA008E7F8093DA0019
:105080008091D90080FF0DC080E189BD82E189BD9A
:1050900009B400FEFDCF81E0809399020E940524AF
:1050A00005C019BC109299020E9417248091E1005A
:1050B00080FF19C08091E20080FF15C08091E2005E
:1050C0008E7F8093E2008091E20080618093E20015
:1050D0008091D80080628093D80019BC85E08093CD
:1050E00099020E9422248091E10084FF30C08091C7
:1050F000E20084FF2CC080E189BD82E189BD09B452
:1051000000FEFDCF8091D8008F7D8093D8008091E4
:10511000E1008F7E8093E1008091E2008F7E80939A
:10512000E2008091E20081608093E200809195022C
:10513000882311F084E007C08091E30087FD02C05E
:1051400081E001C083E0809399020E94262480912F
:10515000E10083FF29C08091E20083FF25C0809198
:10516000E100877F8093E10082E0809399021092B2
:1051700095028091E1008E7F8093E1008091E200B2
:105180008E7F8093E2008091E20080618093E20054
:1051900042E060E080E00E9411278091F00088608A
:1051A0008093F0000E941E24FF91EF91BF91AF9178
:1051B0009F918F917F916F915F914F913F912F912F
:1051C0000F900FBE0F901F9018951F920F920FB661
:1051D0000F9211242F933F934F935F936F937F937D
:1051E0008F939F93AF93BF93CF93DF93EF93FF93EF
:1051F000C091E900CF708091EC00D82FD17080FD74
:10520000D0E81092E9008091F000877F8093F00051
:1052100078940E9429291092E9008091F00088601A
:105220008093F000CD2BCF70C093E900FF91EF91F8
:10523000DF91CF91BF91AF919F918F917F916F91AE
:105240005F914F913F912F910F900FBE0F901F9044
:1052500018951F93CF93DF93CDB7DEB7AA970FB6FC
:10526000F894DEBF0FBECDBFEAE9F2E08091F10015
:10527000819322E0E23AF207C9F70E947C248091F0
:10528000E80083FF2EC180919A0290919B02492FE2
:1052900050E04A30510508F024C1FA01EC58FF4FA4
:1052A0000C94F62A803821F0823809F01AC108C01F
:1052B0008091960290919702992389F082600FC0A5
:1052C00080919E028F70873008F00BC18093E900B7
:1052D0008091EB0085FB882780F91092E90090917E
:1052E000E800977F9093E8008093F1001092F1001E
:1052F000D1C0282F2D7F09F0F4C0882319F0823007
:1053000061F0EFC080919C02813009F0EAC09330D7
:1053100009F080E0809397022EC080919C02811159
:105320002AC080919E028F702FEF280F263008F040
:10533000D8C08093E9002091EB0020FF1CC093307F
:1053400021F48091EB00806214C09091EB00906199
:105350009093EB0021E030E0A90102C0440F551FFB
:105360008A95E2F74093EA001092EA008091EB0000
:1053700088608093EB001092E9008091E800877FBD
:105380008093E8000E944627ACC08111AAC010910A
:105390009C021F778091E3008078812B8093E3004B
:1053A0008091E800877F8093E8000E9446278091E3
:1053B000E80080FFFCCF8091E30080688093E300E9
:1053C000111102C082E001C083E08093990289C07C
:1053D0008058823008F085C080919C0290919D0297
:1053E0008C3D53E0950779F583E08A838AE28983CF
:1053F0004FB7F894DE01139620E03EE051E2E32F30
:10540000F0E050935700E49120FF03C0E295EF7065
:105410003F5FEF708E2F90E0EA3010F0C79601C02A
:10542000C0968D939D932F5F243149F74FBF809194
:10543000E800877F8093E8006AE270E0CE01019681
:105440000E94522616C060919E0270919F02AE018A
:105450004F5F5F4F0E948425BC01892B09F441C036
:105460009091E800977F9093E80089819A810E944B
:10547000B0268091E8008B778093E80032C08038B6
:1054800081F58091E800877F8093E8008091950204
:105490008093F1008091E8008E7772CF811121C056
:1054A00080919C0290919D0299270297D4F480915B
:1054B000E800877F8093E80080919C0280939502AA
:1054C0000E94462780919502811106C08091E300D9
:1054D00087FD02C081E001C084E0809399020E94B0
:1054E0006D248091E80083FF0AC08091E800877FE7
:1054F0008093E8008091EB0080628093EB00AA9695
:105500000FB6F894DEBF0FBECDBFDF91CF911F91D4
:105510000895CF93809199028823A1F0C091E9006A
:10552000CF709091EC00892F817090FD80E8C82B9E
:105530001092E9008091E80083FD0E942929CF7034
:10554000C093E900CF910895DB018F939F930E9450
:105550000B2BBF91AF91A29F800D911DA39F900D2A
:10556000B29F900D11240895991B79E004C0991FF2
:10557000961708F0961B881F7A95C9F780950895AD
:10558000AA1BBB1B51E107C0AA1FBB1FA617B70769
:1055900010F0A61BB70B881F991F5A95A9F7809585
:1055A0009095BC01CD010895A1E21A2EAA1BBB1B48
:1055B000FD010DC0AA1FBB1FEE1FFF1FA217B307DF
:1055C000E407F50720F0A21BB30BE40BF50B661FF5
:1055D000771F881F991F1A9469F7609570958095B9
:1055E00090959B01AC01BD01CF010895EE0FFF1F07
:1055F0000590F491E02D0994A29FB001B39FC001E2
:10560000A39F700D811D1124911DB29F700D811DEE
:105610001124911D08950E94FC2AA59F900DB49F0E
:10562000900DA49F800D911D11240895F999FECF2E
:1056300092BD81BDF89A992780B50895A8E1B0E0A0
:1056400042E050E00C944A2B262FF999FECF92BDF0
:1056500081BDF89A019700B4021639F01FBA20BD37
:105660000FB6F894FA9AF99A0FBE08950396272F69
:105670000E94252B0E94242B252F0E94252B242FAE
:105680000C94252B0196272F0E94252B0C94242B5C
:10569000DC01CB01FC01F999FECF06C0F2BDE1BDF2
:1056A000F89A319600B40D9241505040B8F70895E1
:0456B000F894FFCF9C
:1056B40042022223D2232523CE23BC2301E200E984
:1056C40000EA00B500B600B700CD008301CC008A23
:1056D40001920194012102230224022502260227B9
:1056E400022A02B300B4006F007000818283C6F006
:1056F400F1F4F5F6F7353666949697343233929191
:105704003031679395E200E900EA00B500B600B7CE
:1057140000CD008301CC008A01920194012102236F
:105724000224022502260227022A02B300B4006FD3
:10573400007000818283403222650A330A110AB65E
:0657440009CF09E809008D
:00000001FF
