:100000000C949B020C94DF020C94DF020C94DF0230
:100010000C94DF020C94DF020C94DF020C94DF02DC
:100020000C94DF020C94DF020C94F01F0C94C2209D
:100030000C94DF020C94DF020C94DF020C94DF02BC
:100040000C94DF020C943B1B0C94DF020C94DF0237
:100050000C94DF020C9465160C94DF020C94DF0202
:100060000C94DF020C94DF020C94DF020C94DF028C
:100070000C94DF020C94DF020C94DF020C94DF027C
:100080000C94DF020C94DF020C94DF020C94DF026C
:100090000C94DF020C94DF020C94DF020C94DF025C
:1000A0000C94DF020C94DF020C94DF029B05A10587
:1000B000A505A805AC05B005B405B805BD05C10585
:1000C000C505C905CC05D005D405D805DC05E10575
:1000D0009A0C9A0CC90CC90C010D230D4B0E4B0E3A
:1000E0002E0D4B0ED50DD50D3E0E4B0E4B0E460E66
:1000F000E20DE20DE20DE20DE20DE20DE20DE20D88
:10010000E20DE20DE20DE20DE20DE20DE20DE20D77
:10011000F40D020E090E100E1A0ECB0ECB0EDE0ED3
:10012000DE0ED40EDE0EDE0EDE0ECB0ECB0EDA0EA3
:10013000DE0EDE0EDA0E2721492134224921342237
:100140008B21AE213422032216220000F0A13500BB
:100150003A4129610030023000001E0037000400DF
:1001600038004A003C661F003600120014004E00A2
:100170002B002000330008000D004B002800210058
:10018000130018000E004D003D6522001C000C00FD
:100190001B0000003E6D64004C670000E30000009F
:1001A0003F412E00C1000000E60000004041230056
:1001B0000900070005000000416D24000A00150039
:1001C0001000500044652500060017001A00510079
:1001D0002C0026000B001100190052002A002700F5
:1001E0000F0016001D004F0045662D00306F346172
:1001F000013003300000000001000000043016014F
:1002000000003A006400000000001D0102533B00A2
:100210006402F20000001B01F5003C00F000F10058
:1002200000000601F4003D000000F3000000190189
:1002300000003E0000000000000000000000A600DA
:1002400000000000000000000100A5000100000007
:100250004600000001003F00000000000000000018
:10026000AE004000240021001E000000A900410053
:10027000250022001F003700AB00420026002300AB
:1002800020002700AC0043005500570054006700D1
:10029000AA0044002F0031000000000000003500DB
:1002A000010029610030023000001E00140004002B
:1002B0001D004A0001001F001A0016001B004E001E
:1002C0002B0020000800070006004B00280021003A
:1002D0001500090019004D003D65220017000A00B5
:1002E000050000003E6D64004C670000E300000064
:1002F00001002E0001000000E600000001002300C4
:100300001C000B0011000000416D240018000D00BE
:1003100010005000446525000C000E00360051000E
:100320002C00260012000F00370052002A00270080
:100330001300330038004F0045662D00306F3461E4
:100340000130033000000000000000000000000049
:1003500000010204060A0F17202C3A4A5D71879D9E
:10036000B3C7DAE9F5FCFFFCF5E9DAC7B39D87719D
:100370005D4A3A2C20170F0A060402010000000013
:1003800000000000000016034500720067006F00C7
:1003900044006F007800200045005A00000016035A
:1003A0004500720067006F0044006F007800200075
:1003B00045005A0000000403090409026D0004010D
:1003C00000A0FA0904000001030101000921110144
:1003D00000012240000705810308000A090401000A
:1003E0000103010200092111010001224D0007054E
:1003F000820308000A090402000103000000092129
:10040000110100012236000705830308000A0904D0
:10041000030001030000000921110100012239003D
:10042000070584032000011201100100000008EDFF
:10043000FE071301000102000105010906A10105E3
:100440000719E029E71500250195087501810205C6
:10045000081901290595057501910295017503910A
:10046000010507190029F71500250195F875018187
:1004700002C005010980A101850216810026B7008E
:100480001A81002AB700751095018100C0050C097A
:1004900001A1018503160100269C021A01002A9C75
:1004A00002751095018100C005010902A101090131
:1004B000A1000509190129051500250195057501FA
:1004C000810295017503810105010930093115810A
:1004D000257F95027508810609381581257F9501CC
:1004E00075088106050C0A38021581257F9501756E
:1004F000088106C0C005010906A101050719E02908
:10050000E71500250195087501810295017508819F
:1005100001050819012905950575019102950175D7
:100520000391010507190029FF150026FF00950614
:1005300075088100C00011241FBECFEFDAE0DEBFD6
:10054000CDBF04B603FE24C0809123029091240203
:10055000A0912502B09126028730904BA740B04B66
:10056000B9F41092230210922402109225021092E4
:10057000260214BE84B7877F84BF88E10FB6F89443
:1005800080936000109260000FBEE0E0FFE30995E9
:1005900011E0A0E0B1E0E4EEF7E402C005900D92B6
:1005A000A433B107D9F712E0A4E3B1E001C01D9272
:1005B000A332B107E1F70E943A1D0C94F0230C948A
:1005C00000001092B9008AE08093B800089594EA80
:1005D0009093BC009091BC0097FFFCCF9091B90024
:1005E000987F983021F0903111F081E00895809348
:1005F000BB0084E88093BC008091BC0087FFFCCFE7
:100600008091B900887F883111F0803471F780E0E3
:10061000089584E98093BC008091BC0084FDFCCFE8
:1006200008958093BB0084E88093BC008091BC0057
:1006300087FFFCCF9091B900987F81E0983209F450
:1006400080E0089584E88093BC008091BC0087FF1F
:10065000FCCF8091BB00089580B38C7080BB81B3C8
:10066000836F81BB089580910101811115C080E4E1
:100670000E94E7028093010181110CC082E10E9477
:10068000110380930101811105C08FEF0E941103B6
:10069000809301010E94090384B1807F84B985B1F0
:1006A000807F85B98AB1837F8AB98BB1837F8BB90B
:1006B0003E98469808950C9419050E942E0980933F
:1006C00001010E9433030E942C03E3E4F1E0A5E35F
:1006D000B1E011921D9281E0E135F807D1F70C9459
:1006E00018090E942E09809301010E9433030E9481
:1006F0002C03E3E4F1E0A5E3B1E011921D9281E067
:10070000E135F807D1F708958F929F92BF92CF926B
:10071000DF92EF92FF920F931F93CF93DF931F927D
:10072000CDB7DEB780910101882379F08091340143
:100730008F5F80933401811108C00E942E0980933D
:100740000101811102C00E94C00805E311E0812C63
:10075000912CEE24E394F12CDD24D39495E0C92E62
:10076000282D273030F580910101811142C080E4AD
:1007700089820E94E702809301012981811114C0BE
:1007800082E10E94110380930101298181110CC033
:10079000C701082C01C0880F0A94EAF780950E94CF
:1007A000110380930101298129830E940903298172
:1007B00020C02A30A1F028F4283059F0293061F007
:1007C00005C02C3089F070F02D3089F0209A2898DF
:1007D00010C0219A29980DC0229A2A980AC0239AFB
:1007E0002B9807C0529A01C0539A5B9802C03E9A58
:1007F000469830EA3A95F1F7273018F580910101D3
:10080000811144C080E40E94E702809301018823A3
:1008100011F0B12C12C083E10E94110380930101F9
:100820008111F7CF81E40E94E702809301018111D9
:10083000F0CF0E942203B82EB0940E9409038B2DA2
:1008400026C08FB181708D25799B02C090E001C0D8
:1008500092E0892B7C9B02C090E001C094E0892B40
:100860007D9B02C090E001C098E0892B7E9B02C076
:1008700090E001C090E1892B9FB19095991F992735
:10088000991F9295990F907E892B01C080E0F80105
:100890009081981719F08083C09200010E94330361
:1008A000FFEF8F1A9F0A0F5F1F4F3EE083169104E0
:1008B00009F056CF809100018823A1F081508093E8
:1008C0000001882329F085E08A95F1F700000AC02D
:1008D000A3E4B1E0E5E3F1E081918D9331E0E3340D
:1008E000F307D1F70E94500681E00F90DF91CF917E
:1008F0001F910F91FF90EF90DF90CF90BF909F904E
:100900008F900895E82FF0E0ED5BFE4F8081089511
:100910000895FC01623009F445C028F4662351F0C3
:10092000613041F182C0633009F45BC0643009F486
:1009300072C07BC08281882341F00E943016909360
:1009400052018093510185EE6AC085EE0E94000C31
:1009500080915101909152010E943C168F35910572
:1009600008F063C086EE0E942D0B84E30E942D0BDD
:1009700084E34DC082818111E0CF85EE0E94000C9E
:1009800080915101909152010E943C168F35910542
:1009900008F04BC086EE0E942D0B81E30E942D0BC8
:1009A00081E335C08281882341F00E943016909304
:1009B00052018093510182EE32C082EE0E94000CFF
:1009C00080915101909152010E943C168F35910502
:1009D00060F586EE0E942D0B8FE20E942D0B8FE2B8
:1009E00016C082818111E1CF82EE0E94000C8091BD
:1009F0005101909152010E943C168F359105A8F447
:100A000086EE0E942D0B80E30E942D0B80E30E9456
:100A1000000C86EE08C08281882321F089E30E94C1
:100A20002D0B03C089E30E94000C80E090E0089544
:100A300008956091B2017091B3018091B4019091D9
:100A4000B5010E94591556985E9825982D982698BC
:100A50002E9827982F98813029F0823029F4269AF1
:100A60002E9A02C0279A2F9A0E94050A81FF02C07F
:100A7000259A2D9A089581E0089581E008950C94B7
:100A80003D050E94B90E2FEF84E39CE02150804089
:100A90009040E1F700C000000C948A160F931F935A
:100AA000CF93DF938C01FC01C081D181CE010E94E4
:100AB000E013BE010E94E507EC01B8010E943F056A
:100AC000882309F4E7C0B801CE010E947408882386
:100AD00009F4E0C0B801CE010E94E909882309F4B5
:100AE000D9C0C531F0E7DF0708F0A2C0C23080E707
:100AF000D80708F478C0F8018281882309F47FC000
:100B00000E94C615811102C00E94AC150E94D91521
:100B100090E09093150280931402FE01E350F04799
:100B2000E231F10520F4EA5AFF4F0C94A0238091A2
:100B30001402816003C080911402826080931402C9
:100B40004BC0809114028460F9CF8091140213C0CD
:100B5000809114028061F2CF809114028062EECF06
:100B6000809114028064EACF809114028068E6CFFD
:100B70008091140284608860E1CF809114028E7F9E
:100B8000DDCF809114028D7FD9CF809114028B7FAD
:100B9000D5CF8091140213C0809114028F7ECECFE6
:100BA000809114028F7DCACF809114028F7BC6CFB3
:100BB000809114028F77C2CF809114028B7F877F40
:100BC000BDCF9091140297FB882780F921E08227FE
:100BD00080FB97F990931402809114020E94DD1516
:100BE0000E94B90E57C0C115E0E7DE0779F0C130A9
:100BF000D047A1F081E08093530180935401C80154
:100C0000DF91CF911F910F910C943B05F8018281E8
:100C1000882309F43FC00E9441053CC0F80182814D
:100C20008823C1F18091DF0181608093DF0132C0B0
:100C3000CC3380E7D807A1F4F8018281882321F022
:100C40001092530182E016C080915301811106C0B9
:100C500086E20E942D0B86E20E94000C82E018C002
:100C6000CD33D04739F6F8018281882331F01092D4
:100C7000540180E20E944F0C0DC0809154018111FB
:100C800006C087E20E942D0B87E20E94000C80E2E2
:100C90000E94560C80E0DF91CF911F910F91089533
:100CA0000C945B0308950C9452060C94530626E0B2
:100CB000729FF001112444E5849FE00DF11D112481
:100CC000E60FF11DEE0FFF1FE25BFE4F8591949141
:100CD0000E94F707811520E49207B0F5811540E3E3
:100CE000940708F0E5C0803E9105D8F4803C91055A
:100CF00008F06BC0883A910578F4853A910508F0C0
:100D00006AC08130910509F45EC108F415C18430D0
:100D1000910508F058C110C18D3B910508F466C0DB
:100D20000BC18F3F910509F048F4803F910508F011
:100D3000B4C0883E910508F446C1FEC0811520E28A
:100D4000920708F0ACC00895811543E5940790F42C
:100D5000811522E5920708F0CFC0811541E594077F
:100D600008F0C5C0811520E5920708F0A4C09F7067
:100D7000906A0895811545E59407D0F4811524E51E
:100D8000920708F0CEC0282F2695269540E2249F92
:100D900090011124AC014370552781E090E002C01E
:100DA000880F991F4A95E2F7822B932B9A68089532
:100DB000811546E5940708F4B9C09C013056211509
:100DC000304108F0B9C09F70B5C0FC01EE0FFF1FA5
:100DD000E653F0406AC0853A910509F4B0C0863AFE
:100DE000910509F4AFC083E890E40895883A91052D
:100DF00009F4ABC0893A910509F4AAC08A3A910571
:100E000009F4A9C08B3A910509F4A8C08C3A910560
:100E100009F4A7C08B3B910509F4A6C08C3B910552
:100E200009F4A5C08D3A910509F4A4C0803B910551
:100E300009F4A3C08E3A910509F4A2C08F3A910536
:100E400009F4A1C0813B910509F4A0C0823B910542
:100E500009F49FC0833B910509F49EC0843B910532
:100E600009F49DC0853B910509F49CC0863B910522
:100E700009F49BC0873B910509F49AC0883B910512
:100E800009F499C0893B910509F498C08A3B910502
:100E900009F097C08AE296E40895906508959F70DE
:100EA000880F991F865B9E4FFC0185919491089550
:100EB0009927906C0895482F437021E030E002C0DC
:100EC000220F331F4A95E2F73C68AC0164E0569567
:100ED00047956A95E1F74370342B8F708695869518
:100EE00040E2849FC0011124822B932B0895982FF8
:100EF0008827816F906A0895282F2695269540E2CD
:100F0000249F90011124AC014370552781E090E0AB
:100F100002C0880F991F4A95E2F7822B932B9C6899
:100F20000895982F8827846F906A08958F71992764
:100F3000982F88279062089580E090E0089581E8D6
:100F400090E4089582E890E4089582EE94E4089590
:100F500089EE94E408958AEE94E4089585EB94E490
:100F6000089586EB94E4089583EB94E4089584EB6C
:100F700094E4089587EB94E408958CEC94E4089548
:100F80008DEC94E4089583E895E408958AE895E467
:100F9000089582E995E4089584E995E4089581E24D
:100FA00096E4089583E296E4089584E296E4089531
:100FB00085E296E4089586E296E4089587E296E451
:100FC000089580E094E40895089596E0799FF001F3
:100FD000112494E5899FE00DF11D1124E60FF11D08
:100FE000EE0FFF1FE25BFE4F8591949108958238CA
:100FF000910549F1B0F48133910509F459C048F4E1
:101000008932910509F44FC08A32910509F455C01F
:1010100008958533910509F441C08933910599F00C
:101020000895833E910531F138F4803E910591F0A9
:10103000823E9105A9F00895863E910501F1873E13
:10104000910539F108952091140220FD3BC021FD46
:1010500039C008958091140280FF34C089E341C0F3
:101060008091140282FF32C08091140284FF2CC050
:1010700080E037C08091140282FD28C0F5CF8091B6
:10108000140283FF25C08091140284FDF1CF87EE06
:1010900028C08091140283FD1BC0F5CF80911402FB
:1010A00085FF18C019C08091140285FF15C012C0B9
:1010B0008091140286FF12C013C08091140286FF33
:1010C0000FC00CC080EE0DC083EE0BC082EE09C0D5
:1010D00086EE07C085E305C089E203C081E301C055
:1010E0008AE290E008950895CF93DF93EC01FB012D
:1010F0008281811102C081E040C080916201811132
:1011000025C0C531D047B9F70E94730881E08093AC
:1011100062010E94301690936101809360011092E9
:1011200055011092570110925601109259011092D8
:10113000580110925B0110925A0110925D011092B9
:101140005C0110925F0110925E0116C080916001F7
:10115000909161010E943C16883C910560F6809157
:101160005501E82FF0E0EE0FFF1FEA5AFE4FD18342
:10117000C0838F5F8093550180E0DF91CF91089508
:1011800056985E9825982D9826982E9827982F98EF
:101190008FEF90E0909389008093880090938B006C
:1011A00080938A0090938D0080938C00259A2D9ACD
:1011B0002FEF80E792E0215080409040E1F700C09F
:1011C0000000269A2E9A2FEF80E792E0215080406F
:1011D0009040E1F700C00000279A2F9A2FEF80E798
:1011E00092E0215080409040E1F700C00000259837
:1011F0002D982FEF80E792E0215080409040E1F75A
:1012000000C0000026982E982FEF80E792E0215032
:1012100080409040E1F700C0000027982F98569832
:101220005E9825982D9826982E9827982F9808959F
:1012300089EA8093800089E08093810024982C982B
:101240003F988AB18F748AB96E98479A8BB1806B38
:101250008BB9769A0E94C0080C94180580E280939E
:1012600001018091630181110EC00E94E10281E0C1
:10127000809363012FEF83ED90E3215080409040F5
:10128000E1F700C0000080E40E94E70280930101C2
:1012900081112EC00E94110380930101811128C089
:1012A0000E94110380930101811122C08FE30E94EB
:1012B00011038093010181111BC00E94090380E486
:1012C0000E94E70280930101811112C08CE00E940C
:1012D00011038093010181110BC00E9411038093BF
:1012E0000101811105C08FE30E9411038093010168
:1012F0000E940903809101010895282F882339F065
:1013000090E02A3010F44D9608950697089587E2EC
:1013100090E0089580916401813079F050F082303E
:10132000F1F482EE0E942D0B87E50E942D0B87E5DC
:1013300014C082EE0E942D0B12C080EE0E942D0B75
:1013400081EE0E942D0B88E10E942D0B88E10E9406
:10135000000C81EE0E94000C80EE0E94000C8FE3D6
:101360009CE90197F1F700C00000089580916401A5
:10137000813029F010F0823041F482EE04C08CE21A
:101380000E942D0B8CE20C94000C0895FF920F9399
:101390001F93CF93DF938C01CCE0D0E0C8010C2EDB
:1013A00002C0969587950A94E2F78F700E947D0996
:1013B000F82E0E942D0B8F2D0E94000C2497CC3FFD
:1013C0008FEFD80759F7DF91CF911F910F91FF90C1
:1013D0000895CF93DF93EC01C13080E8D80760F027
:1013E000FB018281882341F00E948A09CE019F7708
:1013F0000E94C6090E94B60981E0DF91CF9108954D
:1014000090936A01809369010895E0916901F091D8
:101410006A01309721F00190F081E02D099480E07D
:101420000895E0916901F0916A01309721F00280FE
:10143000F381E02D09940895E0916901F0916A012A
:10144000309721F00480F581E02D099408952091D2
:101450006701309168018217930771F090936801DA
:1014600080936701E0916901F0916A01309721F062
:101470000680F781E02D099408952091650130914F
:1014800066018217930771F090936601809365015E
:10149000E0916901F0916A01309721F00084F185B3
:1014A000E02D0994089508950C94530A0E9427167C
:1014B0000E945D030C94AD16CF92DF92EF92FF92E3
:1014C0000F931F93CF93DF93CDB7DEB72B970FB654
:1014D000F894DEBF0FBECDBF0E9484033CE6E32E2E
:1014E00031E0F32E00E010E0C02E802F0E94820435
:1014F000F701D1907F01D826B1F40F5F1F4F0E3056
:10150000110591F78FEF89838A831B820E94301621
:101510008160782F9D838C8349815A816B818D8175
:101520000E94FF0A41C09091DF0191FF04C08B87A8
:101530000E9488048B8520E030E04D2D50E0922FF2
:10154000BA01022E02C0759567950A94E2F760FF12
:1015500025C02E83CF82EE24E394F12C02C0EE0C42
:10156000FF1C9A95E2F790E08E219F2121E0892BC4
:1015700009F420E028870E9430168160782F9A872E
:1015800089874E815F8168858A850E94FF0AF801FC
:10159000E459FE4F80818E25808306C02F5F3F4F28
:1015A0002630310561F6A9CF0E943F1810916B01DA
:1015B0000E94050A1817A1F00E94050A80936B018A
:1015C0002B960FB6F894DEBF0FBECDBFDF91CF9143
:1015D0001F910F91FF90EF90DF90CF900C945506E4
:1015E0002B960FB6F894DEBF0FBECDBFDF91CF9123
:1015F0001F910F91FF90EF90DF90CF900895CF93C0
:10160000DF93CDB7DEB72B970FB6F894DEBF0FBED2
:10161000CDBF4F83588769877A878B87DE01119604
:1016200086E0FD0111928A95E9F785E0FE01379683
:1016300001900D928A95E1F749815A816B817C81F5
:101640008D819E810E9483112B960FB6F894DEBF88
:101650000FBECDBFDF91CF910895CF93C82F8823C0
:1016600009F4CCC0823859F40E94050A81FDC6C035
:1016700089E30E9460140E942A1589E30CC0833814
:1016800079F40E94050A80FDB9C083E50E946014C8
:101690000E942A1583E50E94A014CF910C942A156C
:1016A000843859F40E94050A82FDA8C087E40E948C
:1016B00060140E942A1587E4EECF8CEF8C0F813ADC
:1016C00048F48C2F0E947F1A811198C08C2F0E94A1
:1016D0006014E3CF80E28C0F883048F4C77081E05B
:1016E00001C0880FCA95EAF70E94E114D6CF8BE5B6
:1016F0008C0F833078F4C53A29F0C63A31F482E889
:1017000090E005C081E890E002C083E890E0CF91CE
:101710000C94270A88E58C0F853108F06FC0C83A11
:1017200061F1C93A69F1CA3A71F1CB3A79F1CC3A2F
:1017300081F1CB3B89F1CC3B91F1CD3A99F1C03BA2
:10174000A1F1CE3AA9F1CF3AB1F1C13BB9F1C23B17
:10175000C1F1C33BC9F1C43BD1F1C53BD9F1C63B93
:10176000E1F1C73BE9F1C83BF1F1C93BF9F1CA3BF3
:1017700009F03FC08AE292E03EC082EE90E03BC0BA
:1017800089EE90E038C08AEE90E035C085EB90E0BD
:1017900032C086EB90E02FC083EB90E02CC084EB4E
:1017A00090E029C087EB90E026C08CEC90E023C04D
:1017B0008DEC90E020C083E891E01DC08AE891E0C4
:1017C0001AC082E991E017C084E991E014C081E277
:1017D00092E011C083E292E00EC084E292E00BC07E
:1017E00085E292E008C086E292E005C087E292E0DE
:1017F00002C080E090E0CF910C943D0ACF91089513
:10180000882309F44BC0823859F40E94050A81FFED
:1018100045C089E30E9460140E942A1589E30CC028
:10182000833871F40E94050A80FF38C083E50E9466
:1018300060140E942A1583E50E94A0140C942A15B6
:10184000843859F40E94050A82FF28C087E40E9468
:1018500060140E942A1587E4EFCF9CEF980F913A0D
:1018600058F390E2980F983050F4877091E001C0DF
:10187000990F8A95EAF7892F0E94E714DFCF9BE53D
:10188000980F933020F480E090E00C94270A885A57
:10189000853120F480E090E00C943D0A089588237F
:1018A00021F00E94E1140C942A150895882321F058
:1018B0000E94E7140C942A1508958F929F92AF927C
:1018C000BF92CF92DF92EF92FF920F931F93CF932D
:1018D000DF931F92CDB7DEB74C01A62E472FFC0138
:1018E000E580E2948FE0E822F280FF2021F0798306
:1018F0000E94FE14498149830E945914498188231A
:1019000081F0FF2071F080E28A0D883050F082E093
:101910000E9442140E945914BB24B394B8264981F2
:1019200001C0B12CE42FE295EF70F0E0E859FF4FD1
:101930000C94A023842F807F142F1F70882311F014
:101940001295107FFF2089F0112309F48DC180E2E8
:101950008A0D883020F4812F0E94E11403C0812F6A
:101960000E94F1140E942A157FC18A2D0E94000C4A
:10197000112309F490C180E28A0D883020F4812F70
:101980000E94E71403C0812F0E94F7140E942A15B9
:1019900082C1242F207F842F8F70203211F08295F6
:1019A000807FAA2021F0F1E0AF16B9F020C0FF201F
:1019B00049F0EE2009F40FC191E0E9120CC10E9438
:1019C000111569C1EE2021F0E1E0EE1609F463C1C2
:1019D00089830E941415898104C1FF2029F0F1E058
:1019E000FE1508F458C1F7C0E11055C1FAC0FF2038
:1019F00021F0EE2009F4EFC037C1EE2009F4F1C068
:101A000039C1242F26952695237030E02115310504
:101A100021F02130310561F03EC1FF2021F08A2DF7
:101A2000942F937002C080E090E00E94270A33C197
:101A3000FF2021F08A2D942F937002C080E090E067
:101A40000E943D0A28C18A2DFF2019F00E944717E5
:101A500002C00E94AF170E9434181DC1842F8370EA
:101A600009F04EC0F11017C12A2D22952695277036
:101A7000220F220F8A2D8F70C82ED12CE12CF12C31
:101A8000022E04C0CC0CDD1CEE1CFF1C0A94D2F705
:101A9000A4FE10C06FE070E080E090E004C0660F2C
:101AA000771F881F991F2A95D2F7609570958095AA
:101AB000909503C060E070E0CB01242F2695269519
:101AC000237030E02230310569F02330310589F090
:101AD0006C297D298E299F292130310571F00E94C2
:101AE000D712D9C06C297D298E299F290E94F11215
:101AF000D2C00E94D712C701B6010E94BD12CBC04E
:101B0000FF2019F0842F817001C08695882309F485
:101B1000C2C02A2D229526952770220F220F8A2DCA
:101B20008F70C82ED12CE12CF12C022E04C0CC0CCD
:101B3000DD1CEE1CFF1C0A94D2F7A4FE10C06FE05F
:101B400070E080E090E004C0660F771F881F991F47
:101B50002A95D2F7609570958095909503C060E0C6
:101B600070E0CB01242F26952695237030E022309B
:101B7000310569F02330310589F06C297D298E29E2
:101B80009F292130310571F00E94AB1384C06C296C
:101B90007D298E299F290E94C5137DC00E94AB1309
:101BA000C701B6010E94911376C00A2D10E0F8011A
:101BB000E05EF109E531F10508F052C0E858FF4F49
:101BC0000C94A0231A2D1F70842F8F71FF2031F0E9
:101BD0000E942A13812F0E944F0C5DC00E944B135C
:101BE000812F0E94560C57C0FF2039F0E11053C0DE
:101BF000842F8F710E9470134EC081E08E1508F4FF
:101C00004AC0F6CFFF2039F0842F8F710E942A132B
:101C100042C0FF20C9F3842F8F710E944B133BC039
:101C2000FF2029F0842F8F710E94151334C00E9469
:101C30000B1331C0FF2051F0142F1F71812F0E9410
:101C40002A1363E0812F0E94391425C081E00E948D
:101C5000421491E09E15F8F482E00E9442141BC0E9
:101C6000FF2031F0EE2081F28A2D0E942D0B13C04F
:101C7000EE2089F28A2D0E94000C0DC04F706A2D53
:101C8000C4010E9489040E94301205C04F706A2D61
:101C9000C4010E94E407BB20F1F00E94351480FDCE
:101CA0001AC0F40112820E942F140E942A13C40148
:101CB0000E94790E0E942F140F90DF91CF911F91F7
:101CC0000F91FF90EF90DF90CF90BF90AF909F90DB
:101CD0008F900C944B130F90DF91CF911F910F9128
:101CE000FF90EF90DF90CF90BF90AF909F908F903C
:101CF00008950F931F93CF93DF93EC0128813981CF
:101D00008B819C81892B31F03F3F11F080E003C033
:101D10002F3FE1F781E0811113C0CE010E944E05F3
:101D2000882371F0688179818A810E942B148C014B
:101D30000E94DF130E94B212B801CE010E945D0C16
:101D4000DF91CF911F910F9108950E94FE140E9480
:101D50000E150E94D3140E942A150E94E0180E94BA
:101D6000341880E090E00E94270A80E090E00C9414
:101D70003D0A0E94EE140C94A50E0E942014E92F37
:101D8000E295EF70F0E03297EE30F105B8F4E357EA
:101D9000FF4F0C94A023803F59F018F4803E70F45C
:101DA00007C0843F59F404C0803E10F0813F31F4F5
:101DB00081E0089593FB882780F9089580E00895D5
:101DC000CF93DF9300D000D01F92CDB7DEB70F9036
:101DD0000F900F900F900F90DF91CF910895CF93B8
:101DE000DF9300D000D000D0CDB7DEB726960FB677
:101DF000F894DEBF0FBECDBFDF91CF9108951F9342
:101E0000CF93DF93C0917A0116E080917B01C817D0
:101E100099F0D0E01C9FF0011D9FF00D1124E458B3
:101E2000FE4F4081518162817381848195810E943E
:101E3000EF0E2196C770E9CFDF91CF911F910895E2
:101E40004091AC015091AD016091AE017091AF0134
:101E50008091B0019091B1010C94EF0ECF938091DD
:101E6000B10182958F7009F05FC08091AE01882327
:101E700009F45AC020917A01A0917B016091AC01D4
:101E80007091AD018091AF019091B00131E06F3F51
:101E900009F030E0B32FC6E02A1709F445C00097D7
:101EA00021F07F3F21F44B2F03C041E001C040E00F
:101EB00030E040FD35C0C29FF001C39FF00D1124FA
:101EC000E458FE4F418174132BC04081641328C035
:101ED0004281411125C0438154814817590710F4AC
:101EE00041505109481B590B483C5105C8F4809199
:101EF000B1018F7080618093B10186E0829FF00113
:101F0000839FF00D1124EF57FE4F80818F70806109
:101F100080838CEA91E00E94790ECF910C94FF0EA1
:101F20002F5F3F4F2770B8CFCF910895CF92DF92A8
:101F3000EF92FF920F931F93CF93DF93CDB7DEB74E
:101F400062970FB6F894DEBF0FBECDBF8C0185E05F
:101F5000F801DE011D9601900D928A95E1F7D801F6
:101F60004C9111965C91119712966C911297139661
:101F7000ED90FC9014977091AC01E091AD0120912F
:101F8000AF013091B0012115310531F0EF3F31F44F
:101F900081E07F3F19F403C081E001C080E0B82FE9
:101FA000B170CB2E80FD6CC1D090AE01DD2009F464
:101FB000F5C0F091B101E216F30638F0C701821BBB
:101FC000930B883C910548F09BC0209530952E0DD1
:101FD0003F1D283C310508F093C08F2F807F09F00A
:101FE00052C0E51314C0741312C0D62E61110FC075
:101FF000FF70F061F093B1010E94200F8CEA91E034
:102000000E94790E8091B101F80185836CC1EF289F
:1020100031F05F3F31F481E04F3F19F403C081E0BC
:1020200001C080E080FD03C081E0862701C080E020
:10203000F82FF170FF2E80FF1CC080917A01209153
:102040007B0136E0821709F428C190E0389FF00147
:10205000399FF00D1124E458FE4F7181571306C0CB
:102060007081471303C07281671303C001968770A4
:10207000E9CFD62E662309F436C18091B101816083
:102080008093B10153C0E51308C0741306C06111F9
:1020900004C0D8011596FC93AEC04D875E878D8530
:1020A0009E856A8B0E94BD0E6A89882329F1D62EEF
:1020B000662311F12091B101822F82958F7090E0FB
:1020C00002970CF460C08091AC019091AD019887AB
:1020D0008F831986FB86EA862C87CE01079651C02E
:1020E000E51731F14D875E878D859E856A8B0E944D
:1020F000BD0E6A8981112EC0C8010E94790EA4C04C
:102100008F2F807F69F77E2DF98AE88A89890E945E
:10211000E00E8CEA91E00E94790EECEAF1E086E0B4
:10212000DF011D928A95E9F70E94200FD12CDBC0B8
:102130007413D8CF6111D6CFD8011596FC93C8017E
:102140000E94790EECEAF1E086E0DF011D928A95AB
:10215000E9F7C9C0D62E662379F22091B101822F0A
:1021600082958F7090E0029774F08091AC0190910D
:10217000AD019A8389831B82FD82EC822E83CE017E
:1021800001960E94790E86E0F801ACEAB1E0019078
:102190000D928A95E1F70E942E0F6FC0E216F306AA
:1021A00028F0C701821B930B9C0104C02095309539
:1021B0002E0D3F1D283C310508F052C0D62E662357
:1021C00009F49ACFE5132CC074132AC08091B10191
:1021D00080FD1DC0982F92959F70C9F0D80115966B
:1021E0008C9315979F3039F09F5F9295907F8F70F9
:1021F000892B15968C93C8010E94790E86E0F80110
:10220000ACEAB1E001900D928A95E1F736C086E024
:10221000F801ACEAB1E001900D928A95E1F763C054
:102220004D875E878D859E850E94BD0E882379F03F
:1022300086E0F801ACEAB1E001900D928A95E1F7F1
:102240000E942E0F0E94200FDD24D3944CC0809159
:10225000B10181608093B101C8010E94790E43C031
:102260007E2DF98AE88A89890E94E00EECEAF1E085
:1022700086E0DF011D928A95E9F70E94200F33C0A6
:10228000662309F439CF4D875E878D859E850E9430
:10229000BD0E882309F430CFCBCF4D875E878D8567
:1022A0009E850E942014292F22952F7030E0223025
:1022B00031052CF49F7041F0811106C00CC0243010
:1022C00031052CF49F7049F4805E883020F0C801FD
:1022D0000E94790ECF2CDC2C06C0D80115969C915B
:1022E000907F91F7F8CF8D2D62960FB6F894DEBFF0
:1022F0000FBECDBFDF91CF911F910F91FF90EF9057
:10230000DF90CF9008951F93CF93DF93CDB7DEB7C3
:102310002C970FB6F894DEBF0FBECDBF4F83588702
:1023200069877A878B879C87CE0107960E94960FD4
:102330008823C1F02F8138858A859B85892B31F0D0
:102340003F3F11F080E003C02F3FE1F781E08111B2
:1023500047C04F81588569857A858B859C850E9409
:10236000EF0E3EC086E0FE013796DE011196019029
:102370000D928A95E1F7FF81E8854A855B854115D5
:10238000510531F0EF3F31F481E0FF3F19F403C014
:1023900081E001C080E080FD23C020917B0130E01E
:1023A000C90101968770992760917A0170E08617BC
:1023B0009707F1F1F983EA835D834C8396E0929F5E
:1023C000D001939FB00D1124A458BE4FFE01319649
:1023D00001900D929A95E1F780937B010E94FF0E88
:1023E00016E080917A0190917B01891779F1189F0D
:1023F000C001112484589E4F0E94960F882331F10A
:10240000E0917A011E9FF0011124E458FE4F4081B3
:10241000518162817381848195810E94EF0E809148
:102420007A0190E001968770992780937A01D9CF3D
:102430000E94B90E10927B0110927A01ECEAF1E051
:1024400086E0DF011D928A95E9F7CACF2C960FB678
:10245000F894DEBF0FBECDBFDF91CF911F910895DD
:10246000EF92FF920F931F93CF93DF939C010097FE
:1024700009F471C0F12CEE24E394E9012196F901ED
:102480008491843740F4843008F056C0813081F064
:10249000823021F160C0853709F449C0C0F19CE762
:1024A000980F903708F057C08F770E94000C46C0F5
:1024B00089010E5F1F4FFE01849190E2980F9830C2
:1024C00050F48770FE2D01C0FF0F8A95EAF78F2F19
:1024D0000E94011515C00E942D0B14C089010E5FCA
:1024E0001F4FFE01849190E2980F983068F4877036
:1024F000FE2D01C0FF0F8A95EAF78F2F0E94071566
:102500000E942A15E8011AC00E94000CFBCF2E5F22
:102510003F4FFE01C491CC2341F08FE99FE001972A
:10252000F1F700C00000C150F6CFE90107C0FE017D
:10253000F490E901229602C00E942D0B8F2D882372
:1025400041F0EFE9FFE03197F1F700C00000815062
:10255000F6CF9E0192CFDF91CF911F910F91FF9007
:10256000EF90089508956093B6017093B70180933A
:10257000B8019093B9010C94A50E0F931F9300918D
:10258000B6011091B7012091B8013091B901062B25
:10259000172B282B392B0093B6011093B7012093EA
:1025A000B8013093B9011F910F910C94A50E0F93B0
:1025B0001F930091B6011091B7012091B80130919D
:1025C000B90106231723282339230093B60110935A
:1025D000B7012093B8013093B9011F910F910C946A
:1025E000A50E0F931F930091B6011091B701209192
:1025F000B8013091B90106271727282739270093FA
:10260000B6011093B7012093B8013093B9011F911F
:102610000F910C94A50E1092B2011092B30110927A
:10262000B4011092B5010C94A50E41E050E060E0B9
:1026300070E004C0440F551F661F771F8A95D2F7BC
:102640004093B2015093B3016093B4017093B5010C
:102650000C94A50E41E050E060E070E004C0440F2F
:10266000551F661F771F8A95D2F78091B20190910E
:10267000B301A091B401B091B501842B952BA62B89
:10268000B72B8093B2019093B301A093B401B093A0
:10269000B5010C94A50E41E050E060E070E004C08C
:1026A000440F551F661F771F8A95D2F740955095A6
:1026B000609570958091B2019091B301A091B401A1
:1026C000B091B50184239523A623B7238093B2014B
:1026D0009093B301A093B401B093B5010C94A50EEF
:1026E00041E050E060E070E004C0440F551F661FF9
:1026F000771F8A95D2F78091B2019091B301A09192
:10270000B401B091B50184279527A627B7278093F8
:10271000B2019093B301A093B401B093B5010C94AE
:10272000A50E0F931F930091B2011091B301209158
:10273000B4013091B501062B172B282B392B0093B0
:10274000B2011093B3012093B4013093B5011F91EE
:102750000F910C94A50E0F931F930091B20110914D
:10276000B3012091B4013091B5010623172328232A
:1027700039230093B2011093B3012093B401309335
:10278000B5011F910F910C94A50E0F931F9300910B
:10279000B2011091B3012091B4013091B501062727
:1027A0001727282739270093B2011093B3012093EC
:1027B000B4013093B5011F910F910C94A50E0895AB
:1027C000CF92DF92EF92FF920F931F93CF93DF93FD
:1027D000EC01C090B601D090B701E090B801F09044
:1027E000B9018091B2019091B301A091B401B0916F
:1027F000B501C82AD92AEA2AFB2A0FE110E0B7015D
:10280000A601002E04C076956795579547950A94C2
:10281000D2F740FD05C00150110988F780E007C0DC
:10282000BE01802F0E9457060197A9F3802FDF91E8
:10283000CF911F910F91FF90EF90DF90CF9008956F
:10284000CF93DF93EC010E94E013BE010E94570674
:10285000DF91CF910895CB010E94201408958091BB
:10286000BA0185958595859508958091BA018770FF
:10287000089598E0899F90011124622B6093BA011A
:102880000C942A134091BA01809584238093BA0155
:10289000982F977069F450E0282F332727FD309543
:1028A0004217530729F08595859585950C944B1310
:1028B00008959091BA01977081E009F480E008953D
:1028C000909114019923D9F09091140297FF17C0A9
:1028D000982F9695969596959F3188F5E0910201EF
:1028E000F0910301E90FF11D877021E030E001C094
:1028F000220F8A95EAF78181822B81830895409186
:1029000002015091030120E030E09FEFFA01E20F55
:10291000F31F6281681799F09F3F19F4611101C09C
:10292000922F2F5F3F4F2E31310581F79F3F39F0B6
:10293000FA01E90FF11D97FDFA9582830895089534
:10294000909114019923E1F09091140297FF18C01F
:10295000982F9695969596959F3120F5E0910201D6
:10296000F0910301E90FF11D877021E030E001C013
:10297000220F8A95EAF720958181282321830895E3
:10298000409102015091030120E030E0FA01E20F92
:10299000F31F9281981301C012822F5F3F4F2E3197
:1029A0003105A1F7089581E090E0E0910201F091F6
:1029B0000301E80FF91F1082019680329105A9F7F3
:1029C00008959091DE01982B9093DE0108958095F3
:1029D0009091DE0198239093DE0108951092DE011C
:1029E00008959091DD01982B9093DD0108958095D5
:1029F0009091DD0198239093DD0108951092DD01FF
:102A000008959091DC01982B9093DC0108958095B6
:102A10009091DC0198239093DC0108951092DC01E1
:102A200008958093BB0108951092BB0108954091D1
:102A300002015091030120E030E080E0FA01E20F52
:102A4000F31F918191118F5F2F5F3F4F2F31310520
:102A5000A9F70895E0910201F09103018091DE0150
:102A60008083E0910201F091030180819091DD016A
:102A7000892B8083E0910201F09103018081909184
:102A8000DC01892B80839091BB01992361F0E09157
:102A90000201F09103018081892B80830E94171528
:102AA00081111092BB0180910201909103010C945D
:102AB000110ACF92DF92EF92FF920F931F936C0156
:102AC000EE24FF24C114D104E104F10421F46B01CC
:102AD0007C0180E001C080E133272F2D1E2D0D2DBC
:102AE000011511052105310519F0885F680179018B
:102AF00097018601A4E03695279517950795AA9525
:102B0000D1F7011511052105310519F08C5F680118
:102B1000790197018601F2E036952795179507957B
:102B2000FA95D1F7011511052105310519F08E5FD0
:102B300068017901B701A601769567955795479584
:102B4000452B462B472B09F08F5F1F910F91FF906C
:102B5000EF90DF90CF9008956DEE7EEF80E090E0F3
:102B60000E94DA2360E082E090E00E94C82360E0E7
:102B700083E090E00E94C82360E084E090E00E943F
:102B8000C82360E085E090E00C94C82380E090E0EA
:102B90000E94C22321E08D3E9E4F09F020E0822F4B
:102BA000089582E090E00C94BA2383E090E00C94C6
:102BB000BA2384E090E00C94BA23682F84E090E07C
:102BC0000C94C82380911A02843021F11092E00104
:102BD00020E488E190E00FB6F894A8958093600017
:102BE0000FBE2093600080E00E94550683B7817F6E
:102BF000846083BF83B7816083BF7894889583B7EF
:102C00008E7F83BF88E10FB6F894809360001092A6
:102C100060000FBE08950895CF930E9471030E9433
:102C200084030E940B16C0E08C2F0E948204811145
:102C300005C0CF5FCE30C1F780E001C081E0CF9109
:102C400008950E94B90E0E94050A0C94550682E070
:102C500084BD93E095BD9AEF97BD80936E00089573
:102C60002FB7F8948091E1019091E201A091E301E6
:102C7000B091E4012FBF0895CF92DF92EF92FF92BF
:102C80000F931F932FB7F8944091E1015091E20107
:102C90006091E3017091E4012FBF6A017B01EE2492
:102CA000FF248C0120E030E0C016D106E206F306D6
:102CB00010F441505109481B590BCA011F910F9143
:102CC000FF90EF90DF90CF9008951F920F920FB674
:102CD0000F9211248F939F93AF93BF938091E10143
:102CE0009091E201A091E301B091E4010196A11D50
:102CF000B11D8093E1019093E201A093E301B093B1
:102D0000E401BF91AF919F918F910F900FBE0F90F3
:102D10001F9018950E94751FF8942FEF87EA91E68F
:102D2000215080409040E1F700C0000087E090EB28
:102D3000DC018093230290932402A0932502B09398
:102D400026022CE088E190E00FB6F894A8958093D5
:102D500060000FBE20936000FFCF0E94C615811156
:102D600002C00E94AC150E94D1158093DF010E9421
:102D7000D91590E090931502809314020E94D51506
:102D8000682F70E080E090E00C94B3128091E7012E
:102D900080FF0BC06091070185E0689FB00111249E
:102DA00075956795759567952AC081FF09C06091F3
:102DB000070185E0689FB0011124759567951FC0D4
:102DC00082FF07C06091070185E0689FB001112470
:102DD00016C04091E8014423C9F0609106014617EE
:102DE00088F72091070185E0289F90011124429FD8
:102DF000C001439F900D112470E00E948C23603825
:102E0000710540F46115710539F002C065E070E0AC
:102E1000862F08958FE7089581E008958091E70156
:102E200080FF08C06091050170E075956795759504
:102E3000679521C081FF06C06091050170E075951E
:102E4000679519C082FF04C06091050170E010C051
:102E50008091E8018823C1F0609104018617A0F7F2
:102E600090910501989FC001112470E00E948C236D
:102E70006038710528F46115710521F0862F0895D9
:102E80008FE7089581E0089561E070E0F4CF803F1E
:102E900021F40E94C616819504C0813F29F40E9446
:102EA000C6168093EB010895823F21F40E94C61656
:102EB000819504C0833F29F40E94C6168093EA01DD
:102EC0000895893F19F40E940E1705C08A3F31F416
:102ED0000E940E1781958093EC0108958B3F21F499
:102EE0000E940E17819504C08C3F29F40E940E1792
:102EF0008093ED010895843F21F48091E901816080
:102F000017C0853F21F48091E901826011C0863F9E
:102F100021F48091E90184600BC0873F21F4809106
:102F2000E901886005C0883F31F48091E901806142
:102F30008093E90108958D3F21F48091E70181603C
:102F40000BC08E3F21F48091E701826005C08F3F66
:102F500029F48091E70184608093E7010895803F20
:102F600039F48091EB0187FF6CC01092EB0169C0CE
:102F7000813F29F48091EB011816BCF362C0909157
:102F8000EA01823F29F497FF5CC01092EA0159C020
:102F9000833F19F41916CCF354C0893F41F4809152
:102FA000EC0118160CF04DC01092EC014AC08A3F9B
:102FB00029F48091EC0187FF44C0F6CF8B3F39F4B0
:102FC0008091ED0187FF3DC01092ED013AC08C3F2A
:102FD00029F48091ED011816BCF333C0843F21F42D
:102FE0008091E9018E7F17C0853F21F48091E9012E
:102FF0008D7F11C0863F21F48091E9018B7F0BC04A
:10300000873F21F48091E901877F05C0883F31F433
:103010008091E9018F7E8093E90113C08D3F21F4F7
:103020008091E7018E7F0BC08E3F21F48091E701F4
:103030008D7F05C08F3F29F48091E7018B7F8093BE
:10304000E7018091EA0181110EC08091EB018111AD
:103050000AC08091EC01811106C08091ED018111BF
:1030600002C01092E801089589EE91E00E941C0AC6
:103070000E9430169093E6018093E50108951F9316
:10308000CF93DF938091E5019091E6010E943C1679
:103090004091E801442321F02091080130E006C06E
:1030A000209109015AE0259F90011124821793076E
:1030B00008F482C08091EA011091EB01D091EC01FB
:1030C000C091ED01811107C0111105C0D11103C0DC
:1030D000CC2309F471C04F3F19F04F5F4093E801D2
:1030E000181624F40E94C6168093EA018091EA0122
:1030F00087FF05C00E94C61681958093EA011116CC
:1031000024F40E94C6168093EB018091EB0187FFA7
:1031100005C00E94C61681958093EB016091EA017B
:10312000662339F11091EB01112319F1772767FD1F
:103130007095872F972F0E949D2223E333E343E36B
:103140005FE30E9401230E946A226093EA01612FDB
:10315000772767FD7095872F972F0E949D2223E385
:1031600033E343E35FE30E9401230E946A226093FA
:10317000EB011D1624F40E940E178093EC01809140
:10318000EC0187FF05C00E940E1781958093EC012A
:103190001C1624F40E940E178093ED018091ED011E
:1031A00087FF05C00E940E1781958093ED01DF9186
:1031B000CF911F910C943418DF91CF911F910895F6
:1031C000E9EEF1E085E0DF011D928A95E9F71092C2
:1031D000E8011092E7010895833081F128F48130ED
:1031E00059F08230D1F00895853009F449C0B8F122
:1031F000863009F456C0089520910901862F90E089
:10320000820F911D8F3F910520F4620F6093090199
:1032100008958FEF80930901089520910801862F6A
:1032200090E0820F911D8F3F910520F4620F609313
:10323000080108958FEF80930801089520910701F8
:10324000862F90E0820F911D8F3F910520F4620F31
:103250006093070108958FEF8093070108952091EF
:103260000601862F90E0820F911D8F3F910520F47B
:10327000620F6093060108958FEF80930601089511
:1032800020910501862F90E0820F911D8F3F9105BF
:1032900020F4620F6093050108958FEF809305017C
:1032A000089520910401862F90E0820F911D8F3F99
:1032B000910520F4620F6093040108958FEF8093CD
:1032C00004010895833011F128F4813049F08230EF
:1032D00091F00895853081F120F18630C1F1089593
:1032E00080910901681720F4861B809309010895D5
:1032F00010920901089580910801681720F4861B37
:1033000080930801089510920801089580910701A3
:10331000681720F4861B8093070108951092070117
:10332000089580910601681720F4861B809306019A
:10333000089510920601089580910501681720F400
:10334000861B8093050108951092050108958091D0
:103350000401681720F4861B8093040108951092DD
:10336000040108958D3109F43FC008F5803109F456
:1033700085C070F4873009F456C018F48630D9F14E
:1033800031C08B3009F4AAC08E3009F466C02AC05F
:10339000863109F4A3C020F4813109F479C022C038
:1033A000893109F49BC08B3109F44DC01BC08533B2
:1033B00009F48CC048F4873209F488C008F478C056
:1033C000893209F483C00EC0833438F48A3308F09C
:1033D0006DC0883309F482C005C0833409F476C017
:1033E000883499F080E008950E94341B0E94050AF9
:1033F0000E94550673C08091DF01817F8E7F80938C
:10340000DF0181E08093EF0108950E94B90E2FEF54
:1034100083ED90E3215080409040E1F700C0000030
:103420000E948A165BC09091DF01892F8095817080
:1034300080FB90F919F0966098601DC0997F977F86
:103440009093DF014BC09091DF0191FB882780F9B9
:1034500021E0822780FB91F909C09091DF0192FB66
:10346000882780F921E0822780FB92F99093DF0181
:103470008823A1F191609093DF0108959091DF017D
:1034800093FB882780F921E0822780FB93F9EECF18
:103490000E94B90E9091140297FB882780F921E0D1
:1034A000822780FB97F99093140218C027EC01C083
:1034B00023EE280F61E070E080E090E004C0660F2A
:1034C000771F881F991F2A95D2F704C061E070E02A
:1034D00080E090E00E94B3120E94B90E81E008954E
:1034E00080E0089580E008958E518A3030F4E82F0E
:1034F000F0E0EB5EFE4F8081089580E00895CF9369
:10350000C82F8091EF01813079F018F08230D1F12D
:1035100083C0E0910201F09103018081813169F063
:10352000823209F07BC009C0E0910201F0910301F1
:103530008081813111F0823249F48C2F0E94701AFF
:1035400081111DC08C2F0E94B2191AC08C2F0E94AD
:10355000721A811114C0C43179F048F4CB3079F07B
:10356000C03109F05FC082E08093EF0108C0C9322A
:1035700019F0C83321F056C01092EF0153C081E01A
:10358000817052C0C93281F110F5C43169F1A8F4DB
:10359000C73009F045C08AE08093090194E1909317
:1035A000080193E0909307018093060188E08093DF
:1035B000050188E28093040133C082EE8C0F8630CF
:1035C00078F58C2F0E94741A8093EE0129C0CE34B6
:1035D000E9F020F4CB3421F56AE013C0C13579F06D
:1035E000C235F1F461E00DC08091EE01882319F03D
:1035F0001092EE0115C081E08093EF0115C061E0EB
:1036000006C08091EE010E94EC180AC06AE0809129
:10361000EE010E94621904C01092EF0180E004C024
:1036200081E002C080E0ACCFCF910895E1E8F0E006
:103630008081886080838081816080838FB7F894E7
:1036400093E09093890090ED909388008FBF089548
:10365000EFE6F0E08081826080830895EFE6F0E09D
:1036600080818D7F80830895EFE6F0E0808192E095
:103670008927808308951F920F920FB60F9211240D
:103680002F933F934F935F936F937F938F939F936A
:10369000AF93BF93EF93FF938091F0019091F1016D
:1036A00001969093F1018093F001811103C082E0B3
:1036B0000E945506E091F101E695E695F0E0EA5B9F
:1036C000FC4FE4918091F0018E1303C080E00E94D2
:1036D0005506FF91EF91BF91AF919F918F917F918F
:1036E0006F915F914F913F912F910F900FBE0F906F
:1036F0001F901895809112020895CF93DF9300D008
:103700001F92CDB7DEB720911A02243019F523E0BD
:1037100029839B838A832093E9008FEF9091E800AF
:10372000815095FD06C095ED9A95F1F70000811145
:10373000F5CF8091E80085FF0DC040E050E063E0E8
:1037400070E0CE0101960E94E31D8091E8008E7723
:103750008093E8000F900F900F90DF91CF91089524
:10376000CF93DF9300D01F92CDB7DEB720911A021E
:10377000243021F522E029839B838A8383E0809390
:10378000E9008FEF9091E800815095FD06C095ED1E
:103790009A95F1F700008111F5CF8091E80085FF3F
:1037A0000DC040E050E063E070E0CE0101960E9461
:1037B000E31D8091E8008E778093E8000F900F90D2
:1037C0000F90DF91CF91089520911A022430F1F4E7
:1037D00022E02093E9002FEF3091E800215035FDE1
:1037E00006C035ED3A95F1F700002111F5CF209193
:1037F000E80025FF0BC040E050E065E070E00E946B
:10380000E31D8091E8008E778093E8000895CF93C0
:10381000DF93EC0180911A02843009F046C0909148
:1038200014019923D9F09091140297FF17C0809347
:10383000E9008FEF9091E800815095FD06C095E179
:103840009A95F1F700008111F5CF8091E80085FF8E
:103850002CC040E050E060E270E017C081E080934F
:10386000E9008FEF9091E800815095FD06C095ED3D
:103870009A95F1F700008111F5CF8091E80085FF5E
:1038800014C040E050E068E070E0CE010E94E31D0B
:103890008091E8008E778093E80080E2FE01A2EF3D
:1038A000B1E001900D928A95E1F7DF91CF910895F3
:1038B00080911902811109C00E94751F0E94D21FB8
:1038C0008091E20084608093E200089510921902D2
:1038D000089508950C94281B0E9421160E942E1B07
:1038E0000E94050A0C94550642E061EC81E00E94BA
:1038F000EF1E42E061EC82E00E94EF1E42E061ECCC
:1039000083E00E94EF1E42E261EC84E00C94EF1E23
:1039100080911C02833009F455C030F4813071F07D
:10392000823009F48EC008958A3009F47AC08B3051
:1039300009F460C0893009F09CC020C080911B024E
:10394000813A09F096C08091E800877F8093E80073
:1039500080911F0290912002892B21F060E080E08D
:1039600090E003C060E282EF91E070E00E942C1EC4
:103970008091E8008B778093E800089580911B0286
:10398000813209F076C080911F0290912002009749
:1039900019F0039709F06DC08091E800877F80934C
:1039A000E8008091E80082FD05C080911A02811133
:1039B000F8CF5FC08091F100809312028091E800FF
:1039C0008B7753C080911B02813A09F052C08091DD
:1039D0001F0290912002892B09F04BC08091E800D2
:1039E000877F8093E8008091E80080FFFCCF809182
:1039F000140136C080911B028132D9F580911F02DB
:103A000090912002892BA9F58091E800877F80930F
:103A1000E8000E94241F80911D02809314010C94E1
:103A2000B90E80911B02813221F58091E800877FD9
:103A30008093E8000E94241F80911E02809313024D
:103A4000089580911B02813AA1F48091E800877F5C
:103A50008093E8008091E80080FFFCCF8091130202
:103A60008093F1008091E8008E778093E8000C94B9
:103A7000241F089584B7877F84BF88E10FB6F89428
:103A800080936000109260000FBE80E88093610018
:103A9000109261000E94540A0E94751F0E94D21F5A
:103AA0008091E20084608093E20078940E944D222D
:103AB0000E94560A8AE091E00E94000A0E94161BAA
:103AC00080911A02853069F40E94E21580911802F3
:103AD0008823B1F30E940C16882391F30E94CD1D18
:103AE000EFCF0E945C0AECCF292F3327233031051A
:103AF000A9F06CF42130310509F442C022303105BF
:103B000009F043C08DE690E02AEB33E042C0213259
:103B10003105C9F02232310519F137C099278130BA
:103B2000910541F08230910541F0892B71F5E6EB6A
:103B3000F3E005C0EEE9F3E002C0E6E8F3E08491CB
:103B400090E09F0126C0643000F5E62FF0E0EE0F14
:103B5000FF1FE55DFE4F2081318189E090E019C0B3
:103B6000643098F4E62FF0E0DF01AA0FBB1FAD5DD3
:103B7000BE4F2D913C91E15EFE4F808190E009C0E7
:103B800082E190E027E234E004C080E090E020E0B1
:103B900030E0FA0131832083089580E189BD82E11C
:103BA00089BD09B400FEFDCF8091D8008F7D809340
:103BB000D8008091E00082608093E0008091E00076
:103BC00081FDFCCF0895CF92DF92EF92FF920F9389
:103BD0001F93CF93DF937C018B01EA010E94451F65
:103BE000811131C0209731F088819981081B190B10
:103BF000E80EF91EC12CD12C0115110519F1809187
:103C0000E80085FD14C08091E8008E778093E8007D
:103C1000209741F0888199818C0D9D1D998388831F
:103C200085E011C00E94451F882331F30CC0F701C5
:103C300081917F018093F10001501109FFEFCF1AAC
:103C4000DF0ADACF80E0DF91CF911F910F91FF90D3
:103C5000EF90DF90CF9008952091210230912202C1
:103C60002617370748F06115710539F42091E800EF
:103C70002E772093E80001C0B901FC0120E0611516
:103C80007105B9F180911A02882309F440C085308A
:103C900009F43FC08091E80083FD3DC08091E800B9
:103CA00082FF06C08091E80082FF26C080E0089570
:103CB0008091E80080FFE3CF2091F3008091F20033
:103CC00090E0922B6115710551F08830910538F420
:103CD00021912093F100615071090196F3CF21E009
:103CE000089709F020E08091E8008E778093E80043
:103CF000C6CF2111C7CFD6CF80911A02882339F0C1
:103D0000853039F08091E80083FFCCCF04C082E099
:103D1000089583E0089581E0089520912102309173
:103D200022022617370748F06115710539F42091F2
:103D3000E8002E772093E80001C0B901FC0120E0E3
:103D400061157105C1F180911A02882309F441C0FF
:103D5000853009F440C08091E80083FD3EC0809129
:103D6000E80082FF06C08091E80082FF27C080E063
:103D700008958091E80080FFE3CF2091F3008091C7
:103D8000F20090E0922B6115710559F08830910591
:103D900040F424912093F10031966150710901960D
:103DA000F2CF21E0089709F020E08091E8008E77BB
:103DB0008093E800C5CF2111C6CFD5CF80911A02DC
:103DC000882339F0853039F08091E80083FFCBCF2C
:103DD00004C082E0089583E0089581E00895982F5B
:103DE000973058F59093E900981739F07091EC00EE
:103DF0002091ED005091F00003C0242F762F50E069
:103E000021FF19C03091EB003E7F3093EB003091E1
:103E1000ED003D7F3093ED003091EB003160309349
:103E2000EB007093EC002093ED005093F000209194
:103E3000EE0027FF07C09F5FD3CF8F708093E9000C
:103E400081E0089580E0089580911B0287FD05C000
:103E50008091E80080FF0EC012C08091E80082FDD2
:103E600005C080911A028111F8CF08958091E80071
:103E70008B7708C080911A028111EACF0895809152
:103E8000E8008E778093E80008958091E400909197
:103E9000E50045E62091EC0020FF21C02091E800DC
:103EA00020FD21C020911A02222389F0253089F0BB
:103EB0002091EB0025FD0FC02091E4003091E5003A
:103EC0002817390739F3415041F0C901E3CF82E0A7
:103ED000089583E0089581E0089584E00895209195
:103EE000E80022FFDFCF80E008950E94E31F0E94D8
:103EF000EB1FE0EEF0E0808181608083E8EDF0E090
:103F000080818F77808319BCA7EDB0E08C918E7F84
:103F10008C9380818F7E80831092190208950F9375
:103F20001F93CF93DF930E94E31F0E94EB1FC8ED06
:103F3000D0E088818F7788838881806888838881B2
:103F40008F7D888319BC10921A021092160210926B
:103F500018021092170200EE10E0F80180818B7FAA
:103F6000808388818160888342E060E080E00E94F5
:103F7000EF1EE1EEF0E080818E7F8083E2EEF0E0E4
:103F8000808181608083808188608083F801808166
:103F90008E7F8083888180618883DF91CF911F919C
:103FA0000F910895E8EDF0E080818F7E8083E7ED4A
:103FB000F0E080818160808384E082BF81E0809333
:103FC00019020C948F1FE8EDF0E080818E7F8083D2
:103FD0001092E20008951092DA001092E100089524
:103FE0001F920F920FB60F9211242F933F934F936E
:103FF0005F936F937F938F939F93AF93BF93EF9351
:10400000FF938091E10082FF0BC08091E20082FF6C
:1040100007C08091E1008B7F8093E1000E944C22D9
:104020008091DA0080FF1FC08091D80080FF1BC004
:104030008091DA008E7F8093DA008091D90080FF32
:104040000DC080E189BD82E189BD09B400FEFDCFCC
:1040500081E080931A020E94581C05C019BC10927E
:104060001A020E94661C8091E10080FF19C08091B5
:10407000E20080FF15C08091E2008E7F8093E20015
:104080008091E20080618093E2008091D80080629C
:104090008093D80019BC85E080931A020E946A1CA4
:1040A0008091E10084FF30C08091E20084FF2CC049
:1040B00080E189BD82E189BD09B400FEFDCF809118
:1040C000D8008F7D8093D8008091E1008F7E80930F
:1040D000E1008091E2008F7E8093E2008091E20017
:1040E00081608093E20080911602882311F084E0C1
:1040F00007C08091E30087FF02C083E001C081E038
:1041000080931A020E946C1C8091E10083FF29C0F9
:104110008091E20083FF25C08091E100877F80933A
:10412000E10082E080931A02109216028091E10071
:104130008E7F8093E1008091E2008E7F8093E20089
:104140008091E20080618093E20042E060E080E0E4
:104150000E94EF1E8091F00088608093F0000E9422
:10416000691CFF91EF91BF91AF919F918F917F91CA
:104170006F915F914F913F912F910F900FBE0F90D4
:104180001F9018951F920F920FB60F9211242F9324
:104190003F934F935F936F937F938F939F93AF93CF
:1041A000BF93CF93EF93FF93C091E900CF708091BD
:1041B000EC001092E9008091F000877F8093F0007E
:1041C00078940E94FE201092E9008091F0008860AF
:1041D0008093F000C093E900FF91EF91CF91BF91E0
:1041E000AF919F918F917F916F915F914F913F918F
:1041F0002F910F900FBE0F901F9018951F93CF9384
:10420000DF93CDB7DEB7AA970FB6F894DEBF0FBE27
:10421000CDBFEBE1F2E08091F100819322E0E33247
:10422000F207C9F70E94881C8091E80083FF1CC137
:1042300020911B0230911C02832F90E08A3091055F
:1042400008F012C1FC01E556FF4F0C94A023203862
:1042500081F0223809F008C180911F028F7080938D
:10426000E9008091EB0085FB882780F91092E90036
:1042700006C080911702909118029111826090916E
:10428000E800977F9093E8008093F1001092F1008E
:10429000C5C0822F8D7F09F0E7C0222319F022309C
:1042A00061F0E2C080911D02813009F0DDC0333041
:1042B00009F080E08093180228C080911D028111CE
:1042C00024C020911F022F7009F4CEC02093E90072
:1042D0008091EB0080FF19C08091EB00333011F426
:1042E000806211C080618093EB0081E090E0022E3B
:1042F00001C0880F0A94EAF78093EA001092EA005E
:104300008091EB0088608093EB001092E90080912F
:10431000E800877F86C02111A7C010911D021F777A
:104320008091E3008078812B8093E3008091E80006
:10433000877F8093E8000E94241F8091E80080FF1F
:10434000FCCF8091E30080688093E300112311F09B
:1043500083E001C082E080931A0286C02058223098
:1043600008F082C080911D0290911E028C3D23E0D6
:10437000920779F583E08A838AE289834FB7F894BC
:10438000DE01139620E03EE051E2E32FF0E050938F
:104390005700E49120FF03C0E295EF703F5FEF709C
:1043A0008E2F90E0EA3010F0C79601C0C0968D9332
:1043B0009D932F5F243149F74FBF8091E800877F9D
:1043C0008093E8006AE270E0CE0101960E942C1E04
:1043D00014C0AE014F5F5F4F60911F020E94741DB9
:1043E000009709F441C02091E800277F2093E8005E
:1043F000BC0189819A810E948D1E8091E8008B7793
:104400008093E80031C0203879F58091E800877FFB
:104410008093E800809116028093F1008091E8007B
:104420008E778093E8000E94241F1EC021111CC0BB
:1044300090911D029230C0F48091E800877F8093B4
:10444000E800909316020E94241F809116028111A9
:1044500004C08091E30087FF02C084E001C081E0D6
:1044600080931A020E94741C8091E80083FF0AC0A6
:104470008091E800877F8093E8008091EB00806264
:104480008093EB00AA960FB6F894DEBF0FBECDBFA7
:10449000DF91CF911F9108950895CF9380911A02D3
:1044A0008823B1F08091E9008F709091EC0090FF2B
:1044B00002C090E801C090E0C92FC82B1092E9001B
:1044C0008091E80083FD0E94FE20CF70C093E90038
:1044D000CF91089504D06894B1118DC0089570D023
:1044E00088F09F5790F0B92F9927B751A0F0D1F0DD
:1044F000660F771F881F991F1AF0BA95C9F712C067
:10450000B13081F077D0B1E0089574C0672F782F73
:104510008827B85F39F0B93FCCF3869577956795D2
:10452000B395D9F73EF490958095709561957F4F3E
:104530008F4F9F4F0895E89409C097FB3EF49095E4
:104540008095709561957F4F8F4F9F4F9923A9F06C
:10455000F92F96E9BB279395F695879577956795FB
:10456000B795F111F8CFFAF4BB0F11F460FF1BC03F
:104570006F5F7F4F8F4F9F4F16C0882311F096E9D2
:1045800011C0772321F09EE8872F762F05C0662380
:1045900071F096E8862F70E060E02AF09A95660F39
:1045A000771F881FDAF7880F9695879597F90895F2
:1045B00057FD9058440F551F59F05F3F71F04795D4
:1045C000880F97FB991F61F09F3F79F087950895B9
:1045D000121613061406551FF2CF4695F1DF08C0D8
:1045E000161617061806991FF1CF869571056105F5
:1045F00008940895E894BB2766277727CB0197F99D
:1046000008950BD078C069D028F06ED018F09523AB
:1046100009F05AC05FC01124EECFCADFA0F3959F06
:10462000D1F3950F50E0551F629FF001729FBB2799
:10463000F00DB11D639FAA27F00DB11DAA1F649F45
:104640006627B00DA11D661F829F2227B00DA11DF8
:10465000621F739FB00DA11D621F839FA00D611D7E
:10466000221F749F3327A00D611D231F849F600D9F
:10467000211D822F762F6A2F11249F5750408AF0D8
:10468000E1F088234AF0EE0FFF1FBB1F661F771F64
:10469000881F91505040A9F79E3F510570F014C0FB
:1046A000AACF5F3FECF3983EDCF38695779567954C
:1046B000B795F795E7959F5FC1F7FE2B880F911D82
:1046C0009695879597F9089597F99F6780E870E028
:1046D00060E008959FEF80EC089500240A94161678
:1046E000170618060906089500240A9412161306E0
:1046F000140605060895092E0394000C11F488236E
:1047000052F0BB0F40F4BF2B11F460FF04C06F5F89
:104710007F4F8F4F9F4F089597FB072E16F40094FD
:1047200007D077FD09D00E94A62307FC05D03EF4F0
:10473000909581959F4F0895709561957F4F08954D
:10474000EE0FFF1F0590F491E02D0994AA1BBB1BEF
:1047500051E107C0AA1FBB1FA617B70710F0A61B81
:10476000B70B881F991F5A95A9F780959095BC01A2
:10477000CD010895F999FECF92BD81BDF89A992790
:1047800080B50895A8E1B0E042E050E00C94E22347
:10479000262FF999FECF92BD81BDF89A019700B4FA
:1047A000021639F01FBA20BD0FB6F894FA9AF99A9A
:1047B0000FBE08950196272F0E94C9230C94C82389
:1047C000DC01CB01FC01F999FECF06C0F2BDE1BDD1
:1047D000F89A319600B40D9241505040B8F70895C0
:0447E000F894FFCF7B
:1047E4000520BC0128080A03140A7A1B071CE41BD1
:1047F400B01B7D1B010102030405060708090040E4
:104804004D3639F504A80472043904CC03E503FEDB
:044814000317040082
:00000001FF
