:100000000C94D7030C941E040C941E040C941E0430
:100010000C941E040C941E040C941E040C941E04D8
:100020000C941E040C941E040C94DE270C94B0282F
:100030000C94221E0C941E040C941E040C941E049A
:100040000C941E040C941E040C941E040C941E04A8
:100050000C941E040C948A1E0C941E040C941E0412
:100060000C941E040C941E040C941E040C941E0488
:100070000C941E040C941E040C941E040C941E0478
:100080000C941E040C941E040C941E040C941E0468
:100090000C941E040C941E040C941E040C941E0458
:1000A0000C941E040C941E040C941E045D065F0642
:1000B0006A06610663066506670669066C066E06D3
:1000C00070067B0672067406760678067A067D064A
:1000D00081148114BB14BB14F01410153B16771651
:1000E0001B157716CB15CB153316771677167216A8
:1000F000D815D815D815D815D815D815D815D81598
:10010000D815D815D815D815D815D815D815D81587
:10011000EA15F715FE1505160F16F216F216041756
:100120000417FB16041704170417F216F21600172B
:100130000417041700171D293F292D2A3F292D2AAE
:100140008429A7292D2AFC290F2A0000F0A1F0A25A
:10015000F0A335002B002961E1003A0000001E00E9
:10016000140004001D003B00C1001F001A0016000F
:100170001B003C0029612000070008000600E20087
:100180002A002100090017001900E300A90022003D
:100190000E000A0005000000AA00690002530000DA
:1001A0002F000000A8006A003100000030000000AD
:1001B000AE0023000D001C0013000000AB00240063
:1001C000180011001000E700AC00250015000C001D
:1001D0003600E6002C0026000F00120037003D001C
:1001E0003400270033000B0038003E00C3002E000F
:1001F0002D002800E5003F00000001000100010083
:1002000001000100000001001E001E0201000100AB
:10021000010001001F001F02010001000100010098
:100220002000200201000100010001002100210244
:100230000100010001000100220022020100000073
:1002400001000100010000000100000001000100A8
:100250000100000001000000010001002300230252
:10026000010000000100010024002402010001003F
:10027000010001002500250201000100010001002C
:1002800026002602010001000100010027002702CC
:100290000100010001000100010001000100010056
:1002A000000000000000000000000100000000004D
:1002B0001E00140004000100000000001F001A00CE
:1002C00016000100190000002000080007000000CF
:1002D00006000000210015000900000001000000D8
:1002E000220017000A0000000100010001000000C8
:1002F00000000000010001000000000000000000FC
:100300000100000023001C000B00000001000000A1
:10031000240018000D0000000100000025000C0062
:100320000E00000010000000260012000F00000068
:10033000110000002700130033000000000000003F
:1003400000002F0034000000000001000100010047
:100350000100010000000100010001000100010096
:1003600001000100F400F2000100010001000100A1
:10037000F000F1000100010001000100F500F300B0
:100380000100010001000100010001000100000066
:100390000100010001000000010000000100010057
:1003A0000100000001000000010001000100010047
:1003B00001000000010001000100500001000100E7
:1003C0000100010052005100010001000100010084
:1003D00001004F00010001000100010001000100C7
:1003E0000100010001000100010001000100010005
:1003F0000000643214643214783C1E1E140A050096
:100400000000000101010202030405050607090AB4
:100410000B0C0E0F1112141517191B1D1F2123256C
:10042000282A2C2F313436393B3E414346494C4F24
:100430005255585A5D6164676A6D707376797C7F36
:100440008386898C8F9295989B9EA2A5A7AAADB012
:10045000B3B6B9BCBEC1C4C6C9CBCED0D3D5D7DA2A
:10046000DCDEE0E2E4E6E8EAEBEDEEF0F1F3F4F5F1
:10047000F6F8F9FAFAFBFCFDFDFEFEFEFFFFFFFFBA
:10048000FFFFFFFEFEFEFDFDFCFBFAFAF9F8F6F5B4
:10049000F4F3F1F0EEEDEBEAE8E6E4E2E0DEDCDADC
:1004A000D7D5D3D0CECBC9C6C4C1BEBCB9B6B3B004
:1004B000ADAAA7A5A29E9B9895928F8C89868380D2
:1004C0007C797673706D6A6764615D5A5855524FD6
:1004D0004C494643413E3B393634312F2C2A28259E
:1004E00023211F1D1B1917151412110F0E0C0B0AB7
:1004F00009070605050403020201010100000000CE
:1005000000000000010101010101010101020202DC
:1005100002020202020203030303030303030404AF
:100520000404040405050505050606060606070776
:100530000707080808080909090A0A0A0A0B0B0B29
:100540000C0C0C0D0D0D0E0E0F0F0F1010111111C4
:100550001212131314141515161617171818191943
:100560001A1A1B1C1C1D1D1E1F1F202021222223A6
:1005700024252526272728292A2B2B2C2D2E2F2FE3
:1005800030313233343536363738393A3B3C3D3EFC
:100590003F4041424344464748494A4B4C4D4F50E7
:1005A000515253555657585A5B5C5E5F60626364A4
:1005B0006667696A6C6D6E707173747678797B7C2E
:1005C0007E8081838486888A8B8D8F919294969881
:1005D0009A9B9D9FA1A3A5A7A9ABADAFB1B3B5B79A
:1005E000B9BBBDBFC1C4C6C8CACCCFD1D3D6D8DA77
:1005F000DCDFE1E4E6E8EBEDF0F2F5F7FAFCFF16FC
:10060000034500720067006F0044006F007800200F
:100610000045005A00000016034500720067006F95
:100620000044006F007800200045005A00000004DC
:1006300003090409026D00040100A0FA0904000086
:1006400001030101000921110100012240000705F9
:10065000810308000A0904010001030102000921C5
:1006600011010001224D000705820308000A090458
:1006700002000103000000092111010001223600DF
:100680000705830308000A090403000103000000B2
:10069000092111010001223900070584032000010E
:1006A0001201100100000008EDFE07130100010215
:1006B000000105010906A101050719E029E7150058
:1006C000250195087501810205081901290595057F
:1006D000750191029501750391010507190029F72C
:1006E0001500250195F875018102C005010980A159
:1006F0000185021601002603001A81002A83007575
:100700001095018100C0050C0901A10185031601A6
:1007100000269C021A01002A9C0275109501810096
:10072000C005010902A1010901A10005091901295A
:100730000515002501950575018102950175038157
:10074000010501093009311581257F950275088160
:100750000609381581257F950175088106050C0A63
:1007600038021581257F950175088106C0C00501F5
:100770000906A101050719E029E7150025019508DB
:100780007501810295017508810105081901290586
:1007900095057501910295017503910105071900F1
:1007A00029FF150026FF00950675088100C0112459
:1007B0001FBECFEFDAE0DEBFCDBF04B603FE27C019
:1007C0008091360390913703A0913803B09139039B
:1007D0008730904BA740B04BD1F410923603109263
:1007E0003703109238031092390314BE84B7877F01
:1007F00084BF0FB6F894A8958091600088618093BB
:100800006000109260000FBEE0E0FFE3099511E088
:10081000A0E0B1E0E4E1F8E502C005900D92AC3D46
:10082000B107D9F723E0ACEDB1E001C01D92A633CA
:10083000B207E1F70E940B250C94082C0C940000E1
:100840001092B9008AE08093B800089594EA9093DA
:10085000BC009091BC0097FFFCCF9091B900987FAD
:10086000983021F0903111F081E008958093BB0021
:1008700084E88093BC008091BC0087FFFCCF80910E
:10088000B900887F883111F0803471F780E00895D5
:1008900084E98093BC008091BC0084FDFCCF089566
:1008A0008093BB0084E88093BC008091BC0087FFEC
:1008B000FCCF9091B900987F81E0983209F480E0F4
:1008C000089584E88093BC008091BC0087FFFCCF32
:1008D0008091BB00089580B38C7080BB81B3836F1F
:1008E00081BB089580910101811115C080E40E94AF
:1008F00026048093010181110CC082E10E94500402
:1009000080930101811105C08FEF0E9450048093F4
:1009100001010E94480484B1807F84B985B1807F41
:1009200085B98AB1837F8AB98BB1837F8BB93E98B1
:10093000469808950C94C9050E94450A80930101C8
:100940000E9472040E946B04ADEDB1E0EBEEF1E0A9
:100950008EE08E0F11921D928E13FCCF0C946E07B9
:100960000E94450A809301010E9472040E946B0458
:10097000ADEDB1E0EBEEF1E08EE08E0F11921D9245
:100980008E13FCCF0895BF92CF92DF92EF92FF9229
:100990000F931F93CF93DF9380910101882379F008
:1009A0008091DC018F5F8093DC01811108C00E947F
:1009B000450A80930101811102C00E94D7090DED03
:1009C00011E0C0E0D0E0EE24E394F12CDD24D394D8
:1009D00095E0C92EC730D10500F580910101811144
:1009E0003CC080E40E94260480930101811112C062
:1009F00082E10E9450048093010181110BC0C70164
:100A00000C2E01C0880F0A94EAF780950E945004CA
:100A1000809301010E94480420C0CA30A1F028F44C
:100A2000C83059F0C93061F005C0CC3089F070F0A1
:100A3000CD3089F0209A289810C0219A29980DC0AD
:100A4000229A2A980AC0239A2B9807C0529A01C06A
:100A5000539A5B9802C03E9A469880EA8A95F1F7CD
:100A6000C730D10518F580910101811144C080E49F
:100A70000E94260480930101882311F0B12C12C03A
:100A800083E10E945004809301018111F7CF81E43A
:100A90000E942604809301018111F0CF0E9461041D
:100AA000B82EB0940E9448048B2D26C08FB181705F
:100AB0008D25799902C092E001C090E0892B7C9944
:100AC00002C024E001C020E0822B7D9902C028E012
:100AD00001C020E0822B7E9902C090E101C090E02D
:100AE000892B9FB19095991F9927991F9295990FDE
:100AF000907E892B01C080E0F8019081981719F051
:100B00008083C09200010E94720421960F5F1F4FE4
:100B1000CE30D10509F05ECF809100018823A1F08D
:100B2000815080930001882329F0F5E0FA95F1F7D0
:100B300000000AC0ABEEB1E0EDEDF1E0CF01825F65
:100B400091919D938E13FCCF0E94700781E0DF91FD
:100B5000CF911F910F91FF90EF90DF90CF90BF90BA
:100B60000895E82FF0E0E551FE4F80810895089543
:100B700061110BC0FC018281882321F085EE0E9467
:100B8000161303C085EE0E94E91380E090E00895FB
:100B9000089560918002709181028091820290910B
:100BA00083020E944E1D56985E9825982D9826988F
:100BB0002E9827982F98823039F0833041F0813079
:100BC00041F4259A2D9A0895269A2E9A0895279AE7
:100BD0002F9A089581E0089581E008950C94EC0522
:100BE0000E94E0162FEF84E39CE02150804090406B
:100BF000E1F700C000000C94B01E0F931F93CF9339
:100C0000DF938C01FC01C081D181CE010E94D31BF6
:100C1000BE010E947807EC01B8010E94EE0588230E
:100C200009F456C1B801CE010E948809882309F44D
:100C30004FC1B801CE010E94850B882309F448C139
:100C4000C733F0E7DF0741F4F8018281882309F414
:100C50003FC10E94CF0D3CC1C83380E7D80708F0E0
:100C6000A5C0C53190E7D90708F07DC0C230E0E7E4
:100C7000DE0708F452C0F8018281882309F459C0C4
:100C80000E94BF1D811102C00E949E1D0E94D21DA4
:100C900090E09093280380932703FE01E350F047F0
:100CA000E231F10530F4EA5AFF4F809127030C94AA
:100CB000BA2B80912703816027C0826025C08460A1
:100CC00023C0806121C080621FC080641DC0806815
:100CD0001BC08460886018C08E7F16C08D7F14C0D2
:100CE0008B7F12C08F7E10C08F7D0EC08F7B0CC09B
:100CF0008F770AC08B7F877F07C087FB222720F969
:100D000091E0922790FB87F9809327038091270336
:100D10000E94D61D0E94E016DBC0C115F0E7DF0778
:100D200079F0C130D047A1F081E08093FB0180933E
:100D3000FC01C801DF91CF911F910F910C94EA053E
:100D4000F8018281882309F4C3C00E94F005C0C065
:100D5000F8018281882309F4BBC08091AD028160D3
:100D60008093AD02B5C0C53390E7D90741F4F801CF
:100D70008281882309F4ACC00E94BB0EA9C0C6338F
:100D8000E0E7DE0740F0F8018281882309F4A0C083
:100D90000E94B70D9DC0C433D04731F6F80182815F
:100DA000882309F495C00E94C50E92C0CB3380E71A
:100DB000D80741F4F8018281882309F489C00E9490
:100DC0002D0E86C0CC3390E7D907D8F4F801828184
:100DD000C933F0E7DF0731F4882309F479C00E94B2
:100DE000000E76C0CA33D04730F4882309F470C0AF
:100DF0000E94EE0D6DC0882309F46AC00E94120E95
:100E000067C0CD33E0E7DE0739F5F801828188233A
:100E100061F01092FC010E94541E9093FA0180939D
:100E2000F90180E20E94381453C08091FC018111C5
:100E30000FC08091F9019091FA010E94601E883CD8
:100E4000910530F487E20E94161387E20E94E913AD
:100E500080E20E943F143CC0CD33F0E7DF0718F575
:100E6000F8018281882351F01092FB010E94541EE8
:100E70009093FA018093F90182E0D4CF8091FB0135
:100E800081110FC08091F9019091FA010E94601EBA
:100E9000883C910530F486E20E94161386E20E9497
:100EA000E91382E0D6CFC03480E7D80731F4F801E7
:100EB0008281882369F080E009C0C134D04709F0FD
:100EC00033CFF8018281882319F082E00E94A125A6
:100ED00080E0DF91CF911F910F9108950C942F0A1C
:100EE0000C949A0408950C9472070C947307089557
:100EF00096E0799FF001112494E5899FE00DF11DA2
:100F00001124E60FF11DEE0FFF1FEE5AFE4F8591E3
:100F100094910895880F991FFC01E65BFE4F85911F
:100F2000949108950E9478070E940A09811520E48F
:100F30009207B0F5811540E3940708F0DEC0803ECB
:100F40009105D8F4803C910508F06CC0883A910571
:100F500078F4853A910508F068C08130910509F46C
:100F600058C108F40FC18430910508F052C10AC17C
:100F70008D3B910508F464C005C18F3F910509F0D0
:100F800048F4803F910508F0B2C0883E910508F40E
:100F900040C1F8C0811560E2960708F0AAC0089524
:100FA000811573E5970790F4811522E5920708F003
:100FB000C8C0811541E5940708F0BEC0811560E501
:100FC000960708F09DC09F70906A0895811575E599
:100FD0009707D8F4811524E5920708F0C8C0482F78
:100FE0004695469570E2479FA0011124837099278A
:100FF00021E030E0B90102C0660F771F8A95E2F761
:10100000CB01842B952B9A680895811546E59407AA
:1010100008F4B2C09C0130562115304108F0B2C02E
:101020009F70AEC0805C910965C0853A910509F456
:10103000ACC0863A910509F0ABC082E890E408950F
:10104000883A910509F4A7C0893A910509F4A6C028
:101050008A3A910509F4A5C08B3A910509F4A4C018
:101060008C3A910509F4A3C08B3B910509F4A2C009
:101070008C3B910509F4A1C08D3A910509F4A0C0FB
:10108000803B910509F49FC08E3A910509F49EC0FA
:101090008F3A910509F49DC0813B910509F49CC0EC
:1010A000823B910509F49BC0833B910509F49AC0EA
:1010B000843B910509F499C0853B910509F498C0DA
:1010C000863B910509F497C0873B910509F496C0CA
:1010D000883B910509F495C0893B910509F494C0BA
:1010E0008A3B910509F493C080E094E408959065EB
:1010F00008959F700E948A0708959927906C08951B
:10110000482F437021E030E002C0220F331F4A9580
:10111000E2F73C68AC0164E0569547956A95E1F7C3
:101120004370342B8F708695869570E2879FC0013F
:101130001124822B932B0895982F8827816F906A12
:101140000895482F4695469520E2429FA00111241C
:101150008370992721E030E0B90102C0660F771F44
:101160008A95E2F7CB01842B952B9C680895982FE4
:101170008827846F906A08958F719927982F882700
:101180009062089580E090E0089581E890E40895E9
:1011900083E890E4089582EE94E4089589EE94E45F
:1011A00008958AEE94E4089585EB94E4089586EB1F
:1011B00094E4089583EB94E4089584EB94E4089513
:1011C00087EB94E408958CEC94E408958DEC94E41A
:1011D000089583E895E408958AE895E4089582E9FE
:1011E00095E4089584E995E4089581E296E40895EC
:1011F00083E296E4089584E296E4089585E296E415
:10120000089586E296E4089587E296E408958AE2D6
:1012100096E408958238910549F1B0F4813391053F
:1012200009F458C048F48932910509F44EC08A3255
:10123000910509F454C008958533910509F440C01F
:101240008933910599F00895833E910529F138F489
:10125000803E910591F0823E9105A1F00895863E71
:101260009105F9F0873E910531F10895209127030A
:1012700020FD3AC021FD38C008958091270380FDEC
:1012800035C032C08091270382FF32C0809127038E
:1012900084FD30C083EE39C08091270382FD28C0D1
:1012A000F5CF8091270383FF27C08091270384FD1A
:1012B00021C087EE2AC08091270383FD1DC0F5CF92
:1012C0008091270385FD1AC01BC08091270385FDEF
:1012D00017C014C08091270386FD14C015C08091EB
:1012E000270386FD11C00EC080EE0FC089E30DC03C
:1012F00082EE0BC080E009C086EE07C089E205C01F
:1013000085E303C08AE201C081E390E00895089577
:101310000F931F93CF93FB012281211102C0C1E0E3
:1013200041C08C01C0910A02C11125C0853190478E
:10133000B1F70E94870981E080930A020E94541E3F
:1013400090930902809308021092FD011092FF0110
:101350001092FE01109201021092000210920302FC
:1013600010920202109205021092040210920702DB
:101370001092060217C080910802909109020E9403
:10138000601E883C910558F69091FD01E92FF0E030
:10139000EE0FFF1FE250FE4F118300839F5F90937B
:1013A000FD01C0E08C2FCF911F910F9108955698A9
:1013B0005E9825982D9826982E9827982F988FEF2D
:1013C00090E0909389008093880090938B008093A5
:1013D0008A0090938D0080938C00259A2D9A2FEF90
:1013E00080E792E0215080409040E1F700C000008B
:1013F000269A2E9A2FEF80E792E02150804090406D
:10140000E1F700C00000279A2F9A2FEF80E792E0C3
:10141000215080409040E1F700C0000025982D98B1
:101420002FEF80E792E0215080409040E1F700C02C
:10143000000026982E982FEF80E792E02150804000
:101440009040E1F700C0000027982F9856985E98CA
:1014500025982D9826982E9827982F98089589EAF0
:101460008093800089E08093810024982C983F9895
:101470008AB18F7C8AB96E98479A8BB180638BB999
:10148000769A0E94D7090C94C80580E280930101E6
:1014900080910B0281110EC00E94200481E0809394
:1014A0000B022FEF83ED90E3215080409040E1F755
:1014B00000C0000080E40E94260480930101811195
:1014C0002EC00E94500480930101811128C00E9407
:1014D000500480930101811122C08FE30E945004C7
:1014E0008093010181111BC00E94480480E40E9486
:1014F000260480930101811112C08CE00E945004E7
:101500008093010181110BC00E945004809301015E
:10151000811105C08FE30E945004809301010E9455
:101520004804809101010895282F882339F090E024
:101530002A3010F44D9608950697089587E290E0BA
:101540000895E0910301F091040180818093DE020F
:1015500081FF03C081EE0E94E9138091DE0285FFC6
:1015600003C085EE0E94E9138091DE0280FF03C074
:1015700080EE0E94E9138091DE0284FF03C084EEB6
:101580000E94E9138091DE0282FF03C082EE0E9476
:10159000E9138091DE0286FF03C086EE0E94E91304
:1015A0008091DE0283FF03C083EE0E94E9138091E5
:1015B000DE0287FF03C087EE0E94E91380910C02D0
:1015C0008130A1F078F0823011F1843049F586EE57
:1015D0000E94161386EE0E94E91388E10E941613FA
:1015E00088E11CC082EE0E9416131AC080EE0E9491
:1015F000161381EE0E94161388E10E94161388E1EB
:101600000E94E91381EE0E94E91380EE07C082EE8A
:101610000E94161387E50E94161387E50E94E913BE
:101620008FE39CE90197F1F700C0000008958091D5
:101630000C02813029F010F0823041F482EE04C0B7
:101640008CE20E9416138CE20E94E9138091DE0264
:1016500081FF03C081EE0E9416138091DE0285FF98
:1016600003C085EE0E9416138091DE0280FF03C046
:1016700080EE0E9416138091DE0284FF03C084EE88
:101680000E9416138091DE0282FF03C082EE0E9448
:1016900016138091DE0286FF03C086EE0E941613A9
:1016A0008091DE0283FF03C083EE0E9416138091B7
:1016B000DE0287FF03C087EE0C9416130895EF92A5
:1016C000FF921F93CF93DF937C01CCE0D0E0970192
:1016D0000C2E02C0369527950A94E2F7122F1F7040
:1016E000812F0E94940A0E941613812F0E94940A4F
:1016F0000E94E9132497CC3F8FEFD80741F7DF9181
:10170000CF911F91FF90EF900895CF93DF93813099
:1017100020E8920768F0FB012281222349F0EC01C6
:101720000E94A10ACE019F770E945F0B0E94170BB7
:1017300081E0DF91CF910895882319F05198599A4B
:1017400002C0519A59985098589A95E09A95F1F795
:101750000000509A589895E09A95F1F70000882378
:1017600011F0519A599885E08A95F1F70000089593
:101770008BB18C7F8BB95098589A5198599A85E0C3
:101780008A95F1F7000008958AB18C7F8AB985E0C7
:101790008A95F1F70000519A599885E08A95F1F7FA
:1017A0000000509A589885E08A95F1F70000089556
:1017B0005098589A85E08A95F1F700005198599A07
:1017C00085E08A95F1F700000895CF93DF93D82F35
:1017D000C8E08D2F80780E949C0BDD0FC150C9F7A7
:1017E00080E00E949C0B85E08A95F1F7000085E07F
:1017F0008A95F1F7000080E0DF91CF9108952BB139
:10180000342F309523233BB1432B3FB7F894FC0191
:10181000680F791FE617F70789F0819198E04BB9B7
:10182000000000C087FF2BB9880F000000C000C077
:1018300000C02BB900C09A9591F7ECCF3FBF089537
:10184000AF92BF92CF92DF92EF92FF920F931F93CE
:10185000CF93DF938C01EB01CFB6D090BC00F8940E
:101860008091BC008B7F8093BC000E94B80B0E94CB
:10187000C40B84E80E94E50BCC0FDD1FCC0FDD1FED
:1018800078015801AC0EBD1EEA14FB0431F0F701DB
:1018900081917F010E94E50BF7CF0E94D80BCFBE4C
:1018A000D092BC00579A40E8BE01C801DF91CF91A9
:1018B0001F910F91FF90EF90DF90CF90BF90AF906E
:1018C0000C94FF0BEF92FF920F931F93CF93DF9334
:1018D000E901662309F44BC0242F30E0EFEFF0E07C
:1018E000E61BF109B901E69F9001E79F300DF69FD5
:1018F000300D1124232F8B01031B11095CE3E52E0E
:10190000F12CB7010E94922BFB01BC01069FC00184
:10191000079F900D169F900D1124B7010E94922BE6
:10192000E230F105B1F040F4309779F0319711F5DC
:10193000832F242F461B21C0E430F105A1F068F06D
:101940003597C1F4842F861B18C0832F262F230FB1
:1019500014C0862F830FE42F03C0E42FE61B842FCF
:10196000432F2E2F0AC0842F462F430F06C0842FEB
:10197000242F03C080E020E040E0E42FF0E0E150BD
:10198000FB4F4491E22FF0E0E150FB4F9491E82FA0
:10199000F0E0E150FB4FE49149839883EA83DF91C3
:1019A000CF911F910F91FF90EF90089588E090E004
:1019B0000C94C82BAB01BC0188E090E00C94E62BA2
:1019C000EFEDF2E083E080831092E0028FEF8283FC
:1019D00083836091DF027091E0028091E102909137
:1019E000E2020C94DA0C8091DF0280FF06C06FE007
:1019F00070E087EE92E00C94200C80E090E0FC0117
:101A0000E951FD4F11821082128204968C339105A8
:101A1000B1F7EDCF20E030E0F901E951FD4F8183CE
:101A2000608342832C5F3F4F2C333105A9F70C9420
:101A3000F30CEF92FF920F931F93CF93DF9300D09D
:101A400000D0CDB7DEB70091DF021091E002209107
:101A5000E1023091E2020093E3021093E40220934A
:101A6000E5023093E6022091DF0220FF21C0042F1F
:101A7000F62EE92E182F9E012F5F3F4F0E94620C19
:101A80008091E30210FB87F98093E3021695809121
:101A9000E4028078182BE0FA17F91093E402F09230
:101AA000E5020093E6024B8169818A810E940A0D5A
:101AB0000F900F900F900F90DF91CF911F910F918A
:101AC000FF90EF9008950F931F93CF93DF93EC0156
:101AD000062F142F9091DF0290FF44C0892F8E773C
:101AE000823021F4CE010E94190D1BC0892F8695EA
:101AF0008F732EE3280F2F73243018F41091E20215
:101B000010C0865C8F73893060F4C92FCC1FCC273E
:101B1000CC1FD091E0028D2F880FC82BD7FBDD277B
:101B2000D0F98091DF02C0FB87F98093DF02C69570
:101B30008091E0028078C82BD0FBC7F9C093E00207
:101B40000093E1021093E2026091DF027091E002E3
:101B50008091E1029091E202DF91CF911F910F916C
:101B60000C94DA0CDF91CF911F910F910895EFED56
:101B7000F2E02081221F2227221F3091E002432F12
:101B8000440F842F822B37FB992790F90C9668E637
:101B900071E00E94A62B438162810C94630D209119
:101BA000DF02221F2227221F3091E002432F440F21
:101BB000842F822B37FB992790F98C3091051CF4E8
:101BC000845A9E4F01C00C9768E671E00E94A62BD4
:101BD0004091E2026091E1020C94630DEFEDF2E0BE
:101BE0008081881F8827881F9091E002292F220F6B
:101BF00097FB992790F943816FEF822B0C94630D2B
:101C0000EFEDF2E08081881F8827881F9091E00225
:101C1000292F220F97FB992790F9438160E0822BAF
:101C20000C94630D4091E202842F90E0843F910573
:101C300014F4445F01C04FEF8091DF02881F8827B2
:101C4000881F9091E002292F220F97FB992790F986
:101C50006091E102822B0C94630D4091E202842F8B
:101C600090E00C9714F04C5001C040E08091DF02EE
:101C7000881F8827881F9091E002292F220F97FB49
:101C8000992790F96091E102822B0C94630D909159
:101C9000DF0290FF3BC09178811102C0926007C0C3
:101CA000893110F0906303C08F73880F982B909345
:101CB000DF026091DF027091E0028091E102909179
:101CC000E2020E94DA0C8091DF02982F9E77923018
:101CD00019F41092220209C0982F9695925C9F7376
:101CE000963118F491E090932202881F8827881F6C
:101CF0009091E002292F220F97FB992790F94091AC
:101D0000E2026091E102822B0C94630D08958091B0
:101D1000AD0281608093AD0281E0809323020E9436
:101D2000BF1D811104C00E949E1D0E94E00C0E94F4
:101D3000D60C6093DF027093E0028093E1029093EF
:101D4000E2026E7761F40E94E00C0E94D60C609370
:101D5000DF027093E0028093E1029093E20281E05F
:101D6000809322028091DF0280FF04C086958F73EA
:101D70000C94470E08958091DF0286958F738F5FD4
:101D8000893108F081E00C94470E8091DF02982F92
:101D9000909590FB80F98093DF026091DF02709153
:101DA000E0028091E1029091E2020E94DA0C8091BF
:101DB000DF0280FF04C086958F730C94470E10924B
:101DC00022022FEF80E792E0215080409040E1F71F
:101DD00000C000000C94F30CCF93C82F8091200218
:101DE000909121020E94601EEC2FF0E0E550FC4F24
:101DF000E491F0E08E179F0718F10E94541E909313
:101E0000210280932002E0911F02F0E0E150FC4F9C
:101E100044918091DF02881F8827881F9091E002FB
:101E2000292F220F97FB992790F96091E102822BCD
:101E30000E94190D80911F0290E0019680931F026D
:101E4000CF910895CF93C82F80911D0290911E02CB
:101E50000E94601EEC2FF0E0E850FC4FE491F0E0AF
:101E60008E179F07E8F00E94541E90931E028093E5
:101E70001D024091E2026091E10280911B0290916B
:101E80001C020E94190D80911B0290911C02019668
:101E900068E671E00E94922B90931C0280931B02D3
:101EA000CF910895CF92DF92FF920F931F93CF931C
:101EB000DF93F82E8091190290911A020E94601E01
:101EC000EF2DE695F0E0E850FC4FE491F0E08E173E
:101ED0009F07E8F10E94541E90931A028093190202
:101EE00007EE12E0C0E0D0E088E6C82EDD24D394EF
:101EF00080911702909118028C0F9D1FB6010E94CD
:101F0000922B98014091E2026091E1020E94620CE2
:101F100068960C5F1F4FC83681E0D80749F70E94CA
:101F2000F30C2091170230911802F0FE0AC0C9018B
:101F30000196BE010E94922B909318028093170283
:101F400006C0215031093093180220931702DF9107
:101F5000CF911F910F91FF90DF90CF9008958F92B6
:101F60009F92AF92BF92CF92DF92EF92FF920F9328
:101F70001F93CF93DF93C82F80FF03C0DD24DA9433
:101F800002C0DD24D39480911502909116020E9424
:101F9000601EC695EC2FF0E0EB50FC4FE491F0E0B2
:101FA0008E179F0708F467C00E94541E9093160274
:101FB0008093150297EEE92E92E0F92E09EE12E0D9
:101FC000C0E0D0E027E0822E912CF80131971082FA
:101FD000F7011082F801108287E0A82EB12CC12CE5
:101FE000809114028C0D87FD815F082E000C990BE7
:101FF000C817D907E9F42091E2022A9DC0012B9D60
:10200000900D1124B4010E94A62B462F8091DF026F
:10201000881F8827881F9091E002592F550F97FB42
:10202000992790F997016091E102852B0E94620C3B
:10203000CD0CF1E0AF1AB10899F6219684E0E80ED4
:10204000F11C0C5F1F4FCF30D10509F0BECF0E94AD
:10205000F30C8091140291E0D91206C0811102C0E4
:102060008EE007C0815005C090E00196BE010E943D
:10207000A62B80931402DF91CF911F910F91FF90B7
:10208000EF90DF90CF90BF90AF909F908F9008958A
:102090009F92AF92BF92CF92DF92EF92FF920F93F7
:1020A0001F93CF93DF93CDB7DEB7EC970FB6F894BD
:1020B000DEBF0FBECDBF182F809112029091130288
:1020C0000E94601EE12FF0E0EE50FC4FE491F0E042
:1020D0008E179F0708F495C00E94541E9093130218
:1020E00080931202CE0101967C015E0193E0A90E5D
:1020F000B11CC12CD12C8701F50131971082F70159
:102100001082F5011082912C9091020180911102B0
:10211000999E800D112487FD04C08F301CF08EE045
:1021200001C080E0082E000C990BC816D906A1F456
:102130008091DF02881F8827881F9091E002592F25
:10214000550F97FB992790F997014091E202609112
:10215000E102852B0E94620C9394F7E09F12D4CF8A
:102160008FEFC81AD80A94E0E90EF11CE4E0AE0E35
:10217000B11CFFE0CF16D10409F0BECF29EE32E04A
:1021800099E0E92EF12C4FE0C42ED12CC701B60105
:102190000E94A62BD9011197FC01EE0FFF1FEE0F35
:1021A000FF1FE00FF11F81818C93119780818C9329
:1021B0008281F9018083FFEFEF1AFF0A2C5F3F4F06
:1021C00088E1E816F10411F70E94F30C90910201E6
:1021D00080911102913049F48A3F2CF489EF809369
:1021E00011028FEF08C081500AC086313CF085E1B2
:1021F0008093110281E08093020103C08F5F80937E
:102200001102EC960FB6F894DEBF0FBECDBFDF9182
:10221000CF911F910F91FF90EF90DF90CF90BF90E3
:10222000AF909F900895CF92DF92FF920F931F93EC
:10223000CF93DF9380910F02909110020E94601E55
:10224000883E9340F0F10E94541E909310028093B8
:102250000F0280910D0290910E02019681709927D4
:1022600090930E0280930D0207EE12E02FE0289F5C
:102270006001299FD00C1124C0E0D0E080E5F82E49
:10228000CE018C0D9D1D8170992798014091E2022D
:102290006091E102FC01FE9EC001FF9E900D1124A1
:1022A0000E94620C2F960C5F1F4FC13ED10541F773
:1022B000DF91CF911F910F91FF90DF90CF900C9401
:1022C000F30CDF91CF911F910F91FF90DF90CF9092
:1022D000089580912202882371F18091DF02869512
:1022E0008F739EE3980F9F73943018F482500C9470
:1022F000EC0E9AE3980F9F73933018F486500C9469
:10230000220F97E3980F9F73963018F489500C941E
:10231000520F91E3980F9F73963018F48F500C94DE
:10232000AF0F9BE2980F9F73933018F485510C9474
:1023300048100C9413110895909329028093280259
:102340000895E0912802F0912902309721F0019040
:10235000F081E02D099480E00895E0912802F09149
:102360002902309721F00280F381E02D099408952D
:10237000E0912802F0912902309721F00480F58144
:10238000E02D0994089520912602309127028217AA
:10239000930771F09093270280932602E091280220
:1023A000F0912902309721F00680F781E02D099401
:1023B000089520912402309125028217930771F02D
:1023C0009093250280932402E0912802F091290243
:1023D000309721F00084F185E02D09940895089547
:1023E0000C94EF110E944B1E0E949C040E94D21E6E
:1023F0000C94870ECF92DF92EF92FF920F931F9370
:10240000CF93DF93CDB7DEB72B970FB6F894DEBF2F
:102410000FBECDBF0E94C3048BE2C82E82E0D82E2F
:1024200000E010E0E02E802F0E94B105F6014191FE
:102430006F01F42EF826B1F40F5F1F4F0E30110517
:1024400089F78FEF89838A831B820E94541E8160E3
:10245000782F9D838C8349815A816B818D810E9465
:10246000D91240C09091AD0291FF04C08B870E94A9
:10247000B7058B8520E030E04F2D50E0922FBA0158
:10248000022E02C0759567950A94E2F760FF24C09A
:102490002E83EF8221E030E0690102C0CC0CDD1C0C
:1024A0009A95E2F790E08C219D21892B09F420E098
:1024B00028870E94541E8160782F9A8789874E81D1
:1024C0005F8168858A850E94D912F801E55DFD4F1C
:1024D0008081C826C08206C02F5F3F4F263031055D
:1024E00069F6AACF0E94652010912A020E94A111CC
:1024F0001817A1F00E94A11180932A022B960FB603
:10250000F894DEBF0FBECDBFDF91CF911F910F9129
:10251000FF90EF90DF90CF900C9475072B960FB63D
:10252000F894DEBF0FBECDBFDF91CF911F910F9109
:10253000FF90EF90DF90CF900895DC0111962C91E1
:1025400011978C91682F70E041E050E001C0440F7A
:102550008A95EAF712968C91129730E0882329F039
:10256000809147028823E9F006C0F901E75CFD4F3E
:1025700090819423B1F086E0829FF001839FF00D5B
:102580001124E60FF71FEE0FFF1FEB5EFE4F808159
:1025900091818D939C93F901E75CFD4F8081482BDD
:1025A00006C0F901E75CFD4F4095808148234083D8
:1025B0000895CF93DF93CDB7DEB72B970FB6F8947E
:1025C000DEBF0FBECDBF942F4F83252F588769875D
:1025D0007A878B874A855B85452B21F02F3F09F54C
:1025E0009F3FF9F4DE01119686E0FD0111928A9574
:1025F000E9F785E0FE01379601900D928A95E1F7A3
:1026000049815A816B817C818D819E810E947819DC
:102610002B960FB6F894DEBF0FBECDBFDF91CF91E2
:102620000895CE0107960E949D12DCCFCF93882398
:1026300009F4CDC0C82F823859F40E94A11181FD40
:10264000C6C089E30E94521C0E941F1D89E30CC072
:10265000833879F40E94A11180FDB9C083E50E94FE
:10266000521C0E941F1D83E50E94941CCF910C9464
:102670001F1D843859F40E94A11182FDA8C087E46F
:102680000E94521C0E941F1D87E4EECF8CEF8C0F1E
:10269000813A48F48C2F0E94A522811198C08C2F7A
:1026A0000E94521CE3CF80E28C0F883048F4C77040
:1026B00081E001C0880FCA95EAF70E94D81CD6CFE6
:1026C0008BE58C0F833078F4C53A29F0C63A31F0A7
:1026D00083E890E005C081E890E002C082E890E0E5
:1026E000CF910C94C31188E58C0F853108F06FC031
:1026F000C83A61F1C93A69F1CA3A71F1CB3A79F154
:10270000CC3A81F1CB3B89F1CC3B91F1CD3A99F1B7
:10271000C03BA1F1CE3AA9F1CF3AB1F1C13BB9F139
:10272000C23BC1F1C33BC9F1C43BD1F1C53BD9F1B7
:10273000C63BE1F1C73BE9F1C83BF1F1C93BF9F117
:10274000CA3B09F43FC080E090E03EC082EE90E0DA
:102750003BC089EE90E038C08AEE90E035C085EB52
:1027600090E032C086EB90E02FC083EB90E02CC06D
:1027700084EB90E029C087EB90E026C08CEC90E0E1
:1027800023C08DEC90E020C083E891E01DC08AE872
:1027900091E01AC082E991E017C084E991E014C089
:1027A00081E292E011C083E292E00EC084E292E006
:1027B0000BC085E292E008C086E292E005C087E2A5
:1027C00092E002C08AE292E0CF910C94D911CF91AD
:1027D0000895882309F44BC0823859F40E94A1114E
:1027E00081FF45C089E30E94521C0E941F1D89E39E
:1027F0000CC0833871F40E94A11180FF38C083E5BA
:102800000E94521C0E941F1D83E50E94941C0C9480
:102810001F1D843859F40E94A11182FF28C087E44B
:102820000E94521C0E941F1D87E4EFCF9CEF980F5F
:10283000913A58F390E2980F983050F4877091E0F5
:1028400001C0990F8A95EAF7892F0E94DE1CDFCF1D
:102850009BE5980F933020F480E090E00C94C31136
:10286000885A853120F480E090E00C94D9110895C5
:10287000882321F00E94D81C0C941F1D08958823E2
:1028800021F00E94DE1C0C941F1D08958F929F92D0
:10289000AF92BF92CF92DF92EF92FF920F931F936E
:1028A000CF93DF931F92CDB7DEB77C01C72EFC011B
:1028B000058102950F701281112321F069830E9416
:1028C000F51C698169830E944B1C6981882381F012
:1028D000112371F080E2860F883050F082E00E9470
:1028E000341C0E944B1C91E0D82ED926698101C06E
:1028F000D12CEC2DE295EF70F0E0E859FF4F0C94ED
:10290000BA2B8C2D807F0C2D0F70882311F002952F
:10291000007F1123C1F0002309F49BC180E2860FE0
:10292000883010F0611105C0802F69830E94D81C87
:1029300004C0802F69830E94E81C698169830E941A
:102940001F1D698186C1862F69830E94E9136981F1
:10295000002309F4CCC180E2860F883010F06111A9
:1029600004C0802F0E94DE1C03C0802F0E94EE1C3A
:102970000E941F1DBCC19C2D907F8C2D8F709032AA
:1029800011F08295807F662319F06130B1F01EC08E
:10299000112349F0002309F414C1013009F011C1D9
:1029A0000E94081DA4C1002319F0013009F49FC141
:1029B00089830E940B1D89810AC1112321F00230F5
:1029C00008F095C1FEC0011192C101C1112321F08F
:1029D000002309F4F6C03DC1002309F4F8C03FC14B
:1029E0008C2D86958695837090E0009719F001975D
:1029F00061F07DC1112321F0862F9C2D937002C0C0
:102A000080E090E00E94C31172C1112321F0862F53
:102A10009C2D937002C080E090E00E94D91167C1A4
:102A2000862F112319F00E946D1F02C00E94D51F2E
:102A30000E945A205CC18C2D837009F052C0111184
:102A400056C1862F829586958770880F880F962F9E
:102A50009F70892E912CA12CB12C082E04C0880CBB
:102A6000991CAA1CBB1C0A94D2F764FF14C00FE087
:102A700010E020E030E0B901A80104C0440F551F68
:102A8000661F771F8A95D2F7CB01BA0160957095C2
:102A90008095909503C060E070E0CB012C2D2695C9
:102AA0002695237030E02230310569F0233031055E
:102AB00089F0682979298A299B292130310571F00B
:102AC0000E94C01A14C1682979298A299B290E9469
:102AD000DC1A0DC10E94C01AC501B4010E94A41ADB
:102AE00006C1112319F08C2D817001C086958823B1
:102AF00009F4FDC0862F829586958770880F880F10
:102B0000962F9F70892E912CA12CB12C082E04C0D9
:102B1000880C991CAA1CBB1C0A94D2F764FF14C031
:102B20000FE010E020E030E0B901A80104C0440F3C
:102B3000551F661F771F8A95D2F7CB01BA016095A2
:102B400070958095909503C060E070E0CB012C2DCE
:102B5000269526952370422F50E04230510569F0AA
:102B60004330510589F0682979298A299B29413008
:102B7000510571F00E949A1BBAC0682979298A29E7
:102B80009B290E94B61BB3C00E949A1BC501B401C9
:102B90000E947E1BACC0862F90E0FC01E05EF10934
:102BA000E531F10508F051C0E858FF4F0C94BA2BFD
:102BB000062F0F708C2D8F71112331F00E94171B7F
:102BC000802F0E94381493C00E94381B802F0E94CF
:102BD0003F148DC0112339F0011189C08C2D8F71E4
:102BE0000E945D1B84C0023008F081C0F7CF112322
:102BF00039F08C2D8F710E94171B79C01123C9F3F6
:102C00008C2D8F710E94381B72C0112329F08C2DDE
:102C10008F710E94021B6BC00E94F81A68C01123BA
:102C200051F01C2D1F71812F0E94171B63E0812F13
:102C30000E942B1C5CC081E00E94341C023008F40E
:102C400056C082E00E94341C52C0112331F0002390
:102C500081F2862F0E9416134AC0002389F2862F24
:102C60000E94E91344C04C2D4F70C7010E94B80563
:102C70000E941C1A3CC0623F99F128F4603F49F061
:102C8000613FE1F020C0643FA1F050F0653F59F092
:102C90001AC0112339F19091470281E0892706C0BB
:102CA00081E018271DC011111DC081E080934702EB
:102CB00019C0111117C01092470214C0002381F0EF
:102CC000111110C0E8CF002359F0862F698311231A
:102CD00019F00E94161302C00E94E913698102C014
:102CE000109347024C2D4F70C7010E947707DD20DB
:102CF000F1F00E94271C80FD1AC0F70112820E9489
:102D0000211C0E94171BC7010E94A5160E94211CAE
:102D10000F90DF91CF911F910F91FF90EF90DF9077
:102D2000CF90BF90AF909F908F900C94381B0F90D6
:102D3000DF91CF911F910F91FF90EF90DF90CF9097
:102D4000BF90AF909F908F9008950F931F93CF9354
:102D5000DF93EC01888199812B813C81232BB9F091
:102D60009F3F11F48F3F99F0CE010E94FD0588230B
:102D700071F0688179818A810E941D1C8C010E94FA
:102D8000D21B0E94991AB801CE010E944614DF910D
:102D9000CF911F910F9108950E94F51C0E94051D6F
:102DA0000E94CA1C0E941F1D0E940A210E945A20D4
:102DB00080E090E00E94C31180E090E00C94D91173
:102DC0000E94E51C0C94CC160E94121CE92FE2957F
:102DD000EF70F0E03297EE30F105B0F4E357FF4FBB
:102DE0000C94BA2B803F91F018F4803E68F40EC02A
:102DF000843F51F40BC0803E48F0813F29F406C067
:102E000093FB882780F9089580E0089581E0089574
:102E1000CF93DF9300D000D01F92CDB7DEB70F90D5
:102E20000F900F900F900F90DF91CF910895CF9357
:102E3000DF9300D000D000D0CDB7DEB726960FB616
:102E4000F894DEBF0FBECDBFDF91CF9108951F93E1
:102E5000CF93DF93C091480216E080914902C817D2
:102E600099F0D0E01C9FF0011D9FF00D1124E65B4E
:102E7000FD4F4081518162817381848195810E94DF
:102E800017172196C770E9CFDF91CF911F91089551
:102E900040917A0250917B0260917C0270917D0298
:102EA00080917E0290917F020C94171780917F028F
:102EB00082958F7009F054C080917C02882309F4B8
:102EC0004FC080914802A091490260917A027091AE
:102ED0007B0240917D0250917E02B6E08A1709F490
:102EE0003FC090E041155105C1F17F3F11F46F3FA4
:102EF000A1F1B89FF001B99FF00D1124E65BFD4FE1
:102F0000218172132AC02081621327C022812111DE
:102F100024C0238134812417350710F4215031094E
:102F2000241B350B283C3105C0F420917F022F7003
:102F3000206120937F0226E0289FF001299FF00D59
:102F40001124E15BFD4F80818F70806180838AE76F
:102F500092E00E94A5160C94271701968770BECFA9
:102F60000895CF92DF92EF92FF920F931F93CF932A
:102F7000DF93CDB7DEB762970FB6F894DEBF0FBE12
:102F8000CDBF8C0185E0F801DE011D9601900D9208
:102F90008A95E1F7D8014C9111965C9111971296A0
:102FA0006C9112971396CD90DC90149730917A0221
:102FB00070917B0280917D0290917E02009709F4CE
:102FC0006BC17F3F19F43F3F09F466C1E0907C027A
:102FD000EE2009F4C0C020917F02C816D90628F05F
:102FE000F601E81BF90BCF0104C0809590958C0D7C
:102FF0009D1DFF24F394883C910578F0F12C207FEF
:1030000009F0C6C07C2DD98AC88A89890E94081710
:103010008AE792E00E94A516B1C0822F807F09F056
:1030200046C0751314C0341312C0611110C02F7044
:10303000206120937F020E9448178AE792E00E9455
:10304000A51680917F02D80115968C932EC0CD28AD
:1030500019F15F3F11F44F3FF9F0F62E61111CC0DA
:10306000809148022091490236E0821709F45AC043
:1030700090E0389FF001399FF00D1124E65BFD4F81
:103080007181571306C07081471303C0728171119B
:1030900003C001968770E9CFF62E662309F418C1A4
:1030A00080917F02816080937F02F12C11C17513A2
:1030B00008C0341306C0611104C080917F02D8019A
:1030C000C3C04D875E878D859E856A8B0E94E416FE
:1030D0006A898823E1F16623D1F120917F02822F52
:1030E00082958F7090E0029774F080917A029091AF
:1030F0007B0298878F831986DB86CA862C87CE0150
:1031000007960E94A51686E0F801AAE7B2E00190B2
:103110000D928A95E1F70E9456170E944817FF24E6
:10312000F394D6C04D875E878D859E850E94121CC4
:10313000292F22952F7030E0223031050CF0BCC0D1
:103140009F7009F0B6C0805E883008F4C1C0C80125
:103150000E94A516E4CFC816D90608F453C0F6019C
:10316000E81BF90BCF01883C910508F450C0F12C05
:103170007C2DD98AC88A89890E940817EAE7F2E07B
:1031800086E0DF011D928A95E9F70E944817A0C0EA
:10319000751314C0341312C0611110C080917F02E6
:1031A000F8018583C8010E94A51686E0EAE7F2E0EF
:1031B000DF011D928A95E9F7FE2C8AC04D875E8754
:1031C0008D859E856A8B0E94E4166A89882309F49E
:1031D000BECF662309F4BBCF20917F02822F829558
:1031E0008F7090E002970CF48ECF80917A029091CC
:1031F0007B029A8389831B82DD82CC822E83CE015F
:1032000001967FCF809590958C0D9D1DACCFF62EAD
:10321000662309F49CCF75132EC034132CC0209163
:103220007F0220FD1FC0822F82958F70D9F0D801B8
:1032300015962C9315978F3049F08F5F982F9295A4
:10324000907F822F8F70892B15968C93C8010E94D6
:10325000A51686E0F801AAE7B2E001900D928A95E2
:10326000E1F793CF86E0F801AAE7B2E001900D9272
:103270008A95E1F72DC04D875E878D859E850E94DA
:10328000E416811140CF80917F02816080937F029C
:10329000C8010E94A5161CC0662309F458CF4D87AB
:1032A0005E878D859E850E94E416882309F44FCFA2
:1032B0002ACF811148CF0CC0243031050CF047CF04
:1032C0009F7009F440CFF8019581907F09F03BCFC2
:1032D0008F2D62960FB6F894DEBF0FBECDBFDF9183
:1032E000CF911F910F91FF90EF90DF90CF900895B5
:1032F0001F93CF93DF93CDB7DEB72C970FB6F8941B
:10330000DEBF0FBECDBF4F83588769877A878B8713
:103310009C87CE0107960E94B117882369F08F81A0
:1033200098852A853B85232BF1F19F3F09F063C0E7
:103330008F3F09F060C037C086E0FE013796DE019E
:10334000119601900D928A95E1F76F817885EA8553
:10335000FB85309741F17F3F11F46F3F21F12091C0
:10336000490230E0C90101968770992740914802CF
:1033700050E08417950709F447C069837A83FD8379
:10338000EC8396E0929FD001939FB00D1124A65B31
:10339000BD4FFE01319601900D929A95E1F7809311
:1033A00049020E94271716E0809148029091490235
:1033B0008917C1F1189FC0011124865B9D4F0E949F
:1033C000B117882379F1E09148021E9FF001112482
:1033D000E65BFD4F408151816281738184819581DB
:1033E0000E9417178091480290E0019687709927F4
:1033F00080934802D9CF4F81588569857A858B851E
:103400009C850E941717CFCF0E94E01610924902A8
:1034100010924802EAE7F2E086E0DF011D928A9509
:10342000E9F7C1CF2C960FB6F894DEBF0FBECDBF23
:10343000DF91CF911F910895EF92FF920F931F9309
:10344000CF93DF938C01892B09F46CC0F12CEE240F
:10345000E394E8012196F8018491843740F48430A4
:1034600008F051C0813081F0823019F15BC085379E
:1034700009F444C0A8F19CE7980F903708F052C0B7
:103480008F770E94E91341C00E5F1F4FFE01C49168
:1034900080E28C0F883048F4C7708E2D01C0880FF1
:1034A000CA95EAF70E94F81C14C08C2F0E941613CC
:1034B0002DC00E5F1F4FFE01C49180E28C0F88303B
:1034C00058F4C7708E2D01C0880FCA95EAF70E9484
:1034D000FE1C0E941F1D1AC08C2F0E94E91316C0EB
:1034E0000E5F1F4FFE01C491CC2381F08FE99FE056
:1034F0000197F1F700C00000C150F6CF0E5F1F4FDB
:10350000FE01F49003C00E9416138E018F2D8823B4
:1035100009F49FCFEFE9FFE03197F1F700C0000019
:103520008150F5CFDF91CF911F910F91FF90EF90D8
:1035300008950895609384027093850280938602B3
:10354000909387020C94CC160F931F9300918402E2
:10355000109185022091860230918702DC01CB0117
:10356000802B912BA22BB32B809384029093850206
:10357000A0938602B09387021F910F910C94CC16F2
:103580000F931F930091840210918502209186026F
:1035900030918702DC01CB0180239123A223B32346
:1035A0008093840290938502A0938602B093870251
:1035B0001F910F910C94CC160F931F9300918402CE
:1035C000109185022091860230918702DC01CB01A7
:1035D00080279127A227B3278093840290938502A6
:1035E000A0938602B09387021F910F910C94CC1682
:1035F0001092800210928102109282021092830235
:103600000C94CC1641E050E060E070E004C0440F40
:10361000551F661F771F8A95D2F7409380025093FB
:10362000810260938202709383020C94CC1641E075
:1036300050E060E070E004C0440F551F661F771F24
:103640008A95D2F78091800290918102A0918202A6
:10365000B0918302482B592B6A2B7B2B409380021D
:103660005093810260938202709383020C94CC1673
:1036700041E050E060E070E004C0440F551F661F59
:10368000771F8A95D2F740955095609570958091F7
:10369000800290918102A0918202B091830248231E
:1036A00059236A237B2340938002509381026093C5
:1036B0008202709383020C94CC1641E050E060E0EB
:1036C00070E004C0440F551F661F771F8A95D2F71C
:1036D0008091800290918102A0918202B091830238
:1036E000482759276A277B274093800250938102FD
:1036F00060938202709383020C94CC160F931F93F5
:103700000091800210918102209182023091830207
:10371000DC01CB01802B912BA22BB32B8093800259
:1037200090938102A0938202B09383021F910F9124
:103730000C94CC160F931F9300918002109181027C
:103740002091820230918302DC01CB0180239123FE
:10375000A223B3238093800290938102A0938202DC
:10376000B09383021F910F910C94CC160F931F936B
:103770000091800210918102209182023091830297
:10378000DC01CB0180279127A227B32780938002F9
:1037900090938102A0938202B09383021F910F91B4
:1037A0000C94CC160895CF92DF92EF92FF920F9374
:1037B0001F93CF93DF938C01C0908402D090850239
:1037C000E0908602F09087028091800290918102C1
:1037D000A0918202B0918302C82AD92AEA2AFB2A40
:1037E000CFE1D0E0D701C6010C2E04C0B695A79555
:1037F000979587950A94D2F780FF06C0B8018C2F61
:103800000E949207019721F4219760F780E001C0A0
:103810008C2FDF91CF911F910F91FF90EF90DF9050
:10382000CF900895CF93DF93EC010E94D31BBE018C
:103830000E949207DF91CF910895CB010E94121C44
:103840000895809188028595859585950895809144
:1038500088028770089598E0899F90011124262B93
:10386000209388020C94171B209188028095822354
:1038700080938802982F977069F430E0482F082EC3
:10388000000C550B2417350729F0859585958595EE
:103890000C94381B089590918802977081E009F488
:1038A00080E0089590911401992321F090912703CD
:1038B00097FD09C02091030130910401F90132966E
:1038C0009FEF40E01FC0982F9695969596959F3153
:1038D00050F5E0910301F0910401E90FF11D8770AB
:1038E00021E030E0A90102C0440F551F8A95E2F79C
:1038F000CA019181892B818308959F3F39F04F5FE1
:103900004E3141F051915813F8CF0DC05111F7CFFE
:10391000942FF5CF9F3F39F0F901E90FF11D97FD85
:10392000FA9582830895089590911401992321F0C6
:103930009091270397FD09C0209103013091040164
:10394000F9013296205E3F4F1FC0982F96959695AD
:1039500096959F31F0F4E0910301F0910401E90F95
:10396000F11D877021E030E0A90102C0440F551F0E
:103970008A95E2F7CA018095918189238183089510
:103980003196E217F30729F090819813F9CF10824E
:10399000F7CF089581E090E0E0910301F0910401F8
:1039A000E80FF91F1082019680329105A9F708955A
:1039B0009091AC02892B8093AC02089580959091F0
:1039C000AC0289238093AC0208951092AC02089552
:1039D0009091AB02892B8093AB02089580959091D2
:1039E000AB0289238093AB0208951092AB02089535
:1039F0009091AA02892B8093AA02089580959091B4
:103A0000AA0289238093AA0208951092AA02089517
:103A1000809389020895109289020895809103018C
:103A200090910401FC0131969C01205E3F4F80E0A3
:103A3000919191118F5FE217F307D1F70895E0910B
:103A40000301F09104018091AC028083E0910301B5
:103A5000F091040190818091AB02892B8083E091E9
:103A60000301F091040190818091AA02892B808347
:103A700080918902882361F0E0910301F0910401B3
:103A80009081892B80830E940E1D811110928902E2
:103A900080910301909104010C94AD11CF92DF92BB
:103AA000EF92FF926C01EE24FF24C114D104E104D3
:103AB000F10421F0C701B60120E101C020E0C72ECA
:103AC000D82EE92EFF24C114D104E104F10419F029
:103AD000285FC701B6016B017C0154E0F694E794BE
:103AE000D794C7945A95D1F7C114D104E104F104D5
:103AF00019F02C5FC701B6016B017C0142E0F6941E
:103B0000E794D794C7944A95D1F7C114D104E1043E
:103B1000F10419F02E5FC701B601DC01CB01B695A7
:103B2000A79597958795892B8A2B8B2B09F02F5F6B
:103B3000822FFF90EF90DF90CF9008956DEE7EEF93
:103B400080E090E00E94F22B60E082E090E00E9432
:103B5000D42B60E083E090E00E94D42B60E084E00E
:103B600090E00E94D42B60E085E090E00E94D42B8E
:103B700040E050E0BA0188E090E00C94E62B80E051
:103B800090E00E94CE2B21E08D3E9E4F09F020E078
:103B9000822F089582E090E00C94C02B83E090E0A7
:103BA0000C94C02B84E090E00C94C02B682F84E030
:103BB00090E00C94D42B80912D03843039F1109235
:103BC000AE0220E488E190E00FB6F894A8958093C7
:103BD00060000FBE2093600080E00E94750783B7ED
:103BE000817F846083BF83B7816083BF7894889529
:103BF00083B78E7F83BF0FB6F894A895809160003D
:103C0000886180936000109260000FBE089508954F
:103C1000CF930E94B0040E94C3040E94071EC0E01C
:103C20008C2F0E94B105811104C0CF5FCE30C1F747
:103C300001C081E0CF9108950E94E0160E94A11179
:103C40000C9475071F920F920FB60F9211248F9349
:103C50009F93AF93BF938091AE02811113C0809167
:103C6000230390912403A0912503B091260341964C
:103C7000A11DB11D8093230390932403A0932503DA
:103C8000B0932603BF91AF919F918F910F900FBE7C
:103C90000F901F90189582E084BD93E095BD9AEF38
:103CA00097BD80936E0008952FB7F89480912303F9
:103CB00090912403A0912503B09126032FBF08956E
:103CC000CF92DF92EF92FF920F931F932FB7F8944A
:103CD00040912303509124036091250370912603A2
:103CE0002FBF6A017B01EE24FF248C0120E030E02D
:103CF000C016D106E206F30610F4415051099A01AC
:103D0000281B390BC9011F910F91FF90EF90DF9095
:103D1000CF90089578941F920F920FB60F921124AE
:103D20008F939F93AF93BF9380912303909124032C
:103D3000A0912503B09126030196A11DB11D80938A
:103D4000230390932403A0932503B0932603BF91EC
:103D5000AF919F918F910F900FBE0F901F9018956C
:103D60000E946327F8942FEF87EA91E62150804064
:103D70009040E1F700C0000087E090EBDC01809309
:103D8000360390933703A0933803B09339039CE034
:103D900088E10FB6F894A895809360000FBE9093C9
:103DA0006000FFCF0E94BF1D811102C00E949E1DB6
:103DB0000E94CA1D8093AD020E94D21D90E0909394
:103DC0002803809327030E94CE1D682F70E080E0B7
:103DD00090E00C949A1A8091B20280FF0BC060911F
:103DE000080185E0689FB001112475956795759568
:103DF00067952BC081FF09C06091080185E0689F2D
:103E0000B00111247595679520C082FF07C06091AD
:103E1000080185E0689FB001112417C09091B3029A
:103E20009923D1F060910701961788F72091080136
:103E300085E0289F90011124929FA001939F500D2F
:103E4000112470E0CA010E94A62B6038710540F46D
:103E50006115710539F002C065E070E0862F0895A4
:103E60008FE7089581E008958091B20280FF08C035
:103E70006091060170E0759567957595679521C00D
:103E800081FF06C06091060170E07595679519C0C5
:103E900082FF04C06091060170E010C09091B302EF
:103EA0009923C1F0609105019617A0F78091060152
:103EB000899FC001112470E00E94A62B6038710513
:103EC00028F46115710521F0862F08958FE7089574
:103ED00081E0089561E070E0F4CF803F21F40E941A
:103EE000EB1E819504C0813F29F40E94EB1E809354
:103EF000B6020895823F21F40E94EB1E819504C012
:103F0000833F29F40E94EB1E8093B5020895893FF8
:103F100019F40E94341F05C08A3F31F40E94341FF7
:103F200081958093B70208958B3F21F40E94341F3E
:103F3000819504C08C3F29F40E94341F8093B802FD
:103F40000895843F21F48091B402816017C0853FB9
:103F500021F48091B402826011C0863F21F48091E7
:103F6000B40284600BC0873F21F48091B402886062
:103F700005C0883F31F48091B40280618093B4021F
:103F800008958D3F21F48091B20281600BC08E3F75
:103F900021F48091B202826005C08F3F29F48091A4
:103FA000B20284608093B2020895803F39F4809118
:103FB000B60287FF6CC01092B60269C0813F29F437
:103FC0008091B6021816BCF362C09091B502823F90
:103FD00029F497FF5CC01092B50259C0833F19F4D1
:103FE0001916CCF354C0893F41F48091B7021816DA
:103FF0000CF04DC01092B7024AC08A3F29F480915C
:10400000B70287FF44C0F6CF8B3F39F48091B802E6
:1040100087FF3DC01092B8023AC08C3F29F48091CE
:10402000B8021816BCF333C0843F21F48091B40267
:104030008E7F17C0853F21F48091B4028D7F11C01F
:10404000863F21F48091B4028B7F0BC0873F21F41F
:104050008091B402877F05C0883F31F48091B4021B
:104060008F7E8093B40213C08D3F21F48091B20201
:104070008E7F0BC08E3F21F48091B2028D7F05C0F0
:104080008F3F29F48091B2028B7F8093B20280919E
:10409000B50281110EC08091B60281110AC08091D3
:1040A000B702811106C08091B802811102C010923E
:1040B000B302089584EB92E00E94B8110E94541E4E
:1040C0009093B0028093AF0208951F93CF93DF9334
:1040D0008091AF029091B0020E94601EAC0190915D
:1040E000B302992321F02091090130E006C020910C
:1040F000B1028AE0289F900111244217530708F467
:1041000085C08091B502C091B602D091B7021091DE
:10411000B802811107C0C11175C0D11173C011114E
:1041200071C074C09F3F19F09F5F9093B30218163F
:1041300024F40E94EB1E8093B5028091B50287FFA4
:1041400005C00E94EB1E81958093B5021C1624F4D5
:104150000E94EB1E8093B6028091B60287FF05C0D5
:104160000E94EB1E81958093B6026091B502662392
:1041700031F1C091B602CC2311F1062E000C770B61
:10418000880B990B0E94992A23E333E343E35FE30F
:104190000E94FD2A0E94612A6093B5026C2FCC0F09
:1041A000770B880B990B0E94992A23E333E343E3AF
:1041B0005FE30E94FD2A0E94612A6093B6021D16E9
:1041C00024F40E94341F8093B7028091B70287FFC6
:1041D00005C00E94341F81958093B702111624F404
:1041E0000E94341F8093B8028091B80287FF05C0F7
:1041F0000E94341F81958093B802DF91CF911F9167
:104200000C945A209F3F09F08FCF97CFDF91CF9129
:104210001F910895E4EBF2E085E0DF011D928A959D
:10422000E9F71092B3021092B2020895833081F13F
:1042300028F4813059F08230D1F00895853009F4A6
:1042400049C0B8F1863009F456C008958091B10292
:10425000262F30E0280F311D2F3F310524F4680F41
:104260006093B10208958FEF8093B1020895809119
:104270000901262F30E0280F311D2F3F310524F48E
:10428000680F6093090108958FEF809309010895E5
:1042900080910801262F30E0280F311D2F3F310576
:1042A00024F4680F6093080108958FEF809308014C
:1042B000089580910701262F30E0280F311D2F3FF0
:1042C000310524F4680F6093070108958FEF809300
:1042D0000701089580910601262F30E0280F311D37
:1042E0002F3F310524F4680F6093060108958FEF86
:1042F00080930601089580910501262F30E0280F54
:10430000311D2F3F310524F4680F60930501089596
:104310008FEF809305010895833011F128F48130E7
:1043200049F0823091F00895853081F120F1863096
:10433000C1F108958091B102681720F4861B809323
:10434000B10208951092B102089580910901681791
:1043500020F4861B809309010895109209010895A5
:1043600080910801681720F4861B80930801089546
:1043700010920801089580910701681720F4861BA8
:104380008093070108951092070108958091060116
:10439000681720F4861B8093060108951092060189
:1043A000089580910501681720F4861B809305010C
:1043B00008951092050108950F931F93873208F016
:1043C0004DC08E3108F093C0803109F47DC008F5EE
:1043D000873009F46BC068F4863009F0A3C080917F
:1043E000AD02817F8E7F8093AD0281E08093BA021F
:1043F0009AC08B3009F48FC08E3009F093C0809141
:10440000AD0282FB222720F991E0922790FB82F9EE
:1044100064C0863109F47FC088F4813109F082C01C
:104420000E94E0168091270387FB222720F991E064
:10443000922790FB87F9809327036DC0893109F497
:104440006AC08B3109F06EC08091AD0281FB2227DA
:1044500020F991E0922790FB81F93FC0883309F45D
:104460005AC050F4893209F458C0853309F455C054
:10447000873209F452C056C0833409F44EC028F480
:104480008A3308F44FC0895333C0883409F04AC0D6
:104490000E94E0160FEF13ED20E301501040204082
:1044A000E1F700C000000E94B01E35C08091AD024F
:1044B000982F9095917090FB80F98093AD029111A7
:1044C0002AC0897F877F10C08091AD0283FB22279D
:1044D00020F991E0922790FB83F98093AD02992314
:1044E000D1F08091AD0281608093AD0214C08D51F6
:1044F00041E050E060E070E08A019B0104C0000FE1
:10450000111F221F331F8A95D2F7C901B8010E94DB
:104510009A1A0E94E01681E006C061E070E080E037
:1045200090E0F5CF80E01F910F91089580E008950D
:1045300080E008958E518A3030F4E82FF0E0E354A3
:10454000FE4F8081089580E00895CF93C82F809119
:10455000BA02813079F018F08230E9F185C0E0913B
:104560000301F09104018081813169F0823209F008
:104570007DC009C0E0910301F09104018081813187
:1045800011F0823261F48C2F0E949622811104C0B6
:104590008C2F0E94DC211DC081E090E01AC08C2F7E
:1045A0000E949822811114C0C43179F048F4CB30B4
:1045B00079F0C03109F05EC082E08093BA0208C091
:1045C000C93219F0C83321F055C01092BA0252C056
:1045D00081E0817051C0C93279F108F5C43161F1CF
:1045E000A0F4C73009F044C01092B10294E1909356
:1045F00009018093080185E08093070188E080939A
:10460000060188E28093050133C082EE8C0F86306C
:1046100078F58C2F0E949A228093B90229C0CE345B
:10462000E9F020F4CB3421F56AE013C0C13579F00C
:10463000C235F1F461E00DC08091B902882319F010
:104640001092B90215C081E08093BA0215C061E0F2
:1046500006C08091B9020E9416210AC06AE08091CA
:10466000B9020E948C2104C01092BA0280E004C0FA
:1046700081E002C080E0ADCFCF9108958091DB0250
:1046800008950F931F93CF93DF9300D01F92CDB760
:10469000DEB78C010E94B125823011F0853019F50A
:1046A00093E099831B830A839093E9008FEF9091A5
:1046B000E800815095FD06C095ED9A95F1F7000050
:1046C0008111F5CF8091E80085FF0DC040E050E0FA
:1046D00063E070E0CE0101960E94CE258091E80053
:1046E0008E778093E8000F900F900F90DF91CF911D
:1046F0001F910F910895CF93DF9300D01F92CDB7F4
:10470000DEB720912D03243031F522E02983805833
:1047100091099B838A8383E08093E9008FEF9091D6
:10472000E800815095FD06C095ED9A95F1F70000DF
:104730008111F5CF8091E80085FF0DC040E050E089
:1047400063E070E0CE0101960E94CE258091E800E2
:104750008E778093E8000F900F900F90DF91CF91AC
:104760000895CF93DF93EC010E94B125823011F0C0
:104770008530F9F482E08093E9009FEF8091E800B2
:10478000915085FD06C085ED8A95F1F700009111E5
:10479000F5CF8091E80085FF0CC040E050E065E077
:1047A00070E0CE010E94CE258091E8008E77809344
:1047B000E800DF91CF910895CF93DF93EC010E9441
:1047C000B125823019F0853009F047C0809114017D
:1047D0008823E1F08091270387FF18C084E080934D
:1047E000E9008FEF9091E800815095FD06C095E1BA
:1047F0009A95F1F700008111F5CF8091E80085FFCF
:104800002CC040E050E060E270E017C081E080938F
:10481000E9008FEF9091E800815095FD06C095ED7D
:104820009A95F1F700008111F5CF8091E80085FF9E
:1048300014C040E050E068E070E0CE010E94CE2558
:104840008091E8008E778093E80080E2FE01ABEB78
:10485000B2E001900D928A95E1F7DF91CF91089532
:1048600080912C03811109C00E9463270E94C027F8
:104870008091E20084608093E200089510922C03FE
:104880000895089508950C941C1E42E061EC81E0A7
:104890000E94DD2642E061EC82E00E94DD2642E0DB
:1048A00061EC83E00E94DD2642E261EC84E00C943E
:1048B000DD2680912F03833009F455C030F4813018
:1048C00071F0823009F48EC008958A3009F47AC0FC
:1048D0008B3009F460C0893009F09CC020C0809101
:1048E0002E03813A09F096C08091E800877F80937B
:1048F000E8008091320390913303892B21F460E228
:104900008BEB92E003C060E080E090E070E00E94FA
:1049100019268091E8008B778093E80008958091B4
:104920002E03813209F076C08091320390913303D7
:10493000009719F0039709F06DC08091E800877F18
:104940008093E8008091E80082FD05C080912D03EE
:104950008111F8CF5FC08091F1008093DB028091DC
:10496000E8008B7753C080912E03813A09F052C042
:104970008091320390913303892B09F04BC08091D1
:10498000E800877F8093E8008091E80080FFFCCFFB
:104990008091140136C080912E038132D9F5809127
:1049A000320390913303892BA9F58091E800877F2A
:1049B0008093E8000E9412278091300380931401B5
:1049C0000C94E01680912E03813221F58091E8004D
:1049D000877F8093E8000E941227809131038093A3
:1049E000DC02089580912E03813AA1F48091E800C1
:1049F000877F8093E8008091E80080FFFCCF809162
:104A0000DC028093F1008091E8008E778093E800CB
:104A10000C941227089584B7877F84BF0FB6F8944B
:104A2000A89580916000886180936000109260007A
:104A30000FBE80E880936100109261000E94F01127
:104A40000E9463270E94C0278091E20084608093C7
:104A5000E20078940E94462A0E94F2118AE091E0D6
:104A60000E949C1180912D03853069F40E94DB1D0A
:104A700080912B038823B1F30E94081E882391F3B1
:104A80000E94B825EFCF0E94FA110E946911EACF67
:104A9000292F332723303105C9F064F42130310543
:104AA00081F02230310509F043C08DE690E023E328
:104AB00036E042C021323105F1F02232310541F1B8
:104AC00037C082E190E020EA36E036C09927813095
:104AD000910541F08230910541F0892B49F5EFE2D3
:104AE000F6E005C0E7E1F6E002C0EFEFF5E0849103
:104AF00090E09F0121C06430D8F4E62FF0E0EE0F83
:104B0000FF1FED52FE4F2081318189E090E014C0FB
:104B1000643070F470E0FB01EE0FFF1FE553FE4FB1
:104B200020813181FB01E953FE4F808190E004C078
:104B300080E090E020E030E0FA01318320830895A6
:104B40000895CF93C82F0E94A025C093DD02CF9176
:104B5000089580912D03843011F081E0089582E062
:104B600008958091DD02811102C00C94A925089559
:104B700080E189BD82E189BD09B400FEFDCF80914D
:104B8000D8008F7D8093D8008091E0008260809370
:104B9000E0008091E00081FDFCCF0895CF92DF928C
:104BA000EF92FF920F931F93CF93DF93EC018B0152
:104BB0006A010E943127811133C0C114D10439F038
:104BC000F60180819181081B190BC80FD91FE12CB8
:104BD000F12C0115110519F18091E80085FD16C031
:104BE0008091E8008E778093E800C114D10449F0E9
:104BF000F60180819181E80EF91EF182E08285E064
:104C00000FC00E943127882321F30AC08991809325
:104C1000F10001501109FFEFEF1AFF0ADACF80E02F
:104C2000DF91CF911F910F91FF90EF90DF90CF9088
:104C3000089520913403309135032617370748F043
:104C40006115710539F42091E8002E772093E80072
:104C500001C0B90140E061157105A9F120912D0352
:104C6000222309F443C0253009F442C02091E80012
:104C700023FD40C02091E80022FD32C02091E800D1
:104C800020FFE9CF4091F3002091F20030E0342B77
:104C9000FC01CF016115710559F02830310540F450
:104CA00081918093F100615071092F5F3F4FF1CFE7
:104CB00041E02830310509F040E02091E8002E77EE
:104CC0002093E800C8CF4111C9CF0AC080912D03BD
:104CD000882361F0853061F08091E80083FD0AC08F
:104CE0008091E80082FFF2CF80E0089582E008958D
:104CF00083E0089581E008952091340330913503D5
:104D00002617370748F06115710539F42091E8003E
:104D10002E772093E80001C0B901FC0120E0611565
:104D2000710591F180912D03882309F440C08530ED
:104D300009F43FC08091E80083FD3DC08091E80008
:104D400082FD2FC08091E80080FFE9CF2091F30021
:104D50008091F20090E0922B6115710559F0883036
:104D6000910540F424912093F1003196615071092E
:104D70000196F2CF21E0089709F020E08091E80049
:104D80008E778093E800CBCF2111CCCF0AC08091E1
:104D90002D03882361F0853061F08091E80083FD68
:104DA0000AC08091E80082FFF2CF80E0089582E09F
:104DB000089583E0089581E00895982F973058F57D
:104DC0009093E900981739F07091EC002091ED0074
:104DD0005091F00003C0242F762F50E021FF19C01E
:104DE0003091EB003E7F3093EB003091ED003D7F42
:104DF0003093ED003091EB0031603093EB00709315
:104E0000EC002093ED005093F0002091EE0027FF7E
:104E100007C09F5FD3CF8F708093E90081E0089532
:104E200080E0089580912E0387FF11C08091E800F3
:104E300082FD05C080912D038111F8CF11C08091B2
:104E4000E8008B770BC080912D03882349F0809177
:104E5000E80080FFF8CF8091E8008E778093E8002B
:104E600008952091E4003091E50095E64091EC0032
:104E7000842F817040FF22C08091E80080FD1CC01B
:104E800080912D03882391F0853091F08091EB0083
:104E900085FD10C04091E4005091E5004217530792
:104EA00029F39A01915011F784E0089582E0089562
:104EB00083E0089581E0089580E008954091E8003E
:104EC00042FFDECF08950E94D1270E94D927E0EE4D
:104ED000F0E0808181608083E8EDF0E080818F7771
:104EE000808319BCA7EDB0E08C918E7F8C9380817C
:104EF0008F7E808310922C0308950F931F93CF937E
:104F0000DF930E94D1270E94D927C8EDD0E0888185
:104F10008F77888388818068888388818F7D888364
:104F200019BC10922D031092290310922B0310929A
:104F30002A0300EE10E0F80180818B7F8083888156
:104F40008160888342E060E080E00E94DD26E1EE3F
:104F5000F0E080818E7F8083E2EEF0E080818160EE
:104F60008083808188608083F80180818E7F808348
:104F7000888180618883DF91CF911F910F9108957F
:104F8000E8EDF0E080818F7E8083E7EDF0E08081C6
:104F90008160808384E082BF81E080932C030C9445
:104FA0007D27E8EDF0E080818E7F80831092E20023
:104FB00008951092DA001092E10008951F920F9266
:104FC0000FB60F9211242F933F934F935F936F93DC
:104FD0007F938F939F93AF93BF93EF93FF938091B2
:104FE000E10082FF0BC08091E20082FF07C0809148
:104FF000E1008B7F8093E1000E94452A8091DA00D6
:1050000080FF1FC08091D80080FF1BC08091DA0014
:105010008E7F8093DA008091D90080FF0DC080E1FF
:1050200089BD82E189BD09B400FEFDCF81E0809396
:105030002D030E94302405C019BC10922D030E943C
:105040003E248091E10080FF19C08091E20080FF42
:1050500015C08091E2008E7F8093E2008091E20093
:1050600080618093E2008091D80080628093D800B4
:1050700019BC85E080932D030E9442248091E100B9
:1050800084FF30C08091E20084FF2CC080E189BDA4
:1050900082E189BD09B400FEFDCF8091D8008F7DEB
:1050A0008093D8008091E1008F7E8093E100809111
:1050B000E2008F7E8093E2008091E2008160809325
:1050C000E20080912903882311F084E007C08091D9
:1050D000E30087FD02C081E001C083E080932D03DF
:1050E0000E9443248091E10083FF29C08091E20067
:1050F00083FF25C08091E100877F8093E10082E0FB
:1051000080932D03109229038091E1008E7F80937C
:10511000E1008091E2008E7F8093E2008091E200C6
:1051200080618093E20042E060E080E00E94DD2642
:105130008091F00088608093F0000E944124FF91EC
:10514000EF91BF91AF919F918F917F916F915F91FF
:105150004F913F912F910F900FBE0F901F90189578
:105160001F920F920FB60F9211242F933F934F93DC
:105170005F936F937F938F939F93AF93BF93CF93DF
:10518000DF93EF93FF93C091E900CF708091EC0023
:10519000D82FD17080FDD0E81092E9008091F00006
:1051A000877F8093F00078940E94F4281092E900A1
:1051B0008091F00088608093F000CD2BCF70C09379
:1051C000E900FF91EF91DF91CF91BF91AF919F9156
:1051D0008F917F916F915F914F913F912F910F90A0
:1051E0000FBE0F901F9018951F93CF93DF93CDB7ED
:1051F000DEB7AA970FB6F894DEBF0FBECDBFEEE2C2
:10520000F3E088E08E0F9091F10091938E13FBCF25
:105210000E9459248091E80083FF1FC180912E03D2
:1052200090912F03492F50E04A30510508F015C1E5
:10523000FA01E556FF4F0C94BA2B803881F0823882
:1052400009F00BC1809132038F708093E900809147
:10525000EB0085FB882780F91092E90006C0809159
:105260002A0390912B03911182609091E800977F1F
:105270009093E8008093F1001092F100C8C0282FAD
:105280002D7F09F0EAC0882319F0823061F0E5C073
:1052900080913003813009F0E0C0933009F080E064
:1052A00080932B032BC080913003811127C0809104
:1052B00032038F7009F4D1C08093E9002091EB0094
:1052C00020FF1CC0933021F48091EB00806214C059
:1052D0009091EB0090619093EB0021E030E0A90108
:1052E00002C0440F551F8A95E2F74093EA001092DE
:1052F000EA008091EB0088608093EB001092E90057
:105300008091E800877F86C08111A7C0109130038B
:105310001F778091E3008078812B8093E300809158
:10532000E800877F8093E8000E9412278091E800C0
:1053300080FFFCCF8091E30080688093E30011112F
:1053400002C082E001C083E080932D0386C08058B4
:10535000823008F082C080913003909131038C3DFF
:1053600053E0950779F583E08A838AE289834FB712
:10537000F894DE01139620E03EE051E2E32FF0E0E6
:1053800050935700E49120FF03C0E295EF703F5F18
:10539000EF708E2F90E0EA3010F0C79601C0C096F3
:1053A0008D939D932F5F243149F74FBF8091E80083
:1053B000877F8093E8006AE270E0CE0101960E9448
:1053C000192614C0AE014F5F5F4F609132030E94F7
:1053D0004825BC01892B09F440C09091E800977FD3
:1053E0009093E80089819A810E947C268091E80050
:1053F0008B778093E80031C0803879F58091E800A0
:10540000877F8093E800809129038093F100809149
:10541000E8008E778093E8000E9412271EC0811159
:105420001CC0909130039230C0F48091E800877FD7
:105430008093E800909329030E941227809129030A
:10544000811106C08091E30087FD02C081E001C0A8
:1054500084E080932D030E9445248091E80083FF1F
:105460000AC08091E800877F8093E8008091EB007C
:1054700080628093EB00AA960FB6F894DEBF0FBE51
:10548000CDBFDF91CF911F9108950895CF93809163
:105490002D038823A1F0C091E900CF709091EC001A
:1054A000892F817090FD80E8C82B1092E9008091CF
:1054B000E80083FD0E94F428CF70C093E900CF91EB
:1054C00008950E94682A6894B1110C94F72A0895EF
:1054D0000E94DC2A88F09F5798F0B92F9927B7517E
:1054E000B0F0E1F0660F771F881F991F1AF0BA9588
:1054F000C9F714C0B13091F00E94F62AB1E00895C6
:105500000C94F62A672F782F8827B85F39F0B93FB7
:10551000CCF3869577956795B395D9F73EF490953A
:105520008095709561957F4F8F4F9F4F0895E894B8
:1055300009C097FB3EF490958095709561957F4FDB
:105540008F4F9F4F9923A9F0F92F96E9BB27939589
:10555000F695879577956795B795F111F8CFFAF499
:10556000BB0F11F460FF1BC06F5F7F4F8F4F9F4FCA
:1055700016C0882311F096E911C0772321F09EE828
:10558000872F762F05C0662371F096E8862F70E08E
:1055900060E02AF09A95660F771F881FDAF7880F68
:1055A0009695879597F9089557FD9058440F551F84
:1055B00059F05F3F71F04795880F97FB991F61F095
:1055C0009F3F79F087950895121613061406551F0C
:1055D000F2CF4695F1DF08C0161617061806991F78
:1055E000F1CF86957105610508940895E894BB276D
:1055F00066277727CB0197F908950E94102B0C940A
:10560000812B0E94732B38F00E947A2B20F0952377
:1056100011F00C946A2B0C94702B11240C94F72A23
:105620000E94D42A70F3959FC1F3950F50E0551F47
:10563000629FF001729FBB27F00DB11D639FAA27E7
:10564000F00DB11DAA1F649F6627B00DA11D661F36
:10565000829F2227B00DA11D621F739FB00DA11D57
:10566000621F839FA00D611D221F749F3327A00D11
:10567000611D231F849F600D211D822F762F6A2FAD
:1056800011249F5750409AF0F1F088234AF0EE0F12
:10569000FF1FBB1F661F771F881F91505040A9F73F
:1056A0009E3F510580F00C946A2B0C94F72A5F3FC3
:1056B000E4F3983ED4F3869577956795B795F7957B
:1056C000E7959F5FC1F7FE2B880F911D96958795F3
:1056D00097F9089597F99F6780E870E060E0089572
:1056E0009FEF80EC089500240A94161617061806FA
:1056F0000906089500240A941216130614060506D6
:105700000895092E0394000C11F4882352F0BB0F66
:1057100040F4BF2B11F460FF04C06F5F7F4F8F4FC9
:105720009F4F0895AA1BBB1B51E107C0AA1FBB1FB7
:10573000A617B70710F0A61BB70B881F991F5A951D
:10574000A9F780959095BC01CD01089597FB072E90
:1057500016F4009407D077FD09D00E94922B07FC25
:1057600005D03EF4909581959F4F08957095619571
:105770007F4F0895EE0FFF1F0590F491E02D0994DF
:10578000F999FECF92BD81BDF89A992780B5089509
:10579000A6E1B0E044E050E00C94FA2BA8E1B0E0C0
:1057A00042E050E00C94FA2B262FF999FECF92BDDF
:1057B00081BDF89A019700B4021639F01FBA20BDD6
:1057C0000FB6F894FA9AF99A0FBE08950396272F08
:1057D0000E94D52B0E94D42B252F0E94D52B242F3D
:1057E0000C94D52B0196272F0E94D52B0C94D42BEB
:1057F000DC01CB01FC01F999FECF06C0F2BDE1BD91
:10580000F89A319600B40D9241505040B8F708957F
:04581000F894FFCF3A
:105814000520FF8A0228080502143E23DC23B12355
:105824007B23412301000D010D020D030D040D0521
:105834000D000C010C020C030C040C050C000B01F4
:105844000B020B030B040B050B000A010A020A03EB
:105854000A040A050A0009010902090309040905E1
:1058640009000801080208030804080508000701E4
:1058740007020703070407050700060106020603DB
:1058840006040605060005010502050305040505D1
:1058940005000401040204030404040504000301D4
:1058A40003020303030403050300020102020203CB
:1058B40002040205020001010102010301040105C1
:1058C40001000001000200030004000500010203BE
:1058D40004050607080900404D36396E072107EB19
:0C58E40006B20645065E06770690060038
:00000001FF
